{
  "_format": "hh-sol-artifact-1",
  "contractName": "InstitutionalEscrow",
  "sourceName": "contracts/InstitutionalEscrow.sol",
  "abi": [
    {
      "inputs": [
        {
          "internalType": "address",
          "name": "tokenAddress",
          "type": "address"
        },
        {
          "internalType": "address",
          "name": "treasuryAddress",
          "type": "address"
        },
        {
          "internalType": "address",
          "name": "admin",
          "type": "address"
        }
      ],
      "stateMutability": "nonpayable",
      "type": "constructor"
    },
    {
      "inputs": [],
      "name": "AccessControlBadConfirmation",
      "type": "error"
    },
    {
      "inputs": [
        {
          "internalType": "address",
          "name": "account",
          "type": "address"
        },
        {
          "internalType": "bytes32",
          "name": "neededRole",
          "type": "bytes32"
        }
      ],
      "name": "AccessControlUnauthorizedAccount",
      "type": "error"
    },
    {
      "inputs": [],
      "name": "EnforcedPause",
      "type": "error"
    },
    {
      "inputs": [],
      "name": "ExpectedPause",
      "type": "error"
    },
    {
      "inputs": [],
      "name": "ReentrancyGuardReentrantCall",
      "type": "error"
    },
    {
      "inputs": [
        {
          "internalType": "address",
          "name": "token",
          "type": "address"
        }
      ],
      "name": "SafeERC20FailedOperation",
      "type": "error"
    },
    {
      "anonymous": false,
      "inputs": [
        {
          "indexed": true,
          "internalType": "address",
          "name": "oldGateway",
          "type": "address"
        },
        {
          "indexed": true,
          "internalType": "address",
          "name": "newGateway",
          "type": "address"
        }
      ],
      "name": "OracleGatewayUpdated",
      "type": "event"
    },
    {
      "anonymous": false,
      "inputs": [
        {
          "indexed": false,
          "internalType": "address",
          "name": "account",
          "type": "address"
        }
      ],
      "name": "Paused",
      "type": "event"
    },
    {
      "anonymous": false,
      "inputs": [
        {
          "indexed": true,
          "internalType": "uint256",
          "name": "positionId",
          "type": "uint256"
        },
        {
          "indexed": true,
          "internalType": "address",
          "name": "operator",
          "type": "address"
        },
        {
          "indexed": false,
          "internalType": "string",
          "name": "reason",
          "type": "string"
        }
      ],
      "name": "PositionCancelled",
      "type": "event"
    },
    {
      "anonymous": false,
      "inputs": [
        {
          "indexed": true,
          "internalType": "uint256",
          "name": "positionId",
          "type": "uint256"
        },
        {
          "indexed": true,
          "internalType": "address",
          "name": "depositor",
          "type": "address"
        },
        {
          "indexed": true,
          "internalType": "address",
          "name": "beneficiary",
          "type": "address"
        },
        {
          "indexed": false,
          "internalType": "uint256",
          "name": "amount",
          "type": "uint256"
        },
        {
          "indexed": false,
          "internalType": "bytes32",
          "name": "subjectId",
          "type": "bytes32"
        },
        {
          "indexed": false,
          "internalType": "enum InstitutionalEscrow.TriggerEventType",
          "name": "triggerEvent",
          "type": "uint8"
        },
        {
          "indexed": false,
          "internalType": "string",
          "name": "partnerCode",
          "type": "string"
        }
      ],
      "name": "PositionCreated",
      "type": "event"
    },
    {
      "anonymous": false,
      "inputs": [
        {
          "indexed": true,
          "internalType": "uint256",
          "name": "positionId",
          "type": "uint256"
        },
        {
          "indexed": true,
          "internalType": "address",
          "name": "operator",
          "type": "address"
        },
        {
          "indexed": false,
          "internalType": "string",
          "name": "reason",
          "type": "string"
        }
      ],
      "name": "PositionFrozen",
      "type": "event"
    },
    {
      "anonymous": false,
      "inputs": [
        {
          "indexed": true,
          "internalType": "uint256",
          "name": "positionId",
          "type": "uint256"
        },
        {
          "indexed": true,
          "internalType": "uint256",
          "name": "triggerEventId",
          "type": "uint256"
        },
        {
          "indexed": true,
          "internalType": "address",
          "name": "executor",
          "type": "address"
        }
      ],
      "name": "PositionReleased",
      "type": "event"
    },
    {
      "anonymous": false,
      "inputs": [
        {
          "indexed": true,
          "internalType": "uint256",
          "name": "positionId",
          "type": "uint256"
        },
        {
          "indexed": true,
          "internalType": "address",
          "name": "operator",
          "type": "address"
        }
      ],
      "name": "PositionUnfrozen",
      "type": "event"
    },
    {
      "anonymous": false,
      "inputs": [
        {
          "indexed": true,
          "internalType": "bytes32",
          "name": "role",
          "type": "bytes32"
        },
        {
          "indexed": true,
          "internalType": "bytes32",
          "name": "previousAdminRole",
          "type": "bytes32"
        },
        {
          "indexed": true,
          "internalType": "bytes32",
          "name": "newAdminRole",
          "type": "bytes32"
        }
      ],
      "name": "RoleAdminChanged",
      "type": "event"
    },
    {
      "anonymous": false,
      "inputs": [
        {
          "indexed": true,
          "internalType": "bytes32",
          "name": "role",
          "type": "bytes32"
        },
        {
          "indexed": true,
          "internalType": "address",
          "name": "account",
          "type": "address"
        },
        {
          "indexed": true,
          "internalType": "address",
          "name": "sender",
          "type": "address"
        }
      ],
      "name": "RoleGranted",
      "type": "event"
    },
    {
      "anonymous": false,
      "inputs": [
        {
          "indexed": true,
          "internalType": "bytes32",
          "name": "role",
          "type": "bytes32"
        },
        {
          "indexed": true,
          "internalType": "address",
          "name": "account",
          "type": "address"
        },
        {
          "indexed": true,
          "internalType": "address",
          "name": "sender",
          "type": "address"
        }
      ],
      "name": "RoleRevoked",
      "type": "event"
    },
    {
      "anonymous": false,
      "inputs": [
        {
          "indexed": false,
          "internalType": "address",
          "name": "account",
          "type": "address"
        }
      ],
      "name": "Unpaused",
      "type": "event"
    },
    {
      "inputs": [],
      "name": "COMPLIANCE_ROLE",
      "outputs": [
        {
          "internalType": "bytes32",
          "name": "",
          "type": "bytes32"
        }
      ],
      "stateMutability": "view",
      "type": "function"
    },
    {
      "inputs": [],
      "name": "DEFAULT_ADMIN_ROLE",
      "outputs": [
        {
          "internalType": "bytes32",
          "name": "",
          "type": "bytes32"
        }
      ],
      "stateMutability": "view",
      "type": "function"
    },
    {
      "inputs": [],
      "name": "EXECUTOR_ROLE",
      "outputs": [
        {
          "internalType": "bytes32",
          "name": "",
          "type": "bytes32"
        }
      ],
      "stateMutability": "view",
      "type": "function"
    },
    {
      "inputs": [
        {
          "internalType": "uint256",
          "name": "positionId",
          "type": "uint256"
        },
        {
          "internalType": "string",
          "name": "reason",
          "type": "string"
        }
      ],
      "name": "cancelPosition",
      "outputs": [],
      "stateMutability": "nonpayable",
      "type": "function"
    },
    {
      "inputs": [
        {
          "internalType": "address",
          "name": "beneficiary",
          "type": "address"
        },
        {
          "internalType": "uint256",
          "name": "amount",
          "type": "uint256"
        },
        {
          "internalType": "bytes32",
          "name": "subjectId",
          "type": "bytes32"
        },
        {
          "internalType": "enum InstitutionalEscrow.TriggerEventType",
          "name": "triggerEvent",
          "type": "uint8"
        },
        {
          "internalType": "bytes32",
          "name": "metadataHash",
          "type": "bytes32"
        },
        {
          "internalType": "string",
          "name": "partnerCode",
          "type": "string"
        }
      ],
      "name": "createPosition",
      "outputs": [
        {
          "internalType": "uint256",
          "name": "positionId",
          "type": "uint256"
        }
      ],
      "stateMutability": "nonpayable",
      "type": "function"
    },
    {
      "inputs": [
        {
          "internalType": "uint256",
          "name": "positionId",
          "type": "uint256"
        },
        {
          "internalType": "string",
          "name": "reason",
          "type": "string"
        }
      ],
      "name": "freezePosition",
      "outputs": [],
      "stateMutability": "nonpayable",
      "type": "function"
    },
    {
      "inputs": [
        {
          "internalType": "bytes32",
          "name": "role",
          "type": "bytes32"
        }
      ],
      "name": "getRoleAdmin",
      "outputs": [
        {
          "internalType": "bytes32",
          "name": "",
          "type": "bytes32"
        }
      ],
      "stateMutability": "view",
      "type": "function"
    },
    {
      "inputs": [
        {
          "internalType": "bytes32",
          "name": "role",
          "type": "bytes32"
        },
        {
          "internalType": "address",
          "name": "account",
          "type": "address"
        }
      ],
      "name": "grantRole",
      "outputs": [],
      "stateMutability": "nonpayable",
      "type": "function"
    },
    {
      "inputs": [
        {
          "internalType": "bytes32",
          "name": "role",
          "type": "bytes32"
        },
        {
          "internalType": "address",
          "name": "account",
          "type": "address"
        }
      ],
      "name": "hasRole",
      "outputs": [
        {
          "internalType": "bool",
          "name": "",
          "type": "bool"
        }
      ],
      "stateMutability": "view",
      "type": "function"
    },
    {
      "inputs": [],
      "name": "nextPositionId",
      "outputs": [
        {
          "internalType": "uint256",
          "name": "",
          "type": "uint256"
        }
      ],
      "stateMutability": "view",
      "type": "function"
    },
    {
      "inputs": [],
      "name": "oracleGateway",
      "outputs": [
        {
          "internalType": "address",
          "name": "",
          "type": "address"
        }
      ],
      "stateMutability": "view",
      "type": "function"
    },
    {
      "inputs": [],
      "name": "pause",
      "outputs": [],
      "stateMutability": "nonpayable",
      "type": "function"
    },
    {
      "inputs": [],
      "name": "paused",
      "outputs": [
        {
          "internalType": "bool",
          "name": "",
          "type": "bool"
        }
      ],
      "stateMutability": "view",
      "type": "function"
    },
    {
      "inputs": [
        {
          "internalType": "uint256",
          "name": "",
          "type": "uint256"
        }
      ],
      "name": "positions",
      "outputs": [
        {
          "internalType": "address",
          "name": "depositor",
          "type": "address"
        },
        {
          "internalType": "address",
          "name": "beneficiary",
          "type": "address"
        },
        {
          "internalType": "uint256",
          "name": "amount",
          "type": "uint256"
        },
        {
          "internalType": "bytes32",
          "name": "subjectId",
          "type": "bytes32"
        },
        {
          "internalType": "enum InstitutionalEscrow.TriggerEventType",
          "name": "triggerEvent",
          "type": "uint8"
        },
        {
          "internalType": "uint256",
          "name": "triggerEventId",
          "type": "uint256"
        },
        {
          "internalType": "bytes32",
          "name": "metadataHash",
          "type": "bytes32"
        },
        {
          "internalType": "string",
          "name": "partnerCode",
          "type": "string"
        },
        {
          "internalType": "uint64",
          "name": "createdAt",
          "type": "uint64"
        },
        {
          "internalType": "uint64",
          "name": "executedAt",
          "type": "uint64"
        },
        {
          "internalType": "enum InstitutionalEscrow.EscrowStatus",
          "name": "status",
          "type": "uint8"
        }
      ],
      "stateMutability": "view",
      "type": "function"
    },
    {
      "inputs": [
        {
          "internalType": "uint256",
          "name": "positionId",
          "type": "uint256"
        },
        {
          "internalType": "uint256",
          "name": "triggerEventId",
          "type": "uint256"
        }
      ],
      "name": "releasePosition",
      "outputs": [],
      "stateMutability": "nonpayable",
      "type": "function"
    },
    {
      "inputs": [
        {
          "internalType": "bytes32",
          "name": "role",
          "type": "bytes32"
        },
        {
          "internalType": "address",
          "name": "callerConfirmation",
          "type": "address"
        }
      ],
      "name": "renounceRole",
      "outputs": [],
      "stateMutability": "nonpayable",
      "type": "function"
    },
    {
      "inputs": [
        {
          "internalType": "bytes32",
          "name": "role",
          "type": "bytes32"
        },
        {
          "internalType": "address",
          "name": "account",
          "type": "address"
        }
      ],
      "name": "revokeRole",
      "outputs": [],
      "stateMutability": "nonpayable",
      "type": "function"
    },
    {
      "inputs": [
        {
          "internalType": "address",
          "name": "newGateway",
          "type": "address"
        }
      ],
      "name": "setOracleGateway",
      "outputs": [],
      "stateMutability": "nonpayable",
      "type": "function"
    },
    {
      "inputs": [
        {
          "internalType": "address",
          "name": "newTreasury",
          "type": "address"
        }
      ],
      "name": "setTreasury",
      "outputs": [],
      "stateMutability": "nonpayable",
      "type": "function"
    },
    {
      "inputs": [],
      "name": "sglToken",
      "outputs": [
        {
          "internalType": "contract IERC20",
          "name": "",
          "type": "address"
        }
      ],
      "stateMutability": "view",
      "type": "function"
    },
    {
      "inputs": [
        {
          "internalType": "bytes4",
          "name": "interfaceId",
          "type": "bytes4"
        }
      ],
      "name": "supportsInterface",
      "outputs": [
        {
          "internalType": "bool",
          "name": "",
          "type": "bool"
        }
      ],
      "stateMutability": "view",
      "type": "function"
    },
    {
      "inputs": [],
      "name": "treasury",
      "outputs": [
        {
          "internalType": "address",
          "name": "",
          "type": "address"
        }
      ],
      "stateMutability": "view",
      "type": "function"
    },
    {
      "inputs": [
        {
          "internalType": "uint256",
          "name": "positionId",
          "type": "uint256"
        }
      ],
      "name": "unfreezePosition",
      "outputs": [],
      "stateMutability": "nonpayable",
      "type": "function"
    },
    {
      "inputs": [],
      "name": "unpause",
      "outputs": [],
      "stateMutability": "nonpayable",
      "type": "function"
    }
  ],
  "bytecode": "0x60a060405234801562000010575f80fd5b5060405162001d3c38038062001d3c8339810160408190526200003391620002c0565b60017f9b779b17422d0df92223018b32b4d1fa46e071723d6817e2486d003becc55f00556001600160a01b038316620000b35760405162461bcd60e51b815260206004820152601760248201527f494e53545f4553433a20696e76616c696420746f6b656e00000000000000000060448201526064015b60405180910390fd5b6001600160a01b0382166200010b5760405162461bcd60e51b815260206004820152601a60248201527f494e53545f4553433a20696e76616c69642074726561737572790000000000006044820152606401620000aa565b6001600160a01b038116620001635760405162461bcd60e51b815260206004820152601760248201527f494e53545f4553433a20696e76616c69642061646d696e0000000000000000006044820152606401620000aa565b6001600160a01b03838116608052600380546001600160a01b031916918416919091179055620001945f82620001f8565b50620001c17fd8aa0f3194971a2a116679f7c2090f6939c8d4e01a2a8d7e41d55e5351469e6382620001f8565b50620001ee7f442a94f1a1fac79af32856af2a64f63648cfa2ef3b98610a5bb7cbec4cee698582620001f8565b5050505062000307565b5f828152602081815260408083206001600160a01b038516845290915281205460ff166200029b575f838152602081815260408083206001600160a01b03861684529091529020805460ff19166001179055620002523390565b6001600160a01b0316826001600160a01b0316847f2f8788117e7eff1d82e926ec794901d17c78024a50270940304540a733656f0d60405160405180910390a45060016200029e565b505f5b92915050565b80516001600160a01b0381168114620002bb575f80fd5b919050565b5f805f60608486031215620002d3575f80fd5b620002de84620002a4565b9250620002ee60208501620002a4565b9150620002fe60408501620002a4565b90509250925092565b608051611a07620003355f395f8181610268015281816105b6015281816109c00152610df40152611a075ff3fe608060405234801561000f575f80fd5b5060043610610153575f3560e01c80637ef415a7116100bf578063c1810f6611610079578063c1810f6614610305578063c914947814610318578063d07ee4341461032b578063d547741f1461033e578063f0f4426014610351578063f1ec7e5114610364575f80fd5b80637ef415a71461029d5780638456cb59146102b0578063899346c7146102b857806391d14854146102c157806399fbab88146102d4578063a217fddf146102fe575f80fd5b806336568abe1161011057806336568abe146102125780633f4ba83a146102255780635c975abb1461022d57806361d027b31461023857806362b24ea21461026357806378a4aadd1461028a575f80fd5b806301ffc9a714610157578063062d3bd71461017f57806307bd0265146101a15780631e2ed410146101c8578063248a9ca3146101dd5780632f2ff15d146101ff575b5f80fd5b61016a6101653660046114ab565b610377565b60405190151581526020015b60405180910390f35b6101935f8051602061199283398151915281565b604051908152602001610176565b6101937fd8aa0f3194971a2a116679f7c2090f6939c8d4e01a2a8d7e41d55e5351469e6381565b6101db6101d63660046114f4565b6103ad565b005b6101936101eb36600461150d565b5f9081526020819052604090206001015490565b6101db61020d366004611524565b610409565b6101db610220366004611524565b610433565b6101db61046b565b60015460ff1661016a565b60035461024b906001600160a01b031681565b6040516001600160a01b039091168152602001610176565b61024b7f000000000000000000000000000000000000000000000000000000000000000081565b6101db610298366004611593565b610480565b6101936102ab3660046115db565b61063c565b6101db610a5d565b61019360025481565b61016a6102cf366004611524565b610a6f565b6102e76102e236600461150d565b610a97565b6040516101769b9a99989796959493929190611694565b6101935f81565b60045461024b906001600160a01b031681565b6101db610326366004611768565b610b9d565b6101db61033936600461150d565b610e68565b6101db61034c366004611524565b610f3a565b6101db61035f3660046114f4565b610f5e565b6101db610372366004611593565b610fe1565b5f6001600160e01b03198216637965db0b60e01b14806103a757506301ffc9a760e01b6001600160e01b03198316145b92915050565b5f6103b781611116565b600480546001600160a01b038481166001600160a01b0319831681179093556040519116919082907fa2c25ca373c727be01ce62a4879a7cda215dfc392279e1e456cd6afb873317a7905f90a3505050565b5f8281526020819052604090206001015461042381611116565b61042d8383611120565b50505050565b6001600160a01b038116331461045c5760405163334bd91960e11b815260040160405180910390fd5b61046682826111af565b505050565b5f61047581611116565b61047d611218565b50565b61048861126a565b610490611290565b5f805160206119928339815191526104a781611116565b5f848152600560205260408120906008820154600160801b900460ff1660038111156104d5576104d561165c565b146105275760405162461bcd60e51b815260206004820152601960248201527f494e53545f4553433a206e6f742063616e63656c6c61626c650000000000000060448201526064015b60405180910390fd5b826105705760405162461bcd60e51b8152602060048201526019602482015278125394d517d154d0ce881c99585cdbdb881c995c5d5a5c9959603a1b604482015260640161051e565b600881018054600160811b68ffffffffffffffffff60401b19909116600160401b4267ffffffffffffffff160217179055805460028201546105e0916001600160a01b037f00000000000000000000000000000000000000000000000000000000000000008116929116906112ab565b336001600160a01b0316857f7d48960b4147861f64687653163e8bdac213509e036fb1d0c3982d94b2f109ea868660405161061c9291906117b0565b60405180910390a3505061046660015f805160206119b283398151915255565b5f61064561126a565b61064d611290565b6001600160a01b0388166106a35760405162461bcd60e51b815260206004820152601d60248201527f494e53545f4553433a20696e76616c69642062656e6566696369617279000000604482015260640161051e565b5f87116106ea5760405162461bcd60e51b8152602060048201526015602482015274125394d517d154d0ce881e995c9bc8185b5bdd5b9d605a1b604482015260640161051e565b856107375760405162461bcd60e51b815260206004820152601960248201527f494e53545f4553433a20696e76616c6964207375626a65637400000000000000604482015260640161051e565b836107845760405162461bcd60e51b815260206004820152601f60248201527f494e53545f4553433a20696e76616c6964206d65746164617461206861736800604482015260640161051e565b816107d15760405162461bcd60e51b815260206004820152601c60248201527f494e53545f4553433a20656d70747920706172746e657220636f646500000000604482015260640161051e565b60028054905f6107e0836117cb565b919050559050604051806101600160405280336001600160a01b03168152602001896001600160a01b0316815260200188815260200187815260200186600781111561082e5761082e61165c565b81526020015f815260200185815260200184848080601f0160208091040260200160405190810160405280939291908181526020018383808284375f92018290525093855250505067ffffffffffffffff42166020830152604082018190526060909101525f82815260056020908152604091829020835181546001600160a01b039182166001600160a01b0319918216178355928501516001808401805492909316919094161790559183015160028301556060830151600383015560808301516004830180549192909160ff1916908360078111156109115761091161165c565b021790555060a0820151600582015560c0820151600682015560e0820151600782019061093e9082611886565b5061010082015160088201805461012085015167ffffffffffffffff908116600160401b026fffffffffffffffffffffffffffffffff1990921693169290921791909117808255610140840151919060ff60801b1916600160801b8360038111156109ab576109ab61165c565b02179055506109e89150506001600160a01b037f00000000000000000000000000000000000000000000000000000000000000001633308a6112e0565b876001600160a01b0316336001600160a01b0316827fea1810a2faacc32e949d7b5b6e220c7c65c1362b00c99a335c954907885980688a8a8a8989604051610a34959493929190611946565b60405180910390a4610a5260015f805160206119b283398151915255565b979650505050505050565b5f610a6781611116565b61047d611316565b5f918252602082815260408084206001600160a01b0393909316845291905290205460ff1690565b600560208190525f9182526040909120805460018201546002830154600384015460048501549585015460068601546007870180546001600160a01b039788169996909716979496939560ff16949293919291610af390611803565b80601f0160208091040260200160405190810160405280929190818152602001828054610b1f90611803565b8015610b6a5780601f10610b4157610100808354040283529160200191610b6a565b820191905f5260205f20905b815481529060010190602001808311610b4d57829003601f168201915b5050506008909301549192505067ffffffffffffffff80821691600160401b81049091169060ff600160801b909104168b565b610ba561126a565b610bad611290565b7fd8aa0f3194971a2a116679f7c2090f6939c8d4e01a2a8d7e41d55e5351469e63610bd781611116565b5f838152600560205260408120906008820154600160801b900460ff166003811115610c0557610c0561165c565b14610c4a5760405162461bcd60e51b8152602060048201526015602482015274494e53545f4553433a206e6f742070656e64696e6760581b604482015260640161051e565b600881015467ffffffffffffffff16610c9b5760405162461bcd60e51b8152602060048201526013602482015272125394d517d154d0ce881b9bdd08199bdd5b99606a1b604482015260640161051e565b6004546001600160a01b031615610da457600480546003830154918301545f926001600160a01b0390921691635da377e39160ff166007811115610ce157610ce161165c565b6040516001600160e01b031960e085901b168152600481019290925260ff166024820152604401602060405180830381865afa158015610d23573d5f803e3d5ffd5b505050506040513d601f19601f82011682018060405250810190610d479190611972565b905080610da25760405162461bcd60e51b8152602060048201526024808201527f494e53545f4553433a206f7261636c65206576656e74206e6f7420636f6e66696044820152631c9b595960e21b606482015260840161051e565b505b60088101805460058301859055600160801b68ffffffffffffffffff60401b19909116600160401b4267ffffffffffffffff16021717905560018101546002820154610e1e916001600160a01b037f00000000000000000000000000000000000000000000000000000000000000008116929116906112ab565b6040513390849086907f6c2b69108c6691683495bb3a230fb2ce5b892b27607e017d4ad023e083cd712c905f90a45050610e6460015f805160206119b283398151915255565b5050565b5f80516020611992833981519152610e7f81611116565b60035f83815260056020526040902060080154600160801b900460ff166003811115610ead57610ead61165c565b14610ef15760405162461bcd60e51b815260206004820152601460248201527324a729aa2fa2a9a19d103737ba10333937bd32b760611b604482015260640161051e565b5f82815260056020526040808220600801805460ff60801b1916905551339184917f5dd6406e214a7ef26e178c64337ff1617723c2710f38107102845152d3f75b4d9190a35050565b5f82815260208190526040902060010154610f5481611116565b61042d83836111af565b5f610f6881611116565b6001600160a01b038216610fbe5760405162461bcd60e51b815260206004820152601a60248201527f494e53545f4553433a20696e76616c6964207472656173757279000000000000604482015260640161051e565b50600380546001600160a01b0319166001600160a01b0392909216919091179055565b5f80516020611992833981519152610ff881611116565b5f848152600560205260408120906008820154600160801b900460ff1660038111156110265761102661165c565b146110735760405162461bcd60e51b815260206004820152601760248201527f494e53545f4553433a206e6f7420667265657a61626c65000000000000000000604482015260640161051e565b826110bc5760405162461bcd60e51b8152602060048201526019602482015278125394d517d154d0ce881c99585cdbdb881c995c5d5a5c9959603a1b604482015260640161051e565b60088101805460ff60801b1916600360801b179055604051339086907feb4655a0fe23702258458e16773f1d4f0f6b04d15cf7f7cafd326cf1b218b77b9061110790889088906117b0565b60405180910390a35050505050565b61047d8133611351565b5f61112b8383610a6f565b6111a8575f838152602081815260408083206001600160a01b03861684529091529020805460ff191660011790556111603390565b6001600160a01b0316826001600160a01b0316847f2f8788117e7eff1d82e926ec794901d17c78024a50270940304540a733656f0d60405160405180910390a45060016103a7565b505f6103a7565b5f6111ba8383610a6f565b156111a8575f838152602081815260408083206001600160a01b0386168085529252808320805460ff1916905551339286917ff6391f5c32d9c69d2a47ea670b442974b53935d1edc7fd64eb21e047a839171b9190a45060016103a7565b61122061138a565b6001805460ff191690557f5db9ee0a495bf2e6ff9c91a7834c1ba4fdd244a5e8aa4e537bd38aeae4b073aa335b6040516001600160a01b03909116815260200160405180910390a1565b60015460ff161561128e5760405163d93c066560e01b815260040160405180910390fd5b565b6112986113ad565b60025f805160206119b283398151915255565b6112b883838360016113dc565b61046657604051635274afe760e01b81526001600160a01b038416600482015260240161051e565b6112ee84848484600161143e565b61042d57604051635274afe760e01b81526001600160a01b038516600482015260240161051e565b61131e61126a565b6001805460ff1916811790557f62e78cea01bee320cd4e420270b5ea74000d11b0c9f74754ebdbfc544b05a2583361124d565b61135b8282610a6f565b610e645760405163e2517d3f60e01b81526001600160a01b03821660048201526024810183905260440161051e565b60015460ff1661128e57604051638dfc202b60e01b815260040160405180910390fd5b5f805160206119b28339815191525460020361128e57604051633ee5aeb560e01b815260040160405180910390fd5b60405163a9059cbb60e01b5f8181526001600160a01b038616600452602485905291602083604481808b5af1925060015f51148316611432578383151615611426573d5f823e3d81fd5b5f873b113d1516831692505b60405250949350505050565b6040516323b872dd60e01b5f8181526001600160a01b038781166004528616602452604485905291602083606481808c5af1925060015f5114831661149a57838315161561148e573d5f823e3d81fd5b5f883b113d1516831692505b604052505f60605295945050505050565b5f602082840312156114bb575f80fd5b81356001600160e01b0319811681146114d2575f80fd5b9392505050565b80356001600160a01b03811681146114ef575f80fd5b919050565b5f60208284031215611504575f80fd5b6114d2826114d9565b5f6020828403121561151d575f80fd5b5035919050565b5f8060408385031215611535575f80fd5b82359150611545602084016114d9565b90509250929050565b5f8083601f84011261155e575f80fd5b50813567ffffffffffffffff811115611575575f80fd5b60208301915083602082850101111561158c575f80fd5b9250929050565b5f805f604084860312156115a5575f80fd5b83359250602084013567ffffffffffffffff8111156115c2575f80fd5b6115ce8682870161154e565b9497909650939450505050565b5f805f805f805f60c0888a0312156115f1575f80fd5b6115fa886114d9565b9650602088013595506040880135945060608801356008811061161b575f80fd5b93506080880135925060a088013567ffffffffffffffff81111561163d575f80fd5b6116498a828b0161154e565b989b979a50959850939692959293505050565b634e487b7160e01b5f52602160045260245ffd5b600881106116805761168061165c565b9052565b600481106116805761168061165c565b5f61016060018060a01b03808f1684526020818f1660208601528d60408601528c60608601526116c7608086018d611670565b8a60a08601528960c08601528260e08601528851915081838601525f92505b81831015611705578883018101518584016101800152918201916116e6565b5061018091505f82828601015281601f19601f8301168501019250505061173961010083018667ffffffffffffffff169052565b67ffffffffffffffff8416610120830152611758610140830184611684565b9c9b505050505050505050505050565b5f8060408385031215611779575f80fd5b50508035926020909101359150565b81835281816020850137505f828201602090810191909152601f909101601f19169091010190565b602081525f6117c3602083018486611788565b949350505050565b5f600182016117e857634e487b7160e01b5f52601160045260245ffd5b5060010190565b634e487b7160e01b5f52604160045260245ffd5b600181811c9082168061181757607f821691505b60208210810361183557634e487b7160e01b5f52602260045260245ffd5b50919050565b601f82111561046657805f5260205f20601f840160051c810160208510156118605750805b601f840160051c820191505b8181101561187f575f815560010161186c565b5050505050565b815167ffffffffffffffff8111156118a0576118a06117ef565b6118b4816118ae8454611803565b8461183b565b602080601f8311600181146118e7575f84156118d05750858301515b5f19600386901b1c1916600185901b17855561193e565b5f85815260208120601f198616915b82811015611915578886015182559484019460019091019084016118f6565b508582101561193257878501515f19600388901b60f8161c191681555b505060018460011b0185555b505050505050565b85815284602082015261195c6040820185611670565b608060608201525f610a52608083018486611788565b5f60208284031215611982575f80fd5b815180151581146114d2575f80fdfe442a94f1a1fac79af32856af2a64f63648cfa2ef3b98610a5bb7cbec4cee69859b779b17422d0df92223018b32b4d1fa46e071723d6817e2486d003becc55f00a26469706673582212203ab7249c805f078de95959f28230b706f06794d3290837af437895620037a48a64736f6c63430008180033",
  "linkReferences": {},
  "deployedLinkReferences": {}
}