{
  "_format": "hh-sol-artifact-1",
  "contractName": "EscrowContract",
  "sourceName": "contracts/EscrowContract.sol",
  "abi": [
    {
      "inputs": [
        {
          "internalType": "address",
          "name": "tokenAddress",
          "type": "address"
        },
        {
          "internalType": "address",
          "name": "admin",
          "type": "address"
        }
      ],
      "stateMutability": "nonpayable",
      "type": "constructor"
    },
    {
      "inputs": [],
      "name": "AccessControlBadConfirmation",
      "type": "error"
    },
    {
      "inputs": [
        {
          "internalType": "address",
          "name": "account",
          "type": "address"
        },
        {
          "internalType": "bytes32",
          "name": "neededRole",
          "type": "bytes32"
        }
      ],
      "name": "AccessControlUnauthorizedAccount",
      "type": "error"
    },
    {
      "inputs": [],
      "name": "EnforcedPause",
      "type": "error"
    },
    {
      "inputs": [],
      "name": "ExpectedPause",
      "type": "error"
    },
    {
      "inputs": [],
      "name": "ReentrancyGuardReentrantCall",
      "type": "error"
    },
    {
      "inputs": [
        {
          "internalType": "address",
          "name": "token",
          "type": "address"
        }
      ],
      "name": "SafeERC20FailedOperation",
      "type": "error"
    },
    {
      "anonymous": false,
      "inputs": [
        {
          "indexed": true,
          "internalType": "uint256",
          "name": "escrowId",
          "type": "uint256"
        },
        {
          "indexed": true,
          "internalType": "address",
          "name": "operator",
          "type": "address"
        }
      ],
      "name": "EscrowCancelled",
      "type": "event"
    },
    {
      "anonymous": false,
      "inputs": [
        {
          "indexed": true,
          "internalType": "uint256",
          "name": "escrowId",
          "type": "uint256"
        },
        {
          "indexed": true,
          "internalType": "address",
          "name": "depositor",
          "type": "address"
        },
        {
          "indexed": true,
          "internalType": "address",
          "name": "beneficiary",
          "type": "address"
        },
        {
          "indexed": false,
          "internalType": "uint256",
          "name": "amount",
          "type": "uint256"
        },
        {
          "indexed": false,
          "internalType": "uint64",
          "name": "releaseTime",
          "type": "uint64"
        },
        {
          "indexed": false,
          "internalType": "bytes32",
          "name": "metadataHash",
          "type": "bytes32"
        }
      ],
      "name": "EscrowCreated",
      "type": "event"
    },
    {
      "anonymous": false,
      "inputs": [
        {
          "indexed": true,
          "internalType": "uint256",
          "name": "escrowId",
          "type": "uint256"
        },
        {
          "indexed": true,
          "internalType": "address",
          "name": "operator",
          "type": "address"
        }
      ],
      "name": "EscrowReleased",
      "type": "event"
    },
    {
      "anonymous": false,
      "inputs": [
        {
          "indexed": false,
          "internalType": "address",
          "name": "account",
          "type": "address"
        }
      ],
      "name": "Paused",
      "type": "event"
    },
    {
      "anonymous": false,
      "inputs": [
        {
          "indexed": true,
          "internalType": "bytes32",
          "name": "role",
          "type": "bytes32"
        },
        {
          "indexed": true,
          "internalType": "bytes32",
          "name": "previousAdminRole",
          "type": "bytes32"
        },
        {
          "indexed": true,
          "internalType": "bytes32",
          "name": "newAdminRole",
          "type": "bytes32"
        }
      ],
      "name": "RoleAdminChanged",
      "type": "event"
    },
    {
      "anonymous": false,
      "inputs": [
        {
          "indexed": true,
          "internalType": "bytes32",
          "name": "role",
          "type": "bytes32"
        },
        {
          "indexed": true,
          "internalType": "address",
          "name": "account",
          "type": "address"
        },
        {
          "indexed": true,
          "internalType": "address",
          "name": "sender",
          "type": "address"
        }
      ],
      "name": "RoleGranted",
      "type": "event"
    },
    {
      "anonymous": false,
      "inputs": [
        {
          "indexed": true,
          "internalType": "bytes32",
          "name": "role",
          "type": "bytes32"
        },
        {
          "indexed": true,
          "internalType": "address",
          "name": "account",
          "type": "address"
        },
        {
          "indexed": true,
          "internalType": "address",
          "name": "sender",
          "type": "address"
        }
      ],
      "name": "RoleRevoked",
      "type": "event"
    },
    {
      "anonymous": false,
      "inputs": [
        {
          "indexed": false,
          "internalType": "address",
          "name": "account",
          "type": "address"
        }
      ],
      "name": "Unpaused",
      "type": "event"
    },
    {
      "inputs": [],
      "name": "DEFAULT_ADMIN_ROLE",
      "outputs": [
        {
          "internalType": "bytes32",
          "name": "",
          "type": "bytes32"
        }
      ],
      "stateMutability": "view",
      "type": "function"
    },
    {
      "inputs": [],
      "name": "EXECUTOR_ROLE",
      "outputs": [
        {
          "internalType": "bytes32",
          "name": "",
          "type": "bytes32"
        }
      ],
      "stateMutability": "view",
      "type": "function"
    },
    {
      "inputs": [
        {
          "internalType": "uint256",
          "name": "escrowId",
          "type": "uint256"
        }
      ],
      "name": "cancelEscrow",
      "outputs": [],
      "stateMutability": "nonpayable",
      "type": "function"
    },
    {
      "inputs": [
        {
          "internalType": "address",
          "name": "beneficiary",
          "type": "address"
        },
        {
          "internalType": "uint256",
          "name": "amount",
          "type": "uint256"
        },
        {
          "internalType": "uint64",
          "name": "releaseTime",
          "type": "uint64"
        },
        {
          "internalType": "bytes32",
          "name": "metadataHash",
          "type": "bytes32"
        }
      ],
      "name": "createEscrow",
      "outputs": [
        {
          "internalType": "uint256",
          "name": "escrowId",
          "type": "uint256"
        }
      ],
      "stateMutability": "nonpayable",
      "type": "function"
    },
    {
      "inputs": [
        {
          "internalType": "uint256",
          "name": "",
          "type": "uint256"
        }
      ],
      "name": "escrows",
      "outputs": [
        {
          "internalType": "address",
          "name": "depositor",
          "type": "address"
        },
        {
          "internalType": "address",
          "name": "beneficiary",
          "type": "address"
        },
        {
          "internalType": "uint256",
          "name": "amount",
          "type": "uint256"
        },
        {
          "internalType": "uint64",
          "name": "releaseTime",
          "type": "uint64"
        },
        {
          "internalType": "bytes32",
          "name": "metadataHash",
          "type": "bytes32"
        },
        {
          "internalType": "enum EscrowContract.EscrowStatus",
          "name": "status",
          "type": "uint8"
        }
      ],
      "stateMutability": "view",
      "type": "function"
    },
    {
      "inputs": [
        {
          "internalType": "bytes32",
          "name": "role",
          "type": "bytes32"
        }
      ],
      "name": "getRoleAdmin",
      "outputs": [
        {
          "internalType": "bytes32",
          "name": "",
          "type": "bytes32"
        }
      ],
      "stateMutability": "view",
      "type": "function"
    },
    {
      "inputs": [
        {
          "internalType": "bytes32",
          "name": "role",
          "type": "bytes32"
        },
        {
          "internalType": "address",
          "name": "account",
          "type": "address"
        }
      ],
      "name": "grantRole",
      "outputs": [],
      "stateMutability": "nonpayable",
      "type": "function"
    },
    {
      "inputs": [
        {
          "internalType": "bytes32",
          "name": "role",
          "type": "bytes32"
        },
        {
          "internalType": "address",
          "name": "account",
          "type": "address"
        }
      ],
      "name": "hasRole",
      "outputs": [
        {
          "internalType": "bool",
          "name": "",
          "type": "bool"
        }
      ],
      "stateMutability": "view",
      "type": "function"
    },
    {
      "inputs": [],
      "name": "nextEscrowId",
      "outputs": [
        {
          "internalType": "uint256",
          "name": "",
          "type": "uint256"
        }
      ],
      "stateMutability": "view",
      "type": "function"
    },
    {
      "inputs": [],
      "name": "pause",
      "outputs": [],
      "stateMutability": "nonpayable",
      "type": "function"
    },
    {
      "inputs": [],
      "name": "paused",
      "outputs": [
        {
          "internalType": "bool",
          "name": "",
          "type": "bool"
        }
      ],
      "stateMutability": "view",
      "type": "function"
    },
    {
      "inputs": [
        {
          "internalType": "uint256",
          "name": "escrowId",
          "type": "uint256"
        }
      ],
      "name": "releaseEscrow",
      "outputs": [],
      "stateMutability": "nonpayable",
      "type": "function"
    },
    {
      "inputs": [
        {
          "internalType": "bytes32",
          "name": "role",
          "type": "bytes32"
        },
        {
          "internalType": "address",
          "name": "callerConfirmation",
          "type": "address"
        }
      ],
      "name": "renounceRole",
      "outputs": [],
      "stateMutability": "nonpayable",
      "type": "function"
    },
    {
      "inputs": [
        {
          "internalType": "bytes32",
          "name": "role",
          "type": "bytes32"
        },
        {
          "internalType": "address",
          "name": "account",
          "type": "address"
        }
      ],
      "name": "revokeRole",
      "outputs": [],
      "stateMutability": "nonpayable",
      "type": "function"
    },
    {
      "inputs": [],
      "name": "sglToken",
      "outputs": [
        {
          "internalType": "contract IERC20",
          "name": "",
          "type": "address"
        }
      ],
      "stateMutability": "view",
      "type": "function"
    },
    {
      "inputs": [
        {
          "internalType": "bytes4",
          "name": "interfaceId",
          "type": "bytes4"
        }
      ],
      "name": "supportsInterface",
      "outputs": [
        {
          "internalType": "bool",
          "name": "",
          "type": "bool"
        }
      ],
      "stateMutability": "view",
      "type": "function"
    },
    {
      "inputs": [],
      "name": "unpause",
      "outputs": [],
      "stateMutability": "nonpayable",
      "type": "function"
    }
  ],
  "bytecode": "0x60a060405234801562000010575f80fd5b50604051620011e2380380620011e2833981016040819052620000339162000222565b60017f9b779b17422d0df92223018b32b4d1fa46e071723d6817e2486d003becc55f00556001600160a01b038216620000b35760405162461bcd60e51b815260206004820152601560248201527f455343524f573a20696e76616c696420746f6b656e000000000000000000000060448201526064015b60405180910390fd5b6001600160a01b0381166200010b5760405162461bcd60e51b815260206004820152601560248201527f455343524f573a20696e76616c69642061646d696e00000000000000000000006044820152606401620000aa565b6001600160a01b038216608052620001245f826200015a565b50620001517fd8aa0f3194971a2a116679f7c2090f6939c8d4e01a2a8d7e41d55e5351469e63826200015a565b50505062000258565b5f828152602081815260408083206001600160a01b038516845290915281205460ff16620001fd575f838152602081815260408083206001600160a01b03861684529091529020805460ff19166001179055620001b43390565b6001600160a01b0316826001600160a01b0316847f2f8788117e7eff1d82e926ec794901d17c78024a50270940304540a733656f0d60405160405180910390a450600162000200565b505f5b92915050565b80516001600160a01b03811681146200021d575f80fd5b919050565b5f806040838503121562000234575f80fd5b6200023f8362000206565b91506200024f6020840162000206565b90509250929050565b608051610f5c620002865f395f818161023c015281816105e00152818161079a01526109830152610f5c5ff3fe608060405234801561000f575f80fd5b5060043610610106575f3560e01c806362b24ea21161009e578063a217fddf1161006e578063a217fddf1461029a578063a3796e50146102a1578063d547741f146102b4578063e0182436146102c7578063ed653164146102da575f80fd5b806362b24ea2146102375780638456cb591461027657806389cb29dd1461027e57806391d1485414610287575f80fd5b80632f2ff15d116100d95780632f2ff15d146101fc57806336568abe146102115780633f4ba83a146102245780635c975abb1461022c575f80fd5b8063012f52ee1461010a57806301ffc9a71461018257806307bd0265146101a5578063248a9ca3146101da575b5f80fd5b610167610118366004610d92565b600360208190525f91825260409091208054600182015460028301549383015460048401546005909401546001600160a01b0393841695939092169367ffffffffffffffff9091169160ff1686565b60405161017996959493929190610dbd565b60405180910390f35b610195610190366004610e20565b6102ed565b6040519015158152602001610179565b6101cc7fd8aa0f3194971a2a116679f7c2090f6939c8d4e01a2a8d7e41d55e5351469e6381565b604051908152602001610179565b6101cc6101e8366004610d92565b5f9081526020819052604090206001015490565b61020f61020a366004610e69565b610323565b005b61020f61021f366004610e69565b61034d565b61020f610385565b60015460ff16610195565b61025e7f000000000000000000000000000000000000000000000000000000000000000081565b6040516001600160a01b039091168152602001610179565b61020f61039a565b6101cc60025481565b610195610295366004610e69565b6103ac565b6101cc5f81565b6101cc6102af366004610e93565b6103d4565b61020f6102c2366004610e69565b61067f565b61020f6102d5366004610d92565b6106a3565b61020f6102e8366004610d92565b610810565b5f6001600160e01b03198216637965db0b60e01b148061031d57506301ffc9a760e01b6001600160e01b03198316145b92915050565b5f8281526020819052604090206001015461033d816109f9565b6103478383610a03565b50505050565b6001600160a01b03811633146103765760405163334bd91960e11b815260040160405180910390fd5b6103808282610a92565b505050565b5f61038f816109f9565b610397610afb565b50565b5f6103a4816109f9565b610397610b4d565b5f918252602082815260408084206001600160a01b0393909316845291905290205460ff1690565b5f6103dd610b88565b6103e5610bae565b6001600160a01b0385166104405760405162461bcd60e51b815260206004820152601b60248201527f455343524f573a20696e76616c69642062656e6566696369617279000000000060448201526064015b60405180910390fd5b5f84116104885760405162461bcd60e51b81526020600482015260166024820152751154d0d493d5ce881a5b9d985b1a5908185b5bdd5b9d60521b6044820152606401610437565b428367ffffffffffffffff16116104e15760405162461bcd60e51b815260206004820152601760248201527f455343524f573a2072656c6561736520696e20706173740000000000000000006044820152606401610437565b60028054905f6104f083610ee2565b909155506040805160c0810182523381526001600160a01b0388811660208084019182528385018a815267ffffffffffffffff8a811660608701908152608087018b81525f60a089018181528b8252600396879052999020885181549089166001600160a01b031991821617825596516001808301805492909a1691909816179097559251600280880191909155905193860180549490921667ffffffffffffffff1990941693909317905551600484015593516005830180549697509395929490939260ff1916919084908111156105cb576105cb610da9565b02179055506106089150506001600160a01b037f000000000000000000000000000000000000000000000000000000000000000016333087610bc9565b6040805185815267ffffffffffffffff851660208201529081018390526001600160a01b03861690339083907f6ecea1a160acfaebb54bfd470b9d74bffc3261088c6b724e31f7480561af832e9060600160405180910390a461067760015f80516020610f0783398151915255565b949350505050565b5f82815260208190526040902060010154610699816109f9565b6103478383610a92565b6106ab610b88565b6106b3610bae565b5f81815260036020526040812090600582015460ff1660028111156106da576106da610da9565b1461071a5760405162461bcd60e51b815260206004820152601060248201526f455343524f573a20696e61637469766560801b6044820152606401610437565b80546001600160a01b031633148061073757506107375f336103ac565b61077c5760405162461bcd60e51b81526020600482015260166024820152751154d0d493d5ce881b9bdd08185d5d1a1bdc9a5e995960521b6044820152606401610437565b60058101805460ff191660029081179091558154908201546107cd917f00000000000000000000000000000000000000000000000000000000000000006001600160a01b0390811692911690610bff565b604051339083907f6f44c80719cb2f74bdbd68b7af10147acb9b52e2675ad02f9c87f09859959938905f90a35061039760015f80516020610f0783398151915255565b610818610b88565b610820610bae565b5f81815260036020526040812090600582015460ff16600281111561084757610847610da9565b146108875760405162461bcd60e51b815260206004820152601060248201526f455343524f573a20696e61637469766560801b6044820152606401610437565b600381015467ffffffffffffffff164210156108de5760405162461bcd60e51b8152602060048201526016602482015275455343524f573a206e6f742072656c65617361626c6560501b6044820152606401610437565b60018101546001600160a01b031633148061091e575061091e7fd8aa0f3194971a2a116679f7c2090f6939c8d4e01a2a8d7e41d55e5351469e63336103ac565b6109635760405162461bcd60e51b81526020600482015260166024820152751154d0d493d5ce881b9bdd08185d5d1a1bdc9a5e995960521b6044820152606401610437565b60058101805460ff1916600190811790915581015460028201546109b6917f00000000000000000000000000000000000000000000000000000000000000006001600160a01b0390811692911690610bff565b604051339083907fefc7f1f15becfaec7a3c17eec78be3fa7adb45698f26fcfd25efe1754c242331905f90a35061039760015f80516020610f0783398151915255565b6103978133610c34565b5f610a0e83836103ac565b610a8b575f838152602081815260408083206001600160a01b03861684529091529020805460ff19166001179055610a433390565b6001600160a01b0316826001600160a01b0316847f2f8788117e7eff1d82e926ec794901d17c78024a50270940304540a733656f0d60405160405180910390a450600161031d565b505f61031d565b5f610a9d83836103ac565b15610a8b575f838152602081815260408083206001600160a01b0386168085529252808320805460ff1916905551339286917ff6391f5c32d9c69d2a47ea670b442974b53935d1edc7fd64eb21e047a839171b9190a450600161031d565b610b03610c71565b6001805460ff191690557f5db9ee0a495bf2e6ff9c91a7834c1ba4fdd244a5e8aa4e537bd38aeae4b073aa335b6040516001600160a01b03909116815260200160405180910390a1565b610b55610b88565b6001805460ff1916811790557f62e78cea01bee320cd4e420270b5ea74000d11b0c9f74754ebdbfc544b05a25833610b30565b60015460ff1615610bac5760405163d93c066560e01b815260040160405180910390fd5b565b610bb6610c94565b60025f80516020610f0783398151915255565b610bd7848484846001610cc3565b61034757604051635274afe760e01b81526001600160a01b0385166004820152602401610437565b610c0c8383836001610d30565b61038057604051635274afe760e01b81526001600160a01b0384166004820152602401610437565b610c3e82826103ac565b610c6d5760405163e2517d3f60e01b81526001600160a01b038216600482015260248101839052604401610437565b5050565b60015460ff16610bac57604051638dfc202b60e01b815260040160405180910390fd5b5f80516020610f0783398151915254600203610bac57604051633ee5aeb560e01b815260040160405180910390fd5b6040516323b872dd60e01b5f8181526001600160a01b038781166004528616602452604485905291602083606481808c5af1925060015f51148316610d1f578383151615610d13573d5f823e3d81fd5b5f883b113d1516831692505b604052505f60605295945050505050565b60405163a9059cbb60e01b5f8181526001600160a01b038616600452602485905291602083604481808b5af1925060015f51148316610d86578383151615610d7a573d5f823e3d81fd5b5f873b113d1516831692505b60405250949350505050565b5f60208284031215610da2575f80fd5b5035919050565b634e487b7160e01b5f52602160045260245ffd5b6001600160a01b038781168252861660208201526040810185905267ffffffffffffffff841660608201526080810183905260c0810160038310610e0f57634e487b7160e01b5f52602160045260245ffd5b8260a0830152979650505050505050565b5f60208284031215610e30575f80fd5b81356001600160e01b031981168114610e47575f80fd5b9392505050565b80356001600160a01b0381168114610e64575f80fd5b919050565b5f8060408385031215610e7a575f80fd5b82359150610e8a60208401610e4e565b90509250929050565b5f805f8060808587031215610ea6575f80fd5b610eaf85610e4e565b935060208501359250604085013567ffffffffffffffff81168114610ed2575f80fd5b9396929550929360600135925050565b5f60018201610eff57634e487b7160e01b5f52601160045260245ffd5b506001019056fe9b779b17422d0df92223018b32b4d1fa46e071723d6817e2486d003becc55f00a2646970667358221220ef749393215ac43107cec440a54b11a2a7bb5a7b84821987dc47dcfaa88cc3d264736f6c63430008180033",
  "linkReferences": {},
  "deployedLinkReferences": {}
}