{
  "_format": "hh-sol-artifact-1",
  "contractName": "AvatarWalletLink",
  "sourceName": "contracts/AvatarWalletLink.sol",
  "abi": [
    {
      "inputs": [
        {
          "internalType": "address",
          "name": "admin",
          "type": "address"
        }
      ],
      "stateMutability": "nonpayable",
      "type": "constructor"
    },
    {
      "inputs": [],
      "name": "AccessControlBadConfirmation",
      "type": "error"
    },
    {
      "inputs": [
        {
          "internalType": "address",
          "name": "account",
          "type": "address"
        },
        {
          "internalType": "bytes32",
          "name": "neededRole",
          "type": "bytes32"
        }
      ],
      "name": "AccessControlUnauthorizedAccount",
      "type": "error"
    },
    {
      "inputs": [],
      "name": "EnforcedPause",
      "type": "error"
    },
    {
      "inputs": [],
      "name": "ExpectedPause",
      "type": "error"
    },
    {
      "anonymous": false,
      "inputs": [
        {
          "indexed": false,
          "internalType": "address",
          "name": "account",
          "type": "address"
        }
      ],
      "name": "Paused",
      "type": "event"
    },
    {
      "anonymous": false,
      "inputs": [
        {
          "indexed": true,
          "internalType": "uint256",
          "name": "avatarId",
          "type": "uint256"
        },
        {
          "indexed": true,
          "internalType": "address",
          "name": "wallet",
          "type": "address"
        },
        {
          "indexed": false,
          "internalType": "enum AvatarWalletLink.PermissionLevel",
          "name": "oldLevel",
          "type": "uint8"
        },
        {
          "indexed": false,
          "internalType": "enum AvatarWalletLink.PermissionLevel",
          "name": "newLevel",
          "type": "uint8"
        }
      ],
      "name": "PermissionUpdated",
      "type": "event"
    },
    {
      "anonymous": false,
      "inputs": [
        {
          "indexed": true,
          "internalType": "bytes32",
          "name": "role",
          "type": "bytes32"
        },
        {
          "indexed": true,
          "internalType": "bytes32",
          "name": "previousAdminRole",
          "type": "bytes32"
        },
        {
          "indexed": true,
          "internalType": "bytes32",
          "name": "newAdminRole",
          "type": "bytes32"
        }
      ],
      "name": "RoleAdminChanged",
      "type": "event"
    },
    {
      "anonymous": false,
      "inputs": [
        {
          "indexed": true,
          "internalType": "bytes32",
          "name": "role",
          "type": "bytes32"
        },
        {
          "indexed": true,
          "internalType": "address",
          "name": "account",
          "type": "address"
        },
        {
          "indexed": true,
          "internalType": "address",
          "name": "sender",
          "type": "address"
        }
      ],
      "name": "RoleGranted",
      "type": "event"
    },
    {
      "anonymous": false,
      "inputs": [
        {
          "indexed": true,
          "internalType": "bytes32",
          "name": "role",
          "type": "bytes32"
        },
        {
          "indexed": true,
          "internalType": "address",
          "name": "account",
          "type": "address"
        },
        {
          "indexed": true,
          "internalType": "address",
          "name": "sender",
          "type": "address"
        }
      ],
      "name": "RoleRevoked",
      "type": "event"
    },
    {
      "anonymous": false,
      "inputs": [
        {
          "indexed": false,
          "internalType": "address",
          "name": "account",
          "type": "address"
        }
      ],
      "name": "Unpaused",
      "type": "event"
    },
    {
      "anonymous": false,
      "inputs": [
        {
          "indexed": true,
          "internalType": "uint256",
          "name": "avatarId",
          "type": "uint256"
        },
        {
          "indexed": true,
          "internalType": "address",
          "name": "wallet",
          "type": "address"
        },
        {
          "indexed": false,
          "internalType": "enum AvatarWalletLink.PermissionLevel",
          "name": "level",
          "type": "uint8"
        },
        {
          "indexed": false,
          "internalType": "uint64",
          "name": "expiresAt",
          "type": "uint64"
        }
      ],
      "name": "WalletLinked",
      "type": "event"
    },
    {
      "anonymous": false,
      "inputs": [
        {
          "indexed": true,
          "internalType": "uint256",
          "name": "avatarId",
          "type": "uint256"
        },
        {
          "indexed": true,
          "internalType": "address",
          "name": "wallet",
          "type": "address"
        },
        {
          "indexed": true,
          "internalType": "address",
          "name": "operator",
          "type": "address"
        }
      ],
      "name": "WalletUnlinked",
      "type": "event"
    },
    {
      "inputs": [],
      "name": "DEFAULT_ADMIN_ROLE",
      "outputs": [
        {
          "internalType": "bytes32",
          "name": "",
          "type": "bytes32"
        }
      ],
      "stateMutability": "view",
      "type": "function"
    },
    {
      "inputs": [],
      "name": "LINKER_ROLE",
      "outputs": [
        {
          "internalType": "bytes32",
          "name": "",
          "type": "bytes32"
        }
      ],
      "stateMutability": "view",
      "type": "function"
    },
    {
      "inputs": [
        {
          "internalType": "uint256",
          "name": "avatarId",
          "type": "uint256"
        }
      ],
      "name": "getLinkedWallets",
      "outputs": [
        {
          "internalType": "address[]",
          "name": "",
          "type": "address[]"
        }
      ],
      "stateMutability": "view",
      "type": "function"
    },
    {
      "inputs": [
        {
          "internalType": "uint256",
          "name": "avatarId",
          "type": "uint256"
        },
        {
          "internalType": "address",
          "name": "wallet",
          "type": "address"
        }
      ],
      "name": "getPermission",
      "outputs": [
        {
          "components": [
            {
              "internalType": "enum AvatarWalletLink.PermissionLevel",
              "name": "level",
              "type": "uint8"
            },
            {
              "internalType": "uint64",
              "name": "grantedAt",
              "type": "uint64"
            },
            {
              "internalType": "uint64",
              "name": "expiresAt",
              "type": "uint64"
            }
          ],
          "internalType": "struct AvatarWalletLink.WalletPermission",
          "name": "",
          "type": "tuple"
        }
      ],
      "stateMutability": "view",
      "type": "function"
    },
    {
      "inputs": [
        {
          "internalType": "bytes32",
          "name": "role",
          "type": "bytes32"
        }
      ],
      "name": "getRoleAdmin",
      "outputs": [
        {
          "internalType": "bytes32",
          "name": "",
          "type": "bytes32"
        }
      ],
      "stateMutability": "view",
      "type": "function"
    },
    {
      "inputs": [
        {
          "internalType": "bytes32",
          "name": "role",
          "type": "bytes32"
        },
        {
          "internalType": "address",
          "name": "account",
          "type": "address"
        }
      ],
      "name": "grantRole",
      "outputs": [],
      "stateMutability": "nonpayable",
      "type": "function"
    },
    {
      "inputs": [
        {
          "internalType": "uint256",
          "name": "avatarId",
          "type": "uint256"
        },
        {
          "internalType": "address",
          "name": "wallet",
          "type": "address"
        },
        {
          "internalType": "enum AvatarWalletLink.PermissionLevel",
          "name": "minLevel",
          "type": "uint8"
        }
      ],
      "name": "hasPermission",
      "outputs": [
        {
          "internalType": "bool",
          "name": "",
          "type": "bool"
        }
      ],
      "stateMutability": "view",
      "type": "function"
    },
    {
      "inputs": [
        {
          "internalType": "bytes32",
          "name": "role",
          "type": "bytes32"
        },
        {
          "internalType": "address",
          "name": "account",
          "type": "address"
        }
      ],
      "name": "hasRole",
      "outputs": [
        {
          "internalType": "bool",
          "name": "",
          "type": "bool"
        }
      ],
      "stateMutability": "view",
      "type": "function"
    },
    {
      "inputs": [
        {
          "internalType": "uint256",
          "name": "avatarId",
          "type": "uint256"
        },
        {
          "internalType": "address",
          "name": "wallet",
          "type": "address"
        },
        {
          "internalType": "enum AvatarWalletLink.PermissionLevel",
          "name": "level",
          "type": "uint8"
        },
        {
          "internalType": "uint64",
          "name": "expiresAt",
          "type": "uint64"
        }
      ],
      "name": "linkWallet",
      "outputs": [],
      "stateMutability": "nonpayable",
      "type": "function"
    },
    {
      "inputs": [],
      "name": "pause",
      "outputs": [],
      "stateMutability": "nonpayable",
      "type": "function"
    },
    {
      "inputs": [],
      "name": "paused",
      "outputs": [
        {
          "internalType": "bool",
          "name": "",
          "type": "bool"
        }
      ],
      "stateMutability": "view",
      "type": "function"
    },
    {
      "inputs": [
        {
          "internalType": "bytes32",
          "name": "role",
          "type": "bytes32"
        },
        {
          "internalType": "address",
          "name": "callerConfirmation",
          "type": "address"
        }
      ],
      "name": "renounceRole",
      "outputs": [],
      "stateMutability": "nonpayable",
      "type": "function"
    },
    {
      "inputs": [
        {
          "internalType": "bytes32",
          "name": "role",
          "type": "bytes32"
        },
        {
          "internalType": "address",
          "name": "account",
          "type": "address"
        }
      ],
      "name": "revokeRole",
      "outputs": [],
      "stateMutability": "nonpayable",
      "type": "function"
    },
    {
      "inputs": [
        {
          "internalType": "bytes4",
          "name": "interfaceId",
          "type": "bytes4"
        }
      ],
      "name": "supportsInterface",
      "outputs": [
        {
          "internalType": "bool",
          "name": "",
          "type": "bool"
        }
      ],
      "stateMutability": "view",
      "type": "function"
    },
    {
      "inputs": [
        {
          "internalType": "uint256",
          "name": "avatarId",
          "type": "uint256"
        },
        {
          "internalType": "address",
          "name": "wallet",
          "type": "address"
        }
      ],
      "name": "unlinkWallet",
      "outputs": [],
      "stateMutability": "nonpayable",
      "type": "function"
    },
    {
      "inputs": [],
      "name": "unpause",
      "outputs": [],
      "stateMutability": "nonpayable",
      "type": "function"
    }
  ],
  "bytecode": "0x608060405234801561000f575f80fd5b50604051610f04380380610f0483398101604081905261002e9161016d565b6001600160a01b0381166100885760405162461bcd60e51b815260206004820152601360248201527f4c494e4b3a20696e76616c69642061646d696e00000000000000000000000000604482015260640160405180910390fd5b6100925f826100c4565b506100bd7f733bac3dca102687aa08c854c5f9067fc424f98fd8e90e41ad6b73aecc59a4fd826100c4565b505061019a565b5f828152602081815260408083206001600160a01b038516845290915281205460ff16610164575f838152602081815260408083206001600160a01b03861684529091529020805460ff1916600117905561011c3390565b6001600160a01b0316826001600160a01b0316847f2f8788117e7eff1d82e926ec794901d17c78024a50270940304540a733656f0d60405160405180910390a4506001610167565b505f5b92915050565b5f6020828403121561017d575f80fd5b81516001600160a01b0381168114610193575f80fd5b9392505050565b610d5d806101a75f395ff3fe608060405234801561000f575f80fd5b50600436106100fb575f3560e01c8063823abfd911610093578063c80493cf11610063578063c80493cf146101fa578063d547741f14610221578063e0737dfd14610234578063eef2f6b314610254575f80fd5b8063823abfd9146101c55780638456cb59146101d857806391d14854146101e0578063a217fddf146101f3575f80fd5b806336568abe116100ce57806336568abe1461018c5780633f4ba83a1461019f5780635c975abb146101a757806360835e6e146101b2575f80fd5b806301ffc9a7146100ff57806304bc69a414610127578063248a9ca3146101475780632f2ff15d14610177575b5f80fd5b61011261010d366004610b09565b610267565b60405190151581526020015b60405180910390f35b61013a610135366004610b30565b61029d565b60405161011e9190610b47565b610169610155366004610b30565b5f9081526020819052604090206001015490565b60405190815260200161011e565b61018a610185366004610bae565b610306565b005b61018a61019a366004610bae565b610330565b61018a610368565b60015460ff16610112565b61018a6101c0366004610bae565b61037d565b6101126101d3366004610be6565b610492565b61018a610537565b6101126101ee366004610bae565b610549565b6101695f81565b6101697f733bac3dca102687aa08c854c5f9067fc424f98fd8e90e41ad6b73aecc59a4fd81565b61018a61022f366004610bae565b610571565b610247610242366004610bae565b610595565b60405161011e9190610c53565b61018a610262366004610c8f565b610632565b5f6001600160e01b03198216637965db0b60e01b148061029757506301ffc9a760e01b6001600160e01b03198316145b92915050565b5f818152600360209081526040918290208054835181840281018401909452808452606093928301828280156102fa57602002820191905f5260205f20905b81546001600160a01b031681526001909101906020018083116102dc575b50505050509050919050565b5f82815260208190526040902060010154610320816108f4565b61032a83836108fe565b50505050565b6001600160a01b03811633146103595760405163334bd91960e11b815260040160405180910390fd5b610363828261098d565b505050565b5f610372816108f4565b61037a6109f6565b50565b610385610a48565b7f733bac3dca102687aa08c854c5f9067fc424f98fd8e90e41ad6b73aecc59a4fd6103af816108f4565b5f8381526002602090815260408083206001600160a01b038616845290915281205460ff1660038111156103e5576103e5610c1f565b0361042a5760405162461bcd60e51b815260206004820152601060248201526f13125392ce881b9bdd081b1a5b9ad95960821b60448201526064015b60405180910390fd5b5f8381526002602090815260408083206001600160a01b0386168085529252808320805470ffffffffffffffffffffffffffffffffff1916905551339286917fc324648ef1ea0cf15396741083fa5f2ed7fa7024b693850d71de3e543dae699f9190a4505050565b5f8381526002602090815260408083206001600160a01b038616845290915281208260038111156104c5576104c5610c1f565b815460ff1660038111156104db576104db610c1f565b10156104ea575f915050610530565b8054600160481b900467ffffffffffffffff161580159061051c57508054600160481b900467ffffffffffffffff1642115b1561052a575f915050610530565b60019150505b9392505050565b5f610541816108f4565b61037a610a6e565b5f918252602082815260408084206001600160a01b0393909316845291905290205460ff1690565b5f8281526020819052604090206001015461058b816108f4565b61032a838361098d565b60408051606080820183525f8083526020808401829052838501829052868252600281528482206001600160a01b038716835290528390208351918201909352825491929091829060ff1660038111156105f1576105f1610c1f565b600381111561060257610602610c1f565b8152905467ffffffffffffffff610100820481166020840152600160481b90910416604090910152905092915050565b61063a610a48565b7f733bac3dca102687aa08c854c5f9067fc424f98fd8e90e41ad6b73aecc59a4fd610664816108f4565b6001600160a01b0384166106b15760405162461bcd60e51b815260206004820152601460248201527313125392ce881a5b9d985b1a59081dd85b1b195d60621b6044820152606401610421565b5f8360038111156106c4576106c4610c1f565b036107075760405162461bcd60e51b815260206004820152601360248201527213125392ce881a5b9d985b1a59081b195d995b606a1b6044820152606401610421565b67ffffffffffffffff821615806107275750428267ffffffffffffffff16115b61076a5760405162461bcd60e51b81526020600482015260146024820152734c494e4b3a20696e76616c69642065787069727960601b6044820152606401610421565b5f8581526002602090815260408083206001600160a01b038816845290915281209080825460ff1660038111156107a3576107a3610c1f565b149050806107f95781546040516001600160a01b0388169189917f37bf6603e161e110b9e39afb9ba01675b9a40fdefe72ada138e635cbc5bf8b03916107f09160ff909116908a90610ce7565b60405180910390a35b81548590839060ff1916600183600381111561081757610817610c1f565b0217905550815467ffffffffffffffff858116600160481b0270ffffffffffffffff000000000000000000194292909216610100029190911670ffffffffffffffffffffffffffffffff00199092169190911717825580156108eb575f8781526003602090815260408083208054600181018255908452919092200180546001600160a01b0319166001600160a01b038916908117909155905188907f37af1a585d0f8cf437295ac89681b3602fb3a0d338b3b4b30340051a250fcb38906108e29089908990610d02565b60405180910390a35b50505050505050565b61037a8133610aa9565b5f6109098383610549565b610986575f838152602081815260408083206001600160a01b03861684529091529020805460ff1916600117905561093e3390565b6001600160a01b0316826001600160a01b0316847f2f8788117e7eff1d82e926ec794901d17c78024a50270940304540a733656f0d60405160405180910390a4506001610297565b505f610297565b5f6109988383610549565b15610986575f838152602081815260408083206001600160a01b0386168085529252808320805460ff1916905551339286917ff6391f5c32d9c69d2a47ea670b442974b53935d1edc7fd64eb21e047a839171b9190a4506001610297565b6109fe610ae6565b6001805460ff191690557f5db9ee0a495bf2e6ff9c91a7834c1ba4fdd244a5e8aa4e537bd38aeae4b073aa335b6040516001600160a01b03909116815260200160405180910390a1565b60015460ff1615610a6c5760405163d93c066560e01b815260040160405180910390fd5b565b610a76610a48565b6001805460ff1916811790557f62e78cea01bee320cd4e420270b5ea74000d11b0c9f74754ebdbfc544b05a25833610a2b565b610ab38282610549565b610ae25760405163e2517d3f60e01b81526001600160a01b038216600482015260248101839052604401610421565b5050565b60015460ff16610a6c57604051638dfc202b60e01b815260040160405180910390fd5b5f60208284031215610b19575f80fd5b81356001600160e01b031981168114610530575f80fd5b5f60208284031215610b40575f80fd5b5035919050565b602080825282518282018190525f9190848201906040850190845b81811015610b875783516001600160a01b031683529284019291840191600101610b62565b50909695505050505050565b80356001600160a01b0381168114610ba9575f80fd5b919050565b5f8060408385031215610bbf575f80fd5b82359150610bcf60208401610b93565b90509250929050565b803560048110610ba9575f80fd5b5f805f60608486031215610bf8575f80fd5b83359250610c0860208501610b93565b9150610c1660408501610bd8565b90509250925092565b634e487b7160e01b5f52602160045260245ffd5b60048110610c4f57634e487b7160e01b5f52602160045260245ffd5b9052565b5f606082019050610c65828451610c33565b602083015167ffffffffffffffff8082166020850152806040860151166040850152505092915050565b5f805f8060808587031215610ca2575f80fd5b84359350610cb260208601610b93565b9250610cc060408601610bd8565b9150606085013567ffffffffffffffff81168114610cdc575f80fd5b939692955090935050565b60408101610cf58285610c33565b6105306020830184610c33565b60408101610d108285610c33565b67ffffffffffffffff83166020830152939250505056fea264697066735822122057747e2dfca75c579020ee3162bf3ee361f00795fe2e32f455949f110d901c9564736f6c63430008180033",
  "linkReferences": {},
  "deployedLinkReferences": {}
}