{
  "_format": "hh-sol-artifact-1",
  "contractName": "AvatarPro",
  "sourceName": "contracts/AvatarPro.sol",
  "abi": [
    {
      "inputs": [
        {
          "internalType": "address",
          "name": "tokenAddress",
          "type": "address"
        },
        {
          "internalType": "address",
          "name": "treasuryAddress",
          "type": "address"
        },
        {
          "internalType": "address",
          "name": "admin",
          "type": "address"
        }
      ],
      "stateMutability": "nonpayable",
      "type": "constructor"
    },
    {
      "inputs": [],
      "name": "AccessControlBadConfirmation",
      "type": "error"
    },
    {
      "inputs": [
        {
          "internalType": "address",
          "name": "account",
          "type": "address"
        },
        {
          "internalType": "bytes32",
          "name": "neededRole",
          "type": "bytes32"
        }
      ],
      "name": "AccessControlUnauthorizedAccount",
      "type": "error"
    },
    {
      "inputs": [],
      "name": "EnforcedPause",
      "type": "error"
    },
    {
      "inputs": [],
      "name": "ExpectedPause",
      "type": "error"
    },
    {
      "inputs": [],
      "name": "ReentrancyGuardReentrantCall",
      "type": "error"
    },
    {
      "inputs": [
        {
          "internalType": "address",
          "name": "token",
          "type": "address"
        }
      ],
      "name": "SafeERC20FailedOperation",
      "type": "error"
    },
    {
      "anonymous": false,
      "inputs": [
        {
          "indexed": true,
          "internalType": "uint256",
          "name": "avatarId",
          "type": "uint256"
        },
        {
          "indexed": true,
          "internalType": "enum AvatarPro.UsabilityPlan",
          "name": "requiredPlan",
          "type": "uint8"
        },
        {
          "indexed": true,
          "internalType": "address",
          "name": "operator",
          "type": "address"
        }
      ],
      "name": "AvatarRequiredPlanUpdated",
      "type": "event"
    },
    {
      "anonymous": false,
      "inputs": [
        {
          "indexed": true,
          "internalType": "address",
          "name": "oldRegistry",
          "type": "address"
        },
        {
          "indexed": true,
          "internalType": "address",
          "name": "newRegistry",
          "type": "address"
        }
      ],
      "name": "ConsentRegistryUpdated",
      "type": "event"
    },
    {
      "anonymous": false,
      "inputs": [
        {
          "indexed": true,
          "internalType": "bytes32",
          "name": "contractZeroHash",
          "type": "bytes32"
        },
        {
          "indexed": true,
          "internalType": "bytes32",
          "name": "contractZeroVersionHash",
          "type": "bytes32"
        },
        {
          "indexed": true,
          "internalType": "address",
          "name": "operator",
          "type": "address"
        }
      ],
      "name": "ContractZeroAnchored",
      "type": "event"
    },
    {
      "anonymous": false,
      "inputs": [
        {
          "indexed": false,
          "internalType": "address",
          "name": "account",
          "type": "address"
        }
      ],
      "name": "Paused",
      "type": "event"
    },
    {
      "anonymous": false,
      "inputs": [
        {
          "indexed": true,
          "internalType": "bool",
          "name": "enabled",
          "type": "bool"
        },
        {
          "indexed": true,
          "internalType": "address",
          "name": "operator",
          "type": "address"
        }
      ],
      "name": "PlanAcceptanceEnforcementUpdated",
      "type": "event"
    },
    {
      "anonymous": false,
      "inputs": [
        {
          "indexed": true,
          "internalType": "bytes32",
          "name": "role",
          "type": "bytes32"
        },
        {
          "indexed": true,
          "internalType": "bytes32",
          "name": "previousAdminRole",
          "type": "bytes32"
        },
        {
          "indexed": true,
          "internalType": "bytes32",
          "name": "newAdminRole",
          "type": "bytes32"
        }
      ],
      "name": "RoleAdminChanged",
      "type": "event"
    },
    {
      "anonymous": false,
      "inputs": [
        {
          "indexed": true,
          "internalType": "bytes32",
          "name": "role",
          "type": "bytes32"
        },
        {
          "indexed": true,
          "internalType": "address",
          "name": "account",
          "type": "address"
        },
        {
          "indexed": true,
          "internalType": "address",
          "name": "sender",
          "type": "address"
        }
      ],
      "name": "RoleGranted",
      "type": "event"
    },
    {
      "anonymous": false,
      "inputs": [
        {
          "indexed": true,
          "internalType": "bytes32",
          "name": "role",
          "type": "bytes32"
        },
        {
          "indexed": true,
          "internalType": "address",
          "name": "account",
          "type": "address"
        },
        {
          "indexed": true,
          "internalType": "address",
          "name": "sender",
          "type": "address"
        }
      ],
      "name": "RoleRevoked",
      "type": "event"
    },
    {
      "anonymous": false,
      "inputs": [
        {
          "indexed": true,
          "internalType": "uint256",
          "name": "avatarId",
          "type": "uint256"
        },
        {
          "indexed": false,
          "internalType": "uint256",
          "name": "pricePerSession",
          "type": "uint256"
        },
        {
          "indexed": false,
          "internalType": "bool",
          "name": "isActive",
          "type": "bool"
        },
        {
          "indexed": false,
          "internalType": "uint32",
          "name": "maxSessionsPerDay",
          "type": "uint32"
        }
      ],
      "name": "ServiceConfigured",
      "type": "event"
    },
    {
      "anonymous": false,
      "inputs": [
        {
          "indexed": true,
          "internalType": "uint256",
          "name": "sessionId",
          "type": "uint256"
        },
        {
          "indexed": false,
          "internalType": "bytes32",
          "name": "sessionDataHash",
          "type": "bytes32"
        },
        {
          "indexed": true,
          "internalType": "address",
          "name": "operator",
          "type": "address"
        }
      ],
      "name": "SessionFinalized",
      "type": "event"
    },
    {
      "anonymous": false,
      "inputs": [
        {
          "indexed": true,
          "internalType": "uint256",
          "name": "sessionId",
          "type": "uint256"
        },
        {
          "indexed": true,
          "internalType": "uint256",
          "name": "avatarId",
          "type": "uint256"
        },
        {
          "indexed": true,
          "internalType": "address",
          "name": "user",
          "type": "address"
        },
        {
          "indexed": false,
          "internalType": "uint256",
          "name": "amountPaid",
          "type": "uint256"
        }
      ],
      "name": "SessionRequested",
      "type": "event"
    },
    {
      "anonymous": false,
      "inputs": [
        {
          "indexed": true,
          "internalType": "address",
          "name": "oldTreasury",
          "type": "address"
        },
        {
          "indexed": true,
          "internalType": "address",
          "name": "newTreasury",
          "type": "address"
        }
      ],
      "name": "TreasuryUpdated",
      "type": "event"
    },
    {
      "anonymous": false,
      "inputs": [
        {
          "indexed": false,
          "internalType": "address",
          "name": "account",
          "type": "address"
        }
      ],
      "name": "Unpaused",
      "type": "event"
    },
    {
      "anonymous": false,
      "inputs": [
        {
          "indexed": true,
          "internalType": "address",
          "name": "user",
          "type": "address"
        },
        {
          "indexed": true,
          "internalType": "enum AvatarPro.UsabilityPlan",
          "name": "plan",
          "type": "uint8"
        },
        {
          "indexed": true,
          "internalType": "bytes32",
          "name": "termsHash",
          "type": "bytes32"
        },
        {
          "indexed": false,
          "internalType": "uint64",
          "name": "acceptedAt",
          "type": "uint64"
        }
      ],
      "name": "UserPlanAccepted",
      "type": "event"
    },
    {
      "anonymous": false,
      "inputs": [
        {
          "indexed": true,
          "internalType": "address",
          "name": "user",
          "type": "address"
        },
        {
          "indexed": true,
          "internalType": "enum AvatarPro.UsabilityPlan",
          "name": "plan",
          "type": "uint8"
        },
        {
          "indexed": false,
          "internalType": "uint64",
          "name": "revokedAt",
          "type": "uint64"
        }
      ],
      "name": "UserPlanRevoked",
      "type": "event"
    },
    {
      "inputs": [],
      "name": "DEFAULT_ADMIN_ROLE",
      "outputs": [
        {
          "internalType": "bytes32",
          "name": "",
          "type": "bytes32"
        }
      ],
      "stateMutability": "view",
      "type": "function"
    },
    {
      "inputs": [],
      "name": "PRICE_SETTER_ROLE",
      "outputs": [
        {
          "internalType": "bytes32",
          "name": "",
          "type": "bytes32"
        }
      ],
      "stateMutability": "view",
      "type": "function"
    },
    {
      "inputs": [],
      "name": "SESSION_MANAGER_ROLE",
      "outputs": [
        {
          "internalType": "bytes32",
          "name": "",
          "type": "bytes32"
        }
      ],
      "stateMutability": "view",
      "type": "function"
    },
    {
      "inputs": [
        {
          "internalType": "enum AvatarPro.UsabilityPlan",
          "name": "plan",
          "type": "uint8"
        },
        {
          "internalType": "bytes32",
          "name": "termsHash",
          "type": "bytes32"
        }
      ],
      "name": "acceptUsabilityPlan",
      "outputs": [],
      "stateMutability": "nonpayable",
      "type": "function"
    },
    {
      "inputs": [
        {
          "internalType": "bytes32",
          "name": "newContractZeroHash",
          "type": "bytes32"
        },
        {
          "internalType": "bytes32",
          "name": "newContractZeroVersionHash",
          "type": "bytes32"
        }
      ],
      "name": "anchorContractZero",
      "outputs": [],
      "stateMutability": "nonpayable",
      "type": "function"
    },
    {
      "inputs": [
        {
          "internalType": "uint256",
          "name": "avatarId",
          "type": "uint256"
        },
        {
          "internalType": "uint256",
          "name": "pricePerSession",
          "type": "uint256"
        },
        {
          "internalType": "bool",
          "name": "isActive",
          "type": "bool"
        },
        {
          "internalType": "uint32",
          "name": "maxSessionsPerDay",
          "type": "uint32"
        }
      ],
      "name": "configureService",
      "outputs": [],
      "stateMutability": "nonpayable",
      "type": "function"
    },
    {
      "inputs": [],
      "name": "consentRegistry",
      "outputs": [
        {
          "internalType": "address",
          "name": "",
          "type": "address"
        }
      ],
      "stateMutability": "view",
      "type": "function"
    },
    {
      "inputs": [],
      "name": "contractZeroHash",
      "outputs": [
        {
          "internalType": "bytes32",
          "name": "",
          "type": "bytes32"
        }
      ],
      "stateMutability": "view",
      "type": "function"
    },
    {
      "inputs": [],
      "name": "contractZeroVersionHash",
      "outputs": [
        {
          "internalType": "bytes32",
          "name": "",
          "type": "bytes32"
        }
      ],
      "stateMutability": "view",
      "type": "function"
    },
    {
      "inputs": [],
      "name": "enforcePlanAcceptance",
      "outputs": [
        {
          "internalType": "bool",
          "name": "",
          "type": "bool"
        }
      ],
      "stateMutability": "view",
      "type": "function"
    },
    {
      "inputs": [
        {
          "internalType": "uint256",
          "name": "sessionId",
          "type": "uint256"
        },
        {
          "internalType": "bytes32",
          "name": "sessionDataHash",
          "type": "bytes32"
        }
      ],
      "name": "finalizeSession",
      "outputs": [],
      "stateMutability": "nonpayable",
      "type": "function"
    },
    {
      "inputs": [
        {
          "internalType": "uint256",
          "name": "avatarId",
          "type": "uint256"
        },
        {
          "internalType": "address",
          "name": "user",
          "type": "address"
        }
      ],
      "name": "getDailyCount",
      "outputs": [
        {
          "internalType": "uint256",
          "name": "",
          "type": "uint256"
        }
      ],
      "stateMutability": "view",
      "type": "function"
    },
    {
      "inputs": [
        {
          "internalType": "bytes32",
          "name": "role",
          "type": "bytes32"
        }
      ],
      "name": "getRoleAdmin",
      "outputs": [
        {
          "internalType": "bytes32",
          "name": "",
          "type": "bytes32"
        }
      ],
      "stateMutability": "view",
      "type": "function"
    },
    {
      "inputs": [
        {
          "internalType": "bytes32",
          "name": "role",
          "type": "bytes32"
        },
        {
          "internalType": "address",
          "name": "account",
          "type": "address"
        }
      ],
      "name": "grantRole",
      "outputs": [],
      "stateMutability": "nonpayable",
      "type": "function"
    },
    {
      "inputs": [
        {
          "internalType": "uint256",
          "name": "avatarId",
          "type": "uint256"
        },
        {
          "internalType": "address",
          "name": "user",
          "type": "address"
        }
      ],
      "name": "hasRequiredPlan",
      "outputs": [
        {
          "internalType": "bool",
          "name": "",
          "type": "bool"
        }
      ],
      "stateMutability": "view",
      "type": "function"
    },
    {
      "inputs": [
        {
          "internalType": "bytes32",
          "name": "role",
          "type": "bytes32"
        },
        {
          "internalType": "address",
          "name": "account",
          "type": "address"
        }
      ],
      "name": "hasRole",
      "outputs": [
        {
          "internalType": "bool",
          "name": "",
          "type": "bool"
        }
      ],
      "stateMutability": "view",
      "type": "function"
    },
    {
      "inputs": [],
      "name": "pause",
      "outputs": [],
      "stateMutability": "nonpayable",
      "type": "function"
    },
    {
      "inputs": [],
      "name": "paused",
      "outputs": [
        {
          "internalType": "bool",
          "name": "",
          "type": "bool"
        }
      ],
      "stateMutability": "view",
      "type": "function"
    },
    {
      "inputs": [
        {
          "internalType": "bytes32",
          "name": "role",
          "type": "bytes32"
        },
        {
          "internalType": "address",
          "name": "callerConfirmation",
          "type": "address"
        }
      ],
      "name": "renounceRole",
      "outputs": [],
      "stateMutability": "nonpayable",
      "type": "function"
    },
    {
      "inputs": [
        {
          "internalType": "uint256",
          "name": "avatarId",
          "type": "uint256"
        }
      ],
      "name": "requestSession",
      "outputs": [
        {
          "internalType": "uint256",
          "name": "sessionId",
          "type": "uint256"
        }
      ],
      "stateMutability": "nonpayable",
      "type": "function"
    },
    {
      "inputs": [
        {
          "internalType": "uint256",
          "name": "",
          "type": "uint256"
        }
      ],
      "name": "requiredPlanByAvatar",
      "outputs": [
        {
          "internalType": "enum AvatarPro.UsabilityPlan",
          "name": "",
          "type": "uint8"
        }
      ],
      "stateMutability": "view",
      "type": "function"
    },
    {
      "inputs": [],
      "name": "revokeOwnPlanAcceptance",
      "outputs": [],
      "stateMutability": "nonpayable",
      "type": "function"
    },
    {
      "inputs": [
        {
          "internalType": "bytes32",
          "name": "role",
          "type": "bytes32"
        },
        {
          "internalType": "address",
          "name": "account",
          "type": "address"
        }
      ],
      "name": "revokeRole",
      "outputs": [],
      "stateMutability": "nonpayable",
      "type": "function"
    },
    {
      "inputs": [
        {
          "internalType": "uint256",
          "name": "",
          "type": "uint256"
        }
      ],
      "name": "serviceConfigs",
      "outputs": [
        {
          "internalType": "uint256",
          "name": "pricePerSession",
          "type": "uint256"
        },
        {
          "internalType": "bool",
          "name": "isActive",
          "type": "bool"
        },
        {
          "internalType": "uint32",
          "name": "maxSessionsPerDay",
          "type": "uint32"
        }
      ],
      "stateMutability": "view",
      "type": "function"
    },
    {
      "inputs": [],
      "name": "sessionCount",
      "outputs": [
        {
          "internalType": "uint256",
          "name": "",
          "type": "uint256"
        }
      ],
      "stateMutability": "view",
      "type": "function"
    },
    {
      "inputs": [
        {
          "internalType": "uint256",
          "name": "",
          "type": "uint256"
        }
      ],
      "name": "sessions",
      "outputs": [
        {
          "internalType": "address",
          "name": "user",
          "type": "address"
        },
        {
          "internalType": "uint256",
          "name": "avatarId",
          "type": "uint256"
        },
        {
          "internalType": "uint64",
          "name": "startTime",
          "type": "uint64"
        },
        {
          "internalType": "uint64",
          "name": "endTime",
          "type": "uint64"
        },
        {
          "internalType": "uint256",
          "name": "amountPaid",
          "type": "uint256"
        },
        {
          "internalType": "bytes32",
          "name": "sessionDataHash",
          "type": "bytes32"
        }
      ],
      "stateMutability": "view",
      "type": "function"
    },
    {
      "inputs": [
        {
          "internalType": "uint256",
          "name": "avatarId",
          "type": "uint256"
        },
        {
          "internalType": "enum AvatarPro.UsabilityPlan",
          "name": "requiredPlan",
          "type": "uint8"
        }
      ],
      "name": "setAvatarRequiredPlan",
      "outputs": [],
      "stateMutability": "nonpayable",
      "type": "function"
    },
    {
      "inputs": [
        {
          "internalType": "address",
          "name": "newRegistry",
          "type": "address"
        }
      ],
      "name": "setConsentRegistry",
      "outputs": [],
      "stateMutability": "nonpayable",
      "type": "function"
    },
    {
      "inputs": [
        {
          "internalType": "bool",
          "name": "enabled",
          "type": "bool"
        }
      ],
      "name": "setPlanAcceptanceEnforcement",
      "outputs": [],
      "stateMutability": "nonpayable",
      "type": "function"
    },
    {
      "inputs": [
        {
          "internalType": "address",
          "name": "newTreasury",
          "type": "address"
        }
      ],
      "name": "setTreasury",
      "outputs": [],
      "stateMutability": "nonpayable",
      "type": "function"
    },
    {
      "inputs": [],
      "name": "sglToken",
      "outputs": [
        {
          "internalType": "contract IERC20",
          "name": "",
          "type": "address"
        }
      ],
      "stateMutability": "view",
      "type": "function"
    },
    {
      "inputs": [
        {
          "internalType": "bytes4",
          "name": "interfaceId",
          "type": "bytes4"
        }
      ],
      "name": "supportsInterface",
      "outputs": [
        {
          "internalType": "bool",
          "name": "",
          "type": "bool"
        }
      ],
      "stateMutability": "view",
      "type": "function"
    },
    {
      "inputs": [],
      "name": "treasury",
      "outputs": [
        {
          "internalType": "address",
          "name": "",
          "type": "address"
        }
      ],
      "stateMutability": "view",
      "type": "function"
    },
    {
      "inputs": [],
      "name": "unpause",
      "outputs": [],
      "stateMutability": "nonpayable",
      "type": "function"
    },
    {
      "inputs": [
        {
          "internalType": "address",
          "name": "",
          "type": "address"
        }
      ],
      "name": "userPlanAcceptance",
      "outputs": [
        {
          "internalType": "enum AvatarPro.UsabilityPlan",
          "name": "plan",
          "type": "uint8"
        },
        {
          "internalType": "uint64",
          "name": "acceptedAt",
          "type": "uint64"
        },
        {
          "internalType": "bytes32",
          "name": "termsHash",
          "type": "bytes32"
        },
        {
          "internalType": "bool",
          "name": "active",
          "type": "bool"
        }
      ],
      "stateMutability": "view",
      "type": "function"
    }
  ],
  "bytecode": "0x60a060405234801562000010575f80fd5b5060405162001f3938038062001f398339810160408190526200003391620002b1565b60017f9b779b17422d0df92223018b32b4d1fa46e071723d6817e2486d003becc55f00556001600160a01b038316620000a85760405162461bcd60e51b81526020600482015260126024820152712829279d1034b73b30b634b2103a37b5b2b760711b60448201526064015b60405180910390fd5b6001600160a01b038216620001005760405162461bcd60e51b815260206004820152601560248201527f50524f3a20696e76616c6964207472656173757279000000000000000000000060448201526064016200009f565b6001600160a01b0381166200014d5760405162461bcd60e51b81526020600482015260126024820152712829279d1034b73b30b634b21030b236b4b760711b60448201526064016200009f565b6001600160a01b038084166080526001805491841661010002610100600160a81b0319909216919091179055620001855f82620001e9565b50620001b27f122d99bbd8aa87efcb1a1fbbaa2dac9d0debfd0c247df39e9646730c715d4c5f82620001e9565b50620001df7f04824fcb60e7cc526d70b264caa65b62ed44d9c8e5d230e8ff6b0c7373843b8a82620001e9565b50505050620002f8565b5f828152602081815260408083206001600160a01b038516845290915281205460ff166200028c575f838152602081815260408083206001600160a01b03861684529091529020805460ff19166001179055620002433390565b6001600160a01b0316826001600160a01b0316847f2f8788117e7eff1d82e926ec794901d17c78024a50270940304540a733656f0d60405160405180910390a45060016200028f565b505f5b92915050565b80516001600160a01b0381168114620002ac575f80fd5b919050565b5f805f60608486031215620002c4575f80fd5b620002cf8462000295565b9250620002df6020850162000295565b9150620002ef6040850162000295565b90509250925092565b608051611c21620003185f395f81816103a3015261106e0152611c215ff3fe608060405234801561000f575f80fd5b5060043610610208575f3560e01c80638456cb591161011f578063bcd1526e116100a9578063db89cf5b11610079578063db89cf5b1461059e578063ef998fe3146105b1578063f00acbaa146105c4578063f0f44260146105eb578063f16d2367146105fe575f80fd5b8063bcd1526e14610562578063be88282414610575578063d547741f14610582578063d6872b5114610595575f80fd5b80639fc1d353116100ef5780639fc1d353146104d6578063a217fddf1461052d578063a29a90cd14610534578063a762576a14610547578063afff59c11461055a575f80fd5b80638456cb591461049557806385addbea1461049d5780638e66fcb5146104b057806391d14854146104c3575f80fd5b80633f4ba83a116101a057806361d027b31161017057806361d027b31461036e57806362b24ea21461039e5780636a4f1c23146103c557806373cd8336146103ec57806383c4b7a3146103f5575f80fd5b80633f4ba83a146102f457806340b0b3e1146102fc57806350058aea1461030f5780635c975abb14610363575f80fd5b8063248a9ca3116101db578063248a9ca31461028b5780632f2ff15d146102bb57806336568abe146102ce5780633f32f904146102e1575f80fd5b806301ffc9a71461020c5780631266861e146102345780631e6fb0831461024957806323813db914610278575b5f80fd5b61021f61021a36600461196a565b610607565b60405190151581526020015b60405180910390f35b610247610242366004611998565b61063d565b005b61026b6102573660046119b8565b60086020525f908152604090205460ff1681565b60405161022b9190611a03565b61021f610286366004611a27565b6107db565b6102ad6102993660046119b8565b5f9081526020819052604090206001015490565b60405190815260200161022b565b6102476102c9366004611a27565b610874565b6102476102dc366004611a27565b61089e565b6102476102ef366004611a5e565b6108d6565b610247610a05565b61024761030a366004611998565b610a1a565b61035361031d366004611aad565b600b6020525f908152604090208054600182015460029092015460ff8083169361010090930467ffffffffffffffff1692911684565b60405161022b9493929190611ac6565b60015460ff1661021f565b6001546103869061010090046001600160a01b031681565b6040516001600160a01b03909116815260200161022b565b6103867f000000000000000000000000000000000000000000000000000000000000000081565b6102ad7f122d99bbd8aa87efcb1a1fbbaa2dac9d0debfd0c247df39e9646730c715d4c5f81565b6102ad60035481565b6104506104033660046119b8565b60096020525f9081526040902080546001820154600283015460038401546004909401546001600160a01b0390931693919267ffffffffffffffff80831693600160401b90930416919086565b604080516001600160a01b039097168752602087019590955267ffffffffffffffff9384169486019490945291166060840152608083015260a082015260c00161022b565b610247610afb565b6102ad6104ab366004611a27565b610b0d565b6102ad6104be3660046119b8565b610b52565b61021f6104d1366004611a27565b61110b565b61050c6104e43660046119b8565b60076020525f90815260409020805460019091015460ff811690610100900463ffffffff1683565b60408051938452911515602084015263ffffffff169082015260600161022b565b6102ad5f81565b610247610542366004611b09565b611133565b610247610555366004611aad565b61122e565b61024761128a565b610247610570366004611b2a565b611350565b60045461021f9060ff1681565b610247610590366004611a27565b61139a565b6102ad60055481565b600254610386906001600160a01b031681565b6102476105bf366004611b45565b6113be565b6102ad7f04824fcb60e7cc526d70b264caa65b62ed44d9c8e5d230e8ff6b0c7373843b8a81565b6102476105f9366004611aad565b611583565b6102ad60065481565b5f6001600160e01b03198216637965db0b60e01b148061063757506301ffc9a760e01b6001600160e01b03198316145b92915050565b7f122d99bbd8aa87efcb1a1fbbaa2dac9d0debfd0c247df39e9646730c715d4c5f61066781611642565b5f838152600960205260409020600281015467ffffffffffffffff166106cd5760405162461bcd60e51b8152602060048201526016602482015275141493ce881cd95cdcda5bdb881b9bdd08199bdd5b9960521b60448201526064015b60405180910390fd5b6002810154600160401b900467ffffffffffffffff16156107295760405162461bcd60e51b8152602060048201526016602482015275141493ce88185b1c9958591e48199a5b985b1a5e995960521b60448201526064016106c4565b8261076a5760405162461bcd60e51b81526020600482015260116024820152700a0a49e7440d2dcecc2d8d2c840d0c2e6d607b1b60448201526064016106c4565b6002810180546fffffffffffffffff00000000000000001916600160401b4267ffffffffffffffff160217905560048101839055604051838152339085907f709c8a4455d05bd0ba7466b14198fb626db214ff0ca4e54d78c08869d9fe16139060200160405180910390a350505050565b5f8281526008602052604081205460ff16818160038111156107ff576107ff6119cf565b0361080d575f915050610637565b6001600160a01b0383165f908152600b60205260409020600281015460ff1661083a575f92505050610637565b81600381111561084c5761084c6119cf565b815460ff91821691166003811115610866576108666119cf565b60ff16101595945050505050565b5f8281526020819052604090206001015461088e81611642565b610898838361164c565b50505050565b6001600160a01b03811633146108c75760405163334bd91960e11b815260040160405180910390fd5b6108d182826116db565b505050565b7f04824fcb60e7cc526d70b264caa65b62ed44d9c8e5d230e8ff6b0c7373843b8a61090081611642565b5f8263ffffffff16116109555760405162461bcd60e51b815260206004820152601860248201527f50524f3a20696e76616c6964206461696c79206c696d6974000000000000000060448201526064016106c4565b6040805160608082018352868252851515602080840182815263ffffffff8881168688018181525f8e81526007865289902097518855925160019097018054935164ffffffffff1990941697151564ffffffff001916979097176101009390921692909202179094558451898152908101919091529283019190915286917ffa1bad519983d507a5eb2b46a5fa4abd393363a208cf9a8d3c80ce8a0f4842ae910160405180910390a25050505050565b5f610a0f81611642565b610a17611744565b50565b5f610a2481611642565b82610a715760405162461bcd60e51b815260206004820152601f60248201527f50524f3a20696e76616c696420636f6e7472616374207a65726f20686173680060448201526064016106c4565b81610abe5760405162461bcd60e51b815260206004820152601960248201527f50524f3a20696e76616c69642076657273696f6e20686173680000000000000060448201526064016106c4565b600583905560068290556040513390839085907f6547ff01c2341e207004ef0dfccf47b5be644a1b415f3b7a2bc22c46aa375b84905f90a4505050565b5f610b0581611642565b610a17611796565b5f828152600a602090815260408083206001600160a01b0385168452909152812081610b3c6201518042611b6d565b81526020019081526020015f2054905092915050565b5f610b5b6117d1565b610b636117f7565b5f828152600760205260409020600181015460ff16610bbc5760405162461bcd60e51b815260206004820152601560248201527450524f3a207365727669636520696e61637469766560581b60448201526064016106c4565b6001810154610100900463ffffffff16610c185760405162461bcd60e51b815260206004820152601b60248201527f50524f3a2073657276696365206e6f7420636f6e66696775726564000000000060448201526064016106c4565b6002546001600160a01b031615610d685760025460408051636dddd8bd60e11b815290515f926001600160a01b03169163dbbbb17a9160048083019260209291908290030181865afa158015610c70573d5f803e3d5ffd5b505050506040513d601f19601f82011682018060405250810190610c949190611b8c565b60025460405163f175250d60e01b81526004810187905233602482015260ff831660448201529192506001600160a01b03169063f175250d90606401602060405180830381865afa158015610ceb573d5f803e3d5ffd5b505050506040513d601f19601f82011682018060405250810190610d0f9190611bac565b610d665760405162461bcd60e51b815260206004820152602260248201527f50524f3a20766f69636520636f6e73656e7420726571756972656420284c4750604482015261442960f01b60648201526084016106c4565b505b5f610d766201518042611b6d565b60018301545f868152600a602090815260408083203384528252808320858452909152902054919250610100900463ffffffff1611610df75760405162461bcd60e51b815260206004820181905260248201527f50524f3a206461696c792073657373696f6e206c696d6974207265616368656460448201526064016106c4565b60045460ff1615610f6157335f908152600b60209081526040808320878452600890925290912054600282015460ff9182169116610e775760405162461bcd60e51b815260206004820152601d60248201527f50524f3a20706c616e20616363657074616e636520726571756972656400000060448201526064016106c4565b5f816003811115610e8a57610e8a6119cf565b03610ee15760405162461bcd60e51b815260206004820152602160248201527f50524f3a20726571756972656420706c616e206e6f7420636f6e6669677572656044820152601960fa1b60648201526084016106c4565b806003811115610ef357610ef36119cf565b825460ff91821691166003811115610f0d57610f0d6119cf565b60ff161015610f5e5760405162461bcd60e51b815260206004820181905260248201527f50524f3a20696e73756666696369656e742075736162696c69747920706c616e60448201526064016106c4565b50505b60038054905f610f7083611bc7565b909155506040805160c08101825233808252602080830189815267ffffffffffffffff4281168587019081525f606087018181528b546080890190815260a089018381528b8452600988528a842099518a546001600160a01b03919091166001600160a01b0319909116178a55955160018a0155925160028901805492518616600160401b026fffffffffffffffffffffffffffffffff199093169190951617179092555160038601559051600490940193909355888352600a8152838320918352908152828220858352905290812080549295509061104f83611bc7565b90915550508154156110a05760015482546110a0916001600160a01b037f00000000000000000000000000000000000000000000000000000000000000008116923392610100900490911690611825565b81546040519081523390859085907f60035d63bbab64b7308ea5d7545cab3580021a08473544c8a3325c541f4d100b9060200160405180910390a4505061110660017f9b779b17422d0df92223018b32b4d1fa46e071723d6817e2486d003becc55f0055565b919050565b5f918252602082815260408084206001600160a01b0393909316845291905290205460ff1690565b7f04824fcb60e7cc526d70b264caa65b62ed44d9c8e5d230e8ff6b0c7373843b8a61115d81611642565b5f826003811115611170576111706119cf565b036111bd5760405162461bcd60e51b815260206004820152601a60248201527f50524f3a20696e76616c696420726571756972656420706c616e00000000000060448201526064016106c4565b5f838152600860205260409020805483919060ff191660018360038111156111e7576111e76119cf565b0217905550338260038111156111ff576111ff6119cf565b60405185907f09cad6aced38780ef7510241a979f5b7b437d02441b0e80b33c3ddb62f169caa905f90a4505050565b5f61123881611642565b600280546001600160a01b038481166001600160a01b0319831681179093556040519116919082907f06d8a18a6765cd806b6d5c79b93278cae4f6498d6ef02f1276ef61037ca8453c905f90a3505050565b335f908152600b60205260409020600281015460ff166112ec5760405162461bcd60e51b815260206004820152601960248201527f50524f3a206e6f2061637469766520616363657074616e63650000000000000060448201526064016106c4565b60028101805460ff19169055805460ff16600381111561130e5761130e6119cf565b60405167ffffffffffffffff4216815233907f2daf76d5d2e3a3cc3c7308285b32649e102d4e239375e61a9516ebae8d1633a79060200160405180910390a350565b5f61135a81611642565b6004805460ff19168315159081179091556040513391907fc0fce289023cced7201f525b425b6e767d9b6deb91a954ada92f036713153c48905f90a35050565b5f828152602081905260409020600101546113b481611642565b61089883836116db565b6113c66117d1565b5f8260038111156113d9576113d96119cf565b0361141a5760405162461bcd60e51b81526020600482015260116024820152702829279d1034b73b30b634b210383630b760791b60448201526064016106c4565b806114675760405162461bcd60e51b815260206004820152601760248201527f50524f3a20696e76616c6964207465726d73206861736800000000000000000060448201526064016106c4565b6040518060800160405280836003811115611484576114846119cf565b815267ffffffffffffffff4216602080830191909152604080830185905260016060909301839052335f908152600b90925290208251815491929091839160ff19909116908360038111156114db576114db6119cf565b02179055506020820151815468ffffffffffffffff00191661010067ffffffffffffffff90921691909102178155604082015160018201556060909101516002909101805460ff191691151591909117905580826003811115611540576115406119cf565b60405167ffffffffffffffff4216815233907f6a9a0ba99d039320bb5cb6f6d6f9d42281deff493948545b226fedcbe480560d9060200160405180910390a45050565b5f61158d81611642565b6001600160a01b0382166115db5760405162461bcd60e51b815260206004820152601560248201527450524f3a20696e76616c696420747265617375727960581b60448201526064016106c4565b6001546040516001600160a01b0380851692610100900416907f4ab5be82436d353e61ca18726e984e561f5c1cc7c6d38b29d2553c790434705a905f90a350600180546001600160a01b0390921661010002610100600160a81b0319909216919091179055565b610a17813361185b565b5f611657838361110b565b6116d4575f838152602081815260408083206001600160a01b03861684529091529020805460ff1916600117905561168c3390565b6001600160a01b0316826001600160a01b0316847f2f8788117e7eff1d82e926ec794901d17c78024a50270940304540a733656f0d60405160405180910390a4506001610637565b505f610637565b5f6116e6838361110b565b156116d4575f838152602081815260408083206001600160a01b0386168085529252808320805460ff1916905551339286917ff6391f5c32d9c69d2a47ea670b442974b53935d1edc7fd64eb21e047a839171b9190a4506001610637565b61174c611898565b6001805460ff191690557f5db9ee0a495bf2e6ff9c91a7834c1ba4fdd244a5e8aa4e537bd38aeae4b073aa335b6040516001600160a01b03909116815260200160405180910390a1565b61179e6117d1565b6001805460ff1916811790557f62e78cea01bee320cd4e420270b5ea74000d11b0c9f74754ebdbfc544b05a25833611779565b60015460ff16156117f55760405163d93c066560e01b815260040160405180910390fd5b565b6117ff6118bb565b60027f9b779b17422d0df92223018b32b4d1fa46e071723d6817e2486d003becc55f0055565b6118338484848460016118fd565b61089857604051635274afe760e01b81526001600160a01b03851660048201526024016106c4565b611865828261110b565b6118945760405163e2517d3f60e01b81526001600160a01b0382166004820152602481018390526044016106c4565b5050565b60015460ff166117f557604051638dfc202b60e01b815260040160405180910390fd5b7f9b779b17422d0df92223018b32b4d1fa46e071723d6817e2486d003becc55f00546002036117f557604051633ee5aeb560e01b815260040160405180910390fd5b6040516323b872dd60e01b5f8181526001600160a01b038781166004528616602452604485905291602083606481808c5af1925060015f5114831661195957838315161561194d573d5f823e3d81fd5b5f883b113d1516831692505b604052505f60605295945050505050565b5f6020828403121561197a575f80fd5b81356001600160e01b031981168114611991575f80fd5b9392505050565b5f80604083850312156119a9575f80fd5b50508035926020909101359150565b5f602082840312156119c8575f80fd5b5035919050565b634e487b7160e01b5f52602160045260245ffd5b600481106119ff57634e487b7160e01b5f52602160045260245ffd5b9052565b6020810161063782846119e3565b80356001600160a01b0381168114611106575f80fd5b5f8060408385031215611a38575f80fd5b82359150611a4860208401611a11565b90509250929050565b8015158114610a17575f80fd5b5f805f8060808587031215611a71575f80fd5b84359350602085013592506040850135611a8a81611a51565b9150606085013563ffffffff81168114611aa2575f80fd5b939692955090935050565b5f60208284031215611abd575f80fd5b61199182611a11565b60808101611ad482876119e3565b67ffffffffffffffff85166020830152836040830152821515606083015295945050505050565b803560048110611106575f80fd5b5f8060408385031215611b1a575f80fd5b82359150611a4860208401611afb565b5f60208284031215611b3a575f80fd5b813561199181611a51565b5f8060408385031215611b56575f80fd5b611b5f83611afb565b946020939093013593505050565b5f82611b8757634e487b7160e01b5f52601260045260245ffd5b500490565b5f60208284031215611b9c575f80fd5b815160ff81168114611991575f80fd5b5f60208284031215611bbc575f80fd5b815161199181611a51565b5f60018201611be457634e487b7160e01b5f52601160045260245ffd5b506001019056fea26469706673582212207d658c5fb7c6e0671a3a6c2e5491f1774aacb8f79ee725fc21fb008f38bdafa464736f6c63430008180033",
  "linkReferences": {},
  "deployedLinkReferences": {}
}