{
  "_format": "hh-sol-artifact-1",
  "contractName": "AvatarPro",
  "sourceName": "contracts/AvatarPro.sol",
  "abi": [
    {
      "inputs": [
        {
          "internalType": "address",
          "name": "tokenAddress",
          "type": "address"
        },
        {
          "internalType": "address",
          "name": "treasuryAddress",
          "type": "address"
        },
        {
          "internalType": "address",
          "name": "admin",
          "type": "address"
        }
      ],
      "stateMutability": "nonpayable",
      "type": "constructor"
    },
    {
      "inputs": [],
      "name": "AccessControlBadConfirmation",
      "type": "error"
    },
    {
      "inputs": [
        {
          "internalType": "address",
          "name": "account",
          "type": "address"
        },
        {
          "internalType": "bytes32",
          "name": "neededRole",
          "type": "bytes32"
        }
      ],
      "name": "AccessControlUnauthorizedAccount",
      "type": "error"
    },
    {
      "inputs": [],
      "name": "EnforcedPause",
      "type": "error"
    },
    {
      "inputs": [],
      "name": "ExpectedPause",
      "type": "error"
    },
    {
      "inputs": [],
      "name": "ReentrancyGuardReentrantCall",
      "type": "error"
    },
    {
      "inputs": [
        {
          "internalType": "address",
          "name": "token",
          "type": "address"
        }
      ],
      "name": "SafeERC20FailedOperation",
      "type": "error"
    },
    {
      "anonymous": false,
      "inputs": [
        {
          "indexed": true,
          "internalType": "address",
          "name": "oldRegistry",
          "type": "address"
        },
        {
          "indexed": true,
          "internalType": "address",
          "name": "newRegistry",
          "type": "address"
        }
      ],
      "name": "ConsentRegistryUpdated",
      "type": "event"
    },
    {
      "anonymous": false,
      "inputs": [
        {
          "indexed": false,
          "internalType": "address",
          "name": "account",
          "type": "address"
        }
      ],
      "name": "Paused",
      "type": "event"
    },
    {
      "anonymous": false,
      "inputs": [
        {
          "indexed": true,
          "internalType": "bytes32",
          "name": "role",
          "type": "bytes32"
        },
        {
          "indexed": true,
          "internalType": "bytes32",
          "name": "previousAdminRole",
          "type": "bytes32"
        },
        {
          "indexed": true,
          "internalType": "bytes32",
          "name": "newAdminRole",
          "type": "bytes32"
        }
      ],
      "name": "RoleAdminChanged",
      "type": "event"
    },
    {
      "anonymous": false,
      "inputs": [
        {
          "indexed": true,
          "internalType": "bytes32",
          "name": "role",
          "type": "bytes32"
        },
        {
          "indexed": true,
          "internalType": "address",
          "name": "account",
          "type": "address"
        },
        {
          "indexed": true,
          "internalType": "address",
          "name": "sender",
          "type": "address"
        }
      ],
      "name": "RoleGranted",
      "type": "event"
    },
    {
      "anonymous": false,
      "inputs": [
        {
          "indexed": true,
          "internalType": "bytes32",
          "name": "role",
          "type": "bytes32"
        },
        {
          "indexed": true,
          "internalType": "address",
          "name": "account",
          "type": "address"
        },
        {
          "indexed": true,
          "internalType": "address",
          "name": "sender",
          "type": "address"
        }
      ],
      "name": "RoleRevoked",
      "type": "event"
    },
    {
      "anonymous": false,
      "inputs": [
        {
          "indexed": true,
          "internalType": "uint256",
          "name": "avatarId",
          "type": "uint256"
        },
        {
          "indexed": false,
          "internalType": "uint256",
          "name": "pricePerSession",
          "type": "uint256"
        },
        {
          "indexed": false,
          "internalType": "bool",
          "name": "isActive",
          "type": "bool"
        },
        {
          "indexed": false,
          "internalType": "uint32",
          "name": "maxSessionsPerDay",
          "type": "uint32"
        }
      ],
      "name": "ServiceConfigured",
      "type": "event"
    },
    {
      "anonymous": false,
      "inputs": [
        {
          "indexed": true,
          "internalType": "uint256",
          "name": "sessionId",
          "type": "uint256"
        },
        {
          "indexed": false,
          "internalType": "bytes32",
          "name": "sessionDataHash",
          "type": "bytes32"
        },
        {
          "indexed": true,
          "internalType": "address",
          "name": "operator",
          "type": "address"
        }
      ],
      "name": "SessionFinalized",
      "type": "event"
    },
    {
      "anonymous": false,
      "inputs": [
        {
          "indexed": true,
          "internalType": "uint256",
          "name": "sessionId",
          "type": "uint256"
        },
        {
          "indexed": true,
          "internalType": "uint256",
          "name": "avatarId",
          "type": "uint256"
        },
        {
          "indexed": true,
          "internalType": "address",
          "name": "user",
          "type": "address"
        },
        {
          "indexed": false,
          "internalType": "uint256",
          "name": "amountPaid",
          "type": "uint256"
        }
      ],
      "name": "SessionRequested",
      "type": "event"
    },
    {
      "anonymous": false,
      "inputs": [
        {
          "indexed": true,
          "internalType": "address",
          "name": "oldTreasury",
          "type": "address"
        },
        {
          "indexed": true,
          "internalType": "address",
          "name": "newTreasury",
          "type": "address"
        }
      ],
      "name": "TreasuryUpdated",
      "type": "event"
    },
    {
      "anonymous": false,
      "inputs": [
        {
          "indexed": false,
          "internalType": "address",
          "name": "account",
          "type": "address"
        }
      ],
      "name": "Unpaused",
      "type": "event"
    },
    {
      "inputs": [],
      "name": "DEFAULT_ADMIN_ROLE",
      "outputs": [
        {
          "internalType": "bytes32",
          "name": "",
          "type": "bytes32"
        }
      ],
      "stateMutability": "view",
      "type": "function"
    },
    {
      "inputs": [],
      "name": "PRICE_SETTER_ROLE",
      "outputs": [
        {
          "internalType": "bytes32",
          "name": "",
          "type": "bytes32"
        }
      ],
      "stateMutability": "view",
      "type": "function"
    },
    {
      "inputs": [],
      "name": "SESSION_MANAGER_ROLE",
      "outputs": [
        {
          "internalType": "bytes32",
          "name": "",
          "type": "bytes32"
        }
      ],
      "stateMutability": "view",
      "type": "function"
    },
    {
      "inputs": [
        {
          "internalType": "uint256",
          "name": "avatarId",
          "type": "uint256"
        },
        {
          "internalType": "uint256",
          "name": "pricePerSession",
          "type": "uint256"
        },
        {
          "internalType": "bool",
          "name": "isActive",
          "type": "bool"
        },
        {
          "internalType": "uint32",
          "name": "maxSessionsPerDay",
          "type": "uint32"
        }
      ],
      "name": "configureService",
      "outputs": [],
      "stateMutability": "nonpayable",
      "type": "function"
    },
    {
      "inputs": [],
      "name": "consentRegistry",
      "outputs": [
        {
          "internalType": "address",
          "name": "",
          "type": "address"
        }
      ],
      "stateMutability": "view",
      "type": "function"
    },
    {
      "inputs": [
        {
          "internalType": "uint256",
          "name": "sessionId",
          "type": "uint256"
        },
        {
          "internalType": "bytes32",
          "name": "sessionDataHash",
          "type": "bytes32"
        }
      ],
      "name": "finalizeSession",
      "outputs": [],
      "stateMutability": "nonpayable",
      "type": "function"
    },
    {
      "inputs": [
        {
          "internalType": "uint256",
          "name": "avatarId",
          "type": "uint256"
        },
        {
          "internalType": "address",
          "name": "user",
          "type": "address"
        }
      ],
      "name": "getDailyCount",
      "outputs": [
        {
          "internalType": "uint256",
          "name": "",
          "type": "uint256"
        }
      ],
      "stateMutability": "view",
      "type": "function"
    },
    {
      "inputs": [
        {
          "internalType": "bytes32",
          "name": "role",
          "type": "bytes32"
        }
      ],
      "name": "getRoleAdmin",
      "outputs": [
        {
          "internalType": "bytes32",
          "name": "",
          "type": "bytes32"
        }
      ],
      "stateMutability": "view",
      "type": "function"
    },
    {
      "inputs": [
        {
          "internalType": "bytes32",
          "name": "role",
          "type": "bytes32"
        },
        {
          "internalType": "address",
          "name": "account",
          "type": "address"
        }
      ],
      "name": "grantRole",
      "outputs": [],
      "stateMutability": "nonpayable",
      "type": "function"
    },
    {
      "inputs": [
        {
          "internalType": "bytes32",
          "name": "role",
          "type": "bytes32"
        },
        {
          "internalType": "address",
          "name": "account",
          "type": "address"
        }
      ],
      "name": "hasRole",
      "outputs": [
        {
          "internalType": "bool",
          "name": "",
          "type": "bool"
        }
      ],
      "stateMutability": "view",
      "type": "function"
    },
    {
      "inputs": [],
      "name": "pause",
      "outputs": [],
      "stateMutability": "nonpayable",
      "type": "function"
    },
    {
      "inputs": [],
      "name": "paused",
      "outputs": [
        {
          "internalType": "bool",
          "name": "",
          "type": "bool"
        }
      ],
      "stateMutability": "view",
      "type": "function"
    },
    {
      "inputs": [
        {
          "internalType": "bytes32",
          "name": "role",
          "type": "bytes32"
        },
        {
          "internalType": "address",
          "name": "callerConfirmation",
          "type": "address"
        }
      ],
      "name": "renounceRole",
      "outputs": [],
      "stateMutability": "nonpayable",
      "type": "function"
    },
    {
      "inputs": [
        {
          "internalType": "uint256",
          "name": "avatarId",
          "type": "uint256"
        }
      ],
      "name": "requestSession",
      "outputs": [
        {
          "internalType": "uint256",
          "name": "sessionId",
          "type": "uint256"
        }
      ],
      "stateMutability": "nonpayable",
      "type": "function"
    },
    {
      "inputs": [
        {
          "internalType": "bytes32",
          "name": "role",
          "type": "bytes32"
        },
        {
          "internalType": "address",
          "name": "account",
          "type": "address"
        }
      ],
      "name": "revokeRole",
      "outputs": [],
      "stateMutability": "nonpayable",
      "type": "function"
    },
    {
      "inputs": [
        {
          "internalType": "uint256",
          "name": "",
          "type": "uint256"
        }
      ],
      "name": "serviceConfigs",
      "outputs": [
        {
          "internalType": "uint256",
          "name": "pricePerSession",
          "type": "uint256"
        },
        {
          "internalType": "bool",
          "name": "isActive",
          "type": "bool"
        },
        {
          "internalType": "uint32",
          "name": "maxSessionsPerDay",
          "type": "uint32"
        }
      ],
      "stateMutability": "view",
      "type": "function"
    },
    {
      "inputs": [],
      "name": "sessionCount",
      "outputs": [
        {
          "internalType": "uint256",
          "name": "",
          "type": "uint256"
        }
      ],
      "stateMutability": "view",
      "type": "function"
    },
    {
      "inputs": [
        {
          "internalType": "uint256",
          "name": "",
          "type": "uint256"
        }
      ],
      "name": "sessions",
      "outputs": [
        {
          "internalType": "address",
          "name": "user",
          "type": "address"
        },
        {
          "internalType": "uint256",
          "name": "avatarId",
          "type": "uint256"
        },
        {
          "internalType": "uint64",
          "name": "startTime",
          "type": "uint64"
        },
        {
          "internalType": "uint64",
          "name": "endTime",
          "type": "uint64"
        },
        {
          "internalType": "uint256",
          "name": "amountPaid",
          "type": "uint256"
        },
        {
          "internalType": "bytes32",
          "name": "sessionDataHash",
          "type": "bytes32"
        }
      ],
      "stateMutability": "view",
      "type": "function"
    },
    {
      "inputs": [
        {
          "internalType": "address",
          "name": "newRegistry",
          "type": "address"
        }
      ],
      "name": "setConsentRegistry",
      "outputs": [],
      "stateMutability": "nonpayable",
      "type": "function"
    },
    {
      "inputs": [
        {
          "internalType": "address",
          "name": "newTreasury",
          "type": "address"
        }
      ],
      "name": "setTreasury",
      "outputs": [],
      "stateMutability": "nonpayable",
      "type": "function"
    },
    {
      "inputs": [],
      "name": "sglToken",
      "outputs": [
        {
          "internalType": "contract IERC20",
          "name": "",
          "type": "address"
        }
      ],
      "stateMutability": "view",
      "type": "function"
    },
    {
      "inputs": [
        {
          "internalType": "bytes4",
          "name": "interfaceId",
          "type": "bytes4"
        }
      ],
      "name": "supportsInterface",
      "outputs": [
        {
          "internalType": "bool",
          "name": "",
          "type": "bool"
        }
      ],
      "stateMutability": "view",
      "type": "function"
    },
    {
      "inputs": [],
      "name": "treasury",
      "outputs": [
        {
          "internalType": "address",
          "name": "",
          "type": "address"
        }
      ],
      "stateMutability": "view",
      "type": "function"
    },
    {
      "inputs": [],
      "name": "unpause",
      "outputs": [],
      "stateMutability": "nonpayable",
      "type": "function"
    }
  ],
  "bytecode": "0x60a060405234801562000010575f80fd5b50604051620015de380380620015de8339810160408190526200003391620002b1565b60017f9b779b17422d0df92223018b32b4d1fa46e071723d6817e2486d003becc55f00556001600160a01b038316620000a85760405162461bcd60e51b81526020600482015260126024820152712829279d1034b73b30b634b2103a37b5b2b760711b60448201526064015b60405180910390fd5b6001600160a01b038216620001005760405162461bcd60e51b815260206004820152601560248201527f50524f3a20696e76616c6964207472656173757279000000000000000000000060448201526064016200009f565b6001600160a01b0381166200014d5760405162461bcd60e51b81526020600482015260126024820152712829279d1034b73b30b634b21030b236b4b760711b60448201526064016200009f565b6001600160a01b038084166080526001805491841661010002610100600160a81b0319909216919091179055620001855f82620001e9565b50620001b27f122d99bbd8aa87efcb1a1fbbaa2dac9d0debfd0c247df39e9646730c715d4c5f82620001e9565b50620001df7f04824fcb60e7cc526d70b264caa65b62ed44d9c8e5d230e8ff6b0c7373843b8a82620001e9565b50505050620002f8565b5f828152602081815260408083206001600160a01b038516845290915281205460ff166200028c575f838152602081815260408083206001600160a01b03861684529091529020805460ff19166001179055620002433390565b6001600160a01b0316826001600160a01b0316847f2f8788117e7eff1d82e926ec794901d17c78024a50270940304540a733656f0d60405160405180910390a45060016200028f565b505f5b92915050565b80516001600160a01b0381168114620002ac575f80fd5b919050565b5f805f60608486031215620002c4575f80fd5b620002cf8462000295565b9250620002df6020850162000295565b9150620002ef6040850162000295565b90509250925092565b6080516112c6620003185f395f81816102450152610bcc01526112c65ff3fe608060405234801561000f575f80fd5b5060043610610153575f3560e01c806383c4b7a3116100bf578063a217fddf11610079578063a217fddf146103cf578063a762576a146103d6578063d547741f146103e9578063db89cf5b146103fc578063f00acbaa1461040f578063f0f4426014610436575f80fd5b806383c4b7a3146102975780638456cb591461033757806385addbea1461033f5780638e66fcb51461035257806391d14854146103655780639fc1d35314610378575f80fd5b80633f4ba83a116101105780633f4ba83a146101fd5780635c975abb1461020557806361d027b31461021057806362b24ea2146102405780636a4f1c231461026757806373cd83361461028e575f80fd5b806301ffc9a7146101575780631266861e1461017f578063248a9ca3146101945780632f2ff15d146101c457806336568abe146101d75780633f32f904146101ea575b5f80fd5b61016a6101653660046110f8565b610449565b60405190151581526020015b60405180910390f35b61019261018d366004611126565b61047f565b005b6101b66101a2366004611146565b5f9081526020819052604090206001015490565b604051908152602001610176565b6101926101d2366004611173565b61061d565b6101926101e5366004611173565b610647565b6101926101f83660046111aa565b61067f565b6101926107ae565b60015460ff1661016a565b6001546102289061010090046001600160a01b031681565b6040516001600160a01b039091168152602001610176565b6102287f000000000000000000000000000000000000000000000000000000000000000081565b6101b67f122d99bbd8aa87efcb1a1fbbaa2dac9d0debfd0c247df39e9646730c715d4c5f81565b6101b660035481565b6102f26102a5366004611146565b60056020525f9081526040902080546001820154600283015460038401546004909401546001600160a01b0390931693919267ffffffffffffffff80831693600160401b90930416919086565b604080516001600160a01b039097168752602087019590955267ffffffffffffffff9384169486019490945291166060840152608083015260a082015260c001610176565b6101926107c3565b6101b661034d366004611173565b6107d5565b6101b6610360366004611146565b61081a565b61016a610373366004611173565b610c69565b6103ae610386366004611146565b60046020525f90815260409020805460019091015460ff811690610100900463ffffffff1683565b60408051938452911515602084015263ffffffff1690820152606001610176565b6101b65f81565b6101926103e43660046111f9565b610c91565b6101926103f7366004611173565b610ced565b600254610228906001600160a01b031681565b6101b67f04824fcb60e7cc526d70b264caa65b62ed44d9c8e5d230e8ff6b0c7373843b8a81565b6101926104443660046111f9565b610d11565b5f6001600160e01b03198216637965db0b60e01b148061047957506301ffc9a760e01b6001600160e01b03198316145b92915050565b7f122d99bbd8aa87efcb1a1fbbaa2dac9d0debfd0c247df39e9646730c715d4c5f6104a981610dd0565b5f838152600560205260409020600281015467ffffffffffffffff1661050f5760405162461bcd60e51b8152602060048201526016602482015275141493ce881cd95cdcda5bdb881b9bdd08199bdd5b9960521b60448201526064015b60405180910390fd5b6002810154600160401b900467ffffffffffffffff161561056b5760405162461bcd60e51b8152602060048201526016602482015275141493ce88185b1c9958591e48199a5b985b1a5e995960521b6044820152606401610506565b826105ac5760405162461bcd60e51b81526020600482015260116024820152700a0a49e7440d2dcecc2d8d2c840d0c2e6d607b1b6044820152606401610506565b6002810180546fffffffffffffffff00000000000000001916600160401b4267ffffffffffffffff160217905560048101839055604051838152339085907f709c8a4455d05bd0ba7466b14198fb626db214ff0ca4e54d78c08869d9fe16139060200160405180910390a350505050565b5f8281526020819052604090206001015461063781610dd0565b6106418383610dda565b50505050565b6001600160a01b03811633146106705760405163334bd91960e11b815260040160405180910390fd5b61067a8282610e69565b505050565b7f04824fcb60e7cc526d70b264caa65b62ed44d9c8e5d230e8ff6b0c7373843b8a6106a981610dd0565b5f8263ffffffff16116106fe5760405162461bcd60e51b815260206004820152601860248201527f50524f3a20696e76616c6964206461696c79206c696d697400000000000000006044820152606401610506565b6040805160608082018352868252851515602080840182815263ffffffff8881168688018181525f8e81526004865289902097518855925160019097018054935164ffffffffff1990941697151564ffffffff001916979097176101009390921692909202179094558451898152908101919091529283019190915286917ffa1bad519983d507a5eb2b46a5fa4abd393363a208cf9a8d3c80ce8a0f4842ae910160405180910390a25050505050565b5f6107b881610dd0565b6107c0610ed2565b50565b5f6107cd81610dd0565b6107c0610f24565b5f8281526006602090815260408083206001600160a01b03851684529091528120816108046201518042611212565b81526020019081526020015f2054905092915050565b5f610823610f5f565b61082b610f85565b5f828152600460205260409020600181015460ff166108845760405162461bcd60e51b815260206004820152601560248201527450524f3a207365727669636520696e61637469766560581b6044820152606401610506565b6001810154610100900463ffffffff166108e05760405162461bcd60e51b815260206004820152601b60248201527f50524f3a2073657276696365206e6f7420636f6e6669677572656400000000006044820152606401610506565b6002546001600160a01b031615610a305760025460408051636dddd8bd60e11b815290515f926001600160a01b03169163dbbbb17a9160048083019260209291908290030181865afa158015610938573d5f803e3d5ffd5b505050506040513d601f19601f8201168201806040525081019061095c9190611231565b60025460405163f175250d60e01b81526004810187905233602482015260ff831660448201529192506001600160a01b03169063f175250d90606401602060405180830381865afa1580156109b3573d5f803e3d5ffd5b505050506040513d601f19601f820116820180604052508101906109d79190611251565b610a2e5760405162461bcd60e51b815260206004820152602260248201527f50524f3a20766f69636520636f6e73656e7420726571756972656420284c4750604482015261442960f01b6064820152608401610506565b505b5f610a3e6201518042611212565b60018301545f8681526006602090815260408083203384528252808320858452909152902054919250610100900463ffffffff1611610abf5760405162461bcd60e51b815260206004820181905260248201527f50524f3a206461696c792073657373696f6e206c696d697420726561636865646044820152606401610506565b60038054905f610ace8361126c565b909155506040805160c08101825233808252602080830189815267ffffffffffffffff4281168587019081525f606087018181528b546080890190815260a089018381528b8452600588528a842099518a546001600160a01b03919091166001600160a01b0319909116178a55955160018a0155925160028901805492518616600160401b026fffffffffffffffffffffffffffffffff199093169190951617179092555160038601559051600490940193909355888352600681528383209183529081528282208583529052908120805492955090610bad8361126c565b9091555050815415610bfe576001548254610bfe916001600160a01b037f00000000000000000000000000000000000000000000000000000000000000008116923392610100900490911690610fb3565b81546040519081523390859085907f60035d63bbab64b7308ea5d7545cab3580021a08473544c8a3325c541f4d100b9060200160405180910390a45050610c6460017f9b779b17422d0df92223018b32b4d1fa46e071723d6817e2486d003becc55f0055565b919050565b5f918252602082815260408084206001600160a01b0393909316845291905290205460ff1690565b5f610c9b81610dd0565b600280546001600160a01b038481166001600160a01b0319831681179093556040519116919082907f06d8a18a6765cd806b6d5c79b93278cae4f6498d6ef02f1276ef61037ca8453c905f90a3505050565b5f82815260208190526040902060010154610d0781610dd0565b6106418383610e69565b5f610d1b81610dd0565b6001600160a01b038216610d695760405162461bcd60e51b815260206004820152601560248201527450524f3a20696e76616c696420747265617375727960581b6044820152606401610506565b6001546040516001600160a01b0380851692610100900416907f4ab5be82436d353e61ca18726e984e561f5c1cc7c6d38b29d2553c790434705a905f90a350600180546001600160a01b0390921661010002610100600160a81b0319909216919091179055565b6107c08133610fe9565b5f610de58383610c69565b610e62575f838152602081815260408083206001600160a01b03861684529091529020805460ff19166001179055610e1a3390565b6001600160a01b0316826001600160a01b0316847f2f8788117e7eff1d82e926ec794901d17c78024a50270940304540a733656f0d60405160405180910390a4506001610479565b505f610479565b5f610e748383610c69565b15610e62575f838152602081815260408083206001600160a01b0386168085529252808320805460ff1916905551339286917ff6391f5c32d9c69d2a47ea670b442974b53935d1edc7fd64eb21e047a839171b9190a4506001610479565b610eda611026565b6001805460ff191690557f5db9ee0a495bf2e6ff9c91a7834c1ba4fdd244a5e8aa4e537bd38aeae4b073aa335b6040516001600160a01b03909116815260200160405180910390a1565b610f2c610f5f565b6001805460ff1916811790557f62e78cea01bee320cd4e420270b5ea74000d11b0c9f74754ebdbfc544b05a25833610f07565b60015460ff1615610f835760405163d93c066560e01b815260040160405180910390fd5b565b610f8d611049565b60027f9b779b17422d0df92223018b32b4d1fa46e071723d6817e2486d003becc55f0055565b610fc184848484600161108b565b61064157604051635274afe760e01b81526001600160a01b0385166004820152602401610506565b610ff38282610c69565b6110225760405163e2517d3f60e01b81526001600160a01b038216600482015260248101839052604401610506565b5050565b60015460ff16610f8357604051638dfc202b60e01b815260040160405180910390fd5b7f9b779b17422d0df92223018b32b4d1fa46e071723d6817e2486d003becc55f0054600203610f8357604051633ee5aeb560e01b815260040160405180910390fd5b6040516323b872dd60e01b5f8181526001600160a01b038781166004528616602452604485905291602083606481808c5af1925060015f511483166110e75783831516156110db573d5f823e3d81fd5b5f883b113d1516831692505b604052505f60605295945050505050565b5f60208284031215611108575f80fd5b81356001600160e01b03198116811461111f575f80fd5b9392505050565b5f8060408385031215611137575f80fd5b50508035926020909101359150565b5f60208284031215611156575f80fd5b5035919050565b80356001600160a01b0381168114610c64575f80fd5b5f8060408385031215611184575f80fd5b823591506111946020840161115d565b90509250929050565b80151581146107c0575f80fd5b5f805f80608085870312156111bd575f80fd5b843593506020850135925060408501356111d68161119d565b9150606085013563ffffffff811681146111ee575f80fd5b939692955090935050565b5f60208284031215611209575f80fd5b61111f8261115d565b5f8261122c57634e487b7160e01b5f52601260045260245ffd5b500490565b5f60208284031215611241575f80fd5b815160ff8116811461111f575f80fd5b5f60208284031215611261575f80fd5b815161111f8161119d565b5f6001820161128957634e487b7160e01b5f52601160045260245ffd5b506001019056fea26469706673582212207e695b034895fc36810d944b15e2d3945f65193af1d32782b5ce309a7bd7ed3b64736f6c63430008180033",
  "linkReferences": {},
  "deployedLinkReferences": {}
}