{"contracts/AvatarContractZero.sol":{"AvatarContractZero":{"abi":[{"inputs":[{"internalType":"address","name":"admin","type":"address"},{"internalType":"bytes32","name":"initialPolicyHash","type":"bytes32"},{"internalType":"bytes32","name":"initialVersionHash","type":"bytes32"}],"stateMutability":"nonpayable","type":"constructor"},{"inputs":[],"name":"AccessControlBadConfirmation","type":"error"},{"inputs":[{"internalType":"address","name":"account","type":"address"},{"internalType":"bytes32","name":"neededRole","type":"bytes32"}],"name":"AccessControlUnauthorizedAccount","type":"error"},{"anonymous":false,"inputs":[{"indexed":true,"internalType":"bytes32","name":"policyHash","type":"bytes32"},{"indexed":true,"internalType":"bytes32","name":"versionHash","type":"bytes32"},{"indexed":true,"internalType":"address","name":"operator","type":"address"}],"name":"PolicyAnchored","type":"event"},{"anonymous":false,"inputs":[{"indexed":true,"internalType":"bytes32","name":"role","type":"bytes32"},{"indexed":true,"internalType":"bytes32","name":"previousAdminRole","type":"bytes32"},{"indexed":true,"internalType":"bytes32","name":"newAdminRole","type":"bytes32"}],"name":"RoleAdminChanged","type":"event"},{"anonymous":false,"inputs":[{"indexed":true,"internalType":"bytes32","name":"role","type":"bytes32"},{"indexed":true,"internalType":"address","name":"account","type":"address"},{"indexed":true,"internalType":"address","name":"sender","type":"address"}],"name":"RoleGranted","type":"event"},{"anonymous":false,"inputs":[{"indexed":true,"internalType":"bytes32","name":"role","type":"bytes32"},{"indexed":true,"internalType":"address","name":"account","type":"address"},{"indexed":true,"internalType":"address","name":"sender","type":"address"}],"name":"RoleRevoked","type":"event"},{"inputs":[],"name":"CAT_CRIME","outputs":[{"internalType":"uint8","name":"","type":"uint8"}],"stateMutability":"view","type":"function"},{"inputs":[],"name":"CAT_FINANCIAL_FRAUD","outputs":[{"internalType":"uint8","name":"","type":"uint8"}],"stateMutability":"view","type":"function"},{"inputs":[],"name":"CAT_HATE_ABUSE","outputs":[{"internalType":"uint8","name":"","type":"uint8"}],"stateMutability":"view","type":"function"},{"inputs":[],"name":"CAT_ILLICIT_DRUGS","outputs":[{"internalType":"uint8","name":"","type":"uint8"}],"stateMutability":"view","type":"function"},{"inputs":[],"name":"CAT_SELF_HARM","outputs":[{"internalType":"uint8","name":"","type":"uint8"}],"stateMutability":"view","type":"function"},{"inputs":[],"name":"CAT_TERRORISM","outputs":[{"internalType":"uint8","name":"","type":"uint8"}],"stateMutability":"view","type":"function"},{"inputs":[],"name":"DEFAULT_ADMIN_ROLE","outputs":[{"internalType":"bytes32","name":"","type":"bytes32"}],"stateMutability":"view","type":"function"},{"inputs":[],"name":"POLICY_ADMIN_ROLE","outputs":[{"internalType":"bytes32","name":"","type":"bytes32"}],"stateMutability":"view","type":"function"},{"inputs":[],"name":"activePolicyHash","outputs":[{"internalType":"bytes32","name":"","type":"bytes32"}],"stateMutability":"view","type":"function"},{"inputs":[],"name":"activeVersionHash","outputs":[{"internalType":"bytes32","name":"","type":"bytes32"}],"stateMutability":"view","type":"function"},{"inputs":[{"internalType":"bytes32","name":"newPolicyHash","type":"bytes32"},{"internalType":"bytes32","name":"newVersionHash","type":"bytes32"}],"name":"anchorPolicy","outputs":[],"stateMutability":"nonpayable","type":"function"},{"inputs":[{"internalType":"bytes32","name":"role","type":"bytes32"}],"name":"getRoleAdmin","outputs":[{"internalType":"bytes32","name":"","type":"bytes32"}],"stateMutability":"view","type":"function"},{"inputs":[{"internalType":"bytes32","name":"role","type":"bytes32"},{"internalType":"address","name":"account","type":"address"}],"name":"grantRole","outputs":[],"stateMutability":"nonpayable","type":"function"},{"inputs":[{"internalType":"bytes32","name":"role","type":"bytes32"},{"internalType":"address","name":"account","type":"address"}],"name":"hasRole","outputs":[{"internalType":"bool","name":"","type":"bool"}],"stateMutability":"view","type":"function"},{"inputs":[{"internalType":"uint8","name":"category","type":"uint8"}],"name":"isProhibitedCategory","outputs":[{"internalType":"bool","name":"","type":"bool"}],"stateMutability":"pure","type":"function"},{"inputs":[{"internalType":"bytes32","name":"role","type":"bytes32"},{"internalType":"address","name":"callerConfirmation","type":"address"}],"name":"renounceRole","outputs":[],"stateMutability":"nonpayable","type":"function"},{"inputs":[{"internalType":"bytes32","name":"role","type":"bytes32"},{"internalType":"address","name":"account","type":"address"}],"name":"revokeRole","outputs":[],"stateMutability":"nonpayable","type":"function"},{"inputs":[{"internalType":"bytes4","name":"interfaceId","type":"bytes4"}],"name":"supportsInterface","outputs":[{"internalType":"bool","name":"","type":"bool"}],"stateMutability":"view","type":"function"}],"evm":{"bytecode":{"linkReferences":{},"object":"608060405234801561000f575f80fd5b5060405161096238038061096283398101604081905261002e91610240565b6001600160a01b03831661007d5760405162461bcd60e51b815260206004820152601160248201527021981d1034b73b30b634b21030b236b4b760791b60448201526064015b60405180910390fd5b816100ca5760405162461bcd60e51b815260206004820152601760248201527f43303a20696e76616c696420706f6c69637920686173680000000000000000006044820152606401610074565b806101175760405162461bcd60e51b815260206004820152601860248201527f43303a20696e76616c69642076657273696f6e206861736800000000000000006044820152606401610074565b6001829055600281905561012b5f84610197565b506101567face7350211ab645c1937904136ede4855ac3aa1eabb4970e1a51a335d2e1992084610197565b50826001600160a01b031681837fbb97925de4a989a8daf061270d3551df19d2ab30c21ae36a7be28038ef8f372760405160405180910390a450505061027f565b5f828152602081815260408083206001600160a01b038516845290915281205460ff16610237575f838152602081815260408083206001600160a01b03861684529091529020805460ff191660011790556101ef3390565b6001600160a01b0316826001600160a01b0316847f2f8788117e7eff1d82e926ec794901d17c78024a50270940304540a733656f0d60405160405180910390a450600161023a565b505f5b92915050565b5f805f60608486031215610252575f80fd5b83516001600160a01b0381168114610268575f80fd5b602085015160409095015190969495509392505050565b6106d68061028c5f395ff3fe608060405234801561000f575f80fd5b5060043610610111575f3560e01c80639d9811281161009e578063aaf57ef81161006e578063aaf57ef81461022f578063bc531e9c14610237578063d547741f14610240578063fc3f97dc14610253578063ff8dcd821461025b575f80fd5b80639d981128146101e6578063a17620c1146101f9578063a217fddf14610220578063a7df905a14610227575f80fd5b80632f2ff15d116100e45780632f2ff15d1461018957806336568abe1461019e578063420b3a04146101b15780637e64c042146101cb57806391d14854146101d3575f80fd5b806301ffc9a7146101155780630bb381f21461013d578063246ce79d14610150578063248a9ca314610167575b5f80fd5b6101286101233660046105e2565b610263565b60405190151581526020015b60405180910390f35b61012861014b366004610610565b610299565b61015960015481565b604051908152602001610134565b610159610175366004610630565b5f9081526020819052604090206001015490565b61019c610197366004610647565b6102ec565b005b61019c6101ac366004610647565b610316565b6101b9600481565b60405160ff9091168152602001610134565b6101b9600581565b6101286101e1366004610647565b61034e565b61019c6101f4366004610680565b610376565b6101597face7350211ab645c1937904136ede4855ac3aa1eabb4970e1a51a335d2e1992081565b6101595f81565b6101b9600281565b6101b9600181565b61015960025481565b61019c61024e366004610647565b61047c565b6101b9600681565b6101b9600381565b5f6001600160e01b03198216637965db0b60e01b148061029357506301ffc9a760e01b6001600160e01b03198316145b92915050565b5f60ff8216600114806102af575060ff82166002145b806102bd575060ff82166003145b806102cb575060ff82166004145b806102d9575060ff82166005145b80610293575060ff821660061492915050565b5f82815260208190526040902060010154610306816104a0565b61031083836104ad565b50505050565b6001600160a01b038116331461033f5760405163334bd91960e11b815260040160405180910390fd5b610349828261053c565b505050565b5f918252602082815260408084206001600160a01b0393909316845291905290205460ff1690565b7face7350211ab645c1937904136ede4855ac3aa1eabb4970e1a51a335d2e199206103a0816104a0565b826103f25760405162461bcd60e51b815260206004820152601760248201527f43303a20696e76616c696420706f6c696379206861736800000000000000000060448201526064015b60405180910390fd5b8161043f5760405162461bcd60e51b815260206004820152601860248201527f43303a20696e76616c69642076657273696f6e2068617368000000000000000060448201526064016103e9565b600183905560028290556040513390839085907fbb97925de4a989a8daf061270d3551df19d2ab30c21ae36a7be28038ef8f3727905f90a4505050565b5f82815260208190526040902060010154610496816104a0565b610310838361053c565b6104aa81336105a5565b50565b5f6104b8838361034e565b610535575f838152602081815260408083206001600160a01b03861684529091529020805460ff191660011790556104ed3390565b6001600160a01b0316826001600160a01b0316847f2f8788117e7eff1d82e926ec794901d17c78024a50270940304540a733656f0d60405160405180910390a4506001610293565b505f610293565b5f610547838361034e565b15610535575f838152602081815260408083206001600160a01b0386168085529252808320805460ff1916905551339286917ff6391f5c32d9c69d2a47ea670b442974b53935d1edc7fd64eb21e047a839171b9190a4506001610293565b6105af828261034e565b6105de5760405163e2517d3f60e01b81526001600160a01b0382166004820152602481018390526044016103e9565b5050565b5f602082840312156105f2575f80fd5b81356001600160e01b031981168114610609575f80fd5b9392505050565b5f60208284031215610620575f80fd5b813560ff81168114610609575f80fd5b5f60208284031215610640575f80fd5b5035919050565b5f8060408385031215610658575f80fd5b8235915060208301356001600160a01b0381168114610675575f80fd5b809150509250929050565b5f8060408385031215610691575f80fd5b5050803592602090910135915056fea26469706673582212202a70b147f16ded810b9ce30af81e27af7a75fc2aaa0f8dc2deb0a9d68cf4ee2a64736f6c63430008180033","opcodes":"PUSH1 0x80 PUSH1 0x40 MSTORE CALLVALUE DUP1 ISZERO PUSH2 0xF JUMPI PUSH0 DUP1 REVERT JUMPDEST POP PUSH1 0x40 MLOAD PUSH2 0x962 CODESIZE SUB DUP1 PUSH2 0x962 DUP4 CODECOPY DUP2 ADD PUSH1 0x40 DUP2 SWAP1 MSTORE PUSH2 0x2E SWAP2 PUSH2 0x240 JUMP JUMPDEST PUSH1 0x1 PUSH1 0x1 PUSH1 0xA0 SHL SUB DUP4 AND PUSH2 0x7D JUMPI PUSH1 0x40 MLOAD PUSH3 0x461BCD PUSH1 0xE5 SHL DUP2 MSTORE PUSH1 0x20 PUSH1 0x4 DUP3 ADD MSTORE PUSH1 0x11 PUSH1 0x24 DUP3 ADD MSTORE PUSH17 0x21981D1034B73B30B634B21030B236B4B7 PUSH1 0x79 SHL PUSH1 0x44 DUP3 ADD MSTORE PUSH1 0x64 ADD JUMPDEST PUSH1 0x40 MLOAD DUP1 SWAP2 SUB SWAP1 REVERT JUMPDEST DUP2 PUSH2 0xCA JUMPI PUSH1 0x40 MLOAD PUSH3 0x461BCD PUSH1 0xE5 SHL DUP2 MSTORE PUSH1 0x20 PUSH1 0x4 DUP3 ADD MSTORE PUSH1 0x17 PUSH1 0x24 DUP3 ADD MSTORE PUSH32 0x43303A20696E76616C696420706F6C6963792068617368000000000000000000 PUSH1 0x44 DUP3 ADD MSTORE PUSH1 0x64 ADD PUSH2 0x74 JUMP JUMPDEST DUP1 PUSH2 0x117 JUMPI PUSH1 0x40 MLOAD PUSH3 0x461BCD PUSH1 0xE5 SHL DUP2 MSTORE PUSH1 0x20 PUSH1 0x4 DUP3 ADD MSTORE PUSH1 0x18 PUSH1 0x24 DUP3 ADD MSTORE PUSH32 0x43303A20696E76616C69642076657273696F6E20686173680000000000000000 PUSH1 0x44 DUP3 ADD MSTORE PUSH1 0x64 ADD PUSH2 0x74 JUMP JUMPDEST PUSH1 0x1 DUP3 SWAP1 SSTORE PUSH1 0x2 DUP2 SWAP1 SSTORE PUSH2 0x12B PUSH0 DUP5 PUSH2 0x197 JUMP JUMPDEST POP PUSH2 0x156 PUSH32 0xACE7350211AB645C1937904136EDE4855AC3AA1EABB4970E1A51A335D2E19920 DUP5 PUSH2 0x197 JUMP JUMPDEST POP DUP3 PUSH1 0x1 PUSH1 0x1 PUSH1 0xA0 SHL SUB AND DUP2 DUP4 PUSH32 0xBB97925DE4A989A8DAF061270D3551DF19D2AB30C21AE36A7BE28038EF8F3727 PUSH1 0x40 MLOAD PUSH1 0x40 MLOAD DUP1 SWAP2 SUB SWAP1 LOG4 POP POP POP PUSH2 0x27F JUMP JUMPDEST PUSH0 DUP3 DUP2 MSTORE PUSH1 0x20 DUP2 DUP2 MSTORE PUSH1 0x40 DUP1 DUP4 KECCAK256 PUSH1 0x1 PUSH1 0x1 PUSH1 0xA0 SHL SUB DUP6 AND DUP5 MSTORE SWAP1 SWAP2 MSTORE DUP2 KECCAK256 SLOAD PUSH1 0xFF AND PUSH2 0x237 JUMPI PUSH0 DUP4 DUP2 MSTORE PUSH1 0x20 DUP2 DUP2 MSTORE PUSH1 0x40 DUP1 DUP4 KECCAK256 PUSH1 0x1 PUSH1 0x1 PUSH1 0xA0 SHL SUB DUP7 AND DUP5 MSTORE SWAP1 SWAP2 MSTORE SWAP1 KECCAK256 DUP1 SLOAD PUSH1 0xFF NOT AND PUSH1 0x1 OR SWAP1 SSTORE PUSH2 0x1EF CALLER SWAP1 JUMP JUMPDEST PUSH1 0x1 PUSH1 0x1 PUSH1 0xA0 SHL SUB AND DUP3 PUSH1 0x1 PUSH1 0x1 PUSH1 0xA0 SHL SUB AND DUP5 PUSH32 0x2F8788117E7EFF1D82E926EC794901D17C78024A50270940304540A733656F0D PUSH1 0x40 MLOAD PUSH1 0x40 MLOAD DUP1 SWAP2 SUB SWAP1 LOG4 POP PUSH1 0x1 PUSH2 0x23A JUMP JUMPDEST POP PUSH0 JUMPDEST SWAP3 SWAP2 POP POP JUMP JUMPDEST PUSH0 DUP1 PUSH0 PUSH1 0x60 DUP5 DUP7 SUB SLT ISZERO PUSH2 0x252 JUMPI PUSH0 DUP1 REVERT JUMPDEST DUP4 MLOAD PUSH1 0x1 PUSH1 0x1 PUSH1 0xA0 SHL SUB DUP2 AND DUP2 EQ PUSH2 0x268 JUMPI PUSH0 DUP1 REVERT JUMPDEST PUSH1 0x20 DUP6 ADD MLOAD PUSH1 0x40 SWAP1 SWAP6 ADD MLOAD SWAP1 SWAP7 SWAP5 SWAP6 POP SWAP4 SWAP3 POP POP POP JUMP JUMPDEST PUSH2 0x6D6 DUP1 PUSH2 0x28C PUSH0 CODECOPY PUSH0 RETURN INVALID PUSH1 0x80 PUSH1 0x40 MSTORE CALLVALUE DUP1 ISZERO PUSH2 0xF JUMPI PUSH0 DUP1 REVERT JUMPDEST POP PUSH1 0x4 CALLDATASIZE LT PUSH2 0x111 JUMPI PUSH0 CALLDATALOAD PUSH1 0xE0 SHR DUP1 PUSH4 0x9D981128 GT PUSH2 0x9E JUMPI DUP1 PUSH4 0xAAF57EF8 GT PUSH2 0x6E JUMPI DUP1 PUSH4 0xAAF57EF8 EQ PUSH2 0x22F JUMPI DUP1 PUSH4 0xBC531E9C EQ PUSH2 0x237 JUMPI DUP1 PUSH4 0xD547741F EQ PUSH2 0x240 JUMPI DUP1 PUSH4 0xFC3F97DC EQ PUSH2 0x253 JUMPI DUP1 PUSH4 0xFF8DCD82 EQ PUSH2 0x25B JUMPI PUSH0 DUP1 REVERT JUMPDEST DUP1 PUSH4 0x9D981128 EQ PUSH2 0x1E6 JUMPI DUP1 PUSH4 0xA17620C1 EQ PUSH2 0x1F9 JUMPI DUP1 PUSH4 0xA217FDDF EQ PUSH2 0x220 JUMPI DUP1 PUSH4 0xA7DF905A EQ PUSH2 0x227 JUMPI PUSH0 DUP1 REVERT JUMPDEST DUP1 PUSH4 0x2F2FF15D GT PUSH2 0xE4 JUMPI DUP1 PUSH4 0x2F2FF15D EQ PUSH2 0x189 JUMPI DUP1 PUSH4 0x36568ABE EQ PUSH2 0x19E JUMPI DUP1 PUSH4 0x420B3A04 EQ PUSH2 0x1B1 JUMPI DUP1 PUSH4 0x7E64C042 EQ PUSH2 0x1CB JUMPI DUP1 PUSH4 0x91D14854 EQ PUSH2 0x1D3 JUMPI PUSH0 DUP1 REVERT JUMPDEST DUP1 PUSH4 0x1FFC9A7 EQ PUSH2 0x115 JUMPI DUP1 PUSH4 0xBB381F2 EQ PUSH2 0x13D JUMPI DUP1 PUSH4 0x246CE79D EQ PUSH2 0x150 JUMPI DUP1 PUSH4 0x248A9CA3 EQ PUSH2 0x167 JUMPI JUMPDEST PUSH0 DUP1 REVERT JUMPDEST PUSH2 0x128 PUSH2 0x123 CALLDATASIZE PUSH1 0x4 PUSH2 0x5E2 JUMP JUMPDEST PUSH2 0x263 JUMP JUMPDEST PUSH1 0x40 MLOAD SWAP1 ISZERO ISZERO DUP2 MSTORE PUSH1 0x20 ADD JUMPDEST PUSH1 0x40 MLOAD DUP1 SWAP2 SUB SWAP1 RETURN JUMPDEST PUSH2 0x128 PUSH2 0x14B CALLDATASIZE PUSH1 0x4 PUSH2 0x610 JUMP JUMPDEST PUSH2 0x299 JUMP JUMPDEST PUSH2 0x159 PUSH1 0x1 SLOAD DUP2 JUMP JUMPDEST PUSH1 0x40 MLOAD SWAP1 DUP2 MSTORE PUSH1 0x20 ADD PUSH2 0x134 JUMP JUMPDEST PUSH2 0x159 PUSH2 0x175 CALLDATASIZE PUSH1 0x4 PUSH2 0x630 JUMP JUMPDEST PUSH0 SWAP1 DUP2 MSTORE PUSH1 0x20 DUP2 SWAP1 MSTORE PUSH1 0x40 SWAP1 KECCAK256 PUSH1 0x1 ADD SLOAD SWAP1 JUMP JUMPDEST PUSH2 0x19C PUSH2 0x197 CALLDATASIZE PUSH1 0x4 PUSH2 0x647 JUMP JUMPDEST PUSH2 0x2EC JUMP JUMPDEST STOP JUMPDEST PUSH2 0x19C PUSH2 0x1AC CALLDATASIZE PUSH1 0x4 PUSH2 0x647 JUMP JUMPDEST PUSH2 0x316 JUMP JUMPDEST PUSH2 0x1B9 PUSH1 0x4 DUP2 JUMP JUMPDEST PUSH1 0x40 MLOAD PUSH1 0xFF SWAP1 SWAP2 AND DUP2 MSTORE PUSH1 0x20 ADD PUSH2 0x134 JUMP JUMPDEST PUSH2 0x1B9 PUSH1 0x5 DUP2 JUMP JUMPDEST PUSH2 0x128 PUSH2 0x1E1 CALLDATASIZE PUSH1 0x4 PUSH2 0x647 JUMP JUMPDEST PUSH2 0x34E JUMP JUMPDEST PUSH2 0x19C PUSH2 0x1F4 CALLDATASIZE PUSH1 0x4 PUSH2 0x680 JUMP JUMPDEST PUSH2 0x376 JUMP JUMPDEST PUSH2 0x159 PUSH32 0xACE7350211AB645C1937904136EDE4855AC3AA1EABB4970E1A51A335D2E19920 DUP2 JUMP JUMPDEST PUSH2 0x159 PUSH0 DUP2 JUMP JUMPDEST PUSH2 0x1B9 PUSH1 0x2 DUP2 JUMP JUMPDEST PUSH2 0x1B9 PUSH1 0x1 DUP2 JUMP JUMPDEST PUSH2 0x159 PUSH1 0x2 SLOAD DUP2 JUMP JUMPDEST PUSH2 0x19C PUSH2 0x24E CALLDATASIZE PUSH1 0x4 PUSH2 0x647 JUMP JUMPDEST PUSH2 0x47C JUMP JUMPDEST PUSH2 0x1B9 PUSH1 0x6 DUP2 JUMP JUMPDEST PUSH2 0x1B9 PUSH1 0x3 DUP2 JUMP JUMPDEST PUSH0 PUSH1 0x1 PUSH1 0x1 PUSH1 0xE0 SHL SUB NOT DUP3 AND PUSH4 0x7965DB0B PUSH1 0xE0 SHL EQ DUP1 PUSH2 0x293 JUMPI POP PUSH4 0x1FFC9A7 PUSH1 0xE0 SHL PUSH1 0x1 PUSH1 0x1 PUSH1 0xE0 SHL SUB NOT DUP4 AND EQ JUMPDEST SWAP3 SWAP2 POP POP JUMP JUMPDEST PUSH0 PUSH1 0xFF DUP3 AND PUSH1 0x1 EQ DUP1 PUSH2 0x2AF JUMPI POP PUSH1 0xFF DUP3 AND PUSH1 0x2 EQ JUMPDEST DUP1 PUSH2 0x2BD JUMPI POP PUSH1 0xFF DUP3 AND PUSH1 0x3 EQ JUMPDEST DUP1 PUSH2 0x2CB JUMPI POP PUSH1 0xFF DUP3 AND PUSH1 0x4 EQ JUMPDEST DUP1 PUSH2 0x2D9 JUMPI POP PUSH1 0xFF DUP3 AND PUSH1 0x5 EQ JUMPDEST DUP1 PUSH2 0x293 JUMPI POP PUSH1 0xFF DUP3 AND PUSH1 0x6 EQ SWAP3 SWAP2 POP POP JUMP JUMPDEST PUSH0 DUP3 DUP2 MSTORE PUSH1 0x20 DUP2 SWAP1 MSTORE PUSH1 0x40 SWAP1 KECCAK256 PUSH1 0x1 ADD SLOAD PUSH2 0x306 DUP2 PUSH2 0x4A0 JUMP JUMPDEST PUSH2 0x310 DUP4 DUP4 PUSH2 0x4AD JUMP JUMPDEST POP POP POP POP JUMP JUMPDEST PUSH1 0x1 PUSH1 0x1 PUSH1 0xA0 SHL SUB DUP2 AND CALLER EQ PUSH2 0x33F JUMPI PUSH1 0x40 MLOAD PUSH4 0x334BD919 PUSH1 0xE1 SHL DUP2 MSTORE PUSH1 0x4 ADD PUSH1 0x40 MLOAD DUP1 SWAP2 SUB SWAP1 REVERT JUMPDEST PUSH2 0x349 DUP3 DUP3 PUSH2 0x53C JUMP JUMPDEST POP POP POP JUMP JUMPDEST PUSH0 SWAP2 DUP3 MSTORE PUSH1 0x20 DUP3 DUP2 MSTORE PUSH1 0x40 DUP1 DUP5 KECCAK256 PUSH1 0x1 PUSH1 0x1 PUSH1 0xA0 SHL SUB SWAP4 SWAP1 SWAP4 AND DUP5 MSTORE SWAP2 SWAP1 MSTORE SWAP1 KECCAK256 SLOAD PUSH1 0xFF AND SWAP1 JUMP JUMPDEST PUSH32 0xACE7350211AB645C1937904136EDE4855AC3AA1EABB4970E1A51A335D2E19920 PUSH2 0x3A0 DUP2 PUSH2 0x4A0 JUMP JUMPDEST DUP3 PUSH2 0x3F2 JUMPI PUSH1 0x40 MLOAD PUSH3 0x461BCD PUSH1 0xE5 SHL DUP2 MSTORE PUSH1 0x20 PUSH1 0x4 DUP3 ADD MSTORE PUSH1 0x17 PUSH1 0x24 DUP3 ADD MSTORE PUSH32 0x43303A20696E76616C696420706F6C6963792068617368000000000000000000 PUSH1 0x44 DUP3 ADD MSTORE PUSH1 0x64 ADD JUMPDEST PUSH1 0x40 MLOAD DUP1 SWAP2 SUB SWAP1 REVERT JUMPDEST DUP2 PUSH2 0x43F JUMPI PUSH1 0x40 MLOAD PUSH3 0x461BCD PUSH1 0xE5 SHL DUP2 MSTORE PUSH1 0x20 PUSH1 0x4 DUP3 ADD MSTORE PUSH1 0x18 PUSH1 0x24 DUP3 ADD MSTORE PUSH32 0x43303A20696E76616C69642076657273696F6E20686173680000000000000000 PUSH1 0x44 DUP3 ADD MSTORE PUSH1 0x64 ADD PUSH2 0x3E9 JUMP JUMPDEST PUSH1 0x1 DUP4 SWAP1 SSTORE PUSH1 0x2 DUP3 SWAP1 SSTORE PUSH1 0x40 MLOAD CALLER SWAP1 DUP4 SWAP1 DUP6 SWAP1 PUSH32 0xBB97925DE4A989A8DAF061270D3551DF19D2AB30C21AE36A7BE28038EF8F3727 SWAP1 PUSH0 SWAP1 LOG4 POP POP POP JUMP JUMPDEST PUSH0 DUP3 DUP2 MSTORE PUSH1 0x20 DUP2 SWAP1 MSTORE PUSH1 0x40 SWAP1 KECCAK256 PUSH1 0x1 ADD SLOAD PUSH2 0x496 DUP2 PUSH2 0x4A0 JUMP JUMPDEST PUSH2 0x310 DUP4 DUP4 PUSH2 0x53C JUMP JUMPDEST PUSH2 0x4AA DUP2 CALLER PUSH2 0x5A5 JUMP JUMPDEST POP JUMP JUMPDEST PUSH0 PUSH2 0x4B8 DUP4 DUP4 PUSH2 0x34E JUMP JUMPDEST PUSH2 0x535 JUMPI PUSH0 DUP4 DUP2 MSTORE PUSH1 0x20 DUP2 DUP2 MSTORE PUSH1 0x40 DUP1 DUP4 KECCAK256 PUSH1 0x1 PUSH1 0x1 PUSH1 0xA0 SHL SUB DUP7 AND DUP5 MSTORE SWAP1 SWAP2 MSTORE SWAP1 KECCAK256 DUP1 SLOAD PUSH1 0xFF NOT AND PUSH1 0x1 OR SWAP1 SSTORE PUSH2 0x4ED CALLER SWAP1 JUMP JUMPDEST PUSH1 0x1 PUSH1 0x1 PUSH1 0xA0 SHL SUB AND DUP3 PUSH1 0x1 PUSH1 0x1 PUSH1 0xA0 SHL SUB AND DUP5 PUSH32 0x2F8788117E7EFF1D82E926EC794901D17C78024A50270940304540A733656F0D PUSH1 0x40 MLOAD PUSH1 0x40 MLOAD DUP1 SWAP2 SUB SWAP1 LOG4 POP PUSH1 0x1 PUSH2 0x293 JUMP JUMPDEST POP PUSH0 PUSH2 0x293 JUMP JUMPDEST PUSH0 PUSH2 0x547 DUP4 DUP4 PUSH2 0x34E JUMP JUMPDEST ISZERO PUSH2 0x535 JUMPI PUSH0 DUP4 DUP2 MSTORE PUSH1 0x20 DUP2 DUP2 MSTORE PUSH1 0x40 DUP1 DUP4 KECCAK256 PUSH1 0x1 PUSH1 0x1 PUSH1 0xA0 SHL SUB DUP7 AND DUP1 DUP6 MSTORE SWAP3 MSTORE DUP1 DUP4 KECCAK256 DUP1 SLOAD PUSH1 0xFF NOT AND SWAP1 SSTORE MLOAD CALLER SWAP3 DUP7 SWAP2 PUSH32 0xF6391F5C32D9C69D2A47EA670B442974B53935D1EDC7FD64EB21E047A839171B SWAP2 SWAP1 LOG4 POP PUSH1 0x1 PUSH2 0x293 JUMP JUMPDEST PUSH2 0x5AF DUP3 DUP3 PUSH2 0x34E JUMP JUMPDEST PUSH2 0x5DE JUMPI PUSH1 0x40 MLOAD PUSH4 0xE2517D3F PUSH1 0xE0 SHL DUP2 MSTORE PUSH1 0x1 PUSH1 0x1 PUSH1 0xA0 SHL SUB DUP3 AND PUSH1 0x4 DUP3 ADD MSTORE PUSH1 0x24 DUP2 ADD DUP4 SWAP1 MSTORE PUSH1 0x44 ADD PUSH2 0x3E9 JUMP JUMPDEST POP POP JUMP JUMPDEST PUSH0 PUSH1 0x20 DUP3 DUP5 SUB SLT ISZERO PUSH2 0x5F2 JUMPI PUSH0 DUP1 REVERT JUMPDEST DUP2 CALLDATALOAD PUSH1 0x1 PUSH1 0x1 PUSH1 0xE0 SHL SUB NOT DUP2 AND DUP2 EQ PUSH2 0x609 JUMPI PUSH0 DUP1 REVERT JUMPDEST SWAP4 SWAP3 POP POP POP JUMP JUMPDEST PUSH0 PUSH1 0x20 DUP3 DUP5 SUB SLT ISZERO PUSH2 0x620 JUMPI PUSH0 DUP1 REVERT JUMPDEST DUP2 CALLDATALOAD PUSH1 0xFF DUP2 AND DUP2 EQ PUSH2 0x609 JUMPI PUSH0 DUP1 REVERT JUMPDEST PUSH0 PUSH1 0x20 DUP3 DUP5 SUB SLT ISZERO PUSH2 0x640 JUMPI PUSH0 DUP1 REVERT JUMPDEST POP CALLDATALOAD SWAP2 SWAP1 POP JUMP JUMPDEST PUSH0 DUP1 PUSH1 0x40 DUP4 DUP6 SUB SLT ISZERO PUSH2 0x658 JUMPI PUSH0 DUP1 REVERT JUMPDEST DUP3 CALLDATALOAD SWAP2 POP PUSH1 0x20 DUP4 ADD CALLDATALOAD PUSH1 0x1 PUSH1 0x1 PUSH1 0xA0 SHL SUB DUP2 AND DUP2 EQ PUSH2 0x675 JUMPI PUSH0 DUP1 REVERT JUMPDEST DUP1 SWAP2 POP POP SWAP3 POP SWAP3 SWAP1 POP JUMP JUMPDEST PUSH0 DUP1 PUSH1 0x40 DUP4 DUP6 SUB SLT ISZERO PUSH2 0x691 JUMPI PUSH0 DUP1 REVERT JUMPDEST POP POP DUP1 CALLDATALOAD SWAP3 PUSH1 0x20 SWAP1 SWAP2 ADD CALLDATALOAD SWAP2 POP JUMP INVALID LOG2 PUSH5 0x6970667358 0x22 SLT KECCAK256 0x2A PUSH17 0xB147F16DED810B9CE30AF81E27AF7A75FC 0x2A 0xAA 0xF DUP14 0xC2 0xDE 0xB0 0xA9 0xD6 DUP13 DELEGATECALL 0xEE 0x2A PUSH5 0x736F6C6343 STOP ADDMOD XOR STOP CALLER "},"methodIdentifiers":{"CAT_CRIME()":"aaf57ef8","CAT_FINANCIAL_FRAUD()":"7e64c042","CAT_HATE_ABUSE()":"fc3f97dc","CAT_ILLICIT_DRUGS()":"420b3a04","CAT_SELF_HARM()":"a7df905a","CAT_TERRORISM()":"ff8dcd82","DEFAULT_ADMIN_ROLE()":"a217fddf","POLICY_ADMIN_ROLE()":"a17620c1","activePolicyHash()":"246ce79d","activeVersionHash()":"bc531e9c","anchorPolicy(bytes32,bytes32)":"9d981128","getRoleAdmin(bytes32)":"248a9ca3","grantRole(bytes32,address)":"2f2ff15d","hasRole(bytes32,address)":"91d14854","isProhibitedCategory(uint8)":"0bb381f2","renounceRole(bytes32,address)":"36568abe","revokeRole(bytes32,address)":"d547741f","supportsInterface(bytes4)":"01ffc9a7"}}}}}