{"contracts/AvatarPro.sol":{"AvatarPro":{"abi":[{"inputs":[{"internalType":"address","name":"tokenAddress","type":"address"},{"internalType":"address","name":"treasuryAddress","type":"address"},{"internalType":"address","name":"admin","type":"address"}],"stateMutability":"nonpayable","type":"constructor"},{"inputs":[],"name":"AccessControlBadConfirmation","type":"error"},{"inputs":[{"internalType":"address","name":"account","type":"address"},{"internalType":"bytes32","name":"neededRole","type":"bytes32"}],"name":"AccessControlUnauthorizedAccount","type":"error"},{"inputs":[],"name":"EnforcedPause","type":"error"},{"inputs":[],"name":"ExpectedPause","type":"error"},{"inputs":[],"name":"ReentrancyGuardReentrantCall","type":"error"},{"inputs":[{"internalType":"address","name":"token","type":"address"}],"name":"SafeERC20FailedOperation","type":"error"},{"anonymous":false,"inputs":[{"indexed":true,"internalType":"uint256","name":"avatarId","type":"uint256"},{"indexed":true,"internalType":"enum AvatarPro.UsabilityPlan","name":"requiredPlan","type":"uint8"},{"indexed":true,"internalType":"address","name":"operator","type":"address"}],"name":"AvatarRequiredPlanUpdated","type":"event"},{"anonymous":false,"inputs":[{"indexed":true,"internalType":"address","name":"oldRegistry","type":"address"},{"indexed":true,"internalType":"address","name":"newRegistry","type":"address"}],"name":"ConsentRegistryUpdated","type":"event"},{"anonymous":false,"inputs":[{"indexed":true,"internalType":"bytes32","name":"contractZeroHash","type":"bytes32"},{"indexed":true,"internalType":"bytes32","name":"contractZeroVersionHash","type":"bytes32"},{"indexed":true,"internalType":"address","name":"operator","type":"address"}],"name":"ContractZeroAnchored","type":"event"},{"anonymous":false,"inputs":[{"indexed":false,"internalType":"address","name":"account","type":"address"}],"name":"Paused","type":"event"},{"anonymous":false,"inputs":[{"indexed":true,"internalType":"bool","name":"enabled","type":"bool"},{"indexed":true,"internalType":"address","name":"operator","type":"address"}],"name":"PlanAcceptanceEnforcementUpdated","type":"event"},{"anonymous":false,"inputs":[{"indexed":true,"internalType":"bytes32","name":"role","type":"bytes32"},{"indexed":true,"internalType":"bytes32","name":"previousAdminRole","type":"bytes32"},{"indexed":true,"internalType":"bytes32","name":"newAdminRole","type":"bytes32"}],"name":"RoleAdminChanged","type":"event"},{"anonymous":false,"inputs":[{"indexed":true,"internalType":"bytes32","name":"role","type":"bytes32"},{"indexed":true,"internalType":"address","name":"account","type":"address"},{"indexed":true,"internalType":"address","name":"sender","type":"address"}],"name":"RoleGranted","type":"event"},{"anonymous":false,"inputs":[{"indexed":true,"internalType":"bytes32","name":"role","type":"bytes32"},{"indexed":true,"internalType":"address","name":"account","type":"address"},{"indexed":true,"internalType":"address","name":"sender","type":"address"}],"name":"RoleRevoked","type":"event"},{"anonymous":false,"inputs":[{"indexed":true,"internalType":"uint256","name":"avatarId","type":"uint256"},{"indexed":false,"internalType":"uint256","name":"pricePerSession","type":"uint256"},{"indexed":false,"internalType":"bool","name":"isActive","type":"bool"},{"indexed":false,"internalType":"uint32","name":"maxSessionsPerDay","type":"uint32"}],"name":"ServiceConfigured","type":"event"},{"anonymous":false,"inputs":[{"indexed":true,"internalType":"uint256","name":"sessionId","type":"uint256"},{"indexed":false,"internalType":"bytes32","name":"sessionDataHash","type":"bytes32"},{"indexed":true,"internalType":"address","name":"operator","type":"address"}],"name":"SessionFinalized","type":"event"},{"anonymous":false,"inputs":[{"indexed":true,"internalType":"uint256","name":"sessionId","type":"uint256"},{"indexed":true,"internalType":"uint256","name":"avatarId","type":"uint256"},{"indexed":true,"internalType":"address","name":"user","type":"address"},{"indexed":false,"internalType":"uint256","name":"amountPaid","type":"uint256"}],"name":"SessionRequested","type":"event"},{"anonymous":false,"inputs":[{"indexed":true,"internalType":"address","name":"oldTreasury","type":"address"},{"indexed":true,"internalType":"address","name":"newTreasury","type":"address"}],"name":"TreasuryUpdated","type":"event"},{"anonymous":false,"inputs":[{"indexed":false,"internalType":"address","name":"account","type":"address"}],"name":"Unpaused","type":"event"},{"anonymous":false,"inputs":[{"indexed":true,"internalType":"address","name":"user","type":"address"},{"indexed":true,"internalType":"enum AvatarPro.UsabilityPlan","name":"plan","type":"uint8"},{"indexed":true,"internalType":"bytes32","name":"termsHash","type":"bytes32"},{"indexed":false,"internalType":"uint64","name":"acceptedAt","type":"uint64"}],"name":"UserPlanAccepted","type":"event"},{"anonymous":false,"inputs":[{"indexed":true,"internalType":"address","name":"user","type":"address"},{"indexed":true,"internalType":"enum AvatarPro.UsabilityPlan","name":"plan","type":"uint8"},{"indexed":false,"internalType":"uint64","name":"revokedAt","type":"uint64"}],"name":"UserPlanRevoked","type":"event"},{"inputs":[],"name":"DEFAULT_ADMIN_ROLE","outputs":[{"internalType":"bytes32","name":"","type":"bytes32"}],"stateMutability":"view","type":"function"},{"inputs":[],"name":"PRICE_SETTER_ROLE","outputs":[{"internalType":"bytes32","name":"","type":"bytes32"}],"stateMutability":"view","type":"function"},{"inputs":[],"name":"SESSION_MANAGER_ROLE","outputs":[{"internalType":"bytes32","name":"","type":"bytes32"}],"stateMutability":"view","type":"function"},{"inputs":[{"internalType":"enum AvatarPro.UsabilityPlan","name":"plan","type":"uint8"},{"internalType":"bytes32","name":"termsHash","type":"bytes32"}],"name":"acceptUsabilityPlan","outputs":[],"stateMutability":"nonpayable","type":"function"},{"inputs":[{"internalType":"bytes32","name":"newContractZeroHash","type":"bytes32"},{"internalType":"bytes32","name":"newContractZeroVersionHash","type":"bytes32"}],"name":"anchorContractZero","outputs":[],"stateMutability":"nonpayable","type":"function"},{"inputs":[{"internalType":"uint256","name":"avatarId","type":"uint256"},{"internalType":"uint256","name":"pricePerSession","type":"uint256"},{"internalType":"bool","name":"isActive","type":"bool"},{"internalType":"uint32","name":"maxSessionsPerDay","type":"uint32"}],"name":"configureService","outputs":[],"stateMutability":"nonpayable","type":"function"},{"inputs":[],"name":"consentRegistry","outputs":[{"internalType":"address","name":"","type":"address"}],"stateMutability":"view","type":"function"},{"inputs":[],"name":"contractZeroHash","outputs":[{"internalType":"bytes32","name":"","type":"bytes32"}],"stateMutability":"view","type":"function"},{"inputs":[],"name":"contractZeroVersionHash","outputs":[{"internalType":"bytes32","name":"","type":"bytes32"}],"stateMutability":"view","type":"function"},{"inputs":[],"name":"enforcePlanAcceptance","outputs":[{"internalType":"bool","name":"","type":"bool"}],"stateMutability":"view","type":"function"},{"inputs":[{"internalType":"uint256","name":"sessionId","type":"uint256"},{"internalType":"bytes32","name":"sessionDataHash","type":"bytes32"}],"name":"finalizeSession","outputs":[],"stateMutability":"nonpayable","type":"function"},{"inputs":[{"internalType":"uint256","name":"avatarId","type":"uint256"},{"internalType":"address","name":"user","type":"address"}],"name":"getDailyCount","outputs":[{"internalType":"uint256","name":"","type":"uint256"}],"stateMutability":"view","type":"function"},{"inputs":[{"internalType":"bytes32","name":"role","type":"bytes32"}],"name":"getRoleAdmin","outputs":[{"internalType":"bytes32","name":"","type":"bytes32"}],"stateMutability":"view","type":"function"},{"inputs":[{"internalType":"bytes32","name":"role","type":"bytes32"},{"internalType":"address","name":"account","type":"address"}],"name":"grantRole","outputs":[],"stateMutability":"nonpayable","type":"function"},{"inputs":[{"internalType":"uint256","name":"avatarId","type":"uint256"},{"internalType":"address","name":"user","type":"address"}],"name":"hasRequiredPlan","outputs":[{"internalType":"bool","name":"","type":"bool"}],"stateMutability":"view","type":"function"},{"inputs":[{"internalType":"bytes32","name":"role","type":"bytes32"},{"internalType":"address","name":"account","type":"address"}],"name":"hasRole","outputs":[{"internalType":"bool","name":"","type":"bool"}],"stateMutability":"view","type":"function"},{"inputs":[],"name":"pause","outputs":[],"stateMutability":"nonpayable","type":"function"},{"inputs":[],"name":"paused","outputs":[{"internalType":"bool","name":"","type":"bool"}],"stateMutability":"view","type":"function"},{"inputs":[{"internalType":"bytes32","name":"role","type":"bytes32"},{"internalType":"address","name":"callerConfirmation","type":"address"}],"name":"renounceRole","outputs":[],"stateMutability":"nonpayable","type":"function"},{"inputs":[{"internalType":"uint256","name":"avatarId","type":"uint256"}],"name":"requestSession","outputs":[{"internalType":"uint256","name":"sessionId","type":"uint256"}],"stateMutability":"nonpayable","type":"function"},{"inputs":[{"internalType":"uint256","name":"","type":"uint256"}],"name":"requiredPlanByAvatar","outputs":[{"internalType":"enum AvatarPro.UsabilityPlan","name":"","type":"uint8"}],"stateMutability":"view","type":"function"},{"inputs":[],"name":"revokeOwnPlanAcceptance","outputs":[],"stateMutability":"nonpayable","type":"function"},{"inputs":[{"internalType":"bytes32","name":"role","type":"bytes32"},{"internalType":"address","name":"account","type":"address"}],"name":"revokeRole","outputs":[],"stateMutability":"nonpayable","type":"function"},{"inputs":[{"internalType":"uint256","name":"","type":"uint256"}],"name":"serviceConfigs","outputs":[{"internalType":"uint256","name":"pricePerSession","type":"uint256"},{"internalType":"bool","name":"isActive","type":"bool"},{"internalType":"uint32","name":"maxSessionsPerDay","type":"uint32"}],"stateMutability":"view","type":"function"},{"inputs":[],"name":"sessionCount","outputs":[{"internalType":"uint256","name":"","type":"uint256"}],"stateMutability":"view","type":"function"},{"inputs":[{"internalType":"uint256","name":"","type":"uint256"}],"name":"sessions","outputs":[{"internalType":"address","name":"user","type":"address"},{"internalType":"uint256","name":"avatarId","type":"uint256"},{"internalType":"uint64","name":"startTime","type":"uint64"},{"internalType":"uint64","name":"endTime","type":"uint64"},{"internalType":"uint256","name":"amountPaid","type":"uint256"},{"internalType":"bytes32","name":"sessionDataHash","type":"bytes32"}],"stateMutability":"view","type":"function"},{"inputs":[{"internalType":"uint256","name":"avatarId","type":"uint256"},{"internalType":"enum AvatarPro.UsabilityPlan","name":"requiredPlan","type":"uint8"}],"name":"setAvatarRequiredPlan","outputs":[],"stateMutability":"nonpayable","type":"function"},{"inputs":[{"internalType":"address","name":"newRegistry","type":"address"}],"name":"setConsentRegistry","outputs":[],"stateMutability":"nonpayable","type":"function"},{"inputs":[{"internalType":"bool","name":"enabled","type":"bool"}],"name":"setPlanAcceptanceEnforcement","outputs":[],"stateMutability":"nonpayable","type":"function"},{"inputs":[{"internalType":"address","name":"newTreasury","type":"address"}],"name":"setTreasury","outputs":[],"stateMutability":"nonpayable","type":"function"},{"inputs":[],"name":"sglToken","outputs":[{"internalType":"contract IERC20","name":"","type":"address"}],"stateMutability":"view","type":"function"},{"inputs":[{"internalType":"bytes4","name":"interfaceId","type":"bytes4"}],"name":"supportsInterface","outputs":[{"internalType":"bool","name":"","type":"bool"}],"stateMutability":"view","type":"function"},{"inputs":[],"name":"treasury","outputs":[{"internalType":"address","name":"","type":"address"}],"stateMutability":"view","type":"function"},{"inputs":[],"name":"unpause","outputs":[],"stateMutability":"nonpayable","type":"function"},{"inputs":[{"internalType":"address","name":"","type":"address"}],"name":"userPlanAcceptance","outputs":[{"internalType":"enum AvatarPro.UsabilityPlan","name":"plan","type":"uint8"},{"internalType":"uint64","name":"acceptedAt","type":"uint64"},{"internalType":"bytes32","name":"termsHash","type":"bytes32"},{"internalType":"bool","name":"active","type":"bool"}],"stateMutability":"view","type":"function"}],"evm":{"bytecode":{"linkReferences":{},"object":"60a060405234801562000010575f80fd5b5060405162001f3938038062001f398339810160408190526200003391620002b1565b60017f9b779b17422d0df92223018b32b4d1fa46e071723d6817e2486d003becc55f00556001600160a01b038316620000a85760405162461bcd60e51b81526020600482015260126024820152712829279d1034b73b30b634b2103a37b5b2b760711b60448201526064015b60405180910390fd5b6001600160a01b038216620001005760405162461bcd60e51b815260206004820152601560248201527f50524f3a20696e76616c6964207472656173757279000000000000000000000060448201526064016200009f565b6001600160a01b0381166200014d5760405162461bcd60e51b81526020600482015260126024820152712829279d1034b73b30b634b21030b236b4b760711b60448201526064016200009f565b6001600160a01b038084166080526001805491841661010002610100600160a81b0319909216919091179055620001855f82620001e9565b50620001b27f122d99bbd8aa87efcb1a1fbbaa2dac9d0debfd0c247df39e9646730c715d4c5f82620001e9565b50620001df7f04824fcb60e7cc526d70b264caa65b62ed44d9c8e5d230e8ff6b0c7373843b8a82620001e9565b50505050620002f8565b5f828152602081815260408083206001600160a01b038516845290915281205460ff166200028c575f838152602081815260408083206001600160a01b03861684529091529020805460ff19166001179055620002433390565b6001600160a01b0316826001600160a01b0316847f2f8788117e7eff1d82e926ec794901d17c78024a50270940304540a733656f0d60405160405180910390a45060016200028f565b505f5b92915050565b80516001600160a01b0381168114620002ac575f80fd5b919050565b5f805f60608486031215620002c4575f80fd5b620002cf8462000295565b9250620002df6020850162000295565b9150620002ef6040850162000295565b90509250925092565b608051611c21620003185f395f81816103a3015261106e0152611c215ff3fe608060405234801561000f575f80fd5b5060043610610208575f3560e01c80638456cb591161011f578063bcd1526e116100a9578063db89cf5b11610079578063db89cf5b1461059e578063ef998fe3146105b1578063f00acbaa146105c4578063f0f44260146105eb578063f16d2367146105fe575f80fd5b8063bcd1526e14610562578063be88282414610575578063d547741f14610582578063d6872b5114610595575f80fd5b80639fc1d353116100ef5780639fc1d353146104d6578063a217fddf1461052d578063a29a90cd14610534578063a762576a14610547578063afff59c11461055a575f80fd5b80638456cb591461049557806385addbea1461049d5780638e66fcb5146104b057806391d14854146104c3575f80fd5b80633f4ba83a116101a057806361d027b31161017057806361d027b31461036e57806362b24ea21461039e5780636a4f1c23146103c557806373cd8336146103ec57806383c4b7a3146103f5575f80fd5b80633f4ba83a146102f457806340b0b3e1146102fc57806350058aea1461030f5780635c975abb14610363575f80fd5b8063248a9ca3116101db578063248a9ca31461028b5780632f2ff15d146102bb57806336568abe146102ce5780633f32f904146102e1575f80fd5b806301ffc9a71461020c5780631266861e146102345780631e6fb0831461024957806323813db914610278575b5f80fd5b61021f61021a36600461196a565b610607565b60405190151581526020015b60405180910390f35b610247610242366004611998565b61063d565b005b61026b6102573660046119b8565b60086020525f908152604090205460ff1681565b60405161022b9190611a03565b61021f610286366004611a27565b6107db565b6102ad6102993660046119b8565b5f9081526020819052604090206001015490565b60405190815260200161022b565b6102476102c9366004611a27565b610874565b6102476102dc366004611a27565b61089e565b6102476102ef366004611a5e565b6108d6565b610247610a05565b61024761030a366004611998565b610a1a565b61035361031d366004611aad565b600b6020525f908152604090208054600182015460029092015460ff8083169361010090930467ffffffffffffffff1692911684565b60405161022b9493929190611ac6565b60015460ff1661021f565b6001546103869061010090046001600160a01b031681565b6040516001600160a01b03909116815260200161022b565b6103867f000000000000000000000000000000000000000000000000000000000000000081565b6102ad7f122d99bbd8aa87efcb1a1fbbaa2dac9d0debfd0c247df39e9646730c715d4c5f81565b6102ad60035481565b6104506104033660046119b8565b60096020525f9081526040902080546001820154600283015460038401546004909401546001600160a01b0390931693919267ffffffffffffffff80831693600160401b90930416919086565b604080516001600160a01b039097168752602087019590955267ffffffffffffffff9384169486019490945291166060840152608083015260a082015260c00161022b565b610247610afb565b6102ad6104ab366004611a27565b610b0d565b6102ad6104be3660046119b8565b610b52565b61021f6104d1366004611a27565b61110b565b61050c6104e43660046119b8565b60076020525f90815260409020805460019091015460ff811690610100900463ffffffff1683565b60408051938452911515602084015263ffffffff169082015260600161022b565b6102ad5f81565b610247610542366004611b09565b611133565b610247610555366004611aad565b61122e565b61024761128a565b610247610570366004611b2a565b611350565b60045461021f9060ff1681565b610247610590366004611a27565b61139a565b6102ad60055481565b600254610386906001600160a01b031681565b6102476105bf366004611b45565b6113be565b6102ad7f04824fcb60e7cc526d70b264caa65b62ed44d9c8e5d230e8ff6b0c7373843b8a81565b6102476105f9366004611aad565b611583565b6102ad60065481565b5f6001600160e01b03198216637965db0b60e01b148061063757506301ffc9a760e01b6001600160e01b03198316145b92915050565b7f122d99bbd8aa87efcb1a1fbbaa2dac9d0debfd0c247df39e9646730c715d4c5f61066781611642565b5f838152600960205260409020600281015467ffffffffffffffff166106cd5760405162461bcd60e51b8152602060048201526016602482015275141493ce881cd95cdcda5bdb881b9bdd08199bdd5b9960521b60448201526064015b60405180910390fd5b6002810154600160401b900467ffffffffffffffff16156107295760405162461bcd60e51b8152602060048201526016602482015275141493ce88185b1c9958591e48199a5b985b1a5e995960521b60448201526064016106c4565b8261076a5760405162461bcd60e51b81526020600482015260116024820152700a0a49e7440d2dcecc2d8d2c840d0c2e6d607b1b60448201526064016106c4565b6002810180546fffffffffffffffff00000000000000001916600160401b4267ffffffffffffffff160217905560048101839055604051838152339085907f709c8a4455d05bd0ba7466b14198fb626db214ff0ca4e54d78c08869d9fe16139060200160405180910390a350505050565b5f8281526008602052604081205460ff16818160038111156107ff576107ff6119cf565b0361080d575f915050610637565b6001600160a01b0383165f908152600b60205260409020600281015460ff1661083a575f92505050610637565b81600381111561084c5761084c6119cf565b815460ff91821691166003811115610866576108666119cf565b60ff16101595945050505050565b5f8281526020819052604090206001015461088e81611642565b610898838361164c565b50505050565b6001600160a01b03811633146108c75760405163334bd91960e11b815260040160405180910390fd5b6108d182826116db565b505050565b7f04824fcb60e7cc526d70b264caa65b62ed44d9c8e5d230e8ff6b0c7373843b8a61090081611642565b5f8263ffffffff16116109555760405162461bcd60e51b815260206004820152601860248201527f50524f3a20696e76616c6964206461696c79206c696d6974000000000000000060448201526064016106c4565b6040805160608082018352868252851515602080840182815263ffffffff8881168688018181525f8e81526007865289902097518855925160019097018054935164ffffffffff1990941697151564ffffffff001916979097176101009390921692909202179094558451898152908101919091529283019190915286917ffa1bad519983d507a5eb2b46a5fa4abd393363a208cf9a8d3c80ce8a0f4842ae910160405180910390a25050505050565b5f610a0f81611642565b610a17611744565b50565b5f610a2481611642565b82610a715760405162461bcd60e51b815260206004820152601f60248201527f50524f3a20696e76616c696420636f6e7472616374207a65726f20686173680060448201526064016106c4565b81610abe5760405162461bcd60e51b815260206004820152601960248201527f50524f3a20696e76616c69642076657273696f6e20686173680000000000000060448201526064016106c4565b600583905560068290556040513390839085907f6547ff01c2341e207004ef0dfccf47b5be644a1b415f3b7a2bc22c46aa375b84905f90a4505050565b5f610b0581611642565b610a17611796565b5f828152600a602090815260408083206001600160a01b0385168452909152812081610b3c6201518042611b6d565b81526020019081526020015f2054905092915050565b5f610b5b6117d1565b610b636117f7565b5f828152600760205260409020600181015460ff16610bbc5760405162461bcd60e51b815260206004820152601560248201527450524f3a207365727669636520696e61637469766560581b60448201526064016106c4565b6001810154610100900463ffffffff16610c185760405162461bcd60e51b815260206004820152601b60248201527f50524f3a2073657276696365206e6f7420636f6e66696775726564000000000060448201526064016106c4565b6002546001600160a01b031615610d685760025460408051636dddd8bd60e11b815290515f926001600160a01b03169163dbbbb17a9160048083019260209291908290030181865afa158015610c70573d5f803e3d5ffd5b505050506040513d601f19601f82011682018060405250810190610c949190611b8c565b60025460405163f175250d60e01b81526004810187905233602482015260ff831660448201529192506001600160a01b03169063f175250d90606401602060405180830381865afa158015610ceb573d5f803e3d5ffd5b505050506040513d601f19601f82011682018060405250810190610d0f9190611bac565b610d665760405162461bcd60e51b815260206004820152602260248201527f50524f3a20766f69636520636f6e73656e7420726571756972656420284c4750604482015261442960f01b60648201526084016106c4565b505b5f610d766201518042611b6d565b60018301545f868152600a602090815260408083203384528252808320858452909152902054919250610100900463ffffffff1611610df75760405162461bcd60e51b815260206004820181905260248201527f50524f3a206461696c792073657373696f6e206c696d6974207265616368656460448201526064016106c4565b60045460ff1615610f6157335f908152600b60209081526040808320878452600890925290912054600282015460ff9182169116610e775760405162461bcd60e51b815260206004820152601d60248201527f50524f3a20706c616e20616363657074616e636520726571756972656400000060448201526064016106c4565b5f816003811115610e8a57610e8a6119cf565b03610ee15760405162461bcd60e51b815260206004820152602160248201527f50524f3a20726571756972656420706c616e206e6f7420636f6e6669677572656044820152601960fa1b60648201526084016106c4565b806003811115610ef357610ef36119cf565b825460ff91821691166003811115610f0d57610f0d6119cf565b60ff161015610f5e5760405162461bcd60e51b815260206004820181905260248201527f50524f3a20696e73756666696369656e742075736162696c69747920706c616e60448201526064016106c4565b50505b60038054905f610f7083611bc7565b909155506040805160c08101825233808252602080830189815267ffffffffffffffff4281168587019081525f606087018181528b546080890190815260a089018381528b8452600988528a842099518a546001600160a01b03919091166001600160a01b0319909116178a55955160018a0155925160028901805492518616600160401b026fffffffffffffffffffffffffffffffff199093169190951617179092555160038601559051600490940193909355888352600a8152838320918352908152828220858352905290812080549295509061104f83611bc7565b90915550508154156110a05760015482546110a0916001600160a01b037f00000000000000000000000000000000000000000000000000000000000000008116923392610100900490911690611825565b81546040519081523390859085907f60035d63bbab64b7308ea5d7545cab3580021a08473544c8a3325c541f4d100b9060200160405180910390a4505061110660017f9b779b17422d0df92223018b32b4d1fa46e071723d6817e2486d003becc55f0055565b919050565b5f918252602082815260408084206001600160a01b0393909316845291905290205460ff1690565b7f04824fcb60e7cc526d70b264caa65b62ed44d9c8e5d230e8ff6b0c7373843b8a61115d81611642565b5f826003811115611170576111706119cf565b036111bd5760405162461bcd60e51b815260206004820152601a60248201527f50524f3a20696e76616c696420726571756972656420706c616e00000000000060448201526064016106c4565b5f838152600860205260409020805483919060ff191660018360038111156111e7576111e76119cf565b0217905550338260038111156111ff576111ff6119cf565b60405185907f09cad6aced38780ef7510241a979f5b7b437d02441b0e80b33c3ddb62f169caa905f90a4505050565b5f61123881611642565b600280546001600160a01b038481166001600160a01b0319831681179093556040519116919082907f06d8a18a6765cd806b6d5c79b93278cae4f6498d6ef02f1276ef61037ca8453c905f90a3505050565b335f908152600b60205260409020600281015460ff166112ec5760405162461bcd60e51b815260206004820152601960248201527f50524f3a206e6f2061637469766520616363657074616e63650000000000000060448201526064016106c4565b60028101805460ff19169055805460ff16600381111561130e5761130e6119cf565b60405167ffffffffffffffff4216815233907f2daf76d5d2e3a3cc3c7308285b32649e102d4e239375e61a9516ebae8d1633a79060200160405180910390a350565b5f61135a81611642565b6004805460ff19168315159081179091556040513391907fc0fce289023cced7201f525b425b6e767d9b6deb91a954ada92f036713153c48905f90a35050565b5f828152602081905260409020600101546113b481611642565b61089883836116db565b6113c66117d1565b5f8260038111156113d9576113d96119cf565b0361141a5760405162461bcd60e51b81526020600482015260116024820152702829279d1034b73b30b634b210383630b760791b60448201526064016106c4565b806114675760405162461bcd60e51b815260206004820152601760248201527f50524f3a20696e76616c6964207465726d73206861736800000000000000000060448201526064016106c4565b6040518060800160405280836003811115611484576114846119cf565b815267ffffffffffffffff4216602080830191909152604080830185905260016060909301839052335f908152600b90925290208251815491929091839160ff19909116908360038111156114db576114db6119cf565b02179055506020820151815468ffffffffffffffff00191661010067ffffffffffffffff90921691909102178155604082015160018201556060909101516002909101805460ff191691151591909117905580826003811115611540576115406119cf565b60405167ffffffffffffffff4216815233907f6a9a0ba99d039320bb5cb6f6d6f9d42281deff493948545b226fedcbe480560d9060200160405180910390a45050565b5f61158d81611642565b6001600160a01b0382166115db5760405162461bcd60e51b815260206004820152601560248201527450524f3a20696e76616c696420747265617375727960581b60448201526064016106c4565b6001546040516001600160a01b0380851692610100900416907f4ab5be82436d353e61ca18726e984e561f5c1cc7c6d38b29d2553c790434705a905f90a350600180546001600160a01b0390921661010002610100600160a81b0319909216919091179055565b610a17813361185b565b5f611657838361110b565b6116d4575f838152602081815260408083206001600160a01b03861684529091529020805460ff1916600117905561168c3390565b6001600160a01b0316826001600160a01b0316847f2f8788117e7eff1d82e926ec794901d17c78024a50270940304540a733656f0d60405160405180910390a4506001610637565b505f610637565b5f6116e6838361110b565b156116d4575f838152602081815260408083206001600160a01b0386168085529252808320805460ff1916905551339286917ff6391f5c32d9c69d2a47ea670b442974b53935d1edc7fd64eb21e047a839171b9190a4506001610637565b61174c611898565b6001805460ff191690557f5db9ee0a495bf2e6ff9c91a7834c1ba4fdd244a5e8aa4e537bd38aeae4b073aa335b6040516001600160a01b03909116815260200160405180910390a1565b61179e6117d1565b6001805460ff1916811790557f62e78cea01bee320cd4e420270b5ea74000d11b0c9f74754ebdbfc544b05a25833611779565b60015460ff16156117f55760405163d93c066560e01b815260040160405180910390fd5b565b6117ff6118bb565b60027f9b779b17422d0df92223018b32b4d1fa46e071723d6817e2486d003becc55f0055565b6118338484848460016118fd565b61089857604051635274afe760e01b81526001600160a01b03851660048201526024016106c4565b611865828261110b565b6118945760405163e2517d3f60e01b81526001600160a01b0382166004820152602481018390526044016106c4565b5050565b60015460ff166117f557604051638dfc202b60e01b815260040160405180910390fd5b7f9b779b17422d0df92223018b32b4d1fa46e071723d6817e2486d003becc55f00546002036117f557604051633ee5aeb560e01b815260040160405180910390fd5b6040516323b872dd60e01b5f8181526001600160a01b038781166004528616602452604485905291602083606481808c5af1925060015f5114831661195957838315161561194d573d5f823e3d81fd5b5f883b113d1516831692505b604052505f60605295945050505050565b5f6020828403121561197a575f80fd5b81356001600160e01b031981168114611991575f80fd5b9392505050565b5f80604083850312156119a9575f80fd5b50508035926020909101359150565b5f602082840312156119c8575f80fd5b5035919050565b634e487b7160e01b5f52602160045260245ffd5b600481106119ff57634e487b7160e01b5f52602160045260245ffd5b9052565b6020810161063782846119e3565b80356001600160a01b0381168114611106575f80fd5b5f8060408385031215611a38575f80fd5b82359150611a4860208401611a11565b90509250929050565b8015158114610a17575f80fd5b5f805f8060808587031215611a71575f80fd5b84359350602085013592506040850135611a8a81611a51565b9150606085013563ffffffff81168114611aa2575f80fd5b939692955090935050565b5f60208284031215611abd575f80fd5b61199182611a11565b60808101611ad482876119e3565b67ffffffffffffffff85166020830152836040830152821515606083015295945050505050565b803560048110611106575f80fd5b5f8060408385031215611b1a575f80fd5b82359150611a4860208401611afb565b5f60208284031215611b3a575f80fd5b813561199181611a51565b5f8060408385031215611b56575f80fd5b611b5f83611afb565b946020939093013593505050565b5f82611b8757634e487b7160e01b5f52601260045260245ffd5b500490565b5f60208284031215611b9c575f80fd5b815160ff81168114611991575f80fd5b5f60208284031215611bbc575f80fd5b815161199181611a51565b5f60018201611be457634e487b7160e01b5f52601160045260245ffd5b506001019056fea26469706673582212207d658c5fb7c6e0671a3a6c2e5491f1774aacb8f79ee725fc21fb008f38bdafa464736f6c63430008180033","opcodes":"PUSH1 0xA0 PUSH1 0x40 MSTORE CALLVALUE DUP1 ISZERO PUSH3 0x10 JUMPI PUSH0 DUP1 REVERT JUMPDEST POP PUSH1 0x40 MLOAD PUSH3 0x1F39 CODESIZE SUB DUP1 PUSH3 0x1F39 DUP4 CODECOPY DUP2 ADD PUSH1 0x40 DUP2 SWAP1 MSTORE PUSH3 0x33 SWAP2 PUSH3 0x2B1 JUMP JUMPDEST PUSH1 0x1 PUSH32 0x9B779B17422D0DF92223018B32B4D1FA46E071723D6817E2486D003BECC55F00 SSTORE PUSH1 0x1 PUSH1 0x1 PUSH1 0xA0 SHL SUB DUP4 AND PUSH3 0xA8 JUMPI PUSH1 0x40 MLOAD PUSH3 0x461BCD PUSH1 0xE5 SHL DUP2 MSTORE PUSH1 0x20 PUSH1 0x4 DUP3 ADD MSTORE PUSH1 0x12 PUSH1 0x24 DUP3 ADD MSTORE PUSH18 0x2829279D1034B73B30B634B2103A37B5B2B7 PUSH1 0x71 SHL PUSH1 0x44 DUP3 ADD MSTORE PUSH1 0x64 ADD JUMPDEST PUSH1 0x40 MLOAD DUP1 SWAP2 SUB SWAP1 REVERT JUMPDEST PUSH1 0x1 PUSH1 0x1 PUSH1 0xA0 SHL SUB DUP3 AND PUSH3 0x100 JUMPI PUSH1 0x40 MLOAD PUSH3 0x461BCD PUSH1 0xE5 SHL DUP2 MSTORE PUSH1 0x20 PUSH1 0x4 DUP3 ADD MSTORE PUSH1 0x15 PUSH1 0x24 DUP3 ADD MSTORE PUSH32 0x50524F3A20696E76616C69642074726561737572790000000000000000000000 PUSH1 0x44 DUP3 ADD MSTORE PUSH1 0x64 ADD PUSH3 0x9F JUMP JUMPDEST PUSH1 0x1 PUSH1 0x1 PUSH1 0xA0 SHL SUB DUP2 AND PUSH3 0x14D JUMPI PUSH1 0x40 MLOAD PUSH3 0x461BCD PUSH1 0xE5 SHL DUP2 MSTORE PUSH1 0x20 PUSH1 0x4 DUP3 ADD MSTORE PUSH1 0x12 PUSH1 0x24 DUP3 ADD MSTORE PUSH18 0x2829279D1034B73B30B634B21030B236B4B7 PUSH1 0x71 SHL PUSH1 0x44 DUP3 ADD MSTORE PUSH1 0x64 ADD PUSH3 0x9F JUMP JUMPDEST PUSH1 0x1 PUSH1 0x1 PUSH1 0xA0 SHL SUB DUP1 DUP5 AND PUSH1 0x80 MSTORE PUSH1 0x1 DUP1 SLOAD SWAP2 DUP5 AND PUSH2 0x100 MUL PUSH2 0x100 PUSH1 0x1 PUSH1 0xA8 SHL SUB NOT SWAP1 SWAP3 AND SWAP2 SWAP1 SWAP2 OR SWAP1 SSTORE PUSH3 0x185 PUSH0 DUP3 PUSH3 0x1E9 JUMP JUMPDEST POP PUSH3 0x1B2 PUSH32 0x122D99BBD8AA87EFCB1A1FBBAA2DAC9D0DEBFD0C247DF39E9646730C715D4C5F DUP3 PUSH3 0x1E9 JUMP JUMPDEST POP PUSH3 0x1DF PUSH32 0x4824FCB60E7CC526D70B264CAA65B62ED44D9C8E5D230E8FF6B0C7373843B8A DUP3 PUSH3 0x1E9 JUMP JUMPDEST POP POP POP POP PUSH3 0x2F8 JUMP JUMPDEST PUSH0 DUP3 DUP2 MSTORE PUSH1 0x20 DUP2 DUP2 MSTORE PUSH1 0x40 DUP1 DUP4 KECCAK256 PUSH1 0x1 PUSH1 0x1 PUSH1 0xA0 SHL SUB DUP6 AND DUP5 MSTORE SWAP1 SWAP2 MSTORE DUP2 KECCAK256 SLOAD PUSH1 0xFF AND PUSH3 0x28C JUMPI PUSH0 DUP4 DUP2 MSTORE PUSH1 0x20 DUP2 DUP2 MSTORE PUSH1 0x40 DUP1 DUP4 KECCAK256 PUSH1 0x1 PUSH1 0x1 PUSH1 0xA0 SHL SUB DUP7 AND DUP5 MSTORE SWAP1 SWAP2 MSTORE SWAP1 KECCAK256 DUP1 SLOAD PUSH1 0xFF NOT AND PUSH1 0x1 OR SWAP1 SSTORE PUSH3 0x243 CALLER SWAP1 JUMP JUMPDEST PUSH1 0x1 PUSH1 0x1 PUSH1 0xA0 SHL SUB AND DUP3 PUSH1 0x1 PUSH1 0x1 PUSH1 0xA0 SHL SUB AND DUP5 PUSH32 0x2F8788117E7EFF1D82E926EC794901D17C78024A50270940304540A733656F0D PUSH1 0x40 MLOAD PUSH1 0x40 MLOAD DUP1 SWAP2 SUB SWAP1 LOG4 POP PUSH1 0x1 PUSH3 0x28F JUMP JUMPDEST POP PUSH0 JUMPDEST SWAP3 SWAP2 POP POP JUMP JUMPDEST DUP1 MLOAD PUSH1 0x1 PUSH1 0x1 PUSH1 0xA0 SHL SUB DUP2 AND DUP2 EQ PUSH3 0x2AC JUMPI PUSH0 DUP1 REVERT JUMPDEST SWAP2 SWAP1 POP JUMP JUMPDEST PUSH0 DUP1 PUSH0 PUSH1 0x60 DUP5 DUP7 SUB SLT ISZERO PUSH3 0x2C4 JUMPI PUSH0 DUP1 REVERT JUMPDEST PUSH3 0x2CF DUP5 PUSH3 0x295 JUMP JUMPDEST SWAP3 POP PUSH3 0x2DF PUSH1 0x20 DUP6 ADD PUSH3 0x295 JUMP JUMPDEST SWAP2 POP PUSH3 0x2EF PUSH1 0x40 DUP6 ADD PUSH3 0x295 JUMP JUMPDEST SWAP1 POP SWAP3 POP SWAP3 POP SWAP3 JUMP JUMPDEST PUSH1 0x80 MLOAD PUSH2 0x1C21 PUSH3 0x318 PUSH0 CODECOPY PUSH0 DUP2 DUP2 PUSH2 0x3A3 ADD MSTORE PUSH2 0x106E ADD MSTORE PUSH2 0x1C21 PUSH0 RETURN INVALID PUSH1 0x80 PUSH1 0x40 MSTORE CALLVALUE DUP1 ISZERO PUSH2 0xF JUMPI PUSH0 DUP1 REVERT JUMPDEST POP PUSH1 0x4 CALLDATASIZE LT PUSH2 0x208 JUMPI PUSH0 CALLDATALOAD PUSH1 0xE0 SHR DUP1 PUSH4 0x8456CB59 GT PUSH2 0x11F JUMPI DUP1 PUSH4 0xBCD1526E GT PUSH2 0xA9 JUMPI DUP1 PUSH4 0xDB89CF5B GT PUSH2 0x79 JUMPI DUP1 PUSH4 0xDB89CF5B EQ PUSH2 0x59E JUMPI DUP1 PUSH4 0xEF998FE3 EQ PUSH2 0x5B1 JUMPI DUP1 PUSH4 0xF00ACBAA EQ PUSH2 0x5C4 JUMPI DUP1 PUSH4 0xF0F44260 EQ PUSH2 0x5EB JUMPI DUP1 PUSH4 0xF16D2367 EQ PUSH2 0x5FE JUMPI PUSH0 DUP1 REVERT JUMPDEST DUP1 PUSH4 0xBCD1526E EQ PUSH2 0x562 JUMPI DUP1 PUSH4 0xBE882824 EQ PUSH2 0x575 JUMPI DUP1 PUSH4 0xD547741F EQ PUSH2 0x582 JUMPI DUP1 PUSH4 0xD6872B51 EQ PUSH2 0x595 JUMPI PUSH0 DUP1 REVERT JUMPDEST DUP1 PUSH4 0x9FC1D353 GT PUSH2 0xEF JUMPI DUP1 PUSH4 0x9FC1D353 EQ PUSH2 0x4D6 JUMPI DUP1 PUSH4 0xA217FDDF EQ PUSH2 0x52D JUMPI DUP1 PUSH4 0xA29A90CD EQ PUSH2 0x534 JUMPI DUP1 PUSH4 0xA762576A EQ PUSH2 0x547 JUMPI DUP1 PUSH4 0xAFFF59C1 EQ PUSH2 0x55A JUMPI PUSH0 DUP1 REVERT JUMPDEST DUP1 PUSH4 0x8456CB59 EQ PUSH2 0x495 JUMPI DUP1 PUSH4 0x85ADDBEA EQ PUSH2 0x49D JUMPI DUP1 PUSH4 0x8E66FCB5 EQ PUSH2 0x4B0 JUMPI DUP1 PUSH4 0x91D14854 EQ PUSH2 0x4C3 JUMPI PUSH0 DUP1 REVERT JUMPDEST DUP1 PUSH4 0x3F4BA83A GT PUSH2 0x1A0 JUMPI DUP1 PUSH4 0x61D027B3 GT PUSH2 0x170 JUMPI DUP1 PUSH4 0x61D027B3 EQ PUSH2 0x36E JUMPI DUP1 PUSH4 0x62B24EA2 EQ PUSH2 0x39E JUMPI DUP1 PUSH4 0x6A4F1C23 EQ PUSH2 0x3C5 JUMPI DUP1 PUSH4 0x73CD8336 EQ PUSH2 0x3EC JUMPI DUP1 PUSH4 0x83C4B7A3 EQ PUSH2 0x3F5 JUMPI PUSH0 DUP1 REVERT JUMPDEST DUP1 PUSH4 0x3F4BA83A EQ PUSH2 0x2F4 JUMPI DUP1 PUSH4 0x40B0B3E1 EQ PUSH2 0x2FC JUMPI DUP1 PUSH4 0x50058AEA EQ PUSH2 0x30F JUMPI DUP1 PUSH4 0x5C975ABB EQ PUSH2 0x363 JUMPI PUSH0 DUP1 REVERT JUMPDEST DUP1 PUSH4 0x248A9CA3 GT PUSH2 0x1DB JUMPI DUP1 PUSH4 0x248A9CA3 EQ PUSH2 0x28B JUMPI DUP1 PUSH4 0x2F2FF15D EQ PUSH2 0x2BB JUMPI DUP1 PUSH4 0x36568ABE EQ PUSH2 0x2CE JUMPI DUP1 PUSH4 0x3F32F904 EQ PUSH2 0x2E1 JUMPI PUSH0 DUP1 REVERT JUMPDEST DUP1 PUSH4 0x1FFC9A7 EQ PUSH2 0x20C JUMPI DUP1 PUSH4 0x1266861E EQ PUSH2 0x234 JUMPI DUP1 PUSH4 0x1E6FB083 EQ PUSH2 0x249 JUMPI DUP1 PUSH4 0x23813DB9 EQ PUSH2 0x278 JUMPI JUMPDEST PUSH0 DUP1 REVERT JUMPDEST PUSH2 0x21F PUSH2 0x21A CALLDATASIZE PUSH1 0x4 PUSH2 0x196A JUMP JUMPDEST PUSH2 0x607 JUMP JUMPDEST PUSH1 0x40 MLOAD SWAP1 ISZERO ISZERO DUP2 MSTORE PUSH1 0x20 ADD JUMPDEST PUSH1 0x40 MLOAD DUP1 SWAP2 SUB SWAP1 RETURN JUMPDEST PUSH2 0x247 PUSH2 0x242 CALLDATASIZE PUSH1 0x4 PUSH2 0x1998 JUMP JUMPDEST PUSH2 0x63D JUMP JUMPDEST STOP JUMPDEST PUSH2 0x26B PUSH2 0x257 CALLDATASIZE PUSH1 0x4 PUSH2 0x19B8 JUMP JUMPDEST PUSH1 0x8 PUSH1 0x20 MSTORE PUSH0 SWAP1 DUP2 MSTORE PUSH1 0x40 SWAP1 KECCAK256 SLOAD PUSH1 0xFF AND DUP2 JUMP JUMPDEST PUSH1 0x40 MLOAD PUSH2 0x22B SWAP2 SWAP1 PUSH2 0x1A03 JUMP JUMPDEST PUSH2 0x21F PUSH2 0x286 CALLDATASIZE PUSH1 0x4 PUSH2 0x1A27 JUMP JUMPDEST PUSH2 0x7DB JUMP JUMPDEST PUSH2 0x2AD PUSH2 0x299 CALLDATASIZE PUSH1 0x4 PUSH2 0x19B8 JUMP JUMPDEST PUSH0 SWAP1 DUP2 MSTORE PUSH1 0x20 DUP2 SWAP1 MSTORE PUSH1 0x40 SWAP1 KECCAK256 PUSH1 0x1 ADD SLOAD SWAP1 JUMP JUMPDEST PUSH1 0x40 MLOAD SWAP1 DUP2 MSTORE PUSH1 0x20 ADD PUSH2 0x22B JUMP JUMPDEST PUSH2 0x247 PUSH2 0x2C9 CALLDATASIZE PUSH1 0x4 PUSH2 0x1A27 JUMP JUMPDEST PUSH2 0x874 JUMP JUMPDEST PUSH2 0x247 PUSH2 0x2DC CALLDATASIZE PUSH1 0x4 PUSH2 0x1A27 JUMP JUMPDEST PUSH2 0x89E JUMP JUMPDEST PUSH2 0x247 PUSH2 0x2EF CALLDATASIZE PUSH1 0x4 PUSH2 0x1A5E JUMP JUMPDEST PUSH2 0x8D6 JUMP JUMPDEST PUSH2 0x247 PUSH2 0xA05 JUMP JUMPDEST PUSH2 0x247 PUSH2 0x30A CALLDATASIZE PUSH1 0x4 PUSH2 0x1998 JUMP JUMPDEST PUSH2 0xA1A JUMP JUMPDEST PUSH2 0x353 PUSH2 0x31D CALLDATASIZE PUSH1 0x4 PUSH2 0x1AAD JUMP JUMPDEST PUSH1 0xB PUSH1 0x20 MSTORE PUSH0 SWAP1 DUP2 MSTORE PUSH1 0x40 SWAP1 KECCAK256 DUP1 SLOAD PUSH1 0x1 DUP3 ADD SLOAD PUSH1 0x2 SWAP1 SWAP3 ADD SLOAD PUSH1 0xFF DUP1 DUP4 AND SWAP4 PUSH2 0x100 SWAP1 SWAP4 DIV PUSH8 0xFFFFFFFFFFFFFFFF AND SWAP3 SWAP2 AND DUP5 JUMP JUMPDEST PUSH1 0x40 MLOAD PUSH2 0x22B SWAP5 SWAP4 SWAP3 SWAP2 SWAP1 PUSH2 0x1AC6 JUMP JUMPDEST PUSH1 0x1 SLOAD PUSH1 0xFF AND PUSH2 0x21F JUMP JUMPDEST PUSH1 0x1 SLOAD PUSH2 0x386 SWAP1 PUSH2 0x100 SWAP1 DIV PUSH1 0x1 PUSH1 0x1 PUSH1 0xA0 SHL SUB AND DUP2 JUMP JUMPDEST PUSH1 0x40 MLOAD PUSH1 0x1 PUSH1 0x1 PUSH1 0xA0 SHL SUB SWAP1 SWAP2 AND DUP2 MSTORE PUSH1 0x20 ADD PUSH2 0x22B JUMP JUMPDEST PUSH2 0x386 PUSH32 0x0 DUP2 JUMP JUMPDEST PUSH2 0x2AD PUSH32 0x122D99BBD8AA87EFCB1A1FBBAA2DAC9D0DEBFD0C247DF39E9646730C715D4C5F DUP2 JUMP JUMPDEST PUSH2 0x2AD PUSH1 0x3 SLOAD DUP2 JUMP JUMPDEST PUSH2 0x450 PUSH2 0x403 CALLDATASIZE PUSH1 0x4 PUSH2 0x19B8 JUMP JUMPDEST PUSH1 0x9 PUSH1 0x20 MSTORE PUSH0 SWAP1 DUP2 MSTORE PUSH1 0x40 SWAP1 KECCAK256 DUP1 SLOAD PUSH1 0x1 DUP3 ADD SLOAD PUSH1 0x2 DUP4 ADD SLOAD PUSH1 0x3 DUP5 ADD SLOAD PUSH1 0x4 SWAP1 SWAP5 ADD SLOAD PUSH1 0x1 PUSH1 0x1 PUSH1 0xA0 SHL SUB SWAP1 SWAP4 AND SWAP4 SWAP2 SWAP3 PUSH8 0xFFFFFFFFFFFFFFFF DUP1 DUP4 AND SWAP4 PUSH1 0x1 PUSH1 0x40 SHL SWAP1 SWAP4 DIV AND SWAP2 SWAP1 DUP7 JUMP JUMPDEST PUSH1 0x40 DUP1 MLOAD PUSH1 0x1 PUSH1 0x1 PUSH1 0xA0 SHL SUB SWAP1 SWAP8 AND DUP8 MSTORE PUSH1 0x20 DUP8 ADD SWAP6 SWAP1 SWAP6 MSTORE PUSH8 0xFFFFFFFFFFFFFFFF SWAP4 DUP5 AND SWAP5 DUP7 ADD SWAP5 SWAP1 SWAP5 MSTORE SWAP2 AND PUSH1 0x60 DUP5 ADD MSTORE PUSH1 0x80 DUP4 ADD MSTORE PUSH1 0xA0 DUP3 ADD MSTORE PUSH1 0xC0 ADD PUSH2 0x22B JUMP JUMPDEST PUSH2 0x247 PUSH2 0xAFB JUMP JUMPDEST PUSH2 0x2AD PUSH2 0x4AB CALLDATASIZE PUSH1 0x4 PUSH2 0x1A27 JUMP JUMPDEST PUSH2 0xB0D JUMP JUMPDEST PUSH2 0x2AD PUSH2 0x4BE CALLDATASIZE PUSH1 0x4 PUSH2 0x19B8 JUMP JUMPDEST PUSH2 0xB52 JUMP JUMPDEST PUSH2 0x21F PUSH2 0x4D1 CALLDATASIZE PUSH1 0x4 PUSH2 0x1A27 JUMP JUMPDEST PUSH2 0x110B JUMP JUMPDEST PUSH2 0x50C PUSH2 0x4E4 CALLDATASIZE PUSH1 0x4 PUSH2 0x19B8 JUMP JUMPDEST PUSH1 0x7 PUSH1 0x20 MSTORE PUSH0 SWAP1 DUP2 MSTORE PUSH1 0x40 SWAP1 KECCAK256 DUP1 SLOAD PUSH1 0x1 SWAP1 SWAP2 ADD SLOAD PUSH1 0xFF DUP2 AND SWAP1 PUSH2 0x100 SWAP1 DIV PUSH4 0xFFFFFFFF AND DUP4 JUMP JUMPDEST PUSH1 0x40 DUP1 MLOAD SWAP4 DUP5 MSTORE SWAP2 ISZERO ISZERO PUSH1 0x20 DUP5 ADD MSTORE PUSH4 0xFFFFFFFF AND SWAP1 DUP3 ADD MSTORE PUSH1 0x60 ADD PUSH2 0x22B JUMP JUMPDEST PUSH2 0x2AD PUSH0 DUP2 JUMP JUMPDEST PUSH2 0x247 PUSH2 0x542 CALLDATASIZE PUSH1 0x4 PUSH2 0x1B09 JUMP JUMPDEST PUSH2 0x1133 JUMP JUMPDEST PUSH2 0x247 PUSH2 0x555 CALLDATASIZE PUSH1 0x4 PUSH2 0x1AAD JUMP JUMPDEST PUSH2 0x122E JUMP JUMPDEST PUSH2 0x247 PUSH2 0x128A JUMP JUMPDEST PUSH2 0x247 PUSH2 0x570 CALLDATASIZE PUSH1 0x4 PUSH2 0x1B2A JUMP JUMPDEST PUSH2 0x1350 JUMP JUMPDEST PUSH1 0x4 SLOAD PUSH2 0x21F SWAP1 PUSH1 0xFF AND DUP2 JUMP JUMPDEST PUSH2 0x247 PUSH2 0x590 CALLDATASIZE PUSH1 0x4 PUSH2 0x1A27 JUMP JUMPDEST PUSH2 0x139A JUMP JUMPDEST PUSH2 0x2AD PUSH1 0x5 SLOAD DUP2 JUMP JUMPDEST PUSH1 0x2 SLOAD PUSH2 0x386 SWAP1 PUSH1 0x1 PUSH1 0x1 PUSH1 0xA0 SHL SUB AND DUP2 JUMP JUMPDEST PUSH2 0x247 PUSH2 0x5BF CALLDATASIZE PUSH1 0x4 PUSH2 0x1B45 JUMP JUMPDEST PUSH2 0x13BE JUMP JUMPDEST PUSH2 0x2AD PUSH32 0x4824FCB60E7CC526D70B264CAA65B62ED44D9C8E5D230E8FF6B0C7373843B8A DUP2 JUMP JUMPDEST PUSH2 0x247 PUSH2 0x5F9 CALLDATASIZE PUSH1 0x4 PUSH2 0x1AAD JUMP JUMPDEST PUSH2 0x1583 JUMP JUMPDEST PUSH2 0x2AD PUSH1 0x6 SLOAD DUP2 JUMP JUMPDEST PUSH0 PUSH1 0x1 PUSH1 0x1 PUSH1 0xE0 SHL SUB NOT DUP3 AND PUSH4 0x7965DB0B PUSH1 0xE0 SHL EQ DUP1 PUSH2 0x637 JUMPI POP PUSH4 0x1FFC9A7 PUSH1 0xE0 SHL PUSH1 0x1 PUSH1 0x1 PUSH1 0xE0 SHL SUB NOT DUP4 AND EQ JUMPDEST SWAP3 SWAP2 POP POP JUMP JUMPDEST PUSH32 0x122D99BBD8AA87EFCB1A1FBBAA2DAC9D0DEBFD0C247DF39E9646730C715D4C5F PUSH2 0x667 DUP2 PUSH2 0x1642 JUMP JUMPDEST PUSH0 DUP4 DUP2 MSTORE PUSH1 0x9 PUSH1 0x20 MSTORE PUSH1 0x40 SWAP1 KECCAK256 PUSH1 0x2 DUP2 ADD SLOAD PUSH8 0xFFFFFFFFFFFFFFFF AND PUSH2 0x6CD JUMPI PUSH1 0x40 MLOAD PUSH3 0x461BCD PUSH1 0xE5 SHL DUP2 MSTORE PUSH1 0x20 PUSH1 0x4 DUP3 ADD MSTORE PUSH1 0x16 PUSH1 0x24 DUP3 ADD MSTORE PUSH22 0x141493CE881CD95CDCDA5BDB881B9BDD08199BDD5B99 PUSH1 0x52 SHL PUSH1 0x44 DUP3 ADD MSTORE PUSH1 0x64 ADD JUMPDEST PUSH1 0x40 MLOAD DUP1 SWAP2 SUB SWAP1 REVERT JUMPDEST PUSH1 0x2 DUP2 ADD SLOAD PUSH1 0x1 PUSH1 0x40 SHL SWAP1 DIV PUSH8 0xFFFFFFFFFFFFFFFF AND ISZERO PUSH2 0x729 JUMPI PUSH1 0x40 MLOAD PUSH3 0x461BCD PUSH1 0xE5 SHL DUP2 MSTORE PUSH1 0x20 PUSH1 0x4 DUP3 ADD MSTORE PUSH1 0x16 PUSH1 0x24 DUP3 ADD MSTORE PUSH22 0x141493CE88185B1C9958591E48199A5B985B1A5E9959 PUSH1 0x52 SHL PUSH1 0x44 DUP3 ADD MSTORE PUSH1 0x64 ADD PUSH2 0x6C4 JUMP JUMPDEST DUP3 PUSH2 0x76A JUMPI PUSH1 0x40 MLOAD PUSH3 0x461BCD PUSH1 0xE5 SHL DUP2 MSTORE PUSH1 0x20 PUSH1 0x4 DUP3 ADD MSTORE PUSH1 0x11 PUSH1 0x24 DUP3 ADD MSTORE PUSH17 0xA0A49E7440D2DCECC2D8D2C840D0C2E6D PUSH1 0x7B SHL PUSH1 0x44 DUP3 ADD MSTORE PUSH1 0x64 ADD PUSH2 0x6C4 JUMP JUMPDEST PUSH1 0x2 DUP2 ADD DUP1 SLOAD PUSH16 0xFFFFFFFFFFFFFFFF0000000000000000 NOT AND PUSH1 0x1 PUSH1 0x40 SHL TIMESTAMP PUSH8 0xFFFFFFFFFFFFFFFF AND MUL OR SWAP1 SSTORE PUSH1 0x4 DUP2 ADD DUP4 SWAP1 SSTORE PUSH1 0x40 MLOAD DUP4 DUP2 MSTORE CALLER SWAP1 DUP6 SWAP1 PUSH32 0x709C8A4455D05BD0BA7466B14198FB626DB214FF0CA4E54D78C08869D9FE1613 SWAP1 PUSH1 0x20 ADD PUSH1 0x40 MLOAD DUP1 SWAP2 SUB SWAP1 LOG3 POP POP POP POP JUMP JUMPDEST PUSH0 DUP3 DUP2 MSTORE PUSH1 0x8 PUSH1 0x20 MSTORE PUSH1 0x40 DUP2 KECCAK256 SLOAD PUSH1 0xFF AND DUP2 DUP2 PUSH1 0x3 DUP2 GT ISZERO PUSH2 0x7FF JUMPI PUSH2 0x7FF PUSH2 0x19CF JUMP JUMPDEST SUB PUSH2 0x80D JUMPI PUSH0 SWAP2 POP POP PUSH2 0x637 JUMP JUMPDEST PUSH1 0x1 PUSH1 0x1 PUSH1 0xA0 SHL SUB DUP4 AND PUSH0 SWAP1 DUP2 MSTORE PUSH1 0xB PUSH1 0x20 MSTORE PUSH1 0x40 SWAP1 KECCAK256 PUSH1 0x2 DUP2 ADD SLOAD PUSH1 0xFF AND PUSH2 0x83A JUMPI PUSH0 SWAP3 POP POP POP PUSH2 0x637 JUMP JUMPDEST DUP2 PUSH1 0x3 DUP2 GT ISZERO PUSH2 0x84C JUMPI PUSH2 0x84C PUSH2 0x19CF JUMP JUMPDEST DUP2 SLOAD PUSH1 0xFF SWAP2 DUP3 AND SWAP2 AND PUSH1 0x3 DUP2 GT ISZERO PUSH2 0x866 JUMPI PUSH2 0x866 PUSH2 0x19CF JUMP JUMPDEST PUSH1 0xFF AND LT ISZERO SWAP6 SWAP5 POP POP POP POP POP JUMP JUMPDEST PUSH0 DUP3 DUP2 MSTORE PUSH1 0x20 DUP2 SWAP1 MSTORE PUSH1 0x40 SWAP1 KECCAK256 PUSH1 0x1 ADD SLOAD PUSH2 0x88E DUP2 PUSH2 0x1642 JUMP JUMPDEST PUSH2 0x898 DUP4 DUP4 PUSH2 0x164C JUMP JUMPDEST POP POP POP POP JUMP JUMPDEST PUSH1 0x1 PUSH1 0x1 PUSH1 0xA0 SHL SUB DUP2 AND CALLER EQ PUSH2 0x8C7 JUMPI PUSH1 0x40 MLOAD PUSH4 0x334BD919 PUSH1 0xE1 SHL DUP2 MSTORE PUSH1 0x4 ADD PUSH1 0x40 MLOAD DUP1 SWAP2 SUB SWAP1 REVERT JUMPDEST PUSH2 0x8D1 DUP3 DUP3 PUSH2 0x16DB JUMP JUMPDEST POP POP POP JUMP JUMPDEST PUSH32 0x4824FCB60E7CC526D70B264CAA65B62ED44D9C8E5D230E8FF6B0C7373843B8A PUSH2 0x900 DUP2 PUSH2 0x1642 JUMP JUMPDEST PUSH0 DUP3 PUSH4 0xFFFFFFFF AND GT PUSH2 0x955 JUMPI PUSH1 0x40 MLOAD PUSH3 0x461BCD PUSH1 0xE5 SHL DUP2 MSTORE PUSH1 0x20 PUSH1 0x4 DUP3 ADD MSTORE PUSH1 0x18 PUSH1 0x24 DUP3 ADD MSTORE PUSH32 0x50524F3A20696E76616C6964206461696C79206C696D69740000000000000000 PUSH1 0x44 DUP3 ADD MSTORE PUSH1 0x64 ADD PUSH2 0x6C4 JUMP JUMPDEST PUSH1 0x40 DUP1 MLOAD PUSH1 0x60 DUP1 DUP3 ADD DUP4 MSTORE DUP7 DUP3 MSTORE DUP6 ISZERO ISZERO PUSH1 0x20 DUP1 DUP5 ADD DUP3 DUP2 MSTORE PUSH4 0xFFFFFFFF DUP9 DUP2 AND DUP7 DUP9 ADD DUP2 DUP2 MSTORE PUSH0 DUP15 DUP2 MSTORE PUSH1 0x7 DUP7 MSTORE DUP10 SWAP1 KECCAK256 SWAP8 MLOAD DUP9 SSTORE SWAP3 MLOAD PUSH1 0x1 SWAP1 SWAP8 ADD DUP1 SLOAD SWAP4 MLOAD PUSH5 0xFFFFFFFFFF NOT SWAP1 SWAP5 AND SWAP8 ISZERO ISZERO PUSH5 0xFFFFFFFF00 NOT AND SWAP8 SWAP1 SWAP8 OR PUSH2 0x100 SWAP4 SWAP1 SWAP3 AND SWAP3 SWAP1 SWAP3 MUL OR SWAP1 SWAP5 SSTORE DUP5 MLOAD DUP10 DUP2 MSTORE SWAP1 DUP2 ADD SWAP2 SWAP1 SWAP2 MSTORE SWAP3 DUP4 ADD SWAP2 SWAP1 SWAP2 MSTORE DUP7 SWAP2 PUSH32 0xFA1BAD519983D507A5EB2B46A5FA4ABD393363A208CF9A8D3C80CE8A0F4842AE SWAP2 ADD PUSH1 0x40 MLOAD DUP1 SWAP2 SUB SWAP1 LOG2 POP POP POP POP POP JUMP JUMPDEST PUSH0 PUSH2 0xA0F DUP2 PUSH2 0x1642 JUMP JUMPDEST PUSH2 0xA17 PUSH2 0x1744 JUMP JUMPDEST POP JUMP JUMPDEST PUSH0 PUSH2 0xA24 DUP2 PUSH2 0x1642 JUMP JUMPDEST DUP3 PUSH2 0xA71 JUMPI PUSH1 0x40 MLOAD PUSH3 0x461BCD PUSH1 0xE5 SHL DUP2 MSTORE PUSH1 0x20 PUSH1 0x4 DUP3 ADD MSTORE PUSH1 0x1F PUSH1 0x24 DUP3 ADD MSTORE PUSH32 0x50524F3A20696E76616C696420636F6E7472616374207A65726F206861736800 PUSH1 0x44 DUP3 ADD MSTORE PUSH1 0x64 ADD PUSH2 0x6C4 JUMP JUMPDEST DUP2 PUSH2 0xABE JUMPI PUSH1 0x40 MLOAD PUSH3 0x461BCD PUSH1 0xE5 SHL DUP2 MSTORE PUSH1 0x20 PUSH1 0x4 DUP3 ADD MSTORE PUSH1 0x19 PUSH1 0x24 DUP3 ADD MSTORE PUSH32 0x50524F3A20696E76616C69642076657273696F6E206861736800000000000000 PUSH1 0x44 DUP3 ADD MSTORE PUSH1 0x64 ADD PUSH2 0x6C4 JUMP JUMPDEST PUSH1 0x5 DUP4 SWAP1 SSTORE PUSH1 0x6 DUP3 SWAP1 SSTORE PUSH1 0x40 MLOAD CALLER SWAP1 DUP4 SWAP1 DUP6 SWAP1 PUSH32 0x6547FF01C2341E207004EF0DFCCF47B5BE644A1B415F3B7A2BC22C46AA375B84 SWAP1 PUSH0 SWAP1 LOG4 POP POP POP JUMP JUMPDEST PUSH0 PUSH2 0xB05 DUP2 PUSH2 0x1642 JUMP JUMPDEST PUSH2 0xA17 PUSH2 0x1796 JUMP JUMPDEST PUSH0 DUP3 DUP2 MSTORE PUSH1 0xA PUSH1 0x20 SWAP1 DUP2 MSTORE PUSH1 0x40 DUP1 DUP4 KECCAK256 PUSH1 0x1 PUSH1 0x1 PUSH1 0xA0 SHL SUB DUP6 AND DUP5 MSTORE SWAP1 SWAP2 MSTORE DUP2 KECCAK256 DUP2 PUSH2 0xB3C PUSH3 0x15180 TIMESTAMP PUSH2 0x1B6D JUMP JUMPDEST DUP2 MSTORE PUSH1 0x20 ADD SWAP1 DUP2 MSTORE PUSH1 0x20 ADD PUSH0 KECCAK256 SLOAD SWAP1 POP SWAP3 SWAP2 POP POP JUMP JUMPDEST PUSH0 PUSH2 0xB5B PUSH2 0x17D1 JUMP JUMPDEST PUSH2 0xB63 PUSH2 0x17F7 JUMP JUMPDEST PUSH0 DUP3 DUP2 MSTORE PUSH1 0x7 PUSH1 0x20 MSTORE PUSH1 0x40 SWAP1 KECCAK256 PUSH1 0x1 DUP2 ADD SLOAD PUSH1 0xFF AND PUSH2 0xBBC JUMPI PUSH1 0x40 MLOAD PUSH3 0x461BCD PUSH1 0xE5 SHL DUP2 MSTORE PUSH1 0x20 PUSH1 0x4 DUP3 ADD MSTORE PUSH1 0x15 PUSH1 0x24 DUP3 ADD MSTORE PUSH21 0x50524F3A207365727669636520696E616374697665 PUSH1 0x58 SHL PUSH1 0x44 DUP3 ADD MSTORE PUSH1 0x64 ADD PUSH2 0x6C4 JUMP JUMPDEST PUSH1 0x1 DUP2 ADD SLOAD PUSH2 0x100 SWAP1 DIV PUSH4 0xFFFFFFFF AND PUSH2 0xC18 JUMPI PUSH1 0x40 MLOAD PUSH3 0x461BCD PUSH1 0xE5 SHL DUP2 MSTORE PUSH1 0x20 PUSH1 0x4 DUP3 ADD MSTORE PUSH1 0x1B PUSH1 0x24 DUP3 ADD MSTORE PUSH32 0x50524F3A2073657276696365206E6F7420636F6E666967757265640000000000 PUSH1 0x44 DUP3 ADD MSTORE PUSH1 0x64 ADD PUSH2 0x6C4 JUMP JUMPDEST PUSH1 0x2 SLOAD PUSH1 0x1 PUSH1 0x1 PUSH1 0xA0 SHL SUB AND ISZERO PUSH2 0xD68 JUMPI PUSH1 0x2 SLOAD PUSH1 0x40 DUP1 MLOAD PUSH4 0x6DDDD8BD PUSH1 0xE1 SHL DUP2 MSTORE SWAP1 MLOAD PUSH0 SWAP3 PUSH1 0x1 PUSH1 0x1 PUSH1 0xA0 SHL SUB AND SWAP2 PUSH4 0xDBBBB17A SWAP2 PUSH1 0x4 DUP1 DUP4 ADD SWAP3 PUSH1 0x20 SWAP3 SWAP2 SWAP1 DUP3 SWAP1 SUB ADD DUP2 DUP7 GAS STATICCALL ISZERO DUP1 ISZERO PUSH2 0xC70 JUMPI RETURNDATASIZE PUSH0 DUP1 RETURNDATACOPY RETURNDATASIZE PUSH0 REVERT JUMPDEST POP POP POP POP PUSH1 0x40 MLOAD RETURNDATASIZE PUSH1 0x1F NOT PUSH1 0x1F DUP3 ADD AND DUP3 ADD DUP1 PUSH1 0x40 MSTORE POP DUP2 ADD SWAP1 PUSH2 0xC94 SWAP2 SWAP1 PUSH2 0x1B8C JUMP JUMPDEST PUSH1 0x2 SLOAD PUSH1 0x40 MLOAD PUSH4 0xF175250D PUSH1 0xE0 SHL DUP2 MSTORE PUSH1 0x4 DUP2 ADD DUP8 SWAP1 MSTORE CALLER PUSH1 0x24 DUP3 ADD MSTORE PUSH1 0xFF DUP4 AND PUSH1 0x44 DUP3 ADD MSTORE SWAP2 SWAP3 POP PUSH1 0x1 PUSH1 0x1 PUSH1 0xA0 SHL SUB AND SWAP1 PUSH4 0xF175250D SWAP1 PUSH1 0x64 ADD PUSH1 0x20 PUSH1 0x40 MLOAD DUP1 DUP4 SUB DUP2 DUP7 GAS STATICCALL ISZERO DUP1 ISZERO PUSH2 0xCEB JUMPI RETURNDATASIZE PUSH0 DUP1 RETURNDATACOPY RETURNDATASIZE PUSH0 REVERT JUMPDEST POP POP POP POP PUSH1 0x40 MLOAD RETURNDATASIZE PUSH1 0x1F NOT PUSH1 0x1F DUP3 ADD AND DUP3 ADD DUP1 PUSH1 0x40 MSTORE POP DUP2 ADD SWAP1 PUSH2 0xD0F SWAP2 SWAP1 PUSH2 0x1BAC JUMP JUMPDEST PUSH2 0xD66 JUMPI PUSH1 0x40 MLOAD PUSH3 0x461BCD PUSH1 0xE5 SHL DUP2 MSTORE PUSH1 0x20 PUSH1 0x4 DUP3 ADD MSTORE PUSH1 0x22 PUSH1 0x24 DUP3 ADD MSTORE PUSH32 0x50524F3A20766F69636520636F6E73656E7420726571756972656420284C4750 PUSH1 0x44 DUP3 ADD MSTORE PUSH2 0x4429 PUSH1 0xF0 SHL PUSH1 0x64 DUP3 ADD MSTORE PUSH1 0x84 ADD PUSH2 0x6C4 JUMP JUMPDEST POP JUMPDEST PUSH0 PUSH2 0xD76 PUSH3 0x15180 TIMESTAMP PUSH2 0x1B6D JUMP JUMPDEST PUSH1 0x1 DUP4 ADD SLOAD PUSH0 DUP7 DUP2 MSTORE PUSH1 0xA PUSH1 0x20 SWAP1 DUP2 MSTORE PUSH1 0x40 DUP1 DUP4 KECCAK256 CALLER DUP5 MSTORE DUP3 MSTORE DUP1 DUP4 KECCAK256 DUP6 DUP5 MSTORE SWAP1 SWAP2 MSTORE SWAP1 KECCAK256 SLOAD SWAP2 SWAP3 POP PUSH2 0x100 SWAP1 DIV PUSH4 0xFFFFFFFF AND GT PUSH2 0xDF7 JUMPI PUSH1 0x40 MLOAD PUSH3 0x461BCD PUSH1 0xE5 SHL DUP2 MSTORE PUSH1 0x20 PUSH1 0x4 DUP3 ADD DUP2 SWAP1 MSTORE PUSH1 0x24 DUP3 ADD MSTORE PUSH32 0x50524F3A206461696C792073657373696F6E206C696D69742072656163686564 PUSH1 0x44 DUP3 ADD MSTORE PUSH1 0x64 ADD PUSH2 0x6C4 JUMP JUMPDEST PUSH1 0x4 SLOAD PUSH1 0xFF AND ISZERO PUSH2 0xF61 JUMPI CALLER PUSH0 SWAP1 DUP2 MSTORE PUSH1 0xB PUSH1 0x20 SWAP1 DUP2 MSTORE PUSH1 0x40 DUP1 DUP4 KECCAK256 DUP8 DUP5 MSTORE PUSH1 0x8 SWAP1 SWAP3 MSTORE SWAP1 SWAP2 KECCAK256 SLOAD PUSH1 0x2 DUP3 ADD SLOAD PUSH1 0xFF SWAP2 DUP3 AND SWAP2 AND PUSH2 0xE77 JUMPI PUSH1 0x40 MLOAD PUSH3 0x461BCD PUSH1 0xE5 SHL DUP2 MSTORE PUSH1 0x20 PUSH1 0x4 DUP3 ADD MSTORE PUSH1 0x1D PUSH1 0x24 DUP3 ADD MSTORE PUSH32 0x50524F3A20706C616E20616363657074616E6365207265717569726564000000 PUSH1 0x44 DUP3 ADD MSTORE PUSH1 0x64 ADD PUSH2 0x6C4 JUMP JUMPDEST PUSH0 DUP2 PUSH1 0x3 DUP2 GT ISZERO PUSH2 0xE8A JUMPI PUSH2 0xE8A PUSH2 0x19CF JUMP JUMPDEST SUB PUSH2 0xEE1 JUMPI PUSH1 0x40 MLOAD PUSH3 0x461BCD PUSH1 0xE5 SHL DUP2 MSTORE PUSH1 0x20 PUSH1 0x4 DUP3 ADD MSTORE PUSH1 0x21 PUSH1 0x24 DUP3 ADD MSTORE PUSH32 0x50524F3A20726571756972656420706C616E206E6F7420636F6E666967757265 PUSH1 0x44 DUP3 ADD MSTORE PUSH1 0x19 PUSH1 0xFA SHL PUSH1 0x64 DUP3 ADD MSTORE PUSH1 0x84 ADD PUSH2 0x6C4 JUMP JUMPDEST DUP1 PUSH1 0x3 DUP2 GT ISZERO PUSH2 0xEF3 JUMPI PUSH2 0xEF3 PUSH2 0x19CF JUMP JUMPDEST DUP3 SLOAD PUSH1 0xFF SWAP2 DUP3 AND SWAP2 AND PUSH1 0x3 DUP2 GT ISZERO PUSH2 0xF0D JUMPI PUSH2 0xF0D PUSH2 0x19CF JUMP JUMPDEST PUSH1 0xFF AND LT ISZERO PUSH2 0xF5E JUMPI PUSH1 0x40 MLOAD PUSH3 0x461BCD PUSH1 0xE5 SHL DUP2 MSTORE PUSH1 0x20 PUSH1 0x4 DUP3 ADD DUP2 SWAP1 MSTORE PUSH1 0x24 DUP3 ADD MSTORE PUSH32 0x50524F3A20696E73756666696369656E742075736162696C69747920706C616E PUSH1 0x44 DUP3 ADD MSTORE PUSH1 0x64 ADD PUSH2 0x6C4 JUMP JUMPDEST POP POP JUMPDEST PUSH1 0x3 DUP1 SLOAD SWAP1 PUSH0 PUSH2 0xF70 DUP4 PUSH2 0x1BC7 JUMP JUMPDEST SWAP1 SWAP2 SSTORE POP PUSH1 0x40 DUP1 MLOAD PUSH1 0xC0 DUP2 ADD DUP3 MSTORE CALLER DUP1 DUP3 MSTORE PUSH1 0x20 DUP1 DUP4 ADD DUP10 DUP2 MSTORE PUSH8 0xFFFFFFFFFFFFFFFF TIMESTAMP DUP2 AND DUP6 DUP8 ADD SWAP1 DUP2 MSTORE PUSH0 PUSH1 0x60 DUP8 ADD DUP2 DUP2 MSTORE DUP12 SLOAD PUSH1 0x80 DUP10 ADD SWAP1 DUP2 MSTORE PUSH1 0xA0 DUP10 ADD DUP4 DUP2 MSTORE DUP12 DUP5 MSTORE PUSH1 0x9 DUP9 MSTORE DUP11 DUP5 KECCAK256 SWAP10 MLOAD DUP11 SLOAD PUSH1 0x1 PUSH1 0x1 PUSH1 0xA0 SHL SUB SWAP2 SWAP1 SWAP2 AND PUSH1 0x1 PUSH1 0x1 PUSH1 0xA0 SHL SUB NOT SWAP1 SWAP2 AND OR DUP11 SSTORE SWAP6 MLOAD PUSH1 0x1 DUP11 ADD SSTORE SWAP3 MLOAD PUSH1 0x2 DUP10 ADD DUP1 SLOAD SWAP3 MLOAD DUP7 AND PUSH1 0x1 PUSH1 0x40 SHL MUL PUSH16 0xFFFFFFFFFFFFFFFFFFFFFFFFFFFFFFFF NOT SWAP1 SWAP4 AND SWAP2 SWAP1 SWAP6 AND OR OR SWAP1 SWAP3 SSTORE MLOAD PUSH1 0x3 DUP7 ADD SSTORE SWAP1 MLOAD PUSH1 0x4 SWAP1 SWAP5 ADD SWAP4 SWAP1 SWAP4 SSTORE DUP9 DUP4 MSTORE PUSH1 0xA DUP2 MSTORE DUP4 DUP4 KECCAK256 SWAP2 DUP4 MSTORE SWAP1 DUP2 MSTORE DUP3 DUP3 KECCAK256 DUP6 DUP4 MSTORE SWAP1 MSTORE SWAP1 DUP2 KECCAK256 DUP1 SLOAD SWAP3 SWAP6 POP SWAP1 PUSH2 0x104F DUP4 PUSH2 0x1BC7 JUMP JUMPDEST SWAP1 SWAP2 SSTORE POP POP DUP2 SLOAD ISZERO PUSH2 0x10A0 JUMPI PUSH1 0x1 SLOAD DUP3 SLOAD PUSH2 0x10A0 SWAP2 PUSH1 0x1 PUSH1 0x1 PUSH1 0xA0 SHL SUB PUSH32 0x0 DUP2 AND SWAP3 CALLER SWAP3 PUSH2 0x100 SWAP1 DIV SWAP1 SWAP2 AND SWAP1 PUSH2 0x1825 JUMP JUMPDEST DUP2 SLOAD PUSH1 0x40 MLOAD SWAP1 DUP2 MSTORE CALLER SWAP1 DUP6 SWAP1 DUP6 SWAP1 PUSH32 0x60035D63BBAB64B7308EA5D7545CAB3580021A08473544C8A3325C541F4D100B SWAP1 PUSH1 0x20 ADD PUSH1 0x40 MLOAD DUP1 SWAP2 SUB SWAP1 LOG4 POP POP PUSH2 0x1106 PUSH1 0x1 PUSH32 0x9B779B17422D0DF92223018B32B4D1FA46E071723D6817E2486D003BECC55F00 SSTORE JUMP JUMPDEST SWAP2 SWAP1 POP JUMP JUMPDEST PUSH0 SWAP2 DUP3 MSTORE PUSH1 0x20 DUP3 DUP2 MSTORE PUSH1 0x40 DUP1 DUP5 KECCAK256 PUSH1 0x1 PUSH1 0x1 PUSH1 0xA0 SHL SUB SWAP4 SWAP1 SWAP4 AND DUP5 MSTORE SWAP2 SWAP1 MSTORE SWAP1 KECCAK256 SLOAD PUSH1 0xFF AND SWAP1 JUMP JUMPDEST PUSH32 0x4824FCB60E7CC526D70B264CAA65B62ED44D9C8E5D230E8FF6B0C7373843B8A PUSH2 0x115D DUP2 PUSH2 0x1642 JUMP JUMPDEST PUSH0 DUP3 PUSH1 0x3 DUP2 GT ISZERO PUSH2 0x1170 JUMPI PUSH2 0x1170 PUSH2 0x19CF JUMP JUMPDEST SUB PUSH2 0x11BD JUMPI PUSH1 0x40 MLOAD PUSH3 0x461BCD PUSH1 0xE5 SHL DUP2 MSTORE PUSH1 0x20 PUSH1 0x4 DUP3 ADD MSTORE PUSH1 0x1A PUSH1 0x24 DUP3 ADD MSTORE PUSH32 0x50524F3A20696E76616C696420726571756972656420706C616E000000000000 PUSH1 0x44 DUP3 ADD MSTORE PUSH1 0x64 ADD PUSH2 0x6C4 JUMP JUMPDEST PUSH0 DUP4 DUP2 MSTORE PUSH1 0x8 PUSH1 0x20 MSTORE PUSH1 0x40 SWAP1 KECCAK256 DUP1 SLOAD DUP4 SWAP2 SWAP1 PUSH1 0xFF NOT AND PUSH1 0x1 DUP4 PUSH1 0x3 DUP2 GT ISZERO PUSH2 0x11E7 JUMPI PUSH2 0x11E7 PUSH2 0x19CF JUMP JUMPDEST MUL OR SWAP1 SSTORE POP CALLER DUP3 PUSH1 0x3 DUP2 GT ISZERO PUSH2 0x11FF JUMPI PUSH2 0x11FF PUSH2 0x19CF JUMP JUMPDEST PUSH1 0x40 MLOAD DUP6 SWAP1 PUSH32 0x9CAD6ACED38780EF7510241A979F5B7B437D02441B0E80B33C3DDB62F169CAA SWAP1 PUSH0 SWAP1 LOG4 POP POP POP JUMP JUMPDEST PUSH0 PUSH2 0x1238 DUP2 PUSH2 0x1642 JUMP JUMPDEST PUSH1 0x2 DUP1 SLOAD PUSH1 0x1 PUSH1 0x1 PUSH1 0xA0 SHL SUB DUP5 DUP2 AND PUSH1 0x1 PUSH1 0x1 PUSH1 0xA0 SHL SUB NOT DUP4 AND DUP2 OR SWAP1 SWAP4 SSTORE PUSH1 0x40 MLOAD SWAP2 AND SWAP2 SWAP1 DUP3 SWAP1 PUSH32 0x6D8A18A6765CD806B6D5C79B93278CAE4F6498D6EF02F1276EF61037CA8453C SWAP1 PUSH0 SWAP1 LOG3 POP POP POP JUMP JUMPDEST CALLER PUSH0 SWAP1 DUP2 MSTORE PUSH1 0xB PUSH1 0x20 MSTORE PUSH1 0x40 SWAP1 KECCAK256 PUSH1 0x2 DUP2 ADD SLOAD PUSH1 0xFF AND PUSH2 0x12EC JUMPI PUSH1 0x40 MLOAD PUSH3 0x461BCD PUSH1 0xE5 SHL DUP2 MSTORE PUSH1 0x20 PUSH1 0x4 DUP3 ADD MSTORE PUSH1 0x19 PUSH1 0x24 DUP3 ADD MSTORE PUSH32 0x50524F3A206E6F2061637469766520616363657074616E636500000000000000 PUSH1 0x44 DUP3 ADD MSTORE PUSH1 0x64 ADD PUSH2 0x6C4 JUMP JUMPDEST PUSH1 0x2 DUP2 ADD DUP1 SLOAD PUSH1 0xFF NOT AND SWAP1 SSTORE DUP1 SLOAD PUSH1 0xFF AND PUSH1 0x3 DUP2 GT ISZERO PUSH2 0x130E JUMPI PUSH2 0x130E PUSH2 0x19CF JUMP JUMPDEST PUSH1 0x40 MLOAD PUSH8 0xFFFFFFFFFFFFFFFF TIMESTAMP AND DUP2 MSTORE CALLER SWAP1 PUSH32 0x2DAF76D5D2E3A3CC3C7308285B32649E102D4E239375E61A9516EBAE8D1633A7 SWAP1 PUSH1 0x20 ADD PUSH1 0x40 MLOAD DUP1 SWAP2 SUB SWAP1 LOG3 POP JUMP JUMPDEST PUSH0 PUSH2 0x135A DUP2 PUSH2 0x1642 JUMP JUMPDEST PUSH1 0x4 DUP1 SLOAD PUSH1 0xFF NOT AND DUP4 ISZERO ISZERO SWAP1 DUP2 OR SWAP1 SWAP2 SSTORE PUSH1 0x40 MLOAD CALLER SWAP2 SWAP1 PUSH32 0xC0FCE289023CCED7201F525B425B6E767D9B6DEB91A954ADA92F036713153C48 SWAP1 PUSH0 SWAP1 LOG3 POP POP JUMP JUMPDEST PUSH0 DUP3 DUP2 MSTORE PUSH1 0x20 DUP2 SWAP1 MSTORE PUSH1 0x40 SWAP1 KECCAK256 PUSH1 0x1 ADD SLOAD PUSH2 0x13B4 DUP2 PUSH2 0x1642 JUMP JUMPDEST PUSH2 0x898 DUP4 DUP4 PUSH2 0x16DB JUMP JUMPDEST PUSH2 0x13C6 PUSH2 0x17D1 JUMP JUMPDEST PUSH0 DUP3 PUSH1 0x3 DUP2 GT ISZERO PUSH2 0x13D9 JUMPI PUSH2 0x13D9 PUSH2 0x19CF JUMP JUMPDEST SUB PUSH2 0x141A JUMPI PUSH1 0x40 MLOAD PUSH3 0x461BCD PUSH1 0xE5 SHL DUP2 MSTORE PUSH1 0x20 PUSH1 0x4 DUP3 ADD MSTORE PUSH1 0x11 PUSH1 0x24 DUP3 ADD MSTORE PUSH17 0x2829279D1034B73B30B634B210383630B7 PUSH1 0x79 SHL PUSH1 0x44 DUP3 ADD MSTORE PUSH1 0x64 ADD PUSH2 0x6C4 JUMP JUMPDEST DUP1 PUSH2 0x1467 JUMPI PUSH1 0x40 MLOAD PUSH3 0x461BCD PUSH1 0xE5 SHL DUP2 MSTORE PUSH1 0x20 PUSH1 0x4 DUP3 ADD MSTORE PUSH1 0x17 PUSH1 0x24 DUP3 ADD MSTORE PUSH32 0x50524F3A20696E76616C6964207465726D732068617368000000000000000000 PUSH1 0x44 DUP3 ADD MSTORE PUSH1 0x64 ADD PUSH2 0x6C4 JUMP JUMPDEST PUSH1 0x40 MLOAD DUP1 PUSH1 0x80 ADD PUSH1 0x40 MSTORE DUP1 DUP4 PUSH1 0x3 DUP2 GT ISZERO PUSH2 0x1484 JUMPI PUSH2 0x1484 PUSH2 0x19CF JUMP JUMPDEST DUP2 MSTORE PUSH8 0xFFFFFFFFFFFFFFFF TIMESTAMP AND PUSH1 0x20 DUP1 DUP4 ADD SWAP2 SWAP1 SWAP2 MSTORE PUSH1 0x40 DUP1 DUP4 ADD DUP6 SWAP1 MSTORE PUSH1 0x1 PUSH1 0x60 SWAP1 SWAP4 ADD DUP4 SWAP1 MSTORE CALLER PUSH0 SWAP1 DUP2 MSTORE PUSH1 0xB SWAP1 SWAP3 MSTORE SWAP1 KECCAK256 DUP3 MLOAD DUP2 SLOAD SWAP2 SWAP3 SWAP1 SWAP2 DUP4 SWAP2 PUSH1 0xFF NOT SWAP1 SWAP2 AND SWAP1 DUP4 PUSH1 0x3 DUP2 GT ISZERO PUSH2 0x14DB JUMPI PUSH2 0x14DB PUSH2 0x19CF JUMP JUMPDEST MUL OR SWAP1 SSTORE POP PUSH1 0x20 DUP3 ADD MLOAD DUP2 SLOAD PUSH9 0xFFFFFFFFFFFFFFFF00 NOT AND PUSH2 0x100 PUSH8 0xFFFFFFFFFFFFFFFF SWAP1 SWAP3 AND SWAP2 SWAP1 SWAP2 MUL OR DUP2 SSTORE PUSH1 0x40 DUP3 ADD MLOAD PUSH1 0x1 DUP3 ADD SSTORE PUSH1 0x60 SWAP1 SWAP2 ADD MLOAD PUSH1 0x2 SWAP1 SWAP2 ADD DUP1 SLOAD PUSH1 0xFF NOT AND SWAP2 ISZERO ISZERO SWAP2 SWAP1 SWAP2 OR SWAP1 SSTORE DUP1 DUP3 PUSH1 0x3 DUP2 GT ISZERO PUSH2 0x1540 JUMPI PUSH2 0x1540 PUSH2 0x19CF JUMP JUMPDEST PUSH1 0x40 MLOAD PUSH8 0xFFFFFFFFFFFFFFFF TIMESTAMP AND DUP2 MSTORE CALLER SWAP1 PUSH32 0x6A9A0BA99D039320BB5CB6F6D6F9D42281DEFF493948545B226FEDCBE480560D SWAP1 PUSH1 0x20 ADD PUSH1 0x40 MLOAD DUP1 SWAP2 SUB SWAP1 LOG4 POP POP JUMP JUMPDEST PUSH0 PUSH2 0x158D DUP2 PUSH2 0x1642 JUMP JUMPDEST PUSH1 0x1 PUSH1 0x1 PUSH1 0xA0 SHL SUB DUP3 AND PUSH2 0x15DB JUMPI PUSH1 0x40 MLOAD PUSH3 0x461BCD PUSH1 0xE5 SHL DUP2 MSTORE PUSH1 0x20 PUSH1 0x4 DUP3 ADD MSTORE PUSH1 0x15 PUSH1 0x24 DUP3 ADD MSTORE PUSH21 0x50524F3A20696E76616C6964207472656173757279 PUSH1 0x58 SHL PUSH1 0x44 DUP3 ADD MSTORE PUSH1 0x64 ADD PUSH2 0x6C4 JUMP JUMPDEST PUSH1 0x1 SLOAD PUSH1 0x40 MLOAD PUSH1 0x1 PUSH1 0x1 PUSH1 0xA0 SHL SUB DUP1 DUP6 AND SWAP3 PUSH2 0x100 SWAP1 DIV AND SWAP1 PUSH32 0x4AB5BE82436D353E61CA18726E984E561F5C1CC7C6D38B29D2553C790434705A SWAP1 PUSH0 SWAP1 LOG3 POP PUSH1 0x1 DUP1 SLOAD PUSH1 0x1 PUSH1 0x1 PUSH1 0xA0 SHL SUB SWAP1 SWAP3 AND PUSH2 0x100 MUL PUSH2 0x100 PUSH1 0x1 PUSH1 0xA8 SHL SUB NOT SWAP1 SWAP3 AND SWAP2 SWAP1 SWAP2 OR SWAP1 SSTORE JUMP JUMPDEST PUSH2 0xA17 DUP2 CALLER PUSH2 0x185B JUMP JUMPDEST PUSH0 PUSH2 0x1657 DUP4 DUP4 PUSH2 0x110B JUMP JUMPDEST PUSH2 0x16D4 JUMPI PUSH0 DUP4 DUP2 MSTORE PUSH1 0x20 DUP2 DUP2 MSTORE PUSH1 0x40 DUP1 DUP4 KECCAK256 PUSH1 0x1 PUSH1 0x1 PUSH1 0xA0 SHL SUB DUP7 AND DUP5 MSTORE SWAP1 SWAP2 MSTORE SWAP1 KECCAK256 DUP1 SLOAD PUSH1 0xFF NOT AND PUSH1 0x1 OR SWAP1 SSTORE PUSH2 0x168C CALLER SWAP1 JUMP JUMPDEST PUSH1 0x1 PUSH1 0x1 PUSH1 0xA0 SHL SUB AND DUP3 PUSH1 0x1 PUSH1 0x1 PUSH1 0xA0 SHL SUB AND DUP5 PUSH32 0x2F8788117E7EFF1D82E926EC794901D17C78024A50270940304540A733656F0D PUSH1 0x40 MLOAD PUSH1 0x40 MLOAD DUP1 SWAP2 SUB SWAP1 LOG4 POP PUSH1 0x1 PUSH2 0x637 JUMP JUMPDEST POP PUSH0 PUSH2 0x637 JUMP JUMPDEST PUSH0 PUSH2 0x16E6 DUP4 DUP4 PUSH2 0x110B JUMP JUMPDEST ISZERO PUSH2 0x16D4 JUMPI PUSH0 DUP4 DUP2 MSTORE PUSH1 0x20 DUP2 DUP2 MSTORE PUSH1 0x40 DUP1 DUP4 KECCAK256 PUSH1 0x1 PUSH1 0x1 PUSH1 0xA0 SHL SUB DUP7 AND DUP1 DUP6 MSTORE SWAP3 MSTORE DUP1 DUP4 KECCAK256 DUP1 SLOAD PUSH1 0xFF NOT AND SWAP1 SSTORE MLOAD CALLER SWAP3 DUP7 SWAP2 PUSH32 0xF6391F5C32D9C69D2A47EA670B442974B53935D1EDC7FD64EB21E047A839171B SWAP2 SWAP1 LOG4 POP PUSH1 0x1 PUSH2 0x637 JUMP JUMPDEST PUSH2 0x174C PUSH2 0x1898 JUMP JUMPDEST PUSH1 0x1 DUP1 SLOAD PUSH1 0xFF NOT AND SWAP1 SSTORE PUSH32 0x5DB9EE0A495BF2E6FF9C91A7834C1BA4FDD244A5E8AA4E537BD38AEAE4B073AA CALLER JUMPDEST PUSH1 0x40 MLOAD PUSH1 0x1 PUSH1 0x1 PUSH1 0xA0 SHL SUB SWAP1 SWAP2 AND DUP2 MSTORE PUSH1 0x20 ADD PUSH1 0x40 MLOAD DUP1 SWAP2 SUB SWAP1 LOG1 JUMP JUMPDEST PUSH2 0x179E PUSH2 0x17D1 JUMP JUMPDEST PUSH1 0x1 DUP1 SLOAD PUSH1 0xFF NOT AND DUP2 OR SWAP1 SSTORE PUSH32 0x62E78CEA01BEE320CD4E420270B5EA74000D11B0C9F74754EBDBFC544B05A258 CALLER PUSH2 0x1779 JUMP JUMPDEST PUSH1 0x1 SLOAD PUSH1 0xFF AND ISZERO PUSH2 0x17F5 JUMPI PUSH1 0x40 MLOAD PUSH4 0xD93C0665 PUSH1 0xE0 SHL DUP2 MSTORE PUSH1 0x4 ADD PUSH1 0x40 MLOAD DUP1 SWAP2 SUB SWAP1 REVERT JUMPDEST JUMP JUMPDEST PUSH2 0x17FF PUSH2 0x18BB JUMP JUMPDEST PUSH1 0x2 PUSH32 0x9B779B17422D0DF92223018B32B4D1FA46E071723D6817E2486D003BECC55F00 SSTORE JUMP JUMPDEST PUSH2 0x1833 DUP5 DUP5 DUP5 DUP5 PUSH1 0x1 PUSH2 0x18FD JUMP JUMPDEST PUSH2 0x898 JUMPI PUSH1 0x40 MLOAD PUSH4 0x5274AFE7 PUSH1 0xE0 SHL DUP2 MSTORE PUSH1 0x1 PUSH1 0x1 PUSH1 0xA0 SHL SUB DUP6 AND PUSH1 0x4 DUP3 ADD MSTORE PUSH1 0x24 ADD PUSH2 0x6C4 JUMP JUMPDEST PUSH2 0x1865 DUP3 DUP3 PUSH2 0x110B JUMP JUMPDEST PUSH2 0x1894 JUMPI PUSH1 0x40 MLOAD PUSH4 0xE2517D3F PUSH1 0xE0 SHL DUP2 MSTORE PUSH1 0x1 PUSH1 0x1 PUSH1 0xA0 SHL SUB DUP3 AND PUSH1 0x4 DUP3 ADD MSTORE PUSH1 0x24 DUP2 ADD DUP4 SWAP1 MSTORE PUSH1 0x44 ADD PUSH2 0x6C4 JUMP JUMPDEST POP POP JUMP JUMPDEST PUSH1 0x1 SLOAD PUSH1 0xFF AND PUSH2 0x17F5 JUMPI PUSH1 0x40 MLOAD PUSH4 0x8DFC202B PUSH1 0xE0 SHL DUP2 MSTORE PUSH1 0x4 ADD PUSH1 0x40 MLOAD DUP1 SWAP2 SUB SWAP1 REVERT JUMPDEST PUSH32 0x9B779B17422D0DF92223018B32B4D1FA46E071723D6817E2486D003BECC55F00 SLOAD PUSH1 0x2 SUB PUSH2 0x17F5 JUMPI PUSH1 0x40 MLOAD PUSH4 0x3EE5AEB5 PUSH1 0xE0 SHL DUP2 MSTORE PUSH1 0x4 ADD PUSH1 0x40 MLOAD DUP1 SWAP2 SUB SWAP1 REVERT JUMPDEST PUSH1 0x40 MLOAD PUSH4 0x23B872DD PUSH1 0xE0 SHL PUSH0 DUP2 DUP2 MSTORE PUSH1 0x1 PUSH1 0x1 PUSH1 0xA0 SHL SUB DUP8 DUP2 AND PUSH1 0x4 MSTORE DUP7 AND PUSH1 0x24 MSTORE PUSH1 0x44 DUP6 SWAP1 MSTORE SWAP2 PUSH1 0x20 DUP4 PUSH1 0x64 DUP2 DUP1 DUP13 GAS CALL SWAP3 POP PUSH1 0x1 PUSH0 MLOAD EQ DUP4 AND PUSH2 0x1959 JUMPI DUP4 DUP4 ISZERO AND ISZERO PUSH2 0x194D JUMPI RETURNDATASIZE PUSH0 DUP3 RETURNDATACOPY RETURNDATASIZE DUP2 REVERT JUMPDEST PUSH0 DUP9 EXTCODESIZE GT RETURNDATASIZE ISZERO AND DUP4 AND SWAP3 POP JUMPDEST PUSH1 0x40 MSTORE POP PUSH0 PUSH1 0x60 MSTORE SWAP6 SWAP5 POP POP POP POP POP JUMP JUMPDEST PUSH0 PUSH1 0x20 DUP3 DUP5 SUB SLT ISZERO PUSH2 0x197A JUMPI PUSH0 DUP1 REVERT JUMPDEST DUP2 CALLDATALOAD PUSH1 0x1 PUSH1 0x1 PUSH1 0xE0 SHL SUB NOT DUP2 AND DUP2 EQ PUSH2 0x1991 JUMPI PUSH0 DUP1 REVERT JUMPDEST SWAP4 SWAP3 POP POP POP JUMP JUMPDEST PUSH0 DUP1 PUSH1 0x40 DUP4 DUP6 SUB SLT ISZERO PUSH2 0x19A9 JUMPI PUSH0 DUP1 REVERT JUMPDEST POP POP DUP1 CALLDATALOAD SWAP3 PUSH1 0x20 SWAP1 SWAP2 ADD CALLDATALOAD SWAP2 POP JUMP JUMPDEST PUSH0 PUSH1 0x20 DUP3 DUP5 SUB SLT ISZERO PUSH2 0x19C8 JUMPI PUSH0 DUP1 REVERT JUMPDEST POP CALLDATALOAD SWAP2 SWAP1 POP JUMP JUMPDEST PUSH4 0x4E487B71 PUSH1 0xE0 SHL PUSH0 MSTORE PUSH1 0x21 PUSH1 0x4 MSTORE PUSH1 0x24 PUSH0 REVERT JUMPDEST PUSH1 0x4 DUP2 LT PUSH2 0x19FF JUMPI PUSH4 0x4E487B71 PUSH1 0xE0 SHL PUSH0 MSTORE PUSH1 0x21 PUSH1 0x4 MSTORE PUSH1 0x24 PUSH0 REVERT JUMPDEST SWAP1 MSTORE JUMP JUMPDEST PUSH1 0x20 DUP2 ADD PUSH2 0x637 DUP3 DUP5 PUSH2 0x19E3 JUMP JUMPDEST DUP1 CALLDATALOAD PUSH1 0x1 PUSH1 0x1 PUSH1 0xA0 SHL SUB DUP2 AND DUP2 EQ PUSH2 0x1106 JUMPI PUSH0 DUP1 REVERT JUMPDEST PUSH0 DUP1 PUSH1 0x40 DUP4 DUP6 SUB SLT ISZERO PUSH2 0x1A38 JUMPI PUSH0 DUP1 REVERT JUMPDEST DUP3 CALLDATALOAD SWAP2 POP PUSH2 0x1A48 PUSH1 0x20 DUP5 ADD PUSH2 0x1A11 JUMP JUMPDEST SWAP1 POP SWAP3 POP SWAP3 SWAP1 POP JUMP JUMPDEST DUP1 ISZERO ISZERO DUP2 EQ PUSH2 0xA17 JUMPI PUSH0 DUP1 REVERT JUMPDEST PUSH0 DUP1 PUSH0 DUP1 PUSH1 0x80 DUP6 DUP8 SUB SLT ISZERO PUSH2 0x1A71 JUMPI PUSH0 DUP1 REVERT JUMPDEST DUP5 CALLDATALOAD SWAP4 POP PUSH1 0x20 DUP6 ADD CALLDATALOAD SWAP3 POP PUSH1 0x40 DUP6 ADD CALLDATALOAD PUSH2 0x1A8A DUP2 PUSH2 0x1A51 JUMP JUMPDEST SWAP2 POP PUSH1 0x60 DUP6 ADD CALLDATALOAD PUSH4 0xFFFFFFFF DUP2 AND DUP2 EQ PUSH2 0x1AA2 JUMPI PUSH0 DUP1 REVERT JUMPDEST SWAP4 SWAP7 SWAP3 SWAP6 POP SWAP1 SWAP4 POP POP JUMP JUMPDEST PUSH0 PUSH1 0x20 DUP3 DUP5 SUB SLT ISZERO PUSH2 0x1ABD JUMPI PUSH0 DUP1 REVERT JUMPDEST PUSH2 0x1991 DUP3 PUSH2 0x1A11 JUMP JUMPDEST PUSH1 0x80 DUP2 ADD PUSH2 0x1AD4 DUP3 DUP8 PUSH2 0x19E3 JUMP JUMPDEST PUSH8 0xFFFFFFFFFFFFFFFF DUP6 AND PUSH1 0x20 DUP4 ADD MSTORE DUP4 PUSH1 0x40 DUP4 ADD MSTORE DUP3 ISZERO ISZERO PUSH1 0x60 DUP4 ADD MSTORE SWAP6 SWAP5 POP POP POP POP POP JUMP JUMPDEST DUP1 CALLDATALOAD PUSH1 0x4 DUP2 LT PUSH2 0x1106 JUMPI PUSH0 DUP1 REVERT JUMPDEST PUSH0 DUP1 PUSH1 0x40 DUP4 DUP6 SUB SLT ISZERO PUSH2 0x1B1A JUMPI PUSH0 DUP1 REVERT JUMPDEST DUP3 CALLDATALOAD SWAP2 POP PUSH2 0x1A48 PUSH1 0x20 DUP5 ADD PUSH2 0x1AFB JUMP JUMPDEST PUSH0 PUSH1 0x20 DUP3 DUP5 SUB SLT ISZERO PUSH2 0x1B3A JUMPI PUSH0 DUP1 REVERT JUMPDEST DUP2 CALLDATALOAD PUSH2 0x1991 DUP2 PUSH2 0x1A51 JUMP JUMPDEST PUSH0 DUP1 PUSH1 0x40 DUP4 DUP6 SUB SLT ISZERO PUSH2 0x1B56 JUMPI PUSH0 DUP1 REVERT JUMPDEST PUSH2 0x1B5F DUP4 PUSH2 0x1AFB JUMP JUMPDEST SWAP5 PUSH1 0x20 SWAP4 SWAP1 SWAP4 ADD CALLDATALOAD SWAP4 POP POP POP JUMP JUMPDEST PUSH0 DUP3 PUSH2 0x1B87 JUMPI PUSH4 0x4E487B71 PUSH1 0xE0 SHL PUSH0 MSTORE PUSH1 0x12 PUSH1 0x4 MSTORE PUSH1 0x24 PUSH0 REVERT JUMPDEST POP DIV SWAP1 JUMP JUMPDEST PUSH0 PUSH1 0x20 DUP3 DUP5 SUB SLT ISZERO PUSH2 0x1B9C JUMPI PUSH0 DUP1 REVERT JUMPDEST DUP2 MLOAD PUSH1 0xFF DUP2 AND DUP2 EQ PUSH2 0x1991 JUMPI PUSH0 DUP1 REVERT JUMPDEST PUSH0 PUSH1 0x20 DUP3 DUP5 SUB SLT ISZERO PUSH2 0x1BBC JUMPI PUSH0 DUP1 REVERT JUMPDEST DUP2 MLOAD PUSH2 0x1991 DUP2 PUSH2 0x1A51 JUMP JUMPDEST PUSH0 PUSH1 0x1 DUP3 ADD PUSH2 0x1BE4 JUMPI PUSH4 0x4E487B71 PUSH1 0xE0 SHL PUSH0 MSTORE PUSH1 0x11 PUSH1 0x4 MSTORE PUSH1 0x24 PUSH0 REVERT JUMPDEST POP PUSH1 0x1 ADD SWAP1 JUMP INVALID LOG2 PUSH5 0x6970667358 0x22 SLT KECCAK256 PUSH30 0x658C5FB7C6E0671A3A6C2E5491F1774AACB8F79EE725FC21FB008F38BDAF LOG4 PUSH5 0x736F6C6343 STOP ADDMOD XOR STOP CALLER "},"methodIdentifiers":{"DEFAULT_ADMIN_ROLE()":"a217fddf","PRICE_SETTER_ROLE()":"f00acbaa","SESSION_MANAGER_ROLE()":"6a4f1c23","acceptUsabilityPlan(uint8,bytes32)":"ef998fe3","anchorContractZero(bytes32,bytes32)":"40b0b3e1","configureService(uint256,uint256,bool,uint32)":"3f32f904","consentRegistry()":"db89cf5b","contractZeroHash()":"d6872b51","contractZeroVersionHash()":"f16d2367","enforcePlanAcceptance()":"be882824","finalizeSession(uint256,bytes32)":"1266861e","getDailyCount(uint256,address)":"85addbea","getRoleAdmin(bytes32)":"248a9ca3","grantRole(bytes32,address)":"2f2ff15d","hasRequiredPlan(uint256,address)":"23813db9","hasRole(bytes32,address)":"91d14854","pause()":"8456cb59","paused()":"5c975abb","renounceRole(bytes32,address)":"36568abe","requestSession(uint256)":"8e66fcb5","requiredPlanByAvatar(uint256)":"1e6fb083","revokeOwnPlanAcceptance()":"afff59c1","revokeRole(bytes32,address)":"d547741f","serviceConfigs(uint256)":"9fc1d353","sessionCount()":"73cd8336","sessions(uint256)":"83c4b7a3","setAvatarRequiredPlan(uint256,uint8)":"a29a90cd","setConsentRegistry(address)":"a762576a","setPlanAcceptanceEnforcement(bool)":"bcd1526e","setTreasury(address)":"f0f44260","sglToken()":"62b24ea2","supportsInterface(bytes4)":"01ffc9a7","treasury()":"61d027b3","unpause()":"3f4ba83a","userPlanAcceptance(address)":"50058aea"}}}}}