{"contracts/ConsentRegistry.sol":{"ConsentRegistry":{"abi":[{"inputs":[{"internalType":"address","name":"admin","type":"address"}],"stateMutability":"nonpayable","type":"constructor"},{"inputs":[],"name":"AccessControlBadConfirmation","type":"error"},{"inputs":[{"internalType":"address","name":"account","type":"address"},{"internalType":"bytes32","name":"neededRole","type":"bytes32"}],"name":"AccessControlUnauthorizedAccount","type":"error"},{"inputs":[],"name":"EnforcedPause","type":"error"},{"inputs":[],"name":"ExpectedPause","type":"error"},{"anonymous":false,"inputs":[{"indexed":true,"internalType":"uint256","name":"avatarId","type":"uint256"},{"indexed":true,"internalType":"address","name":"user","type":"address"},{"indexed":false,"internalType":"uint8","name":"flags","type":"uint8"},{"indexed":false,"internalType":"bytes32","name":"documentHash","type":"bytes32"}],"name":"ConsentGranted","type":"event"},{"anonymous":false,"inputs":[{"indexed":true,"internalType":"uint256","name":"avatarId","type":"uint256"},{"indexed":true,"internalType":"address","name":"user","type":"address"},{"indexed":false,"internalType":"uint8","name":"revokedFlags","type":"uint8"},{"indexed":false,"internalType":"uint8","name":"remainingFlags","type":"uint8"}],"name":"ConsentRevoked","type":"event"},{"anonymous":false,"inputs":[{"indexed":false,"internalType":"address","name":"account","type":"address"}],"name":"Paused","type":"event"},{"anonymous":false,"inputs":[{"indexed":true,"internalType":"bytes32","name":"role","type":"bytes32"},{"indexed":true,"internalType":"bytes32","name":"previousAdminRole","type":"bytes32"},{"indexed":true,"internalType":"bytes32","name":"newAdminRole","type":"bytes32"}],"name":"RoleAdminChanged","type":"event"},{"anonymous":false,"inputs":[{"indexed":true,"internalType":"bytes32","name":"role","type":"bytes32"},{"indexed":true,"internalType":"address","name":"account","type":"address"},{"indexed":true,"internalType":"address","name":"sender","type":"address"}],"name":"RoleGranted","type":"event"},{"anonymous":false,"inputs":[{"indexed":true,"internalType":"bytes32","name":"role","type":"bytes32"},{"indexed":true,"internalType":"address","name":"account","type":"address"},{"indexed":true,"internalType":"address","name":"sender","type":"address"}],"name":"RoleRevoked","type":"event"},{"anonymous":false,"inputs":[{"indexed":false,"internalType":"address","name":"account","type":"address"}],"name":"Unpaused","type":"event"},{"inputs":[],"name":"CONSENT_DATA_SALE","outputs":[{"internalType":"uint8","name":"","type":"uint8"}],"stateMutability":"view","type":"function"},{"inputs":[],"name":"CONSENT_LEGAL_USE","outputs":[{"internalType":"uint8","name":"","type":"uint8"}],"stateMutability":"view","type":"function"},{"inputs":[],"name":"CONSENT_MANAGER_ROLE","outputs":[{"internalType":"bytes32","name":"","type":"bytes32"}],"stateMutability":"view","type":"function"},{"inputs":[],"name":"CONSENT_MARKETING","outputs":[{"internalType":"uint8","name":"","type":"uint8"}],"stateMutability":"view","type":"function"},{"inputs":[],"name":"CONSENT_VOICE","outputs":[{"internalType":"uint8","name":"","type":"uint8"}],"stateMutability":"view","type":"function"},{"inputs":[],"name":"DEFAULT_ADMIN_ROLE","outputs":[{"internalType":"bytes32","name":"","type":"bytes32"}],"stateMutability":"view","type":"function"},{"inputs":[{"internalType":"uint256","name":"avatarId","type":"uint256"},{"internalType":"address","name":"user","type":"address"}],"name":"getConsent","outputs":[{"components":[{"internalType":"uint8","name":"grantedFlags","type":"uint8"},{"internalType":"uint64","name":"lastUpdatedAt","type":"uint64"},{"internalType":"bytes32","name":"documentHash","type":"bytes32"}],"internalType":"struct ConsentRegistry.ConsentRecord","name":"","type":"tuple"}],"stateMutability":"view","type":"function"},{"inputs":[{"internalType":"bytes32","name":"role","type":"bytes32"}],"name":"getRoleAdmin","outputs":[{"internalType":"bytes32","name":"","type":"bytes32"}],"stateMutability":"view","type":"function"},{"inputs":[{"internalType":"uint256","name":"avatarId","type":"uint256"},{"internalType":"address","name":"user","type":"address"},{"internalType":"uint8","name":"flags","type":"uint8"},{"internalType":"bytes32","name":"documentHash","type":"bytes32"}],"name":"grantConsent","outputs":[],"stateMutability":"nonpayable","type":"function"},{"inputs":[{"internalType":"bytes32","name":"role","type":"bytes32"},{"internalType":"address","name":"account","type":"address"}],"name":"grantRole","outputs":[],"stateMutability":"nonpayable","type":"function"},{"inputs":[{"internalType":"uint256","name":"avatarId","type":"uint256"},{"internalType":"address","name":"user","type":"address"},{"internalType":"uint8","name":"flags","type":"uint8"}],"name":"hasConsent","outputs":[{"internalType":"bool","name":"","type":"bool"}],"stateMutability":"view","type":"function"},{"inputs":[{"internalType":"bytes32","name":"role","type":"bytes32"},{"internalType":"address","name":"account","type":"address"}],"name":"hasRole","outputs":[{"internalType":"bool","name":"","type":"bool"}],"stateMutability":"view","type":"function"},{"inputs":[],"name":"pause","outputs":[],"stateMutability":"nonpayable","type":"function"},{"inputs":[],"name":"paused","outputs":[{"internalType":"bool","name":"","type":"bool"}],"stateMutability":"view","type":"function"},{"inputs":[{"internalType":"bytes32","name":"role","type":"bytes32"},{"internalType":"address","name":"callerConfirmation","type":"address"}],"name":"renounceRole","outputs":[],"stateMutability":"nonpayable","type":"function"},{"inputs":[{"internalType":"uint256","name":"avatarId","type":"uint256"},{"internalType":"address","name":"user","type":"address"},{"internalType":"uint8","name":"flags","type":"uint8"}],"name":"revokeConsent","outputs":[],"stateMutability":"nonpayable","type":"function"},{"inputs":[{"internalType":"bytes32","name":"role","type":"bytes32"},{"internalType":"address","name":"account","type":"address"}],"name":"revokeRole","outputs":[],"stateMutability":"nonpayable","type":"function"},{"inputs":[{"internalType":"bytes4","name":"interfaceId","type":"bytes4"}],"name":"supportsInterface","outputs":[{"internalType":"bool","name":"","type":"bool"}],"stateMutability":"view","type":"function"},{"inputs":[],"name":"unpause","outputs":[],"stateMutability":"nonpayable","type":"function"}],"evm":{"bytecode":{"linkReferences":{},"object":"608060405234801561000f575f80fd5b50604051610cec380380610cec83398101604081905261002e9161016d565b6001600160a01b0381166100885760405162461bcd60e51b815260206004820152601660248201527f434f4e53454e543a20696e76616c69642061646d696e00000000000000000000604482015260640160405180910390fd5b6100925f826100c4565b506100bd7fc7b520d83ee7a61ea89b49f68cb90c31178aa99dd689d663d9c8fa388a862bc2826100c4565b505061019a565b5f828152602081815260408083206001600160a01b038516845290915281205460ff16610164575f838152602081815260408083206001600160a01b03861684529091529020805460ff1916600117905561011c3390565b6001600160a01b0316826001600160a01b0316847f2f8788117e7eff1d82e926ec794901d17c78024a50270940304540a733656f0d60405160405180910390a4506001610167565b505f5b92915050565b5f6020828403121561017d575f80fd5b81516001600160a01b0381168114610193575f80fd5b9392505050565b610b45806101a75f395ff3fe608060405234801561000f575f80fd5b506004361061011c575f3560e01c8063953b4795116100a9578063cc0ebd981161006e578063cc0ebd98146102cd578063d547741f146102f4578063d89c7e6214610307578063dbbbb17a1461030f578063f175250d14610317575f80fd5b8063953b4795146101e15780639d75b36c14610291578063a217fddf146102ab578063a267a3ac146102b2578063b955ac78146102ba575f80fd5b80633f4ba83a116100ef5780633f4ba83a146101a05780635c975abb146101a857806360ff42d7146101b35780638456cb59146101c657806391d14854146101ce575f80fd5b806301ffc9a714610120578063248a9ca3146101485780632f2ff15d1461017857806336568abe1461018d575b5f80fd5b61013361012e3660046109fb565b610356565b60405190151581526020015b60405180910390f35b61016a610156366004610a29565b5f9081526020819052604090206001015490565b60405190815260200161013f565b61018b610186366004610a5b565b61038c565b005b61018b61019b366004610a5b565b6103b6565b61018b6103ee565b60015460ff16610133565b61018b6101c1366004610a95565b610403565b61018b6105d9565b6101336101dc366004610a5b565b6105eb565b6102626101ef366004610a5b565b604080516060810182525f8082526020820181905291810191909152505f9182526002602090815260408084206001600160a01b03939093168452918152918190208151606081018352815460ff81168252610100900467ffffffffffffffff1693810193909352600101549082015290565b60408051825160ff16815260208084015167ffffffffffffffff1690820152918101519082015260600161013f565b610299600881565b60405160ff909116815260200161013f565b61016a5f81565b610299600281565b61018b6102c8366004610ace565b610613565b61016a7fc7b520d83ee7a61ea89b49f68cb90c31178aa99dd689d663d9c8fa388a862bc281565b61018b610302366004610a5b565b6107c2565b610299600481565b610299600181565b610133610325366004610a95565b5f9283526002602090815260408085206001600160a01b03949094168552929052912054811660ff90811691161490565b5f6001600160e01b03198216637965db0b60e01b148061038657506301ffc9a760e01b6001600160e01b03198316145b92915050565b5f828152602081905260409020600101546103a6816107e6565b6103b083836107f0565b50505050565b6001600160a01b03811633146103df5760405163334bd91960e11b815260040160405180910390fd5b6103e9828261087f565b505050565b5f6103f8816107e6565b6104006108e8565b50565b61040b61093a565b7fc7b520d83ee7a61ea89b49f68cb90c31178aa99dd689d663d9c8fa388a862bc2610435816107e6565b6001600160a01b0383166104885760405162461bcd60e51b815260206004820152601560248201527421a7a729a2a72a1d1034b73b30b634b2103ab9b2b960591b60448201526064015b60405180910390fd5b5f8260ff16116104d25760405162461bcd60e51b815260206004820152601560248201527410d3d394d153950e881b9bc8199b1859dcc81cd95d605a1b604482015260640161047f565b5f8481526002602090815260408083206001600160a01b038716845290915281208054909190841660ff1690036105595760405162461bcd60e51b815260206004820152602560248201527f434f4e53454e543a20666c616773206e6f742070726576696f75736c79206772604482015264185b9d195960da1b606482015260840161047f565b805460ff84198216811668ffffffffffffffffff19909216919091176101004267ffffffffffffffff1602178083556040805183871681529190921660208201526001600160a01b0386169187917f894d20a75db438f0d0d9fcb3995b45f031ab1b87f95a286db0b4691cdd61749e910160405180910390a35050505050565b5f6105e3816107e6565b610400610960565b5f918252602082815260408084206001600160a01b0393909316845291905290205460ff1690565b61061b61093a565b7fc7b520d83ee7a61ea89b49f68cb90c31178aa99dd689d663d9c8fa388a862bc2610645816107e6565b6001600160a01b0384166106935760405162461bcd60e51b815260206004820152601560248201527421a7a729a2a72a1d1034b73b30b634b2103ab9b2b960591b604482015260640161047f565b5f8360ff16116106dd5760405162461bcd60e51b815260206004820152601560248201527410d3d394d153950e881b9bc8199b1859dcc81cd95d605a1b604482015260640161047f565b8161072a5760405162461bcd60e51b815260206004820152601e60248201527f434f4e53454e543a20696e76616c696420646f63756d656e7420686173680000604482015260640161047f565b5f8581526002602090815260408083206001600160a01b03881680855290835292819020805467ffffffffffffffff42166101000268ffffffffffffffffff19821660ff8a81169316831717178255600182018790558251908152928301869052929188917f76ac1a894e54c155ef029e434777e881db6bae8bd3369c734104e2d3b24c69ed910160405180910390a3505050505050565b5f828152602081905260409020600101546107dc816107e6565b6103b0838361087f565b610400813361099b565b5f6107fb83836105eb565b610878575f838152602081815260408083206001600160a01b03861684529091529020805460ff191660011790556108303390565b6001600160a01b0316826001600160a01b0316847f2f8788117e7eff1d82e926ec794901d17c78024a50270940304540a733656f0d60405160405180910390a4506001610386565b505f610386565b5f61088a83836105eb565b15610878575f838152602081815260408083206001600160a01b0386168085529252808320805460ff1916905551339286917ff6391f5c32d9c69d2a47ea670b442974b53935d1edc7fd64eb21e047a839171b9190a4506001610386565b6108f06109d8565b6001805460ff191690557f5db9ee0a495bf2e6ff9c91a7834c1ba4fdd244a5e8aa4e537bd38aeae4b073aa335b6040516001600160a01b03909116815260200160405180910390a1565b60015460ff161561095e5760405163d93c066560e01b815260040160405180910390fd5b565b61096861093a565b6001805460ff1916811790557f62e78cea01bee320cd4e420270b5ea74000d11b0c9f74754ebdbfc544b05a2583361091d565b6109a582826105eb565b6109d45760405163e2517d3f60e01b81526001600160a01b03821660048201526024810183905260440161047f565b5050565b60015460ff1661095e57604051638dfc202b60e01b815260040160405180910390fd5b5f60208284031215610a0b575f80fd5b81356001600160e01b031981168114610a22575f80fd5b9392505050565b5f60208284031215610a39575f80fd5b5035919050565b80356001600160a01b0381168114610a56575f80fd5b919050565b5f8060408385031215610a6c575f80fd5b82359150610a7c60208401610a40565b90509250929050565b803560ff81168114610a56575f80fd5b5f805f60608486031215610aa7575f80fd5b83359250610ab760208501610a40565b9150610ac560408501610a85565b90509250925092565b5f805f8060808587031215610ae1575f80fd5b84359350610af160208601610a40565b9250610aff60408601610a85565b939692955092936060013592505056fea26469706673582212204a764056a34bc786b842092fb290dd0ceb8b7e8d06bf448841de619a485c910264736f6c63430008180033","opcodes":"PUSH1 0x80 PUSH1 0x40 MSTORE CALLVALUE DUP1 ISZERO PUSH2 0xF JUMPI PUSH0 DUP1 REVERT JUMPDEST POP PUSH1 0x40 MLOAD PUSH2 0xCEC CODESIZE SUB DUP1 PUSH2 0xCEC DUP4 CODECOPY DUP2 ADD PUSH1 0x40 DUP2 SWAP1 MSTORE PUSH2 0x2E SWAP2 PUSH2 0x16D JUMP JUMPDEST PUSH1 0x1 PUSH1 0x1 PUSH1 0xA0 SHL SUB DUP2 AND PUSH2 0x88 JUMPI PUSH1 0x40 MLOAD PUSH3 0x461BCD PUSH1 0xE5 SHL DUP2 MSTORE PUSH1 0x20 PUSH1 0x4 DUP3 ADD MSTORE PUSH1 0x16 PUSH1 0x24 DUP3 ADD MSTORE PUSH32 0x434F4E53454E543A20696E76616C69642061646D696E00000000000000000000 PUSH1 0x44 DUP3 ADD MSTORE PUSH1 0x64 ADD PUSH1 0x40 MLOAD DUP1 SWAP2 SUB SWAP1 REVERT JUMPDEST PUSH2 0x92 PUSH0 DUP3 PUSH2 0xC4 JUMP JUMPDEST POP PUSH2 0xBD PUSH32 0xC7B520D83EE7A61EA89B49F68CB90C31178AA99DD689D663D9C8FA388A862BC2 DUP3 PUSH2 0xC4 JUMP JUMPDEST POP POP PUSH2 0x19A JUMP JUMPDEST PUSH0 DUP3 DUP2 MSTORE PUSH1 0x20 DUP2 DUP2 MSTORE PUSH1 0x40 DUP1 DUP4 KECCAK256 PUSH1 0x1 PUSH1 0x1 PUSH1 0xA0 SHL SUB DUP6 AND DUP5 MSTORE SWAP1 SWAP2 MSTORE DUP2 KECCAK256 SLOAD PUSH1 0xFF AND PUSH2 0x164 JUMPI PUSH0 DUP4 DUP2 MSTORE PUSH1 0x20 DUP2 DUP2 MSTORE PUSH1 0x40 DUP1 DUP4 KECCAK256 PUSH1 0x1 PUSH1 0x1 PUSH1 0xA0 SHL SUB DUP7 AND DUP5 MSTORE SWAP1 SWAP2 MSTORE SWAP1 KECCAK256 DUP1 SLOAD PUSH1 0xFF NOT AND PUSH1 0x1 OR SWAP1 SSTORE PUSH2 0x11C CALLER SWAP1 JUMP JUMPDEST PUSH1 0x1 PUSH1 0x1 PUSH1 0xA0 SHL SUB AND DUP3 PUSH1 0x1 PUSH1 0x1 PUSH1 0xA0 SHL SUB AND DUP5 PUSH32 0x2F8788117E7EFF1D82E926EC794901D17C78024A50270940304540A733656F0D PUSH1 0x40 MLOAD PUSH1 0x40 MLOAD DUP1 SWAP2 SUB SWAP1 LOG4 POP PUSH1 0x1 PUSH2 0x167 JUMP JUMPDEST POP PUSH0 JUMPDEST SWAP3 SWAP2 POP POP JUMP JUMPDEST PUSH0 PUSH1 0x20 DUP3 DUP5 SUB SLT ISZERO PUSH2 0x17D JUMPI PUSH0 DUP1 REVERT JUMPDEST DUP2 MLOAD PUSH1 0x1 PUSH1 0x1 PUSH1 0xA0 SHL SUB DUP2 AND DUP2 EQ PUSH2 0x193 JUMPI PUSH0 DUP1 REVERT JUMPDEST SWAP4 SWAP3 POP POP POP JUMP JUMPDEST PUSH2 0xB45 DUP1 PUSH2 0x1A7 PUSH0 CODECOPY PUSH0 RETURN INVALID PUSH1 0x80 PUSH1 0x40 MSTORE CALLVALUE DUP1 ISZERO PUSH2 0xF JUMPI PUSH0 DUP1 REVERT JUMPDEST POP PUSH1 0x4 CALLDATASIZE LT PUSH2 0x11C JUMPI PUSH0 CALLDATALOAD PUSH1 0xE0 SHR DUP1 PUSH4 0x953B4795 GT PUSH2 0xA9 JUMPI DUP1 PUSH4 0xCC0EBD98 GT PUSH2 0x6E JUMPI DUP1 PUSH4 0xCC0EBD98 EQ PUSH2 0x2CD JUMPI DUP1 PUSH4 0xD547741F EQ PUSH2 0x2F4 JUMPI DUP1 PUSH4 0xD89C7E62 EQ PUSH2 0x307 JUMPI DUP1 PUSH4 0xDBBBB17A EQ PUSH2 0x30F JUMPI DUP1 PUSH4 0xF175250D EQ PUSH2 0x317 JUMPI PUSH0 DUP1 REVERT JUMPDEST DUP1 PUSH4 0x953B4795 EQ PUSH2 0x1E1 JUMPI DUP1 PUSH4 0x9D75B36C EQ PUSH2 0x291 JUMPI DUP1 PUSH4 0xA217FDDF EQ PUSH2 0x2AB JUMPI DUP1 PUSH4 0xA267A3AC EQ PUSH2 0x2B2 JUMPI DUP1 PUSH4 0xB955AC78 EQ PUSH2 0x2BA JUMPI PUSH0 DUP1 REVERT JUMPDEST DUP1 PUSH4 0x3F4BA83A GT PUSH2 0xEF JUMPI DUP1 PUSH4 0x3F4BA83A EQ PUSH2 0x1A0 JUMPI DUP1 PUSH4 0x5C975ABB EQ PUSH2 0x1A8 JUMPI DUP1 PUSH4 0x60FF42D7 EQ PUSH2 0x1B3 JUMPI DUP1 PUSH4 0x8456CB59 EQ PUSH2 0x1C6 JUMPI DUP1 PUSH4 0x91D14854 EQ PUSH2 0x1CE JUMPI PUSH0 DUP1 REVERT JUMPDEST DUP1 PUSH4 0x1FFC9A7 EQ PUSH2 0x120 JUMPI DUP1 PUSH4 0x248A9CA3 EQ PUSH2 0x148 JUMPI DUP1 PUSH4 0x2F2FF15D EQ PUSH2 0x178 JUMPI DUP1 PUSH4 0x36568ABE EQ PUSH2 0x18D JUMPI JUMPDEST PUSH0 DUP1 REVERT JUMPDEST PUSH2 0x133 PUSH2 0x12E CALLDATASIZE PUSH1 0x4 PUSH2 0x9FB JUMP JUMPDEST PUSH2 0x356 JUMP JUMPDEST PUSH1 0x40 MLOAD SWAP1 ISZERO ISZERO DUP2 MSTORE PUSH1 0x20 ADD JUMPDEST PUSH1 0x40 MLOAD DUP1 SWAP2 SUB SWAP1 RETURN JUMPDEST PUSH2 0x16A PUSH2 0x156 CALLDATASIZE PUSH1 0x4 PUSH2 0xA29 JUMP JUMPDEST PUSH0 SWAP1 DUP2 MSTORE PUSH1 0x20 DUP2 SWAP1 MSTORE PUSH1 0x40 SWAP1 KECCAK256 PUSH1 0x1 ADD SLOAD SWAP1 JUMP JUMPDEST PUSH1 0x40 MLOAD SWAP1 DUP2 MSTORE PUSH1 0x20 ADD PUSH2 0x13F JUMP JUMPDEST PUSH2 0x18B PUSH2 0x186 CALLDATASIZE PUSH1 0x4 PUSH2 0xA5B JUMP JUMPDEST PUSH2 0x38C JUMP JUMPDEST STOP JUMPDEST PUSH2 0x18B PUSH2 0x19B CALLDATASIZE PUSH1 0x4 PUSH2 0xA5B JUMP JUMPDEST PUSH2 0x3B6 JUMP JUMPDEST PUSH2 0x18B PUSH2 0x3EE JUMP JUMPDEST PUSH1 0x1 SLOAD PUSH1 0xFF AND PUSH2 0x133 JUMP JUMPDEST PUSH2 0x18B PUSH2 0x1C1 CALLDATASIZE PUSH1 0x4 PUSH2 0xA95 JUMP JUMPDEST PUSH2 0x403 JUMP JUMPDEST PUSH2 0x18B PUSH2 0x5D9 JUMP JUMPDEST PUSH2 0x133 PUSH2 0x1DC CALLDATASIZE PUSH1 0x4 PUSH2 0xA5B JUMP JUMPDEST PUSH2 0x5EB JUMP JUMPDEST PUSH2 0x262 PUSH2 0x1EF CALLDATASIZE PUSH1 0x4 PUSH2 0xA5B JUMP JUMPDEST PUSH1 0x40 DUP1 MLOAD PUSH1 0x60 DUP2 ADD DUP3 MSTORE PUSH0 DUP1 DUP3 MSTORE PUSH1 0x20 DUP3 ADD DUP2 SWAP1 MSTORE SWAP2 DUP2 ADD SWAP2 SWAP1 SWAP2 MSTORE POP PUSH0 SWAP2 DUP3 MSTORE PUSH1 0x2 PUSH1 0x20 SWAP1 DUP2 MSTORE PUSH1 0x40 DUP1 DUP5 KECCAK256 PUSH1 0x1 PUSH1 0x1 PUSH1 0xA0 SHL SUB SWAP4 SWAP1 SWAP4 AND DUP5 MSTORE SWAP2 DUP2 MSTORE SWAP2 DUP2 SWAP1 KECCAK256 DUP2 MLOAD PUSH1 0x60 DUP2 ADD DUP4 MSTORE DUP2 SLOAD PUSH1 0xFF DUP2 AND DUP3 MSTORE PUSH2 0x100 SWAP1 DIV PUSH8 0xFFFFFFFFFFFFFFFF AND SWAP4 DUP2 ADD SWAP4 SWAP1 SWAP4 MSTORE PUSH1 0x1 ADD SLOAD SWAP1 DUP3 ADD MSTORE SWAP1 JUMP JUMPDEST PUSH1 0x40 DUP1 MLOAD DUP3 MLOAD PUSH1 0xFF AND DUP2 MSTORE PUSH1 0x20 DUP1 DUP5 ADD MLOAD PUSH8 0xFFFFFFFFFFFFFFFF AND SWAP1 DUP3 ADD MSTORE SWAP2 DUP2 ADD MLOAD SWAP1 DUP3 ADD MSTORE PUSH1 0x60 ADD PUSH2 0x13F JUMP JUMPDEST PUSH2 0x299 PUSH1 0x8 DUP2 JUMP JUMPDEST PUSH1 0x40 MLOAD PUSH1 0xFF SWAP1 SWAP2 AND DUP2 MSTORE PUSH1 0x20 ADD PUSH2 0x13F JUMP JUMPDEST PUSH2 0x16A PUSH0 DUP2 JUMP JUMPDEST PUSH2 0x299 PUSH1 0x2 DUP2 JUMP JUMPDEST PUSH2 0x18B PUSH2 0x2C8 CALLDATASIZE PUSH1 0x4 PUSH2 0xACE JUMP JUMPDEST PUSH2 0x613 JUMP JUMPDEST PUSH2 0x16A PUSH32 0xC7B520D83EE7A61EA89B49F68CB90C31178AA99DD689D663D9C8FA388A862BC2 DUP2 JUMP JUMPDEST PUSH2 0x18B PUSH2 0x302 CALLDATASIZE PUSH1 0x4 PUSH2 0xA5B JUMP JUMPDEST PUSH2 0x7C2 JUMP JUMPDEST PUSH2 0x299 PUSH1 0x4 DUP2 JUMP JUMPDEST PUSH2 0x299 PUSH1 0x1 DUP2 JUMP JUMPDEST PUSH2 0x133 PUSH2 0x325 CALLDATASIZE PUSH1 0x4 PUSH2 0xA95 JUMP JUMPDEST PUSH0 SWAP3 DUP4 MSTORE PUSH1 0x2 PUSH1 0x20 SWAP1 DUP2 MSTORE PUSH1 0x40 DUP1 DUP6 KECCAK256 PUSH1 0x1 PUSH1 0x1 PUSH1 0xA0 SHL SUB SWAP5 SWAP1 SWAP5 AND DUP6 MSTORE SWAP3 SWAP1 MSTORE SWAP2 KECCAK256 SLOAD DUP2 AND PUSH1 0xFF SWAP1 DUP2 AND SWAP2 AND EQ SWAP1 JUMP JUMPDEST PUSH0 PUSH1 0x1 PUSH1 0x1 PUSH1 0xE0 SHL SUB NOT DUP3 AND PUSH4 0x7965DB0B PUSH1 0xE0 SHL EQ DUP1 PUSH2 0x386 JUMPI POP PUSH4 0x1FFC9A7 PUSH1 0xE0 SHL PUSH1 0x1 PUSH1 0x1 PUSH1 0xE0 SHL SUB NOT DUP4 AND EQ JUMPDEST SWAP3 SWAP2 POP POP JUMP JUMPDEST PUSH0 DUP3 DUP2 MSTORE PUSH1 0x20 DUP2 SWAP1 MSTORE PUSH1 0x40 SWAP1 KECCAK256 PUSH1 0x1 ADD SLOAD PUSH2 0x3A6 DUP2 PUSH2 0x7E6 JUMP JUMPDEST PUSH2 0x3B0 DUP4 DUP4 PUSH2 0x7F0 JUMP JUMPDEST POP POP POP POP JUMP JUMPDEST PUSH1 0x1 PUSH1 0x1 PUSH1 0xA0 SHL SUB DUP2 AND CALLER EQ PUSH2 0x3DF JUMPI PUSH1 0x40 MLOAD PUSH4 0x334BD919 PUSH1 0xE1 SHL DUP2 MSTORE PUSH1 0x4 ADD PUSH1 0x40 MLOAD DUP1 SWAP2 SUB SWAP1 REVERT JUMPDEST PUSH2 0x3E9 DUP3 DUP3 PUSH2 0x87F JUMP JUMPDEST POP POP POP JUMP JUMPDEST PUSH0 PUSH2 0x3F8 DUP2 PUSH2 0x7E6 JUMP JUMPDEST PUSH2 0x400 PUSH2 0x8E8 JUMP JUMPDEST POP JUMP JUMPDEST PUSH2 0x40B PUSH2 0x93A JUMP JUMPDEST PUSH32 0xC7B520D83EE7A61EA89B49F68CB90C31178AA99DD689D663D9C8FA388A862BC2 PUSH2 0x435 DUP2 PUSH2 0x7E6 JUMP JUMPDEST PUSH1 0x1 PUSH1 0x1 PUSH1 0xA0 SHL SUB DUP4 AND PUSH2 0x488 JUMPI PUSH1 0x40 MLOAD PUSH3 0x461BCD PUSH1 0xE5 SHL DUP2 MSTORE PUSH1 0x20 PUSH1 0x4 DUP3 ADD MSTORE PUSH1 0x15 PUSH1 0x24 DUP3 ADD MSTORE PUSH21 0x21A7A729A2A72A1D1034B73B30B634B2103AB9B2B9 PUSH1 0x59 SHL PUSH1 0x44 DUP3 ADD MSTORE PUSH1 0x64 ADD JUMPDEST PUSH1 0x40 MLOAD DUP1 SWAP2 SUB SWAP1 REVERT JUMPDEST PUSH0 DUP3 PUSH1 0xFF AND GT PUSH2 0x4D2 JUMPI PUSH1 0x40 MLOAD PUSH3 0x461BCD PUSH1 0xE5 SHL DUP2 MSTORE PUSH1 0x20 PUSH1 0x4 DUP3 ADD MSTORE PUSH1 0x15 PUSH1 0x24 DUP3 ADD MSTORE PUSH21 0x10D3D394D153950E881B9BC8199B1859DCC81CD95D PUSH1 0x5A SHL PUSH1 0x44 DUP3 ADD MSTORE PUSH1 0x64 ADD PUSH2 0x47F JUMP JUMPDEST PUSH0 DUP5 DUP2 MSTORE PUSH1 0x2 PUSH1 0x20 SWAP1 DUP2 MSTORE PUSH1 0x40 DUP1 DUP4 KECCAK256 PUSH1 0x1 PUSH1 0x1 PUSH1 0xA0 SHL SUB DUP8 AND DUP5 MSTORE SWAP1 SWAP2 MSTORE DUP2 KECCAK256 DUP1 SLOAD SWAP1 SWAP2 SWAP1 DUP5 AND PUSH1 0xFF AND SWAP1 SUB PUSH2 0x559 JUMPI PUSH1 0x40 MLOAD PUSH3 0x461BCD PUSH1 0xE5 SHL DUP2 MSTORE PUSH1 0x20 PUSH1 0x4 DUP3 ADD MSTORE PUSH1 0x25 PUSH1 0x24 DUP3 ADD MSTORE PUSH32 0x434F4E53454E543A20666C616773206E6F742070726576696F75736C79206772 PUSH1 0x44 DUP3 ADD MSTORE PUSH5 0x185B9D1959 PUSH1 0xDA SHL PUSH1 0x64 DUP3 ADD MSTORE PUSH1 0x84 ADD PUSH2 0x47F JUMP JUMPDEST DUP1 SLOAD PUSH1 0xFF DUP5 NOT DUP3 AND DUP2 AND PUSH9 0xFFFFFFFFFFFFFFFFFF NOT SWAP1 SWAP3 AND SWAP2 SWAP1 SWAP2 OR PUSH2 0x100 TIMESTAMP PUSH8 0xFFFFFFFFFFFFFFFF AND MUL OR DUP1 DUP4 SSTORE PUSH1 0x40 DUP1 MLOAD DUP4 DUP8 AND DUP2 MSTORE SWAP2 SWAP1 SWAP3 AND PUSH1 0x20 DUP3 ADD MSTORE PUSH1 0x1 PUSH1 0x1 PUSH1 0xA0 SHL SUB DUP7 AND SWAP2 DUP8 SWAP2 PUSH32 0x894D20A75DB438F0D0D9FCB3995B45F031AB1B87F95A286DB0B4691CDD61749E SWAP2 ADD PUSH1 0x40 MLOAD DUP1 SWAP2 SUB SWAP1 LOG3 POP POP POP POP POP JUMP JUMPDEST PUSH0 PUSH2 0x5E3 DUP2 PUSH2 0x7E6 JUMP JUMPDEST PUSH2 0x400 PUSH2 0x960 JUMP JUMPDEST PUSH0 SWAP2 DUP3 MSTORE PUSH1 0x20 DUP3 DUP2 MSTORE PUSH1 0x40 DUP1 DUP5 KECCAK256 PUSH1 0x1 PUSH1 0x1 PUSH1 0xA0 SHL SUB SWAP4 SWAP1 SWAP4 AND DUP5 MSTORE SWAP2 SWAP1 MSTORE SWAP1 KECCAK256 SLOAD PUSH1 0xFF AND SWAP1 JUMP JUMPDEST PUSH2 0x61B PUSH2 0x93A JUMP JUMPDEST PUSH32 0xC7B520D83EE7A61EA89B49F68CB90C31178AA99DD689D663D9C8FA388A862BC2 PUSH2 0x645 DUP2 PUSH2 0x7E6 JUMP JUMPDEST PUSH1 0x1 PUSH1 0x1 PUSH1 0xA0 SHL SUB DUP5 AND PUSH2 0x693 JUMPI PUSH1 0x40 MLOAD PUSH3 0x461BCD PUSH1 0xE5 SHL DUP2 MSTORE PUSH1 0x20 PUSH1 0x4 DUP3 ADD MSTORE PUSH1 0x15 PUSH1 0x24 DUP3 ADD MSTORE PUSH21 0x21A7A729A2A72A1D1034B73B30B634B2103AB9B2B9 PUSH1 0x59 SHL PUSH1 0x44 DUP3 ADD MSTORE PUSH1 0x64 ADD PUSH2 0x47F JUMP JUMPDEST PUSH0 DUP4 PUSH1 0xFF AND GT PUSH2 0x6DD JUMPI PUSH1 0x40 MLOAD PUSH3 0x461BCD PUSH1 0xE5 SHL DUP2 MSTORE PUSH1 0x20 PUSH1 0x4 DUP3 ADD MSTORE PUSH1 0x15 PUSH1 0x24 DUP3 ADD MSTORE PUSH21 0x10D3D394D153950E881B9BC8199B1859DCC81CD95D PUSH1 0x5A SHL PUSH1 0x44 DUP3 ADD MSTORE PUSH1 0x64 ADD PUSH2 0x47F JUMP JUMPDEST DUP2 PUSH2 0x72A JUMPI PUSH1 0x40 MLOAD PUSH3 0x461BCD PUSH1 0xE5 SHL DUP2 MSTORE PUSH1 0x20 PUSH1 0x4 DUP3 ADD MSTORE PUSH1 0x1E PUSH1 0x24 DUP3 ADD MSTORE PUSH32 0x434F4E53454E543A20696E76616C696420646F63756D656E7420686173680000 PUSH1 0x44 DUP3 ADD MSTORE PUSH1 0x64 ADD PUSH2 0x47F JUMP JUMPDEST PUSH0 DUP6 DUP2 MSTORE PUSH1 0x2 PUSH1 0x20 SWAP1 DUP2 MSTORE PUSH1 0x40 DUP1 DUP4 KECCAK256 PUSH1 0x1 PUSH1 0x1 PUSH1 0xA0 SHL SUB DUP9 AND DUP1 DUP6 MSTORE SWAP1 DUP4 MSTORE SWAP3 DUP2 SWAP1 KECCAK256 DUP1 SLOAD PUSH8 0xFFFFFFFFFFFFFFFF TIMESTAMP AND PUSH2 0x100 MUL PUSH9 0xFFFFFFFFFFFFFFFFFF NOT DUP3 AND PUSH1 0xFF DUP11 DUP2 AND SWAP4 AND DUP4 OR OR OR DUP3 SSTORE PUSH1 0x1 DUP3 ADD DUP8 SWAP1 SSTORE DUP3 MLOAD SWAP1 DUP2 MSTORE SWAP3 DUP4 ADD DUP7 SWAP1 MSTORE SWAP3 SWAP2 DUP9 SWAP2 PUSH32 0x76AC1A894E54C155EF029E434777E881DB6BAE8BD3369C734104E2D3B24C69ED SWAP2 ADD PUSH1 0x40 MLOAD DUP1 SWAP2 SUB SWAP1 LOG3 POP POP POP POP POP POP JUMP JUMPDEST PUSH0 DUP3 DUP2 MSTORE PUSH1 0x20 DUP2 SWAP1 MSTORE PUSH1 0x40 SWAP1 KECCAK256 PUSH1 0x1 ADD SLOAD PUSH2 0x7DC DUP2 PUSH2 0x7E6 JUMP JUMPDEST PUSH2 0x3B0 DUP4 DUP4 PUSH2 0x87F JUMP JUMPDEST PUSH2 0x400 DUP2 CALLER PUSH2 0x99B JUMP JUMPDEST PUSH0 PUSH2 0x7FB DUP4 DUP4 PUSH2 0x5EB JUMP JUMPDEST PUSH2 0x878 JUMPI PUSH0 DUP4 DUP2 MSTORE PUSH1 0x20 DUP2 DUP2 MSTORE PUSH1 0x40 DUP1 DUP4 KECCAK256 PUSH1 0x1 PUSH1 0x1 PUSH1 0xA0 SHL SUB DUP7 AND DUP5 MSTORE SWAP1 SWAP2 MSTORE SWAP1 KECCAK256 DUP1 SLOAD PUSH1 0xFF NOT AND PUSH1 0x1 OR SWAP1 SSTORE PUSH2 0x830 CALLER SWAP1 JUMP JUMPDEST PUSH1 0x1 PUSH1 0x1 PUSH1 0xA0 SHL SUB AND DUP3 PUSH1 0x1 PUSH1 0x1 PUSH1 0xA0 SHL SUB AND DUP5 PUSH32 0x2F8788117E7EFF1D82E926EC794901D17C78024A50270940304540A733656F0D PUSH1 0x40 MLOAD PUSH1 0x40 MLOAD DUP1 SWAP2 SUB SWAP1 LOG4 POP PUSH1 0x1 PUSH2 0x386 JUMP JUMPDEST POP PUSH0 PUSH2 0x386 JUMP JUMPDEST PUSH0 PUSH2 0x88A DUP4 DUP4 PUSH2 0x5EB JUMP JUMPDEST ISZERO PUSH2 0x878 JUMPI PUSH0 DUP4 DUP2 MSTORE PUSH1 0x20 DUP2 DUP2 MSTORE PUSH1 0x40 DUP1 DUP4 KECCAK256 PUSH1 0x1 PUSH1 0x1 PUSH1 0xA0 SHL SUB DUP7 AND DUP1 DUP6 MSTORE SWAP3 MSTORE DUP1 DUP4 KECCAK256 DUP1 SLOAD PUSH1 0xFF NOT AND SWAP1 SSTORE MLOAD CALLER SWAP3 DUP7 SWAP2 PUSH32 0xF6391F5C32D9C69D2A47EA670B442974B53935D1EDC7FD64EB21E047A839171B SWAP2 SWAP1 LOG4 POP PUSH1 0x1 PUSH2 0x386 JUMP JUMPDEST PUSH2 0x8F0 PUSH2 0x9D8 JUMP JUMPDEST PUSH1 0x1 DUP1 SLOAD PUSH1 0xFF NOT AND SWAP1 SSTORE PUSH32 0x5DB9EE0A495BF2E6FF9C91A7834C1BA4FDD244A5E8AA4E537BD38AEAE4B073AA CALLER JUMPDEST PUSH1 0x40 MLOAD PUSH1 0x1 PUSH1 0x1 PUSH1 0xA0 SHL SUB SWAP1 SWAP2 AND DUP2 MSTORE PUSH1 0x20 ADD PUSH1 0x40 MLOAD DUP1 SWAP2 SUB SWAP1 LOG1 JUMP JUMPDEST PUSH1 0x1 SLOAD PUSH1 0xFF AND ISZERO PUSH2 0x95E JUMPI PUSH1 0x40 MLOAD PUSH4 0xD93C0665 PUSH1 0xE0 SHL DUP2 MSTORE PUSH1 0x4 ADD PUSH1 0x40 MLOAD DUP1 SWAP2 SUB SWAP1 REVERT JUMPDEST JUMP JUMPDEST PUSH2 0x968 PUSH2 0x93A JUMP JUMPDEST PUSH1 0x1 DUP1 SLOAD PUSH1 0xFF NOT AND DUP2 OR SWAP1 SSTORE PUSH32 0x62E78CEA01BEE320CD4E420270B5EA74000D11B0C9F74754EBDBFC544B05A258 CALLER PUSH2 0x91D JUMP JUMPDEST PUSH2 0x9A5 DUP3 DUP3 PUSH2 0x5EB JUMP JUMPDEST PUSH2 0x9D4 JUMPI PUSH1 0x40 MLOAD PUSH4 0xE2517D3F PUSH1 0xE0 SHL DUP2 MSTORE PUSH1 0x1 PUSH1 0x1 PUSH1 0xA0 SHL SUB DUP3 AND PUSH1 0x4 DUP3 ADD MSTORE PUSH1 0x24 DUP2 ADD DUP4 SWAP1 MSTORE PUSH1 0x44 ADD PUSH2 0x47F JUMP JUMPDEST POP POP JUMP JUMPDEST PUSH1 0x1 SLOAD PUSH1 0xFF AND PUSH2 0x95E JUMPI PUSH1 0x40 MLOAD PUSH4 0x8DFC202B PUSH1 0xE0 SHL DUP2 MSTORE PUSH1 0x4 ADD PUSH1 0x40 MLOAD DUP1 SWAP2 SUB SWAP1 REVERT JUMPDEST PUSH0 PUSH1 0x20 DUP3 DUP5 SUB SLT ISZERO PUSH2 0xA0B JUMPI PUSH0 DUP1 REVERT JUMPDEST DUP2 CALLDATALOAD PUSH1 0x1 PUSH1 0x1 PUSH1 0xE0 SHL SUB NOT DUP2 AND DUP2 EQ PUSH2 0xA22 JUMPI PUSH0 DUP1 REVERT JUMPDEST SWAP4 SWAP3 POP POP POP JUMP JUMPDEST PUSH0 PUSH1 0x20 DUP3 DUP5 SUB SLT ISZERO PUSH2 0xA39 JUMPI PUSH0 DUP1 REVERT JUMPDEST POP CALLDATALOAD SWAP2 SWAP1 POP JUMP JUMPDEST DUP1 CALLDATALOAD PUSH1 0x1 PUSH1 0x1 PUSH1 0xA0 SHL SUB DUP2 AND DUP2 EQ PUSH2 0xA56 JUMPI PUSH0 DUP1 REVERT JUMPDEST SWAP2 SWAP1 POP JUMP JUMPDEST PUSH0 DUP1 PUSH1 0x40 DUP4 DUP6 SUB SLT ISZERO PUSH2 0xA6C JUMPI PUSH0 DUP1 REVERT JUMPDEST DUP3 CALLDATALOAD SWAP2 POP PUSH2 0xA7C PUSH1 0x20 DUP5 ADD PUSH2 0xA40 JUMP JUMPDEST SWAP1 POP SWAP3 POP SWAP3 SWAP1 POP JUMP JUMPDEST DUP1 CALLDATALOAD PUSH1 0xFF DUP2 AND DUP2 EQ PUSH2 0xA56 JUMPI PUSH0 DUP1 REVERT JUMPDEST PUSH0 DUP1 PUSH0 PUSH1 0x60 DUP5 DUP7 SUB SLT ISZERO PUSH2 0xAA7 JUMPI PUSH0 DUP1 REVERT JUMPDEST DUP4 CALLDATALOAD SWAP3 POP PUSH2 0xAB7 PUSH1 0x20 DUP6 ADD PUSH2 0xA40 JUMP JUMPDEST SWAP2 POP PUSH2 0xAC5 PUSH1 0x40 DUP6 ADD PUSH2 0xA85 JUMP JUMPDEST SWAP1 POP SWAP3 POP SWAP3 POP SWAP3 JUMP JUMPDEST PUSH0 DUP1 PUSH0 DUP1 PUSH1 0x80 DUP6 DUP8 SUB SLT ISZERO PUSH2 0xAE1 JUMPI PUSH0 DUP1 REVERT JUMPDEST DUP5 CALLDATALOAD SWAP4 POP PUSH2 0xAF1 PUSH1 0x20 DUP7 ADD PUSH2 0xA40 JUMP JUMPDEST SWAP3 POP PUSH2 0xAFF PUSH1 0x40 DUP7 ADD PUSH2 0xA85 JUMP JUMPDEST SWAP4 SWAP7 SWAP3 SWAP6 POP SWAP3 SWAP4 PUSH1 0x60 ADD CALLDATALOAD SWAP3 POP POP JUMP INVALID LOG2 PUSH5 0x6970667358 0x22 SLT KECCAK256 BLOBBASEFEE PUSH23 0x4056A34BC786B842092FB290DD0CEB8B7E8D06BF448841 0xDE PUSH2 0x9A48 TLOAD SWAP2 MUL PUSH5 0x736F6C6343 STOP ADDMOD XOR STOP CALLER "},"methodIdentifiers":{"CONSENT_DATA_SALE()":"d89c7e62","CONSENT_LEGAL_USE()":"9d75b36c","CONSENT_MANAGER_ROLE()":"cc0ebd98","CONSENT_MARKETING()":"a267a3ac","CONSENT_VOICE()":"dbbbb17a","DEFAULT_ADMIN_ROLE()":"a217fddf","getConsent(uint256,address)":"953b4795","getRoleAdmin(bytes32)":"248a9ca3","grantConsent(uint256,address,uint8,bytes32)":"b955ac78","grantRole(bytes32,address)":"2f2ff15d","hasConsent(uint256,address,uint8)":"f175250d","hasRole(bytes32,address)":"91d14854","pause()":"8456cb59","paused()":"5c975abb","renounceRole(bytes32,address)":"36568abe","revokeConsent(uint256,address,uint8)":"60ff42d7","revokeRole(bytes32,address)":"d547741f","supportsInterface(bytes4)":"01ffc9a7","unpause()":"3f4ba83a"}}}}}