{"contracts/AvatarWalletLink.sol":{"AvatarWalletLink":{"abi":[{"inputs":[{"internalType":"address","name":"admin","type":"address"}],"stateMutability":"nonpayable","type":"constructor"},{"inputs":[],"name":"AccessControlBadConfirmation","type":"error"},{"inputs":[{"internalType":"address","name":"account","type":"address"},{"internalType":"bytes32","name":"neededRole","type":"bytes32"}],"name":"AccessControlUnauthorizedAccount","type":"error"},{"inputs":[],"name":"EnforcedPause","type":"error"},{"inputs":[],"name":"ExpectedPause","type":"error"},{"anonymous":false,"inputs":[{"indexed":false,"internalType":"address","name":"account","type":"address"}],"name":"Paused","type":"event"},{"anonymous":false,"inputs":[{"indexed":true,"internalType":"uint256","name":"avatarId","type":"uint256"},{"indexed":true,"internalType":"address","name":"wallet","type":"address"},{"indexed":false,"internalType":"enum AvatarWalletLink.PermissionLevel","name":"oldLevel","type":"uint8"},{"indexed":false,"internalType":"enum AvatarWalletLink.PermissionLevel","name":"newLevel","type":"uint8"}],"name":"PermissionUpdated","type":"event"},{"anonymous":false,"inputs":[{"indexed":true,"internalType":"bytes32","name":"role","type":"bytes32"},{"indexed":true,"internalType":"bytes32","name":"previousAdminRole","type":"bytes32"},{"indexed":true,"internalType":"bytes32","name":"newAdminRole","type":"bytes32"}],"name":"RoleAdminChanged","type":"event"},{"anonymous":false,"inputs":[{"indexed":true,"internalType":"bytes32","name":"role","type":"bytes32"},{"indexed":true,"internalType":"address","name":"account","type":"address"},{"indexed":true,"internalType":"address","name":"sender","type":"address"}],"name":"RoleGranted","type":"event"},{"anonymous":false,"inputs":[{"indexed":true,"internalType":"bytes32","name":"role","type":"bytes32"},{"indexed":true,"internalType":"address","name":"account","type":"address"},{"indexed":true,"internalType":"address","name":"sender","type":"address"}],"name":"RoleRevoked","type":"event"},{"anonymous":false,"inputs":[{"indexed":false,"internalType":"address","name":"account","type":"address"}],"name":"Unpaused","type":"event"},{"anonymous":false,"inputs":[{"indexed":true,"internalType":"uint256","name":"avatarId","type":"uint256"},{"indexed":true,"internalType":"address","name":"wallet","type":"address"},{"indexed":false,"internalType":"enum AvatarWalletLink.PermissionLevel","name":"level","type":"uint8"},{"indexed":false,"internalType":"uint64","name":"expiresAt","type":"uint64"}],"name":"WalletLinked","type":"event"},{"anonymous":false,"inputs":[{"indexed":true,"internalType":"uint256","name":"avatarId","type":"uint256"},{"indexed":true,"internalType":"address","name":"wallet","type":"address"},{"indexed":true,"internalType":"address","name":"operator","type":"address"}],"name":"WalletUnlinked","type":"event"},{"inputs":[],"name":"DEFAULT_ADMIN_ROLE","outputs":[{"internalType":"bytes32","name":"","type":"bytes32"}],"stateMutability":"view","type":"function"},{"inputs":[],"name":"LINKER_ROLE","outputs":[{"internalType":"bytes32","name":"","type":"bytes32"}],"stateMutability":"view","type":"function"},{"inputs":[{"internalType":"uint256","name":"avatarId","type":"uint256"}],"name":"getLinkedWallets","outputs":[{"internalType":"address[]","name":"","type":"address[]"}],"stateMutability":"view","type":"function"},{"inputs":[{"internalType":"uint256","name":"avatarId","type":"uint256"},{"internalType":"address","name":"wallet","type":"address"}],"name":"getPermission","outputs":[{"components":[{"internalType":"enum AvatarWalletLink.PermissionLevel","name":"level","type":"uint8"},{"internalType":"uint64","name":"grantedAt","type":"uint64"},{"internalType":"uint64","name":"expiresAt","type":"uint64"}],"internalType":"struct AvatarWalletLink.WalletPermission","name":"","type":"tuple"}],"stateMutability":"view","type":"function"},{"inputs":[{"internalType":"bytes32","name":"role","type":"bytes32"}],"name":"getRoleAdmin","outputs":[{"internalType":"bytes32","name":"","type":"bytes32"}],"stateMutability":"view","type":"function"},{"inputs":[{"internalType":"bytes32","name":"role","type":"bytes32"},{"internalType":"address","name":"account","type":"address"}],"name":"grantRole","outputs":[],"stateMutability":"nonpayable","type":"function"},{"inputs":[{"internalType":"uint256","name":"avatarId","type":"uint256"},{"internalType":"address","name":"wallet","type":"address"},{"internalType":"enum AvatarWalletLink.PermissionLevel","name":"minLevel","type":"uint8"}],"name":"hasPermission","outputs":[{"internalType":"bool","name":"","type":"bool"}],"stateMutability":"view","type":"function"},{"inputs":[{"internalType":"bytes32","name":"role","type":"bytes32"},{"internalType":"address","name":"account","type":"address"}],"name":"hasRole","outputs":[{"internalType":"bool","name":"","type":"bool"}],"stateMutability":"view","type":"function"},{"inputs":[{"internalType":"uint256","name":"avatarId","type":"uint256"},{"internalType":"address","name":"wallet","type":"address"},{"internalType":"enum AvatarWalletLink.PermissionLevel","name":"level","type":"uint8"},{"internalType":"uint64","name":"expiresAt","type":"uint64"}],"name":"linkWallet","outputs":[],"stateMutability":"nonpayable","type":"function"},{"inputs":[],"name":"pause","outputs":[],"stateMutability":"nonpayable","type":"function"},{"inputs":[],"name":"paused","outputs":[{"internalType":"bool","name":"","type":"bool"}],"stateMutability":"view","type":"function"},{"inputs":[{"internalType":"bytes32","name":"role","type":"bytes32"},{"internalType":"address","name":"callerConfirmation","type":"address"}],"name":"renounceRole","outputs":[],"stateMutability":"nonpayable","type":"function"},{"inputs":[{"internalType":"bytes32","name":"role","type":"bytes32"},{"internalType":"address","name":"account","type":"address"}],"name":"revokeRole","outputs":[],"stateMutability":"nonpayable","type":"function"},{"inputs":[{"internalType":"bytes4","name":"interfaceId","type":"bytes4"}],"name":"supportsInterface","outputs":[{"internalType":"bool","name":"","type":"bool"}],"stateMutability":"view","type":"function"},{"inputs":[{"internalType":"uint256","name":"avatarId","type":"uint256"},{"internalType":"address","name":"wallet","type":"address"}],"name":"unlinkWallet","outputs":[],"stateMutability":"nonpayable","type":"function"},{"inputs":[],"name":"unpause","outputs":[],"stateMutability":"nonpayable","type":"function"}],"evm":{"bytecode":{"linkReferences":{},"object":"608060405234801561000f575f80fd5b50604051610f04380380610f0483398101604081905261002e9161016d565b6001600160a01b0381166100885760405162461bcd60e51b815260206004820152601360248201527f4c494e4b3a20696e76616c69642061646d696e00000000000000000000000000604482015260640160405180910390fd5b6100925f826100c4565b506100bd7f733bac3dca102687aa08c854c5f9067fc424f98fd8e90e41ad6b73aecc59a4fd826100c4565b505061019a565b5f828152602081815260408083206001600160a01b038516845290915281205460ff16610164575f838152602081815260408083206001600160a01b03861684529091529020805460ff1916600117905561011c3390565b6001600160a01b0316826001600160a01b0316847f2f8788117e7eff1d82e926ec794901d17c78024a50270940304540a733656f0d60405160405180910390a4506001610167565b505f5b92915050565b5f6020828403121561017d575f80fd5b81516001600160a01b0381168114610193575f80fd5b9392505050565b610d5d806101a75f395ff3fe608060405234801561000f575f80fd5b50600436106100fb575f3560e01c8063823abfd911610093578063c80493cf11610063578063c80493cf146101fa578063d547741f14610221578063e0737dfd14610234578063eef2f6b314610254575f80fd5b8063823abfd9146101c55780638456cb59146101d857806391d14854146101e0578063a217fddf146101f3575f80fd5b806336568abe116100ce57806336568abe1461018c5780633f4ba83a1461019f5780635c975abb146101a757806360835e6e146101b2575f80fd5b806301ffc9a7146100ff57806304bc69a414610127578063248a9ca3146101475780632f2ff15d14610177575b5f80fd5b61011261010d366004610b09565b610267565b60405190151581526020015b60405180910390f35b61013a610135366004610b30565b61029d565b60405161011e9190610b47565b610169610155366004610b30565b5f9081526020819052604090206001015490565b60405190815260200161011e565b61018a610185366004610bae565b610306565b005b61018a61019a366004610bae565b610330565b61018a610368565b60015460ff16610112565b61018a6101c0366004610bae565b61037d565b6101126101d3366004610be6565b610492565b61018a610537565b6101126101ee366004610bae565b610549565b6101695f81565b6101697f733bac3dca102687aa08c854c5f9067fc424f98fd8e90e41ad6b73aecc59a4fd81565b61018a61022f366004610bae565b610571565b610247610242366004610bae565b610595565b60405161011e9190610c53565b61018a610262366004610c8f565b610632565b5f6001600160e01b03198216637965db0b60e01b148061029757506301ffc9a760e01b6001600160e01b03198316145b92915050565b5f818152600360209081526040918290208054835181840281018401909452808452606093928301828280156102fa57602002820191905f5260205f20905b81546001600160a01b031681526001909101906020018083116102dc575b50505050509050919050565b5f82815260208190526040902060010154610320816108f4565b61032a83836108fe565b50505050565b6001600160a01b03811633146103595760405163334bd91960e11b815260040160405180910390fd5b610363828261098d565b505050565b5f610372816108f4565b61037a6109f6565b50565b610385610a48565b7f733bac3dca102687aa08c854c5f9067fc424f98fd8e90e41ad6b73aecc59a4fd6103af816108f4565b5f8381526002602090815260408083206001600160a01b038616845290915281205460ff1660038111156103e5576103e5610c1f565b0361042a5760405162461bcd60e51b815260206004820152601060248201526f13125392ce881b9bdd081b1a5b9ad95960821b60448201526064015b60405180910390fd5b5f8381526002602090815260408083206001600160a01b0386168085529252808320805470ffffffffffffffffffffffffffffffffff1916905551339286917fc324648ef1ea0cf15396741083fa5f2ed7fa7024b693850d71de3e543dae699f9190a4505050565b5f8381526002602090815260408083206001600160a01b038616845290915281208260038111156104c5576104c5610c1f565b815460ff1660038111156104db576104db610c1f565b10156104ea575f915050610530565b8054600160481b900467ffffffffffffffff161580159061051c57508054600160481b900467ffffffffffffffff1642115b1561052a575f915050610530565b60019150505b9392505050565b5f610541816108f4565b61037a610a6e565b5f918252602082815260408084206001600160a01b0393909316845291905290205460ff1690565b5f8281526020819052604090206001015461058b816108f4565b61032a838361098d565b60408051606080820183525f8083526020808401829052838501829052868252600281528482206001600160a01b038716835290528390208351918201909352825491929091829060ff1660038111156105f1576105f1610c1f565b600381111561060257610602610c1f565b8152905467ffffffffffffffff610100820481166020840152600160481b90910416604090910152905092915050565b61063a610a48565b7f733bac3dca102687aa08c854c5f9067fc424f98fd8e90e41ad6b73aecc59a4fd610664816108f4565b6001600160a01b0384166106b15760405162461bcd60e51b815260206004820152601460248201527313125392ce881a5b9d985b1a59081dd85b1b195d60621b6044820152606401610421565b5f8360038111156106c4576106c4610c1f565b036107075760405162461bcd60e51b815260206004820152601360248201527213125392ce881a5b9d985b1a59081b195d995b606a1b6044820152606401610421565b67ffffffffffffffff821615806107275750428267ffffffffffffffff16115b61076a5760405162461bcd60e51b81526020600482015260146024820152734c494e4b3a20696e76616c69642065787069727960601b6044820152606401610421565b5f8581526002602090815260408083206001600160a01b038816845290915281209080825460ff1660038111156107a3576107a3610c1f565b149050806107f95781546040516001600160a01b0388169189917f37bf6603e161e110b9e39afb9ba01675b9a40fdefe72ada138e635cbc5bf8b03916107f09160ff909116908a90610ce7565b60405180910390a35b81548590839060ff1916600183600381111561081757610817610c1f565b0217905550815467ffffffffffffffff858116600160481b0270ffffffffffffffff000000000000000000194292909216610100029190911670ffffffffffffffffffffffffffffffff00199092169190911717825580156108eb575f8781526003602090815260408083208054600181018255908452919092200180546001600160a01b0319166001600160a01b038916908117909155905188907f37af1a585d0f8cf437295ac89681b3602fb3a0d338b3b4b30340051a250fcb38906108e29089908990610d02565b60405180910390a35b50505050505050565b61037a8133610aa9565b5f6109098383610549565b610986575f838152602081815260408083206001600160a01b03861684529091529020805460ff1916600117905561093e3390565b6001600160a01b0316826001600160a01b0316847f2f8788117e7eff1d82e926ec794901d17c78024a50270940304540a733656f0d60405160405180910390a4506001610297565b505f610297565b5f6109988383610549565b15610986575f838152602081815260408083206001600160a01b0386168085529252808320805460ff1916905551339286917ff6391f5c32d9c69d2a47ea670b442974b53935d1edc7fd64eb21e047a839171b9190a4506001610297565b6109fe610ae6565b6001805460ff191690557f5db9ee0a495bf2e6ff9c91a7834c1ba4fdd244a5e8aa4e537bd38aeae4b073aa335b6040516001600160a01b03909116815260200160405180910390a1565b60015460ff1615610a6c5760405163d93c066560e01b815260040160405180910390fd5b565b610a76610a48565b6001805460ff1916811790557f62e78cea01bee320cd4e420270b5ea74000d11b0c9f74754ebdbfc544b05a25833610a2b565b610ab38282610549565b610ae25760405163e2517d3f60e01b81526001600160a01b038216600482015260248101839052604401610421565b5050565b60015460ff16610a6c57604051638dfc202b60e01b815260040160405180910390fd5b5f60208284031215610b19575f80fd5b81356001600160e01b031981168114610530575f80fd5b5f60208284031215610b40575f80fd5b5035919050565b602080825282518282018190525f9190848201906040850190845b81811015610b875783516001600160a01b031683529284019291840191600101610b62565b50909695505050505050565b80356001600160a01b0381168114610ba9575f80fd5b919050565b5f8060408385031215610bbf575f80fd5b82359150610bcf60208401610b93565b90509250929050565b803560048110610ba9575f80fd5b5f805f60608486031215610bf8575f80fd5b83359250610c0860208501610b93565b9150610c1660408501610bd8565b90509250925092565b634e487b7160e01b5f52602160045260245ffd5b60048110610c4f57634e487b7160e01b5f52602160045260245ffd5b9052565b5f606082019050610c65828451610c33565b602083015167ffffffffffffffff8082166020850152806040860151166040850152505092915050565b5f805f8060808587031215610ca2575f80fd5b84359350610cb260208601610b93565b9250610cc060408601610bd8565b9150606085013567ffffffffffffffff81168114610cdc575f80fd5b939692955090935050565b60408101610cf58285610c33565b6105306020830184610c33565b60408101610d108285610c33565b67ffffffffffffffff83166020830152939250505056fea264697066735822122057747e2dfca75c579020ee3162bf3ee361f00795fe2e32f455949f110d901c9564736f6c63430008180033","opcodes":"PUSH1 0x80 PUSH1 0x40 MSTORE CALLVALUE DUP1 ISZERO PUSH2 0xF JUMPI PUSH0 DUP1 REVERT JUMPDEST POP PUSH1 0x40 MLOAD PUSH2 0xF04 CODESIZE SUB DUP1 PUSH2 0xF04 DUP4 CODECOPY DUP2 ADD PUSH1 0x40 DUP2 SWAP1 MSTORE PUSH2 0x2E SWAP2 PUSH2 0x16D JUMP JUMPDEST PUSH1 0x1 PUSH1 0x1 PUSH1 0xA0 SHL SUB DUP2 AND PUSH2 0x88 JUMPI PUSH1 0x40 MLOAD PUSH3 0x461BCD PUSH1 0xE5 SHL DUP2 MSTORE PUSH1 0x20 PUSH1 0x4 DUP3 ADD MSTORE PUSH1 0x13 PUSH1 0x24 DUP3 ADD MSTORE PUSH32 0x4C494E4B3A20696E76616C69642061646D696E00000000000000000000000000 PUSH1 0x44 DUP3 ADD MSTORE PUSH1 0x64 ADD PUSH1 0x40 MLOAD DUP1 SWAP2 SUB SWAP1 REVERT JUMPDEST PUSH2 0x92 PUSH0 DUP3 PUSH2 0xC4 JUMP JUMPDEST POP PUSH2 0xBD PUSH32 0x733BAC3DCA102687AA08C854C5F9067FC424F98FD8E90E41AD6B73AECC59A4FD DUP3 PUSH2 0xC4 JUMP JUMPDEST POP POP PUSH2 0x19A JUMP JUMPDEST PUSH0 DUP3 DUP2 MSTORE PUSH1 0x20 DUP2 DUP2 MSTORE PUSH1 0x40 DUP1 DUP4 KECCAK256 PUSH1 0x1 PUSH1 0x1 PUSH1 0xA0 SHL SUB DUP6 AND DUP5 MSTORE SWAP1 SWAP2 MSTORE DUP2 KECCAK256 SLOAD PUSH1 0xFF AND PUSH2 0x164 JUMPI PUSH0 DUP4 DUP2 MSTORE PUSH1 0x20 DUP2 DUP2 MSTORE PUSH1 0x40 DUP1 DUP4 KECCAK256 PUSH1 0x1 PUSH1 0x1 PUSH1 0xA0 SHL SUB DUP7 AND DUP5 MSTORE SWAP1 SWAP2 MSTORE SWAP1 KECCAK256 DUP1 SLOAD PUSH1 0xFF NOT AND PUSH1 0x1 OR SWAP1 SSTORE PUSH2 0x11C CALLER SWAP1 JUMP JUMPDEST PUSH1 0x1 PUSH1 0x1 PUSH1 0xA0 SHL SUB AND DUP3 PUSH1 0x1 PUSH1 0x1 PUSH1 0xA0 SHL SUB AND DUP5 PUSH32 0x2F8788117E7EFF1D82E926EC794901D17C78024A50270940304540A733656F0D PUSH1 0x40 MLOAD PUSH1 0x40 MLOAD DUP1 SWAP2 SUB SWAP1 LOG4 POP PUSH1 0x1 PUSH2 0x167 JUMP JUMPDEST POP PUSH0 JUMPDEST SWAP3 SWAP2 POP POP JUMP JUMPDEST PUSH0 PUSH1 0x20 DUP3 DUP5 SUB SLT ISZERO PUSH2 0x17D JUMPI PUSH0 DUP1 REVERT JUMPDEST DUP2 MLOAD PUSH1 0x1 PUSH1 0x1 PUSH1 0xA0 SHL SUB DUP2 AND DUP2 EQ PUSH2 0x193 JUMPI PUSH0 DUP1 REVERT JUMPDEST SWAP4 SWAP3 POP POP POP JUMP JUMPDEST PUSH2 0xD5D DUP1 PUSH2 0x1A7 PUSH0 CODECOPY PUSH0 RETURN INVALID PUSH1 0x80 PUSH1 0x40 MSTORE CALLVALUE DUP1 ISZERO PUSH2 0xF JUMPI PUSH0 DUP1 REVERT JUMPDEST POP PUSH1 0x4 CALLDATASIZE LT PUSH2 0xFB JUMPI PUSH0 CALLDATALOAD PUSH1 0xE0 SHR DUP1 PUSH4 0x823ABFD9 GT PUSH2 0x93 JUMPI DUP1 PUSH4 0xC80493CF GT PUSH2 0x63 JUMPI DUP1 PUSH4 0xC80493CF EQ PUSH2 0x1FA JUMPI DUP1 PUSH4 0xD547741F EQ PUSH2 0x221 JUMPI DUP1 PUSH4 0xE0737DFD EQ PUSH2 0x234 JUMPI DUP1 PUSH4 0xEEF2F6B3 EQ PUSH2 0x254 JUMPI PUSH0 DUP1 REVERT JUMPDEST DUP1 PUSH4 0x823ABFD9 EQ PUSH2 0x1C5 JUMPI DUP1 PUSH4 0x8456CB59 EQ PUSH2 0x1D8 JUMPI DUP1 PUSH4 0x91D14854 EQ PUSH2 0x1E0 JUMPI DUP1 PUSH4 0xA217FDDF EQ PUSH2 0x1F3 JUMPI PUSH0 DUP1 REVERT JUMPDEST DUP1 PUSH4 0x36568ABE GT PUSH2 0xCE JUMPI DUP1 PUSH4 0x36568ABE EQ PUSH2 0x18C JUMPI DUP1 PUSH4 0x3F4BA83A EQ PUSH2 0x19F JUMPI DUP1 PUSH4 0x5C975ABB EQ PUSH2 0x1A7 JUMPI DUP1 PUSH4 0x60835E6E EQ PUSH2 0x1B2 JUMPI PUSH0 DUP1 REVERT JUMPDEST DUP1 PUSH4 0x1FFC9A7 EQ PUSH2 0xFF JUMPI DUP1 PUSH4 0x4BC69A4 EQ PUSH2 0x127 JUMPI DUP1 PUSH4 0x248A9CA3 EQ PUSH2 0x147 JUMPI DUP1 PUSH4 0x2F2FF15D EQ PUSH2 0x177 JUMPI JUMPDEST PUSH0 DUP1 REVERT JUMPDEST PUSH2 0x112 PUSH2 0x10D CALLDATASIZE PUSH1 0x4 PUSH2 0xB09 JUMP JUMPDEST PUSH2 0x267 JUMP JUMPDEST PUSH1 0x40 MLOAD SWAP1 ISZERO ISZERO DUP2 MSTORE PUSH1 0x20 ADD JUMPDEST PUSH1 0x40 MLOAD DUP1 SWAP2 SUB SWAP1 RETURN JUMPDEST PUSH2 0x13A PUSH2 0x135 CALLDATASIZE PUSH1 0x4 PUSH2 0xB30 JUMP JUMPDEST PUSH2 0x29D JUMP JUMPDEST PUSH1 0x40 MLOAD PUSH2 0x11E SWAP2 SWAP1 PUSH2 0xB47 JUMP JUMPDEST PUSH2 0x169 PUSH2 0x155 CALLDATASIZE PUSH1 0x4 PUSH2 0xB30 JUMP JUMPDEST PUSH0 SWAP1 DUP2 MSTORE PUSH1 0x20 DUP2 SWAP1 MSTORE PUSH1 0x40 SWAP1 KECCAK256 PUSH1 0x1 ADD SLOAD SWAP1 JUMP JUMPDEST PUSH1 0x40 MLOAD SWAP1 DUP2 MSTORE PUSH1 0x20 ADD PUSH2 0x11E JUMP JUMPDEST PUSH2 0x18A PUSH2 0x185 CALLDATASIZE PUSH1 0x4 PUSH2 0xBAE JUMP JUMPDEST PUSH2 0x306 JUMP JUMPDEST STOP JUMPDEST PUSH2 0x18A PUSH2 0x19A CALLDATASIZE PUSH1 0x4 PUSH2 0xBAE JUMP JUMPDEST PUSH2 0x330 JUMP JUMPDEST PUSH2 0x18A PUSH2 0x368 JUMP JUMPDEST PUSH1 0x1 SLOAD PUSH1 0xFF AND PUSH2 0x112 JUMP JUMPDEST PUSH2 0x18A PUSH2 0x1C0 CALLDATASIZE PUSH1 0x4 PUSH2 0xBAE JUMP JUMPDEST PUSH2 0x37D JUMP JUMPDEST PUSH2 0x112 PUSH2 0x1D3 CALLDATASIZE PUSH1 0x4 PUSH2 0xBE6 JUMP JUMPDEST PUSH2 0x492 JUMP JUMPDEST PUSH2 0x18A PUSH2 0x537 JUMP JUMPDEST PUSH2 0x112 PUSH2 0x1EE CALLDATASIZE PUSH1 0x4 PUSH2 0xBAE JUMP JUMPDEST PUSH2 0x549 JUMP JUMPDEST PUSH2 0x169 PUSH0 DUP2 JUMP JUMPDEST PUSH2 0x169 PUSH32 0x733BAC3DCA102687AA08C854C5F9067FC424F98FD8E90E41AD6B73AECC59A4FD DUP2 JUMP JUMPDEST PUSH2 0x18A PUSH2 0x22F CALLDATASIZE PUSH1 0x4 PUSH2 0xBAE JUMP JUMPDEST PUSH2 0x571 JUMP JUMPDEST PUSH2 0x247 PUSH2 0x242 CALLDATASIZE PUSH1 0x4 PUSH2 0xBAE JUMP JUMPDEST PUSH2 0x595 JUMP JUMPDEST PUSH1 0x40 MLOAD PUSH2 0x11E SWAP2 SWAP1 PUSH2 0xC53 JUMP JUMPDEST PUSH2 0x18A PUSH2 0x262 CALLDATASIZE PUSH1 0x4 PUSH2 0xC8F JUMP JUMPDEST PUSH2 0x632 JUMP JUMPDEST PUSH0 PUSH1 0x1 PUSH1 0x1 PUSH1 0xE0 SHL SUB NOT DUP3 AND PUSH4 0x7965DB0B PUSH1 0xE0 SHL EQ DUP1 PUSH2 0x297 JUMPI POP PUSH4 0x1FFC9A7 PUSH1 0xE0 SHL PUSH1 0x1 PUSH1 0x1 PUSH1 0xE0 SHL SUB NOT DUP4 AND EQ JUMPDEST SWAP3 SWAP2 POP POP JUMP JUMPDEST PUSH0 DUP2 DUP2 MSTORE PUSH1 0x3 PUSH1 0x20 SWAP1 DUP2 MSTORE PUSH1 0x40 SWAP2 DUP3 SWAP1 KECCAK256 DUP1 SLOAD DUP4 MLOAD DUP2 DUP5 MUL DUP2 ADD DUP5 ADD SWAP1 SWAP5 MSTORE DUP1 DUP5 MSTORE PUSH1 0x60 SWAP4 SWAP3 DUP4 ADD DUP3 DUP3 DUP1 ISZERO PUSH2 0x2FA JUMPI PUSH1 0x20 MUL DUP3 ADD SWAP2 SWAP1 PUSH0 MSTORE PUSH1 0x20 PUSH0 KECCAK256 SWAP1 JUMPDEST DUP2 SLOAD PUSH1 0x1 PUSH1 0x1 PUSH1 0xA0 SHL SUB AND DUP2 MSTORE PUSH1 0x1 SWAP1 SWAP2 ADD SWAP1 PUSH1 0x20 ADD DUP1 DUP4 GT PUSH2 0x2DC JUMPI JUMPDEST POP POP POP POP POP SWAP1 POP SWAP2 SWAP1 POP JUMP JUMPDEST PUSH0 DUP3 DUP2 MSTORE PUSH1 0x20 DUP2 SWAP1 MSTORE PUSH1 0x40 SWAP1 KECCAK256 PUSH1 0x1 ADD SLOAD PUSH2 0x320 DUP2 PUSH2 0x8F4 JUMP JUMPDEST PUSH2 0x32A DUP4 DUP4 PUSH2 0x8FE JUMP JUMPDEST POP POP POP POP JUMP JUMPDEST PUSH1 0x1 PUSH1 0x1 PUSH1 0xA0 SHL SUB DUP2 AND CALLER EQ PUSH2 0x359 JUMPI PUSH1 0x40 MLOAD PUSH4 0x334BD919 PUSH1 0xE1 SHL DUP2 MSTORE PUSH1 0x4 ADD PUSH1 0x40 MLOAD DUP1 SWAP2 SUB SWAP1 REVERT JUMPDEST PUSH2 0x363 DUP3 DUP3 PUSH2 0x98D JUMP JUMPDEST POP POP POP JUMP JUMPDEST PUSH0 PUSH2 0x372 DUP2 PUSH2 0x8F4 JUMP JUMPDEST PUSH2 0x37A PUSH2 0x9F6 JUMP JUMPDEST POP JUMP JUMPDEST PUSH2 0x385 PUSH2 0xA48 JUMP JUMPDEST PUSH32 0x733BAC3DCA102687AA08C854C5F9067FC424F98FD8E90E41AD6B73AECC59A4FD PUSH2 0x3AF DUP2 PUSH2 0x8F4 JUMP JUMPDEST PUSH0 DUP4 DUP2 MSTORE PUSH1 0x2 PUSH1 0x20 SWAP1 DUP2 MSTORE PUSH1 0x40 DUP1 DUP4 KECCAK256 PUSH1 0x1 PUSH1 0x1 PUSH1 0xA0 SHL SUB DUP7 AND DUP5 MSTORE SWAP1 SWAP2 MSTORE DUP2 KECCAK256 SLOAD PUSH1 0xFF AND PUSH1 0x3 DUP2 GT ISZERO PUSH2 0x3E5 JUMPI PUSH2 0x3E5 PUSH2 0xC1F JUMP JUMPDEST SUB PUSH2 0x42A JUMPI PUSH1 0x40 MLOAD PUSH3 0x461BCD PUSH1 0xE5 SHL DUP2 MSTORE PUSH1 0x20 PUSH1 0x4 DUP3 ADD MSTORE PUSH1 0x10 PUSH1 0x24 DUP3 ADD MSTORE PUSH16 0x13125392CE881B9BDD081B1A5B9AD959 PUSH1 0x82 SHL PUSH1 0x44 DUP3 ADD MSTORE PUSH1 0x64 ADD JUMPDEST PUSH1 0x40 MLOAD DUP1 SWAP2 SUB SWAP1 REVERT JUMPDEST PUSH0 DUP4 DUP2 MSTORE PUSH1 0x2 PUSH1 0x20 SWAP1 DUP2 MSTORE PUSH1 0x40 DUP1 DUP4 KECCAK256 PUSH1 0x1 PUSH1 0x1 PUSH1 0xA0 SHL SUB DUP7 AND DUP1 DUP6 MSTORE SWAP3 MSTORE DUP1 DUP4 KECCAK256 DUP1 SLOAD PUSH17 0xFFFFFFFFFFFFFFFFFFFFFFFFFFFFFFFFFF NOT AND SWAP1 SSTORE MLOAD CALLER SWAP3 DUP7 SWAP2 PUSH32 0xC324648EF1EA0CF15396741083FA5F2ED7FA7024B693850D71DE3E543DAE699F SWAP2 SWAP1 LOG4 POP POP POP JUMP JUMPDEST PUSH0 DUP4 DUP2 MSTORE PUSH1 0x2 PUSH1 0x20 SWAP1 DUP2 MSTORE PUSH1 0x40 DUP1 DUP4 KECCAK256 PUSH1 0x1 PUSH1 0x1 PUSH1 0xA0 SHL SUB DUP7 AND DUP5 MSTORE SWAP1 SWAP2 MSTORE DUP2 KECCAK256 DUP3 PUSH1 0x3 DUP2 GT ISZERO PUSH2 0x4C5 JUMPI PUSH2 0x4C5 PUSH2 0xC1F JUMP JUMPDEST DUP2 SLOAD PUSH1 0xFF AND PUSH1 0x3 DUP2 GT ISZERO PUSH2 0x4DB JUMPI PUSH2 0x4DB PUSH2 0xC1F JUMP JUMPDEST LT ISZERO PUSH2 0x4EA JUMPI PUSH0 SWAP2 POP POP PUSH2 0x530 JUMP JUMPDEST DUP1 SLOAD PUSH1 0x1 PUSH1 0x48 SHL SWAP1 DIV PUSH8 0xFFFFFFFFFFFFFFFF AND ISZERO DUP1 ISZERO SWAP1 PUSH2 0x51C JUMPI POP DUP1 SLOAD PUSH1 0x1 PUSH1 0x48 SHL SWAP1 DIV PUSH8 0xFFFFFFFFFFFFFFFF AND TIMESTAMP GT JUMPDEST ISZERO PUSH2 0x52A JUMPI PUSH0 SWAP2 POP POP PUSH2 0x530 JUMP JUMPDEST PUSH1 0x1 SWAP2 POP POP JUMPDEST SWAP4 SWAP3 POP POP POP JUMP JUMPDEST PUSH0 PUSH2 0x541 DUP2 PUSH2 0x8F4 JUMP JUMPDEST PUSH2 0x37A PUSH2 0xA6E JUMP JUMPDEST PUSH0 SWAP2 DUP3 MSTORE PUSH1 0x20 DUP3 DUP2 MSTORE PUSH1 0x40 DUP1 DUP5 KECCAK256 PUSH1 0x1 PUSH1 0x1 PUSH1 0xA0 SHL SUB SWAP4 SWAP1 SWAP4 AND DUP5 MSTORE SWAP2 SWAP1 MSTORE SWAP1 KECCAK256 SLOAD PUSH1 0xFF AND SWAP1 JUMP JUMPDEST PUSH0 DUP3 DUP2 MSTORE PUSH1 0x20 DUP2 SWAP1 MSTORE PUSH1 0x40 SWAP1 KECCAK256 PUSH1 0x1 ADD SLOAD PUSH2 0x58B DUP2 PUSH2 0x8F4 JUMP JUMPDEST PUSH2 0x32A DUP4 DUP4 PUSH2 0x98D JUMP JUMPDEST PUSH1 0x40 DUP1 MLOAD PUSH1 0x60 DUP1 DUP3 ADD DUP4 MSTORE PUSH0 DUP1 DUP4 MSTORE PUSH1 0x20 DUP1 DUP5 ADD DUP3 SWAP1 MSTORE DUP4 DUP6 ADD DUP3 SWAP1 MSTORE DUP7 DUP3 MSTORE PUSH1 0x2 DUP2 MSTORE DUP5 DUP3 KECCAK256 PUSH1 0x1 PUSH1 0x1 PUSH1 0xA0 SHL SUB DUP8 AND DUP4 MSTORE SWAP1 MSTORE DUP4 SWAP1 KECCAK256 DUP4 MLOAD SWAP2 DUP3 ADD SWAP1 SWAP4 MSTORE DUP3 SLOAD SWAP2 SWAP3 SWAP1 SWAP2 DUP3 SWAP1 PUSH1 0xFF AND PUSH1 0x3 DUP2 GT ISZERO PUSH2 0x5F1 JUMPI PUSH2 0x5F1 PUSH2 0xC1F JUMP JUMPDEST PUSH1 0x3 DUP2 GT ISZERO PUSH2 0x602 JUMPI PUSH2 0x602 PUSH2 0xC1F JUMP JUMPDEST DUP2 MSTORE SWAP1 SLOAD PUSH8 0xFFFFFFFFFFFFFFFF PUSH2 0x100 DUP3 DIV DUP2 AND PUSH1 0x20 DUP5 ADD MSTORE PUSH1 0x1 PUSH1 0x48 SHL SWAP1 SWAP2 DIV AND PUSH1 0x40 SWAP1 SWAP2 ADD MSTORE SWAP1 POP SWAP3 SWAP2 POP POP JUMP JUMPDEST PUSH2 0x63A PUSH2 0xA48 JUMP JUMPDEST PUSH32 0x733BAC3DCA102687AA08C854C5F9067FC424F98FD8E90E41AD6B73AECC59A4FD PUSH2 0x664 DUP2 PUSH2 0x8F4 JUMP JUMPDEST PUSH1 0x1 PUSH1 0x1 PUSH1 0xA0 SHL SUB DUP5 AND PUSH2 0x6B1 JUMPI PUSH1 0x40 MLOAD PUSH3 0x461BCD PUSH1 0xE5 SHL DUP2 MSTORE PUSH1 0x20 PUSH1 0x4 DUP3 ADD MSTORE PUSH1 0x14 PUSH1 0x24 DUP3 ADD MSTORE PUSH20 0x13125392CE881A5B9D985B1A59081DD85B1B195D PUSH1 0x62 SHL PUSH1 0x44 DUP3 ADD MSTORE PUSH1 0x64 ADD PUSH2 0x421 JUMP JUMPDEST PUSH0 DUP4 PUSH1 0x3 DUP2 GT ISZERO PUSH2 0x6C4 JUMPI PUSH2 0x6C4 PUSH2 0xC1F JUMP JUMPDEST SUB PUSH2 0x707 JUMPI PUSH1 0x40 MLOAD PUSH3 0x461BCD PUSH1 0xE5 SHL DUP2 MSTORE PUSH1 0x20 PUSH1 0x4 DUP3 ADD MSTORE PUSH1 0x13 PUSH1 0x24 DUP3 ADD MSTORE PUSH19 0x13125392CE881A5B9D985B1A59081B195D995B PUSH1 0x6A SHL PUSH1 0x44 DUP3 ADD MSTORE PUSH1 0x64 ADD PUSH2 0x421 JUMP JUMPDEST PUSH8 0xFFFFFFFFFFFFFFFF DUP3 AND ISZERO DUP1 PUSH2 0x727 JUMPI POP TIMESTAMP DUP3 PUSH8 0xFFFFFFFFFFFFFFFF AND GT JUMPDEST PUSH2 0x76A JUMPI PUSH1 0x40 MLOAD PUSH3 0x461BCD PUSH1 0xE5 SHL DUP2 MSTORE PUSH1 0x20 PUSH1 0x4 DUP3 ADD MSTORE PUSH1 0x14 PUSH1 0x24 DUP3 ADD MSTORE PUSH20 0x4C494E4B3A20696E76616C696420657870697279 PUSH1 0x60 SHL PUSH1 0x44 DUP3 ADD MSTORE PUSH1 0x64 ADD PUSH2 0x421 JUMP JUMPDEST PUSH0 DUP6 DUP2 MSTORE PUSH1 0x2 PUSH1 0x20 SWAP1 DUP2 MSTORE PUSH1 0x40 DUP1 DUP4 KECCAK256 PUSH1 0x1 PUSH1 0x1 PUSH1 0xA0 SHL SUB DUP9 AND DUP5 MSTORE SWAP1 SWAP2 MSTORE DUP2 KECCAK256 SWAP1 DUP1 DUP3 SLOAD PUSH1 0xFF AND PUSH1 0x3 DUP2 GT ISZERO PUSH2 0x7A3 JUMPI PUSH2 0x7A3 PUSH2 0xC1F JUMP JUMPDEST EQ SWAP1 POP DUP1 PUSH2 0x7F9 JUMPI DUP2 SLOAD PUSH1 0x40 MLOAD PUSH1 0x1 PUSH1 0x1 PUSH1 0xA0 SHL SUB DUP9 AND SWAP2 DUP10 SWAP2 PUSH32 0x37BF6603E161E110B9E39AFB9BA01675B9A40FDEFE72ADA138E635CBC5BF8B03 SWAP2 PUSH2 0x7F0 SWAP2 PUSH1 0xFF SWAP1 SWAP2 AND SWAP1 DUP11 SWAP1 PUSH2 0xCE7 JUMP JUMPDEST PUSH1 0x40 MLOAD DUP1 SWAP2 SUB SWAP1 LOG3 JUMPDEST DUP2 SLOAD DUP6 SWAP1 DUP4 SWAP1 PUSH1 0xFF NOT AND PUSH1 0x1 DUP4 PUSH1 0x3 DUP2 GT ISZERO PUSH2 0x817 JUMPI PUSH2 0x817 PUSH2 0xC1F JUMP JUMPDEST MUL OR SWAP1 SSTORE POP DUP2 SLOAD PUSH8 0xFFFFFFFFFFFFFFFF DUP6 DUP2 AND PUSH1 0x1 PUSH1 0x48 SHL MUL PUSH17 0xFFFFFFFFFFFFFFFF000000000000000000 NOT TIMESTAMP SWAP3 SWAP1 SWAP3 AND PUSH2 0x100 MUL SWAP2 SWAP1 SWAP2 AND PUSH17 0xFFFFFFFFFFFFFFFFFFFFFFFFFFFFFFFF00 NOT SWAP1 SWAP3 AND SWAP2 SWAP1 SWAP2 OR OR DUP3 SSTORE DUP1 ISZERO PUSH2 0x8EB JUMPI PUSH0 DUP8 DUP2 MSTORE PUSH1 0x3 PUSH1 0x20 SWAP1 DUP2 MSTORE PUSH1 0x40 DUP1 DUP4 KECCAK256 DUP1 SLOAD PUSH1 0x1 DUP2 ADD DUP3 SSTORE SWAP1 DUP5 MSTORE SWAP2 SWAP1 SWAP3 KECCAK256 ADD DUP1 SLOAD PUSH1 0x1 PUSH1 0x1 PUSH1 0xA0 SHL SUB NOT AND PUSH1 0x1 PUSH1 0x1 PUSH1 0xA0 SHL SUB DUP10 AND SWAP1 DUP2 OR SWAP1 SWAP2 SSTORE SWAP1 MLOAD DUP9 SWAP1 PUSH32 0x37AF1A585D0F8CF437295AC89681B3602FB3A0D338B3B4B30340051A250FCB38 SWAP1 PUSH2 0x8E2 SWAP1 DUP10 SWAP1 DUP10 SWAP1 PUSH2 0xD02 JUMP JUMPDEST PUSH1 0x40 MLOAD DUP1 SWAP2 SUB SWAP1 LOG3 JUMPDEST POP POP POP POP POP POP POP JUMP JUMPDEST PUSH2 0x37A DUP2 CALLER PUSH2 0xAA9 JUMP JUMPDEST PUSH0 PUSH2 0x909 DUP4 DUP4 PUSH2 0x549 JUMP JUMPDEST PUSH2 0x986 JUMPI PUSH0 DUP4 DUP2 MSTORE PUSH1 0x20 DUP2 DUP2 MSTORE PUSH1 0x40 DUP1 DUP4 KECCAK256 PUSH1 0x1 PUSH1 0x1 PUSH1 0xA0 SHL SUB DUP7 AND DUP5 MSTORE SWAP1 SWAP2 MSTORE SWAP1 KECCAK256 DUP1 SLOAD PUSH1 0xFF NOT AND PUSH1 0x1 OR SWAP1 SSTORE PUSH2 0x93E CALLER SWAP1 JUMP JUMPDEST PUSH1 0x1 PUSH1 0x1 PUSH1 0xA0 SHL SUB AND DUP3 PUSH1 0x1 PUSH1 0x1 PUSH1 0xA0 SHL SUB AND DUP5 PUSH32 0x2F8788117E7EFF1D82E926EC794901D17C78024A50270940304540A733656F0D PUSH1 0x40 MLOAD PUSH1 0x40 MLOAD DUP1 SWAP2 SUB SWAP1 LOG4 POP PUSH1 0x1 PUSH2 0x297 JUMP JUMPDEST POP PUSH0 PUSH2 0x297 JUMP JUMPDEST PUSH0 PUSH2 0x998 DUP4 DUP4 PUSH2 0x549 JUMP JUMPDEST ISZERO PUSH2 0x986 JUMPI PUSH0 DUP4 DUP2 MSTORE PUSH1 0x20 DUP2 DUP2 MSTORE PUSH1 0x40 DUP1 DUP4 KECCAK256 PUSH1 0x1 PUSH1 0x1 PUSH1 0xA0 SHL SUB DUP7 AND DUP1 DUP6 MSTORE SWAP3 MSTORE DUP1 DUP4 KECCAK256 DUP1 SLOAD PUSH1 0xFF NOT AND SWAP1 SSTORE MLOAD CALLER SWAP3 DUP7 SWAP2 PUSH32 0xF6391F5C32D9C69D2A47EA670B442974B53935D1EDC7FD64EB21E047A839171B SWAP2 SWAP1 LOG4 POP PUSH1 0x1 PUSH2 0x297 JUMP JUMPDEST PUSH2 0x9FE PUSH2 0xAE6 JUMP JUMPDEST PUSH1 0x1 DUP1 SLOAD PUSH1 0xFF NOT AND SWAP1 SSTORE PUSH32 0x5DB9EE0A495BF2E6FF9C91A7834C1BA4FDD244A5E8AA4E537BD38AEAE4B073AA CALLER JUMPDEST PUSH1 0x40 MLOAD PUSH1 0x1 PUSH1 0x1 PUSH1 0xA0 SHL SUB SWAP1 SWAP2 AND DUP2 MSTORE PUSH1 0x20 ADD PUSH1 0x40 MLOAD DUP1 SWAP2 SUB SWAP1 LOG1 JUMP JUMPDEST PUSH1 0x1 SLOAD PUSH1 0xFF AND ISZERO PUSH2 0xA6C JUMPI PUSH1 0x40 MLOAD PUSH4 0xD93C0665 PUSH1 0xE0 SHL DUP2 MSTORE PUSH1 0x4 ADD PUSH1 0x40 MLOAD DUP1 SWAP2 SUB SWAP1 REVERT JUMPDEST JUMP JUMPDEST PUSH2 0xA76 PUSH2 0xA48 JUMP JUMPDEST PUSH1 0x1 DUP1 SLOAD PUSH1 0xFF NOT AND DUP2 OR SWAP1 SSTORE PUSH32 0x62E78CEA01BEE320CD4E420270B5EA74000D11B0C9F74754EBDBFC544B05A258 CALLER PUSH2 0xA2B JUMP JUMPDEST PUSH2 0xAB3 DUP3 DUP3 PUSH2 0x549 JUMP JUMPDEST PUSH2 0xAE2 JUMPI PUSH1 0x40 MLOAD PUSH4 0xE2517D3F PUSH1 0xE0 SHL DUP2 MSTORE PUSH1 0x1 PUSH1 0x1 PUSH1 0xA0 SHL SUB DUP3 AND PUSH1 0x4 DUP3 ADD MSTORE PUSH1 0x24 DUP2 ADD DUP4 SWAP1 MSTORE PUSH1 0x44 ADD PUSH2 0x421 JUMP JUMPDEST POP POP JUMP JUMPDEST PUSH1 0x1 SLOAD PUSH1 0xFF AND PUSH2 0xA6C JUMPI PUSH1 0x40 MLOAD PUSH4 0x8DFC202B PUSH1 0xE0 SHL DUP2 MSTORE PUSH1 0x4 ADD PUSH1 0x40 MLOAD DUP1 SWAP2 SUB SWAP1 REVERT JUMPDEST PUSH0 PUSH1 0x20 DUP3 DUP5 SUB SLT ISZERO PUSH2 0xB19 JUMPI PUSH0 DUP1 REVERT JUMPDEST DUP2 CALLDATALOAD PUSH1 0x1 PUSH1 0x1 PUSH1 0xE0 SHL SUB NOT DUP2 AND DUP2 EQ PUSH2 0x530 JUMPI PUSH0 DUP1 REVERT JUMPDEST PUSH0 PUSH1 0x20 DUP3 DUP5 SUB SLT ISZERO PUSH2 0xB40 JUMPI PUSH0 DUP1 REVERT JUMPDEST POP CALLDATALOAD SWAP2 SWAP1 POP JUMP JUMPDEST PUSH1 0x20 DUP1 DUP3 MSTORE DUP3 MLOAD DUP3 DUP3 ADD DUP2 SWAP1 MSTORE PUSH0 SWAP2 SWAP1 DUP5 DUP3 ADD SWAP1 PUSH1 0x40 DUP6 ADD SWAP1 DUP5 JUMPDEST DUP2 DUP2 LT ISZERO PUSH2 0xB87 JUMPI DUP4 MLOAD PUSH1 0x1 PUSH1 0x1 PUSH1 0xA0 SHL SUB AND DUP4 MSTORE SWAP3 DUP5 ADD SWAP3 SWAP2 DUP5 ADD SWAP2 PUSH1 0x1 ADD PUSH2 0xB62 JUMP JUMPDEST POP SWAP1 SWAP7 SWAP6 POP POP POP POP POP POP JUMP JUMPDEST DUP1 CALLDATALOAD PUSH1 0x1 PUSH1 0x1 PUSH1 0xA0 SHL SUB DUP2 AND DUP2 EQ PUSH2 0xBA9 JUMPI PUSH0 DUP1 REVERT JUMPDEST SWAP2 SWAP1 POP JUMP JUMPDEST PUSH0 DUP1 PUSH1 0x40 DUP4 DUP6 SUB SLT ISZERO PUSH2 0xBBF JUMPI PUSH0 DUP1 REVERT JUMPDEST DUP3 CALLDATALOAD SWAP2 POP PUSH2 0xBCF PUSH1 0x20 DUP5 ADD PUSH2 0xB93 JUMP JUMPDEST SWAP1 POP SWAP3 POP SWAP3 SWAP1 POP JUMP JUMPDEST DUP1 CALLDATALOAD PUSH1 0x4 DUP2 LT PUSH2 0xBA9 JUMPI PUSH0 DUP1 REVERT JUMPDEST PUSH0 DUP1 PUSH0 PUSH1 0x60 DUP5 DUP7 SUB SLT ISZERO PUSH2 0xBF8 JUMPI PUSH0 DUP1 REVERT JUMPDEST DUP4 CALLDATALOAD SWAP3 POP PUSH2 0xC08 PUSH1 0x20 DUP6 ADD PUSH2 0xB93 JUMP JUMPDEST SWAP2 POP PUSH2 0xC16 PUSH1 0x40 DUP6 ADD PUSH2 0xBD8 JUMP JUMPDEST SWAP1 POP SWAP3 POP SWAP3 POP SWAP3 JUMP JUMPDEST PUSH4 0x4E487B71 PUSH1 0xE0 SHL PUSH0 MSTORE PUSH1 0x21 PUSH1 0x4 MSTORE PUSH1 0x24 PUSH0 REVERT JUMPDEST PUSH1 0x4 DUP2 LT PUSH2 0xC4F JUMPI PUSH4 0x4E487B71 PUSH1 0xE0 SHL PUSH0 MSTORE PUSH1 0x21 PUSH1 0x4 MSTORE PUSH1 0x24 PUSH0 REVERT JUMPDEST SWAP1 MSTORE JUMP JUMPDEST PUSH0 PUSH1 0x60 DUP3 ADD SWAP1 POP PUSH2 0xC65 DUP3 DUP5 MLOAD PUSH2 0xC33 JUMP JUMPDEST PUSH1 0x20 DUP4 ADD MLOAD PUSH8 0xFFFFFFFFFFFFFFFF DUP1 DUP3 AND PUSH1 0x20 DUP6 ADD MSTORE DUP1 PUSH1 0x40 DUP7 ADD MLOAD AND PUSH1 0x40 DUP6 ADD MSTORE POP POP SWAP3 SWAP2 POP POP JUMP JUMPDEST PUSH0 DUP1 PUSH0 DUP1 PUSH1 0x80 DUP6 DUP8 SUB SLT ISZERO PUSH2 0xCA2 JUMPI PUSH0 DUP1 REVERT JUMPDEST DUP5 CALLDATALOAD SWAP4 POP PUSH2 0xCB2 PUSH1 0x20 DUP7 ADD PUSH2 0xB93 JUMP JUMPDEST SWAP3 POP PUSH2 0xCC0 PUSH1 0x40 DUP7 ADD PUSH2 0xBD8 JUMP JUMPDEST SWAP2 POP PUSH1 0x60 DUP6 ADD CALLDATALOAD PUSH8 0xFFFFFFFFFFFFFFFF DUP2 AND DUP2 EQ PUSH2 0xCDC JUMPI PUSH0 DUP1 REVERT JUMPDEST SWAP4 SWAP7 SWAP3 SWAP6 POP SWAP1 SWAP4 POP POP JUMP JUMPDEST PUSH1 0x40 DUP2 ADD PUSH2 0xCF5 DUP3 DUP6 PUSH2 0xC33 JUMP JUMPDEST PUSH2 0x530 PUSH1 0x20 DUP4 ADD DUP5 PUSH2 0xC33 JUMP JUMPDEST PUSH1 0x40 DUP2 ADD PUSH2 0xD10 DUP3 DUP6 PUSH2 0xC33 JUMP JUMPDEST PUSH8 0xFFFFFFFFFFFFFFFF DUP4 AND PUSH1 0x20 DUP4 ADD MSTORE SWAP4 SWAP3 POP POP POP JUMP INVALID LOG2 PUSH5 0x6970667358 0x22 SLT KECCAK256 JUMPI PUSH21 0x7E2DFCA75C579020EE3162BF3EE361F00795FE2E32 DELEGATECALL SSTORE SWAP5 SWAP16 GT 0xD SWAP1 SHR SWAP6 PUSH5 0x736F6C6343 STOP ADDMOD XOR STOP CALLER "},"methodIdentifiers":{"DEFAULT_ADMIN_ROLE()":"a217fddf","LINKER_ROLE()":"c80493cf","getLinkedWallets(uint256)":"04bc69a4","getPermission(uint256,address)":"e0737dfd","getRoleAdmin(bytes32)":"248a9ca3","grantRole(bytes32,address)":"2f2ff15d","hasPermission(uint256,address,uint8)":"823abfd9","hasRole(bytes32,address)":"91d14854","linkWallet(uint256,address,uint8,uint64)":"eef2f6b3","pause()":"8456cb59","paused()":"5c975abb","renounceRole(bytes32,address)":"36568abe","revokeRole(bytes32,address)":"d547741f","supportsInterface(bytes4)":"01ffc9a7","unlinkWallet(uint256,address)":"60835e6e","unpause()":"3f4ba83a"}}}}}