{"contracts/AvatarPro.sol":{"AvatarPro":{"abi":[{"inputs":[{"internalType":"address","name":"tokenAddress","type":"address"},{"internalType":"address","name":"treasuryAddress","type":"address"},{"internalType":"address","name":"admin","type":"address"}],"stateMutability":"nonpayable","type":"constructor"},{"inputs":[],"name":"AccessControlBadConfirmation","type":"error"},{"inputs":[{"internalType":"address","name":"account","type":"address"},{"internalType":"bytes32","name":"neededRole","type":"bytes32"}],"name":"AccessControlUnauthorizedAccount","type":"error"},{"inputs":[],"name":"EnforcedPause","type":"error"},{"inputs":[],"name":"ExpectedPause","type":"error"},{"inputs":[],"name":"ReentrancyGuardReentrantCall","type":"error"},{"inputs":[{"internalType":"address","name":"token","type":"address"}],"name":"SafeERC20FailedOperation","type":"error"},{"anonymous":false,"inputs":[{"indexed":false,"internalType":"address","name":"account","type":"address"}],"name":"Paused","type":"event"},{"anonymous":false,"inputs":[{"indexed":true,"internalType":"bytes32","name":"role","type":"bytes32"},{"indexed":true,"internalType":"bytes32","name":"previousAdminRole","type":"bytes32"},{"indexed":true,"internalType":"bytes32","name":"newAdminRole","type":"bytes32"}],"name":"RoleAdminChanged","type":"event"},{"anonymous":false,"inputs":[{"indexed":true,"internalType":"bytes32","name":"role","type":"bytes32"},{"indexed":true,"internalType":"address","name":"account","type":"address"},{"indexed":true,"internalType":"address","name":"sender","type":"address"}],"name":"RoleGranted","type":"event"},{"anonymous":false,"inputs":[{"indexed":true,"internalType":"bytes32","name":"role","type":"bytes32"},{"indexed":true,"internalType":"address","name":"account","type":"address"},{"indexed":true,"internalType":"address","name":"sender","type":"address"}],"name":"RoleRevoked","type":"event"},{"anonymous":false,"inputs":[{"indexed":true,"internalType":"uint256","name":"avatarId","type":"uint256"},{"indexed":false,"internalType":"uint256","name":"pricePerSession","type":"uint256"},{"indexed":false,"internalType":"bool","name":"isActive","type":"bool"},{"indexed":false,"internalType":"uint32","name":"maxSessionsPerDay","type":"uint32"}],"name":"ServiceConfigured","type":"event"},{"anonymous":false,"inputs":[{"indexed":true,"internalType":"uint256","name":"sessionId","type":"uint256"},{"indexed":false,"internalType":"bytes32","name":"sessionDataHash","type":"bytes32"},{"indexed":true,"internalType":"address","name":"operator","type":"address"}],"name":"SessionFinalized","type":"event"},{"anonymous":false,"inputs":[{"indexed":true,"internalType":"uint256","name":"sessionId","type":"uint256"},{"indexed":true,"internalType":"uint256","name":"avatarId","type":"uint256"},{"indexed":true,"internalType":"address","name":"user","type":"address"},{"indexed":false,"internalType":"uint256","name":"amountPaid","type":"uint256"}],"name":"SessionRequested","type":"event"},{"anonymous":false,"inputs":[{"indexed":true,"internalType":"address","name":"oldTreasury","type":"address"},{"indexed":true,"internalType":"address","name":"newTreasury","type":"address"}],"name":"TreasuryUpdated","type":"event"},{"anonymous":false,"inputs":[{"indexed":false,"internalType":"address","name":"account","type":"address"}],"name":"Unpaused","type":"event"},{"inputs":[],"name":"DEFAULT_ADMIN_ROLE","outputs":[{"internalType":"bytes32","name":"","type":"bytes32"}],"stateMutability":"view","type":"function"},{"inputs":[],"name":"PRICE_SETTER_ROLE","outputs":[{"internalType":"bytes32","name":"","type":"bytes32"}],"stateMutability":"view","type":"function"},{"inputs":[],"name":"SESSION_MANAGER_ROLE","outputs":[{"internalType":"bytes32","name":"","type":"bytes32"}],"stateMutability":"view","type":"function"},{"inputs":[{"internalType":"uint256","name":"avatarId","type":"uint256"},{"internalType":"uint256","name":"pricePerSession","type":"uint256"},{"internalType":"bool","name":"isActive","type":"bool"},{"internalType":"uint32","name":"maxSessionsPerDay","type":"uint32"}],"name":"configureService","outputs":[],"stateMutability":"nonpayable","type":"function"},{"inputs":[{"internalType":"uint256","name":"sessionId","type":"uint256"},{"internalType":"bytes32","name":"sessionDataHash","type":"bytes32"}],"name":"finalizeSession","outputs":[],"stateMutability":"nonpayable","type":"function"},{"inputs":[{"internalType":"uint256","name":"avatarId","type":"uint256"},{"internalType":"address","name":"user","type":"address"}],"name":"getDailyCount","outputs":[{"internalType":"uint256","name":"","type":"uint256"}],"stateMutability":"view","type":"function"},{"inputs":[{"internalType":"bytes32","name":"role","type":"bytes32"}],"name":"getRoleAdmin","outputs":[{"internalType":"bytes32","name":"","type":"bytes32"}],"stateMutability":"view","type":"function"},{"inputs":[{"internalType":"bytes32","name":"role","type":"bytes32"},{"internalType":"address","name":"account","type":"address"}],"name":"grantRole","outputs":[],"stateMutability":"nonpayable","type":"function"},{"inputs":[{"internalType":"bytes32","name":"role","type":"bytes32"},{"internalType":"address","name":"account","type":"address"}],"name":"hasRole","outputs":[{"internalType":"bool","name":"","type":"bool"}],"stateMutability":"view","type":"function"},{"inputs":[],"name":"pause","outputs":[],"stateMutability":"nonpayable","type":"function"},{"inputs":[],"name":"paused","outputs":[{"internalType":"bool","name":"","type":"bool"}],"stateMutability":"view","type":"function"},{"inputs":[{"internalType":"bytes32","name":"role","type":"bytes32"},{"internalType":"address","name":"callerConfirmation","type":"address"}],"name":"renounceRole","outputs":[],"stateMutability":"nonpayable","type":"function"},{"inputs":[{"internalType":"uint256","name":"avatarId","type":"uint256"}],"name":"requestSession","outputs":[{"internalType":"uint256","name":"sessionId","type":"uint256"}],"stateMutability":"nonpayable","type":"function"},{"inputs":[{"internalType":"bytes32","name":"role","type":"bytes32"},{"internalType":"address","name":"account","type":"address"}],"name":"revokeRole","outputs":[],"stateMutability":"nonpayable","type":"function"},{"inputs":[{"internalType":"uint256","name":"","type":"uint256"}],"name":"serviceConfigs","outputs":[{"internalType":"uint256","name":"pricePerSession","type":"uint256"},{"internalType":"bool","name":"isActive","type":"bool"},{"internalType":"uint32","name":"maxSessionsPerDay","type":"uint32"}],"stateMutability":"view","type":"function"},{"inputs":[],"name":"sessionCount","outputs":[{"internalType":"uint256","name":"","type":"uint256"}],"stateMutability":"view","type":"function"},{"inputs":[{"internalType":"uint256","name":"","type":"uint256"}],"name":"sessions","outputs":[{"internalType":"address","name":"user","type":"address"},{"internalType":"uint256","name":"avatarId","type":"uint256"},{"internalType":"uint64","name":"startTime","type":"uint64"},{"internalType":"uint64","name":"endTime","type":"uint64"},{"internalType":"uint256","name":"amountPaid","type":"uint256"},{"internalType":"bytes32","name":"sessionDataHash","type":"bytes32"}],"stateMutability":"view","type":"function"},{"inputs":[{"internalType":"address","name":"newTreasury","type":"address"}],"name":"setTreasury","outputs":[],"stateMutability":"nonpayable","type":"function"},{"inputs":[],"name":"sglToken","outputs":[{"internalType":"contract IERC20","name":"","type":"address"}],"stateMutability":"view","type":"function"},{"inputs":[{"internalType":"bytes4","name":"interfaceId","type":"bytes4"}],"name":"supportsInterface","outputs":[{"internalType":"bool","name":"","type":"bool"}],"stateMutability":"view","type":"function"},{"inputs":[],"name":"treasury","outputs":[{"internalType":"address","name":"","type":"address"}],"stateMutability":"view","type":"function"},{"inputs":[],"name":"unpause","outputs":[],"stateMutability":"nonpayable","type":"function"}],"evm":{"bytecode":{"linkReferences":{},"object":"60a060405234801562000010575f80fd5b50604051620013b6380380620013b68339810160408190526200003391620002b1565b60017f9b779b17422d0df92223018b32b4d1fa46e071723d6817e2486d003becc55f00556001600160a01b038316620000a85760405162461bcd60e51b81526020600482015260126024820152712829279d1034b73b30b634b2103a37b5b2b760711b60448201526064015b60405180910390fd5b6001600160a01b038216620001005760405162461bcd60e51b815260206004820152601560248201527f50524f3a20696e76616c6964207472656173757279000000000000000000000060448201526064016200009f565b6001600160a01b0381166200014d5760405162461bcd60e51b81526020600482015260126024820152712829279d1034b73b30b634b21030b236b4b760711b60448201526064016200009f565b6001600160a01b038084166080526001805491841661010002610100600160a81b0319909216919091179055620001855f82620001e9565b50620001b27f122d99bbd8aa87efcb1a1fbbaa2dac9d0debfd0c247df39e9646730c715d4c5f82620001e9565b50620001df7f04824fcb60e7cc526d70b264caa65b62ed44d9c8e5d230e8ff6b0c7373843b8a82620001e9565b50505050620002f8565b5f828152602081815260408083206001600160a01b038516845290915281205460ff166200028c575f838152602081815260408083206001600160a01b03861684529091529020805460ff19166001179055620002433390565b6001600160a01b0316826001600160a01b0316847f2f8788117e7eff1d82e926ec794901d17c78024a50270940304540a733656f0d60405160405180910390a45060016200028f565b505f5b92915050565b80516001600160a01b0381168114620002ac575f80fd5b919050565b5f805f60608486031215620002c4575f80fd5b620002cf8462000295565b9250620002df6020850162000295565b9150620002ef6040850162000295565b90509250925092565b60805161109e620003185f395f818161022f0152610a44015261109e5ff3fe608060405234801561000f575f80fd5b506004361061013d575f3560e01c806373cd8336116100b457806391d148541161007957806391d14854146103505780639fc1d35314610363578063a217fddf146103ba578063d547741f146103c1578063f00acbaa146103d4578063f0f44260146103fb575f80fd5b806373cd83361461027857806383c4b7a3146102815780638456cb591461032257806385addbea1461032a5780638e66fcb51461033d575f80fd5b80633f32f904116101055780633f32f904146101d45780633f4ba83a146101e75780635c975abb146101ef57806361d027b3146101fa57806362b24ea21461022a5780636a4f1c2314610251575f80fd5b806301ffc9a7146101415780631266861e14610169578063248a9ca31461017e5780632f2ff15d146101ae57806336568abe146101c1575b5f80fd5b61015461014f366004610f14565b61040e565b60405190151581526020015b60405180910390f35b61017c610177366004610f42565b610444565b005b6101a061018c366004610f62565b5f9081526020819052604090206001015490565b604051908152602001610160565b61017c6101bc366004610f8f565b6105e2565b61017c6101cf366004610f8f565b61060c565b61017c6101e2366004610fb9565b610644565b61017c610773565b60015460ff16610154565b6001546102129061010090046001600160a01b031681565b6040516001600160a01b039091168152602001610160565b6102127f000000000000000000000000000000000000000000000000000000000000000081565b6101a07f122d99bbd8aa87efcb1a1fbbaa2dac9d0debfd0c247df39e9646730c715d4c5f81565b6101a060025481565b6102dd61028f366004610f62565b600460208190525f9182526040909120805460018201546002830154600384015493909401546001600160a01b0390921693909267ffffffffffffffff80831693600160401b909304169186565b604080516001600160a01b039097168752602087019590955267ffffffffffffffff9384169486019490945291166060840152608083015260a082015260c001610160565b61017c610788565b6101a0610338366004610f8f565b61079a565b6101a061034b366004610f62565b6107df565b61015461035e366004610f8f565b610ae1565b610399610371366004610f62565b60036020525f90815260409020805460019091015460ff811690610100900463ffffffff1683565b60408051938452911515602084015263ffffffff1690820152606001610160565b6101a05f81565b61017c6103cf366004610f8f565b610b09565b6101a07f04824fcb60e7cc526d70b264caa65b62ed44d9c8e5d230e8ff6b0c7373843b8a81565b61017c61040936600461100c565b610b2d565b5f6001600160e01b03198216637965db0b60e01b148061043e57506301ffc9a760e01b6001600160e01b03198316145b92915050565b7f122d99bbd8aa87efcb1a1fbbaa2dac9d0debfd0c247df39e9646730c715d4c5f61046e81610bec565b5f838152600460205260409020600281015467ffffffffffffffff166104d45760405162461bcd60e51b8152602060048201526016602482015275141493ce881cd95cdcda5bdb881b9bdd08199bdd5b9960521b60448201526064015b60405180910390fd5b6002810154600160401b900467ffffffffffffffff16156105305760405162461bcd60e51b8152602060048201526016602482015275141493ce88185b1c9958591e48199a5b985b1a5e995960521b60448201526064016104cb565b826105715760405162461bcd60e51b81526020600482015260116024820152700a0a49e7440d2dcecc2d8d2c840d0c2e6d607b1b60448201526064016104cb565b6002810180546fffffffffffffffff00000000000000001916600160401b4267ffffffffffffffff160217905560048101839055604051838152339085907f709c8a4455d05bd0ba7466b14198fb626db214ff0ca4e54d78c08869d9fe16139060200160405180910390a350505050565b5f828152602081905260409020600101546105fc81610bec565b6106068383610bf6565b50505050565b6001600160a01b03811633146106355760405163334bd91960e11b815260040160405180910390fd5b61063f8282610c85565b505050565b7f04824fcb60e7cc526d70b264caa65b62ed44d9c8e5d230e8ff6b0c7373843b8a61066e81610bec565b5f8263ffffffff16116106c35760405162461bcd60e51b815260206004820152601860248201527f50524f3a20696e76616c6964206461696c79206c696d6974000000000000000060448201526064016104cb565b6040805160608082018352868252851515602080840182815263ffffffff8881168688018181525f8e81526003865289902097518855925160019097018054935164ffffffffff1990941697151564ffffffff001916979097176101009390921692909202179094558451898152908101919091529283019190915286917ffa1bad519983d507a5eb2b46a5fa4abd393363a208cf9a8d3c80ce8a0f4842ae910160405180910390a25050505050565b5f61077d81610bec565b610785610cee565b50565b5f61079281610bec565b610785610d40565b5f8281526005602090815260408083206001600160a01b03851684529091528120816107c96201518042611025565b81526020019081526020015f2054905092915050565b5f6107e8610d7b565b6107f0610da1565b5f828152600360205260409020600181015460ff166108495760405162461bcd60e51b815260206004820152601560248201527450524f3a207365727669636520696e61637469766560581b60448201526064016104cb565b6001810154610100900463ffffffff166108a55760405162461bcd60e51b815260206004820152601b60248201527f50524f3a2073657276696365206e6f7420636f6e66696775726564000000000060448201526064016104cb565b5f6108b36201518042611025565b60018301545f8681526005602090815260408083203384528252808320858452909152902054919250610100900463ffffffff16116109345760405162461bcd60e51b815260206004820181905260248201527f50524f3a206461696c792073657373696f6e206c696d6974207265616368656460448201526064016104cb565b60028054905f61094383611044565b909155506040805160c08101825233808252602080830189815267ffffffffffffffff4281168587019081525f606087018181528b546080890190815260a089018381528b845260048089528b85209a518b546001600160a01b03919091166001600160a01b0319909116178b55965160018b0155935160028a01805493518716600160401b026fffffffffffffffffffffffffffffffff1990941691909616179190911790935591516003870155519490910193909355888352600581528383209183529081528282208583529052908120805492955090610a2583611044565b9091555050815415610a76576001548254610a76916001600160a01b037f00000000000000000000000000000000000000000000000000000000000000008116923392610100900490911690610dcf565b81546040519081523390859085907f60035d63bbab64b7308ea5d7545cab3580021a08473544c8a3325c541f4d100b9060200160405180910390a45050610adc60017f9b779b17422d0df92223018b32b4d1fa46e071723d6817e2486d003becc55f0055565b919050565b5f918252602082815260408084206001600160a01b0393909316845291905290205460ff1690565b5f82815260208190526040902060010154610b2381610bec565b6106068383610c85565b5f610b3781610bec565b6001600160a01b038216610b855760405162461bcd60e51b815260206004820152601560248201527450524f3a20696e76616c696420747265617375727960581b60448201526064016104cb565b6001546040516001600160a01b0380851692610100900416907f4ab5be82436d353e61ca18726e984e561f5c1cc7c6d38b29d2553c790434705a905f90a350600180546001600160a01b0390921661010002610100600160a81b0319909216919091179055565b6107858133610e05565b5f610c018383610ae1565b610c7e575f838152602081815260408083206001600160a01b03861684529091529020805460ff19166001179055610c363390565b6001600160a01b0316826001600160a01b0316847f2f8788117e7eff1d82e926ec794901d17c78024a50270940304540a733656f0d60405160405180910390a450600161043e565b505f61043e565b5f610c908383610ae1565b15610c7e575f838152602081815260408083206001600160a01b0386168085529252808320805460ff1916905551339286917ff6391f5c32d9c69d2a47ea670b442974b53935d1edc7fd64eb21e047a839171b9190a450600161043e565b610cf6610e42565b6001805460ff191690557f5db9ee0a495bf2e6ff9c91a7834c1ba4fdd244a5e8aa4e537bd38aeae4b073aa335b6040516001600160a01b03909116815260200160405180910390a1565b610d48610d7b565b6001805460ff1916811790557f62e78cea01bee320cd4e420270b5ea74000d11b0c9f74754ebdbfc544b05a25833610d23565b60015460ff1615610d9f5760405163d93c066560e01b815260040160405180910390fd5b565b610da9610e65565b60027f9b779b17422d0df92223018b32b4d1fa46e071723d6817e2486d003becc55f0055565b610ddd848484846001610ea7565b61060657604051635274afe760e01b81526001600160a01b03851660048201526024016104cb565b610e0f8282610ae1565b610e3e5760405163e2517d3f60e01b81526001600160a01b0382166004820152602481018390526044016104cb565b5050565b60015460ff16610d9f57604051638dfc202b60e01b815260040160405180910390fd5b7f9b779b17422d0df92223018b32b4d1fa46e071723d6817e2486d003becc55f0054600203610d9f57604051633ee5aeb560e01b815260040160405180910390fd5b6040516323b872dd60e01b5f8181526001600160a01b038781166004528616602452604485905291602083606481808c5af1925060015f51148316610f03578383151615610ef7573d5f823e3d81fd5b5f883b113d1516831692505b604052505f60605295945050505050565b5f60208284031215610f24575f80fd5b81356001600160e01b031981168114610f3b575f80fd5b9392505050565b5f8060408385031215610f53575f80fd5b50508035926020909101359150565b5f60208284031215610f72575f80fd5b5035919050565b80356001600160a01b0381168114610adc575f80fd5b5f8060408385031215610fa0575f80fd5b82359150610fb060208401610f79565b90509250929050565b5f805f8060808587031215610fcc575f80fd5b843593506020850135925060408501358015158114610fe9575f80fd5b9150606085013563ffffffff81168114611001575f80fd5b939692955090935050565b5f6020828403121561101c575f80fd5b610f3b82610f79565b5f8261103f57634e487b7160e01b5f52601260045260245ffd5b500490565b5f6001820161106157634e487b7160e01b5f52601160045260245ffd5b506001019056fea2646970667358221220ccbceb13d4adb5f15319dd3cd2492bcdc99df58460c09fb37c4ee3a98366b89664736f6c63430008180033","opcodes":"PUSH1 0xA0 PUSH1 0x40 MSTORE CALLVALUE DUP1 ISZERO PUSH3 0x10 JUMPI PUSH0 DUP1 REVERT JUMPDEST POP PUSH1 0x40 MLOAD PUSH3 0x13B6 CODESIZE SUB DUP1 PUSH3 0x13B6 DUP4 CODECOPY DUP2 ADD PUSH1 0x40 DUP2 SWAP1 MSTORE PUSH3 0x33 SWAP2 PUSH3 0x2B1 JUMP JUMPDEST PUSH1 0x1 PUSH32 0x9B779B17422D0DF92223018B32B4D1FA46E071723D6817E2486D003BECC55F00 SSTORE PUSH1 0x1 PUSH1 0x1 PUSH1 0xA0 SHL SUB DUP4 AND PUSH3 0xA8 JUMPI PUSH1 0x40 MLOAD PUSH3 0x461BCD PUSH1 0xE5 SHL DUP2 MSTORE PUSH1 0x20 PUSH1 0x4 DUP3 ADD MSTORE PUSH1 0x12 PUSH1 0x24 DUP3 ADD MSTORE PUSH18 0x2829279D1034B73B30B634B2103A37B5B2B7 PUSH1 0x71 SHL PUSH1 0x44 DUP3 ADD MSTORE PUSH1 0x64 ADD JUMPDEST PUSH1 0x40 MLOAD DUP1 SWAP2 SUB SWAP1 REVERT JUMPDEST PUSH1 0x1 PUSH1 0x1 PUSH1 0xA0 SHL SUB DUP3 AND PUSH3 0x100 JUMPI PUSH1 0x40 MLOAD PUSH3 0x461BCD PUSH1 0xE5 SHL DUP2 MSTORE PUSH1 0x20 PUSH1 0x4 DUP3 ADD MSTORE PUSH1 0x15 PUSH1 0x24 DUP3 ADD MSTORE PUSH32 0x50524F3A20696E76616C69642074726561737572790000000000000000000000 PUSH1 0x44 DUP3 ADD MSTORE PUSH1 0x64 ADD PUSH3 0x9F JUMP JUMPDEST PUSH1 0x1 PUSH1 0x1 PUSH1 0xA0 SHL SUB DUP2 AND PUSH3 0x14D JUMPI PUSH1 0x40 MLOAD PUSH3 0x461BCD PUSH1 0xE5 SHL DUP2 MSTORE PUSH1 0x20 PUSH1 0x4 DUP3 ADD MSTORE PUSH1 0x12 PUSH1 0x24 DUP3 ADD MSTORE PUSH18 0x2829279D1034B73B30B634B21030B236B4B7 PUSH1 0x71 SHL PUSH1 0x44 DUP3 ADD MSTORE PUSH1 0x64 ADD PUSH3 0x9F JUMP JUMPDEST PUSH1 0x1 PUSH1 0x1 PUSH1 0xA0 SHL SUB DUP1 DUP5 AND PUSH1 0x80 MSTORE PUSH1 0x1 DUP1 SLOAD SWAP2 DUP5 AND PUSH2 0x100 MUL PUSH2 0x100 PUSH1 0x1 PUSH1 0xA8 SHL SUB NOT SWAP1 SWAP3 AND SWAP2 SWAP1 SWAP2 OR SWAP1 SSTORE PUSH3 0x185 PUSH0 DUP3 PUSH3 0x1E9 JUMP JUMPDEST POP PUSH3 0x1B2 PUSH32 0x122D99BBD8AA87EFCB1A1FBBAA2DAC9D0DEBFD0C247DF39E9646730C715D4C5F DUP3 PUSH3 0x1E9 JUMP JUMPDEST POP PUSH3 0x1DF PUSH32 0x4824FCB60E7CC526D70B264CAA65B62ED44D9C8E5D230E8FF6B0C7373843B8A DUP3 PUSH3 0x1E9 JUMP JUMPDEST POP POP POP POP PUSH3 0x2F8 JUMP JUMPDEST PUSH0 DUP3 DUP2 MSTORE PUSH1 0x20 DUP2 DUP2 MSTORE PUSH1 0x40 DUP1 DUP4 KECCAK256 PUSH1 0x1 PUSH1 0x1 PUSH1 0xA0 SHL SUB DUP6 AND DUP5 MSTORE SWAP1 SWAP2 MSTORE DUP2 KECCAK256 SLOAD PUSH1 0xFF AND PUSH3 0x28C JUMPI PUSH0 DUP4 DUP2 MSTORE PUSH1 0x20 DUP2 DUP2 MSTORE PUSH1 0x40 DUP1 DUP4 KECCAK256 PUSH1 0x1 PUSH1 0x1 PUSH1 0xA0 SHL SUB DUP7 AND DUP5 MSTORE SWAP1 SWAP2 MSTORE SWAP1 KECCAK256 DUP1 SLOAD PUSH1 0xFF NOT AND PUSH1 0x1 OR SWAP1 SSTORE PUSH3 0x243 CALLER SWAP1 JUMP JUMPDEST PUSH1 0x1 PUSH1 0x1 PUSH1 0xA0 SHL SUB AND DUP3 PUSH1 0x1 PUSH1 0x1 PUSH1 0xA0 SHL SUB AND DUP5 PUSH32 0x2F8788117E7EFF1D82E926EC794901D17C78024A50270940304540A733656F0D PUSH1 0x40 MLOAD PUSH1 0x40 MLOAD DUP1 SWAP2 SUB SWAP1 LOG4 POP PUSH1 0x1 PUSH3 0x28F JUMP JUMPDEST POP PUSH0 JUMPDEST SWAP3 SWAP2 POP POP JUMP JUMPDEST DUP1 MLOAD PUSH1 0x1 PUSH1 0x1 PUSH1 0xA0 SHL SUB DUP2 AND DUP2 EQ PUSH3 0x2AC JUMPI PUSH0 DUP1 REVERT JUMPDEST SWAP2 SWAP1 POP JUMP JUMPDEST PUSH0 DUP1 PUSH0 PUSH1 0x60 DUP5 DUP7 SUB SLT ISZERO PUSH3 0x2C4 JUMPI PUSH0 DUP1 REVERT JUMPDEST PUSH3 0x2CF DUP5 PUSH3 0x295 JUMP JUMPDEST SWAP3 POP PUSH3 0x2DF PUSH1 0x20 DUP6 ADD PUSH3 0x295 JUMP JUMPDEST SWAP2 POP PUSH3 0x2EF PUSH1 0x40 DUP6 ADD PUSH3 0x295 JUMP JUMPDEST SWAP1 POP SWAP3 POP SWAP3 POP SWAP3 JUMP JUMPDEST PUSH1 0x80 MLOAD PUSH2 0x109E PUSH3 0x318 PUSH0 CODECOPY PUSH0 DUP2 DUP2 PUSH2 0x22F ADD MSTORE PUSH2 0xA44 ADD MSTORE PUSH2 0x109E PUSH0 RETURN INVALID PUSH1 0x80 PUSH1 0x40 MSTORE CALLVALUE DUP1 ISZERO PUSH2 0xF JUMPI PUSH0 DUP1 REVERT JUMPDEST POP PUSH1 0x4 CALLDATASIZE LT PUSH2 0x13D JUMPI PUSH0 CALLDATALOAD PUSH1 0xE0 SHR DUP1 PUSH4 0x73CD8336 GT PUSH2 0xB4 JUMPI DUP1 PUSH4 0x91D14854 GT PUSH2 0x79 JUMPI DUP1 PUSH4 0x91D14854 EQ PUSH2 0x350 JUMPI DUP1 PUSH4 0x9FC1D353 EQ PUSH2 0x363 JUMPI DUP1 PUSH4 0xA217FDDF EQ PUSH2 0x3BA JUMPI DUP1 PUSH4 0xD547741F EQ PUSH2 0x3C1 JUMPI DUP1 PUSH4 0xF00ACBAA EQ PUSH2 0x3D4 JUMPI DUP1 PUSH4 0xF0F44260 EQ PUSH2 0x3FB JUMPI PUSH0 DUP1 REVERT JUMPDEST DUP1 PUSH4 0x73CD8336 EQ PUSH2 0x278 JUMPI DUP1 PUSH4 0x83C4B7A3 EQ PUSH2 0x281 JUMPI DUP1 PUSH4 0x8456CB59 EQ PUSH2 0x322 JUMPI DUP1 PUSH4 0x85ADDBEA EQ PUSH2 0x32A JUMPI DUP1 PUSH4 0x8E66FCB5 EQ PUSH2 0x33D JUMPI PUSH0 DUP1 REVERT JUMPDEST DUP1 PUSH4 0x3F32F904 GT PUSH2 0x105 JUMPI DUP1 PUSH4 0x3F32F904 EQ PUSH2 0x1D4 JUMPI DUP1 PUSH4 0x3F4BA83A EQ PUSH2 0x1E7 JUMPI DUP1 PUSH4 0x5C975ABB EQ PUSH2 0x1EF JUMPI DUP1 PUSH4 0x61D027B3 EQ PUSH2 0x1FA JUMPI DUP1 PUSH4 0x62B24EA2 EQ PUSH2 0x22A JUMPI DUP1 PUSH4 0x6A4F1C23 EQ PUSH2 0x251 JUMPI PUSH0 DUP1 REVERT JUMPDEST DUP1 PUSH4 0x1FFC9A7 EQ PUSH2 0x141 JUMPI DUP1 PUSH4 0x1266861E EQ PUSH2 0x169 JUMPI DUP1 PUSH4 0x248A9CA3 EQ PUSH2 0x17E JUMPI DUP1 PUSH4 0x2F2FF15D EQ PUSH2 0x1AE JUMPI DUP1 PUSH4 0x36568ABE EQ PUSH2 0x1C1 JUMPI JUMPDEST PUSH0 DUP1 REVERT JUMPDEST PUSH2 0x154 PUSH2 0x14F CALLDATASIZE PUSH1 0x4 PUSH2 0xF14 JUMP JUMPDEST PUSH2 0x40E JUMP JUMPDEST PUSH1 0x40 MLOAD SWAP1 ISZERO ISZERO DUP2 MSTORE PUSH1 0x20 ADD JUMPDEST PUSH1 0x40 MLOAD DUP1 SWAP2 SUB SWAP1 RETURN JUMPDEST PUSH2 0x17C PUSH2 0x177 CALLDATASIZE PUSH1 0x4 PUSH2 0xF42 JUMP JUMPDEST PUSH2 0x444 JUMP JUMPDEST STOP JUMPDEST PUSH2 0x1A0 PUSH2 0x18C CALLDATASIZE PUSH1 0x4 PUSH2 0xF62 JUMP JUMPDEST PUSH0 SWAP1 DUP2 MSTORE PUSH1 0x20 DUP2 SWAP1 MSTORE PUSH1 0x40 SWAP1 KECCAK256 PUSH1 0x1 ADD SLOAD SWAP1 JUMP JUMPDEST PUSH1 0x40 MLOAD SWAP1 DUP2 MSTORE PUSH1 0x20 ADD PUSH2 0x160 JUMP JUMPDEST PUSH2 0x17C PUSH2 0x1BC CALLDATASIZE PUSH1 0x4 PUSH2 0xF8F JUMP JUMPDEST PUSH2 0x5E2 JUMP JUMPDEST PUSH2 0x17C PUSH2 0x1CF CALLDATASIZE PUSH1 0x4 PUSH2 0xF8F JUMP JUMPDEST PUSH2 0x60C JUMP JUMPDEST PUSH2 0x17C PUSH2 0x1E2 CALLDATASIZE PUSH1 0x4 PUSH2 0xFB9 JUMP JUMPDEST PUSH2 0x644 JUMP JUMPDEST PUSH2 0x17C PUSH2 0x773 JUMP JUMPDEST PUSH1 0x1 SLOAD PUSH1 0xFF AND PUSH2 0x154 JUMP JUMPDEST PUSH1 0x1 SLOAD PUSH2 0x212 SWAP1 PUSH2 0x100 SWAP1 DIV PUSH1 0x1 PUSH1 0x1 PUSH1 0xA0 SHL SUB AND DUP2 JUMP JUMPDEST PUSH1 0x40 MLOAD PUSH1 0x1 PUSH1 0x1 PUSH1 0xA0 SHL SUB SWAP1 SWAP2 AND DUP2 MSTORE PUSH1 0x20 ADD PUSH2 0x160 JUMP JUMPDEST PUSH2 0x212 PUSH32 0x0 DUP2 JUMP JUMPDEST PUSH2 0x1A0 PUSH32 0x122D99BBD8AA87EFCB1A1FBBAA2DAC9D0DEBFD0C247DF39E9646730C715D4C5F DUP2 JUMP JUMPDEST PUSH2 0x1A0 PUSH1 0x2 SLOAD DUP2 JUMP JUMPDEST PUSH2 0x2DD PUSH2 0x28F CALLDATASIZE PUSH1 0x4 PUSH2 0xF62 JUMP JUMPDEST PUSH1 0x4 PUSH1 0x20 DUP2 SWAP1 MSTORE PUSH0 SWAP2 DUP3 MSTORE PUSH1 0x40 SWAP1 SWAP2 KECCAK256 DUP1 SLOAD PUSH1 0x1 DUP3 ADD SLOAD PUSH1 0x2 DUP4 ADD SLOAD PUSH1 0x3 DUP5 ADD SLOAD SWAP4 SWAP1 SWAP5 ADD SLOAD PUSH1 0x1 PUSH1 0x1 PUSH1 0xA0 SHL SUB SWAP1 SWAP3 AND SWAP4 SWAP1 SWAP3 PUSH8 0xFFFFFFFFFFFFFFFF DUP1 DUP4 AND SWAP4 PUSH1 0x1 PUSH1 0x40 SHL SWAP1 SWAP4 DIV AND SWAP2 DUP7 JUMP JUMPDEST PUSH1 0x40 DUP1 MLOAD PUSH1 0x1 PUSH1 0x1 PUSH1 0xA0 SHL SUB SWAP1 SWAP8 AND DUP8 MSTORE PUSH1 0x20 DUP8 ADD SWAP6 SWAP1 SWAP6 MSTORE PUSH8 0xFFFFFFFFFFFFFFFF SWAP4 DUP5 AND SWAP5 DUP7 ADD SWAP5 SWAP1 SWAP5 MSTORE SWAP2 AND PUSH1 0x60 DUP5 ADD MSTORE PUSH1 0x80 DUP4 ADD MSTORE PUSH1 0xA0 DUP3 ADD MSTORE PUSH1 0xC0 ADD PUSH2 0x160 JUMP JUMPDEST PUSH2 0x17C PUSH2 0x788 JUMP JUMPDEST PUSH2 0x1A0 PUSH2 0x338 CALLDATASIZE PUSH1 0x4 PUSH2 0xF8F JUMP JUMPDEST PUSH2 0x79A JUMP JUMPDEST PUSH2 0x1A0 PUSH2 0x34B CALLDATASIZE PUSH1 0x4 PUSH2 0xF62 JUMP JUMPDEST PUSH2 0x7DF JUMP JUMPDEST PUSH2 0x154 PUSH2 0x35E CALLDATASIZE PUSH1 0x4 PUSH2 0xF8F JUMP JUMPDEST PUSH2 0xAE1 JUMP JUMPDEST PUSH2 0x399 PUSH2 0x371 CALLDATASIZE PUSH1 0x4 PUSH2 0xF62 JUMP JUMPDEST PUSH1 0x3 PUSH1 0x20 MSTORE PUSH0 SWAP1 DUP2 MSTORE PUSH1 0x40 SWAP1 KECCAK256 DUP1 SLOAD PUSH1 0x1 SWAP1 SWAP2 ADD SLOAD PUSH1 0xFF DUP2 AND SWAP1 PUSH2 0x100 SWAP1 DIV PUSH4 0xFFFFFFFF AND DUP4 JUMP JUMPDEST PUSH1 0x40 DUP1 MLOAD SWAP4 DUP5 MSTORE SWAP2 ISZERO ISZERO PUSH1 0x20 DUP5 ADD MSTORE PUSH4 0xFFFFFFFF AND SWAP1 DUP3 ADD MSTORE PUSH1 0x60 ADD PUSH2 0x160 JUMP JUMPDEST PUSH2 0x1A0 PUSH0 DUP2 JUMP JUMPDEST PUSH2 0x17C PUSH2 0x3CF CALLDATASIZE PUSH1 0x4 PUSH2 0xF8F JUMP JUMPDEST PUSH2 0xB09 JUMP JUMPDEST PUSH2 0x1A0 PUSH32 0x4824FCB60E7CC526D70B264CAA65B62ED44D9C8E5D230E8FF6B0C7373843B8A DUP2 JUMP JUMPDEST PUSH2 0x17C PUSH2 0x409 CALLDATASIZE PUSH1 0x4 PUSH2 0x100C JUMP JUMPDEST PUSH2 0xB2D JUMP JUMPDEST PUSH0 PUSH1 0x1 PUSH1 0x1 PUSH1 0xE0 SHL SUB NOT DUP3 AND PUSH4 0x7965DB0B PUSH1 0xE0 SHL EQ DUP1 PUSH2 0x43E JUMPI POP PUSH4 0x1FFC9A7 PUSH1 0xE0 SHL PUSH1 0x1 PUSH1 0x1 PUSH1 0xE0 SHL SUB NOT DUP4 AND EQ JUMPDEST SWAP3 SWAP2 POP POP JUMP JUMPDEST PUSH32 0x122D99BBD8AA87EFCB1A1FBBAA2DAC9D0DEBFD0C247DF39E9646730C715D4C5F PUSH2 0x46E DUP2 PUSH2 0xBEC JUMP JUMPDEST PUSH0 DUP4 DUP2 MSTORE PUSH1 0x4 PUSH1 0x20 MSTORE PUSH1 0x40 SWAP1 KECCAK256 PUSH1 0x2 DUP2 ADD SLOAD PUSH8 0xFFFFFFFFFFFFFFFF AND PUSH2 0x4D4 JUMPI PUSH1 0x40 MLOAD PUSH3 0x461BCD PUSH1 0xE5 SHL DUP2 MSTORE PUSH1 0x20 PUSH1 0x4 DUP3 ADD MSTORE PUSH1 0x16 PUSH1 0x24 DUP3 ADD MSTORE PUSH22 0x141493CE881CD95CDCDA5BDB881B9BDD08199BDD5B99 PUSH1 0x52 SHL PUSH1 0x44 DUP3 ADD MSTORE PUSH1 0x64 ADD JUMPDEST PUSH1 0x40 MLOAD DUP1 SWAP2 SUB SWAP1 REVERT JUMPDEST PUSH1 0x2 DUP2 ADD SLOAD PUSH1 0x1 PUSH1 0x40 SHL SWAP1 DIV PUSH8 0xFFFFFFFFFFFFFFFF AND ISZERO PUSH2 0x530 JUMPI PUSH1 0x40 MLOAD PUSH3 0x461BCD PUSH1 0xE5 SHL DUP2 MSTORE PUSH1 0x20 PUSH1 0x4 DUP3 ADD MSTORE PUSH1 0x16 PUSH1 0x24 DUP3 ADD MSTORE PUSH22 0x141493CE88185B1C9958591E48199A5B985B1A5E9959 PUSH1 0x52 SHL PUSH1 0x44 DUP3 ADD MSTORE PUSH1 0x64 ADD PUSH2 0x4CB JUMP JUMPDEST DUP3 PUSH2 0x571 JUMPI PUSH1 0x40 MLOAD PUSH3 0x461BCD PUSH1 0xE5 SHL DUP2 MSTORE PUSH1 0x20 PUSH1 0x4 DUP3 ADD MSTORE PUSH1 0x11 PUSH1 0x24 DUP3 ADD MSTORE PUSH17 0xA0A49E7440D2DCECC2D8D2C840D0C2E6D PUSH1 0x7B SHL PUSH1 0x44 DUP3 ADD MSTORE PUSH1 0x64 ADD PUSH2 0x4CB JUMP JUMPDEST PUSH1 0x2 DUP2 ADD DUP1 SLOAD PUSH16 0xFFFFFFFFFFFFFFFF0000000000000000 NOT AND PUSH1 0x1 PUSH1 0x40 SHL TIMESTAMP PUSH8 0xFFFFFFFFFFFFFFFF AND MUL OR SWAP1 SSTORE PUSH1 0x4 DUP2 ADD DUP4 SWAP1 SSTORE PUSH1 0x40 MLOAD DUP4 DUP2 MSTORE CALLER SWAP1 DUP6 SWAP1 PUSH32 0x709C8A4455D05BD0BA7466B14198FB626DB214FF0CA4E54D78C08869D9FE1613 SWAP1 PUSH1 0x20 ADD PUSH1 0x40 MLOAD DUP1 SWAP2 SUB SWAP1 LOG3 POP POP POP POP JUMP JUMPDEST PUSH0 DUP3 DUP2 MSTORE PUSH1 0x20 DUP2 SWAP1 MSTORE PUSH1 0x40 SWAP1 KECCAK256 PUSH1 0x1 ADD SLOAD PUSH2 0x5FC DUP2 PUSH2 0xBEC JUMP JUMPDEST PUSH2 0x606 DUP4 DUP4 PUSH2 0xBF6 JUMP JUMPDEST POP POP POP POP JUMP JUMPDEST PUSH1 0x1 PUSH1 0x1 PUSH1 0xA0 SHL SUB DUP2 AND CALLER EQ PUSH2 0x635 JUMPI PUSH1 0x40 MLOAD PUSH4 0x334BD919 PUSH1 0xE1 SHL DUP2 MSTORE PUSH1 0x4 ADD PUSH1 0x40 MLOAD DUP1 SWAP2 SUB SWAP1 REVERT JUMPDEST PUSH2 0x63F DUP3 DUP3 PUSH2 0xC85 JUMP JUMPDEST POP POP POP JUMP JUMPDEST PUSH32 0x4824FCB60E7CC526D70B264CAA65B62ED44D9C8E5D230E8FF6B0C7373843B8A PUSH2 0x66E DUP2 PUSH2 0xBEC JUMP JUMPDEST PUSH0 DUP3 PUSH4 0xFFFFFFFF AND GT PUSH2 0x6C3 JUMPI PUSH1 0x40 MLOAD PUSH3 0x461BCD PUSH1 0xE5 SHL DUP2 MSTORE PUSH1 0x20 PUSH1 0x4 DUP3 ADD MSTORE PUSH1 0x18 PUSH1 0x24 DUP3 ADD MSTORE PUSH32 0x50524F3A20696E76616C6964206461696C79206C696D69740000000000000000 PUSH1 0x44 DUP3 ADD MSTORE PUSH1 0x64 ADD PUSH2 0x4CB JUMP JUMPDEST PUSH1 0x40 DUP1 MLOAD PUSH1 0x60 DUP1 DUP3 ADD DUP4 MSTORE DUP7 DUP3 MSTORE DUP6 ISZERO ISZERO PUSH1 0x20 DUP1 DUP5 ADD DUP3 DUP2 MSTORE PUSH4 0xFFFFFFFF DUP9 DUP2 AND DUP7 DUP9 ADD DUP2 DUP2 MSTORE PUSH0 DUP15 DUP2 MSTORE PUSH1 0x3 DUP7 MSTORE DUP10 SWAP1 KECCAK256 SWAP8 MLOAD DUP9 SSTORE SWAP3 MLOAD PUSH1 0x1 SWAP1 SWAP8 ADD DUP1 SLOAD SWAP4 MLOAD PUSH5 0xFFFFFFFFFF NOT SWAP1 SWAP5 AND SWAP8 ISZERO ISZERO PUSH5 0xFFFFFFFF00 NOT AND SWAP8 SWAP1 SWAP8 OR PUSH2 0x100 SWAP4 SWAP1 SWAP3 AND SWAP3 SWAP1 SWAP3 MUL OR SWAP1 SWAP5 SSTORE DUP5 MLOAD DUP10 DUP2 MSTORE SWAP1 DUP2 ADD SWAP2 SWAP1 SWAP2 MSTORE SWAP3 DUP4 ADD SWAP2 SWAP1 SWAP2 MSTORE DUP7 SWAP2 PUSH32 0xFA1BAD519983D507A5EB2B46A5FA4ABD393363A208CF9A8D3C80CE8A0F4842AE SWAP2 ADD PUSH1 0x40 MLOAD DUP1 SWAP2 SUB SWAP1 LOG2 POP POP POP POP POP JUMP JUMPDEST PUSH0 PUSH2 0x77D DUP2 PUSH2 0xBEC JUMP JUMPDEST PUSH2 0x785 PUSH2 0xCEE JUMP JUMPDEST POP JUMP JUMPDEST PUSH0 PUSH2 0x792 DUP2 PUSH2 0xBEC JUMP JUMPDEST PUSH2 0x785 PUSH2 0xD40 JUMP JUMPDEST PUSH0 DUP3 DUP2 MSTORE PUSH1 0x5 PUSH1 0x20 SWAP1 DUP2 MSTORE PUSH1 0x40 DUP1 DUP4 KECCAK256 PUSH1 0x1 PUSH1 0x1 PUSH1 0xA0 SHL SUB DUP6 AND DUP5 MSTORE SWAP1 SWAP2 MSTORE DUP2 KECCAK256 DUP2 PUSH2 0x7C9 PUSH3 0x15180 TIMESTAMP PUSH2 0x1025 JUMP JUMPDEST DUP2 MSTORE PUSH1 0x20 ADD SWAP1 DUP2 MSTORE PUSH1 0x20 ADD PUSH0 KECCAK256 SLOAD SWAP1 POP SWAP3 SWAP2 POP POP JUMP JUMPDEST PUSH0 PUSH2 0x7E8 PUSH2 0xD7B JUMP JUMPDEST PUSH2 0x7F0 PUSH2 0xDA1 JUMP JUMPDEST PUSH0 DUP3 DUP2 MSTORE PUSH1 0x3 PUSH1 0x20 MSTORE PUSH1 0x40 SWAP1 KECCAK256 PUSH1 0x1 DUP2 ADD SLOAD PUSH1 0xFF AND PUSH2 0x849 JUMPI PUSH1 0x40 MLOAD PUSH3 0x461BCD PUSH1 0xE5 SHL DUP2 MSTORE PUSH1 0x20 PUSH1 0x4 DUP3 ADD MSTORE PUSH1 0x15 PUSH1 0x24 DUP3 ADD MSTORE PUSH21 0x50524F3A207365727669636520696E616374697665 PUSH1 0x58 SHL PUSH1 0x44 DUP3 ADD MSTORE PUSH1 0x64 ADD PUSH2 0x4CB JUMP JUMPDEST PUSH1 0x1 DUP2 ADD SLOAD PUSH2 0x100 SWAP1 DIV PUSH4 0xFFFFFFFF AND PUSH2 0x8A5 JUMPI PUSH1 0x40 MLOAD PUSH3 0x461BCD PUSH1 0xE5 SHL DUP2 MSTORE PUSH1 0x20 PUSH1 0x4 DUP3 ADD MSTORE PUSH1 0x1B PUSH1 0x24 DUP3 ADD MSTORE PUSH32 0x50524F3A2073657276696365206E6F7420636F6E666967757265640000000000 PUSH1 0x44 DUP3 ADD MSTORE PUSH1 0x64 ADD PUSH2 0x4CB JUMP JUMPDEST PUSH0 PUSH2 0x8B3 PUSH3 0x15180 TIMESTAMP PUSH2 0x1025 JUMP JUMPDEST PUSH1 0x1 DUP4 ADD SLOAD PUSH0 DUP7 DUP2 MSTORE PUSH1 0x5 PUSH1 0x20 SWAP1 DUP2 MSTORE PUSH1 0x40 DUP1 DUP4 KECCAK256 CALLER DUP5 MSTORE DUP3 MSTORE DUP1 DUP4 KECCAK256 DUP6 DUP5 MSTORE SWAP1 SWAP2 MSTORE SWAP1 KECCAK256 SLOAD SWAP2 SWAP3 POP PUSH2 0x100 SWAP1 DIV PUSH4 0xFFFFFFFF AND GT PUSH2 0x934 JUMPI PUSH1 0x40 MLOAD PUSH3 0x461BCD PUSH1 0xE5 SHL DUP2 MSTORE PUSH1 0x20 PUSH1 0x4 DUP3 ADD DUP2 SWAP1 MSTORE PUSH1 0x24 DUP3 ADD MSTORE PUSH32 0x50524F3A206461696C792073657373696F6E206C696D69742072656163686564 PUSH1 0x44 DUP3 ADD MSTORE PUSH1 0x64 ADD PUSH2 0x4CB JUMP JUMPDEST PUSH1 0x2 DUP1 SLOAD SWAP1 PUSH0 PUSH2 0x943 DUP4 PUSH2 0x1044 JUMP JUMPDEST SWAP1 SWAP2 SSTORE POP PUSH1 0x40 DUP1 MLOAD PUSH1 0xC0 DUP2 ADD DUP3 MSTORE CALLER DUP1 DUP3 MSTORE PUSH1 0x20 DUP1 DUP4 ADD DUP10 DUP2 MSTORE PUSH8 0xFFFFFFFFFFFFFFFF TIMESTAMP DUP2 AND DUP6 DUP8 ADD SWAP1 DUP2 MSTORE PUSH0 PUSH1 0x60 DUP8 ADD DUP2 DUP2 MSTORE DUP12 SLOAD PUSH1 0x80 DUP10 ADD SWAP1 DUP2 MSTORE PUSH1 0xA0 DUP10 ADD DUP4 DUP2 MSTORE DUP12 DUP5 MSTORE PUSH1 0x4 DUP1 DUP10 MSTORE DUP12 DUP6 KECCAK256 SWAP11 MLOAD DUP12 SLOAD PUSH1 0x1 PUSH1 0x1 PUSH1 0xA0 SHL SUB SWAP2 SWAP1 SWAP2 AND PUSH1 0x1 PUSH1 0x1 PUSH1 0xA0 SHL SUB NOT SWAP1 SWAP2 AND OR DUP12 SSTORE SWAP7 MLOAD PUSH1 0x1 DUP12 ADD SSTORE SWAP4 MLOAD PUSH1 0x2 DUP11 ADD DUP1 SLOAD SWAP4 MLOAD DUP8 AND PUSH1 0x1 PUSH1 0x40 SHL MUL PUSH16 0xFFFFFFFFFFFFFFFFFFFFFFFFFFFFFFFF NOT SWAP1 SWAP5 AND SWAP2 SWAP1 SWAP7 AND OR SWAP2 SWAP1 SWAP2 OR SWAP1 SWAP4 SSTORE SWAP2 MLOAD PUSH1 0x3 DUP8 ADD SSTORE MLOAD SWAP5 SWAP1 SWAP2 ADD SWAP4 SWAP1 SWAP4 SSTORE DUP9 DUP4 MSTORE PUSH1 0x5 DUP2 MSTORE DUP4 DUP4 KECCAK256 SWAP2 DUP4 MSTORE SWAP1 DUP2 MSTORE DUP3 DUP3 KECCAK256 DUP6 DUP4 MSTORE SWAP1 MSTORE SWAP1 DUP2 KECCAK256 DUP1 SLOAD SWAP3 SWAP6 POP SWAP1 PUSH2 0xA25 DUP4 PUSH2 0x1044 JUMP JUMPDEST SWAP1 SWAP2 SSTORE POP POP DUP2 SLOAD ISZERO PUSH2 0xA76 JUMPI PUSH1 0x1 SLOAD DUP3 SLOAD PUSH2 0xA76 SWAP2 PUSH1 0x1 PUSH1 0x1 PUSH1 0xA0 SHL SUB PUSH32 0x0 DUP2 AND SWAP3 CALLER SWAP3 PUSH2 0x100 SWAP1 DIV SWAP1 SWAP2 AND SWAP1 PUSH2 0xDCF JUMP JUMPDEST DUP2 SLOAD PUSH1 0x40 MLOAD SWAP1 DUP2 MSTORE CALLER SWAP1 DUP6 SWAP1 DUP6 SWAP1 PUSH32 0x60035D63BBAB64B7308EA5D7545CAB3580021A08473544C8A3325C541F4D100B SWAP1 PUSH1 0x20 ADD PUSH1 0x40 MLOAD DUP1 SWAP2 SUB SWAP1 LOG4 POP POP PUSH2 0xADC PUSH1 0x1 PUSH32 0x9B779B17422D0DF92223018B32B4D1FA46E071723D6817E2486D003BECC55F00 SSTORE JUMP JUMPDEST SWAP2 SWAP1 POP JUMP JUMPDEST PUSH0 SWAP2 DUP3 MSTORE PUSH1 0x20 DUP3 DUP2 MSTORE PUSH1 0x40 DUP1 DUP5 KECCAK256 PUSH1 0x1 PUSH1 0x1 PUSH1 0xA0 SHL SUB SWAP4 SWAP1 SWAP4 AND DUP5 MSTORE SWAP2 SWAP1 MSTORE SWAP1 KECCAK256 SLOAD PUSH1 0xFF AND SWAP1 JUMP JUMPDEST PUSH0 DUP3 DUP2 MSTORE PUSH1 0x20 DUP2 SWAP1 MSTORE PUSH1 0x40 SWAP1 KECCAK256 PUSH1 0x1 ADD SLOAD PUSH2 0xB23 DUP2 PUSH2 0xBEC JUMP JUMPDEST PUSH2 0x606 DUP4 DUP4 PUSH2 0xC85 JUMP JUMPDEST PUSH0 PUSH2 0xB37 DUP2 PUSH2 0xBEC JUMP JUMPDEST PUSH1 0x1 PUSH1 0x1 PUSH1 0xA0 SHL SUB DUP3 AND PUSH2 0xB85 JUMPI PUSH1 0x40 MLOAD PUSH3 0x461BCD PUSH1 0xE5 SHL DUP2 MSTORE PUSH1 0x20 PUSH1 0x4 DUP3 ADD MSTORE PUSH1 0x15 PUSH1 0x24 DUP3 ADD MSTORE PUSH21 0x50524F3A20696E76616C6964207472656173757279 PUSH1 0x58 SHL PUSH1 0x44 DUP3 ADD MSTORE PUSH1 0x64 ADD PUSH2 0x4CB JUMP JUMPDEST PUSH1 0x1 SLOAD PUSH1 0x40 MLOAD PUSH1 0x1 PUSH1 0x1 PUSH1 0xA0 SHL SUB DUP1 DUP6 AND SWAP3 PUSH2 0x100 SWAP1 DIV AND SWAP1 PUSH32 0x4AB5BE82436D353E61CA18726E984E561F5C1CC7C6D38B29D2553C790434705A SWAP1 PUSH0 SWAP1 LOG3 POP PUSH1 0x1 DUP1 SLOAD PUSH1 0x1 PUSH1 0x1 PUSH1 0xA0 SHL SUB SWAP1 SWAP3 AND PUSH2 0x100 MUL PUSH2 0x100 PUSH1 0x1 PUSH1 0xA8 SHL SUB NOT SWAP1 SWAP3 AND SWAP2 SWAP1 SWAP2 OR SWAP1 SSTORE JUMP JUMPDEST PUSH2 0x785 DUP2 CALLER PUSH2 0xE05 JUMP JUMPDEST PUSH0 PUSH2 0xC01 DUP4 DUP4 PUSH2 0xAE1 JUMP JUMPDEST PUSH2 0xC7E JUMPI PUSH0 DUP4 DUP2 MSTORE PUSH1 0x20 DUP2 DUP2 MSTORE PUSH1 0x40 DUP1 DUP4 KECCAK256 PUSH1 0x1 PUSH1 0x1 PUSH1 0xA0 SHL SUB DUP7 AND DUP5 MSTORE SWAP1 SWAP2 MSTORE SWAP1 KECCAK256 DUP1 SLOAD PUSH1 0xFF NOT AND PUSH1 0x1 OR SWAP1 SSTORE PUSH2 0xC36 CALLER SWAP1 JUMP JUMPDEST PUSH1 0x1 PUSH1 0x1 PUSH1 0xA0 SHL SUB AND DUP3 PUSH1 0x1 PUSH1 0x1 PUSH1 0xA0 SHL SUB AND DUP5 PUSH32 0x2F8788117E7EFF1D82E926EC794901D17C78024A50270940304540A733656F0D PUSH1 0x40 MLOAD PUSH1 0x40 MLOAD DUP1 SWAP2 SUB SWAP1 LOG4 POP PUSH1 0x1 PUSH2 0x43E JUMP JUMPDEST POP PUSH0 PUSH2 0x43E JUMP JUMPDEST PUSH0 PUSH2 0xC90 DUP4 DUP4 PUSH2 0xAE1 JUMP JUMPDEST ISZERO PUSH2 0xC7E JUMPI PUSH0 DUP4 DUP2 MSTORE PUSH1 0x20 DUP2 DUP2 MSTORE PUSH1 0x40 DUP1 DUP4 KECCAK256 PUSH1 0x1 PUSH1 0x1 PUSH1 0xA0 SHL SUB DUP7 AND DUP1 DUP6 MSTORE SWAP3 MSTORE DUP1 DUP4 KECCAK256 DUP1 SLOAD PUSH1 0xFF NOT AND SWAP1 SSTORE MLOAD CALLER SWAP3 DUP7 SWAP2 PUSH32 0xF6391F5C32D9C69D2A47EA670B442974B53935D1EDC7FD64EB21E047A839171B SWAP2 SWAP1 LOG4 POP PUSH1 0x1 PUSH2 0x43E JUMP JUMPDEST PUSH2 0xCF6 PUSH2 0xE42 JUMP JUMPDEST PUSH1 0x1 DUP1 SLOAD PUSH1 0xFF NOT AND SWAP1 SSTORE PUSH32 0x5DB9EE0A495BF2E6FF9C91A7834C1BA4FDD244A5E8AA4E537BD38AEAE4B073AA CALLER JUMPDEST PUSH1 0x40 MLOAD PUSH1 0x1 PUSH1 0x1 PUSH1 0xA0 SHL SUB SWAP1 SWAP2 AND DUP2 MSTORE PUSH1 0x20 ADD PUSH1 0x40 MLOAD DUP1 SWAP2 SUB SWAP1 LOG1 JUMP JUMPDEST PUSH2 0xD48 PUSH2 0xD7B JUMP JUMPDEST PUSH1 0x1 DUP1 SLOAD PUSH1 0xFF NOT AND DUP2 OR SWAP1 SSTORE PUSH32 0x62E78CEA01BEE320CD4E420270B5EA74000D11B0C9F74754EBDBFC544B05A258 CALLER PUSH2 0xD23 JUMP JUMPDEST PUSH1 0x1 SLOAD PUSH1 0xFF AND ISZERO PUSH2 0xD9F JUMPI PUSH1 0x40 MLOAD PUSH4 0xD93C0665 PUSH1 0xE0 SHL DUP2 MSTORE PUSH1 0x4 ADD PUSH1 0x40 MLOAD DUP1 SWAP2 SUB SWAP1 REVERT JUMPDEST JUMP JUMPDEST PUSH2 0xDA9 PUSH2 0xE65 JUMP JUMPDEST PUSH1 0x2 PUSH32 0x9B779B17422D0DF92223018B32B4D1FA46E071723D6817E2486D003BECC55F00 SSTORE JUMP JUMPDEST PUSH2 0xDDD DUP5 DUP5 DUP5 DUP5 PUSH1 0x1 PUSH2 0xEA7 JUMP JUMPDEST PUSH2 0x606 JUMPI PUSH1 0x40 MLOAD PUSH4 0x5274AFE7 PUSH1 0xE0 SHL DUP2 MSTORE PUSH1 0x1 PUSH1 0x1 PUSH1 0xA0 SHL SUB DUP6 AND PUSH1 0x4 DUP3 ADD MSTORE PUSH1 0x24 ADD PUSH2 0x4CB JUMP JUMPDEST PUSH2 0xE0F DUP3 DUP3 PUSH2 0xAE1 JUMP JUMPDEST PUSH2 0xE3E JUMPI PUSH1 0x40 MLOAD PUSH4 0xE2517D3F PUSH1 0xE0 SHL DUP2 MSTORE PUSH1 0x1 PUSH1 0x1 PUSH1 0xA0 SHL SUB DUP3 AND PUSH1 0x4 DUP3 ADD MSTORE PUSH1 0x24 DUP2 ADD DUP4 SWAP1 MSTORE PUSH1 0x44 ADD PUSH2 0x4CB JUMP JUMPDEST POP POP JUMP JUMPDEST PUSH1 0x1 SLOAD PUSH1 0xFF AND PUSH2 0xD9F JUMPI PUSH1 0x40 MLOAD PUSH4 0x8DFC202B PUSH1 0xE0 SHL DUP2 MSTORE PUSH1 0x4 ADD PUSH1 0x40 MLOAD DUP1 SWAP2 SUB SWAP1 REVERT JUMPDEST PUSH32 0x9B779B17422D0DF92223018B32B4D1FA46E071723D6817E2486D003BECC55F00 SLOAD PUSH1 0x2 SUB PUSH2 0xD9F JUMPI PUSH1 0x40 MLOAD PUSH4 0x3EE5AEB5 PUSH1 0xE0 SHL DUP2 MSTORE PUSH1 0x4 ADD PUSH1 0x40 MLOAD DUP1 SWAP2 SUB SWAP1 REVERT JUMPDEST PUSH1 0x40 MLOAD PUSH4 0x23B872DD PUSH1 0xE0 SHL PUSH0 DUP2 DUP2 MSTORE PUSH1 0x1 PUSH1 0x1 PUSH1 0xA0 SHL SUB DUP8 DUP2 AND PUSH1 0x4 MSTORE DUP7 AND PUSH1 0x24 MSTORE PUSH1 0x44 DUP6 SWAP1 MSTORE SWAP2 PUSH1 0x20 DUP4 PUSH1 0x64 DUP2 DUP1 DUP13 GAS CALL SWAP3 POP PUSH1 0x1 PUSH0 MLOAD EQ DUP4 AND PUSH2 0xF03 JUMPI DUP4 DUP4 ISZERO AND ISZERO PUSH2 0xEF7 JUMPI RETURNDATASIZE PUSH0 DUP3 RETURNDATACOPY RETURNDATASIZE DUP2 REVERT JUMPDEST PUSH0 DUP9 EXTCODESIZE GT RETURNDATASIZE ISZERO AND DUP4 AND SWAP3 POP JUMPDEST PUSH1 0x40 MSTORE POP PUSH0 PUSH1 0x60 MSTORE SWAP6 SWAP5 POP POP POP POP POP JUMP JUMPDEST PUSH0 PUSH1 0x20 DUP3 DUP5 SUB SLT ISZERO PUSH2 0xF24 JUMPI PUSH0 DUP1 REVERT JUMPDEST DUP2 CALLDATALOAD PUSH1 0x1 PUSH1 0x1 PUSH1 0xE0 SHL SUB NOT DUP2 AND DUP2 EQ PUSH2 0xF3B JUMPI PUSH0 DUP1 REVERT JUMPDEST SWAP4 SWAP3 POP POP POP JUMP JUMPDEST PUSH0 DUP1 PUSH1 0x40 DUP4 DUP6 SUB SLT ISZERO PUSH2 0xF53 JUMPI PUSH0 DUP1 REVERT JUMPDEST POP POP DUP1 CALLDATALOAD SWAP3 PUSH1 0x20 SWAP1 SWAP2 ADD CALLDATALOAD SWAP2 POP JUMP JUMPDEST PUSH0 PUSH1 0x20 DUP3 DUP5 SUB SLT ISZERO PUSH2 0xF72 JUMPI PUSH0 DUP1 REVERT JUMPDEST POP CALLDATALOAD SWAP2 SWAP1 POP JUMP JUMPDEST DUP1 CALLDATALOAD PUSH1 0x1 PUSH1 0x1 PUSH1 0xA0 SHL SUB DUP2 AND DUP2 EQ PUSH2 0xADC JUMPI PUSH0 DUP1 REVERT JUMPDEST PUSH0 DUP1 PUSH1 0x40 DUP4 DUP6 SUB SLT ISZERO PUSH2 0xFA0 JUMPI PUSH0 DUP1 REVERT JUMPDEST DUP3 CALLDATALOAD SWAP2 POP PUSH2 0xFB0 PUSH1 0x20 DUP5 ADD PUSH2 0xF79 JUMP JUMPDEST SWAP1 POP SWAP3 POP SWAP3 SWAP1 POP JUMP JUMPDEST PUSH0 DUP1 PUSH0 DUP1 PUSH1 0x80 DUP6 DUP8 SUB SLT ISZERO PUSH2 0xFCC JUMPI PUSH0 DUP1 REVERT JUMPDEST DUP5 CALLDATALOAD SWAP4 POP PUSH1 0x20 DUP6 ADD CALLDATALOAD SWAP3 POP PUSH1 0x40 DUP6 ADD CALLDATALOAD DUP1 ISZERO ISZERO DUP2 EQ PUSH2 0xFE9 JUMPI PUSH0 DUP1 REVERT JUMPDEST SWAP2 POP PUSH1 0x60 DUP6 ADD CALLDATALOAD PUSH4 0xFFFFFFFF DUP2 AND DUP2 EQ PUSH2 0x1001 JUMPI PUSH0 DUP1 REVERT JUMPDEST SWAP4 SWAP7 SWAP3 SWAP6 POP SWAP1 SWAP4 POP POP JUMP JUMPDEST PUSH0 PUSH1 0x20 DUP3 DUP5 SUB SLT ISZERO PUSH2 0x101C JUMPI PUSH0 DUP1 REVERT JUMPDEST PUSH2 0xF3B DUP3 PUSH2 0xF79 JUMP JUMPDEST PUSH0 DUP3 PUSH2 0x103F JUMPI PUSH4 0x4E487B71 PUSH1 0xE0 SHL PUSH0 MSTORE PUSH1 0x12 PUSH1 0x4 MSTORE PUSH1 0x24 PUSH0 REVERT JUMPDEST POP DIV SWAP1 JUMP JUMPDEST PUSH0 PUSH1 0x1 DUP3 ADD PUSH2 0x1061 JUMPI PUSH4 0x4E487B71 PUSH1 0xE0 SHL PUSH0 MSTORE PUSH1 0x11 PUSH1 0x4 MSTORE PUSH1 0x24 PUSH0 REVERT JUMPDEST POP PUSH1 0x1 ADD SWAP1 JUMP INVALID LOG2 PUSH5 0x6970667358 0x22 SLT KECCAK256 0xCC 0xBC 0xEB SGT 0xD4 0xAD 0xB5 CALL MSTORE8 NOT 0xDD EXTCODECOPY 0xD2 BLOBHASH 0x2B 0xCD 0xC9 SWAP14 CREATE2 DUP5 PUSH1 0xC0 SWAP16 0xB3 PUSH29 0x4EE3A98366B89664736F6C634300081800330000000000000000000000 "},"methodIdentifiers":{"DEFAULT_ADMIN_ROLE()":"a217fddf","PRICE_SETTER_ROLE()":"f00acbaa","SESSION_MANAGER_ROLE()":"6a4f1c23","configureService(uint256,uint256,bool,uint32)":"3f32f904","finalizeSession(uint256,bytes32)":"1266861e","getDailyCount(uint256,address)":"85addbea","getRoleAdmin(bytes32)":"248a9ca3","grantRole(bytes32,address)":"2f2ff15d","hasRole(bytes32,address)":"91d14854","pause()":"8456cb59","paused()":"5c975abb","renounceRole(bytes32,address)":"36568abe","requestSession(uint256)":"8e66fcb5","revokeRole(bytes32,address)":"d547741f","serviceConfigs(uint256)":"9fc1d353","sessionCount()":"73cd8336","sessions(uint256)":"83c4b7a3","setTreasury(address)":"f0f44260","sglToken()":"62b24ea2","supportsInterface(bytes4)":"01ffc9a7","treasury()":"61d027b3","unpause()":"3f4ba83a"}}}}}