{
  "_format": "hh-sol-artifact-1",
  "contractName": "SGLToken",
  "sourceName": "contracts/SGLToken.sol",
  "abi": [
    {
      "inputs": [
        {
          "internalType": "address",
          "name": "initialTreasury",
          "type": "address"
        },
        {
          "internalType": "uint256",
          "name": "initialSupply",
          "type": "uint256"
        }
      ],
      "stateMutability": "nonpayable",
      "type": "constructor"
    },
    {
      "inputs": [],
      "name": "AccessControlBadConfirmation",
      "type": "error"
    },
    {
      "inputs": [
        {
          "internalType": "address",
          "name": "account",
          "type": "address"
        },
        {
          "internalType": "bytes32",
          "name": "neededRole",
          "type": "bytes32"
        }
      ],
      "name": "AccessControlUnauthorizedAccount",
      "type": "error"
    },
    {
      "inputs": [
        {
          "internalType": "address",
          "name": "spender",
          "type": "address"
        },
        {
          "internalType": "uint256",
          "name": "allowance",
          "type": "uint256"
        },
        {
          "internalType": "uint256",
          "name": "needed",
          "type": "uint256"
        }
      ],
      "name": "ERC20InsufficientAllowance",
      "type": "error"
    },
    {
      "inputs": [
        {
          "internalType": "address",
          "name": "sender",
          "type": "address"
        },
        {
          "internalType": "uint256",
          "name": "balance",
          "type": "uint256"
        },
        {
          "internalType": "uint256",
          "name": "needed",
          "type": "uint256"
        }
      ],
      "name": "ERC20InsufficientBalance",
      "type": "error"
    },
    {
      "inputs": [
        {
          "internalType": "address",
          "name": "approver",
          "type": "address"
        }
      ],
      "name": "ERC20InvalidApprover",
      "type": "error"
    },
    {
      "inputs": [
        {
          "internalType": "address",
          "name": "receiver",
          "type": "address"
        }
      ],
      "name": "ERC20InvalidReceiver",
      "type": "error"
    },
    {
      "inputs": [
        {
          "internalType": "address",
          "name": "sender",
          "type": "address"
        }
      ],
      "name": "ERC20InvalidSender",
      "type": "error"
    },
    {
      "inputs": [
        {
          "internalType": "address",
          "name": "spender",
          "type": "address"
        }
      ],
      "name": "ERC20InvalidSpender",
      "type": "error"
    },
    {
      "inputs": [],
      "name": "EnforcedPause",
      "type": "error"
    },
    {
      "inputs": [],
      "name": "ExpectedPause",
      "type": "error"
    },
    {
      "anonymous": false,
      "inputs": [
        {
          "indexed": true,
          "internalType": "address",
          "name": "owner",
          "type": "address"
        },
        {
          "indexed": true,
          "internalType": "address",
          "name": "spender",
          "type": "address"
        },
        {
          "indexed": false,
          "internalType": "uint256",
          "name": "value",
          "type": "uint256"
        }
      ],
      "name": "Approval",
      "type": "event"
    },
    {
      "anonymous": false,
      "inputs": [
        {
          "indexed": true,
          "internalType": "address",
          "name": "to",
          "type": "address"
        },
        {
          "indexed": false,
          "internalType": "uint256",
          "name": "amount",
          "type": "uint256"
        },
        {
          "indexed": true,
          "internalType": "address",
          "name": "operator",
          "type": "address"
        }
      ],
      "name": "Minted",
      "type": "event"
    },
    {
      "anonymous": false,
      "inputs": [
        {
          "indexed": false,
          "internalType": "address",
          "name": "account",
          "type": "address"
        }
      ],
      "name": "Paused",
      "type": "event"
    },
    {
      "anonymous": false,
      "inputs": [
        {
          "indexed": true,
          "internalType": "bytes32",
          "name": "role",
          "type": "bytes32"
        },
        {
          "indexed": true,
          "internalType": "bytes32",
          "name": "previousAdminRole",
          "type": "bytes32"
        },
        {
          "indexed": true,
          "internalType": "bytes32",
          "name": "newAdminRole",
          "type": "bytes32"
        }
      ],
      "name": "RoleAdminChanged",
      "type": "event"
    },
    {
      "anonymous": false,
      "inputs": [
        {
          "indexed": true,
          "internalType": "bytes32",
          "name": "role",
          "type": "bytes32"
        },
        {
          "indexed": true,
          "internalType": "address",
          "name": "account",
          "type": "address"
        },
        {
          "indexed": true,
          "internalType": "address",
          "name": "sender",
          "type": "address"
        }
      ],
      "name": "RoleGranted",
      "type": "event"
    },
    {
      "anonymous": false,
      "inputs": [
        {
          "indexed": true,
          "internalType": "bytes32",
          "name": "role",
          "type": "bytes32"
        },
        {
          "indexed": true,
          "internalType": "address",
          "name": "account",
          "type": "address"
        },
        {
          "indexed": true,
          "internalType": "address",
          "name": "sender",
          "type": "address"
        }
      ],
      "name": "RoleRevoked",
      "type": "event"
    },
    {
      "anonymous": false,
      "inputs": [
        {
          "indexed": true,
          "internalType": "address",
          "name": "from",
          "type": "address"
        },
        {
          "indexed": true,
          "internalType": "address",
          "name": "to",
          "type": "address"
        },
        {
          "indexed": false,
          "internalType": "uint256",
          "name": "value",
          "type": "uint256"
        }
      ],
      "name": "Transfer",
      "type": "event"
    },
    {
      "anonymous": false,
      "inputs": [
        {
          "indexed": true,
          "internalType": "address",
          "name": "previousTreasury",
          "type": "address"
        },
        {
          "indexed": true,
          "internalType": "address",
          "name": "newTreasury",
          "type": "address"
        }
      ],
      "name": "TreasuryUpdated",
      "type": "event"
    },
    {
      "anonymous": false,
      "inputs": [
        {
          "indexed": false,
          "internalType": "address",
          "name": "account",
          "type": "address"
        }
      ],
      "name": "Unpaused",
      "type": "event"
    },
    {
      "inputs": [],
      "name": "DEFAULT_ADMIN_ROLE",
      "outputs": [
        {
          "internalType": "bytes32",
          "name": "",
          "type": "bytes32"
        }
      ],
      "stateMutability": "view",
      "type": "function"
    },
    {
      "inputs": [],
      "name": "MINTER_ROLE",
      "outputs": [
        {
          "internalType": "bytes32",
          "name": "",
          "type": "bytes32"
        }
      ],
      "stateMutability": "view",
      "type": "function"
    },
    {
      "inputs": [],
      "name": "PAUSER_ROLE",
      "outputs": [
        {
          "internalType": "bytes32",
          "name": "",
          "type": "bytes32"
        }
      ],
      "stateMutability": "view",
      "type": "function"
    },
    {
      "inputs": [
        {
          "internalType": "address",
          "name": "owner",
          "type": "address"
        },
        {
          "internalType": "address",
          "name": "spender",
          "type": "address"
        }
      ],
      "name": "allowance",
      "outputs": [
        {
          "internalType": "uint256",
          "name": "",
          "type": "uint256"
        }
      ],
      "stateMutability": "view",
      "type": "function"
    },
    {
      "inputs": [
        {
          "internalType": "address",
          "name": "spender",
          "type": "address"
        },
        {
          "internalType": "uint256",
          "name": "value",
          "type": "uint256"
        }
      ],
      "name": "approve",
      "outputs": [
        {
          "internalType": "bool",
          "name": "",
          "type": "bool"
        }
      ],
      "stateMutability": "nonpayable",
      "type": "function"
    },
    {
      "inputs": [
        {
          "internalType": "address",
          "name": "account",
          "type": "address"
        }
      ],
      "name": "balanceOf",
      "outputs": [
        {
          "internalType": "uint256",
          "name": "",
          "type": "uint256"
        }
      ],
      "stateMutability": "view",
      "type": "function"
    },
    {
      "inputs": [
        {
          "internalType": "uint256",
          "name": "value",
          "type": "uint256"
        }
      ],
      "name": "burn",
      "outputs": [],
      "stateMutability": "nonpayable",
      "type": "function"
    },
    {
      "inputs": [
        {
          "internalType": "address",
          "name": "account",
          "type": "address"
        },
        {
          "internalType": "uint256",
          "name": "value",
          "type": "uint256"
        }
      ],
      "name": "burnFrom",
      "outputs": [],
      "stateMutability": "nonpayable",
      "type": "function"
    },
    {
      "inputs": [],
      "name": "decimals",
      "outputs": [
        {
          "internalType": "uint8",
          "name": "",
          "type": "uint8"
        }
      ],
      "stateMutability": "view",
      "type": "function"
    },
    {
      "inputs": [
        {
          "internalType": "bytes32",
          "name": "role",
          "type": "bytes32"
        }
      ],
      "name": "getRoleAdmin",
      "outputs": [
        {
          "internalType": "bytes32",
          "name": "",
          "type": "bytes32"
        }
      ],
      "stateMutability": "view",
      "type": "function"
    },
    {
      "inputs": [
        {
          "internalType": "bytes32",
          "name": "role",
          "type": "bytes32"
        },
        {
          "internalType": "address",
          "name": "account",
          "type": "address"
        }
      ],
      "name": "grantRole",
      "outputs": [],
      "stateMutability": "nonpayable",
      "type": "function"
    },
    {
      "inputs": [
        {
          "internalType": "bytes32",
          "name": "role",
          "type": "bytes32"
        },
        {
          "internalType": "address",
          "name": "account",
          "type": "address"
        }
      ],
      "name": "hasRole",
      "outputs": [
        {
          "internalType": "bool",
          "name": "",
          "type": "bool"
        }
      ],
      "stateMutability": "view",
      "type": "function"
    },
    {
      "inputs": [
        {
          "internalType": "address",
          "name": "to",
          "type": "address"
        },
        {
          "internalType": "uint256",
          "name": "amount",
          "type": "uint256"
        }
      ],
      "name": "mint",
      "outputs": [],
      "stateMutability": "nonpayable",
      "type": "function"
    },
    {
      "inputs": [],
      "name": "name",
      "outputs": [
        {
          "internalType": "string",
          "name": "",
          "type": "string"
        }
      ],
      "stateMutability": "view",
      "type": "function"
    },
    {
      "inputs": [],
      "name": "pause",
      "outputs": [],
      "stateMutability": "nonpayable",
      "type": "function"
    },
    {
      "inputs": [],
      "name": "paused",
      "outputs": [
        {
          "internalType": "bool",
          "name": "",
          "type": "bool"
        }
      ],
      "stateMutability": "view",
      "type": "function"
    },
    {
      "inputs": [
        {
          "internalType": "bytes32",
          "name": "role",
          "type": "bytes32"
        },
        {
          "internalType": "address",
          "name": "callerConfirmation",
          "type": "address"
        }
      ],
      "name": "renounceRole",
      "outputs": [],
      "stateMutability": "nonpayable",
      "type": "function"
    },
    {
      "inputs": [
        {
          "internalType": "bytes32",
          "name": "role",
          "type": "bytes32"
        },
        {
          "internalType": "address",
          "name": "account",
          "type": "address"
        }
      ],
      "name": "revokeRole",
      "outputs": [],
      "stateMutability": "nonpayable",
      "type": "function"
    },
    {
      "inputs": [
        {
          "internalType": "address",
          "name": "newTreasury",
          "type": "address"
        }
      ],
      "name": "setTreasury",
      "outputs": [],
      "stateMutability": "nonpayable",
      "type": "function"
    },
    {
      "inputs": [
        {
          "internalType": "bytes4",
          "name": "interfaceId",
          "type": "bytes4"
        }
      ],
      "name": "supportsInterface",
      "outputs": [
        {
          "internalType": "bool",
          "name": "",
          "type": "bool"
        }
      ],
      "stateMutability": "view",
      "type": "function"
    },
    {
      "inputs": [],
      "name": "symbol",
      "outputs": [
        {
          "internalType": "string",
          "name": "",
          "type": "string"
        }
      ],
      "stateMutability": "view",
      "type": "function"
    },
    {
      "inputs": [],
      "name": "totalSupply",
      "outputs": [
        {
          "internalType": "uint256",
          "name": "",
          "type": "uint256"
        }
      ],
      "stateMutability": "view",
      "type": "function"
    },
    {
      "inputs": [
        {
          "internalType": "address",
          "name": "to",
          "type": "address"
        },
        {
          "internalType": "uint256",
          "name": "value",
          "type": "uint256"
        }
      ],
      "name": "transfer",
      "outputs": [
        {
          "internalType": "bool",
          "name": "",
          "type": "bool"
        }
      ],
      "stateMutability": "nonpayable",
      "type": "function"
    },
    {
      "inputs": [
        {
          "internalType": "address",
          "name": "from",
          "type": "address"
        },
        {
          "internalType": "address",
          "name": "to",
          "type": "address"
        },
        {
          "internalType": "uint256",
          "name": "value",
          "type": "uint256"
        }
      ],
      "name": "transferFrom",
      "outputs": [
        {
          "internalType": "bool",
          "name": "",
          "type": "bool"
        }
      ],
      "stateMutability": "nonpayable",
      "type": "function"
    },
    {
      "inputs": [],
      "name": "treasury",
      "outputs": [
        {
          "internalType": "address",
          "name": "",
          "type": "address"
        }
      ],
      "stateMutability": "view",
      "type": "function"
    },
    {
      "inputs": [],
      "name": "unpause",
      "outputs": [],
      "stateMutability": "nonpayable",
      "type": "function"
    }
  ],
  "bytecode": "0x608060405234801562000010575f80fd5b506040516200151c3803806200151c83398101604081905262000033916200042e565b6040518060400160405280600e81526020016d29b4b733bab620a4902a37b5b2b760911b8152506040518060400160405280600381526020016214d1d360ea1b815250816003908162000087919062000504565b50600462000096828262000504565b5050506001600160a01b038216620000f55760405162461bcd60e51b815260206004820152601560248201527f53474c3a20696e76616c6964207472656173757279000000000000000000000060448201526064015b60405180910390fd5b60068054610100600160a81b0319166101006001600160a01b03851602179055620001215f33620001d0565b506200014e7f9f2df0fed2c77648de5860a4cc508cd0818c85b8b8a1ab4ceeef8d981c8956a633620001d0565b506200017b7f65d7a28e3265b37a6474929f336521b332c1681b933f6cb9f3376673440d862a33620001d0565b5062000188828262000280565b60405181815233906001600160a01b038416907ffd1ba5519feb014ad2f631cbd516bd3cec96be935749391554d122972593e7bf9060200160405180910390a35050620005f0565b5f8281526005602090815260408083206001600160a01b038516845290915281205460ff1662000277575f8381526005602090815260408083206001600160a01b03861684529091529020805460ff191660011790556200022e3390565b6001600160a01b0316826001600160a01b0316847f2f8788117e7eff1d82e926ec794901d17c78024a50270940304540a733656f0d60405160405180910390a45060016200027a565b505f5b92915050565b6001600160a01b038216620002ab5760405163ec442f0560e01b81525f6004820152602401620000ec565b620002b85f8383620002bc565b5050565b620002c6620002d8565b620002d3838383620002ff565b505050565b60065460ff1615620002fd5760405163d93c066560e01b815260040160405180910390fd5b565b6001600160a01b0383166200032d578060025f828254620003219190620005d0565b909155506200039f9050565b6001600160a01b0383165f9081526020819052604090205481811015620003815760405163391434e360e21b81526001600160a01b03851660048201526024810182905260448101839052606401620000ec565b6001600160a01b0384165f9081526020819052604090209082900390555b6001600160a01b038216620003bd57600280548290039055620003db565b6001600160a01b0382165f9081526020819052604090208054820190555b816001600160a01b0316836001600160a01b03167fddf252ad1be2c89b69c2b068fc378daa952ba7f163c4a11628f55a4df523b3ef836040516200042191815260200190565b60405180910390a3505050565b5f806040838503121562000440575f80fd5b82516001600160a01b038116811462000457575f80fd5b6020939093015192949293505050565b634e487b7160e01b5f52604160045260245ffd5b600181811c908216806200049057607f821691505b602082108103620004af57634e487b7160e01b5f52602260045260245ffd5b50919050565b601f821115620002d357805f5260205f20601f840160051c81016020851015620004dc5750805b601f840160051c820191505b81811015620004fd575f8155600101620004e8565b5050505050565b81516001600160401b0381111562000520576200052062000467565b62000538816200053184546200047b565b84620004b5565b602080601f8311600181146200056e575f8415620005565750858301515b5f19600386901b1c1916600185901b178555620005c8565b5f85815260208120601f198616915b828110156200059e578886015182559484019460019091019084016200057d565b5085821015620005bc57878501515f19600388901b60f8161c191681555b505060018460011b0185555b505050505050565b808201808211156200027a57634e487b7160e01b5f52601160045260245ffd5b610f1e80620005fe5f395ff3fe608060405234801561000f575f80fd5b5060043610610187575f3560e01c806361d027b3116100d9578063a217fddf11610093578063d547741f1161006e578063d547741f14610361578063dd62ed3e14610374578063e63ab1e9146103ac578063f0f44260146103d3575f80fd5b8063a217fddf14610320578063a9059cbb14610327578063d53913931461033a575f80fd5b806361d027b31461029257806370a08231146102c257806379cc6790146102ea5780638456cb59146102fd57806391d148541461030557806395d89b4114610318575f80fd5b80632f2ff15d116101445780633f4ba83a1161011f5780633f4ba83a1461025957806340c10f191461026157806342966c68146102745780635c975abb14610287575f80fd5b80632f2ff15d14610222578063313ce5671461023757806336568abe14610246575f80fd5b806301ffc9a71461018b57806306fdde03146101b3578063095ea7b3146101c857806318160ddd146101db57806323b872dd146101ed578063248a9ca314610200575b5f80fd5b61019e610199366004610d19565b6103e6565b60405190151581526020015b60405180910390f35b6101bb61041c565b6040516101aa9190610d47565b61019e6101d6366004610dae565b6104ac565b6002545b6040519081526020016101aa565b61019e6101fb366004610dd6565b6104c3565b6101df61020e366004610e0f565b5f9081526005602052604090206001015490565b610235610230366004610e26565b6104e6565b005b604051601281526020016101aa565b610235610254366004610e26565b610510565b610235610548565b61023561026f366004610dae565b61057d565b610235610282366004610e0f565b61064b565b60065460ff1661019e565b6006546102aa9061010090046001600160a01b031681565b6040516001600160a01b0390911681526020016101aa565b6101df6102d0366004610e50565b6001600160a01b03165f9081526020819052604090205490565b6102356102f8366004610dae565b610655565b61023561066e565b61019e610313366004610e26565b6106a0565b6101bb6106ca565b6101df5f81565b61019e610335366004610dae565b6106d9565b6101df7f9f2df0fed2c77648de5860a4cc508cd0818c85b8b8a1ab4ceeef8d981c8956a681565b61023561036f366004610e26565b6106e6565b6101df610382366004610e69565b6001600160a01b039182165f90815260016020908152604080832093909416825291909152205490565b6101df7f65d7a28e3265b37a6474929f336521b332c1681b933f6cb9f3376673440d862a81565b6102356103e1366004610e50565b61070a565b5f6001600160e01b03198216637965db0b60e01b148061041657506301ffc9a760e01b6001600160e01b03198316145b92915050565b60606003805461042b90610e91565b80601f016020809104026020016040519081016040528092919081815260200182805461045790610e91565b80156104a25780601f10610479576101008083540402835291602001916104a2565b820191905f5260205f20905b81548152906001019060200180831161048557829003601f168201915b5050505050905090565b5f336104b98185856107bc565b5060019392505050565b5f336104d08582856107c9565b6104db85858561083f565b506001949350505050565b5f828152600560205260409020600101546105008161089c565b61050a83836108a6565b50505050565b6001600160a01b03811633146105395760405163334bd91960e11b815260040160405180910390fd5b6105438282610937565b505050565b7f65d7a28e3265b37a6474929f336521b332c1681b933f6cb9f3376673440d862a6105728161089c565b61057a6109a2565b50565b7f9f2df0fed2c77648de5860a4cc508cd0818c85b8b8a1ab4ceeef8d981c8956a66105a78161089c565b6001600160a01b0383166105fb5760405162461bcd60e51b815260206004820152601660248201527514d1d30e881a5b9d985b1a59081c9958da5c1a595b9d60521b60448201526064015b60405180910390fd5b61060583836109f4565b60405182815233906001600160a01b038516907ffd1ba5519feb014ad2f631cbd516bd3cec96be935749391554d122972593e7bf906020015b60405180910390a3505050565b61057a3382610a28565b6106608233836107c9565b61066a8282610a28565b5050565b7f65d7a28e3265b37a6474929f336521b332c1681b933f6cb9f3376673440d862a6106988161089c565b61057a610a5c565b5f9182526005602090815260408084206001600160a01b0393909316845291905290205460ff1690565b60606004805461042b90610e91565b5f336104b981858561083f565b5f828152600560205260409020600101546107008161089c565b61050a8383610937565b5f6107148161089c565b6001600160a01b0382166107625760405162461bcd60e51b815260206004820152601560248201527453474c3a20696e76616c696420747265617375727960581b60448201526064016105f2565b600680546001600160a01b03848116610100818102610100600160a81b031985161790945560405193909204169182907f4ab5be82436d353e61ca18726e984e561f5c1cc7c6d38b29d2553c790434705a905f90a3505050565b6105438383836001610a99565b6001600160a01b038381165f908152600160209081526040808320938616835292905220545f1981101561050a578181101561083157604051637dc7a0d960e11b81526001600160a01b038416600482015260248101829052604481018390526064016105f2565b61050a84848484035f610a99565b6001600160a01b03831661086857604051634b637e8f60e11b81525f60048201526024016105f2565b6001600160a01b0382166108915760405163ec442f0560e01b81525f60048201526024016105f2565b610543838383610b6b565b61057a8133610b7e565b5f6108b183836106a0565b610930575f8381526005602090815260408083206001600160a01b03861684529091529020805460ff191660011790556108e83390565b6001600160a01b0316826001600160a01b0316847f2f8788117e7eff1d82e926ec794901d17c78024a50270940304540a733656f0d60405160405180910390a4506001610416565b505f610416565b5f61094283836106a0565b15610930575f8381526005602090815260408083206001600160a01b0386168085529252808320805460ff1916905551339286917ff6391f5c32d9c69d2a47ea670b442974b53935d1edc7fd64eb21e047a839171b9190a4506001610416565b6109aa610bb7565b6006805460ff191690557f5db9ee0a495bf2e6ff9c91a7834c1ba4fdd244a5e8aa4e537bd38aeae4b073aa335b6040516001600160a01b03909116815260200160405180910390a1565b6001600160a01b038216610a1d5760405163ec442f0560e01b81525f60048201526024016105f2565b61066a5f8383610b6b565b6001600160a01b038216610a5157604051634b637e8f60e11b81525f60048201526024016105f2565b61066a825f83610b6b565b610a64610bdc565b6006805460ff191660011790557f62e78cea01bee320cd4e420270b5ea74000d11b0c9f74754ebdbfc544b05a2586109d73390565b6001600160a01b038416610ac25760405163e602df0560e01b81525f60048201526024016105f2565b6001600160a01b038316610aeb57604051634a1406b160e11b81525f60048201526024016105f2565b6001600160a01b038085165f908152600160209081526040808320938716835292905220829055801561050a57826001600160a01b0316846001600160a01b03167f8c5be1e5ebec7d5bd14f71427d1e84f3dd0314c0f7b2291e5b200ac8c7c3b92584604051610b5d91815260200190565b60405180910390a350505050565b610b73610bdc565b610543838383610c00565b610b8882826106a0565b61066a5760405163e2517d3f60e01b81526001600160a01b0382166004820152602481018390526044016105f2565b60065460ff16610bda57604051638dfc202b60e01b815260040160405180910390fd5b565b60065460ff1615610bda5760405163d93c066560e01b815260040160405180910390fd5b6001600160a01b038316610c2a578060025f828254610c1f9190610ec9565b90915550610c9a9050565b6001600160a01b0383165f9081526020819052604090205481811015610c7c5760405163391434e360e21b81526001600160a01b038516600482015260248101829052604481018390526064016105f2565b6001600160a01b0384165f9081526020819052604090209082900390555b6001600160a01b038216610cb657600280548290039055610cd4565b6001600160a01b0382165f9081526020819052604090208054820190555b816001600160a01b0316836001600160a01b03167fddf252ad1be2c89b69c2b068fc378daa952ba7f163c4a11628f55a4df523b3ef8360405161063e91815260200190565b5f60208284031215610d29575f80fd5b81356001600160e01b031981168114610d40575f80fd5b9392505050565b5f602080835283518060208501525f5b81811015610d7357858101830151858201604001528201610d57565b505f604082860101526040601f19601f8301168501019250505092915050565b80356001600160a01b0381168114610da9575f80fd5b919050565b5f8060408385031215610dbf575f80fd5b610dc883610d93565b946020939093013593505050565b5f805f60608486031215610de8575f80fd5b610df184610d93565b9250610dff60208501610d93565b9150604084013590509250925092565b5f60208284031215610e1f575f80fd5b5035919050565b5f8060408385031215610e37575f80fd5b82359150610e4760208401610d93565b90509250929050565b5f60208284031215610e60575f80fd5b610d4082610d93565b5f8060408385031215610e7a575f80fd5b610e8383610d93565b9150610e4760208401610d93565b600181811c90821680610ea557607f821691505b602082108103610ec357634e487b7160e01b5f52602260045260245ffd5b50919050565b8082018082111561041657634e487b7160e01b5f52601160045260245ffdfea264697066735822122014e7fe5ee44f703d910467753c4f09426f807d5a353c26b13d39218b323fe7b064736f6c63430008180033",
  "linkReferences": {},
  "deployedLinkReferences": {}
}