{
  "_format": "hh-sol-artifact-1",
  "contractName": "AuditLog",
  "sourceName": "contracts/AuditLog.sol",
  "abi": [
    {
      "inputs": [
        {
          "internalType": "address",
          "name": "admin",
          "type": "address"
        }
      ],
      "stateMutability": "nonpayable",
      "type": "constructor"
    },
    {
      "inputs": [],
      "name": "AccessControlBadConfirmation",
      "type": "error"
    },
    {
      "inputs": [
        {
          "internalType": "address",
          "name": "account",
          "type": "address"
        },
        {
          "internalType": "bytes32",
          "name": "neededRole",
          "type": "bytes32"
        }
      ],
      "name": "AccessControlUnauthorizedAccount",
      "type": "error"
    },
    {
      "inputs": [],
      "name": "EnforcedPause",
      "type": "error"
    },
    {
      "inputs": [],
      "name": "ExpectedPause",
      "type": "error"
    },
    {
      "anonymous": false,
      "inputs": [
        {
          "indexed": true,
          "internalType": "uint256",
          "name": "entryId",
          "type": "uint256"
        },
        {
          "indexed": true,
          "internalType": "enum AuditLog.ActionCategory",
          "name": "category",
          "type": "uint8"
        },
        {
          "indexed": true,
          "internalType": "bytes32",
          "name": "subjectId",
          "type": "bytes32"
        },
        {
          "indexed": false,
          "internalType": "bytes32",
          "name": "resourceId",
          "type": "bytes32"
        },
        {
          "indexed": false,
          "internalType": "string",
          "name": "partnerCode",
          "type": "string"
        },
        {
          "indexed": false,
          "internalType": "bytes32",
          "name": "prevEntryHash",
          "type": "bytes32"
        }
      ],
      "name": "LogEntryRecorded",
      "type": "event"
    },
    {
      "anonymous": false,
      "inputs": [
        {
          "indexed": false,
          "internalType": "address",
          "name": "account",
          "type": "address"
        }
      ],
      "name": "Paused",
      "type": "event"
    },
    {
      "anonymous": false,
      "inputs": [
        {
          "indexed": true,
          "internalType": "bytes32",
          "name": "role",
          "type": "bytes32"
        },
        {
          "indexed": true,
          "internalType": "bytes32",
          "name": "previousAdminRole",
          "type": "bytes32"
        },
        {
          "indexed": true,
          "internalType": "bytes32",
          "name": "newAdminRole",
          "type": "bytes32"
        }
      ],
      "name": "RoleAdminChanged",
      "type": "event"
    },
    {
      "anonymous": false,
      "inputs": [
        {
          "indexed": true,
          "internalType": "bytes32",
          "name": "role",
          "type": "bytes32"
        },
        {
          "indexed": true,
          "internalType": "address",
          "name": "account",
          "type": "address"
        },
        {
          "indexed": true,
          "internalType": "address",
          "name": "sender",
          "type": "address"
        }
      ],
      "name": "RoleGranted",
      "type": "event"
    },
    {
      "anonymous": false,
      "inputs": [
        {
          "indexed": true,
          "internalType": "bytes32",
          "name": "role",
          "type": "bytes32"
        },
        {
          "indexed": true,
          "internalType": "address",
          "name": "account",
          "type": "address"
        },
        {
          "indexed": true,
          "internalType": "address",
          "name": "sender",
          "type": "address"
        }
      ],
      "name": "RoleRevoked",
      "type": "event"
    },
    {
      "anonymous": false,
      "inputs": [
        {
          "indexed": false,
          "internalType": "address",
          "name": "account",
          "type": "address"
        }
      ],
      "name": "Unpaused",
      "type": "event"
    },
    {
      "inputs": [],
      "name": "DEFAULT_ADMIN_ROLE",
      "outputs": [
        {
          "internalType": "bytes32",
          "name": "",
          "type": "bytes32"
        }
      ],
      "stateMutability": "view",
      "type": "function"
    },
    {
      "inputs": [],
      "name": "INSPECTOR_ROLE",
      "outputs": [
        {
          "internalType": "bytes32",
          "name": "",
          "type": "bytes32"
        }
      ],
      "stateMutability": "view",
      "type": "function"
    },
    {
      "inputs": [],
      "name": "LOGGER_ROLE",
      "outputs": [
        {
          "internalType": "bytes32",
          "name": "",
          "type": "bytes32"
        }
      ],
      "stateMutability": "view",
      "type": "function"
    },
    {
      "inputs": [
        {
          "internalType": "uint256",
          "name": "",
          "type": "uint256"
        }
      ],
      "name": "entries",
      "outputs": [
        {
          "internalType": "enum AuditLog.ActionCategory",
          "name": "category",
          "type": "uint8"
        },
        {
          "internalType": "bytes32",
          "name": "subjectId",
          "type": "bytes32"
        },
        {
          "internalType": "bytes32",
          "name": "resourceId",
          "type": "bytes32"
        },
        {
          "internalType": "bytes32",
          "name": "dataHash",
          "type": "bytes32"
        },
        {
          "internalType": "bytes32",
          "name": "prevEntryHash",
          "type": "bytes32"
        },
        {
          "internalType": "uint64",
          "name": "recordedAt",
          "type": "uint64"
        },
        {
          "internalType": "address",
          "name": "logger",
          "type": "address"
        },
        {
          "internalType": "string",
          "name": "partnerCode",
          "type": "string"
        }
      ],
      "stateMutability": "view",
      "type": "function"
    },
    {
      "inputs": [],
      "name": "entryCount",
      "outputs": [
        {
          "internalType": "uint256",
          "name": "",
          "type": "uint256"
        }
      ],
      "stateMutability": "view",
      "type": "function"
    },
    {
      "inputs": [
        {
          "internalType": "bytes32",
          "name": "role",
          "type": "bytes32"
        }
      ],
      "name": "getRoleAdmin",
      "outputs": [
        {
          "internalType": "bytes32",
          "name": "",
          "type": "bytes32"
        }
      ],
      "stateMutability": "view",
      "type": "function"
    },
    {
      "inputs": [
        {
          "internalType": "bytes32",
          "name": "role",
          "type": "bytes32"
        },
        {
          "internalType": "address",
          "name": "account",
          "type": "address"
        }
      ],
      "name": "grantRole",
      "outputs": [],
      "stateMutability": "nonpayable",
      "type": "function"
    },
    {
      "inputs": [
        {
          "internalType": "bytes32",
          "name": "role",
          "type": "bytes32"
        },
        {
          "internalType": "address",
          "name": "account",
          "type": "address"
        }
      ],
      "name": "hasRole",
      "outputs": [
        {
          "internalType": "bool",
          "name": "",
          "type": "bool"
        }
      ],
      "stateMutability": "view",
      "type": "function"
    },
    {
      "inputs": [],
      "name": "lastEntryHash",
      "outputs": [
        {
          "internalType": "bytes32",
          "name": "",
          "type": "bytes32"
        }
      ],
      "stateMutability": "view",
      "type": "function"
    },
    {
      "inputs": [
        {
          "internalType": "enum AuditLog.ActionCategory",
          "name": "category",
          "type": "uint8"
        },
        {
          "internalType": "bytes32",
          "name": "subjectId",
          "type": "bytes32"
        },
        {
          "internalType": "bytes32",
          "name": "resourceId",
          "type": "bytes32"
        },
        {
          "internalType": "bytes32",
          "name": "dataHash",
          "type": "bytes32"
        },
        {
          "internalType": "string",
          "name": "partnerCode",
          "type": "string"
        }
      ],
      "name": "log",
      "outputs": [
        {
          "internalType": "uint256",
          "name": "entryId",
          "type": "uint256"
        }
      ],
      "stateMutability": "nonpayable",
      "type": "function"
    },
    {
      "inputs": [],
      "name": "pause",
      "outputs": [],
      "stateMutability": "nonpayable",
      "type": "function"
    },
    {
      "inputs": [],
      "name": "paused",
      "outputs": [
        {
          "internalType": "bool",
          "name": "",
          "type": "bool"
        }
      ],
      "stateMutability": "view",
      "type": "function"
    },
    {
      "inputs": [
        {
          "internalType": "bytes32",
          "name": "role",
          "type": "bytes32"
        },
        {
          "internalType": "address",
          "name": "callerConfirmation",
          "type": "address"
        }
      ],
      "name": "renounceRole",
      "outputs": [],
      "stateMutability": "nonpayable",
      "type": "function"
    },
    {
      "inputs": [
        {
          "internalType": "bytes32",
          "name": "role",
          "type": "bytes32"
        },
        {
          "internalType": "address",
          "name": "account",
          "type": "address"
        }
      ],
      "name": "revokeRole",
      "outputs": [],
      "stateMutability": "nonpayable",
      "type": "function"
    },
    {
      "inputs": [
        {
          "internalType": "bytes4",
          "name": "interfaceId",
          "type": "bytes4"
        }
      ],
      "name": "supportsInterface",
      "outputs": [
        {
          "internalType": "bool",
          "name": "",
          "type": "bool"
        }
      ],
      "stateMutability": "view",
      "type": "function"
    },
    {
      "inputs": [],
      "name": "unpause",
      "outputs": [],
      "stateMutability": "nonpayable",
      "type": "function"
    },
    {
      "inputs": [
        {
          "internalType": "uint256",
          "name": "entryId",
          "type": "uint256"
        },
        {
          "internalType": "bytes32",
          "name": "expectedPrevEntryHash",
          "type": "bytes32"
        }
      ],
      "name": "verifyEntryChain",
      "outputs": [
        {
          "internalType": "bool",
          "name": "",
          "type": "bool"
        }
      ],
      "stateMutability": "view",
      "type": "function"
    }
  ],
  "bytecode": "0x608060405234801561000f575f80fd5b50604051610fd8380380610fd883398101604081905261002e91610198565b6001600160a01b0381166100885760405162461bcd60e51b815260206004820152601460248201527f41554449543a20696e76616c69642061646d696e000000000000000000000000604482015260640160405180910390fd5b6100925f826100ef565b506100bd7f566c814873eed56a69b28c40ab27cc2cb150d74068bae3e884ccd44f8de60f8a826100ef565b506100e87f273dcf2136c7d8ef632bb8ef13dbca69a8f36fa620c7468671b3153d46a211c0826100ef565b50506101c5565b5f828152602081815260408083206001600160a01b038516845290915281205460ff1661018f575f838152602081815260408083206001600160a01b03861684529091529020805460ff191660011790556101473390565b6001600160a01b0316826001600160a01b0316847f2f8788117e7eff1d82e926ec794901d17c78024a50270940304540a733656f0d60405160405180910390a4506001610192565b505f5b92915050565b5f602082840312156101a8575f80fd5b81516001600160a01b03811681146101be575f80fd5b9392505050565b610e06806101d25f395ff3fe608060405234801561000f575f80fd5b5060043610610106575f3560e01c80637a98608a1161009e578063a217fddf1161006e578063a217fddf14610204578063b30906d41461020b578063be0ac8e414610232578063d547741f14610245578063e3a3c52214610258575f80fd5b80637a98608a146101af5780637bf0fbde146101c25780638456cb59146101e957806391d14854146101f1575f80fd5b806332101440116100d9578063321014401461018057806336568abe146101895780633f4ba83a1461019c5780635c975abb146101a4575f80fd5b806301ffc9a71461010a5780630cbb0f8314610132578063248a9ca3146101495780632f2ff15d1461016b575b5f80fd5b61011d610118366004610a14565b61027f565b60405190151581526020015b60405180910390f35b61013b60025481565b604051908152602001610129565b61013b610157366004610a42565b5f9081526020819052604090206001015490565b61017e610179366004610a59565b6102b5565b005b61013b60045481565b61017e610197366004610a59565b6102df565b61017e610317565b60015460ff1661011d565b61011d6101bd366004610a92565b61032c565b61013b7f566c814873eed56a69b28c40ab27cc2cb150d74068bae3e884ccd44f8de60f8a81565b61017e610361565b61011d6101ff366004610a59565b610373565b61013b5f81565b61021e610219366004610a42565b61039b565b604051610129989796959493929190610ac6565b61013b610240366004610b7b565b610483565b61017e610253366004610a59565b6107db565b61013b7f273dcf2136c7d8ef632bb8ef13dbca69a8f36fa620c7468671b3153d46a211c081565b5f6001600160e01b03198216637965db0b60e01b14806102af57506301ffc9a760e01b6001600160e01b03198316145b92915050565b5f828152602081905260409020600101546102cf816107ff565b6102d98383610809565b50505050565b6001600160a01b03811633146103085760405163334bd91960e11b815260040160405180910390fd5b6103128282610898565b505050565b5f610321816107ff565b610329610901565b50565b5f8281526003602052604081206004810154831480156103595750600581015467ffffffffffffffff1615155b949350505050565b5f61036b816107ff565b610329610953565b5f918252602082815260408084206001600160a01b0393909316845291905290205460ff1690565b600360208190525f9182526040909120805460018201546002830154938301546004840154600585015460068601805460ff90961697949694959394929367ffffffffffffffff831693600160401b9093046001600160a01b031692919061040290610c17565b80601f016020809104026020016040519081016040528092919081815260200182805461042e90610c17565b80156104795780601f1061045057610100808354040283529160200191610479565b820191905f5260205f20905b81548152906001019060200180831161045c57829003601f168201915b5050505050905088565b5f61048c61098e565b7f566c814873eed56a69b28c40ab27cc2cb150d74068bae3e884ccd44f8de60f8a6104b6816107ff565b866105015760405162461bcd60e51b815260206004820152601660248201527510555112550e881a5b9d985b1a59081cdd589a9958dd60521b60448201526064015b60405180910390fd5b8561054e5760405162461bcd60e51b815260206004820152601760248201527f41554449543a20696e76616c6964207265736f7572636500000000000000000060448201526064016104f8565b8461059b5760405162461bcd60e51b815260206004820152601860248201527f41554449543a20696e76616c696420646174612068617368000000000000000060448201526064016104f8565b826105e85760405162461bcd60e51b815260206004820152601960248201527f41554449543a20656d70747920706172746e657220636f64650000000000000060448201526064016104f8565b60028054905f6105f783610c4f565b9190505591505f60045490506040518061010001604052808a600e81111561062157610621610ab2565b81526020018981526020018881526020018781526020018281526020014267ffffffffffffffff168152602001336001600160a01b0316815260200186868080601f0160208091040260200160405190810160405280939291908181526020018383808284375f9201829052509390945250508581526003602052604090208251815491925090829060ff1916600183600e8111156106c2576106c2610ab2565b02179055506020820151600182015560408201516002820155606082015160038201556080820151600482015560a082015160058201805460c08501516001600160a01b0316600160401b026001600160e01b031990911667ffffffffffffffff9093169290921791909117905560e082015160068201906107449082610cd2565b5050604080516020810186905290810188905260608101839052608001905060408051601f1981840301815291905280516020909101206004558789600e81111561079157610791610ab2565b847f69e8bce0df40e5df4dad28011d934b6fbe108d334a686b03013cf2a8662661c38a8989876040516107c79493929190610d92565b60405180910390a450509695505050505050565b5f828152602081905260409020600101546107f5816107ff565b6102d98383610898565b61032981336109b4565b5f6108148383610373565b610891575f838152602081815260408083206001600160a01b03861684529091529020805460ff191660011790556108493390565b6001600160a01b0316826001600160a01b0316847f2f8788117e7eff1d82e926ec794901d17c78024a50270940304540a733656f0d60405160405180910390a45060016102af565b505f6102af565b5f6108a38383610373565b15610891575f838152602081815260408083206001600160a01b0386168085529252808320805460ff1916905551339286917ff6391f5c32d9c69d2a47ea670b442974b53935d1edc7fd64eb21e047a839171b9190a45060016102af565b6109096109f1565b6001805460ff191690557f5db9ee0a495bf2e6ff9c91a7834c1ba4fdd244a5e8aa4e537bd38aeae4b073aa335b6040516001600160a01b03909116815260200160405180910390a1565b61095b61098e565b6001805460ff1916811790557f62e78cea01bee320cd4e420270b5ea74000d11b0c9f74754ebdbfc544b05a25833610936565b60015460ff16156109b25760405163d93c066560e01b815260040160405180910390fd5b565b6109be8282610373565b6109ed5760405163e2517d3f60e01b81526001600160a01b0382166004820152602481018390526044016104f8565b5050565b60015460ff166109b257604051638dfc202b60e01b815260040160405180910390fd5b5f60208284031215610a24575f80fd5b81356001600160e01b031981168114610a3b575f80fd5b9392505050565b5f60208284031215610a52575f80fd5b5035919050565b5f8060408385031215610a6a575f80fd5b8235915060208301356001600160a01b0381168114610a87575f80fd5b809150509250929050565b5f8060408385031215610aa3575f80fd5b50508035926020909101359150565b634e487b7160e01b5f52602160045260245ffd5b5f610100600f8b10610ae657634e487b7160e01b5f52602160045260245ffd5b8a835260208a602085015289604085015288606085015287608085015267ffffffffffffffff871660a085015260018060a01b03861660c08501528160e0850152845180838601525f92505b80831015610b5157858301820151858401610120015291810191610b32565b61012092505f83828701015282601f19601f83011686010193505050509998505050505050505050565b5f805f805f8060a08789031215610b90575f80fd5b8635600f8110610b9e575f80fd5b9550602087013594506040870135935060608701359250608087013567ffffffffffffffff80821115610bcf575f80fd5b818901915089601f830112610be2575f80fd5b813581811115610bf0575f80fd5b8a6020828501011115610c01575f80fd5b6020830194508093505050509295509295509295565b600181811c90821680610c2b57607f821691505b602082108103610c4957634e487b7160e01b5f52602260045260245ffd5b50919050565b5f60018201610c6c57634e487b7160e01b5f52601160045260245ffd5b5060010190565b634e487b7160e01b5f52604160045260245ffd5b601f82111561031257805f5260205f20601f840160051c81016020851015610cac5750805b601f840160051c820191505b81811015610ccb575f8155600101610cb8565b5050505050565b815167ffffffffffffffff811115610cec57610cec610c73565b610d0081610cfa8454610c17565b84610c87565b602080601f831160018114610d33575f8415610d1c5750858301515b5f19600386901b1c1916600185901b178555610d8a565b5f85815260208120601f198616915b82811015610d6157888601518255948401946001909101908401610d42565b5085821015610d7e57878501515f19600388901b60f8161c191681555b505060018460011b0185555b505050505050565b84815260606020820152826060820152828460808301375f608084830101525f6080601f19601f86011683010190508260408301529594505050505056fea2646970667358221220b7d1d5ae13cd54649ba6f920dcbd86f29c7fd9d1fe964406e25d36a6923c3b2164736f6c63430008180033",
  "linkReferences": {},
  "deployedLinkReferences": {}
}