{"contracts/InstitutionalEscrow.sol":{"InstitutionalEscrow":{"abi":[{"inputs":[{"internalType":"address","name":"tokenAddress","type":"address"},{"internalType":"address","name":"treasuryAddress","type":"address"},{"internalType":"address","name":"admin","type":"address"}],"stateMutability":"nonpayable","type":"constructor"},{"inputs":[],"name":"AccessControlBadConfirmation","type":"error"},{"inputs":[{"internalType":"address","name":"account","type":"address"},{"internalType":"bytes32","name":"neededRole","type":"bytes32"}],"name":"AccessControlUnauthorizedAccount","type":"error"},{"inputs":[],"name":"EnforcedPause","type":"error"},{"inputs":[],"name":"ExpectedPause","type":"error"},{"inputs":[],"name":"ReentrancyGuardReentrantCall","type":"error"},{"inputs":[{"internalType":"address","name":"token","type":"address"}],"name":"SafeERC20FailedOperation","type":"error"},{"anonymous":false,"inputs":[{"indexed":true,"internalType":"address","name":"oldGateway","type":"address"},{"indexed":true,"internalType":"address","name":"newGateway","type":"address"}],"name":"OracleGatewayUpdated","type":"event"},{"anonymous":false,"inputs":[{"indexed":false,"internalType":"address","name":"account","type":"address"}],"name":"Paused","type":"event"},{"anonymous":false,"inputs":[{"indexed":true,"internalType":"uint256","name":"positionId","type":"uint256"},{"indexed":true,"internalType":"address","name":"operator","type":"address"},{"indexed":false,"internalType":"string","name":"reason","type":"string"}],"name":"PositionCancelled","type":"event"},{"anonymous":false,"inputs":[{"indexed":true,"internalType":"uint256","name":"positionId","type":"uint256"},{"indexed":true,"internalType":"address","name":"depositor","type":"address"},{"indexed":true,"internalType":"address","name":"beneficiary","type":"address"},{"indexed":false,"internalType":"uint256","name":"amount","type":"uint256"},{"indexed":false,"internalType":"bytes32","name":"subjectId","type":"bytes32"},{"indexed":false,"internalType":"enum InstitutionalEscrow.TriggerEventType","name":"triggerEvent","type":"uint8"},{"indexed":false,"internalType":"string","name":"partnerCode","type":"string"}],"name":"PositionCreated","type":"event"},{"anonymous":false,"inputs":[{"indexed":true,"internalType":"uint256","name":"positionId","type":"uint256"},{"indexed":true,"internalType":"address","name":"operator","type":"address"},{"indexed":false,"internalType":"string","name":"reason","type":"string"}],"name":"PositionFrozen","type":"event"},{"anonymous":false,"inputs":[{"indexed":true,"internalType":"uint256","name":"positionId","type":"uint256"},{"indexed":true,"internalType":"uint256","name":"triggerEventId","type":"uint256"},{"indexed":true,"internalType":"address","name":"executor","type":"address"}],"name":"PositionReleased","type":"event"},{"anonymous":false,"inputs":[{"indexed":true,"internalType":"uint256","name":"positionId","type":"uint256"},{"indexed":true,"internalType":"address","name":"operator","type":"address"}],"name":"PositionUnfrozen","type":"event"},{"anonymous":false,"inputs":[{"indexed":true,"internalType":"bytes32","name":"role","type":"bytes32"},{"indexed":true,"internalType":"bytes32","name":"previousAdminRole","type":"bytes32"},{"indexed":true,"internalType":"bytes32","name":"newAdminRole","type":"bytes32"}],"name":"RoleAdminChanged","type":"event"},{"anonymous":false,"inputs":[{"indexed":true,"internalType":"bytes32","name":"role","type":"bytes32"},{"indexed":true,"internalType":"address","name":"account","type":"address"},{"indexed":true,"internalType":"address","name":"sender","type":"address"}],"name":"RoleGranted","type":"event"},{"anonymous":false,"inputs":[{"indexed":true,"internalType":"bytes32","name":"role","type":"bytes32"},{"indexed":true,"internalType":"address","name":"account","type":"address"},{"indexed":true,"internalType":"address","name":"sender","type":"address"}],"name":"RoleRevoked","type":"event"},{"anonymous":false,"inputs":[{"indexed":false,"internalType":"address","name":"account","type":"address"}],"name":"Unpaused","type":"event"},{"inputs":[],"name":"COMPLIANCE_ROLE","outputs":[{"internalType":"bytes32","name":"","type":"bytes32"}],"stateMutability":"view","type":"function"},{"inputs":[],"name":"DEFAULT_ADMIN_ROLE","outputs":[{"internalType":"bytes32","name":"","type":"bytes32"}],"stateMutability":"view","type":"function"},{"inputs":[],"name":"EXECUTOR_ROLE","outputs":[{"internalType":"bytes32","name":"","type":"bytes32"}],"stateMutability":"view","type":"function"},{"inputs":[{"internalType":"uint256","name":"positionId","type":"uint256"},{"internalType":"string","name":"reason","type":"string"}],"name":"cancelPosition","outputs":[],"stateMutability":"nonpayable","type":"function"},{"inputs":[{"internalType":"address","name":"beneficiary","type":"address"},{"internalType":"uint256","name":"amount","type":"uint256"},{"internalType":"bytes32","name":"subjectId","type":"bytes32"},{"internalType":"enum InstitutionalEscrow.TriggerEventType","name":"triggerEvent","type":"uint8"},{"internalType":"bytes32","name":"metadataHash","type":"bytes32"},{"internalType":"string","name":"partnerCode","type":"string"}],"name":"createPosition","outputs":[{"internalType":"uint256","name":"positionId","type":"uint256"}],"stateMutability":"nonpayable","type":"function"},{"inputs":[{"internalType":"uint256","name":"positionId","type":"uint256"},{"internalType":"string","name":"reason","type":"string"}],"name":"freezePosition","outputs":[],"stateMutability":"nonpayable","type":"function"},{"inputs":[{"internalType":"bytes32","name":"role","type":"bytes32"}],"name":"getRoleAdmin","outputs":[{"internalType":"bytes32","name":"","type":"bytes32"}],"stateMutability":"view","type":"function"},{"inputs":[{"internalType":"bytes32","name":"role","type":"bytes32"},{"internalType":"address","name":"account","type":"address"}],"name":"grantRole","outputs":[],"stateMutability":"nonpayable","type":"function"},{"inputs":[{"internalType":"bytes32","name":"role","type":"bytes32"},{"internalType":"address","name":"account","type":"address"}],"name":"hasRole","outputs":[{"internalType":"bool","name":"","type":"bool"}],"stateMutability":"view","type":"function"},{"inputs":[],"name":"nextPositionId","outputs":[{"internalType":"uint256","name":"","type":"uint256"}],"stateMutability":"view","type":"function"},{"inputs":[],"name":"oracleGateway","outputs":[{"internalType":"address","name":"","type":"address"}],"stateMutability":"view","type":"function"},{"inputs":[],"name":"pause","outputs":[],"stateMutability":"nonpayable","type":"function"},{"inputs":[],"name":"paused","outputs":[{"internalType":"bool","name":"","type":"bool"}],"stateMutability":"view","type":"function"},{"inputs":[{"internalType":"uint256","name":"","type":"uint256"}],"name":"positions","outputs":[{"internalType":"address","name":"depositor","type":"address"},{"internalType":"address","name":"beneficiary","type":"address"},{"internalType":"uint256","name":"amount","type":"uint256"},{"internalType":"bytes32","name":"subjectId","type":"bytes32"},{"internalType":"enum InstitutionalEscrow.TriggerEventType","name":"triggerEvent","type":"uint8"},{"internalType":"uint256","name":"triggerEventId","type":"uint256"},{"internalType":"bytes32","name":"metadataHash","type":"bytes32"},{"internalType":"string","name":"partnerCode","type":"string"},{"internalType":"uint64","name":"createdAt","type":"uint64"},{"internalType":"uint64","name":"executedAt","type":"uint64"},{"internalType":"enum InstitutionalEscrow.EscrowStatus","name":"status","type":"uint8"}],"stateMutability":"view","type":"function"},{"inputs":[{"internalType":"uint256","name":"positionId","type":"uint256"},{"internalType":"uint256","name":"triggerEventId","type":"uint256"}],"name":"releasePosition","outputs":[],"stateMutability":"nonpayable","type":"function"},{"inputs":[{"internalType":"bytes32","name":"role","type":"bytes32"},{"internalType":"address","name":"callerConfirmation","type":"address"}],"name":"renounceRole","outputs":[],"stateMutability":"nonpayable","type":"function"},{"inputs":[{"internalType":"bytes32","name":"role","type":"bytes32"},{"internalType":"address","name":"account","type":"address"}],"name":"revokeRole","outputs":[],"stateMutability":"nonpayable","type":"function"},{"inputs":[{"internalType":"address","name":"newGateway","type":"address"}],"name":"setOracleGateway","outputs":[],"stateMutability":"nonpayable","type":"function"},{"inputs":[{"internalType":"address","name":"newTreasury","type":"address"}],"name":"setTreasury","outputs":[],"stateMutability":"nonpayable","type":"function"},{"inputs":[],"name":"sglToken","outputs":[{"internalType":"contract IERC20","name":"","type":"address"}],"stateMutability":"view","type":"function"},{"inputs":[{"internalType":"bytes4","name":"interfaceId","type":"bytes4"}],"name":"supportsInterface","outputs":[{"internalType":"bool","name":"","type":"bool"}],"stateMutability":"view","type":"function"},{"inputs":[],"name":"treasury","outputs":[{"internalType":"address","name":"","type":"address"}],"stateMutability":"view","type":"function"},{"inputs":[{"internalType":"uint256","name":"positionId","type":"uint256"}],"name":"unfreezePosition","outputs":[],"stateMutability":"nonpayable","type":"function"},{"inputs":[],"name":"unpause","outputs":[],"stateMutability":"nonpayable","type":"function"}],"evm":{"bytecode":{"linkReferences":{},"object":"60a060405234801562000010575f80fd5b5060405162001d3c38038062001d3c8339810160408190526200003391620002c0565b60017f9b779b17422d0df92223018b32b4d1fa46e071723d6817e2486d003becc55f00556001600160a01b038316620000b35760405162461bcd60e51b815260206004820152601760248201527f494e53545f4553433a20696e76616c696420746f6b656e00000000000000000060448201526064015b60405180910390fd5b6001600160a01b0382166200010b5760405162461bcd60e51b815260206004820152601a60248201527f494e53545f4553433a20696e76616c69642074726561737572790000000000006044820152606401620000aa565b6001600160a01b038116620001635760405162461bcd60e51b815260206004820152601760248201527f494e53545f4553433a20696e76616c69642061646d696e0000000000000000006044820152606401620000aa565b6001600160a01b03838116608052600380546001600160a01b031916918416919091179055620001945f82620001f8565b50620001c17fd8aa0f3194971a2a116679f7c2090f6939c8d4e01a2a8d7e41d55e5351469e6382620001f8565b50620001ee7f442a94f1a1fac79af32856af2a64f63648cfa2ef3b98610a5bb7cbec4cee698582620001f8565b5050505062000307565b5f828152602081815260408083206001600160a01b038516845290915281205460ff166200029b575f838152602081815260408083206001600160a01b03861684529091529020805460ff19166001179055620002523390565b6001600160a01b0316826001600160a01b0316847f2f8788117e7eff1d82e926ec794901d17c78024a50270940304540a733656f0d60405160405180910390a45060016200029e565b505f5b92915050565b80516001600160a01b0381168114620002bb575f80fd5b919050565b5f805f60608486031215620002d3575f80fd5b620002de84620002a4565b9250620002ee60208501620002a4565b9150620002fe60408501620002a4565b90509250925092565b608051611a07620003355f395f8181610268015281816105b6015281816109c00152610df40152611a075ff3fe608060405234801561000f575f80fd5b5060043610610153575f3560e01c80637ef415a7116100bf578063c1810f6611610079578063c1810f6614610305578063c914947814610318578063d07ee4341461032b578063d547741f1461033e578063f0f4426014610351578063f1ec7e5114610364575f80fd5b80637ef415a71461029d5780638456cb59146102b0578063899346c7146102b857806391d14854146102c157806399fbab88146102d4578063a217fddf146102fe575f80fd5b806336568abe1161011057806336568abe146102125780633f4ba83a146102255780635c975abb1461022d57806361d027b31461023857806362b24ea21461026357806378a4aadd1461028a575f80fd5b806301ffc9a714610157578063062d3bd71461017f57806307bd0265146101a15780631e2ed410146101c8578063248a9ca3146101dd5780632f2ff15d146101ff575b5f80fd5b61016a6101653660046114ab565b610377565b60405190151581526020015b60405180910390f35b6101935f8051602061199283398151915281565b604051908152602001610176565b6101937fd8aa0f3194971a2a116679f7c2090f6939c8d4e01a2a8d7e41d55e5351469e6381565b6101db6101d63660046114f4565b6103ad565b005b6101936101eb36600461150d565b5f9081526020819052604090206001015490565b6101db61020d366004611524565b610409565b6101db610220366004611524565b610433565b6101db61046b565b60015460ff1661016a565b60035461024b906001600160a01b031681565b6040516001600160a01b039091168152602001610176565b61024b7f000000000000000000000000000000000000000000000000000000000000000081565b6101db610298366004611593565b610480565b6101936102ab3660046115db565b61063c565b6101db610a5d565b61019360025481565b61016a6102cf366004611524565b610a6f565b6102e76102e236600461150d565b610a97565b6040516101769b9a99989796959493929190611694565b6101935f81565b60045461024b906001600160a01b031681565b6101db610326366004611768565b610b9d565b6101db61033936600461150d565b610e68565b6101db61034c366004611524565b610f3a565b6101db61035f3660046114f4565b610f5e565b6101db610372366004611593565b610fe1565b5f6001600160e01b03198216637965db0b60e01b14806103a757506301ffc9a760e01b6001600160e01b03198316145b92915050565b5f6103b781611116565b600480546001600160a01b038481166001600160a01b0319831681179093556040519116919082907fa2c25ca373c727be01ce62a4879a7cda215dfc392279e1e456cd6afb873317a7905f90a3505050565b5f8281526020819052604090206001015461042381611116565b61042d8383611120565b50505050565b6001600160a01b038116331461045c5760405163334bd91960e11b815260040160405180910390fd5b61046682826111af565b505050565b5f61047581611116565b61047d611218565b50565b61048861126a565b610490611290565b5f805160206119928339815191526104a781611116565b5f848152600560205260408120906008820154600160801b900460ff1660038111156104d5576104d561165c565b146105275760405162461bcd60e51b815260206004820152601960248201527f494e53545f4553433a206e6f742063616e63656c6c61626c650000000000000060448201526064015b60405180910390fd5b826105705760405162461bcd60e51b8152602060048201526019602482015278125394d517d154d0ce881c99585cdbdb881c995c5d5a5c9959603a1b604482015260640161051e565b600881018054600160811b68ffffffffffffffffff60401b19909116600160401b4267ffffffffffffffff160217179055805460028201546105e0916001600160a01b037f00000000000000000000000000000000000000000000000000000000000000008116929116906112ab565b336001600160a01b0316857f7d48960b4147861f64687653163e8bdac213509e036fb1d0c3982d94b2f109ea868660405161061c9291906117b0565b60405180910390a3505061046660015f805160206119b283398151915255565b5f61064561126a565b61064d611290565b6001600160a01b0388166106a35760405162461bcd60e51b815260206004820152601d60248201527f494e53545f4553433a20696e76616c69642062656e6566696369617279000000604482015260640161051e565b5f87116106ea5760405162461bcd60e51b8152602060048201526015602482015274125394d517d154d0ce881e995c9bc8185b5bdd5b9d605a1b604482015260640161051e565b856107375760405162461bcd60e51b815260206004820152601960248201527f494e53545f4553433a20696e76616c6964207375626a65637400000000000000604482015260640161051e565b836107845760405162461bcd60e51b815260206004820152601f60248201527f494e53545f4553433a20696e76616c6964206d65746164617461206861736800604482015260640161051e565b816107d15760405162461bcd60e51b815260206004820152601c60248201527f494e53545f4553433a20656d70747920706172746e657220636f646500000000604482015260640161051e565b60028054905f6107e0836117cb565b919050559050604051806101600160405280336001600160a01b03168152602001896001600160a01b0316815260200188815260200187815260200186600781111561082e5761082e61165c565b81526020015f815260200185815260200184848080601f0160208091040260200160405190810160405280939291908181526020018383808284375f92018290525093855250505067ffffffffffffffff42166020830152604082018190526060909101525f82815260056020908152604091829020835181546001600160a01b039182166001600160a01b0319918216178355928501516001808401805492909316919094161790559183015160028301556060830151600383015560808301516004830180549192909160ff1916908360078111156109115761091161165c565b021790555060a0820151600582015560c0820151600682015560e0820151600782019061093e9082611886565b5061010082015160088201805461012085015167ffffffffffffffff908116600160401b026fffffffffffffffffffffffffffffffff1990921693169290921791909117808255610140840151919060ff60801b1916600160801b8360038111156109ab576109ab61165c565b02179055506109e89150506001600160a01b037f00000000000000000000000000000000000000000000000000000000000000001633308a6112e0565b876001600160a01b0316336001600160a01b0316827fea1810a2faacc32e949d7b5b6e220c7c65c1362b00c99a335c954907885980688a8a8a8989604051610a34959493929190611946565b60405180910390a4610a5260015f805160206119b283398151915255565b979650505050505050565b5f610a6781611116565b61047d611316565b5f918252602082815260408084206001600160a01b0393909316845291905290205460ff1690565b600560208190525f9182526040909120805460018201546002830154600384015460048501549585015460068601546007870180546001600160a01b039788169996909716979496939560ff16949293919291610af390611803565b80601f0160208091040260200160405190810160405280929190818152602001828054610b1f90611803565b8015610b6a5780601f10610b4157610100808354040283529160200191610b6a565b820191905f5260205f20905b815481529060010190602001808311610b4d57829003601f168201915b5050506008909301549192505067ffffffffffffffff80821691600160401b81049091169060ff600160801b909104168b565b610ba561126a565b610bad611290565b7fd8aa0f3194971a2a116679f7c2090f6939c8d4e01a2a8d7e41d55e5351469e63610bd781611116565b5f838152600560205260408120906008820154600160801b900460ff166003811115610c0557610c0561165c565b14610c4a5760405162461bcd60e51b8152602060048201526015602482015274494e53545f4553433a206e6f742070656e64696e6760581b604482015260640161051e565b600881015467ffffffffffffffff16610c9b5760405162461bcd60e51b8152602060048201526013602482015272125394d517d154d0ce881b9bdd08199bdd5b99606a1b604482015260640161051e565b6004546001600160a01b031615610da457600480546003830154918301545f926001600160a01b0390921691635da377e39160ff166007811115610ce157610ce161165c565b6040516001600160e01b031960e085901b168152600481019290925260ff166024820152604401602060405180830381865afa158015610d23573d5f803e3d5ffd5b505050506040513d601f19601f82011682018060405250810190610d479190611972565b905080610da25760405162461bcd60e51b8152602060048201526024808201527f494e53545f4553433a206f7261636c65206576656e74206e6f7420636f6e66696044820152631c9b595960e21b606482015260840161051e565b505b60088101805460058301859055600160801b68ffffffffffffffffff60401b19909116600160401b4267ffffffffffffffff16021717905560018101546002820154610e1e916001600160a01b037f00000000000000000000000000000000000000000000000000000000000000008116929116906112ab565b6040513390849086907f6c2b69108c6691683495bb3a230fb2ce5b892b27607e017d4ad023e083cd712c905f90a45050610e6460015f805160206119b283398151915255565b5050565b5f80516020611992833981519152610e7f81611116565b60035f83815260056020526040902060080154600160801b900460ff166003811115610ead57610ead61165c565b14610ef15760405162461bcd60e51b815260206004820152601460248201527324a729aa2fa2a9a19d103737ba10333937bd32b760611b604482015260640161051e565b5f82815260056020526040808220600801805460ff60801b1916905551339184917f5dd6406e214a7ef26e178c64337ff1617723c2710f38107102845152d3f75b4d9190a35050565b5f82815260208190526040902060010154610f5481611116565b61042d83836111af565b5f610f6881611116565b6001600160a01b038216610fbe5760405162461bcd60e51b815260206004820152601a60248201527f494e53545f4553433a20696e76616c6964207472656173757279000000000000604482015260640161051e565b50600380546001600160a01b0319166001600160a01b0392909216919091179055565b5f80516020611992833981519152610ff881611116565b5f848152600560205260408120906008820154600160801b900460ff1660038111156110265761102661165c565b146110735760405162461bcd60e51b815260206004820152601760248201527f494e53545f4553433a206e6f7420667265657a61626c65000000000000000000604482015260640161051e565b826110bc5760405162461bcd60e51b8152602060048201526019602482015278125394d517d154d0ce881c99585cdbdb881c995c5d5a5c9959603a1b604482015260640161051e565b60088101805460ff60801b1916600360801b179055604051339086907feb4655a0fe23702258458e16773f1d4f0f6b04d15cf7f7cafd326cf1b218b77b9061110790889088906117b0565b60405180910390a35050505050565b61047d8133611351565b5f61112b8383610a6f565b6111a8575f838152602081815260408083206001600160a01b03861684529091529020805460ff191660011790556111603390565b6001600160a01b0316826001600160a01b0316847f2f8788117e7eff1d82e926ec794901d17c78024a50270940304540a733656f0d60405160405180910390a45060016103a7565b505f6103a7565b5f6111ba8383610a6f565b156111a8575f838152602081815260408083206001600160a01b0386168085529252808320805460ff1916905551339286917ff6391f5c32d9c69d2a47ea670b442974b53935d1edc7fd64eb21e047a839171b9190a45060016103a7565b61122061138a565b6001805460ff191690557f5db9ee0a495bf2e6ff9c91a7834c1ba4fdd244a5e8aa4e537bd38aeae4b073aa335b6040516001600160a01b03909116815260200160405180910390a1565b60015460ff161561128e5760405163d93c066560e01b815260040160405180910390fd5b565b6112986113ad565b60025f805160206119b283398151915255565b6112b883838360016113dc565b61046657604051635274afe760e01b81526001600160a01b038416600482015260240161051e565b6112ee84848484600161143e565b61042d57604051635274afe760e01b81526001600160a01b038516600482015260240161051e565b61131e61126a565b6001805460ff1916811790557f62e78cea01bee320cd4e420270b5ea74000d11b0c9f74754ebdbfc544b05a2583361124d565b61135b8282610a6f565b610e645760405163e2517d3f60e01b81526001600160a01b03821660048201526024810183905260440161051e565b60015460ff1661128e57604051638dfc202b60e01b815260040160405180910390fd5b5f805160206119b28339815191525460020361128e57604051633ee5aeb560e01b815260040160405180910390fd5b60405163a9059cbb60e01b5f8181526001600160a01b038616600452602485905291602083604481808b5af1925060015f51148316611432578383151615611426573d5f823e3d81fd5b5f873b113d1516831692505b60405250949350505050565b6040516323b872dd60e01b5f8181526001600160a01b038781166004528616602452604485905291602083606481808c5af1925060015f5114831661149a57838315161561148e573d5f823e3d81fd5b5f883b113d1516831692505b604052505f60605295945050505050565b5f602082840312156114bb575f80fd5b81356001600160e01b0319811681146114d2575f80fd5b9392505050565b80356001600160a01b03811681146114ef575f80fd5b919050565b5f60208284031215611504575f80fd5b6114d2826114d9565b5f6020828403121561151d575f80fd5b5035919050565b5f8060408385031215611535575f80fd5b82359150611545602084016114d9565b90509250929050565b5f8083601f84011261155e575f80fd5b50813567ffffffffffffffff811115611575575f80fd5b60208301915083602082850101111561158c575f80fd5b9250929050565b5f805f604084860312156115a5575f80fd5b83359250602084013567ffffffffffffffff8111156115c2575f80fd5b6115ce8682870161154e565b9497909650939450505050565b5f805f805f805f60c0888a0312156115f1575f80fd5b6115fa886114d9565b9650602088013595506040880135945060608801356008811061161b575f80fd5b93506080880135925060a088013567ffffffffffffffff81111561163d575f80fd5b6116498a828b0161154e565b989b979a50959850939692959293505050565b634e487b7160e01b5f52602160045260245ffd5b600881106116805761168061165c565b9052565b600481106116805761168061165c565b5f61016060018060a01b03808f1684526020818f1660208601528d60408601528c60608601526116c7608086018d611670565b8a60a08601528960c08601528260e08601528851915081838601525f92505b81831015611705578883018101518584016101800152918201916116e6565b5061018091505f82828601015281601f19601f8301168501019250505061173961010083018667ffffffffffffffff169052565b67ffffffffffffffff8416610120830152611758610140830184611684565b9c9b505050505050505050505050565b5f8060408385031215611779575f80fd5b50508035926020909101359150565b81835281816020850137505f828201602090810191909152601f909101601f19169091010190565b602081525f6117c3602083018486611788565b949350505050565b5f600182016117e857634e487b7160e01b5f52601160045260245ffd5b5060010190565b634e487b7160e01b5f52604160045260245ffd5b600181811c9082168061181757607f821691505b60208210810361183557634e487b7160e01b5f52602260045260245ffd5b50919050565b601f82111561046657805f5260205f20601f840160051c810160208510156118605750805b601f840160051c820191505b8181101561187f575f815560010161186c565b5050505050565b815167ffffffffffffffff8111156118a0576118a06117ef565b6118b4816118ae8454611803565b8461183b565b602080601f8311600181146118e7575f84156118d05750858301515b5f19600386901b1c1916600185901b17855561193e565b5f85815260208120601f198616915b82811015611915578886015182559484019460019091019084016118f6565b508582101561193257878501515f19600388901b60f8161c191681555b505060018460011b0185555b505050505050565b85815284602082015261195c6040820185611670565b608060608201525f610a52608083018486611788565b5f60208284031215611982575f80fd5b815180151581146114d2575f80fdfe442a94f1a1fac79af32856af2a64f63648cfa2ef3b98610a5bb7cbec4cee69859b779b17422d0df92223018b32b4d1fa46e071723d6817e2486d003becc55f00a26469706673582212203ab7249c805f078de95959f28230b706f06794d3290837af437895620037a48a64736f6c63430008180033","opcodes":"PUSH1 0xA0 PUSH1 0x40 MSTORE CALLVALUE DUP1 ISZERO PUSH3 0x10 JUMPI PUSH0 DUP1 REVERT JUMPDEST POP PUSH1 0x40 MLOAD PUSH3 0x1D3C CODESIZE SUB DUP1 PUSH3 0x1D3C DUP4 CODECOPY DUP2 ADD PUSH1 0x40 DUP2 SWAP1 MSTORE PUSH3 0x33 SWAP2 PUSH3 0x2C0 JUMP JUMPDEST PUSH1 0x1 PUSH32 0x9B779B17422D0DF92223018B32B4D1FA46E071723D6817E2486D003BECC55F00 SSTORE PUSH1 0x1 PUSH1 0x1 PUSH1 0xA0 SHL SUB DUP4 AND PUSH3 0xB3 JUMPI PUSH1 0x40 MLOAD PUSH3 0x461BCD PUSH1 0xE5 SHL DUP2 MSTORE PUSH1 0x20 PUSH1 0x4 DUP3 ADD MSTORE PUSH1 0x17 PUSH1 0x24 DUP3 ADD MSTORE PUSH32 0x494E53545F4553433A20696E76616C696420746F6B656E000000000000000000 PUSH1 0x44 DUP3 ADD MSTORE PUSH1 0x64 ADD JUMPDEST PUSH1 0x40 MLOAD DUP1 SWAP2 SUB SWAP1 REVERT JUMPDEST PUSH1 0x1 PUSH1 0x1 PUSH1 0xA0 SHL SUB DUP3 AND PUSH3 0x10B JUMPI PUSH1 0x40 MLOAD PUSH3 0x461BCD PUSH1 0xE5 SHL DUP2 MSTORE PUSH1 0x20 PUSH1 0x4 DUP3 ADD MSTORE PUSH1 0x1A PUSH1 0x24 DUP3 ADD MSTORE PUSH32 0x494E53545F4553433A20696E76616C6964207472656173757279000000000000 PUSH1 0x44 DUP3 ADD MSTORE PUSH1 0x64 ADD PUSH3 0xAA JUMP JUMPDEST PUSH1 0x1 PUSH1 0x1 PUSH1 0xA0 SHL SUB DUP2 AND PUSH3 0x163 JUMPI PUSH1 0x40 MLOAD PUSH3 0x461BCD PUSH1 0xE5 SHL DUP2 MSTORE PUSH1 0x20 PUSH1 0x4 DUP3 ADD MSTORE PUSH1 0x17 PUSH1 0x24 DUP3 ADD MSTORE PUSH32 0x494E53545F4553433A20696E76616C69642061646D696E000000000000000000 PUSH1 0x44 DUP3 ADD MSTORE PUSH1 0x64 ADD PUSH3 0xAA JUMP JUMPDEST PUSH1 0x1 PUSH1 0x1 PUSH1 0xA0 SHL SUB DUP4 DUP2 AND PUSH1 0x80 MSTORE PUSH1 0x3 DUP1 SLOAD PUSH1 0x1 PUSH1 0x1 PUSH1 0xA0 SHL SUB NOT AND SWAP2 DUP5 AND SWAP2 SWAP1 SWAP2 OR SWAP1 SSTORE PUSH3 0x194 PUSH0 DUP3 PUSH3 0x1F8 JUMP JUMPDEST POP PUSH3 0x1C1 PUSH32 0xD8AA0F3194971A2A116679F7C2090F6939C8D4E01A2A8D7E41D55E5351469E63 DUP3 PUSH3 0x1F8 JUMP JUMPDEST POP PUSH3 0x1EE PUSH32 0x442A94F1A1FAC79AF32856AF2A64F63648CFA2EF3B98610A5BB7CBEC4CEE6985 DUP3 PUSH3 0x1F8 JUMP JUMPDEST POP POP POP POP PUSH3 0x307 JUMP JUMPDEST PUSH0 DUP3 DUP2 MSTORE PUSH1 0x20 DUP2 DUP2 MSTORE PUSH1 0x40 DUP1 DUP4 KECCAK256 PUSH1 0x1 PUSH1 0x1 PUSH1 0xA0 SHL SUB DUP6 AND DUP5 MSTORE SWAP1 SWAP2 MSTORE DUP2 KECCAK256 SLOAD PUSH1 0xFF AND PUSH3 0x29B JUMPI PUSH0 DUP4 DUP2 MSTORE PUSH1 0x20 DUP2 DUP2 MSTORE PUSH1 0x40 DUP1 DUP4 KECCAK256 PUSH1 0x1 PUSH1 0x1 PUSH1 0xA0 SHL SUB DUP7 AND DUP5 MSTORE SWAP1 SWAP2 MSTORE SWAP1 KECCAK256 DUP1 SLOAD PUSH1 0xFF NOT AND PUSH1 0x1 OR SWAP1 SSTORE PUSH3 0x252 CALLER SWAP1 JUMP JUMPDEST PUSH1 0x1 PUSH1 0x1 PUSH1 0xA0 SHL SUB AND DUP3 PUSH1 0x1 PUSH1 0x1 PUSH1 0xA0 SHL SUB AND DUP5 PUSH32 0x2F8788117E7EFF1D82E926EC794901D17C78024A50270940304540A733656F0D PUSH1 0x40 MLOAD PUSH1 0x40 MLOAD DUP1 SWAP2 SUB SWAP1 LOG4 POP PUSH1 0x1 PUSH3 0x29E JUMP JUMPDEST POP PUSH0 JUMPDEST SWAP3 SWAP2 POP POP JUMP JUMPDEST DUP1 MLOAD PUSH1 0x1 PUSH1 0x1 PUSH1 0xA0 SHL SUB DUP2 AND DUP2 EQ PUSH3 0x2BB JUMPI PUSH0 DUP1 REVERT JUMPDEST SWAP2 SWAP1 POP JUMP JUMPDEST PUSH0 DUP1 PUSH0 PUSH1 0x60 DUP5 DUP7 SUB SLT ISZERO PUSH3 0x2D3 JUMPI PUSH0 DUP1 REVERT JUMPDEST PUSH3 0x2DE DUP5 PUSH3 0x2A4 JUMP JUMPDEST SWAP3 POP PUSH3 0x2EE PUSH1 0x20 DUP6 ADD PUSH3 0x2A4 JUMP JUMPDEST SWAP2 POP PUSH3 0x2FE PUSH1 0x40 DUP6 ADD PUSH3 0x2A4 JUMP JUMPDEST SWAP1 POP SWAP3 POP SWAP3 POP SWAP3 JUMP JUMPDEST PUSH1 0x80 MLOAD PUSH2 0x1A07 PUSH3 0x335 PUSH0 CODECOPY PUSH0 DUP2 DUP2 PUSH2 0x268 ADD MSTORE DUP2 DUP2 PUSH2 0x5B6 ADD MSTORE DUP2 DUP2 PUSH2 0x9C0 ADD MSTORE PUSH2 0xDF4 ADD MSTORE PUSH2 0x1A07 PUSH0 RETURN INVALID PUSH1 0x80 PUSH1 0x40 MSTORE CALLVALUE DUP1 ISZERO PUSH2 0xF JUMPI PUSH0 DUP1 REVERT JUMPDEST POP PUSH1 0x4 CALLDATASIZE LT PUSH2 0x153 JUMPI PUSH0 CALLDATALOAD PUSH1 0xE0 SHR DUP1 PUSH4 0x7EF415A7 GT PUSH2 0xBF JUMPI DUP1 PUSH4 0xC1810F66 GT PUSH2 0x79 JUMPI DUP1 PUSH4 0xC1810F66 EQ PUSH2 0x305 JUMPI DUP1 PUSH4 0xC9149478 EQ PUSH2 0x318 JUMPI DUP1 PUSH4 0xD07EE434 EQ PUSH2 0x32B JUMPI DUP1 PUSH4 0xD547741F EQ PUSH2 0x33E JUMPI DUP1 PUSH4 0xF0F44260 EQ PUSH2 0x351 JUMPI DUP1 PUSH4 0xF1EC7E51 EQ PUSH2 0x364 JUMPI PUSH0 DUP1 REVERT JUMPDEST DUP1 PUSH4 0x7EF415A7 EQ PUSH2 0x29D JUMPI DUP1 PUSH4 0x8456CB59 EQ PUSH2 0x2B0 JUMPI DUP1 PUSH4 0x899346C7 EQ PUSH2 0x2B8 JUMPI DUP1 PUSH4 0x91D14854 EQ PUSH2 0x2C1 JUMPI DUP1 PUSH4 0x99FBAB88 EQ PUSH2 0x2D4 JUMPI DUP1 PUSH4 0xA217FDDF EQ PUSH2 0x2FE JUMPI PUSH0 DUP1 REVERT JUMPDEST DUP1 PUSH4 0x36568ABE GT PUSH2 0x110 JUMPI DUP1 PUSH4 0x36568ABE EQ PUSH2 0x212 JUMPI DUP1 PUSH4 0x3F4BA83A EQ PUSH2 0x225 JUMPI DUP1 PUSH4 0x5C975ABB EQ PUSH2 0x22D JUMPI DUP1 PUSH4 0x61D027B3 EQ PUSH2 0x238 JUMPI DUP1 PUSH4 0x62B24EA2 EQ PUSH2 0x263 JUMPI DUP1 PUSH4 0x78A4AADD EQ PUSH2 0x28A JUMPI PUSH0 DUP1 REVERT JUMPDEST DUP1 PUSH4 0x1FFC9A7 EQ PUSH2 0x157 JUMPI DUP1 PUSH4 0x62D3BD7 EQ PUSH2 0x17F JUMPI DUP1 PUSH4 0x7BD0265 EQ PUSH2 0x1A1 JUMPI DUP1 PUSH4 0x1E2ED410 EQ PUSH2 0x1C8 JUMPI DUP1 PUSH4 0x248A9CA3 EQ PUSH2 0x1DD JUMPI DUP1 PUSH4 0x2F2FF15D EQ PUSH2 0x1FF JUMPI JUMPDEST PUSH0 DUP1 REVERT JUMPDEST PUSH2 0x16A PUSH2 0x165 CALLDATASIZE PUSH1 0x4 PUSH2 0x14AB JUMP JUMPDEST PUSH2 0x377 JUMP JUMPDEST PUSH1 0x40 MLOAD SWAP1 ISZERO ISZERO DUP2 MSTORE PUSH1 0x20 ADD JUMPDEST PUSH1 0x40 MLOAD DUP1 SWAP2 SUB SWAP1 RETURN JUMPDEST PUSH2 0x193 PUSH0 DUP1 MLOAD PUSH1 0x20 PUSH2 0x1992 DUP4 CODECOPY DUP2 MLOAD SWAP2 MSTORE DUP2 JUMP JUMPDEST PUSH1 0x40 MLOAD SWAP1 DUP2 MSTORE PUSH1 0x20 ADD PUSH2 0x176 JUMP JUMPDEST PUSH2 0x193 PUSH32 0xD8AA0F3194971A2A116679F7C2090F6939C8D4E01A2A8D7E41D55E5351469E63 DUP2 JUMP JUMPDEST PUSH2 0x1DB PUSH2 0x1D6 CALLDATASIZE PUSH1 0x4 PUSH2 0x14F4 JUMP JUMPDEST PUSH2 0x3AD JUMP JUMPDEST STOP JUMPDEST PUSH2 0x193 PUSH2 0x1EB CALLDATASIZE PUSH1 0x4 PUSH2 0x150D JUMP JUMPDEST PUSH0 SWAP1 DUP2 MSTORE PUSH1 0x20 DUP2 SWAP1 MSTORE PUSH1 0x40 SWAP1 KECCAK256 PUSH1 0x1 ADD SLOAD SWAP1 JUMP JUMPDEST PUSH2 0x1DB PUSH2 0x20D CALLDATASIZE PUSH1 0x4 PUSH2 0x1524 JUMP JUMPDEST PUSH2 0x409 JUMP JUMPDEST PUSH2 0x1DB PUSH2 0x220 CALLDATASIZE PUSH1 0x4 PUSH2 0x1524 JUMP JUMPDEST PUSH2 0x433 JUMP JUMPDEST PUSH2 0x1DB PUSH2 0x46B JUMP JUMPDEST PUSH1 0x1 SLOAD PUSH1 0xFF AND PUSH2 0x16A JUMP JUMPDEST PUSH1 0x3 SLOAD PUSH2 0x24B SWAP1 PUSH1 0x1 PUSH1 0x1 PUSH1 0xA0 SHL SUB AND DUP2 JUMP JUMPDEST PUSH1 0x40 MLOAD PUSH1 0x1 PUSH1 0x1 PUSH1 0xA0 SHL SUB SWAP1 SWAP2 AND DUP2 MSTORE PUSH1 0x20 ADD PUSH2 0x176 JUMP JUMPDEST PUSH2 0x24B PUSH32 0x0 DUP2 JUMP JUMPDEST PUSH2 0x1DB PUSH2 0x298 CALLDATASIZE PUSH1 0x4 PUSH2 0x1593 JUMP JUMPDEST PUSH2 0x480 JUMP JUMPDEST PUSH2 0x193 PUSH2 0x2AB CALLDATASIZE PUSH1 0x4 PUSH2 0x15DB JUMP JUMPDEST PUSH2 0x63C JUMP JUMPDEST PUSH2 0x1DB PUSH2 0xA5D JUMP JUMPDEST PUSH2 0x193 PUSH1 0x2 SLOAD DUP2 JUMP JUMPDEST PUSH2 0x16A PUSH2 0x2CF CALLDATASIZE PUSH1 0x4 PUSH2 0x1524 JUMP JUMPDEST PUSH2 0xA6F JUMP JUMPDEST PUSH2 0x2E7 PUSH2 0x2E2 CALLDATASIZE PUSH1 0x4 PUSH2 0x150D JUMP JUMPDEST PUSH2 0xA97 JUMP JUMPDEST PUSH1 0x40 MLOAD PUSH2 0x176 SWAP12 SWAP11 SWAP10 SWAP9 SWAP8 SWAP7 SWAP6 SWAP5 SWAP4 SWAP3 SWAP2 SWAP1 PUSH2 0x1694 JUMP JUMPDEST PUSH2 0x193 PUSH0 DUP2 JUMP JUMPDEST PUSH1 0x4 SLOAD PUSH2 0x24B SWAP1 PUSH1 0x1 PUSH1 0x1 PUSH1 0xA0 SHL SUB AND DUP2 JUMP JUMPDEST PUSH2 0x1DB PUSH2 0x326 CALLDATASIZE PUSH1 0x4 PUSH2 0x1768 JUMP JUMPDEST PUSH2 0xB9D JUMP JUMPDEST PUSH2 0x1DB PUSH2 0x339 CALLDATASIZE PUSH1 0x4 PUSH2 0x150D JUMP JUMPDEST PUSH2 0xE68 JUMP JUMPDEST PUSH2 0x1DB PUSH2 0x34C CALLDATASIZE PUSH1 0x4 PUSH2 0x1524 JUMP JUMPDEST PUSH2 0xF3A JUMP JUMPDEST PUSH2 0x1DB PUSH2 0x35F CALLDATASIZE PUSH1 0x4 PUSH2 0x14F4 JUMP JUMPDEST PUSH2 0xF5E JUMP JUMPDEST PUSH2 0x1DB PUSH2 0x372 CALLDATASIZE PUSH1 0x4 PUSH2 0x1593 JUMP JUMPDEST PUSH2 0xFE1 JUMP JUMPDEST PUSH0 PUSH1 0x1 PUSH1 0x1 PUSH1 0xE0 SHL SUB NOT DUP3 AND PUSH4 0x7965DB0B PUSH1 0xE0 SHL EQ DUP1 PUSH2 0x3A7 JUMPI POP PUSH4 0x1FFC9A7 PUSH1 0xE0 SHL PUSH1 0x1 PUSH1 0x1 PUSH1 0xE0 SHL SUB NOT DUP4 AND EQ JUMPDEST SWAP3 SWAP2 POP POP JUMP JUMPDEST PUSH0 PUSH2 0x3B7 DUP2 PUSH2 0x1116 JUMP JUMPDEST PUSH1 0x4 DUP1 SLOAD PUSH1 0x1 PUSH1 0x1 PUSH1 0xA0 SHL SUB DUP5 DUP2 AND PUSH1 0x1 PUSH1 0x1 PUSH1 0xA0 SHL SUB NOT DUP4 AND DUP2 OR SWAP1 SWAP4 SSTORE PUSH1 0x40 MLOAD SWAP2 AND SWAP2 SWAP1 DUP3 SWAP1 PUSH32 0xA2C25CA373C727BE01CE62A4879A7CDA215DFC392279E1E456CD6AFB873317A7 SWAP1 PUSH0 SWAP1 LOG3 POP POP POP JUMP JUMPDEST PUSH0 DUP3 DUP2 MSTORE PUSH1 0x20 DUP2 SWAP1 MSTORE PUSH1 0x40 SWAP1 KECCAK256 PUSH1 0x1 ADD SLOAD PUSH2 0x423 DUP2 PUSH2 0x1116 JUMP JUMPDEST PUSH2 0x42D DUP4 DUP4 PUSH2 0x1120 JUMP JUMPDEST POP POP POP POP JUMP JUMPDEST PUSH1 0x1 PUSH1 0x1 PUSH1 0xA0 SHL SUB DUP2 AND CALLER EQ PUSH2 0x45C JUMPI PUSH1 0x40 MLOAD PUSH4 0x334BD919 PUSH1 0xE1 SHL DUP2 MSTORE PUSH1 0x4 ADD PUSH1 0x40 MLOAD DUP1 SWAP2 SUB SWAP1 REVERT JUMPDEST PUSH2 0x466 DUP3 DUP3 PUSH2 0x11AF JUMP JUMPDEST POP POP POP JUMP JUMPDEST PUSH0 PUSH2 0x475 DUP2 PUSH2 0x1116 JUMP JUMPDEST PUSH2 0x47D PUSH2 0x1218 JUMP JUMPDEST POP JUMP JUMPDEST PUSH2 0x488 PUSH2 0x126A JUMP JUMPDEST PUSH2 0x490 PUSH2 0x1290 JUMP JUMPDEST PUSH0 DUP1 MLOAD PUSH1 0x20 PUSH2 0x1992 DUP4 CODECOPY DUP2 MLOAD SWAP2 MSTORE PUSH2 0x4A7 DUP2 PUSH2 0x1116 JUMP JUMPDEST PUSH0 DUP5 DUP2 MSTORE PUSH1 0x5 PUSH1 0x20 MSTORE PUSH1 0x40 DUP2 KECCAK256 SWAP1 PUSH1 0x8 DUP3 ADD SLOAD PUSH1 0x1 PUSH1 0x80 SHL SWAP1 DIV PUSH1 0xFF AND PUSH1 0x3 DUP2 GT ISZERO PUSH2 0x4D5 JUMPI PUSH2 0x4D5 PUSH2 0x165C JUMP JUMPDEST EQ PUSH2 0x527 JUMPI PUSH1 0x40 MLOAD PUSH3 0x461BCD PUSH1 0xE5 SHL DUP2 MSTORE PUSH1 0x20 PUSH1 0x4 DUP3 ADD MSTORE PUSH1 0x19 PUSH1 0x24 DUP3 ADD MSTORE PUSH32 0x494E53545F4553433A206E6F742063616E63656C6C61626C6500000000000000 PUSH1 0x44 DUP3 ADD MSTORE PUSH1 0x64 ADD JUMPDEST PUSH1 0x40 MLOAD DUP1 SWAP2 SUB SWAP1 REVERT JUMPDEST DUP3 PUSH2 0x570 JUMPI PUSH1 0x40 MLOAD PUSH3 0x461BCD PUSH1 0xE5 SHL DUP2 MSTORE PUSH1 0x20 PUSH1 0x4 DUP3 ADD MSTORE PUSH1 0x19 PUSH1 0x24 DUP3 ADD MSTORE PUSH25 0x125394D517D154D0CE881C99585CDBDB881C995C5D5A5C9959 PUSH1 0x3A SHL PUSH1 0x44 DUP3 ADD MSTORE PUSH1 0x64 ADD PUSH2 0x51E JUMP JUMPDEST PUSH1 0x8 DUP2 ADD DUP1 SLOAD PUSH1 0x1 PUSH1 0x81 SHL PUSH9 0xFFFFFFFFFFFFFFFFFF PUSH1 0x40 SHL NOT SWAP1 SWAP2 AND PUSH1 0x1 PUSH1 0x40 SHL TIMESTAMP PUSH8 0xFFFFFFFFFFFFFFFF AND MUL OR OR SWAP1 SSTORE DUP1 SLOAD PUSH1 0x2 DUP3 ADD SLOAD PUSH2 0x5E0 SWAP2 PUSH1 0x1 PUSH1 0x1 PUSH1 0xA0 SHL SUB PUSH32 0x0 DUP2 AND SWAP3 SWAP2 AND SWAP1 PUSH2 0x12AB JUMP JUMPDEST CALLER PUSH1 0x1 PUSH1 0x1 PUSH1 0xA0 SHL SUB AND DUP6 PUSH32 0x7D48960B4147861F64687653163E8BDAC213509E036FB1D0C3982D94B2F109EA DUP7 DUP7 PUSH1 0x40 MLOAD PUSH2 0x61C SWAP3 SWAP2 SWAP1 PUSH2 0x17B0 JUMP JUMPDEST PUSH1 0x40 MLOAD DUP1 SWAP2 SUB SWAP1 LOG3 POP POP PUSH2 0x466 PUSH1 0x1 PUSH0 DUP1 MLOAD PUSH1 0x20 PUSH2 0x19B2 DUP4 CODECOPY DUP2 MLOAD SWAP2 MSTORE SSTORE JUMP JUMPDEST PUSH0 PUSH2 0x645 PUSH2 0x126A JUMP JUMPDEST PUSH2 0x64D PUSH2 0x1290 JUMP JUMPDEST PUSH1 0x1 PUSH1 0x1 PUSH1 0xA0 SHL SUB DUP9 AND PUSH2 0x6A3 JUMPI PUSH1 0x40 MLOAD PUSH3 0x461BCD PUSH1 0xE5 SHL DUP2 MSTORE PUSH1 0x20 PUSH1 0x4 DUP3 ADD MSTORE PUSH1 0x1D PUSH1 0x24 DUP3 ADD MSTORE PUSH32 0x494E53545F4553433A20696E76616C69642062656E6566696369617279000000 PUSH1 0x44 DUP3 ADD MSTORE PUSH1 0x64 ADD PUSH2 0x51E JUMP JUMPDEST PUSH0 DUP8 GT PUSH2 0x6EA JUMPI PUSH1 0x40 MLOAD PUSH3 0x461BCD PUSH1 0xE5 SHL DUP2 MSTORE PUSH1 0x20 PUSH1 0x4 DUP3 ADD MSTORE PUSH1 0x15 PUSH1 0x24 DUP3 ADD MSTORE PUSH21 0x125394D517D154D0CE881E995C9BC8185B5BDD5B9D PUSH1 0x5A SHL PUSH1 0x44 DUP3 ADD MSTORE PUSH1 0x64 ADD PUSH2 0x51E JUMP JUMPDEST DUP6 PUSH2 0x737 JUMPI PUSH1 0x40 MLOAD PUSH3 0x461BCD PUSH1 0xE5 SHL DUP2 MSTORE PUSH1 0x20 PUSH1 0x4 DUP3 ADD MSTORE PUSH1 0x19 PUSH1 0x24 DUP3 ADD MSTORE PUSH32 0x494E53545F4553433A20696E76616C6964207375626A65637400000000000000 PUSH1 0x44 DUP3 ADD MSTORE PUSH1 0x64 ADD PUSH2 0x51E JUMP JUMPDEST DUP4 PUSH2 0x784 JUMPI PUSH1 0x40 MLOAD PUSH3 0x461BCD PUSH1 0xE5 SHL DUP2 MSTORE PUSH1 0x20 PUSH1 0x4 DUP3 ADD MSTORE PUSH1 0x1F PUSH1 0x24 DUP3 ADD MSTORE PUSH32 0x494E53545F4553433A20696E76616C6964206D65746164617461206861736800 PUSH1 0x44 DUP3 ADD MSTORE PUSH1 0x64 ADD PUSH2 0x51E JUMP JUMPDEST DUP2 PUSH2 0x7D1 JUMPI PUSH1 0x40 MLOAD PUSH3 0x461BCD PUSH1 0xE5 SHL DUP2 MSTORE PUSH1 0x20 PUSH1 0x4 DUP3 ADD MSTORE PUSH1 0x1C PUSH1 0x24 DUP3 ADD MSTORE PUSH32 0x494E53545F4553433A20656D70747920706172746E657220636F646500000000 PUSH1 0x44 DUP3 ADD MSTORE PUSH1 0x64 ADD PUSH2 0x51E JUMP JUMPDEST PUSH1 0x2 DUP1 SLOAD SWAP1 PUSH0 PUSH2 0x7E0 DUP4 PUSH2 0x17CB JUMP JUMPDEST SWAP2 SWAP1 POP SSTORE SWAP1 POP PUSH1 0x40 MLOAD DUP1 PUSH2 0x160 ADD PUSH1 0x40 MSTORE DUP1 CALLER PUSH1 0x1 PUSH1 0x1 PUSH1 0xA0 SHL SUB AND DUP2 MSTORE PUSH1 0x20 ADD DUP10 PUSH1 0x1 PUSH1 0x1 PUSH1 0xA0 SHL SUB AND DUP2 MSTORE PUSH1 0x20 ADD DUP9 DUP2 MSTORE PUSH1 0x20 ADD DUP8 DUP2 MSTORE PUSH1 0x20 ADD DUP7 PUSH1 0x7 DUP2 GT ISZERO PUSH2 0x82E JUMPI PUSH2 0x82E PUSH2 0x165C JUMP JUMPDEST DUP2 MSTORE PUSH1 0x20 ADD PUSH0 DUP2 MSTORE PUSH1 0x20 ADD DUP6 DUP2 MSTORE PUSH1 0x20 ADD DUP5 DUP5 DUP1 DUP1 PUSH1 0x1F ADD PUSH1 0x20 DUP1 SWAP2 DIV MUL PUSH1 0x20 ADD PUSH1 0x40 MLOAD SWAP1 DUP2 ADD PUSH1 0x40 MSTORE DUP1 SWAP4 SWAP3 SWAP2 SWAP1 DUP2 DUP2 MSTORE PUSH1 0x20 ADD DUP4 DUP4 DUP1 DUP3 DUP5 CALLDATACOPY PUSH0 SWAP3 ADD DUP3 SWAP1 MSTORE POP SWAP4 DUP6 MSTORE POP POP POP PUSH8 0xFFFFFFFFFFFFFFFF TIMESTAMP AND PUSH1 0x20 DUP4 ADD MSTORE PUSH1 0x40 DUP3 ADD DUP2 SWAP1 MSTORE PUSH1 0x60 SWAP1 SWAP2 ADD MSTORE PUSH0 DUP3 DUP2 MSTORE PUSH1 0x5 PUSH1 0x20 SWAP1 DUP2 MSTORE PUSH1 0x40 SWAP2 DUP3 SWAP1 KECCAK256 DUP4 MLOAD DUP2 SLOAD PUSH1 0x1 PUSH1 0x1 PUSH1 0xA0 SHL SUB SWAP2 DUP3 AND PUSH1 0x1 PUSH1 0x1 PUSH1 0xA0 SHL SUB NOT SWAP2 DUP3 AND OR DUP4 SSTORE SWAP3 DUP6 ADD MLOAD PUSH1 0x1 DUP1 DUP5 ADD DUP1 SLOAD SWAP3 SWAP1 SWAP4 AND SWAP2 SWAP1 SWAP5 AND OR SWAP1 SSTORE SWAP2 DUP4 ADD MLOAD PUSH1 0x2 DUP4 ADD SSTORE PUSH1 0x60 DUP4 ADD MLOAD PUSH1 0x3 DUP4 ADD SSTORE PUSH1 0x80 DUP4 ADD MLOAD PUSH1 0x4 DUP4 ADD DUP1 SLOAD SWAP2 SWAP3 SWAP1 SWAP2 PUSH1 0xFF NOT AND SWAP1 DUP4 PUSH1 0x7 DUP2 GT ISZERO PUSH2 0x911 JUMPI PUSH2 0x911 PUSH2 0x165C JUMP JUMPDEST MUL OR SWAP1 SSTORE POP PUSH1 0xA0 DUP3 ADD MLOAD PUSH1 0x5 DUP3 ADD SSTORE PUSH1 0xC0 DUP3 ADD MLOAD PUSH1 0x6 DUP3 ADD SSTORE PUSH1 0xE0 DUP3 ADD MLOAD PUSH1 0x7 DUP3 ADD SWAP1 PUSH2 0x93E SWAP1 DUP3 PUSH2 0x1886 JUMP JUMPDEST POP PUSH2 0x100 DUP3 ADD MLOAD PUSH1 0x8 DUP3 ADD DUP1 SLOAD PUSH2 0x120 DUP6 ADD MLOAD PUSH8 0xFFFFFFFFFFFFFFFF SWAP1 DUP2 AND PUSH1 0x1 PUSH1 0x40 SHL MUL PUSH16 0xFFFFFFFFFFFFFFFFFFFFFFFFFFFFFFFF NOT SWAP1 SWAP3 AND SWAP4 AND SWAP3 SWAP1 SWAP3 OR SWAP2 SWAP1 SWAP2 OR DUP1 DUP3 SSTORE PUSH2 0x140 DUP5 ADD MLOAD SWAP2 SWAP1 PUSH1 0xFF PUSH1 0x80 SHL NOT AND PUSH1 0x1 PUSH1 0x80 SHL DUP4 PUSH1 0x3 DUP2 GT ISZERO PUSH2 0x9AB JUMPI PUSH2 0x9AB PUSH2 0x165C JUMP JUMPDEST MUL OR SWAP1 SSTORE POP PUSH2 0x9E8 SWAP2 POP POP PUSH1 0x1 PUSH1 0x1 PUSH1 0xA0 SHL SUB PUSH32 0x0 AND CALLER ADDRESS DUP11 PUSH2 0x12E0 JUMP JUMPDEST DUP8 PUSH1 0x1 PUSH1 0x1 PUSH1 0xA0 SHL SUB AND CALLER PUSH1 0x1 PUSH1 0x1 PUSH1 0xA0 SHL SUB AND DUP3 PUSH32 0xEA1810A2FAACC32E949D7B5B6E220C7C65C1362B00C99A335C95490788598068 DUP11 DUP11 DUP11 DUP10 DUP10 PUSH1 0x40 MLOAD PUSH2 0xA34 SWAP6 SWAP5 SWAP4 SWAP3 SWAP2 SWAP1 PUSH2 0x1946 JUMP JUMPDEST PUSH1 0x40 MLOAD DUP1 SWAP2 SUB SWAP1 LOG4 PUSH2 0xA52 PUSH1 0x1 PUSH0 DUP1 MLOAD PUSH1 0x20 PUSH2 0x19B2 DUP4 CODECOPY DUP2 MLOAD SWAP2 MSTORE SSTORE JUMP JUMPDEST SWAP8 SWAP7 POP POP POP POP POP POP POP JUMP JUMPDEST PUSH0 PUSH2 0xA67 DUP2 PUSH2 0x1116 JUMP JUMPDEST PUSH2 0x47D PUSH2 0x1316 JUMP JUMPDEST PUSH0 SWAP2 DUP3 MSTORE PUSH1 0x20 DUP3 DUP2 MSTORE PUSH1 0x40 DUP1 DUP5 KECCAK256 PUSH1 0x1 PUSH1 0x1 PUSH1 0xA0 SHL SUB SWAP4 SWAP1 SWAP4 AND DUP5 MSTORE SWAP2 SWAP1 MSTORE SWAP1 KECCAK256 SLOAD PUSH1 0xFF AND SWAP1 JUMP JUMPDEST PUSH1 0x5 PUSH1 0x20 DUP2 SWAP1 MSTORE PUSH0 SWAP2 DUP3 MSTORE PUSH1 0x40 SWAP1 SWAP2 KECCAK256 DUP1 SLOAD PUSH1 0x1 DUP3 ADD SLOAD PUSH1 0x2 DUP4 ADD SLOAD PUSH1 0x3 DUP5 ADD SLOAD PUSH1 0x4 DUP6 ADD SLOAD SWAP6 DUP6 ADD SLOAD PUSH1 0x6 DUP7 ADD SLOAD PUSH1 0x7 DUP8 ADD DUP1 SLOAD PUSH1 0x1 PUSH1 0x1 PUSH1 0xA0 SHL SUB SWAP8 DUP9 AND SWAP10 SWAP7 SWAP1 SWAP8 AND SWAP8 SWAP5 SWAP7 SWAP4 SWAP6 PUSH1 0xFF AND SWAP5 SWAP3 SWAP4 SWAP2 SWAP3 SWAP2 PUSH2 0xAF3 SWAP1 PUSH2 0x1803 JUMP JUMPDEST DUP1 PUSH1 0x1F ADD PUSH1 0x20 DUP1 SWAP2 DIV MUL PUSH1 0x20 ADD PUSH1 0x40 MLOAD SWAP1 DUP2 ADD PUSH1 0x40 MSTORE DUP1 SWAP3 SWAP2 SWAP1 DUP2 DUP2 MSTORE PUSH1 0x20 ADD DUP3 DUP1 SLOAD PUSH2 0xB1F SWAP1 PUSH2 0x1803 JUMP JUMPDEST DUP1 ISZERO PUSH2 0xB6A JUMPI DUP1 PUSH1 0x1F LT PUSH2 0xB41 JUMPI PUSH2 0x100 DUP1 DUP4 SLOAD DIV MUL DUP4 MSTORE SWAP2 PUSH1 0x20 ADD SWAP2 PUSH2 0xB6A JUMP JUMPDEST DUP3 ADD SWAP2 SWAP1 PUSH0 MSTORE PUSH1 0x20 PUSH0 KECCAK256 SWAP1 JUMPDEST DUP2 SLOAD DUP2 MSTORE SWAP1 PUSH1 0x1 ADD SWAP1 PUSH1 0x20 ADD DUP1 DUP4 GT PUSH2 0xB4D JUMPI DUP3 SWAP1 SUB PUSH1 0x1F AND DUP3 ADD SWAP2 JUMPDEST POP POP POP PUSH1 0x8 SWAP1 SWAP4 ADD SLOAD SWAP2 SWAP3 POP POP PUSH8 0xFFFFFFFFFFFFFFFF DUP1 DUP3 AND SWAP2 PUSH1 0x1 PUSH1 0x40 SHL DUP2 DIV SWAP1 SWAP2 AND SWAP1 PUSH1 0xFF PUSH1 0x1 PUSH1 0x80 SHL SWAP1 SWAP2 DIV AND DUP12 JUMP JUMPDEST PUSH2 0xBA5 PUSH2 0x126A JUMP JUMPDEST PUSH2 0xBAD PUSH2 0x1290 JUMP JUMPDEST PUSH32 0xD8AA0F3194971A2A116679F7C2090F6939C8D4E01A2A8D7E41D55E5351469E63 PUSH2 0xBD7 DUP2 PUSH2 0x1116 JUMP JUMPDEST PUSH0 DUP4 DUP2 MSTORE PUSH1 0x5 PUSH1 0x20 MSTORE PUSH1 0x40 DUP2 KECCAK256 SWAP1 PUSH1 0x8 DUP3 ADD SLOAD PUSH1 0x1 PUSH1 0x80 SHL SWAP1 DIV PUSH1 0xFF AND PUSH1 0x3 DUP2 GT ISZERO PUSH2 0xC05 JUMPI PUSH2 0xC05 PUSH2 0x165C JUMP JUMPDEST EQ PUSH2 0xC4A JUMPI PUSH1 0x40 MLOAD PUSH3 0x461BCD PUSH1 0xE5 SHL DUP2 MSTORE PUSH1 0x20 PUSH1 0x4 DUP3 ADD MSTORE PUSH1 0x15 PUSH1 0x24 DUP3 ADD MSTORE PUSH21 0x494E53545F4553433A206E6F742070656E64696E67 PUSH1 0x58 SHL PUSH1 0x44 DUP3 ADD MSTORE PUSH1 0x64 ADD PUSH2 0x51E JUMP JUMPDEST PUSH1 0x8 DUP2 ADD SLOAD PUSH8 0xFFFFFFFFFFFFFFFF AND PUSH2 0xC9B JUMPI PUSH1 0x40 MLOAD PUSH3 0x461BCD PUSH1 0xE5 SHL DUP2 MSTORE PUSH1 0x20 PUSH1 0x4 DUP3 ADD MSTORE PUSH1 0x13 PUSH1 0x24 DUP3 ADD MSTORE PUSH19 0x125394D517D154D0CE881B9BDD08199BDD5B99 PUSH1 0x6A SHL PUSH1 0x44 DUP3 ADD MSTORE PUSH1 0x64 ADD PUSH2 0x51E JUMP JUMPDEST PUSH1 0x4 SLOAD PUSH1 0x1 PUSH1 0x1 PUSH1 0xA0 SHL SUB AND ISZERO PUSH2 0xDA4 JUMPI PUSH1 0x4 DUP1 SLOAD PUSH1 0x3 DUP4 ADD SLOAD SWAP2 DUP4 ADD SLOAD PUSH0 SWAP3 PUSH1 0x1 PUSH1 0x1 PUSH1 0xA0 SHL SUB SWAP1 SWAP3 AND SWAP2 PUSH4 0x5DA377E3 SWAP2 PUSH1 0xFF AND PUSH1 0x7 DUP2 GT ISZERO PUSH2 0xCE1 JUMPI PUSH2 0xCE1 PUSH2 0x165C JUMP JUMPDEST PUSH1 0x40 MLOAD PUSH1 0x1 PUSH1 0x1 PUSH1 0xE0 SHL SUB NOT PUSH1 0xE0 DUP6 SWAP1 SHL AND DUP2 MSTORE PUSH1 0x4 DUP2 ADD SWAP3 SWAP1 SWAP3 MSTORE PUSH1 0xFF AND PUSH1 0x24 DUP3 ADD MSTORE PUSH1 0x44 ADD PUSH1 0x20 PUSH1 0x40 MLOAD DUP1 DUP4 SUB DUP2 DUP7 GAS STATICCALL ISZERO DUP1 ISZERO PUSH2 0xD23 JUMPI RETURNDATASIZE PUSH0 DUP1 RETURNDATACOPY RETURNDATASIZE PUSH0 REVERT JUMPDEST POP POP POP POP PUSH1 0x40 MLOAD RETURNDATASIZE PUSH1 0x1F NOT PUSH1 0x1F DUP3 ADD AND DUP3 ADD DUP1 PUSH1 0x40 MSTORE POP DUP2 ADD SWAP1 PUSH2 0xD47 SWAP2 SWAP1 PUSH2 0x1972 JUMP JUMPDEST SWAP1 POP DUP1 PUSH2 0xDA2 JUMPI PUSH1 0x40 MLOAD PUSH3 0x461BCD PUSH1 0xE5 SHL DUP2 MSTORE PUSH1 0x20 PUSH1 0x4 DUP3 ADD MSTORE PUSH1 0x24 DUP1 DUP3 ADD MSTORE PUSH32 0x494E53545F4553433A206F7261636C65206576656E74206E6F7420636F6E6669 PUSH1 0x44 DUP3 ADD MSTORE PUSH4 0x1C9B5959 PUSH1 0xE2 SHL PUSH1 0x64 DUP3 ADD MSTORE PUSH1 0x84 ADD PUSH2 0x51E JUMP JUMPDEST POP JUMPDEST PUSH1 0x8 DUP2 ADD DUP1 SLOAD PUSH1 0x5 DUP4 ADD DUP6 SWAP1 SSTORE PUSH1 0x1 PUSH1 0x80 SHL PUSH9 0xFFFFFFFFFFFFFFFFFF PUSH1 0x40 SHL NOT SWAP1 SWAP2 AND PUSH1 0x1 PUSH1 0x40 SHL TIMESTAMP PUSH8 0xFFFFFFFFFFFFFFFF AND MUL OR OR SWAP1 SSTORE PUSH1 0x1 DUP2 ADD SLOAD PUSH1 0x2 DUP3 ADD SLOAD PUSH2 0xE1E SWAP2 PUSH1 0x1 PUSH1 0x1 PUSH1 0xA0 SHL SUB PUSH32 0x0 DUP2 AND SWAP3 SWAP2 AND SWAP1 PUSH2 0x12AB JUMP JUMPDEST PUSH1 0x40 MLOAD CALLER SWAP1 DUP5 SWAP1 DUP7 SWAP1 PUSH32 0x6C2B69108C6691683495BB3A230FB2CE5B892B27607E017D4AD023E083CD712C SWAP1 PUSH0 SWAP1 LOG4 POP POP PUSH2 0xE64 PUSH1 0x1 PUSH0 DUP1 MLOAD PUSH1 0x20 PUSH2 0x19B2 DUP4 CODECOPY DUP2 MLOAD SWAP2 MSTORE SSTORE JUMP JUMPDEST POP POP JUMP JUMPDEST PUSH0 DUP1 MLOAD PUSH1 0x20 PUSH2 0x1992 DUP4 CODECOPY DUP2 MLOAD SWAP2 MSTORE PUSH2 0xE7F DUP2 PUSH2 0x1116 JUMP JUMPDEST PUSH1 0x3 PUSH0 DUP4 DUP2 MSTORE PUSH1 0x5 PUSH1 0x20 MSTORE PUSH1 0x40 SWAP1 KECCAK256 PUSH1 0x8 ADD SLOAD PUSH1 0x1 PUSH1 0x80 SHL SWAP1 DIV PUSH1 0xFF AND PUSH1 0x3 DUP2 GT ISZERO PUSH2 0xEAD JUMPI PUSH2 0xEAD PUSH2 0x165C JUMP JUMPDEST EQ PUSH2 0xEF1 JUMPI PUSH1 0x40 MLOAD PUSH3 0x461BCD PUSH1 0xE5 SHL DUP2 MSTORE PUSH1 0x20 PUSH1 0x4 DUP3 ADD MSTORE PUSH1 0x14 PUSH1 0x24 DUP3 ADD MSTORE PUSH20 0x24A729AA2FA2A9A19D103737BA10333937BD32B7 PUSH1 0x61 SHL PUSH1 0x44 DUP3 ADD MSTORE PUSH1 0x64 ADD PUSH2 0x51E JUMP JUMPDEST PUSH0 DUP3 DUP2 MSTORE PUSH1 0x5 PUSH1 0x20 MSTORE PUSH1 0x40 DUP1 DUP3 KECCAK256 PUSH1 0x8 ADD DUP1 SLOAD PUSH1 0xFF PUSH1 0x80 SHL NOT AND SWAP1 SSTORE MLOAD CALLER SWAP2 DUP5 SWAP2 PUSH32 0x5DD6406E214A7EF26E178C64337FF1617723C2710F38107102845152D3F75B4D SWAP2 SWAP1 LOG3 POP POP JUMP JUMPDEST PUSH0 DUP3 DUP2 MSTORE PUSH1 0x20 DUP2 SWAP1 MSTORE PUSH1 0x40 SWAP1 KECCAK256 PUSH1 0x1 ADD SLOAD PUSH2 0xF54 DUP2 PUSH2 0x1116 JUMP JUMPDEST PUSH2 0x42D DUP4 DUP4 PUSH2 0x11AF JUMP JUMPDEST PUSH0 PUSH2 0xF68 DUP2 PUSH2 0x1116 JUMP JUMPDEST PUSH1 0x1 PUSH1 0x1 PUSH1 0xA0 SHL SUB DUP3 AND PUSH2 0xFBE JUMPI PUSH1 0x40 MLOAD PUSH3 0x461BCD PUSH1 0xE5 SHL DUP2 MSTORE PUSH1 0x20 PUSH1 0x4 DUP3 ADD MSTORE PUSH1 0x1A PUSH1 0x24 DUP3 ADD MSTORE PUSH32 0x494E53545F4553433A20696E76616C6964207472656173757279000000000000 PUSH1 0x44 DUP3 ADD MSTORE PUSH1 0x64 ADD PUSH2 0x51E JUMP JUMPDEST POP PUSH1 0x3 DUP1 SLOAD PUSH1 0x1 PUSH1 0x1 PUSH1 0xA0 SHL SUB NOT AND PUSH1 0x1 PUSH1 0x1 PUSH1 0xA0 SHL SUB SWAP3 SWAP1 SWAP3 AND SWAP2 SWAP1 SWAP2 OR SWAP1 SSTORE JUMP JUMPDEST PUSH0 DUP1 MLOAD PUSH1 0x20 PUSH2 0x1992 DUP4 CODECOPY DUP2 MLOAD SWAP2 MSTORE PUSH2 0xFF8 DUP2 PUSH2 0x1116 JUMP JUMPDEST PUSH0 DUP5 DUP2 MSTORE PUSH1 0x5 PUSH1 0x20 MSTORE PUSH1 0x40 DUP2 KECCAK256 SWAP1 PUSH1 0x8 DUP3 ADD SLOAD PUSH1 0x1 PUSH1 0x80 SHL SWAP1 DIV PUSH1 0xFF AND PUSH1 0x3 DUP2 GT ISZERO PUSH2 0x1026 JUMPI PUSH2 0x1026 PUSH2 0x165C JUMP JUMPDEST EQ PUSH2 0x1073 JUMPI PUSH1 0x40 MLOAD PUSH3 0x461BCD PUSH1 0xE5 SHL DUP2 MSTORE PUSH1 0x20 PUSH1 0x4 DUP3 ADD MSTORE PUSH1 0x17 PUSH1 0x24 DUP3 ADD MSTORE PUSH32 0x494E53545F4553433A206E6F7420667265657A61626C65000000000000000000 PUSH1 0x44 DUP3 ADD MSTORE PUSH1 0x64 ADD PUSH2 0x51E JUMP JUMPDEST DUP3 PUSH2 0x10BC JUMPI PUSH1 0x40 MLOAD PUSH3 0x461BCD PUSH1 0xE5 SHL DUP2 MSTORE PUSH1 0x20 PUSH1 0x4 DUP3 ADD MSTORE PUSH1 0x19 PUSH1 0x24 DUP3 ADD MSTORE PUSH25 0x125394D517D154D0CE881C99585CDBDB881C995C5D5A5C9959 PUSH1 0x3A SHL PUSH1 0x44 DUP3 ADD MSTORE PUSH1 0x64 ADD PUSH2 0x51E JUMP JUMPDEST PUSH1 0x8 DUP2 ADD DUP1 SLOAD PUSH1 0xFF PUSH1 0x80 SHL NOT AND PUSH1 0x3 PUSH1 0x80 SHL OR SWAP1 SSTORE PUSH1 0x40 MLOAD CALLER SWAP1 DUP7 SWAP1 PUSH32 0xEB4655A0FE23702258458E16773F1D4F0F6B04D15CF7F7CAFD326CF1B218B77B SWAP1 PUSH2 0x1107 SWAP1 DUP9 SWAP1 DUP9 SWAP1 PUSH2 0x17B0 JUMP JUMPDEST PUSH1 0x40 MLOAD DUP1 SWAP2 SUB SWAP1 LOG3 POP POP POP POP POP JUMP JUMPDEST PUSH2 0x47D DUP2 CALLER PUSH2 0x1351 JUMP JUMPDEST PUSH0 PUSH2 0x112B DUP4 DUP4 PUSH2 0xA6F JUMP JUMPDEST PUSH2 0x11A8 JUMPI PUSH0 DUP4 DUP2 MSTORE PUSH1 0x20 DUP2 DUP2 MSTORE PUSH1 0x40 DUP1 DUP4 KECCAK256 PUSH1 0x1 PUSH1 0x1 PUSH1 0xA0 SHL SUB DUP7 AND DUP5 MSTORE SWAP1 SWAP2 MSTORE SWAP1 KECCAK256 DUP1 SLOAD PUSH1 0xFF NOT AND PUSH1 0x1 OR SWAP1 SSTORE PUSH2 0x1160 CALLER SWAP1 JUMP JUMPDEST PUSH1 0x1 PUSH1 0x1 PUSH1 0xA0 SHL SUB AND DUP3 PUSH1 0x1 PUSH1 0x1 PUSH1 0xA0 SHL SUB AND DUP5 PUSH32 0x2F8788117E7EFF1D82E926EC794901D17C78024A50270940304540A733656F0D PUSH1 0x40 MLOAD PUSH1 0x40 MLOAD DUP1 SWAP2 SUB SWAP1 LOG4 POP PUSH1 0x1 PUSH2 0x3A7 JUMP JUMPDEST POP PUSH0 PUSH2 0x3A7 JUMP JUMPDEST PUSH0 PUSH2 0x11BA DUP4 DUP4 PUSH2 0xA6F JUMP JUMPDEST ISZERO PUSH2 0x11A8 JUMPI PUSH0 DUP4 DUP2 MSTORE PUSH1 0x20 DUP2 DUP2 MSTORE PUSH1 0x40 DUP1 DUP4 KECCAK256 PUSH1 0x1 PUSH1 0x1 PUSH1 0xA0 SHL SUB DUP7 AND DUP1 DUP6 MSTORE SWAP3 MSTORE DUP1 DUP4 KECCAK256 DUP1 SLOAD PUSH1 0xFF NOT AND SWAP1 SSTORE MLOAD CALLER SWAP3 DUP7 SWAP2 PUSH32 0xF6391F5C32D9C69D2A47EA670B442974B53935D1EDC7FD64EB21E047A839171B SWAP2 SWAP1 LOG4 POP PUSH1 0x1 PUSH2 0x3A7 JUMP JUMPDEST PUSH2 0x1220 PUSH2 0x138A JUMP JUMPDEST PUSH1 0x1 DUP1 SLOAD PUSH1 0xFF NOT AND SWAP1 SSTORE PUSH32 0x5DB9EE0A495BF2E6FF9C91A7834C1BA4FDD244A5E8AA4E537BD38AEAE4B073AA CALLER JUMPDEST PUSH1 0x40 MLOAD PUSH1 0x1 PUSH1 0x1 PUSH1 0xA0 SHL SUB SWAP1 SWAP2 AND DUP2 MSTORE PUSH1 0x20 ADD PUSH1 0x40 MLOAD DUP1 SWAP2 SUB SWAP1 LOG1 JUMP JUMPDEST PUSH1 0x1 SLOAD PUSH1 0xFF AND ISZERO PUSH2 0x128E JUMPI PUSH1 0x40 MLOAD PUSH4 0xD93C0665 PUSH1 0xE0 SHL DUP2 MSTORE PUSH1 0x4 ADD PUSH1 0x40 MLOAD DUP1 SWAP2 SUB SWAP1 REVERT JUMPDEST JUMP JUMPDEST PUSH2 0x1298 PUSH2 0x13AD JUMP JUMPDEST PUSH1 0x2 PUSH0 DUP1 MLOAD PUSH1 0x20 PUSH2 0x19B2 DUP4 CODECOPY DUP2 MLOAD SWAP2 MSTORE SSTORE JUMP JUMPDEST PUSH2 0x12B8 DUP4 DUP4 DUP4 PUSH1 0x1 PUSH2 0x13DC JUMP JUMPDEST PUSH2 0x466 JUMPI PUSH1 0x40 MLOAD PUSH4 0x5274AFE7 PUSH1 0xE0 SHL DUP2 MSTORE PUSH1 0x1 PUSH1 0x1 PUSH1 0xA0 SHL SUB DUP5 AND PUSH1 0x4 DUP3 ADD MSTORE PUSH1 0x24 ADD PUSH2 0x51E JUMP JUMPDEST PUSH2 0x12EE DUP5 DUP5 DUP5 DUP5 PUSH1 0x1 PUSH2 0x143E JUMP JUMPDEST PUSH2 0x42D JUMPI PUSH1 0x40 MLOAD PUSH4 0x5274AFE7 PUSH1 0xE0 SHL DUP2 MSTORE PUSH1 0x1 PUSH1 0x1 PUSH1 0xA0 SHL SUB DUP6 AND PUSH1 0x4 DUP3 ADD MSTORE PUSH1 0x24 ADD PUSH2 0x51E JUMP JUMPDEST PUSH2 0x131E PUSH2 0x126A JUMP JUMPDEST PUSH1 0x1 DUP1 SLOAD PUSH1 0xFF NOT AND DUP2 OR SWAP1 SSTORE PUSH32 0x62E78CEA01BEE320CD4E420270B5EA74000D11B0C9F74754EBDBFC544B05A258 CALLER PUSH2 0x124D JUMP JUMPDEST PUSH2 0x135B DUP3 DUP3 PUSH2 0xA6F JUMP JUMPDEST PUSH2 0xE64 JUMPI PUSH1 0x40 MLOAD PUSH4 0xE2517D3F PUSH1 0xE0 SHL DUP2 MSTORE PUSH1 0x1 PUSH1 0x1 PUSH1 0xA0 SHL SUB DUP3 AND PUSH1 0x4 DUP3 ADD MSTORE PUSH1 0x24 DUP2 ADD DUP4 SWAP1 MSTORE PUSH1 0x44 ADD PUSH2 0x51E JUMP JUMPDEST PUSH1 0x1 SLOAD PUSH1 0xFF AND PUSH2 0x128E JUMPI PUSH1 0x40 MLOAD PUSH4 0x8DFC202B PUSH1 0xE0 SHL DUP2 MSTORE PUSH1 0x4 ADD PUSH1 0x40 MLOAD DUP1 SWAP2 SUB SWAP1 REVERT JUMPDEST PUSH0 DUP1 MLOAD PUSH1 0x20 PUSH2 0x19B2 DUP4 CODECOPY DUP2 MLOAD SWAP2 MSTORE SLOAD PUSH1 0x2 SUB PUSH2 0x128E JUMPI PUSH1 0x40 MLOAD PUSH4 0x3EE5AEB5 PUSH1 0xE0 SHL DUP2 MSTORE PUSH1 0x4 ADD PUSH1 0x40 MLOAD DUP1 SWAP2 SUB SWAP1 REVERT JUMPDEST PUSH1 0x40 MLOAD PUSH4 0xA9059CBB PUSH1 0xE0 SHL PUSH0 DUP2 DUP2 MSTORE PUSH1 0x1 PUSH1 0x1 PUSH1 0xA0 SHL SUB DUP7 AND PUSH1 0x4 MSTORE PUSH1 0x24 DUP6 SWAP1 MSTORE SWAP2 PUSH1 0x20 DUP4 PUSH1 0x44 DUP2 DUP1 DUP12 GAS CALL SWAP3 POP PUSH1 0x1 PUSH0 MLOAD EQ DUP4 AND PUSH2 0x1432 JUMPI DUP4 DUP4 ISZERO AND ISZERO PUSH2 0x1426 JUMPI RETURNDATASIZE PUSH0 DUP3 RETURNDATACOPY RETURNDATASIZE DUP2 REVERT JUMPDEST PUSH0 DUP8 EXTCODESIZE GT RETURNDATASIZE ISZERO AND DUP4 AND SWAP3 POP JUMPDEST PUSH1 0x40 MSTORE POP SWAP5 SWAP4 POP POP POP POP JUMP JUMPDEST PUSH1 0x40 MLOAD PUSH4 0x23B872DD PUSH1 0xE0 SHL PUSH0 DUP2 DUP2 MSTORE PUSH1 0x1 PUSH1 0x1 PUSH1 0xA0 SHL SUB DUP8 DUP2 AND PUSH1 0x4 MSTORE DUP7 AND PUSH1 0x24 MSTORE PUSH1 0x44 DUP6 SWAP1 MSTORE SWAP2 PUSH1 0x20 DUP4 PUSH1 0x64 DUP2 DUP1 DUP13 GAS CALL SWAP3 POP PUSH1 0x1 PUSH0 MLOAD EQ DUP4 AND PUSH2 0x149A JUMPI DUP4 DUP4 ISZERO AND ISZERO PUSH2 0x148E JUMPI RETURNDATASIZE PUSH0 DUP3 RETURNDATACOPY RETURNDATASIZE DUP2 REVERT JUMPDEST PUSH0 DUP9 EXTCODESIZE GT RETURNDATASIZE ISZERO AND DUP4 AND SWAP3 POP JUMPDEST PUSH1 0x40 MSTORE POP PUSH0 PUSH1 0x60 MSTORE SWAP6 SWAP5 POP POP POP POP POP JUMP JUMPDEST PUSH0 PUSH1 0x20 DUP3 DUP5 SUB SLT ISZERO PUSH2 0x14BB JUMPI PUSH0 DUP1 REVERT JUMPDEST DUP2 CALLDATALOAD PUSH1 0x1 PUSH1 0x1 PUSH1 0xE0 SHL SUB NOT DUP2 AND DUP2 EQ PUSH2 0x14D2 JUMPI PUSH0 DUP1 REVERT JUMPDEST SWAP4 SWAP3 POP POP POP JUMP JUMPDEST DUP1 CALLDATALOAD PUSH1 0x1 PUSH1 0x1 PUSH1 0xA0 SHL SUB DUP2 AND DUP2 EQ PUSH2 0x14EF JUMPI PUSH0 DUP1 REVERT JUMPDEST SWAP2 SWAP1 POP JUMP JUMPDEST PUSH0 PUSH1 0x20 DUP3 DUP5 SUB SLT ISZERO PUSH2 0x1504 JUMPI PUSH0 DUP1 REVERT JUMPDEST PUSH2 0x14D2 DUP3 PUSH2 0x14D9 JUMP JUMPDEST PUSH0 PUSH1 0x20 DUP3 DUP5 SUB SLT ISZERO PUSH2 0x151D JUMPI PUSH0 DUP1 REVERT JUMPDEST POP CALLDATALOAD SWAP2 SWAP1 POP JUMP JUMPDEST PUSH0 DUP1 PUSH1 0x40 DUP4 DUP6 SUB SLT ISZERO PUSH2 0x1535 JUMPI PUSH0 DUP1 REVERT JUMPDEST DUP3 CALLDATALOAD SWAP2 POP PUSH2 0x1545 PUSH1 0x20 DUP5 ADD PUSH2 0x14D9 JUMP JUMPDEST SWAP1 POP SWAP3 POP SWAP3 SWAP1 POP JUMP JUMPDEST PUSH0 DUP1 DUP4 PUSH1 0x1F DUP5 ADD SLT PUSH2 0x155E JUMPI PUSH0 DUP1 REVERT JUMPDEST POP DUP2 CALLDATALOAD PUSH8 0xFFFFFFFFFFFFFFFF DUP2 GT ISZERO PUSH2 0x1575 JUMPI PUSH0 DUP1 REVERT JUMPDEST PUSH1 0x20 DUP4 ADD SWAP2 POP DUP4 PUSH1 0x20 DUP3 DUP6 ADD ADD GT ISZERO PUSH2 0x158C JUMPI PUSH0 DUP1 REVERT JUMPDEST SWAP3 POP SWAP3 SWAP1 POP JUMP JUMPDEST PUSH0 DUP1 PUSH0 PUSH1 0x40 DUP5 DUP7 SUB SLT ISZERO PUSH2 0x15A5 JUMPI PUSH0 DUP1 REVERT JUMPDEST DUP4 CALLDATALOAD SWAP3 POP PUSH1 0x20 DUP5 ADD CALLDATALOAD PUSH8 0xFFFFFFFFFFFFFFFF DUP2 GT ISZERO PUSH2 0x15C2 JUMPI PUSH0 DUP1 REVERT JUMPDEST PUSH2 0x15CE DUP7 DUP3 DUP8 ADD PUSH2 0x154E JUMP JUMPDEST SWAP5 SWAP8 SWAP1 SWAP7 POP SWAP4 SWAP5 POP POP POP POP JUMP JUMPDEST PUSH0 DUP1 PUSH0 DUP1 PUSH0 DUP1 PUSH0 PUSH1 0xC0 DUP9 DUP11 SUB SLT ISZERO PUSH2 0x15F1 JUMPI PUSH0 DUP1 REVERT JUMPDEST PUSH2 0x15FA DUP9 PUSH2 0x14D9 JUMP JUMPDEST SWAP7 POP PUSH1 0x20 DUP9 ADD CALLDATALOAD SWAP6 POP PUSH1 0x40 DUP9 ADD CALLDATALOAD SWAP5 POP PUSH1 0x60 DUP9 ADD CALLDATALOAD PUSH1 0x8 DUP2 LT PUSH2 0x161B JUMPI PUSH0 DUP1 REVERT JUMPDEST SWAP4 POP PUSH1 0x80 DUP9 ADD CALLDATALOAD SWAP3 POP PUSH1 0xA0 DUP9 ADD CALLDATALOAD PUSH8 0xFFFFFFFFFFFFFFFF DUP2 GT ISZERO PUSH2 0x163D JUMPI PUSH0 DUP1 REVERT JUMPDEST PUSH2 0x1649 DUP11 DUP3 DUP12 ADD PUSH2 0x154E JUMP JUMPDEST SWAP9 SWAP12 SWAP8 SWAP11 POP SWAP6 SWAP9 POP SWAP4 SWAP7 SWAP3 SWAP6 SWAP3 SWAP4 POP POP POP JUMP JUMPDEST PUSH4 0x4E487B71 PUSH1 0xE0 SHL PUSH0 MSTORE PUSH1 0x21 PUSH1 0x4 MSTORE PUSH1 0x24 PUSH0 REVERT JUMPDEST PUSH1 0x8 DUP2 LT PUSH2 0x1680 JUMPI PUSH2 0x1680 PUSH2 0x165C JUMP JUMPDEST SWAP1 MSTORE JUMP JUMPDEST PUSH1 0x4 DUP2 LT PUSH2 0x1680 JUMPI PUSH2 0x1680 PUSH2 0x165C JUMP JUMPDEST PUSH0 PUSH2 0x160 PUSH1 0x1 DUP1 PUSH1 0xA0 SHL SUB DUP1 DUP16 AND DUP5 MSTORE PUSH1 0x20 DUP2 DUP16 AND PUSH1 0x20 DUP7 ADD MSTORE DUP14 PUSH1 0x40 DUP7 ADD MSTORE DUP13 PUSH1 0x60 DUP7 ADD MSTORE PUSH2 0x16C7 PUSH1 0x80 DUP7 ADD DUP14 PUSH2 0x1670 JUMP JUMPDEST DUP11 PUSH1 0xA0 DUP7 ADD MSTORE DUP10 PUSH1 0xC0 DUP7 ADD MSTORE DUP3 PUSH1 0xE0 DUP7 ADD MSTORE DUP9 MLOAD SWAP2 POP DUP2 DUP4 DUP7 ADD MSTORE PUSH0 SWAP3 POP JUMPDEST DUP2 DUP4 LT ISZERO PUSH2 0x1705 JUMPI DUP9 DUP4 ADD DUP2 ADD MLOAD DUP6 DUP5 ADD PUSH2 0x180 ADD MSTORE SWAP2 DUP3 ADD SWAP2 PUSH2 0x16E6 JUMP JUMPDEST POP PUSH2 0x180 SWAP2 POP PUSH0 DUP3 DUP3 DUP7 ADD ADD MSTORE DUP2 PUSH1 0x1F NOT PUSH1 0x1F DUP4 ADD AND DUP6 ADD ADD SWAP3 POP POP POP PUSH2 0x1739 PUSH2 0x100 DUP4 ADD DUP7 PUSH8 0xFFFFFFFFFFFFFFFF AND SWAP1 MSTORE JUMP JUMPDEST PUSH8 0xFFFFFFFFFFFFFFFF DUP5 AND PUSH2 0x120 DUP4 ADD MSTORE PUSH2 0x1758 PUSH2 0x140 DUP4 ADD DUP5 PUSH2 0x1684 JUMP JUMPDEST SWAP13 SWAP12 POP POP POP POP POP POP POP POP POP POP POP POP JUMP JUMPDEST PUSH0 DUP1 PUSH1 0x40 DUP4 DUP6 SUB SLT ISZERO PUSH2 0x1779 JUMPI PUSH0 DUP1 REVERT JUMPDEST POP POP DUP1 CALLDATALOAD SWAP3 PUSH1 0x20 SWAP1 SWAP2 ADD CALLDATALOAD SWAP2 POP JUMP JUMPDEST DUP2 DUP4 MSTORE DUP2 DUP2 PUSH1 0x20 DUP6 ADD CALLDATACOPY POP PUSH0 DUP3 DUP3 ADD PUSH1 0x20 SWAP1 DUP2 ADD SWAP2 SWAP1 SWAP2 MSTORE PUSH1 0x1F SWAP1 SWAP2 ADD PUSH1 0x1F NOT AND SWAP1 SWAP2 ADD ADD SWAP1 JUMP JUMPDEST PUSH1 0x20 DUP2 MSTORE PUSH0 PUSH2 0x17C3 PUSH1 0x20 DUP4 ADD DUP5 DUP7 PUSH2 0x1788 JUMP JUMPDEST SWAP5 SWAP4 POP POP POP POP JUMP JUMPDEST PUSH0 PUSH1 0x1 DUP3 ADD PUSH2 0x17E8 JUMPI PUSH4 0x4E487B71 PUSH1 0xE0 SHL PUSH0 MSTORE PUSH1 0x11 PUSH1 0x4 MSTORE PUSH1 0x24 PUSH0 REVERT JUMPDEST POP PUSH1 0x1 ADD SWAP1 JUMP JUMPDEST PUSH4 0x4E487B71 PUSH1 0xE0 SHL PUSH0 MSTORE PUSH1 0x41 PUSH1 0x4 MSTORE PUSH1 0x24 PUSH0 REVERT JUMPDEST PUSH1 0x1 DUP2 DUP2 SHR SWAP1 DUP3 AND DUP1 PUSH2 0x1817 JUMPI PUSH1 0x7F DUP3 AND SWAP2 POP JUMPDEST PUSH1 0x20 DUP3 LT DUP2 SUB PUSH2 0x1835 JUMPI PUSH4 0x4E487B71 PUSH1 0xE0 SHL PUSH0 MSTORE PUSH1 0x22 PUSH1 0x4 MSTORE PUSH1 0x24 PUSH0 REVERT JUMPDEST POP SWAP2 SWAP1 POP JUMP JUMPDEST PUSH1 0x1F DUP3 GT ISZERO PUSH2 0x466 JUMPI DUP1 PUSH0 MSTORE PUSH1 0x20 PUSH0 KECCAK256 PUSH1 0x1F DUP5 ADD PUSH1 0x5 SHR DUP2 ADD PUSH1 0x20 DUP6 LT ISZERO PUSH2 0x1860 JUMPI POP DUP1 JUMPDEST PUSH1 0x1F DUP5 ADD PUSH1 0x5 SHR DUP3 ADD SWAP2 POP JUMPDEST DUP2 DUP2 LT ISZERO PUSH2 0x187F JUMPI PUSH0 DUP2 SSTORE PUSH1 0x1 ADD PUSH2 0x186C JUMP JUMPDEST POP POP POP POP POP JUMP JUMPDEST DUP2 MLOAD PUSH8 0xFFFFFFFFFFFFFFFF DUP2 GT ISZERO PUSH2 0x18A0 JUMPI PUSH2 0x18A0 PUSH2 0x17EF JUMP JUMPDEST PUSH2 0x18B4 DUP2 PUSH2 0x18AE DUP5 SLOAD PUSH2 0x1803 JUMP JUMPDEST DUP5 PUSH2 0x183B JUMP JUMPDEST PUSH1 0x20 DUP1 PUSH1 0x1F DUP4 GT PUSH1 0x1 DUP2 EQ PUSH2 0x18E7 JUMPI PUSH0 DUP5 ISZERO PUSH2 0x18D0 JUMPI POP DUP6 DUP4 ADD MLOAD JUMPDEST PUSH0 NOT PUSH1 0x3 DUP7 SWAP1 SHL SHR NOT AND PUSH1 0x1 DUP6 SWAP1 SHL OR DUP6 SSTORE PUSH2 0x193E JUMP JUMPDEST PUSH0 DUP6 DUP2 MSTORE PUSH1 0x20 DUP2 KECCAK256 PUSH1 0x1F NOT DUP7 AND SWAP2 JUMPDEST DUP3 DUP2 LT ISZERO PUSH2 0x1915 JUMPI DUP9 DUP7 ADD MLOAD DUP3 SSTORE SWAP5 DUP5 ADD SWAP5 PUSH1 0x1 SWAP1 SWAP2 ADD SWAP1 DUP5 ADD PUSH2 0x18F6 JUMP JUMPDEST POP DUP6 DUP3 LT ISZERO PUSH2 0x1932 JUMPI DUP8 DUP6 ADD MLOAD PUSH0 NOT PUSH1 0x3 DUP9 SWAP1 SHL PUSH1 0xF8 AND SHR NOT AND DUP2 SSTORE JUMPDEST POP POP PUSH1 0x1 DUP5 PUSH1 0x1 SHL ADD DUP6 SSTORE JUMPDEST POP POP POP POP POP POP JUMP JUMPDEST DUP6 DUP2 MSTORE DUP5 PUSH1 0x20 DUP3 ADD MSTORE PUSH2 0x195C PUSH1 0x40 DUP3 ADD DUP6 PUSH2 0x1670 JUMP JUMPDEST PUSH1 0x80 PUSH1 0x60 DUP3 ADD MSTORE PUSH0 PUSH2 0xA52 PUSH1 0x80 DUP4 ADD DUP5 DUP7 PUSH2 0x1788 JUMP JUMPDEST PUSH0 PUSH1 0x20 DUP3 DUP5 SUB SLT ISZERO PUSH2 0x1982 JUMPI PUSH0 DUP1 REVERT JUMPDEST DUP2 MLOAD DUP1 ISZERO ISZERO DUP2 EQ PUSH2 0x14D2 JUMPI PUSH0 DUP1 REVERT INVALID PREVRANDAO 0x2A SWAP5 CALL LOG1 STATICCALL 0xC7 SWAP11 RETURN 0x28 JUMP 0xAF 0x2A PUSH5 0xF63648CFA2 0xEF EXTCODESIZE SWAP9 PUSH2 0xA5B 0xB7 0xCB 0xEC 0x4C 0xEE PUSH10 0x859B779B17422D0DF922 0x23 ADD DUP12 ORIGIN 0xB4 0xD1 STATICCALL CHAINID 0xE0 PUSH18 0x723D6817E2486D003BECC55F00A264697066 PUSH20 0x582212203AB7249C805F078DE95959F28230B706 CREATE PUSH8 0x94D3290837AF4378 SWAP6 PUSH3 0x37A4 DUP11 PUSH5 0x736F6C6343 STOP ADDMOD XOR STOP CALLER "},"methodIdentifiers":{"COMPLIANCE_ROLE()":"062d3bd7","DEFAULT_ADMIN_ROLE()":"a217fddf","EXECUTOR_ROLE()":"07bd0265","cancelPosition(uint256,string)":"78a4aadd","createPosition(address,uint256,bytes32,uint8,bytes32,string)":"7ef415a7","freezePosition(uint256,string)":"f1ec7e51","getRoleAdmin(bytes32)":"248a9ca3","grantRole(bytes32,address)":"2f2ff15d","hasRole(bytes32,address)":"91d14854","nextPositionId()":"899346c7","oracleGateway()":"c1810f66","pause()":"8456cb59","paused()":"5c975abb","positions(uint256)":"99fbab88","releasePosition(uint256,uint256)":"c9149478","renounceRole(bytes32,address)":"36568abe","revokeRole(bytes32,address)":"d547741f","setOracleGateway(address)":"1e2ed410","setTreasury(address)":"f0f44260","sglToken()":"62b24ea2","supportsInterface(bytes4)":"01ffc9a7","treasury()":"61d027b3","unfreezePosition(uint256)":"d07ee434","unpause()":"3f4ba83a"}}}}}