{"contracts/OracleGateway.sol":{"OracleGateway":{"abi":[{"inputs":[{"internalType":"address","name":"admin","type":"address"}],"stateMutability":"nonpayable","type":"constructor"},{"inputs":[],"name":"AccessControlBadConfirmation","type":"error"},{"inputs":[{"internalType":"address","name":"account","type":"address"},{"internalType":"bytes32","name":"neededRole","type":"bytes32"}],"name":"AccessControlUnauthorizedAccount","type":"error"},{"inputs":[],"name":"EnforcedPause","type":"error"},{"inputs":[],"name":"ExpectedPause","type":"error"},{"anonymous":false,"inputs":[{"indexed":true,"internalType":"uint256","name":"eventId","type":"uint256"},{"indexed":true,"internalType":"address","name":"operator","type":"address"},{"indexed":false,"internalType":"string","name":"reason","type":"string"}],"name":"EventInvalidated","type":"event"},{"anonymous":false,"inputs":[{"indexed":true,"internalType":"uint256","name":"eventId","type":"uint256"},{"indexed":true,"internalType":"enum OracleGateway.EventType","name":"eventType","type":"uint8"},{"indexed":true,"internalType":"bytes32","name":"subjectId","type":"bytes32"},{"indexed":false,"internalType":"bytes32","name":"dataHash","type":"bytes32"},{"indexed":false,"internalType":"address","name":"operator","type":"address"},{"indexed":false,"internalType":"string","name":"institutionCode","type":"string"}],"name":"OfficialEventRecorded","type":"event"},{"anonymous":false,"inputs":[{"indexed":false,"internalType":"address","name":"account","type":"address"}],"name":"Paused","type":"event"},{"anonymous":false,"inputs":[{"indexed":true,"internalType":"bytes32","name":"role","type":"bytes32"},{"indexed":true,"internalType":"bytes32","name":"previousAdminRole","type":"bytes32"},{"indexed":true,"internalType":"bytes32","name":"newAdminRole","type":"bytes32"}],"name":"RoleAdminChanged","type":"event"},{"anonymous":false,"inputs":[{"indexed":true,"internalType":"bytes32","name":"role","type":"bytes32"},{"indexed":true,"internalType":"address","name":"account","type":"address"},{"indexed":true,"internalType":"address","name":"sender","type":"address"}],"name":"RoleGranted","type":"event"},{"anonymous":false,"inputs":[{"indexed":true,"internalType":"bytes32","name":"role","type":"bytes32"},{"indexed":true,"internalType":"address","name":"account","type":"address"},{"indexed":true,"internalType":"address","name":"sender","type":"address"}],"name":"RoleRevoked","type":"event"},{"anonymous":false,"inputs":[{"indexed":false,"internalType":"address","name":"account","type":"address"}],"name":"Unpaused","type":"event"},{"anonymous":false,"inputs":[{"indexed":true,"internalType":"address","name":"oldRegistry","type":"address"},{"indexed":true,"internalType":"address","name":"newRegistry","type":"address"}],"name":"WhiteLabelRegistryUpdated","type":"event"},{"inputs":[],"name":"DEFAULT_ADMIN_ROLE","outputs":[{"internalType":"bytes32","name":"","type":"bytes32"}],"stateMutability":"view","type":"function"},{"inputs":[],"name":"ORACLE_OPERATOR_ROLE","outputs":[{"internalType":"bytes32","name":"","type":"bytes32"}],"stateMutability":"view","type":"function"},{"inputs":[],"name":"RELAYER_ROLE","outputs":[{"internalType":"bytes32","name":"","type":"bytes32"}],"stateMutability":"view","type":"function"},{"inputs":[],"name":"eventCount","outputs":[{"internalType":"uint256","name":"","type":"uint256"}],"stateMutability":"view","type":"function"},{"inputs":[{"internalType":"uint256","name":"","type":"uint256"}],"name":"events","outputs":[{"internalType":"enum OracleGateway.EventType","name":"eventType","type":"uint8"},{"internalType":"bytes32","name":"subjectId","type":"bytes32"},{"internalType":"bytes32","name":"dataHash","type":"bytes32"},{"internalType":"bytes32","name":"signatureHash","type":"bytes32"},{"internalType":"uint64","name":"recordedAt","type":"uint64"},{"internalType":"address","name":"operator","type":"address"},{"internalType":"bool","name":"isValid","type":"bool"},{"internalType":"string","name":"institutionCode","type":"string"}],"stateMutability":"view","type":"function"},{"inputs":[{"internalType":"bytes32","name":"role","type":"bytes32"}],"name":"getRoleAdmin","outputs":[{"internalType":"bytes32","name":"","type":"bytes32"}],"stateMutability":"view","type":"function"},{"inputs":[{"internalType":"bytes32","name":"subjectId","type":"bytes32"}],"name":"getSubjectEvents","outputs":[{"internalType":"uint256[]","name":"","type":"uint256[]"}],"stateMutability":"view","type":"function"},{"inputs":[{"internalType":"bytes32","name":"role","type":"bytes32"},{"internalType":"address","name":"account","type":"address"}],"name":"grantRole","outputs":[],"stateMutability":"nonpayable","type":"function"},{"inputs":[{"internalType":"bytes32","name":"role","type":"bytes32"},{"internalType":"address","name":"account","type":"address"}],"name":"hasRole","outputs":[{"internalType":"bool","name":"","type":"bool"}],"stateMutability":"view","type":"function"},{"inputs":[{"internalType":"bytes32","name":"subjectId","type":"bytes32"},{"internalType":"enum OracleGateway.EventType","name":"eventType","type":"uint8"}],"name":"hasValidEvent","outputs":[{"internalType":"bool","name":"","type":"bool"}],"stateMutability":"view","type":"function"},{"inputs":[{"internalType":"uint256","name":"eventId","type":"uint256"},{"internalType":"string","name":"reason","type":"string"}],"name":"invalidateEvent","outputs":[],"stateMutability":"nonpayable","type":"function"},{"inputs":[],"name":"pause","outputs":[],"stateMutability":"nonpayable","type":"function"},{"inputs":[],"name":"paused","outputs":[{"internalType":"bool","name":"","type":"bool"}],"stateMutability":"view","type":"function"},{"inputs":[{"internalType":"enum OracleGateway.EventType","name":"eventType","type":"uint8"},{"internalType":"bytes32","name":"subjectId","type":"bytes32"},{"internalType":"bytes32","name":"dataHash","type":"bytes32"},{"internalType":"bytes32","name":"signatureHash","type":"bytes32"},{"internalType":"string","name":"institutionCode","type":"string"}],"name":"recordEvent","outputs":[{"internalType":"uint256","name":"eventId","type":"uint256"}],"stateMutability":"nonpayable","type":"function"},{"inputs":[{"internalType":"bytes32","name":"role","type":"bytes32"},{"internalType":"address","name":"callerConfirmation","type":"address"}],"name":"renounceRole","outputs":[],"stateMutability":"nonpayable","type":"function"},{"inputs":[{"internalType":"bytes32","name":"role","type":"bytes32"},{"internalType":"address","name":"account","type":"address"}],"name":"revokeRole","outputs":[],"stateMutability":"nonpayable","type":"function"},{"inputs":[{"internalType":"address","name":"newRegistry","type":"address"}],"name":"setWhiteLabelRegistry","outputs":[],"stateMutability":"nonpayable","type":"function"},{"inputs":[{"internalType":"bytes4","name":"interfaceId","type":"bytes4"}],"name":"supportsInterface","outputs":[{"internalType":"bool","name":"","type":"bool"}],"stateMutability":"view","type":"function"},{"inputs":[],"name":"unpause","outputs":[],"stateMutability":"nonpayable","type":"function"},{"inputs":[],"name":"whiteLabelRegistry","outputs":[{"internalType":"address","name":"","type":"address"}],"stateMutability":"view","type":"function"}],"evm":{"bytecode":{"linkReferences":{},"object":"608060405234801562000010575f80fd5b506040516200156a3803806200156a8339810160408190526200003391620001a8565b6001600160a01b0381166200008e5760405162461bcd60e51b815260206004820152601560248201527f4f5241434c453a20696e76616c69642061646d696e0000000000000000000000604482015260640160405180910390fd5b6200009a5f82620000fc565b50620000c77ff9b712ed3cd0e90cdc9d1abac8fb677bf018af115fb294c768a96b48bd6922c582620000fc565b50620000f47fe2b7fb3b832174769106daebcfd6d1970523240dda11281102db9363b83b0dc482620000fc565b5050620001d7565b5f828152602081815260408083206001600160a01b038516845290915281205460ff166200019f575f838152602081815260408083206001600160a01b03861684529091529020805460ff19166001179055620001563390565b6001600160a01b0316826001600160a01b0316847f2f8788117e7eff1d82e926ec794901d17c78024a50270940304540a733656f0d60405160405180910390a4506001620001a2565b505f5b92915050565b5f60208284031215620001b9575f80fd5b81516001600160a01b0381168114620001d0575f80fd5b9392505050565b61138580620001e55f395ff3fe608060405234801561000f575f80fd5b5060043610610127575f3560e01c806371be2e4a116100a9578063aca057f21161006e578063aca057f214610284578063c7d88c64146102a4578063d547741f146102cf578063e18b09b2146102e2578063e444f2e0146102f5575f80fd5b806371be2e4a146102325780638456cb591461023b57806391d1485414610243578063926d7d7f14610256578063a217fddf1461027d575f80fd5b806336568abe116100ef57806336568abe146101e65780633f4ba83a146101f95780635c975abb146102015780635da377e31461020c5780636d9213a61461021f575f80fd5b806301ffc9a71461012b5780630b7914301461015357806311d11a5b1461017a578063248a9ca3146101af5780632f2ff15d146101d1575b5f80fd5b61013e610139366004610e51565b610308565b60405190151581526020015b60405180910390f35b610166610161366004610e7f565b61033e565b60405161014a989796959493929190610eaa565b6101a17ff9b712ed3cd0e90cdc9d1abac8fb677bf018af115fb294c768a96b48bd6922c581565b60405190815260200161014a565b6101a16101bd366004610e7f565b5f9081526020819052604090206001015490565b6101e46101df366004610f7c565b610427565b005b6101e46101f4366004610f7c565b610451565b6101e4610489565b60015460ff1661013e565b61013e61021a366004610fb4565b61049e565b6101a161022d36600461101a565b610548565b6101a160025481565b6101e461097d565b61013e610251366004610f7c565b61098f565b6101a17fe2b7fb3b832174769106daebcfd6d1970523240dda11281102db9363b83b0dc481565b6101a15f81565b610297610292366004610e7f565b6109b7565b60405161014a9190611086565b6003546102b7906001600160a01b031681565b6040516001600160a01b03909116815260200161014a565b6101e46102dd366004610f7c565b610a16565b6101e46102f03660046110c9565b610a3a565b6101e46103033660046110e2565b610a96565b5f6001600160e01b03198216637965db0b60e01b148061033857506301ffc9a760e01b6001600160e01b03198316145b92915050565b600460208190525f918252604090912080546001820154600283015460038401549484015460058501805460ff958616979496939567ffffffffffffffff8416946001600160a01b03600160401b86041694600160e01b90049091169290916103a69061112a565b80601f01602080910402602001604051908101604052809291908181526020018280546103d29061112a565b801561041d5780601f106103f45761010080835404028352916020019161041d565b820191905f5260205f20905b81548152906001019060200180831161040057829003601f168201915b5050505050905088565b5f8281526020819052604090206001015461044181610c3c565b61044b8383610c46565b50505050565b6001600160a01b038116331461047a5760405163334bd91960e11b815260040160405180910390fd5b6104848282610cd5565b505050565b5f61049381610c3c565b61049b610d3e565b50565b5f828152600560205260408120815b815481101561053e575f60045f8484815481106104cc576104cc611162565b905f5260205f20015481526020019081526020015f2090508460078111156104f6576104f6610e96565b815460ff16600781111561050c5761050c610e96565b14801561052457506004810154600160e01b900460ff165b156105355760019350505050610338565b506001016104ad565b505f949350505050565b5f610551610d90565b7ff9b712ed3cd0e90cdc9d1abac8fb677bf018af115fb294c768a96b48bd6922c561057b81610c3c565b866105cd5760405162461bcd60e51b815260206004820152601760248201527f4f5241434c453a20696e76616c6964207375626a65637400000000000000000060448201526064015b60405180910390fd5b8561061a5760405162461bcd60e51b815260206004820152601960248201527f4f5241434c453a20696e76616c6964206461746120686173680000000000000060448201526064016105c4565b846106675760405162461bcd60e51b815260206004820152601e60248201527f4f5241434c453a20696e76616c6964207369676e61747572652068617368000060448201526064016105c4565b826106b45760405162461bcd60e51b815260206004820152601960248201527f4f5241434c453a20656d70747920696e737469747574696f6e0000000000000060448201526064016105c4565b6003546001600160a01b0316156107955760035460405163c8902a2160e01b81526001600160a01b039091169063c8902a21906106f7908790879060040161119e565b602060405180830381865afa158015610712573d5f803e3d5ffd5b505050506040513d601f19601f8201168201806040525081019061073691906111b9565b6107955760405162461bcd60e51b815260206004820152602a60248201527f4f5241434c453a20696e737469747574696f6e206e6f742061637469766520696044820152696e20726567697374727960b01b60648201526084016105c4565b60028054905f6107a4836111d8565b9190505591506040518061010001604052808960078111156107c8576107c8610e96565b81526020018881526020018781526020018681526020014267ffffffffffffffff168152602001336001600160a01b0316815260200160011515815260200185858080601f0160208091040260200160405190810160405280939291908181526020018383808284375f9201829052509390945250508481526004602052604090208251815491925090829060ff1916600183600781111561086c5761086c610e96565b0217905550602082015160018201556040820151600282015560608201516003820155608082015160048201805460a085015160c08601511515600160e01b0260ff60e01b196001600160a01b03909216600160401b026001600160e01b031990931667ffffffffffffffff90951694909417919091171691909117905560e082015160058201906108fe908261125b565b5050505f878152600560209081526040822080546001810182559083529120018290558688600781111561093457610934610e96565b837f83149242cf16b9f68b6a0abfa0f530d3e5deea8ac7e9ba0aa1dc1e5becfe28528933898960405161096a949392919061131b565b60405180910390a4509695505050505050565b5f61098781610c3c565b61049b610db6565b5f918252602082815260408084206001600160a01b0393909316845291905290205460ff1690565b5f81815260056020908152604091829020805483518184028101840190945280845260609392830182828015610a0a57602002820191905f5260205f20905b8154815260200190600101908083116109f6575b50505050509050919050565b5f82815260208190526040902060010154610a3081610c3c565b61044b8383610cd5565b5f610a4481610c3c565b600380546001600160a01b038481166001600160a01b0319831681179093556040519116919082907f124e3896652f6e8e2067ec03f7b7a32e1bd4d2dacc895c941c133225523b39c8905f90a3505050565b7ff9b712ed3cd0e90cdc9d1abac8fb677bf018af115fb294c768a96b48bd6922c5610ac081610c3c565b5f848152600460208190526040909120015467ffffffffffffffff16610b285760405162461bcd60e51b815260206004820152601760248201527f4f5241434c453a206576656e74206e6f7420666f756e6400000000000000000060448201526064016105c4565b5f8481526004602081905260409091200154600160e01b900460ff16610b905760405162461bcd60e51b815260206004820152601760248201527f4f5241434c453a20616c726561647920696e76616c696400000000000000000060448201526064016105c4565b81610bdd5760405162461bcd60e51b815260206004820152601760248201527f4f5241434c453a20726561736f6e20726571756972656400000000000000000060448201526064016105c4565b5f8481526004602081905260409182902001805460ff60e01b1916905551339085907f75af023d7ae0ef601fe146fc322dabe296abd50431cb6fb29a2192696ece0f0a90610c2e908790879061119e565b60405180910390a350505050565b61049b8133610df1565b5f610c51838361098f565b610cce575f838152602081815260408083206001600160a01b03861684529091529020805460ff19166001179055610c863390565b6001600160a01b0316826001600160a01b0316847f2f8788117e7eff1d82e926ec794901d17c78024a50270940304540a733656f0d60405160405180910390a4506001610338565b505f610338565b5f610ce0838361098f565b15610cce575f838152602081815260408083206001600160a01b0386168085529252808320805460ff1916905551339286917ff6391f5c32d9c69d2a47ea670b442974b53935d1edc7fd64eb21e047a839171b9190a4506001610338565b610d46610e2e565b6001805460ff191690557f5db9ee0a495bf2e6ff9c91a7834c1ba4fdd244a5e8aa4e537bd38aeae4b073aa335b6040516001600160a01b03909116815260200160405180910390a1565b60015460ff1615610db45760405163d93c066560e01b815260040160405180910390fd5b565b610dbe610d90565b6001805460ff1916811790557f62e78cea01bee320cd4e420270b5ea74000d11b0c9f74754ebdbfc544b05a25833610d73565b610dfb828261098f565b610e2a5760405163e2517d3f60e01b81526001600160a01b0382166004820152602481018390526044016105c4565b5050565b60015460ff16610db457604051638dfc202b60e01b815260040160405180910390fd5b5f60208284031215610e61575f80fd5b81356001600160e01b031981168114610e78575f80fd5b9392505050565b5f60208284031215610e8f575f80fd5b5035919050565b634e487b7160e01b5f52602160045260245ffd5b5f61010060088b10610eca57634e487b7160e01b5f52602160045260245ffd5b8a835260208a602085015289604085015288606085015267ffffffffffffffff8816608085015260018060a01b03871660a085015285151560c08501528160e0850152845180838601525f92505b80831015610f3757858301820151858401610120015291810191610f18565b61012092505f83828701015282601f19601f83011686010193505050509998505050505050505050565b80356001600160a01b0381168114610f77575f80fd5b919050565b5f8060408385031215610f8d575f80fd5b82359150610f9d60208401610f61565b90509250929050565b803560088110610f77575f80fd5b5f8060408385031215610fc5575f80fd5b82359150610f9d60208401610fa6565b5f8083601f840112610fe5575f80fd5b50813567ffffffffffffffff811115610ffc575f80fd5b602083019150836020828501011115611013575f80fd5b9250929050565b5f805f805f8060a0878903121561102f575f80fd5b61103887610fa6565b9550602087013594506040870135935060608701359250608087013567ffffffffffffffff811115611068575f80fd5b61107489828a01610fd5565b979a9699509497509295939492505050565b602080825282518282018190525f9190848201906040850190845b818110156110bd578351835292840192918401916001016110a1565b50909695505050505050565b5f602082840312156110d9575f80fd5b610e7882610f61565b5f805f604084860312156110f4575f80fd5b83359250602084013567ffffffffffffffff811115611111575f80fd5b61111d86828701610fd5565b9497909650939450505050565b600181811c9082168061113e57607f821691505b60208210810361115c57634e487b7160e01b5f52602260045260245ffd5b50919050565b634e487b7160e01b5f52603260045260245ffd5b81835281816020850137505f828201602090810191909152601f909101601f19169091010190565b602081525f6111b1602083018486611176565b949350505050565b5f602082840312156111c9575f80fd5b81518015158114610e78575f80fd5b5f600182016111f557634e487b7160e01b5f52601160045260245ffd5b5060010190565b634e487b7160e01b5f52604160045260245ffd5b601f82111561048457805f5260205f20601f840160051c810160208510156112355750805b601f840160051c820191505b81811015611254575f8155600101611241565b5050505050565b815167ffffffffffffffff811115611275576112756111fc565b61128981611283845461112a565b84611210565b602080601f8311600181146112bc575f84156112a55750858301515b5f19600386901b1c1916600185901b178555611313565b5f85815260208120601f198616915b828110156112ea578886015182559484019460019091019084016112cb565b508582101561130757878501515f19600388901b60f8161c191681555b505060018460011b0185555b505050505050565b8481526001600160a01b03841660208201526060604082018190525f906113459083018486611176565b969550505050505056fea2646970667358221220239a1c67c1cea3c69798eafaaadbb0cfd92d6ced33719aea53adc5b074b2cbe564736f6c63430008180033","opcodes":"PUSH1 0x80 PUSH1 0x40 MSTORE CALLVALUE DUP1 ISZERO PUSH3 0x10 JUMPI PUSH0 DUP1 REVERT JUMPDEST POP PUSH1 0x40 MLOAD PUSH3 0x156A CODESIZE SUB DUP1 PUSH3 0x156A DUP4 CODECOPY DUP2 ADD PUSH1 0x40 DUP2 SWAP1 MSTORE PUSH3 0x33 SWAP2 PUSH3 0x1A8 JUMP JUMPDEST PUSH1 0x1 PUSH1 0x1 PUSH1 0xA0 SHL SUB DUP2 AND PUSH3 0x8E JUMPI PUSH1 0x40 MLOAD PUSH3 0x461BCD PUSH1 0xE5 SHL DUP2 MSTORE PUSH1 0x20 PUSH1 0x4 DUP3 ADD MSTORE PUSH1 0x15 PUSH1 0x24 DUP3 ADD MSTORE PUSH32 0x4F5241434C453A20696E76616C69642061646D696E0000000000000000000000 PUSH1 0x44 DUP3 ADD MSTORE PUSH1 0x64 ADD PUSH1 0x40 MLOAD DUP1 SWAP2 SUB SWAP1 REVERT JUMPDEST PUSH3 0x9A PUSH0 DUP3 PUSH3 0xFC JUMP JUMPDEST POP PUSH3 0xC7 PUSH32 0xF9B712ED3CD0E90CDC9D1ABAC8FB677BF018AF115FB294C768A96B48BD6922C5 DUP3 PUSH3 0xFC JUMP JUMPDEST POP PUSH3 0xF4 PUSH32 0xE2B7FB3B832174769106DAEBCFD6D1970523240DDA11281102DB9363B83B0DC4 DUP3 PUSH3 0xFC JUMP JUMPDEST POP POP PUSH3 0x1D7 JUMP JUMPDEST PUSH0 DUP3 DUP2 MSTORE PUSH1 0x20 DUP2 DUP2 MSTORE PUSH1 0x40 DUP1 DUP4 KECCAK256 PUSH1 0x1 PUSH1 0x1 PUSH1 0xA0 SHL SUB DUP6 AND DUP5 MSTORE SWAP1 SWAP2 MSTORE DUP2 KECCAK256 SLOAD PUSH1 0xFF AND PUSH3 0x19F JUMPI PUSH0 DUP4 DUP2 MSTORE PUSH1 0x20 DUP2 DUP2 MSTORE PUSH1 0x40 DUP1 DUP4 KECCAK256 PUSH1 0x1 PUSH1 0x1 PUSH1 0xA0 SHL SUB DUP7 AND DUP5 MSTORE SWAP1 SWAP2 MSTORE SWAP1 KECCAK256 DUP1 SLOAD PUSH1 0xFF NOT AND PUSH1 0x1 OR SWAP1 SSTORE PUSH3 0x156 CALLER SWAP1 JUMP JUMPDEST PUSH1 0x1 PUSH1 0x1 PUSH1 0xA0 SHL SUB AND DUP3 PUSH1 0x1 PUSH1 0x1 PUSH1 0xA0 SHL SUB AND DUP5 PUSH32 0x2F8788117E7EFF1D82E926EC794901D17C78024A50270940304540A733656F0D PUSH1 0x40 MLOAD PUSH1 0x40 MLOAD DUP1 SWAP2 SUB SWAP1 LOG4 POP PUSH1 0x1 PUSH3 0x1A2 JUMP JUMPDEST POP PUSH0 JUMPDEST SWAP3 SWAP2 POP POP JUMP JUMPDEST PUSH0 PUSH1 0x20 DUP3 DUP5 SUB SLT ISZERO PUSH3 0x1B9 JUMPI PUSH0 DUP1 REVERT JUMPDEST DUP2 MLOAD PUSH1 0x1 PUSH1 0x1 PUSH1 0xA0 SHL SUB DUP2 AND DUP2 EQ PUSH3 0x1D0 JUMPI PUSH0 DUP1 REVERT JUMPDEST SWAP4 SWAP3 POP POP POP JUMP JUMPDEST PUSH2 0x1385 DUP1 PUSH3 0x1E5 PUSH0 CODECOPY PUSH0 RETURN INVALID PUSH1 0x80 PUSH1 0x40 MSTORE CALLVALUE DUP1 ISZERO PUSH2 0xF JUMPI PUSH0 DUP1 REVERT JUMPDEST POP PUSH1 0x4 CALLDATASIZE LT PUSH2 0x127 JUMPI PUSH0 CALLDATALOAD PUSH1 0xE0 SHR DUP1 PUSH4 0x71BE2E4A GT PUSH2 0xA9 JUMPI DUP1 PUSH4 0xACA057F2 GT PUSH2 0x6E JUMPI DUP1 PUSH4 0xACA057F2 EQ PUSH2 0x284 JUMPI DUP1 PUSH4 0xC7D88C64 EQ PUSH2 0x2A4 JUMPI DUP1 PUSH4 0xD547741F EQ PUSH2 0x2CF JUMPI DUP1 PUSH4 0xE18B09B2 EQ PUSH2 0x2E2 JUMPI DUP1 PUSH4 0xE444F2E0 EQ PUSH2 0x2F5 JUMPI PUSH0 DUP1 REVERT JUMPDEST DUP1 PUSH4 0x71BE2E4A EQ PUSH2 0x232 JUMPI DUP1 PUSH4 0x8456CB59 EQ PUSH2 0x23B JUMPI DUP1 PUSH4 0x91D14854 EQ PUSH2 0x243 JUMPI DUP1 PUSH4 0x926D7D7F EQ PUSH2 0x256 JUMPI DUP1 PUSH4 0xA217FDDF EQ PUSH2 0x27D JUMPI PUSH0 DUP1 REVERT JUMPDEST DUP1 PUSH4 0x36568ABE GT PUSH2 0xEF JUMPI DUP1 PUSH4 0x36568ABE EQ PUSH2 0x1E6 JUMPI DUP1 PUSH4 0x3F4BA83A EQ PUSH2 0x1F9 JUMPI DUP1 PUSH4 0x5C975ABB EQ PUSH2 0x201 JUMPI DUP1 PUSH4 0x5DA377E3 EQ PUSH2 0x20C JUMPI DUP1 PUSH4 0x6D9213A6 EQ PUSH2 0x21F JUMPI PUSH0 DUP1 REVERT JUMPDEST DUP1 PUSH4 0x1FFC9A7 EQ PUSH2 0x12B JUMPI DUP1 PUSH4 0xB791430 EQ PUSH2 0x153 JUMPI DUP1 PUSH4 0x11D11A5B EQ PUSH2 0x17A JUMPI DUP1 PUSH4 0x248A9CA3 EQ PUSH2 0x1AF JUMPI DUP1 PUSH4 0x2F2FF15D EQ PUSH2 0x1D1 JUMPI JUMPDEST PUSH0 DUP1 REVERT JUMPDEST PUSH2 0x13E PUSH2 0x139 CALLDATASIZE PUSH1 0x4 PUSH2 0xE51 JUMP JUMPDEST PUSH2 0x308 JUMP JUMPDEST PUSH1 0x40 MLOAD SWAP1 ISZERO ISZERO DUP2 MSTORE PUSH1 0x20 ADD JUMPDEST PUSH1 0x40 MLOAD DUP1 SWAP2 SUB SWAP1 RETURN JUMPDEST PUSH2 0x166 PUSH2 0x161 CALLDATASIZE PUSH1 0x4 PUSH2 0xE7F JUMP JUMPDEST PUSH2 0x33E JUMP JUMPDEST PUSH1 0x40 MLOAD PUSH2 0x14A SWAP9 SWAP8 SWAP7 SWAP6 SWAP5 SWAP4 SWAP3 SWAP2 SWAP1 PUSH2 0xEAA JUMP JUMPDEST PUSH2 0x1A1 PUSH32 0xF9B712ED3CD0E90CDC9D1ABAC8FB677BF018AF115FB294C768A96B48BD6922C5 DUP2 JUMP JUMPDEST PUSH1 0x40 MLOAD SWAP1 DUP2 MSTORE PUSH1 0x20 ADD PUSH2 0x14A JUMP JUMPDEST PUSH2 0x1A1 PUSH2 0x1BD CALLDATASIZE PUSH1 0x4 PUSH2 0xE7F JUMP JUMPDEST PUSH0 SWAP1 DUP2 MSTORE PUSH1 0x20 DUP2 SWAP1 MSTORE PUSH1 0x40 SWAP1 KECCAK256 PUSH1 0x1 ADD SLOAD SWAP1 JUMP JUMPDEST PUSH2 0x1E4 PUSH2 0x1DF CALLDATASIZE PUSH1 0x4 PUSH2 0xF7C JUMP JUMPDEST PUSH2 0x427 JUMP JUMPDEST STOP JUMPDEST PUSH2 0x1E4 PUSH2 0x1F4 CALLDATASIZE PUSH1 0x4 PUSH2 0xF7C JUMP JUMPDEST PUSH2 0x451 JUMP JUMPDEST PUSH2 0x1E4 PUSH2 0x489 JUMP JUMPDEST PUSH1 0x1 SLOAD PUSH1 0xFF AND PUSH2 0x13E JUMP JUMPDEST PUSH2 0x13E PUSH2 0x21A CALLDATASIZE PUSH1 0x4 PUSH2 0xFB4 JUMP JUMPDEST PUSH2 0x49E JUMP JUMPDEST PUSH2 0x1A1 PUSH2 0x22D CALLDATASIZE PUSH1 0x4 PUSH2 0x101A JUMP JUMPDEST PUSH2 0x548 JUMP JUMPDEST PUSH2 0x1A1 PUSH1 0x2 SLOAD DUP2 JUMP JUMPDEST PUSH2 0x1E4 PUSH2 0x97D JUMP JUMPDEST PUSH2 0x13E PUSH2 0x251 CALLDATASIZE PUSH1 0x4 PUSH2 0xF7C JUMP JUMPDEST PUSH2 0x98F JUMP JUMPDEST PUSH2 0x1A1 PUSH32 0xE2B7FB3B832174769106DAEBCFD6D1970523240DDA11281102DB9363B83B0DC4 DUP2 JUMP JUMPDEST PUSH2 0x1A1 PUSH0 DUP2 JUMP JUMPDEST PUSH2 0x297 PUSH2 0x292 CALLDATASIZE PUSH1 0x4 PUSH2 0xE7F JUMP JUMPDEST PUSH2 0x9B7 JUMP JUMPDEST PUSH1 0x40 MLOAD PUSH2 0x14A SWAP2 SWAP1 PUSH2 0x1086 JUMP JUMPDEST PUSH1 0x3 SLOAD PUSH2 0x2B7 SWAP1 PUSH1 0x1 PUSH1 0x1 PUSH1 0xA0 SHL SUB AND DUP2 JUMP JUMPDEST PUSH1 0x40 MLOAD PUSH1 0x1 PUSH1 0x1 PUSH1 0xA0 SHL SUB SWAP1 SWAP2 AND DUP2 MSTORE PUSH1 0x20 ADD PUSH2 0x14A JUMP JUMPDEST PUSH2 0x1E4 PUSH2 0x2DD CALLDATASIZE PUSH1 0x4 PUSH2 0xF7C JUMP JUMPDEST PUSH2 0xA16 JUMP JUMPDEST PUSH2 0x1E4 PUSH2 0x2F0 CALLDATASIZE PUSH1 0x4 PUSH2 0x10C9 JUMP JUMPDEST PUSH2 0xA3A JUMP JUMPDEST PUSH2 0x1E4 PUSH2 0x303 CALLDATASIZE PUSH1 0x4 PUSH2 0x10E2 JUMP JUMPDEST PUSH2 0xA96 JUMP JUMPDEST PUSH0 PUSH1 0x1 PUSH1 0x1 PUSH1 0xE0 SHL SUB NOT DUP3 AND PUSH4 0x7965DB0B PUSH1 0xE0 SHL EQ DUP1 PUSH2 0x338 JUMPI POP PUSH4 0x1FFC9A7 PUSH1 0xE0 SHL PUSH1 0x1 PUSH1 0x1 PUSH1 0xE0 SHL SUB NOT DUP4 AND EQ JUMPDEST SWAP3 SWAP2 POP POP JUMP JUMPDEST PUSH1 0x4 PUSH1 0x20 DUP2 SWAP1 MSTORE PUSH0 SWAP2 DUP3 MSTORE PUSH1 0x40 SWAP1 SWAP2 KECCAK256 DUP1 SLOAD PUSH1 0x1 DUP3 ADD SLOAD PUSH1 0x2 DUP4 ADD SLOAD PUSH1 0x3 DUP5 ADD SLOAD SWAP5 DUP5 ADD SLOAD PUSH1 0x5 DUP6 ADD DUP1 SLOAD PUSH1 0xFF SWAP6 DUP7 AND SWAP8 SWAP5 SWAP7 SWAP4 SWAP6 PUSH8 0xFFFFFFFFFFFFFFFF DUP5 AND SWAP5 PUSH1 0x1 PUSH1 0x1 PUSH1 0xA0 SHL SUB PUSH1 0x1 PUSH1 0x40 SHL DUP7 DIV AND SWAP5 PUSH1 0x1 PUSH1 0xE0 SHL SWAP1 DIV SWAP1 SWAP2 AND SWAP3 SWAP1 SWAP2 PUSH2 0x3A6 SWAP1 PUSH2 0x112A JUMP JUMPDEST DUP1 PUSH1 0x1F ADD PUSH1 0x20 DUP1 SWAP2 DIV MUL PUSH1 0x20 ADD PUSH1 0x40 MLOAD SWAP1 DUP2 ADD PUSH1 0x40 MSTORE DUP1 SWAP3 SWAP2 SWAP1 DUP2 DUP2 MSTORE PUSH1 0x20 ADD DUP3 DUP1 SLOAD PUSH2 0x3D2 SWAP1 PUSH2 0x112A JUMP JUMPDEST DUP1 ISZERO PUSH2 0x41D JUMPI DUP1 PUSH1 0x1F LT PUSH2 0x3F4 JUMPI PUSH2 0x100 DUP1 DUP4 SLOAD DIV MUL DUP4 MSTORE SWAP2 PUSH1 0x20 ADD SWAP2 PUSH2 0x41D JUMP JUMPDEST DUP3 ADD SWAP2 SWAP1 PUSH0 MSTORE PUSH1 0x20 PUSH0 KECCAK256 SWAP1 JUMPDEST DUP2 SLOAD DUP2 MSTORE SWAP1 PUSH1 0x1 ADD SWAP1 PUSH1 0x20 ADD DUP1 DUP4 GT PUSH2 0x400 JUMPI DUP3 SWAP1 SUB PUSH1 0x1F AND DUP3 ADD SWAP2 JUMPDEST POP POP POP POP POP SWAP1 POP DUP9 JUMP JUMPDEST PUSH0 DUP3 DUP2 MSTORE PUSH1 0x20 DUP2 SWAP1 MSTORE PUSH1 0x40 SWAP1 KECCAK256 PUSH1 0x1 ADD SLOAD PUSH2 0x441 DUP2 PUSH2 0xC3C JUMP JUMPDEST PUSH2 0x44B DUP4 DUP4 PUSH2 0xC46 JUMP JUMPDEST POP POP POP POP JUMP JUMPDEST PUSH1 0x1 PUSH1 0x1 PUSH1 0xA0 SHL SUB DUP2 AND CALLER EQ PUSH2 0x47A JUMPI PUSH1 0x40 MLOAD PUSH4 0x334BD919 PUSH1 0xE1 SHL DUP2 MSTORE PUSH1 0x4 ADD PUSH1 0x40 MLOAD DUP1 SWAP2 SUB SWAP1 REVERT JUMPDEST PUSH2 0x484 DUP3 DUP3 PUSH2 0xCD5 JUMP JUMPDEST POP POP POP JUMP JUMPDEST PUSH0 PUSH2 0x493 DUP2 PUSH2 0xC3C JUMP JUMPDEST PUSH2 0x49B PUSH2 0xD3E JUMP JUMPDEST POP JUMP JUMPDEST PUSH0 DUP3 DUP2 MSTORE PUSH1 0x5 PUSH1 0x20 MSTORE PUSH1 0x40 DUP2 KECCAK256 DUP2 JUMPDEST DUP2 SLOAD DUP2 LT ISZERO PUSH2 0x53E JUMPI PUSH0 PUSH1 0x4 PUSH0 DUP5 DUP5 DUP2 SLOAD DUP2 LT PUSH2 0x4CC JUMPI PUSH2 0x4CC PUSH2 0x1162 JUMP JUMPDEST SWAP1 PUSH0 MSTORE PUSH1 0x20 PUSH0 KECCAK256 ADD SLOAD DUP2 MSTORE PUSH1 0x20 ADD SWAP1 DUP2 MSTORE PUSH1 0x20 ADD PUSH0 KECCAK256 SWAP1 POP DUP5 PUSH1 0x7 DUP2 GT ISZERO PUSH2 0x4F6 JUMPI PUSH2 0x4F6 PUSH2 0xE96 JUMP JUMPDEST DUP2 SLOAD PUSH1 0xFF AND PUSH1 0x7 DUP2 GT ISZERO PUSH2 0x50C JUMPI PUSH2 0x50C PUSH2 0xE96 JUMP JUMPDEST EQ DUP1 ISZERO PUSH2 0x524 JUMPI POP PUSH1 0x4 DUP2 ADD SLOAD PUSH1 0x1 PUSH1 0xE0 SHL SWAP1 DIV PUSH1 0xFF AND JUMPDEST ISZERO PUSH2 0x535 JUMPI PUSH1 0x1 SWAP4 POP POP POP POP PUSH2 0x338 JUMP JUMPDEST POP PUSH1 0x1 ADD PUSH2 0x4AD JUMP JUMPDEST POP PUSH0 SWAP5 SWAP4 POP POP POP POP JUMP JUMPDEST PUSH0 PUSH2 0x551 PUSH2 0xD90 JUMP JUMPDEST PUSH32 0xF9B712ED3CD0E90CDC9D1ABAC8FB677BF018AF115FB294C768A96B48BD6922C5 PUSH2 0x57B DUP2 PUSH2 0xC3C JUMP JUMPDEST DUP7 PUSH2 0x5CD JUMPI PUSH1 0x40 MLOAD PUSH3 0x461BCD PUSH1 0xE5 SHL DUP2 MSTORE PUSH1 0x20 PUSH1 0x4 DUP3 ADD MSTORE PUSH1 0x17 PUSH1 0x24 DUP3 ADD MSTORE PUSH32 0x4F5241434C453A20696E76616C6964207375626A656374000000000000000000 PUSH1 0x44 DUP3 ADD MSTORE PUSH1 0x64 ADD JUMPDEST PUSH1 0x40 MLOAD DUP1 SWAP2 SUB SWAP1 REVERT JUMPDEST DUP6 PUSH2 0x61A JUMPI PUSH1 0x40 MLOAD PUSH3 0x461BCD PUSH1 0xE5 SHL DUP2 MSTORE PUSH1 0x20 PUSH1 0x4 DUP3 ADD MSTORE PUSH1 0x19 PUSH1 0x24 DUP3 ADD MSTORE PUSH32 0x4F5241434C453A20696E76616C69642064617461206861736800000000000000 PUSH1 0x44 DUP3 ADD MSTORE PUSH1 0x64 ADD PUSH2 0x5C4 JUMP JUMPDEST DUP5 PUSH2 0x667 JUMPI PUSH1 0x40 MLOAD PUSH3 0x461BCD PUSH1 0xE5 SHL DUP2 MSTORE PUSH1 0x20 PUSH1 0x4 DUP3 ADD MSTORE PUSH1 0x1E PUSH1 0x24 DUP3 ADD MSTORE PUSH32 0x4F5241434C453A20696E76616C6964207369676E617475726520686173680000 PUSH1 0x44 DUP3 ADD MSTORE PUSH1 0x64 ADD PUSH2 0x5C4 JUMP JUMPDEST DUP3 PUSH2 0x6B4 JUMPI PUSH1 0x40 MLOAD PUSH3 0x461BCD PUSH1 0xE5 SHL DUP2 MSTORE PUSH1 0x20 PUSH1 0x4 DUP3 ADD MSTORE PUSH1 0x19 PUSH1 0x24 DUP3 ADD MSTORE PUSH32 0x4F5241434C453A20656D70747920696E737469747574696F6E00000000000000 PUSH1 0x44 DUP3 ADD MSTORE PUSH1 0x64 ADD PUSH2 0x5C4 JUMP JUMPDEST PUSH1 0x3 SLOAD PUSH1 0x1 PUSH1 0x1 PUSH1 0xA0 SHL SUB AND ISZERO PUSH2 0x795 JUMPI PUSH1 0x3 SLOAD PUSH1 0x40 MLOAD PUSH4 0xC8902A21 PUSH1 0xE0 SHL DUP2 MSTORE PUSH1 0x1 PUSH1 0x1 PUSH1 0xA0 SHL SUB SWAP1 SWAP2 AND SWAP1 PUSH4 0xC8902A21 SWAP1 PUSH2 0x6F7 SWAP1 DUP8 SWAP1 DUP8 SWAP1 PUSH1 0x4 ADD PUSH2 0x119E JUMP JUMPDEST PUSH1 0x20 PUSH1 0x40 MLOAD DUP1 DUP4 SUB DUP2 DUP7 GAS STATICCALL ISZERO DUP1 ISZERO PUSH2 0x712 JUMPI RETURNDATASIZE PUSH0 DUP1 RETURNDATACOPY RETURNDATASIZE PUSH0 REVERT JUMPDEST POP POP POP POP PUSH1 0x40 MLOAD RETURNDATASIZE PUSH1 0x1F NOT PUSH1 0x1F DUP3 ADD AND DUP3 ADD DUP1 PUSH1 0x40 MSTORE POP DUP2 ADD SWAP1 PUSH2 0x736 SWAP2 SWAP1 PUSH2 0x11B9 JUMP JUMPDEST PUSH2 0x795 JUMPI PUSH1 0x40 MLOAD PUSH3 0x461BCD PUSH1 0xE5 SHL DUP2 MSTORE PUSH1 0x20 PUSH1 0x4 DUP3 ADD MSTORE PUSH1 0x2A PUSH1 0x24 DUP3 ADD MSTORE PUSH32 0x4F5241434C453A20696E737469747574696F6E206E6F74206163746976652069 PUSH1 0x44 DUP3 ADD MSTORE PUSH10 0x6E207265676973747279 PUSH1 0xB0 SHL PUSH1 0x64 DUP3 ADD MSTORE PUSH1 0x84 ADD PUSH2 0x5C4 JUMP JUMPDEST PUSH1 0x2 DUP1 SLOAD SWAP1 PUSH0 PUSH2 0x7A4 DUP4 PUSH2 0x11D8 JUMP JUMPDEST SWAP2 SWAP1 POP SSTORE SWAP2 POP PUSH1 0x40 MLOAD DUP1 PUSH2 0x100 ADD PUSH1 0x40 MSTORE DUP1 DUP10 PUSH1 0x7 DUP2 GT ISZERO PUSH2 0x7C8 JUMPI PUSH2 0x7C8 PUSH2 0xE96 JUMP JUMPDEST DUP2 MSTORE PUSH1 0x20 ADD DUP9 DUP2 MSTORE PUSH1 0x20 ADD DUP8 DUP2 MSTORE PUSH1 0x20 ADD DUP7 DUP2 MSTORE PUSH1 0x20 ADD TIMESTAMP PUSH8 0xFFFFFFFFFFFFFFFF AND DUP2 MSTORE PUSH1 0x20 ADD CALLER PUSH1 0x1 PUSH1 0x1 PUSH1 0xA0 SHL SUB AND DUP2 MSTORE PUSH1 0x20 ADD PUSH1 0x1 ISZERO ISZERO DUP2 MSTORE PUSH1 0x20 ADD DUP6 DUP6 DUP1 DUP1 PUSH1 0x1F ADD PUSH1 0x20 DUP1 SWAP2 DIV MUL PUSH1 0x20 ADD PUSH1 0x40 MLOAD SWAP1 DUP2 ADD PUSH1 0x40 MSTORE DUP1 SWAP4 SWAP3 SWAP2 SWAP1 DUP2 DUP2 MSTORE PUSH1 0x20 ADD DUP4 DUP4 DUP1 DUP3 DUP5 CALLDATACOPY PUSH0 SWAP3 ADD DUP3 SWAP1 MSTORE POP SWAP4 SWAP1 SWAP5 MSTORE POP POP DUP5 DUP2 MSTORE PUSH1 0x4 PUSH1 0x20 MSTORE PUSH1 0x40 SWAP1 KECCAK256 DUP3 MLOAD DUP2 SLOAD SWAP2 SWAP3 POP SWAP1 DUP3 SWAP1 PUSH1 0xFF NOT AND PUSH1 0x1 DUP4 PUSH1 0x7 DUP2 GT ISZERO PUSH2 0x86C JUMPI PUSH2 0x86C PUSH2 0xE96 JUMP JUMPDEST MUL OR SWAP1 SSTORE POP PUSH1 0x20 DUP3 ADD MLOAD PUSH1 0x1 DUP3 ADD SSTORE PUSH1 0x40 DUP3 ADD MLOAD PUSH1 0x2 DUP3 ADD SSTORE PUSH1 0x60 DUP3 ADD MLOAD PUSH1 0x3 DUP3 ADD SSTORE PUSH1 0x80 DUP3 ADD MLOAD PUSH1 0x4 DUP3 ADD DUP1 SLOAD PUSH1 0xA0 DUP6 ADD MLOAD PUSH1 0xC0 DUP7 ADD MLOAD ISZERO ISZERO PUSH1 0x1 PUSH1 0xE0 SHL MUL PUSH1 0xFF PUSH1 0xE0 SHL NOT PUSH1 0x1 PUSH1 0x1 PUSH1 0xA0 SHL SUB SWAP1 SWAP3 AND PUSH1 0x1 PUSH1 0x40 SHL MUL PUSH1 0x1 PUSH1 0x1 PUSH1 0xE0 SHL SUB NOT SWAP1 SWAP4 AND PUSH8 0xFFFFFFFFFFFFFFFF SWAP1 SWAP6 AND SWAP5 SWAP1 SWAP5 OR SWAP2 SWAP1 SWAP2 OR AND SWAP2 SWAP1 SWAP2 OR SWAP1 SSTORE PUSH1 0xE0 DUP3 ADD MLOAD PUSH1 0x5 DUP3 ADD SWAP1 PUSH2 0x8FE SWAP1 DUP3 PUSH2 0x125B JUMP JUMPDEST POP POP POP PUSH0 DUP8 DUP2 MSTORE PUSH1 0x5 PUSH1 0x20 SWAP1 DUP2 MSTORE PUSH1 0x40 DUP3 KECCAK256 DUP1 SLOAD PUSH1 0x1 DUP2 ADD DUP3 SSTORE SWAP1 DUP4 MSTORE SWAP2 KECCAK256 ADD DUP3 SWAP1 SSTORE DUP7 DUP9 PUSH1 0x7 DUP2 GT ISZERO PUSH2 0x934 JUMPI PUSH2 0x934 PUSH2 0xE96 JUMP JUMPDEST DUP4 PUSH32 0x83149242CF16B9F68B6A0ABFA0F530D3E5DEEA8AC7E9BA0AA1DC1E5BECFE2852 DUP10 CALLER DUP10 DUP10 PUSH1 0x40 MLOAD PUSH2 0x96A SWAP5 SWAP4 SWAP3 SWAP2 SWAP1 PUSH2 0x131B JUMP JUMPDEST PUSH1 0x40 MLOAD DUP1 SWAP2 SUB SWAP1 LOG4 POP SWAP7 SWAP6 POP POP POP POP POP POP JUMP JUMPDEST PUSH0 PUSH2 0x987 DUP2 PUSH2 0xC3C JUMP JUMPDEST PUSH2 0x49B PUSH2 0xDB6 JUMP JUMPDEST PUSH0 SWAP2 DUP3 MSTORE PUSH1 0x20 DUP3 DUP2 MSTORE PUSH1 0x40 DUP1 DUP5 KECCAK256 PUSH1 0x1 PUSH1 0x1 PUSH1 0xA0 SHL SUB SWAP4 SWAP1 SWAP4 AND DUP5 MSTORE SWAP2 SWAP1 MSTORE SWAP1 KECCAK256 SLOAD PUSH1 0xFF AND SWAP1 JUMP JUMPDEST PUSH0 DUP2 DUP2 MSTORE PUSH1 0x5 PUSH1 0x20 SWAP1 DUP2 MSTORE PUSH1 0x40 SWAP2 DUP3 SWAP1 KECCAK256 DUP1 SLOAD DUP4 MLOAD DUP2 DUP5 MUL DUP2 ADD DUP5 ADD SWAP1 SWAP5 MSTORE DUP1 DUP5 MSTORE PUSH1 0x60 SWAP4 SWAP3 DUP4 ADD DUP3 DUP3 DUP1 ISZERO PUSH2 0xA0A JUMPI PUSH1 0x20 MUL DUP3 ADD SWAP2 SWAP1 PUSH0 MSTORE PUSH1 0x20 PUSH0 KECCAK256 SWAP1 JUMPDEST DUP2 SLOAD DUP2 MSTORE PUSH1 0x20 ADD SWAP1 PUSH1 0x1 ADD SWAP1 DUP1 DUP4 GT PUSH2 0x9F6 JUMPI JUMPDEST POP POP POP POP POP SWAP1 POP SWAP2 SWAP1 POP JUMP JUMPDEST PUSH0 DUP3 DUP2 MSTORE PUSH1 0x20 DUP2 SWAP1 MSTORE PUSH1 0x40 SWAP1 KECCAK256 PUSH1 0x1 ADD SLOAD PUSH2 0xA30 DUP2 PUSH2 0xC3C JUMP JUMPDEST PUSH2 0x44B DUP4 DUP4 PUSH2 0xCD5 JUMP JUMPDEST PUSH0 PUSH2 0xA44 DUP2 PUSH2 0xC3C JUMP JUMPDEST PUSH1 0x3 DUP1 SLOAD PUSH1 0x1 PUSH1 0x1 PUSH1 0xA0 SHL SUB DUP5 DUP2 AND PUSH1 0x1 PUSH1 0x1 PUSH1 0xA0 SHL SUB NOT DUP4 AND DUP2 OR SWAP1 SWAP4 SSTORE PUSH1 0x40 MLOAD SWAP2 AND SWAP2 SWAP1 DUP3 SWAP1 PUSH32 0x124E3896652F6E8E2067EC03F7B7A32E1BD4D2DACC895C941C133225523B39C8 SWAP1 PUSH0 SWAP1 LOG3 POP POP POP JUMP JUMPDEST PUSH32 0xF9B712ED3CD0E90CDC9D1ABAC8FB677BF018AF115FB294C768A96B48BD6922C5 PUSH2 0xAC0 DUP2 PUSH2 0xC3C JUMP JUMPDEST PUSH0 DUP5 DUP2 MSTORE PUSH1 0x4 PUSH1 0x20 DUP2 SWAP1 MSTORE PUSH1 0x40 SWAP1 SWAP2 KECCAK256 ADD SLOAD PUSH8 0xFFFFFFFFFFFFFFFF AND PUSH2 0xB28 JUMPI PUSH1 0x40 MLOAD PUSH3 0x461BCD PUSH1 0xE5 SHL DUP2 MSTORE PUSH1 0x20 PUSH1 0x4 DUP3 ADD MSTORE PUSH1 0x17 PUSH1 0x24 DUP3 ADD MSTORE PUSH32 0x4F5241434C453A206576656E74206E6F7420666F756E64000000000000000000 PUSH1 0x44 DUP3 ADD MSTORE PUSH1 0x64 ADD PUSH2 0x5C4 JUMP JUMPDEST PUSH0 DUP5 DUP2 MSTORE PUSH1 0x4 PUSH1 0x20 DUP2 SWAP1 MSTORE PUSH1 0x40 SWAP1 SWAP2 KECCAK256 ADD SLOAD PUSH1 0x1 PUSH1 0xE0 SHL SWAP1 DIV PUSH1 0xFF AND PUSH2 0xB90 JUMPI PUSH1 0x40 MLOAD PUSH3 0x461BCD PUSH1 0xE5 SHL DUP2 MSTORE PUSH1 0x20 PUSH1 0x4 DUP3 ADD MSTORE PUSH1 0x17 PUSH1 0x24 DUP3 ADD MSTORE PUSH32 0x4F5241434C453A20616C726561647920696E76616C6964000000000000000000 PUSH1 0x44 DUP3 ADD MSTORE PUSH1 0x64 ADD PUSH2 0x5C4 JUMP JUMPDEST DUP2 PUSH2 0xBDD JUMPI PUSH1 0x40 MLOAD PUSH3 0x461BCD PUSH1 0xE5 SHL DUP2 MSTORE PUSH1 0x20 PUSH1 0x4 DUP3 ADD MSTORE PUSH1 0x17 PUSH1 0x24 DUP3 ADD MSTORE PUSH32 0x4F5241434C453A20726561736F6E207265717569726564000000000000000000 PUSH1 0x44 DUP3 ADD MSTORE PUSH1 0x64 ADD PUSH2 0x5C4 JUMP JUMPDEST PUSH0 DUP5 DUP2 MSTORE PUSH1 0x4 PUSH1 0x20 DUP2 SWAP1 MSTORE PUSH1 0x40 SWAP2 DUP3 SWAP1 KECCAK256 ADD DUP1 SLOAD PUSH1 0xFF PUSH1 0xE0 SHL NOT AND SWAP1 SSTORE MLOAD CALLER SWAP1 DUP6 SWAP1 PUSH32 0x75AF023D7AE0EF601FE146FC322DABE296ABD50431CB6FB29A2192696ECE0F0A SWAP1 PUSH2 0xC2E SWAP1 DUP8 SWAP1 DUP8 SWAP1 PUSH2 0x119E JUMP JUMPDEST PUSH1 0x40 MLOAD DUP1 SWAP2 SUB SWAP1 LOG3 POP POP POP POP JUMP JUMPDEST PUSH2 0x49B DUP2 CALLER PUSH2 0xDF1 JUMP JUMPDEST PUSH0 PUSH2 0xC51 DUP4 DUP4 PUSH2 0x98F JUMP JUMPDEST PUSH2 0xCCE JUMPI PUSH0 DUP4 DUP2 MSTORE PUSH1 0x20 DUP2 DUP2 MSTORE PUSH1 0x40 DUP1 DUP4 KECCAK256 PUSH1 0x1 PUSH1 0x1 PUSH1 0xA0 SHL SUB DUP7 AND DUP5 MSTORE SWAP1 SWAP2 MSTORE SWAP1 KECCAK256 DUP1 SLOAD PUSH1 0xFF NOT AND PUSH1 0x1 OR SWAP1 SSTORE PUSH2 0xC86 CALLER SWAP1 JUMP JUMPDEST PUSH1 0x1 PUSH1 0x1 PUSH1 0xA0 SHL SUB AND DUP3 PUSH1 0x1 PUSH1 0x1 PUSH1 0xA0 SHL SUB AND DUP5 PUSH32 0x2F8788117E7EFF1D82E926EC794901D17C78024A50270940304540A733656F0D PUSH1 0x40 MLOAD PUSH1 0x40 MLOAD DUP1 SWAP2 SUB SWAP1 LOG4 POP PUSH1 0x1 PUSH2 0x338 JUMP JUMPDEST POP PUSH0 PUSH2 0x338 JUMP JUMPDEST PUSH0 PUSH2 0xCE0 DUP4 DUP4 PUSH2 0x98F JUMP JUMPDEST ISZERO PUSH2 0xCCE JUMPI PUSH0 DUP4 DUP2 MSTORE PUSH1 0x20 DUP2 DUP2 MSTORE PUSH1 0x40 DUP1 DUP4 KECCAK256 PUSH1 0x1 PUSH1 0x1 PUSH1 0xA0 SHL SUB DUP7 AND DUP1 DUP6 MSTORE SWAP3 MSTORE DUP1 DUP4 KECCAK256 DUP1 SLOAD PUSH1 0xFF NOT AND SWAP1 SSTORE MLOAD CALLER SWAP3 DUP7 SWAP2 PUSH32 0xF6391F5C32D9C69D2A47EA670B442974B53935D1EDC7FD64EB21E047A839171B SWAP2 SWAP1 LOG4 POP PUSH1 0x1 PUSH2 0x338 JUMP JUMPDEST PUSH2 0xD46 PUSH2 0xE2E JUMP JUMPDEST PUSH1 0x1 DUP1 SLOAD PUSH1 0xFF NOT AND SWAP1 SSTORE PUSH32 0x5DB9EE0A495BF2E6FF9C91A7834C1BA4FDD244A5E8AA4E537BD38AEAE4B073AA CALLER JUMPDEST PUSH1 0x40 MLOAD PUSH1 0x1 PUSH1 0x1 PUSH1 0xA0 SHL SUB SWAP1 SWAP2 AND DUP2 MSTORE PUSH1 0x20 ADD PUSH1 0x40 MLOAD DUP1 SWAP2 SUB SWAP1 LOG1 JUMP JUMPDEST PUSH1 0x1 SLOAD PUSH1 0xFF AND ISZERO PUSH2 0xDB4 JUMPI PUSH1 0x40 MLOAD PUSH4 0xD93C0665 PUSH1 0xE0 SHL DUP2 MSTORE PUSH1 0x4 ADD PUSH1 0x40 MLOAD DUP1 SWAP2 SUB SWAP1 REVERT JUMPDEST JUMP JUMPDEST PUSH2 0xDBE PUSH2 0xD90 JUMP JUMPDEST PUSH1 0x1 DUP1 SLOAD PUSH1 0xFF NOT AND DUP2 OR SWAP1 SSTORE PUSH32 0x62E78CEA01BEE320CD4E420270B5EA74000D11B0C9F74754EBDBFC544B05A258 CALLER PUSH2 0xD73 JUMP JUMPDEST PUSH2 0xDFB DUP3 DUP3 PUSH2 0x98F JUMP JUMPDEST PUSH2 0xE2A JUMPI PUSH1 0x40 MLOAD PUSH4 0xE2517D3F PUSH1 0xE0 SHL DUP2 MSTORE PUSH1 0x1 PUSH1 0x1 PUSH1 0xA0 SHL SUB DUP3 AND PUSH1 0x4 DUP3 ADD MSTORE PUSH1 0x24 DUP2 ADD DUP4 SWAP1 MSTORE PUSH1 0x44 ADD PUSH2 0x5C4 JUMP JUMPDEST POP POP JUMP JUMPDEST PUSH1 0x1 SLOAD PUSH1 0xFF AND PUSH2 0xDB4 JUMPI PUSH1 0x40 MLOAD PUSH4 0x8DFC202B PUSH1 0xE0 SHL DUP2 MSTORE PUSH1 0x4 ADD PUSH1 0x40 MLOAD DUP1 SWAP2 SUB SWAP1 REVERT JUMPDEST PUSH0 PUSH1 0x20 DUP3 DUP5 SUB SLT ISZERO PUSH2 0xE61 JUMPI PUSH0 DUP1 REVERT JUMPDEST DUP2 CALLDATALOAD PUSH1 0x1 PUSH1 0x1 PUSH1 0xE0 SHL SUB NOT DUP2 AND DUP2 EQ PUSH2 0xE78 JUMPI PUSH0 DUP1 REVERT JUMPDEST SWAP4 SWAP3 POP POP POP JUMP JUMPDEST PUSH0 PUSH1 0x20 DUP3 DUP5 SUB SLT ISZERO PUSH2 0xE8F JUMPI PUSH0 DUP1 REVERT JUMPDEST POP CALLDATALOAD SWAP2 SWAP1 POP JUMP JUMPDEST PUSH4 0x4E487B71 PUSH1 0xE0 SHL PUSH0 MSTORE PUSH1 0x21 PUSH1 0x4 MSTORE PUSH1 0x24 PUSH0 REVERT JUMPDEST PUSH0 PUSH2 0x100 PUSH1 0x8 DUP12 LT PUSH2 0xECA JUMPI PUSH4 0x4E487B71 PUSH1 0xE0 SHL PUSH0 MSTORE PUSH1 0x21 PUSH1 0x4 MSTORE PUSH1 0x24 PUSH0 REVERT JUMPDEST DUP11 DUP4 MSTORE PUSH1 0x20 DUP11 PUSH1 0x20 DUP6 ADD MSTORE DUP10 PUSH1 0x40 DUP6 ADD MSTORE DUP9 PUSH1 0x60 DUP6 ADD MSTORE PUSH8 0xFFFFFFFFFFFFFFFF DUP9 AND PUSH1 0x80 DUP6 ADD MSTORE PUSH1 0x1 DUP1 PUSH1 0xA0 SHL SUB DUP8 AND PUSH1 0xA0 DUP6 ADD MSTORE DUP6 ISZERO ISZERO PUSH1 0xC0 DUP6 ADD MSTORE DUP2 PUSH1 0xE0 DUP6 ADD MSTORE DUP5 MLOAD DUP1 DUP4 DUP7 ADD MSTORE PUSH0 SWAP3 POP JUMPDEST DUP1 DUP4 LT ISZERO PUSH2 0xF37 JUMPI DUP6 DUP4 ADD DUP3 ADD MLOAD DUP6 DUP5 ADD PUSH2 0x120 ADD MSTORE SWAP2 DUP2 ADD SWAP2 PUSH2 0xF18 JUMP JUMPDEST PUSH2 0x120 SWAP3 POP PUSH0 DUP4 DUP3 DUP8 ADD ADD MSTORE DUP3 PUSH1 0x1F NOT PUSH1 0x1F DUP4 ADD AND DUP7 ADD ADD SWAP4 POP POP POP POP SWAP10 SWAP9 POP POP POP POP POP POP POP POP POP JUMP JUMPDEST DUP1 CALLDATALOAD PUSH1 0x1 PUSH1 0x1 PUSH1 0xA0 SHL SUB DUP2 AND DUP2 EQ PUSH2 0xF77 JUMPI PUSH0 DUP1 REVERT JUMPDEST SWAP2 SWAP1 POP JUMP JUMPDEST PUSH0 DUP1 PUSH1 0x40 DUP4 DUP6 SUB SLT ISZERO PUSH2 0xF8D JUMPI PUSH0 DUP1 REVERT JUMPDEST DUP3 CALLDATALOAD SWAP2 POP PUSH2 0xF9D PUSH1 0x20 DUP5 ADD PUSH2 0xF61 JUMP JUMPDEST SWAP1 POP SWAP3 POP SWAP3 SWAP1 POP JUMP JUMPDEST DUP1 CALLDATALOAD PUSH1 0x8 DUP2 LT PUSH2 0xF77 JUMPI PUSH0 DUP1 REVERT JUMPDEST PUSH0 DUP1 PUSH1 0x40 DUP4 DUP6 SUB SLT ISZERO PUSH2 0xFC5 JUMPI PUSH0 DUP1 REVERT JUMPDEST DUP3 CALLDATALOAD SWAP2 POP PUSH2 0xF9D PUSH1 0x20 DUP5 ADD PUSH2 0xFA6 JUMP JUMPDEST PUSH0 DUP1 DUP4 PUSH1 0x1F DUP5 ADD SLT PUSH2 0xFE5 JUMPI PUSH0 DUP1 REVERT JUMPDEST POP DUP2 CALLDATALOAD PUSH8 0xFFFFFFFFFFFFFFFF DUP2 GT ISZERO PUSH2 0xFFC JUMPI PUSH0 DUP1 REVERT JUMPDEST PUSH1 0x20 DUP4 ADD SWAP2 POP DUP4 PUSH1 0x20 DUP3 DUP6 ADD ADD GT ISZERO PUSH2 0x1013 JUMPI PUSH0 DUP1 REVERT JUMPDEST SWAP3 POP SWAP3 SWAP1 POP JUMP JUMPDEST PUSH0 DUP1 PUSH0 DUP1 PUSH0 DUP1 PUSH1 0xA0 DUP8 DUP10 SUB SLT ISZERO PUSH2 0x102F JUMPI PUSH0 DUP1 REVERT JUMPDEST PUSH2 0x1038 DUP8 PUSH2 0xFA6 JUMP JUMPDEST SWAP6 POP PUSH1 0x20 DUP8 ADD CALLDATALOAD SWAP5 POP PUSH1 0x40 DUP8 ADD CALLDATALOAD SWAP4 POP PUSH1 0x60 DUP8 ADD CALLDATALOAD SWAP3 POP PUSH1 0x80 DUP8 ADD CALLDATALOAD PUSH8 0xFFFFFFFFFFFFFFFF DUP2 GT ISZERO PUSH2 0x1068 JUMPI PUSH0 DUP1 REVERT JUMPDEST PUSH2 0x1074 DUP10 DUP3 DUP11 ADD PUSH2 0xFD5 JUMP JUMPDEST SWAP8 SWAP11 SWAP7 SWAP10 POP SWAP5 SWAP8 POP SWAP3 SWAP6 SWAP4 SWAP5 SWAP3 POP POP POP JUMP JUMPDEST PUSH1 0x20 DUP1 DUP3 MSTORE DUP3 MLOAD DUP3 DUP3 ADD DUP2 SWAP1 MSTORE PUSH0 SWAP2 SWAP1 DUP5 DUP3 ADD SWAP1 PUSH1 0x40 DUP6 ADD SWAP1 DUP5 JUMPDEST DUP2 DUP2 LT ISZERO PUSH2 0x10BD JUMPI DUP4 MLOAD DUP4 MSTORE SWAP3 DUP5 ADD SWAP3 SWAP2 DUP5 ADD SWAP2 PUSH1 0x1 ADD PUSH2 0x10A1 JUMP JUMPDEST POP SWAP1 SWAP7 SWAP6 POP POP POP POP POP POP JUMP JUMPDEST PUSH0 PUSH1 0x20 DUP3 DUP5 SUB SLT ISZERO PUSH2 0x10D9 JUMPI PUSH0 DUP1 REVERT JUMPDEST PUSH2 0xE78 DUP3 PUSH2 0xF61 JUMP JUMPDEST PUSH0 DUP1 PUSH0 PUSH1 0x40 DUP5 DUP7 SUB SLT ISZERO PUSH2 0x10F4 JUMPI PUSH0 DUP1 REVERT JUMPDEST DUP4 CALLDATALOAD SWAP3 POP PUSH1 0x20 DUP5 ADD CALLDATALOAD PUSH8 0xFFFFFFFFFFFFFFFF DUP2 GT ISZERO PUSH2 0x1111 JUMPI PUSH0 DUP1 REVERT JUMPDEST PUSH2 0x111D DUP7 DUP3 DUP8 ADD PUSH2 0xFD5 JUMP JUMPDEST SWAP5 SWAP8 SWAP1 SWAP7 POP SWAP4 SWAP5 POP POP POP POP JUMP JUMPDEST PUSH1 0x1 DUP2 DUP2 SHR SWAP1 DUP3 AND DUP1 PUSH2 0x113E JUMPI PUSH1 0x7F DUP3 AND SWAP2 POP JUMPDEST PUSH1 0x20 DUP3 LT DUP2 SUB PUSH2 0x115C JUMPI PUSH4 0x4E487B71 PUSH1 0xE0 SHL PUSH0 MSTORE PUSH1 0x22 PUSH1 0x4 MSTORE PUSH1 0x24 PUSH0 REVERT JUMPDEST POP SWAP2 SWAP1 POP JUMP JUMPDEST PUSH4 0x4E487B71 PUSH1 0xE0 SHL PUSH0 MSTORE PUSH1 0x32 PUSH1 0x4 MSTORE PUSH1 0x24 PUSH0 REVERT JUMPDEST DUP2 DUP4 MSTORE DUP2 DUP2 PUSH1 0x20 DUP6 ADD CALLDATACOPY POP PUSH0 DUP3 DUP3 ADD PUSH1 0x20 SWAP1 DUP2 ADD SWAP2 SWAP1 SWAP2 MSTORE PUSH1 0x1F SWAP1 SWAP2 ADD PUSH1 0x1F NOT AND SWAP1 SWAP2 ADD ADD SWAP1 JUMP JUMPDEST PUSH1 0x20 DUP2 MSTORE PUSH0 PUSH2 0x11B1 PUSH1 0x20 DUP4 ADD DUP5 DUP7 PUSH2 0x1176 JUMP JUMPDEST SWAP5 SWAP4 POP POP POP POP JUMP JUMPDEST PUSH0 PUSH1 0x20 DUP3 DUP5 SUB SLT ISZERO PUSH2 0x11C9 JUMPI PUSH0 DUP1 REVERT JUMPDEST DUP2 MLOAD DUP1 ISZERO ISZERO DUP2 EQ PUSH2 0xE78 JUMPI PUSH0 DUP1 REVERT JUMPDEST PUSH0 PUSH1 0x1 DUP3 ADD PUSH2 0x11F5 JUMPI PUSH4 0x4E487B71 PUSH1 0xE0 SHL PUSH0 MSTORE PUSH1 0x11 PUSH1 0x4 MSTORE PUSH1 0x24 PUSH0 REVERT JUMPDEST POP PUSH1 0x1 ADD SWAP1 JUMP JUMPDEST PUSH4 0x4E487B71 PUSH1 0xE0 SHL PUSH0 MSTORE PUSH1 0x41 PUSH1 0x4 MSTORE PUSH1 0x24 PUSH0 REVERT JUMPDEST PUSH1 0x1F DUP3 GT ISZERO PUSH2 0x484 JUMPI DUP1 PUSH0 MSTORE PUSH1 0x20 PUSH0 KECCAK256 PUSH1 0x1F DUP5 ADD PUSH1 0x5 SHR DUP2 ADD PUSH1 0x20 DUP6 LT ISZERO PUSH2 0x1235 JUMPI POP DUP1 JUMPDEST PUSH1 0x1F DUP5 ADD PUSH1 0x5 SHR DUP3 ADD SWAP2 POP JUMPDEST DUP2 DUP2 LT ISZERO PUSH2 0x1254 JUMPI PUSH0 DUP2 SSTORE PUSH1 0x1 ADD PUSH2 0x1241 JUMP JUMPDEST POP POP POP POP POP JUMP JUMPDEST DUP2 MLOAD PUSH8 0xFFFFFFFFFFFFFFFF DUP2 GT ISZERO PUSH2 0x1275 JUMPI PUSH2 0x1275 PUSH2 0x11FC JUMP JUMPDEST PUSH2 0x1289 DUP2 PUSH2 0x1283 DUP5 SLOAD PUSH2 0x112A JUMP JUMPDEST DUP5 PUSH2 0x1210 JUMP JUMPDEST PUSH1 0x20 DUP1 PUSH1 0x1F DUP4 GT PUSH1 0x1 DUP2 EQ PUSH2 0x12BC JUMPI PUSH0 DUP5 ISZERO PUSH2 0x12A5 JUMPI POP DUP6 DUP4 ADD MLOAD JUMPDEST PUSH0 NOT PUSH1 0x3 DUP7 SWAP1 SHL SHR NOT AND PUSH1 0x1 DUP6 SWAP1 SHL OR DUP6 SSTORE PUSH2 0x1313 JUMP JUMPDEST PUSH0 DUP6 DUP2 MSTORE PUSH1 0x20 DUP2 KECCAK256 PUSH1 0x1F NOT DUP7 AND SWAP2 JUMPDEST DUP3 DUP2 LT ISZERO PUSH2 0x12EA JUMPI DUP9 DUP7 ADD MLOAD DUP3 SSTORE SWAP5 DUP5 ADD SWAP5 PUSH1 0x1 SWAP1 SWAP2 ADD SWAP1 DUP5 ADD PUSH2 0x12CB JUMP JUMPDEST POP DUP6 DUP3 LT ISZERO PUSH2 0x1307 JUMPI DUP8 DUP6 ADD MLOAD PUSH0 NOT PUSH1 0x3 DUP9 SWAP1 SHL PUSH1 0xF8 AND SHR NOT AND DUP2 SSTORE JUMPDEST POP POP PUSH1 0x1 DUP5 PUSH1 0x1 SHL ADD DUP6 SSTORE JUMPDEST POP POP POP POP POP POP JUMP JUMPDEST DUP5 DUP2 MSTORE PUSH1 0x1 PUSH1 0x1 PUSH1 0xA0 SHL SUB DUP5 AND PUSH1 0x20 DUP3 ADD MSTORE PUSH1 0x60 PUSH1 0x40 DUP3 ADD DUP2 SWAP1 MSTORE PUSH0 SWAP1 PUSH2 0x1345 SWAP1 DUP4 ADD DUP5 DUP7 PUSH2 0x1176 JUMP JUMPDEST SWAP7 SWAP6 POP POP POP POP POP POP JUMP INVALID LOG2 PUSH5 0x6970667358 0x22 SLT KECCAK256 0x23 SWAP11 SHR PUSH8 0xC1CEA3C69798EAFA 0xAA 0xDB 0xB0 0xCF 0xD9 0x2D PUSH13 0xED33719AEA53ADC5B074B2CBE5 PUSH5 0x736F6C6343 STOP ADDMOD XOR STOP CALLER "},"methodIdentifiers":{"DEFAULT_ADMIN_ROLE()":"a217fddf","ORACLE_OPERATOR_ROLE()":"11d11a5b","RELAYER_ROLE()":"926d7d7f","eventCount()":"71be2e4a","events(uint256)":"0b791430","getRoleAdmin(bytes32)":"248a9ca3","getSubjectEvents(bytes32)":"aca057f2","grantRole(bytes32,address)":"2f2ff15d","hasRole(bytes32,address)":"91d14854","hasValidEvent(bytes32,uint8)":"5da377e3","invalidateEvent(uint256,string)":"e444f2e0","pause()":"8456cb59","paused()":"5c975abb","recordEvent(uint8,bytes32,bytes32,bytes32,string)":"6d9213a6","renounceRole(bytes32,address)":"36568abe","revokeRole(bytes32,address)":"d547741f","setWhiteLabelRegistry(address)":"e18b09b2","supportsInterface(bytes4)":"01ffc9a7","unpause()":"3f4ba83a","whiteLabelRegistry()":"c7d88c64"}}}}}