{"contracts/AuditLog.sol":{"AuditLog":{"abi":[{"inputs":[{"internalType":"address","name":"admin","type":"address"}],"stateMutability":"nonpayable","type":"constructor"},{"inputs":[],"name":"AccessControlBadConfirmation","type":"error"},{"inputs":[{"internalType":"address","name":"account","type":"address"},{"internalType":"bytes32","name":"neededRole","type":"bytes32"}],"name":"AccessControlUnauthorizedAccount","type":"error"},{"inputs":[],"name":"EnforcedPause","type":"error"},{"inputs":[],"name":"ExpectedPause","type":"error"},{"anonymous":false,"inputs":[{"indexed":true,"internalType":"uint256","name":"entryId","type":"uint256"},{"indexed":true,"internalType":"enum AuditLog.ActionCategory","name":"category","type":"uint8"},{"indexed":true,"internalType":"bytes32","name":"subjectId","type":"bytes32"},{"indexed":false,"internalType":"bytes32","name":"resourceId","type":"bytes32"},{"indexed":false,"internalType":"string","name":"partnerCode","type":"string"},{"indexed":false,"internalType":"bytes32","name":"prevEntryHash","type":"bytes32"}],"name":"LogEntryRecorded","type":"event"},{"anonymous":false,"inputs":[{"indexed":false,"internalType":"address","name":"account","type":"address"}],"name":"Paused","type":"event"},{"anonymous":false,"inputs":[{"indexed":true,"internalType":"bytes32","name":"role","type":"bytes32"},{"indexed":true,"internalType":"bytes32","name":"previousAdminRole","type":"bytes32"},{"indexed":true,"internalType":"bytes32","name":"newAdminRole","type":"bytes32"}],"name":"RoleAdminChanged","type":"event"},{"anonymous":false,"inputs":[{"indexed":true,"internalType":"bytes32","name":"role","type":"bytes32"},{"indexed":true,"internalType":"address","name":"account","type":"address"},{"indexed":true,"internalType":"address","name":"sender","type":"address"}],"name":"RoleGranted","type":"event"},{"anonymous":false,"inputs":[{"indexed":true,"internalType":"bytes32","name":"role","type":"bytes32"},{"indexed":true,"internalType":"address","name":"account","type":"address"},{"indexed":true,"internalType":"address","name":"sender","type":"address"}],"name":"RoleRevoked","type":"event"},{"anonymous":false,"inputs":[{"indexed":false,"internalType":"address","name":"account","type":"address"}],"name":"Unpaused","type":"event"},{"inputs":[],"name":"DEFAULT_ADMIN_ROLE","outputs":[{"internalType":"bytes32","name":"","type":"bytes32"}],"stateMutability":"view","type":"function"},{"inputs":[],"name":"INSPECTOR_ROLE","outputs":[{"internalType":"bytes32","name":"","type":"bytes32"}],"stateMutability":"view","type":"function"},{"inputs":[],"name":"LOGGER_ROLE","outputs":[{"internalType":"bytes32","name":"","type":"bytes32"}],"stateMutability":"view","type":"function"},{"inputs":[{"internalType":"uint256","name":"","type":"uint256"}],"name":"entries","outputs":[{"internalType":"enum AuditLog.ActionCategory","name":"category","type":"uint8"},{"internalType":"bytes32","name":"subjectId","type":"bytes32"},{"internalType":"bytes32","name":"resourceId","type":"bytes32"},{"internalType":"bytes32","name":"dataHash","type":"bytes32"},{"internalType":"bytes32","name":"prevEntryHash","type":"bytes32"},{"internalType":"uint64","name":"recordedAt","type":"uint64"},{"internalType":"address","name":"logger","type":"address"},{"internalType":"string","name":"partnerCode","type":"string"}],"stateMutability":"view","type":"function"},{"inputs":[],"name":"entryCount","outputs":[{"internalType":"uint256","name":"","type":"uint256"}],"stateMutability":"view","type":"function"},{"inputs":[{"internalType":"bytes32","name":"role","type":"bytes32"}],"name":"getRoleAdmin","outputs":[{"internalType":"bytes32","name":"","type":"bytes32"}],"stateMutability":"view","type":"function"},{"inputs":[{"internalType":"bytes32","name":"role","type":"bytes32"},{"internalType":"address","name":"account","type":"address"}],"name":"grantRole","outputs":[],"stateMutability":"nonpayable","type":"function"},{"inputs":[{"internalType":"bytes32","name":"role","type":"bytes32"},{"internalType":"address","name":"account","type":"address"}],"name":"hasRole","outputs":[{"internalType":"bool","name":"","type":"bool"}],"stateMutability":"view","type":"function"},{"inputs":[],"name":"lastEntryHash","outputs":[{"internalType":"bytes32","name":"","type":"bytes32"}],"stateMutability":"view","type":"function"},{"inputs":[{"internalType":"enum AuditLog.ActionCategory","name":"category","type":"uint8"},{"internalType":"bytes32","name":"subjectId","type":"bytes32"},{"internalType":"bytes32","name":"resourceId","type":"bytes32"},{"internalType":"bytes32","name":"dataHash","type":"bytes32"},{"internalType":"string","name":"partnerCode","type":"string"}],"name":"log","outputs":[{"internalType":"uint256","name":"entryId","type":"uint256"}],"stateMutability":"nonpayable","type":"function"},{"inputs":[],"name":"pause","outputs":[],"stateMutability":"nonpayable","type":"function"},{"inputs":[],"name":"paused","outputs":[{"internalType":"bool","name":"","type":"bool"}],"stateMutability":"view","type":"function"},{"inputs":[{"internalType":"bytes32","name":"role","type":"bytes32"},{"internalType":"address","name":"callerConfirmation","type":"address"}],"name":"renounceRole","outputs":[],"stateMutability":"nonpayable","type":"function"},{"inputs":[{"internalType":"bytes32","name":"role","type":"bytes32"},{"internalType":"address","name":"account","type":"address"}],"name":"revokeRole","outputs":[],"stateMutability":"nonpayable","type":"function"},{"inputs":[{"internalType":"bytes4","name":"interfaceId","type":"bytes4"}],"name":"supportsInterface","outputs":[{"internalType":"bool","name":"","type":"bool"}],"stateMutability":"view","type":"function"},{"inputs":[],"name":"unpause","outputs":[],"stateMutability":"nonpayable","type":"function"},{"inputs":[{"internalType":"uint256","name":"entryId","type":"uint256"},{"internalType":"bytes32","name":"expectedPrevEntryHash","type":"bytes32"}],"name":"verifyEntryChain","outputs":[{"internalType":"bool","name":"","type":"bool"}],"stateMutability":"view","type":"function"}],"evm":{"bytecode":{"linkReferences":{},"object":"608060405234801561000f575f80fd5b50604051610fd8380380610fd883398101604081905261002e91610198565b6001600160a01b0381166100885760405162461bcd60e51b815260206004820152601460248201527f41554449543a20696e76616c69642061646d696e000000000000000000000000604482015260640160405180910390fd5b6100925f826100ef565b506100bd7f566c814873eed56a69b28c40ab27cc2cb150d74068bae3e884ccd44f8de60f8a826100ef565b506100e87f273dcf2136c7d8ef632bb8ef13dbca69a8f36fa620c7468671b3153d46a211c0826100ef565b50506101c5565b5f828152602081815260408083206001600160a01b038516845290915281205460ff1661018f575f838152602081815260408083206001600160a01b03861684529091529020805460ff191660011790556101473390565b6001600160a01b0316826001600160a01b0316847f2f8788117e7eff1d82e926ec794901d17c78024a50270940304540a733656f0d60405160405180910390a4506001610192565b505f5b92915050565b5f602082840312156101a8575f80fd5b81516001600160a01b03811681146101be575f80fd5b9392505050565b610e06806101d25f395ff3fe608060405234801561000f575f80fd5b5060043610610106575f3560e01c80637a98608a1161009e578063a217fddf1161006e578063a217fddf14610204578063b30906d41461020b578063be0ac8e414610232578063d547741f14610245578063e3a3c52214610258575f80fd5b80637a98608a146101af5780637bf0fbde146101c25780638456cb59146101e957806391d14854146101f1575f80fd5b806332101440116100d9578063321014401461018057806336568abe146101895780633f4ba83a1461019c5780635c975abb146101a4575f80fd5b806301ffc9a71461010a5780630cbb0f8314610132578063248a9ca3146101495780632f2ff15d1461016b575b5f80fd5b61011d610118366004610a14565b61027f565b60405190151581526020015b60405180910390f35b61013b60025481565b604051908152602001610129565b61013b610157366004610a42565b5f9081526020819052604090206001015490565b61017e610179366004610a59565b6102b5565b005b61013b60045481565b61017e610197366004610a59565b6102df565b61017e610317565b60015460ff1661011d565b61011d6101bd366004610a92565b61032c565b61013b7f566c814873eed56a69b28c40ab27cc2cb150d74068bae3e884ccd44f8de60f8a81565b61017e610361565b61011d6101ff366004610a59565b610373565b61013b5f81565b61021e610219366004610a42565b61039b565b604051610129989796959493929190610ac6565b61013b610240366004610b7b565b610483565b61017e610253366004610a59565b6107db565b61013b7f273dcf2136c7d8ef632bb8ef13dbca69a8f36fa620c7468671b3153d46a211c081565b5f6001600160e01b03198216637965db0b60e01b14806102af57506301ffc9a760e01b6001600160e01b03198316145b92915050565b5f828152602081905260409020600101546102cf816107ff565b6102d98383610809565b50505050565b6001600160a01b03811633146103085760405163334bd91960e11b815260040160405180910390fd5b6103128282610898565b505050565b5f610321816107ff565b610329610901565b50565b5f8281526003602052604081206004810154831480156103595750600581015467ffffffffffffffff1615155b949350505050565b5f61036b816107ff565b610329610953565b5f918252602082815260408084206001600160a01b0393909316845291905290205460ff1690565b600360208190525f9182526040909120805460018201546002830154938301546004840154600585015460068601805460ff90961697949694959394929367ffffffffffffffff831693600160401b9093046001600160a01b031692919061040290610c17565b80601f016020809104026020016040519081016040528092919081815260200182805461042e90610c17565b80156104795780601f1061045057610100808354040283529160200191610479565b820191905f5260205f20905b81548152906001019060200180831161045c57829003601f168201915b5050505050905088565b5f61048c61098e565b7f566c814873eed56a69b28c40ab27cc2cb150d74068bae3e884ccd44f8de60f8a6104b6816107ff565b866105015760405162461bcd60e51b815260206004820152601660248201527510555112550e881a5b9d985b1a59081cdd589a9958dd60521b60448201526064015b60405180910390fd5b8561054e5760405162461bcd60e51b815260206004820152601760248201527f41554449543a20696e76616c6964207265736f7572636500000000000000000060448201526064016104f8565b8461059b5760405162461bcd60e51b815260206004820152601860248201527f41554449543a20696e76616c696420646174612068617368000000000000000060448201526064016104f8565b826105e85760405162461bcd60e51b815260206004820152601960248201527f41554449543a20656d70747920706172746e657220636f64650000000000000060448201526064016104f8565b60028054905f6105f783610c4f565b9190505591505f60045490506040518061010001604052808a600e81111561062157610621610ab2565b81526020018981526020018881526020018781526020018281526020014267ffffffffffffffff168152602001336001600160a01b0316815260200186868080601f0160208091040260200160405190810160405280939291908181526020018383808284375f9201829052509390945250508581526003602052604090208251815491925090829060ff1916600183600e8111156106c2576106c2610ab2565b02179055506020820151600182015560408201516002820155606082015160038201556080820151600482015560a082015160058201805460c08501516001600160a01b0316600160401b026001600160e01b031990911667ffffffffffffffff9093169290921791909117905560e082015160068201906107449082610cd2565b5050604080516020810186905290810188905260608101839052608001905060408051601f1981840301815291905280516020909101206004558789600e81111561079157610791610ab2565b847f69e8bce0df40e5df4dad28011d934b6fbe108d334a686b03013cf2a8662661c38a8989876040516107c79493929190610d92565b60405180910390a450509695505050505050565b5f828152602081905260409020600101546107f5816107ff565b6102d98383610898565b61032981336109b4565b5f6108148383610373565b610891575f838152602081815260408083206001600160a01b03861684529091529020805460ff191660011790556108493390565b6001600160a01b0316826001600160a01b0316847f2f8788117e7eff1d82e926ec794901d17c78024a50270940304540a733656f0d60405160405180910390a45060016102af565b505f6102af565b5f6108a38383610373565b15610891575f838152602081815260408083206001600160a01b0386168085529252808320805460ff1916905551339286917ff6391f5c32d9c69d2a47ea670b442974b53935d1edc7fd64eb21e047a839171b9190a45060016102af565b6109096109f1565b6001805460ff191690557f5db9ee0a495bf2e6ff9c91a7834c1ba4fdd244a5e8aa4e537bd38aeae4b073aa335b6040516001600160a01b03909116815260200160405180910390a1565b61095b61098e565b6001805460ff1916811790557f62e78cea01bee320cd4e420270b5ea74000d11b0c9f74754ebdbfc544b05a25833610936565b60015460ff16156109b25760405163d93c066560e01b815260040160405180910390fd5b565b6109be8282610373565b6109ed5760405163e2517d3f60e01b81526001600160a01b0382166004820152602481018390526044016104f8565b5050565b60015460ff166109b257604051638dfc202b60e01b815260040160405180910390fd5b5f60208284031215610a24575f80fd5b81356001600160e01b031981168114610a3b575f80fd5b9392505050565b5f60208284031215610a52575f80fd5b5035919050565b5f8060408385031215610a6a575f80fd5b8235915060208301356001600160a01b0381168114610a87575f80fd5b809150509250929050565b5f8060408385031215610aa3575f80fd5b50508035926020909101359150565b634e487b7160e01b5f52602160045260245ffd5b5f610100600f8b10610ae657634e487b7160e01b5f52602160045260245ffd5b8a835260208a602085015289604085015288606085015287608085015267ffffffffffffffff871660a085015260018060a01b03861660c08501528160e0850152845180838601525f92505b80831015610b5157858301820151858401610120015291810191610b32565b61012092505f83828701015282601f19601f83011686010193505050509998505050505050505050565b5f805f805f8060a08789031215610b90575f80fd5b8635600f8110610b9e575f80fd5b9550602087013594506040870135935060608701359250608087013567ffffffffffffffff80821115610bcf575f80fd5b818901915089601f830112610be2575f80fd5b813581811115610bf0575f80fd5b8a6020828501011115610c01575f80fd5b6020830194508093505050509295509295509295565b600181811c90821680610c2b57607f821691505b602082108103610c4957634e487b7160e01b5f52602260045260245ffd5b50919050565b5f60018201610c6c57634e487b7160e01b5f52601160045260245ffd5b5060010190565b634e487b7160e01b5f52604160045260245ffd5b601f82111561031257805f5260205f20601f840160051c81016020851015610cac5750805b601f840160051c820191505b81811015610ccb575f8155600101610cb8565b5050505050565b815167ffffffffffffffff811115610cec57610cec610c73565b610d0081610cfa8454610c17565b84610c87565b602080601f831160018114610d33575f8415610d1c5750858301515b5f19600386901b1c1916600185901b178555610d8a565b5f85815260208120601f198616915b82811015610d6157888601518255948401946001909101908401610d42565b5085821015610d7e57878501515f19600388901b60f8161c191681555b505060018460011b0185555b505050505050565b84815260606020820152826060820152828460808301375f608084830101525f6080601f19601f86011683010190508260408301529594505050505056fea2646970667358221220b7d1d5ae13cd54649ba6f920dcbd86f29c7fd9d1fe964406e25d36a6923c3b2164736f6c63430008180033","opcodes":"PUSH1 0x80 PUSH1 0x40 MSTORE CALLVALUE DUP1 ISZERO PUSH2 0xF JUMPI PUSH0 DUP1 REVERT JUMPDEST POP PUSH1 0x40 MLOAD PUSH2 0xFD8 CODESIZE SUB DUP1 PUSH2 0xFD8 DUP4 CODECOPY DUP2 ADD PUSH1 0x40 DUP2 SWAP1 MSTORE PUSH2 0x2E SWAP2 PUSH2 0x198 JUMP JUMPDEST PUSH1 0x1 PUSH1 0x1 PUSH1 0xA0 SHL SUB DUP2 AND PUSH2 0x88 JUMPI PUSH1 0x40 MLOAD PUSH3 0x461BCD PUSH1 0xE5 SHL DUP2 MSTORE PUSH1 0x20 PUSH1 0x4 DUP3 ADD MSTORE PUSH1 0x14 PUSH1 0x24 DUP3 ADD MSTORE PUSH32 0x41554449543A20696E76616C69642061646D696E000000000000000000000000 PUSH1 0x44 DUP3 ADD MSTORE PUSH1 0x64 ADD PUSH1 0x40 MLOAD DUP1 SWAP2 SUB SWAP1 REVERT JUMPDEST PUSH2 0x92 PUSH0 DUP3 PUSH2 0xEF JUMP JUMPDEST POP PUSH2 0xBD PUSH32 0x566C814873EED56A69B28C40AB27CC2CB150D74068BAE3E884CCD44F8DE60F8A DUP3 PUSH2 0xEF JUMP JUMPDEST POP PUSH2 0xE8 PUSH32 0x273DCF2136C7D8EF632BB8EF13DBCA69A8F36FA620C7468671B3153D46A211C0 DUP3 PUSH2 0xEF JUMP JUMPDEST POP POP PUSH2 0x1C5 JUMP JUMPDEST PUSH0 DUP3 DUP2 MSTORE PUSH1 0x20 DUP2 DUP2 MSTORE PUSH1 0x40 DUP1 DUP4 KECCAK256 PUSH1 0x1 PUSH1 0x1 PUSH1 0xA0 SHL SUB DUP6 AND DUP5 MSTORE SWAP1 SWAP2 MSTORE DUP2 KECCAK256 SLOAD PUSH1 0xFF AND PUSH2 0x18F JUMPI PUSH0 DUP4 DUP2 MSTORE PUSH1 0x20 DUP2 DUP2 MSTORE PUSH1 0x40 DUP1 DUP4 KECCAK256 PUSH1 0x1 PUSH1 0x1 PUSH1 0xA0 SHL SUB DUP7 AND DUP5 MSTORE SWAP1 SWAP2 MSTORE SWAP1 KECCAK256 DUP1 SLOAD PUSH1 0xFF NOT AND PUSH1 0x1 OR SWAP1 SSTORE PUSH2 0x147 CALLER SWAP1 JUMP JUMPDEST PUSH1 0x1 PUSH1 0x1 PUSH1 0xA0 SHL SUB AND DUP3 PUSH1 0x1 PUSH1 0x1 PUSH1 0xA0 SHL SUB AND DUP5 PUSH32 0x2F8788117E7EFF1D82E926EC794901D17C78024A50270940304540A733656F0D PUSH1 0x40 MLOAD PUSH1 0x40 MLOAD DUP1 SWAP2 SUB SWAP1 LOG4 POP PUSH1 0x1 PUSH2 0x192 JUMP JUMPDEST POP PUSH0 JUMPDEST SWAP3 SWAP2 POP POP JUMP JUMPDEST PUSH0 PUSH1 0x20 DUP3 DUP5 SUB SLT ISZERO PUSH2 0x1A8 JUMPI PUSH0 DUP1 REVERT JUMPDEST DUP2 MLOAD PUSH1 0x1 PUSH1 0x1 PUSH1 0xA0 SHL SUB DUP2 AND DUP2 EQ PUSH2 0x1BE JUMPI PUSH0 DUP1 REVERT JUMPDEST SWAP4 SWAP3 POP POP POP JUMP JUMPDEST PUSH2 0xE06 DUP1 PUSH2 0x1D2 PUSH0 CODECOPY PUSH0 RETURN INVALID PUSH1 0x80 PUSH1 0x40 MSTORE CALLVALUE DUP1 ISZERO PUSH2 0xF JUMPI PUSH0 DUP1 REVERT JUMPDEST POP PUSH1 0x4 CALLDATASIZE LT PUSH2 0x106 JUMPI PUSH0 CALLDATALOAD PUSH1 0xE0 SHR DUP1 PUSH4 0x7A98608A GT PUSH2 0x9E JUMPI DUP1 PUSH4 0xA217FDDF GT PUSH2 0x6E JUMPI DUP1 PUSH4 0xA217FDDF EQ PUSH2 0x204 JUMPI DUP1 PUSH4 0xB30906D4 EQ PUSH2 0x20B JUMPI DUP1 PUSH4 0xBE0AC8E4 EQ PUSH2 0x232 JUMPI DUP1 PUSH4 0xD547741F EQ PUSH2 0x245 JUMPI DUP1 PUSH4 0xE3A3C522 EQ PUSH2 0x258 JUMPI PUSH0 DUP1 REVERT JUMPDEST DUP1 PUSH4 0x7A98608A EQ PUSH2 0x1AF JUMPI DUP1 PUSH4 0x7BF0FBDE EQ PUSH2 0x1C2 JUMPI DUP1 PUSH4 0x8456CB59 EQ PUSH2 0x1E9 JUMPI DUP1 PUSH4 0x91D14854 EQ PUSH2 0x1F1 JUMPI PUSH0 DUP1 REVERT JUMPDEST DUP1 PUSH4 0x32101440 GT PUSH2 0xD9 JUMPI DUP1 PUSH4 0x32101440 EQ PUSH2 0x180 JUMPI DUP1 PUSH4 0x36568ABE EQ PUSH2 0x189 JUMPI DUP1 PUSH4 0x3F4BA83A EQ PUSH2 0x19C JUMPI DUP1 PUSH4 0x5C975ABB EQ PUSH2 0x1A4 JUMPI PUSH0 DUP1 REVERT JUMPDEST DUP1 PUSH4 0x1FFC9A7 EQ PUSH2 0x10A JUMPI DUP1 PUSH4 0xCBB0F83 EQ PUSH2 0x132 JUMPI DUP1 PUSH4 0x248A9CA3 EQ PUSH2 0x149 JUMPI DUP1 PUSH4 0x2F2FF15D EQ PUSH2 0x16B JUMPI JUMPDEST PUSH0 DUP1 REVERT JUMPDEST PUSH2 0x11D PUSH2 0x118 CALLDATASIZE PUSH1 0x4 PUSH2 0xA14 JUMP JUMPDEST PUSH2 0x27F JUMP JUMPDEST PUSH1 0x40 MLOAD SWAP1 ISZERO ISZERO DUP2 MSTORE PUSH1 0x20 ADD JUMPDEST PUSH1 0x40 MLOAD DUP1 SWAP2 SUB SWAP1 RETURN JUMPDEST PUSH2 0x13B PUSH1 0x2 SLOAD DUP2 JUMP JUMPDEST PUSH1 0x40 MLOAD SWAP1 DUP2 MSTORE PUSH1 0x20 ADD PUSH2 0x129 JUMP JUMPDEST PUSH2 0x13B PUSH2 0x157 CALLDATASIZE PUSH1 0x4 PUSH2 0xA42 JUMP JUMPDEST PUSH0 SWAP1 DUP2 MSTORE PUSH1 0x20 DUP2 SWAP1 MSTORE PUSH1 0x40 SWAP1 KECCAK256 PUSH1 0x1 ADD SLOAD SWAP1 JUMP JUMPDEST PUSH2 0x17E PUSH2 0x179 CALLDATASIZE PUSH1 0x4 PUSH2 0xA59 JUMP JUMPDEST PUSH2 0x2B5 JUMP JUMPDEST STOP JUMPDEST PUSH2 0x13B PUSH1 0x4 SLOAD DUP2 JUMP JUMPDEST PUSH2 0x17E PUSH2 0x197 CALLDATASIZE PUSH1 0x4 PUSH2 0xA59 JUMP JUMPDEST PUSH2 0x2DF JUMP JUMPDEST PUSH2 0x17E PUSH2 0x317 JUMP JUMPDEST PUSH1 0x1 SLOAD PUSH1 0xFF AND PUSH2 0x11D JUMP JUMPDEST PUSH2 0x11D PUSH2 0x1BD CALLDATASIZE PUSH1 0x4 PUSH2 0xA92 JUMP JUMPDEST PUSH2 0x32C JUMP JUMPDEST PUSH2 0x13B PUSH32 0x566C814873EED56A69B28C40AB27CC2CB150D74068BAE3E884CCD44F8DE60F8A DUP2 JUMP JUMPDEST PUSH2 0x17E PUSH2 0x361 JUMP JUMPDEST PUSH2 0x11D PUSH2 0x1FF CALLDATASIZE PUSH1 0x4 PUSH2 0xA59 JUMP JUMPDEST PUSH2 0x373 JUMP JUMPDEST PUSH2 0x13B PUSH0 DUP2 JUMP JUMPDEST PUSH2 0x21E PUSH2 0x219 CALLDATASIZE PUSH1 0x4 PUSH2 0xA42 JUMP JUMPDEST PUSH2 0x39B JUMP JUMPDEST PUSH1 0x40 MLOAD PUSH2 0x129 SWAP9 SWAP8 SWAP7 SWAP6 SWAP5 SWAP4 SWAP3 SWAP2 SWAP1 PUSH2 0xAC6 JUMP JUMPDEST PUSH2 0x13B PUSH2 0x240 CALLDATASIZE PUSH1 0x4 PUSH2 0xB7B JUMP JUMPDEST PUSH2 0x483 JUMP JUMPDEST PUSH2 0x17E PUSH2 0x253 CALLDATASIZE PUSH1 0x4 PUSH2 0xA59 JUMP JUMPDEST PUSH2 0x7DB JUMP JUMPDEST PUSH2 0x13B PUSH32 0x273DCF2136C7D8EF632BB8EF13DBCA69A8F36FA620C7468671B3153D46A211C0 DUP2 JUMP JUMPDEST PUSH0 PUSH1 0x1 PUSH1 0x1 PUSH1 0xE0 SHL SUB NOT DUP3 AND PUSH4 0x7965DB0B PUSH1 0xE0 SHL EQ DUP1 PUSH2 0x2AF JUMPI POP PUSH4 0x1FFC9A7 PUSH1 0xE0 SHL PUSH1 0x1 PUSH1 0x1 PUSH1 0xE0 SHL SUB NOT DUP4 AND EQ JUMPDEST SWAP3 SWAP2 POP POP JUMP JUMPDEST PUSH0 DUP3 DUP2 MSTORE PUSH1 0x20 DUP2 SWAP1 MSTORE PUSH1 0x40 SWAP1 KECCAK256 PUSH1 0x1 ADD SLOAD PUSH2 0x2CF DUP2 PUSH2 0x7FF JUMP JUMPDEST PUSH2 0x2D9 DUP4 DUP4 PUSH2 0x809 JUMP JUMPDEST POP POP POP POP JUMP JUMPDEST PUSH1 0x1 PUSH1 0x1 PUSH1 0xA0 SHL SUB DUP2 AND CALLER EQ PUSH2 0x308 JUMPI PUSH1 0x40 MLOAD PUSH4 0x334BD919 PUSH1 0xE1 SHL DUP2 MSTORE PUSH1 0x4 ADD PUSH1 0x40 MLOAD DUP1 SWAP2 SUB SWAP1 REVERT JUMPDEST PUSH2 0x312 DUP3 DUP3 PUSH2 0x898 JUMP JUMPDEST POP POP POP JUMP JUMPDEST PUSH0 PUSH2 0x321 DUP2 PUSH2 0x7FF JUMP JUMPDEST PUSH2 0x329 PUSH2 0x901 JUMP JUMPDEST POP JUMP JUMPDEST PUSH0 DUP3 DUP2 MSTORE PUSH1 0x3 PUSH1 0x20 MSTORE PUSH1 0x40 DUP2 KECCAK256 PUSH1 0x4 DUP2 ADD SLOAD DUP4 EQ DUP1 ISZERO PUSH2 0x359 JUMPI POP PUSH1 0x5 DUP2 ADD SLOAD PUSH8 0xFFFFFFFFFFFFFFFF AND ISZERO ISZERO JUMPDEST SWAP5 SWAP4 POP POP POP POP JUMP JUMPDEST PUSH0 PUSH2 0x36B DUP2 PUSH2 0x7FF JUMP JUMPDEST PUSH2 0x329 PUSH2 0x953 JUMP JUMPDEST PUSH0 SWAP2 DUP3 MSTORE PUSH1 0x20 DUP3 DUP2 MSTORE PUSH1 0x40 DUP1 DUP5 KECCAK256 PUSH1 0x1 PUSH1 0x1 PUSH1 0xA0 SHL SUB SWAP4 SWAP1 SWAP4 AND DUP5 MSTORE SWAP2 SWAP1 MSTORE SWAP1 KECCAK256 SLOAD PUSH1 0xFF AND SWAP1 JUMP JUMPDEST PUSH1 0x3 PUSH1 0x20 DUP2 SWAP1 MSTORE PUSH0 SWAP2 DUP3 MSTORE PUSH1 0x40 SWAP1 SWAP2 KECCAK256 DUP1 SLOAD PUSH1 0x1 DUP3 ADD SLOAD PUSH1 0x2 DUP4 ADD SLOAD SWAP4 DUP4 ADD SLOAD PUSH1 0x4 DUP5 ADD SLOAD PUSH1 0x5 DUP6 ADD SLOAD PUSH1 0x6 DUP7 ADD DUP1 SLOAD PUSH1 0xFF SWAP1 SWAP7 AND SWAP8 SWAP5 SWAP7 SWAP5 SWAP6 SWAP4 SWAP5 SWAP3 SWAP4 PUSH8 0xFFFFFFFFFFFFFFFF DUP4 AND SWAP4 PUSH1 0x1 PUSH1 0x40 SHL SWAP1 SWAP4 DIV PUSH1 0x1 PUSH1 0x1 PUSH1 0xA0 SHL SUB AND SWAP3 SWAP2 SWAP1 PUSH2 0x402 SWAP1 PUSH2 0xC17 JUMP JUMPDEST DUP1 PUSH1 0x1F ADD PUSH1 0x20 DUP1 SWAP2 DIV MUL PUSH1 0x20 ADD PUSH1 0x40 MLOAD SWAP1 DUP2 ADD PUSH1 0x40 MSTORE DUP1 SWAP3 SWAP2 SWAP1 DUP2 DUP2 MSTORE PUSH1 0x20 ADD DUP3 DUP1 SLOAD PUSH2 0x42E SWAP1 PUSH2 0xC17 JUMP JUMPDEST DUP1 ISZERO PUSH2 0x479 JUMPI DUP1 PUSH1 0x1F LT PUSH2 0x450 JUMPI PUSH2 0x100 DUP1 DUP4 SLOAD DIV MUL DUP4 MSTORE SWAP2 PUSH1 0x20 ADD SWAP2 PUSH2 0x479 JUMP JUMPDEST DUP3 ADD SWAP2 SWAP1 PUSH0 MSTORE PUSH1 0x20 PUSH0 KECCAK256 SWAP1 JUMPDEST DUP2 SLOAD DUP2 MSTORE SWAP1 PUSH1 0x1 ADD SWAP1 PUSH1 0x20 ADD DUP1 DUP4 GT PUSH2 0x45C JUMPI DUP3 SWAP1 SUB PUSH1 0x1F AND DUP3 ADD SWAP2 JUMPDEST POP POP POP POP POP SWAP1 POP DUP9 JUMP JUMPDEST PUSH0 PUSH2 0x48C PUSH2 0x98E JUMP JUMPDEST PUSH32 0x566C814873EED56A69B28C40AB27CC2CB150D74068BAE3E884CCD44F8DE60F8A PUSH2 0x4B6 DUP2 PUSH2 0x7FF JUMP JUMPDEST DUP7 PUSH2 0x501 JUMPI PUSH1 0x40 MLOAD PUSH3 0x461BCD PUSH1 0xE5 SHL DUP2 MSTORE PUSH1 0x20 PUSH1 0x4 DUP3 ADD MSTORE PUSH1 0x16 PUSH1 0x24 DUP3 ADD MSTORE PUSH22 0x10555112550E881A5B9D985B1A59081CDD589A9958DD PUSH1 0x52 SHL PUSH1 0x44 DUP3 ADD MSTORE PUSH1 0x64 ADD JUMPDEST PUSH1 0x40 MLOAD DUP1 SWAP2 SUB SWAP1 REVERT JUMPDEST DUP6 PUSH2 0x54E JUMPI PUSH1 0x40 MLOAD PUSH3 0x461BCD PUSH1 0xE5 SHL DUP2 MSTORE PUSH1 0x20 PUSH1 0x4 DUP3 ADD MSTORE PUSH1 0x17 PUSH1 0x24 DUP3 ADD MSTORE PUSH32 0x41554449543A20696E76616C6964207265736F75726365000000000000000000 PUSH1 0x44 DUP3 ADD MSTORE PUSH1 0x64 ADD PUSH2 0x4F8 JUMP JUMPDEST DUP5 PUSH2 0x59B JUMPI PUSH1 0x40 MLOAD PUSH3 0x461BCD PUSH1 0xE5 SHL DUP2 MSTORE PUSH1 0x20 PUSH1 0x4 DUP3 ADD MSTORE PUSH1 0x18 PUSH1 0x24 DUP3 ADD MSTORE PUSH32 0x41554449543A20696E76616C6964206461746120686173680000000000000000 PUSH1 0x44 DUP3 ADD MSTORE PUSH1 0x64 ADD PUSH2 0x4F8 JUMP JUMPDEST DUP3 PUSH2 0x5E8 JUMPI PUSH1 0x40 MLOAD PUSH3 0x461BCD PUSH1 0xE5 SHL DUP2 MSTORE PUSH1 0x20 PUSH1 0x4 DUP3 ADD MSTORE PUSH1 0x19 PUSH1 0x24 DUP3 ADD MSTORE PUSH32 0x41554449543A20656D70747920706172746E657220636F646500000000000000 PUSH1 0x44 DUP3 ADD MSTORE PUSH1 0x64 ADD PUSH2 0x4F8 JUMP JUMPDEST PUSH1 0x2 DUP1 SLOAD SWAP1 PUSH0 PUSH2 0x5F7 DUP4 PUSH2 0xC4F JUMP JUMPDEST SWAP2 SWAP1 POP SSTORE SWAP2 POP PUSH0 PUSH1 0x4 SLOAD SWAP1 POP PUSH1 0x40 MLOAD DUP1 PUSH2 0x100 ADD PUSH1 0x40 MSTORE DUP1 DUP11 PUSH1 0xE DUP2 GT ISZERO PUSH2 0x621 JUMPI PUSH2 0x621 PUSH2 0xAB2 JUMP JUMPDEST DUP2 MSTORE PUSH1 0x20 ADD DUP10 DUP2 MSTORE PUSH1 0x20 ADD DUP9 DUP2 MSTORE PUSH1 0x20 ADD DUP8 DUP2 MSTORE PUSH1 0x20 ADD DUP3 DUP2 MSTORE PUSH1 0x20 ADD TIMESTAMP PUSH8 0xFFFFFFFFFFFFFFFF AND DUP2 MSTORE PUSH1 0x20 ADD CALLER PUSH1 0x1 PUSH1 0x1 PUSH1 0xA0 SHL SUB AND DUP2 MSTORE PUSH1 0x20 ADD DUP7 DUP7 DUP1 DUP1 PUSH1 0x1F ADD PUSH1 0x20 DUP1 SWAP2 DIV MUL PUSH1 0x20 ADD PUSH1 0x40 MLOAD SWAP1 DUP2 ADD PUSH1 0x40 MSTORE DUP1 SWAP4 SWAP3 SWAP2 SWAP1 DUP2 DUP2 MSTORE PUSH1 0x20 ADD DUP4 DUP4 DUP1 DUP3 DUP5 CALLDATACOPY PUSH0 SWAP3 ADD DUP3 SWAP1 MSTORE POP SWAP4 SWAP1 SWAP5 MSTORE POP POP DUP6 DUP2 MSTORE PUSH1 0x3 PUSH1 0x20 MSTORE PUSH1 0x40 SWAP1 KECCAK256 DUP3 MLOAD DUP2 SLOAD SWAP2 SWAP3 POP SWAP1 DUP3 SWAP1 PUSH1 0xFF NOT AND PUSH1 0x1 DUP4 PUSH1 0xE DUP2 GT ISZERO PUSH2 0x6C2 JUMPI PUSH2 0x6C2 PUSH2 0xAB2 JUMP JUMPDEST MUL OR SWAP1 SSTORE POP PUSH1 0x20 DUP3 ADD MLOAD PUSH1 0x1 DUP3 ADD SSTORE PUSH1 0x40 DUP3 ADD MLOAD PUSH1 0x2 DUP3 ADD SSTORE PUSH1 0x60 DUP3 ADD MLOAD PUSH1 0x3 DUP3 ADD SSTORE PUSH1 0x80 DUP3 ADD MLOAD PUSH1 0x4 DUP3 ADD SSTORE PUSH1 0xA0 DUP3 ADD MLOAD PUSH1 0x5 DUP3 ADD DUP1 SLOAD PUSH1 0xC0 DUP6 ADD MLOAD PUSH1 0x1 PUSH1 0x1 PUSH1 0xA0 SHL SUB AND PUSH1 0x1 PUSH1 0x40 SHL MUL PUSH1 0x1 PUSH1 0x1 PUSH1 0xE0 SHL SUB NOT SWAP1 SWAP2 AND PUSH8 0xFFFFFFFFFFFFFFFF SWAP1 SWAP4 AND SWAP3 SWAP1 SWAP3 OR SWAP2 SWAP1 SWAP2 OR SWAP1 SSTORE PUSH1 0xE0 DUP3 ADD MLOAD PUSH1 0x6 DUP3 ADD SWAP1 PUSH2 0x744 SWAP1 DUP3 PUSH2 0xCD2 JUMP JUMPDEST POP POP PUSH1 0x40 DUP1 MLOAD PUSH1 0x20 DUP2 ADD DUP7 SWAP1 MSTORE SWAP1 DUP2 ADD DUP9 SWAP1 MSTORE PUSH1 0x60 DUP2 ADD DUP4 SWAP1 MSTORE PUSH1 0x80 ADD SWAP1 POP PUSH1 0x40 DUP1 MLOAD PUSH1 0x1F NOT DUP2 DUP5 SUB ADD DUP2 MSTORE SWAP2 SWAP1 MSTORE DUP1 MLOAD PUSH1 0x20 SWAP1 SWAP2 ADD KECCAK256 PUSH1 0x4 SSTORE DUP8 DUP10 PUSH1 0xE DUP2 GT ISZERO PUSH2 0x791 JUMPI PUSH2 0x791 PUSH2 0xAB2 JUMP JUMPDEST DUP5 PUSH32 0x69E8BCE0DF40E5DF4DAD28011D934B6FBE108D334A686B03013CF2A8662661C3 DUP11 DUP10 DUP10 DUP8 PUSH1 0x40 MLOAD PUSH2 0x7C7 SWAP5 SWAP4 SWAP3 SWAP2 SWAP1 PUSH2 0xD92 JUMP JUMPDEST PUSH1 0x40 MLOAD DUP1 SWAP2 SUB SWAP1 LOG4 POP POP SWAP7 SWAP6 POP POP POP POP POP POP JUMP JUMPDEST PUSH0 DUP3 DUP2 MSTORE PUSH1 0x20 DUP2 SWAP1 MSTORE PUSH1 0x40 SWAP1 KECCAK256 PUSH1 0x1 ADD SLOAD PUSH2 0x7F5 DUP2 PUSH2 0x7FF JUMP JUMPDEST PUSH2 0x2D9 DUP4 DUP4 PUSH2 0x898 JUMP JUMPDEST PUSH2 0x329 DUP2 CALLER PUSH2 0x9B4 JUMP JUMPDEST PUSH0 PUSH2 0x814 DUP4 DUP4 PUSH2 0x373 JUMP JUMPDEST PUSH2 0x891 JUMPI PUSH0 DUP4 DUP2 MSTORE PUSH1 0x20 DUP2 DUP2 MSTORE PUSH1 0x40 DUP1 DUP4 KECCAK256 PUSH1 0x1 PUSH1 0x1 PUSH1 0xA0 SHL SUB DUP7 AND DUP5 MSTORE SWAP1 SWAP2 MSTORE SWAP1 KECCAK256 DUP1 SLOAD PUSH1 0xFF NOT AND PUSH1 0x1 OR SWAP1 SSTORE PUSH2 0x849 CALLER SWAP1 JUMP JUMPDEST PUSH1 0x1 PUSH1 0x1 PUSH1 0xA0 SHL SUB AND DUP3 PUSH1 0x1 PUSH1 0x1 PUSH1 0xA0 SHL SUB AND DUP5 PUSH32 0x2F8788117E7EFF1D82E926EC794901D17C78024A50270940304540A733656F0D PUSH1 0x40 MLOAD PUSH1 0x40 MLOAD DUP1 SWAP2 SUB SWAP1 LOG4 POP PUSH1 0x1 PUSH2 0x2AF JUMP JUMPDEST POP PUSH0 PUSH2 0x2AF JUMP JUMPDEST PUSH0 PUSH2 0x8A3 DUP4 DUP4 PUSH2 0x373 JUMP JUMPDEST ISZERO PUSH2 0x891 JUMPI PUSH0 DUP4 DUP2 MSTORE PUSH1 0x20 DUP2 DUP2 MSTORE PUSH1 0x40 DUP1 DUP4 KECCAK256 PUSH1 0x1 PUSH1 0x1 PUSH1 0xA0 SHL SUB DUP7 AND DUP1 DUP6 MSTORE SWAP3 MSTORE DUP1 DUP4 KECCAK256 DUP1 SLOAD PUSH1 0xFF NOT AND SWAP1 SSTORE MLOAD CALLER SWAP3 DUP7 SWAP2 PUSH32 0xF6391F5C32D9C69D2A47EA670B442974B53935D1EDC7FD64EB21E047A839171B SWAP2 SWAP1 LOG4 POP PUSH1 0x1 PUSH2 0x2AF JUMP JUMPDEST PUSH2 0x909 PUSH2 0x9F1 JUMP JUMPDEST PUSH1 0x1 DUP1 SLOAD PUSH1 0xFF NOT AND SWAP1 SSTORE PUSH32 0x5DB9EE0A495BF2E6FF9C91A7834C1BA4FDD244A5E8AA4E537BD38AEAE4B073AA CALLER JUMPDEST PUSH1 0x40 MLOAD PUSH1 0x1 PUSH1 0x1 PUSH1 0xA0 SHL SUB SWAP1 SWAP2 AND DUP2 MSTORE PUSH1 0x20 ADD PUSH1 0x40 MLOAD DUP1 SWAP2 SUB SWAP1 LOG1 JUMP JUMPDEST PUSH2 0x95B PUSH2 0x98E JUMP JUMPDEST PUSH1 0x1 DUP1 SLOAD PUSH1 0xFF NOT AND DUP2 OR SWAP1 SSTORE PUSH32 0x62E78CEA01BEE320CD4E420270B5EA74000D11B0C9F74754EBDBFC544B05A258 CALLER PUSH2 0x936 JUMP JUMPDEST PUSH1 0x1 SLOAD PUSH1 0xFF AND ISZERO PUSH2 0x9B2 JUMPI PUSH1 0x40 MLOAD PUSH4 0xD93C0665 PUSH1 0xE0 SHL DUP2 MSTORE PUSH1 0x4 ADD PUSH1 0x40 MLOAD DUP1 SWAP2 SUB SWAP1 REVERT JUMPDEST JUMP JUMPDEST PUSH2 0x9BE DUP3 DUP3 PUSH2 0x373 JUMP JUMPDEST PUSH2 0x9ED JUMPI PUSH1 0x40 MLOAD PUSH4 0xE2517D3F PUSH1 0xE0 SHL DUP2 MSTORE PUSH1 0x1 PUSH1 0x1 PUSH1 0xA0 SHL SUB DUP3 AND PUSH1 0x4 DUP3 ADD MSTORE PUSH1 0x24 DUP2 ADD DUP4 SWAP1 MSTORE PUSH1 0x44 ADD PUSH2 0x4F8 JUMP JUMPDEST POP POP JUMP JUMPDEST PUSH1 0x1 SLOAD PUSH1 0xFF AND PUSH2 0x9B2 JUMPI PUSH1 0x40 MLOAD PUSH4 0x8DFC202B PUSH1 0xE0 SHL DUP2 MSTORE PUSH1 0x4 ADD PUSH1 0x40 MLOAD DUP1 SWAP2 SUB SWAP1 REVERT JUMPDEST PUSH0 PUSH1 0x20 DUP3 DUP5 SUB SLT ISZERO PUSH2 0xA24 JUMPI PUSH0 DUP1 REVERT JUMPDEST DUP2 CALLDATALOAD PUSH1 0x1 PUSH1 0x1 PUSH1 0xE0 SHL SUB NOT DUP2 AND DUP2 EQ PUSH2 0xA3B JUMPI PUSH0 DUP1 REVERT JUMPDEST SWAP4 SWAP3 POP POP POP JUMP JUMPDEST PUSH0 PUSH1 0x20 DUP3 DUP5 SUB SLT ISZERO PUSH2 0xA52 JUMPI PUSH0 DUP1 REVERT JUMPDEST POP CALLDATALOAD SWAP2 SWAP1 POP JUMP JUMPDEST PUSH0 DUP1 PUSH1 0x40 DUP4 DUP6 SUB SLT ISZERO PUSH2 0xA6A JUMPI PUSH0 DUP1 REVERT JUMPDEST DUP3 CALLDATALOAD SWAP2 POP PUSH1 0x20 DUP4 ADD CALLDATALOAD PUSH1 0x1 PUSH1 0x1 PUSH1 0xA0 SHL SUB DUP2 AND DUP2 EQ PUSH2 0xA87 JUMPI PUSH0 DUP1 REVERT JUMPDEST DUP1 SWAP2 POP POP SWAP3 POP SWAP3 SWAP1 POP JUMP JUMPDEST PUSH0 DUP1 PUSH1 0x40 DUP4 DUP6 SUB SLT ISZERO PUSH2 0xAA3 JUMPI PUSH0 DUP1 REVERT JUMPDEST POP POP DUP1 CALLDATALOAD SWAP3 PUSH1 0x20 SWAP1 SWAP2 ADD CALLDATALOAD SWAP2 POP JUMP JUMPDEST PUSH4 0x4E487B71 PUSH1 0xE0 SHL PUSH0 MSTORE PUSH1 0x21 PUSH1 0x4 MSTORE PUSH1 0x24 PUSH0 REVERT JUMPDEST PUSH0 PUSH2 0x100 PUSH1 0xF DUP12 LT PUSH2 0xAE6 JUMPI PUSH4 0x4E487B71 PUSH1 0xE0 SHL PUSH0 MSTORE PUSH1 0x21 PUSH1 0x4 MSTORE PUSH1 0x24 PUSH0 REVERT JUMPDEST DUP11 DUP4 MSTORE PUSH1 0x20 DUP11 PUSH1 0x20 DUP6 ADD MSTORE DUP10 PUSH1 0x40 DUP6 ADD MSTORE DUP9 PUSH1 0x60 DUP6 ADD MSTORE DUP8 PUSH1 0x80 DUP6 ADD MSTORE PUSH8 0xFFFFFFFFFFFFFFFF DUP8 AND PUSH1 0xA0 DUP6 ADD MSTORE PUSH1 0x1 DUP1 PUSH1 0xA0 SHL SUB DUP7 AND PUSH1 0xC0 DUP6 ADD MSTORE DUP2 PUSH1 0xE0 DUP6 ADD MSTORE DUP5 MLOAD DUP1 DUP4 DUP7 ADD MSTORE PUSH0 SWAP3 POP JUMPDEST DUP1 DUP4 LT ISZERO PUSH2 0xB51 JUMPI DUP6 DUP4 ADD DUP3 ADD MLOAD DUP6 DUP5 ADD PUSH2 0x120 ADD MSTORE SWAP2 DUP2 ADD SWAP2 PUSH2 0xB32 JUMP JUMPDEST PUSH2 0x120 SWAP3 POP PUSH0 DUP4 DUP3 DUP8 ADD ADD MSTORE DUP3 PUSH1 0x1F NOT PUSH1 0x1F DUP4 ADD AND DUP7 ADD ADD SWAP4 POP POP POP POP SWAP10 SWAP9 POP POP POP POP POP POP POP POP POP JUMP JUMPDEST PUSH0 DUP1 PUSH0 DUP1 PUSH0 DUP1 PUSH1 0xA0 DUP8 DUP10 SUB SLT ISZERO PUSH2 0xB90 JUMPI PUSH0 DUP1 REVERT JUMPDEST DUP7 CALLDATALOAD PUSH1 0xF DUP2 LT PUSH2 0xB9E JUMPI PUSH0 DUP1 REVERT JUMPDEST SWAP6 POP PUSH1 0x20 DUP8 ADD CALLDATALOAD SWAP5 POP PUSH1 0x40 DUP8 ADD CALLDATALOAD SWAP4 POP PUSH1 0x60 DUP8 ADD CALLDATALOAD SWAP3 POP PUSH1 0x80 DUP8 ADD CALLDATALOAD PUSH8 0xFFFFFFFFFFFFFFFF DUP1 DUP3 GT ISZERO PUSH2 0xBCF JUMPI PUSH0 DUP1 REVERT JUMPDEST DUP2 DUP10 ADD SWAP2 POP DUP10 PUSH1 0x1F DUP4 ADD SLT PUSH2 0xBE2 JUMPI PUSH0 DUP1 REVERT JUMPDEST DUP2 CALLDATALOAD DUP2 DUP2 GT ISZERO PUSH2 0xBF0 JUMPI PUSH0 DUP1 REVERT JUMPDEST DUP11 PUSH1 0x20 DUP3 DUP6 ADD ADD GT ISZERO PUSH2 0xC01 JUMPI PUSH0 DUP1 REVERT JUMPDEST PUSH1 0x20 DUP4 ADD SWAP5 POP DUP1 SWAP4 POP POP POP POP SWAP3 SWAP6 POP SWAP3 SWAP6 POP SWAP3 SWAP6 JUMP JUMPDEST PUSH1 0x1 DUP2 DUP2 SHR SWAP1 DUP3 AND DUP1 PUSH2 0xC2B JUMPI PUSH1 0x7F DUP3 AND SWAP2 POP JUMPDEST PUSH1 0x20 DUP3 LT DUP2 SUB PUSH2 0xC49 JUMPI PUSH4 0x4E487B71 PUSH1 0xE0 SHL PUSH0 MSTORE PUSH1 0x22 PUSH1 0x4 MSTORE PUSH1 0x24 PUSH0 REVERT JUMPDEST POP SWAP2 SWAP1 POP JUMP JUMPDEST PUSH0 PUSH1 0x1 DUP3 ADD PUSH2 0xC6C JUMPI PUSH4 0x4E487B71 PUSH1 0xE0 SHL PUSH0 MSTORE PUSH1 0x11 PUSH1 0x4 MSTORE PUSH1 0x24 PUSH0 REVERT JUMPDEST POP PUSH1 0x1 ADD SWAP1 JUMP JUMPDEST PUSH4 0x4E487B71 PUSH1 0xE0 SHL PUSH0 MSTORE PUSH1 0x41 PUSH1 0x4 MSTORE PUSH1 0x24 PUSH0 REVERT JUMPDEST PUSH1 0x1F DUP3 GT ISZERO PUSH2 0x312 JUMPI DUP1 PUSH0 MSTORE PUSH1 0x20 PUSH0 KECCAK256 PUSH1 0x1F DUP5 ADD PUSH1 0x5 SHR DUP2 ADD PUSH1 0x20 DUP6 LT ISZERO PUSH2 0xCAC JUMPI POP DUP1 JUMPDEST PUSH1 0x1F DUP5 ADD PUSH1 0x5 SHR DUP3 ADD SWAP2 POP JUMPDEST DUP2 DUP2 LT ISZERO PUSH2 0xCCB JUMPI PUSH0 DUP2 SSTORE PUSH1 0x1 ADD PUSH2 0xCB8 JUMP JUMPDEST POP POP POP POP POP JUMP JUMPDEST DUP2 MLOAD PUSH8 0xFFFFFFFFFFFFFFFF DUP2 GT ISZERO PUSH2 0xCEC JUMPI PUSH2 0xCEC PUSH2 0xC73 JUMP JUMPDEST PUSH2 0xD00 DUP2 PUSH2 0xCFA DUP5 SLOAD PUSH2 0xC17 JUMP JUMPDEST DUP5 PUSH2 0xC87 JUMP JUMPDEST PUSH1 0x20 DUP1 PUSH1 0x1F DUP4 GT PUSH1 0x1 DUP2 EQ PUSH2 0xD33 JUMPI PUSH0 DUP5 ISZERO PUSH2 0xD1C JUMPI POP DUP6 DUP4 ADD MLOAD JUMPDEST PUSH0 NOT PUSH1 0x3 DUP7 SWAP1 SHL SHR NOT AND PUSH1 0x1 DUP6 SWAP1 SHL OR DUP6 SSTORE PUSH2 0xD8A JUMP JUMPDEST PUSH0 DUP6 DUP2 MSTORE PUSH1 0x20 DUP2 KECCAK256 PUSH1 0x1F NOT DUP7 AND SWAP2 JUMPDEST DUP3 DUP2 LT ISZERO PUSH2 0xD61 JUMPI DUP9 DUP7 ADD MLOAD DUP3 SSTORE SWAP5 DUP5 ADD SWAP5 PUSH1 0x1 SWAP1 SWAP2 ADD SWAP1 DUP5 ADD PUSH2 0xD42 JUMP JUMPDEST POP DUP6 DUP3 LT ISZERO PUSH2 0xD7E JUMPI DUP8 DUP6 ADD MLOAD PUSH0 NOT PUSH1 0x3 DUP9 SWAP1 SHL PUSH1 0xF8 AND SHR NOT AND DUP2 SSTORE JUMPDEST POP POP PUSH1 0x1 DUP5 PUSH1 0x1 SHL ADD DUP6 SSTORE JUMPDEST POP POP POP POP POP POP JUMP JUMPDEST DUP5 DUP2 MSTORE PUSH1 0x60 PUSH1 0x20 DUP3 ADD MSTORE DUP3 PUSH1 0x60 DUP3 ADD MSTORE DUP3 DUP5 PUSH1 0x80 DUP4 ADD CALLDATACOPY PUSH0 PUSH1 0x80 DUP5 DUP4 ADD ADD MSTORE PUSH0 PUSH1 0x80 PUSH1 0x1F NOT PUSH1 0x1F DUP7 ADD AND DUP4 ADD ADD SWAP1 POP DUP3 PUSH1 0x40 DUP4 ADD MSTORE SWAP6 SWAP5 POP POP POP POP POP JUMP INVALID LOG2 PUSH5 0x6970667358 0x22 SLT KECCAK256 0xB7 0xD1 0xD5 0xAE SGT 0xCD SLOAD PUSH5 0x9BA6F920DC 0xBD DUP7 CALLCODE SWAP13 PUSH32 0xD9D1FE964406E25D36A6923C3B2164736F6C6343000818003300000000000000 "},"methodIdentifiers":{"DEFAULT_ADMIN_ROLE()":"a217fddf","INSPECTOR_ROLE()":"e3a3c522","LOGGER_ROLE()":"7bf0fbde","entries(uint256)":"b30906d4","entryCount()":"0cbb0f83","getRoleAdmin(bytes32)":"248a9ca3","grantRole(bytes32,address)":"2f2ff15d","hasRole(bytes32,address)":"91d14854","lastEntryHash()":"32101440","log(uint8,bytes32,bytes32,bytes32,string)":"be0ac8e4","pause()":"8456cb59","paused()":"5c975abb","renounceRole(bytes32,address)":"36568abe","revokeRole(bytes32,address)":"d547741f","supportsInterface(bytes4)":"01ffc9a7","unpause()":"3f4ba83a","verifyEntryChain(uint256,bytes32)":"7a98608a"}}}}}