{"contracts/WhiteLabelRegistry.sol":{"WhiteLabelRegistry":{"abi":[{"inputs":[{"internalType":"address","name":"admin","type":"address"}],"stateMutability":"nonpayable","type":"constructor"},{"inputs":[],"name":"AccessControlBadConfirmation","type":"error"},{"inputs":[{"internalType":"address","name":"account","type":"address"},{"internalType":"bytes32","name":"neededRole","type":"bytes32"}],"name":"AccessControlUnauthorizedAccount","type":"error"},{"inputs":[],"name":"EnforcedPause","type":"error"},{"inputs":[],"name":"ExpectedPause","type":"error"},{"anonymous":false,"inputs":[{"indexed":true,"internalType":"string","name":"partnerCode","type":"string"},{"indexed":true,"internalType":"address","name":"operator","type":"address"},{"indexed":false,"internalType":"bytes32","name":"kycHash","type":"bytes32"}],"name":"PartnerActivated","type":"event"},{"anonymous":false,"inputs":[{"indexed":true,"internalType":"string","name":"partnerCode","type":"string"},{"indexed":false,"internalType":"string","name":"name","type":"string"},{"indexed":false,"internalType":"enum WhiteLabelRegistry.PartnerType","name":"partnerType","type":"uint8"},{"indexed":false,"internalType":"address","name":"partnerWallet","type":"address"},{"indexed":false,"internalType":"string","name":"jurisdictionCode","type":"string"}],"name":"PartnerRegistered","type":"event"},{"anonymous":false,"inputs":[{"indexed":true,"internalType":"string","name":"partnerCode","type":"string"},{"indexed":true,"internalType":"address","name":"operator","type":"address"},{"indexed":false,"internalType":"string","name":"reason","type":"string"}],"name":"PartnerRevoked","type":"event"},{"anonymous":false,"inputs":[{"indexed":true,"internalType":"string","name":"partnerCode","type":"string"},{"indexed":false,"internalType":"enum WhiteLabelRegistry.SLALevel","name":"oldLevel","type":"uint8"},{"indexed":false,"internalType":"enum WhiteLabelRegistry.SLALevel","name":"newLevel","type":"uint8"},{"indexed":false,"internalType":"bytes32","name":"newContractHash","type":"bytes32"}],"name":"PartnerSLAUpdated","type":"event"},{"anonymous":false,"inputs":[{"indexed":true,"internalType":"string","name":"partnerCode","type":"string"},{"indexed":true,"internalType":"address","name":"operator","type":"address"},{"indexed":false,"internalType":"string","name":"reason","type":"string"}],"name":"PartnerSuspended","type":"event"},{"anonymous":false,"inputs":[{"indexed":false,"internalType":"address","name":"account","type":"address"}],"name":"Paused","type":"event"},{"anonymous":false,"inputs":[{"indexed":true,"internalType":"bytes32","name":"role","type":"bytes32"},{"indexed":true,"internalType":"bytes32","name":"previousAdminRole","type":"bytes32"},{"indexed":true,"internalType":"bytes32","name":"newAdminRole","type":"bytes32"}],"name":"RoleAdminChanged","type":"event"},{"anonymous":false,"inputs":[{"indexed":true,"internalType":"bytes32","name":"role","type":"bytes32"},{"indexed":true,"internalType":"address","name":"account","type":"address"},{"indexed":true,"internalType":"address","name":"sender","type":"address"}],"name":"RoleGranted","type":"event"},{"anonymous":false,"inputs":[{"indexed":true,"internalType":"bytes32","name":"role","type":"bytes32"},{"indexed":true,"internalType":"address","name":"account","type":"address"},{"indexed":true,"internalType":"address","name":"sender","type":"address"}],"name":"RoleRevoked","type":"event"},{"anonymous":false,"inputs":[{"indexed":false,"internalType":"address","name":"account","type":"address"}],"name":"Unpaused","type":"event"},{"inputs":[],"name":"COMPLIANCE_ROLE","outputs":[{"internalType":"bytes32","name":"","type":"bytes32"}],"stateMutability":"view","type":"function"},{"inputs":[],"name":"DEFAULT_ADMIN_ROLE","outputs":[{"internalType":"bytes32","name":"","type":"bytes32"}],"stateMutability":"view","type":"function"},{"inputs":[],"name":"REGISTRAR_ROLE","outputs":[{"internalType":"bytes32","name":"","type":"bytes32"}],"stateMutability":"view","type":"function"},{"inputs":[{"internalType":"string","name":"partnerCode","type":"string"},{"internalType":"bytes32","name":"kycHash","type":"bytes32"}],"name":"activatePartner","outputs":[],"stateMutability":"nonpayable","type":"function"},{"inputs":[],"name":"getAllPartnerCodes","outputs":[{"internalType":"string[]","name":"","type":"string[]"}],"stateMutability":"view","type":"function"},{"inputs":[{"internalType":"string","name":"partnerCode","type":"string"}],"name":"getPartner","outputs":[{"components":[{"internalType":"string","name":"name","type":"string"},{"internalType":"enum WhiteLabelRegistry.PartnerType","name":"partnerType","type":"uint8"},{"internalType":"enum WhiteLabelRegistry.PartnerStatus","name":"status","type":"uint8"},{"internalType":"enum WhiteLabelRegistry.SLALevel","name":"slaLevel","type":"uint8"},{"internalType":"bytes32","name":"contractHash","type":"bytes32"},{"internalType":"bytes32","name":"kycHash","type":"bytes32"},{"internalType":"address","name":"partnerWallet","type":"address"},{"internalType":"uint64","name":"onboardedAt","type":"uint64"},{"internalType":"uint64","name":"lastUpdatedAt","type":"uint64"},{"internalType":"string","name":"jurisdictionCode","type":"string"}],"internalType":"struct WhiteLabelRegistry.Partner","name":"","type":"tuple"}],"stateMutability":"view","type":"function"},{"inputs":[{"internalType":"address","name":"wallet","type":"address"}],"name":"getPartnerCodeByWallet","outputs":[{"internalType":"string","name":"","type":"string"}],"stateMutability":"view","type":"function"},{"inputs":[{"internalType":"bytes32","name":"role","type":"bytes32"}],"name":"getRoleAdmin","outputs":[{"internalType":"bytes32","name":"","type":"bytes32"}],"stateMutability":"view","type":"function"},{"inputs":[{"internalType":"bytes32","name":"role","type":"bytes32"},{"internalType":"address","name":"account","type":"address"}],"name":"grantRole","outputs":[],"stateMutability":"nonpayable","type":"function"},{"inputs":[{"internalType":"bytes32","name":"role","type":"bytes32"},{"internalType":"address","name":"account","type":"address"}],"name":"hasRole","outputs":[{"internalType":"bool","name":"","type":"bool"}],"stateMutability":"view","type":"function"},{"inputs":[{"internalType":"string","name":"partnerCode","type":"string"}],"name":"isActive","outputs":[{"internalType":"bool","name":"","type":"bool"}],"stateMutability":"view","type":"function"},{"inputs":[],"name":"pause","outputs":[],"stateMutability":"nonpayable","type":"function"},{"inputs":[],"name":"paused","outputs":[{"internalType":"bool","name":"","type":"bool"}],"stateMutability":"view","type":"function"},{"inputs":[{"internalType":"string","name":"partnerCode","type":"string"},{"internalType":"string","name":"name","type":"string"},{"internalType":"enum WhiteLabelRegistry.PartnerType","name":"partnerType","type":"uint8"},{"internalType":"enum WhiteLabelRegistry.SLALevel","name":"slaLevel","type":"uint8"},{"internalType":"bytes32","name":"contractHash","type":"bytes32"},{"internalType":"address","name":"partnerWallet","type":"address"},{"internalType":"string","name":"jurisdictionCode","type":"string"}],"name":"registerPartner","outputs":[],"stateMutability":"nonpayable","type":"function"},{"inputs":[{"internalType":"bytes32","name":"role","type":"bytes32"},{"internalType":"address","name":"callerConfirmation","type":"address"}],"name":"renounceRole","outputs":[],"stateMutability":"nonpayable","type":"function"},{"inputs":[{"internalType":"string","name":"partnerCode","type":"string"},{"internalType":"string","name":"reason","type":"string"}],"name":"revokePartner","outputs":[],"stateMutability":"nonpayable","type":"function"},{"inputs":[{"internalType":"bytes32","name":"role","type":"bytes32"},{"internalType":"address","name":"account","type":"address"}],"name":"revokeRole","outputs":[],"stateMutability":"nonpayable","type":"function"},{"inputs":[{"internalType":"bytes4","name":"interfaceId","type":"bytes4"}],"name":"supportsInterface","outputs":[{"internalType":"bool","name":"","type":"bool"}],"stateMutability":"view","type":"function"},{"inputs":[{"internalType":"string","name":"partnerCode","type":"string"},{"internalType":"string","name":"reason","type":"string"}],"name":"suspendPartner","outputs":[],"stateMutability":"nonpayable","type":"function"},{"inputs":[],"name":"unpause","outputs":[],"stateMutability":"nonpayable","type":"function"},{"inputs":[{"internalType":"string","name":"partnerCode","type":"string"},{"internalType":"enum WhiteLabelRegistry.SLALevel","name":"newLevel","type":"uint8"},{"internalType":"bytes32","name":"newContractHash","type":"bytes32"}],"name":"updateSLA","outputs":[],"stateMutability":"nonpayable","type":"function"}],"evm":{"bytecode":{"linkReferences":{},"object":"608060405234801562000010575f80fd5b50604051620020853803806200208583398101604081905262000033916200019c565b6001600160a01b038116620000825760405162461bcd60e51b81526020600482015260116024820152702ba61d1034b73b30b634b21030b236b4b760791b604482015260640160405180910390fd5b6200008e5f82620000f0565b50620000bb7fedcc084d3dcd65a1f7f23c65c46722faca6953d28e43150a467cf43e5c30923882620000f0565b50620000e87f442a94f1a1fac79af32856af2a64f63648cfa2ef3b98610a5bb7cbec4cee698582620000f0565b5050620001cb565b5f828152602081815260408083206001600160a01b038516845290915281205460ff1662000193575f838152602081815260408083206001600160a01b03861684529091529020805460ff191660011790556200014a3390565b6001600160a01b0316826001600160a01b0316847f2f8788117e7eff1d82e926ec794901d17c78024a50270940304540a733656f0d60405160405180910390a450600162000196565b505f5b92915050565b5f60208284031215620001ad575f80fd5b81516001600160a01b0381168114620001c4575f80fd5b9392505050565b611eac80620001d95f395ff3fe608060405234801561000f575f80fd5b5060043610610132575f3560e01c806367eb28d3116100b4578063b58c5fca11610079578063b58c5fca14610280578063b6c919ec14610293578063c8902a21146102b3578063c8f044a2146102c6578063d547741f146102d9578063f68e9553146102ec575f80fd5b806367eb28d31461023857806374ac4b581461024b5780638456cb591461025e57806391d1485414610266578063a217fddf14610279575f80fd5b806334b2e85f116100fa57806334b2e85f146101ea57806336568abe146101ff5780633f4ba83a146102125780635c975abb1461021a5780636750075e14610225575f80fd5b806301ffc9a714610136578063062d3bd71461015e5780632246184514610193578063248a9ca3146101b35780632f2ff15d146101d5575b5f80fd5b610149610144366004611686565b610313565b60405190151581526020015b60405180910390f35b6101857f442a94f1a1fac79af32856af2a64f63648cfa2ef3b98610a5bb7cbec4cee698581565b604051908152602001610155565b6101a66101a13660046116f8565b610349565b60405161015591906117c1565b6101856101c13660046118a5565b5f9081526020819052604090206001015490565b6101e86101e33660046118d7565b6105e3565b005b6101f261060d565b6040516101559190611901565b6101e861020d3660046118d7565b6106e1565b6101e8610719565b60015460ff16610149565b6101e8610233366004611963565b61072e565b6101e8610246366004611963565b6108c8565b6101e86102593660046119c9565b610a63565b6101e8610c13565b6101496102743660046118d7565b610c25565b6101855f81565b6101e861028e366004611a1e565b610c4d565b6102a66102a1366004611a75565b610dee565b6040516101559190611a8e565b6101496102c13660046116f8565b610e97565b6101e86102d4366004611aa0565b610ee1565b6101e86102e73660046118d7565b61144d565b6101857fedcc084d3dcd65a1f7f23c65c46722faca6953d28e43150a467cf43e5c30923881565b5f6001600160e01b03198216637965db0b60e01b148061034357506301ffc9a760e01b6001600160e01b03198316145b92915050565b61039e60408051610140810190915260608152602081015f81526020015f81526020015f81525f602082018190526040820181905260608083018290526080830182905260a083019190915260c09091015290565b600283836040516103b0929190611b76565b9081526020016040518091039020604051806101400160405290815f820180546103d990611b85565b80601f016020809104026020016040519081016040528092919081815260200182805461040590611b85565b80156104505780601f1061042757610100808354040283529160200191610450565b820191905f5260205f20905b81548152906001019060200180831161043357829003601f168201915b5050509183525050600182015460209091019060ff16600581111561047757610477611779565b600581111561048857610488611779565b81526020016001820160019054906101000a900460ff1660038111156104b0576104b0611779565b60038111156104c1576104c1611779565b81526020016001820160029054906101000a900460ff1660028111156104e9576104e9611779565b60028111156104fa576104fa611779565b8152600282015460208201526003820154604082015260048201546001600160a01b03811660608301526001600160401b03600160a01b9091048116608083015260058301541660a082015260068201805460c09092019161055b90611b85565b80601f016020809104026020016040519081016040528092919081815260200182805461058790611b85565b80156105d25780601f106105a9576101008083540402835291602001916105d2565b820191905f5260205f20905b8154815290600101906020018083116105b557829003601f168201915b505050505081525050905092915050565b5f828152602081905260409020600101546105fd81611471565b610607838361147b565b50505050565b60606004805480602002602001604051908101604052809291908181526020015f905b828210156106d8578382905f5260205f2001805461064d90611b85565b80601f016020809104026020016040519081016040528092919081815260200182805461067990611b85565b80156106c45780601f1061069b576101008083540402835291602001916106c4565b820191905f5260205f20905b8154815290600101906020018083116106a757829003601f168201915b505050505081526020019060010190610630565b50505050905090565b6001600160a01b038116331461070a5760405163334bd91960e11b815260040160405180910390fd5b610714828261150a565b505050565b5f61072381611471565b61072b611573565b50565b5f61073881611471565b5f6002868660405161074b929190611b76565b90815260405190819003602001902060048101549091506001600160401b03600160a01b909104166107985760405162461bcd60e51b815260040161078f90611bbd565b60405180910390fd5b60036001820154610100900460ff1660038111156107b8576107b8611779565b036107fb5760405162461bcd60e51b815260206004820152601360248201527215d30e88185b1c9958591e481c995d9bdad959606a1b604482015260640161078f565b8261083e5760405162461bcd60e51b815260206004820152601360248201527215d30e881c99585cdbdb881c995c5d5a5c9959606a1b604482015260640161078f565b60018101805461ff00191661030017905560058101805467ffffffffffffffff1916426001600160401b0316179055604051339061087f9088908890611b76565b60405180910390207fa53fffe62cf6ac760a61a5952d6b9f76737945b95f31ba35b2e47f9eb6ed62b586866040516108b8929190611c0c565b60405180910390a3505050505050565b7f442a94f1a1fac79af32856af2a64f63648cfa2ef3b98610a5bb7cbec4cee69856108f281611471565b5f60028686604051610905929190611b76565b90815260405190819003602001902060048101549091506001600160401b03600160a01b909104166109495760405162461bcd60e51b815260040161078f90611bbd565b600180820154610100900460ff16600381111561096857610968611779565b146109a65760405162461bcd60e51b815260206004820152600e60248201526d574c3a206e6f742061637469766560901b604482015260640161078f565b826109e95760405162461bcd60e51b815260206004820152601360248201527215d30e881c99585cdbdb881c995c5d5a5c9959606a1b604482015260640161078f565b60018101805461ff00191661020017905560058101805467ffffffffffffffff1916426001600160401b03161790556040513390610a2a9088908890611b76565b60405180910390207f8b921fa317662d18e9d074b178677b629f12315301e0ac3da0fb36844be1a81886866040516108b8929190611c0c565b7f442a94f1a1fac79af32856af2a64f63648cfa2ef3b98610a5bb7cbec4cee6985610a8d81611471565b5f60028585604051610aa0929190611b76565b90815260405190819003602001902060048101549091506001600160401b03600160a01b90910416610ae45760405162461bcd60e51b815260040161078f90611bbd565b5f6001820154610100900460ff166003811115610b0357610b03611779565b14610b425760405162461bcd60e51b815260206004820152600f60248201526e574c3a206e6f742070656e64696e6760881b604482015260640161078f565b82610b865760405162461bcd60e51b81526020600482015260146024820152730ae987440d2dcecc2d8d2c840d6f2c640d0c2e6d60631b604482015260640161078f565b6001818101805461ff0019166101008302179055506003810183905560058101805467ffffffffffffffff1916426001600160401b03161790556040513390610bd29087908790611b76565b604051908190038120858252907f67547459c3cd740eaa206111bda64d21c4b22cd7c00daa09290fbaf98cfe2c4c9060200160405180910390a35050505050565b5f610c1d81611471565b61072b6115c5565b5f918252602082815260408084206001600160a01b0393909316845291905290205460ff1690565b7fedcc084d3dcd65a1f7f23c65c46722faca6953d28e43150a467cf43e5c309238610c7781611471565b5f60028686604051610c8a929190611b76565b9081526040519081900360200190209050600180820154610100900460ff166003811115610cba57610cba611779565b14610cf85760405162461bcd60e51b815260206004820152600e60248201526d574c3a206e6f742061637469766560901b604482015260640161078f565b82610d385760405162461bcd60e51b815260206004820152601060248201526f0ae987440d2dcecc2d8d2c840d0c2e6d60831b604482015260640161078f565b6001810180546201000080820460ff16928792909162ff00001990911690836002811115610d6857610d68611779565b02179055506002820184905560058201805467ffffffffffffffff1916426001600160401b0316179055604051610da29088908890611b76565b60405180910390207f995a3e71273a521bf51d5f6645e330ede52a674fdb3d04de801d98666f6eab9f828787604051610ddd93929190611c27565b60405180910390a250505050505050565b6001600160a01b0381165f908152600360205260409020805460609190610e1490611b85565b80601f0160208091040260200160405190810160405280929190818152602001828054610e4090611b85565b8015610e8b5780601f10610e6257610100808354040283529160200191610e8b565b820191905f5260205f20905b815481529060010190602001808311610e6e57829003601f168201915b50505050509050919050565b5f600160028484604051610eac929190611b76565b9081526040519081900360200190206001015460ff610100909104166003811115610ed957610ed9611779565b149392505050565b610ee9611600565b7fedcc084d3dcd65a1f7f23c65c46722faca6953d28e43150a467cf43e5c309238610f1381611471565b89610f515760405162461bcd60e51b815260206004820152600e60248201526d574c3a20656d70747920636f646560901b604482015260640161078f565b87610f8f5760405162461bcd60e51b815260206004820152600e60248201526d574c3a20656d707479206e616d6560901b604482015260640161078f565b84610fdc5760405162461bcd60e51b815260206004820152601960248201527f574c3a20696e76616c696420636f6e7472616374206861736800000000000000604482015260640161078f565b6001600160a01b0384166110275760405162461bcd60e51b815260206004820152601260248201527115d30e881a5b9d985b1a59081dd85b1b195d60721b604482015260640161078f565b8161106d5760405162461bcd60e51b81526020600482015260166024820152752ba61d1032b6b83a3c90353ab934b9b234b1ba34b7b760511b604482015260640161078f565b60028b8b60405161107f929190611b76565b908152604051908190036020019020600401546001600160401b03600160a01b90910416156110f05760405162461bcd60e51b815260206004820152601e60248201527f574c3a20706172746e657220616c726561647920726567697374657265640000604482015260640161078f565b6001600160a01b0384165f908152600360205260409020805461111290611b85565b1590506111615760405162461bcd60e51b815260206004820152601960248201527f574c3a2077616c6c657420616c7265616479206c696e6b656400000000000000604482015260640161078f565b6040518061014001604052808a8a8080601f0160208091040260200160405190810160405280939291908181526020018383808284375f920191909152505050908252506020018860058111156111ba576111ba611779565b81526020015f81526020018760028111156111d7576111d7611779565b81526020018681526020015f801b8152602001856001600160a01b03168152602001426001600160401b03168152602001426001600160401b0316815260200184848080601f0160208091040260200160405190810160405280939291908181526020018383808284375f920191909152505050915250604051600290611261908e908e90611b76565b9081526040519081900360200190208151819061127e9082611caf565b50602082015160018083018054909160ff19909116908360058111156112a6576112a6611779565b0217905550604082015160018201805461ff0019166101008360038111156112d0576112d0611779565b0217905550606082015160018201805462ff00001916620100008360028111156112fc576112fc611779565b02179055506080820151600282015560a0820151600382015560c082015160048201805460e08501516001600160a01b039093166001600160e01b031990911617600160a01b6001600160401b039384160217905561010083015160058301805467ffffffffffffffff19169190921617905561012082015160068201906113849082611caf565b5050506001600160a01b0384165f9081526003602052604090206113a98b8d83611d6e565b50600480546001810182555f919091527f8a35acfbc15ff81a39ae7d344fd709f28e8600b4aa8c65c6b64bfe7fe36bd19b016113e68b8d83611d6e565b508a8a6040516113f7929190611b76565b60405180910390207f91811fc601bdea79fa216c7da18b8085f49bf0078ce43ff4f8aae55a95c682698a8a8a88888860405161143896959493929190611e27565b60405180910390a25050505050505050505050565b5f8281526020819052604090206001015461146781611471565b610607838361150a565b61072b8133611626565b5f6114868383610c25565b611503575f838152602081815260408083206001600160a01b03861684529091529020805460ff191660011790556114bb3390565b6001600160a01b0316826001600160a01b0316847f2f8788117e7eff1d82e926ec794901d17c78024a50270940304540a733656f0d60405160405180910390a4506001610343565b505f610343565b5f6115158383610c25565b15611503575f838152602081815260408083206001600160a01b0386168085529252808320805460ff1916905551339286917ff6391f5c32d9c69d2a47ea670b442974b53935d1edc7fd64eb21e047a839171b9190a4506001610343565b61157b611663565b6001805460ff191690557f5db9ee0a495bf2e6ff9c91a7834c1ba4fdd244a5e8aa4e537bd38aeae4b073aa335b6040516001600160a01b03909116815260200160405180910390a1565b6115cd611600565b6001805460ff1916811790557f62e78cea01bee320cd4e420270b5ea74000d11b0c9f74754ebdbfc544b05a258336115a8565b60015460ff16156116245760405163d93c066560e01b815260040160405180910390fd5b565b6116308282610c25565b61165f5760405163e2517d3f60e01b81526001600160a01b03821660048201526024810183905260440161078f565b5050565b60015460ff1661162457604051638dfc202b60e01b815260040160405180910390fd5b5f60208284031215611696575f80fd5b81356001600160e01b0319811681146116ad575f80fd5b9392505050565b5f8083601f8401126116c4575f80fd5b5081356001600160401b038111156116da575f80fd5b6020830191508360208285010111156116f1575f80fd5b9250929050565b5f8060208385031215611709575f80fd5b82356001600160401b0381111561171e575f80fd5b61172a858286016116b4565b90969095509350505050565b5f81518084525f5b8181101561175a5760208185018101518683018201520161173e565b505f602082860101526020601f19601f83011685010191505092915050565b634e487b7160e01b5f52602160045260245ffd5b6006811061179d5761179d611779565b9052565b6004811061179d5761179d611779565b6003811061179d5761179d611779565b602081525f82516101408060208501526117df610160850183611736565b915060208501516117f3604086018261178d565b50604085015161180660608601826117a1565b50606085015161181960808601826117b1565b50608085015160a085015260a085015160c085015260c085015161184860e08601826001600160a01b03169052565b5060e0850151610100611865818701836001600160401b03169052565b8601519050610120611881868201836001600160401b03169052565b860151858403601f190183870152905061189b8382611736565b9695505050505050565b5f602082840312156118b5575f80fd5b5035919050565b80356001600160a01b03811681146118d2575f80fd5b919050565b5f80604083850312156118e8575f80fd5b823591506118f8602084016118bc565b90509250929050565b5f60208083016020845280855180835260408601915060408160051b8701019250602087015f5b8281101561195657603f19888603018452611944858351611736565b94509285019290850190600101611928565b5092979650505050505050565b5f805f8060408587031215611976575f80fd5b84356001600160401b038082111561198c575f80fd5b611998888389016116b4565b909650945060208701359150808211156119b0575f80fd5b506119bd878288016116b4565b95989497509550505050565b5f805f604084860312156119db575f80fd5b83356001600160401b038111156119f0575f80fd5b6119fc868287016116b4565b909790965060209590950135949350505050565b8035600381106118d2575f80fd5b5f805f8060608587031215611a31575f80fd5b84356001600160401b03811115611a46575f80fd5b611a52878288016116b4565b9095509350611a65905060208601611a10565b9396929550929360400135925050565b5f60208284031215611a85575f80fd5b6116ad826118bc565b602081525f6116ad6020830184611736565b5f805f805f805f805f8060e08b8d031215611ab9575f80fd5b8a356001600160401b0380821115611acf575f80fd5b611adb8e838f016116b4565b909c509a5060208d0135915080821115611af3575f80fd5b611aff8e838f016116b4565b909a50985060408d0135915060068210611b17575f80fd5b819750611b2660608e01611a10565b965060808d01359550611b3b60a08e016118bc565b945060c08d0135915080821115611b50575f80fd5b50611b5d8d828e016116b4565b915080935050809150509295989b9194979a5092959850565b818382375f9101908152919050565b600181811c90821680611b9957607f821691505b602082108103611bb757634e487b7160e01b5f52602260045260245ffd5b50919050565b6020808252600d908201526c15d30e881b9bdd08199bdd5b99609a1b604082015260600190565b81835281816020850137505f828201602090810191909152601f909101601f19169091010190565b602081525f611c1f602083018486611be4565b949350505050565b60608101611c3582866117b1565b611c4260208301856117b1565b826040830152949350505050565b634e487b7160e01b5f52604160045260245ffd5b601f82111561071457805f5260205f20601f840160051c81016020851015611c895750805b601f840160051c820191505b81811015611ca8575f8155600101611c95565b5050505050565b81516001600160401b03811115611cc857611cc8611c50565b611cdc81611cd68454611b85565b84611c64565b602080601f831160018114611d0f575f8415611cf85750858301515b5f19600386901b1c1916600185901b178555611d66565b5f85815260208120601f198616915b82811015611d3d57888601518255948401946001909101908401611d1e565b5085821015611d5a57878501515f19600388901b60f8161c191681555b505060018460011b0185555b505050505050565b6001600160401b03831115611d8557611d85611c50565b611d9983611d938354611b85565b83611c64565b5f601f841160018114611dca575f8515611db35750838201355b5f19600387901b1c1916600186901b178355611ca8565b5f83815260208120601f198716915b82811015611df95786850135825560209485019460019092019101611dd9565b5086821015611e15575f1960f88860031b161c19848701351681555b505060018560011b0183555050505050565b608081525f611e3a60808301888a611be4565b611e47602084018861178d565b6001600160a01b03861660408401528281036060840152611e69818587611be4565b999850505050505050505056fea264697066735822122000e5a7f82b8b1efe0772b8bcac6db7fc0cd5311f7b3effd686627dcb79bd65ae64736f6c63430008180033","opcodes":"PUSH1 0x80 PUSH1 0x40 MSTORE CALLVALUE DUP1 ISZERO PUSH3 0x10 JUMPI PUSH0 DUP1 REVERT JUMPDEST POP PUSH1 0x40 MLOAD PUSH3 0x2085 CODESIZE SUB DUP1 PUSH3 0x2085 DUP4 CODECOPY DUP2 ADD PUSH1 0x40 DUP2 SWAP1 MSTORE PUSH3 0x33 SWAP2 PUSH3 0x19C JUMP JUMPDEST PUSH1 0x1 PUSH1 0x1 PUSH1 0xA0 SHL SUB DUP2 AND PUSH3 0x82 JUMPI PUSH1 0x40 MLOAD PUSH3 0x461BCD PUSH1 0xE5 SHL DUP2 MSTORE PUSH1 0x20 PUSH1 0x4 DUP3 ADD MSTORE PUSH1 0x11 PUSH1 0x24 DUP3 ADD MSTORE PUSH17 0x2BA61D1034B73B30B634B21030B236B4B7 PUSH1 0x79 SHL PUSH1 0x44 DUP3 ADD MSTORE PUSH1 0x64 ADD PUSH1 0x40 MLOAD DUP1 SWAP2 SUB SWAP1 REVERT JUMPDEST PUSH3 0x8E PUSH0 DUP3 PUSH3 0xF0 JUMP JUMPDEST POP PUSH3 0xBB PUSH32 0xEDCC084D3DCD65A1F7F23C65C46722FACA6953D28E43150A467CF43E5C309238 DUP3 PUSH3 0xF0 JUMP JUMPDEST POP PUSH3 0xE8 PUSH32 0x442A94F1A1FAC79AF32856AF2A64F63648CFA2EF3B98610A5BB7CBEC4CEE6985 DUP3 PUSH3 0xF0 JUMP JUMPDEST POP POP PUSH3 0x1CB JUMP JUMPDEST PUSH0 DUP3 DUP2 MSTORE PUSH1 0x20 DUP2 DUP2 MSTORE PUSH1 0x40 DUP1 DUP4 KECCAK256 PUSH1 0x1 PUSH1 0x1 PUSH1 0xA0 SHL SUB DUP6 AND DUP5 MSTORE SWAP1 SWAP2 MSTORE DUP2 KECCAK256 SLOAD PUSH1 0xFF AND PUSH3 0x193 JUMPI PUSH0 DUP4 DUP2 MSTORE PUSH1 0x20 DUP2 DUP2 MSTORE PUSH1 0x40 DUP1 DUP4 KECCAK256 PUSH1 0x1 PUSH1 0x1 PUSH1 0xA0 SHL SUB DUP7 AND DUP5 MSTORE SWAP1 SWAP2 MSTORE SWAP1 KECCAK256 DUP1 SLOAD PUSH1 0xFF NOT AND PUSH1 0x1 OR SWAP1 SSTORE PUSH3 0x14A CALLER SWAP1 JUMP JUMPDEST PUSH1 0x1 PUSH1 0x1 PUSH1 0xA0 SHL SUB AND DUP3 PUSH1 0x1 PUSH1 0x1 PUSH1 0xA0 SHL SUB AND DUP5 PUSH32 0x2F8788117E7EFF1D82E926EC794901D17C78024A50270940304540A733656F0D PUSH1 0x40 MLOAD PUSH1 0x40 MLOAD DUP1 SWAP2 SUB SWAP1 LOG4 POP PUSH1 0x1 PUSH3 0x196 JUMP JUMPDEST POP PUSH0 JUMPDEST SWAP3 SWAP2 POP POP JUMP JUMPDEST PUSH0 PUSH1 0x20 DUP3 DUP5 SUB SLT ISZERO PUSH3 0x1AD JUMPI PUSH0 DUP1 REVERT JUMPDEST DUP2 MLOAD PUSH1 0x1 PUSH1 0x1 PUSH1 0xA0 SHL SUB DUP2 AND DUP2 EQ PUSH3 0x1C4 JUMPI PUSH0 DUP1 REVERT JUMPDEST SWAP4 SWAP3 POP POP POP JUMP JUMPDEST PUSH2 0x1EAC DUP1 PUSH3 0x1D9 PUSH0 CODECOPY PUSH0 RETURN INVALID PUSH1 0x80 PUSH1 0x40 MSTORE CALLVALUE DUP1 ISZERO PUSH2 0xF JUMPI PUSH0 DUP1 REVERT JUMPDEST POP PUSH1 0x4 CALLDATASIZE LT PUSH2 0x132 JUMPI PUSH0 CALLDATALOAD PUSH1 0xE0 SHR DUP1 PUSH4 0x67EB28D3 GT PUSH2 0xB4 JUMPI DUP1 PUSH4 0xB58C5FCA GT PUSH2 0x79 JUMPI DUP1 PUSH4 0xB58C5FCA EQ PUSH2 0x280 JUMPI DUP1 PUSH4 0xB6C919EC EQ PUSH2 0x293 JUMPI DUP1 PUSH4 0xC8902A21 EQ PUSH2 0x2B3 JUMPI DUP1 PUSH4 0xC8F044A2 EQ PUSH2 0x2C6 JUMPI DUP1 PUSH4 0xD547741F EQ PUSH2 0x2D9 JUMPI DUP1 PUSH4 0xF68E9553 EQ PUSH2 0x2EC JUMPI PUSH0 DUP1 REVERT JUMPDEST DUP1 PUSH4 0x67EB28D3 EQ PUSH2 0x238 JUMPI DUP1 PUSH4 0x74AC4B58 EQ PUSH2 0x24B JUMPI DUP1 PUSH4 0x8456CB59 EQ PUSH2 0x25E JUMPI DUP1 PUSH4 0x91D14854 EQ PUSH2 0x266 JUMPI DUP1 PUSH4 0xA217FDDF EQ PUSH2 0x279 JUMPI PUSH0 DUP1 REVERT JUMPDEST DUP1 PUSH4 0x34B2E85F GT PUSH2 0xFA JUMPI DUP1 PUSH4 0x34B2E85F EQ PUSH2 0x1EA JUMPI DUP1 PUSH4 0x36568ABE EQ PUSH2 0x1FF JUMPI DUP1 PUSH4 0x3F4BA83A EQ PUSH2 0x212 JUMPI DUP1 PUSH4 0x5C975ABB EQ PUSH2 0x21A JUMPI DUP1 PUSH4 0x6750075E EQ PUSH2 0x225 JUMPI PUSH0 DUP1 REVERT JUMPDEST DUP1 PUSH4 0x1FFC9A7 EQ PUSH2 0x136 JUMPI DUP1 PUSH4 0x62D3BD7 EQ PUSH2 0x15E JUMPI DUP1 PUSH4 0x22461845 EQ PUSH2 0x193 JUMPI DUP1 PUSH4 0x248A9CA3 EQ PUSH2 0x1B3 JUMPI DUP1 PUSH4 0x2F2FF15D EQ PUSH2 0x1D5 JUMPI JUMPDEST PUSH0 DUP1 REVERT JUMPDEST PUSH2 0x149 PUSH2 0x144 CALLDATASIZE PUSH1 0x4 PUSH2 0x1686 JUMP JUMPDEST PUSH2 0x313 JUMP JUMPDEST PUSH1 0x40 MLOAD SWAP1 ISZERO ISZERO DUP2 MSTORE PUSH1 0x20 ADD JUMPDEST PUSH1 0x40 MLOAD DUP1 SWAP2 SUB SWAP1 RETURN JUMPDEST PUSH2 0x185 PUSH32 0x442A94F1A1FAC79AF32856AF2A64F63648CFA2EF3B98610A5BB7CBEC4CEE6985 DUP2 JUMP JUMPDEST PUSH1 0x40 MLOAD SWAP1 DUP2 MSTORE PUSH1 0x20 ADD PUSH2 0x155 JUMP JUMPDEST PUSH2 0x1A6 PUSH2 0x1A1 CALLDATASIZE PUSH1 0x4 PUSH2 0x16F8 JUMP JUMPDEST PUSH2 0x349 JUMP JUMPDEST PUSH1 0x40 MLOAD PUSH2 0x155 SWAP2 SWAP1 PUSH2 0x17C1 JUMP JUMPDEST PUSH2 0x185 PUSH2 0x1C1 CALLDATASIZE PUSH1 0x4 PUSH2 0x18A5 JUMP JUMPDEST PUSH0 SWAP1 DUP2 MSTORE PUSH1 0x20 DUP2 SWAP1 MSTORE PUSH1 0x40 SWAP1 KECCAK256 PUSH1 0x1 ADD SLOAD SWAP1 JUMP JUMPDEST PUSH2 0x1E8 PUSH2 0x1E3 CALLDATASIZE PUSH1 0x4 PUSH2 0x18D7 JUMP JUMPDEST PUSH2 0x5E3 JUMP JUMPDEST STOP JUMPDEST PUSH2 0x1F2 PUSH2 0x60D JUMP JUMPDEST PUSH1 0x40 MLOAD PUSH2 0x155 SWAP2 SWAP1 PUSH2 0x1901 JUMP JUMPDEST PUSH2 0x1E8 PUSH2 0x20D CALLDATASIZE PUSH1 0x4 PUSH2 0x18D7 JUMP JUMPDEST PUSH2 0x6E1 JUMP JUMPDEST PUSH2 0x1E8 PUSH2 0x719 JUMP JUMPDEST PUSH1 0x1 SLOAD PUSH1 0xFF AND PUSH2 0x149 JUMP JUMPDEST PUSH2 0x1E8 PUSH2 0x233 CALLDATASIZE PUSH1 0x4 PUSH2 0x1963 JUMP JUMPDEST PUSH2 0x72E JUMP JUMPDEST PUSH2 0x1E8 PUSH2 0x246 CALLDATASIZE PUSH1 0x4 PUSH2 0x1963 JUMP JUMPDEST PUSH2 0x8C8 JUMP JUMPDEST PUSH2 0x1E8 PUSH2 0x259 CALLDATASIZE PUSH1 0x4 PUSH2 0x19C9 JUMP JUMPDEST PUSH2 0xA63 JUMP JUMPDEST PUSH2 0x1E8 PUSH2 0xC13 JUMP JUMPDEST PUSH2 0x149 PUSH2 0x274 CALLDATASIZE PUSH1 0x4 PUSH2 0x18D7 JUMP JUMPDEST PUSH2 0xC25 JUMP JUMPDEST PUSH2 0x185 PUSH0 DUP2 JUMP JUMPDEST PUSH2 0x1E8 PUSH2 0x28E CALLDATASIZE PUSH1 0x4 PUSH2 0x1A1E JUMP JUMPDEST PUSH2 0xC4D JUMP JUMPDEST PUSH2 0x2A6 PUSH2 0x2A1 CALLDATASIZE PUSH1 0x4 PUSH2 0x1A75 JUMP JUMPDEST PUSH2 0xDEE JUMP JUMPDEST PUSH1 0x40 MLOAD PUSH2 0x155 SWAP2 SWAP1 PUSH2 0x1A8E JUMP JUMPDEST PUSH2 0x149 PUSH2 0x2C1 CALLDATASIZE PUSH1 0x4 PUSH2 0x16F8 JUMP JUMPDEST PUSH2 0xE97 JUMP JUMPDEST PUSH2 0x1E8 PUSH2 0x2D4 CALLDATASIZE PUSH1 0x4 PUSH2 0x1AA0 JUMP JUMPDEST PUSH2 0xEE1 JUMP JUMPDEST PUSH2 0x1E8 PUSH2 0x2E7 CALLDATASIZE PUSH1 0x4 PUSH2 0x18D7 JUMP JUMPDEST PUSH2 0x144D JUMP JUMPDEST PUSH2 0x185 PUSH32 0xEDCC084D3DCD65A1F7F23C65C46722FACA6953D28E43150A467CF43E5C309238 DUP2 JUMP JUMPDEST PUSH0 PUSH1 0x1 PUSH1 0x1 PUSH1 0xE0 SHL SUB NOT DUP3 AND PUSH4 0x7965DB0B PUSH1 0xE0 SHL EQ DUP1 PUSH2 0x343 JUMPI POP PUSH4 0x1FFC9A7 PUSH1 0xE0 SHL PUSH1 0x1 PUSH1 0x1 PUSH1 0xE0 SHL SUB NOT DUP4 AND EQ JUMPDEST SWAP3 SWAP2 POP POP JUMP JUMPDEST PUSH2 0x39E PUSH1 0x40 DUP1 MLOAD PUSH2 0x140 DUP2 ADD SWAP1 SWAP2 MSTORE PUSH1 0x60 DUP2 MSTORE PUSH1 0x20 DUP2 ADD PUSH0 DUP2 MSTORE PUSH1 0x20 ADD PUSH0 DUP2 MSTORE PUSH1 0x20 ADD PUSH0 DUP2 MSTORE PUSH0 PUSH1 0x20 DUP3 ADD DUP2 SWAP1 MSTORE PUSH1 0x40 DUP3 ADD DUP2 SWAP1 MSTORE PUSH1 0x60 DUP1 DUP4 ADD DUP3 SWAP1 MSTORE PUSH1 0x80 DUP4 ADD DUP3 SWAP1 MSTORE PUSH1 0xA0 DUP4 ADD SWAP2 SWAP1 SWAP2 MSTORE PUSH1 0xC0 SWAP1 SWAP2 ADD MSTORE SWAP1 JUMP JUMPDEST PUSH1 0x2 DUP4 DUP4 PUSH1 0x40 MLOAD PUSH2 0x3B0 SWAP3 SWAP2 SWAP1 PUSH2 0x1B76 JUMP JUMPDEST SWAP1 DUP2 MSTORE PUSH1 0x20 ADD PUSH1 0x40 MLOAD DUP1 SWAP2 SUB SWAP1 KECCAK256 PUSH1 0x40 MLOAD DUP1 PUSH2 0x140 ADD PUSH1 0x40 MSTORE SWAP1 DUP2 PUSH0 DUP3 ADD DUP1 SLOAD PUSH2 0x3D9 SWAP1 PUSH2 0x1B85 JUMP JUMPDEST DUP1 PUSH1 0x1F ADD PUSH1 0x20 DUP1 SWAP2 DIV MUL PUSH1 0x20 ADD PUSH1 0x40 MLOAD SWAP1 DUP2 ADD PUSH1 0x40 MSTORE DUP1 SWAP3 SWAP2 SWAP1 DUP2 DUP2 MSTORE PUSH1 0x20 ADD DUP3 DUP1 SLOAD PUSH2 0x405 SWAP1 PUSH2 0x1B85 JUMP JUMPDEST DUP1 ISZERO PUSH2 0x450 JUMPI DUP1 PUSH1 0x1F LT PUSH2 0x427 JUMPI PUSH2 0x100 DUP1 DUP4 SLOAD DIV MUL DUP4 MSTORE SWAP2 PUSH1 0x20 ADD SWAP2 PUSH2 0x450 JUMP JUMPDEST DUP3 ADD SWAP2 SWAP1 PUSH0 MSTORE PUSH1 0x20 PUSH0 KECCAK256 SWAP1 JUMPDEST DUP2 SLOAD DUP2 MSTORE SWAP1 PUSH1 0x1 ADD SWAP1 PUSH1 0x20 ADD DUP1 DUP4 GT PUSH2 0x433 JUMPI DUP3 SWAP1 SUB PUSH1 0x1F AND DUP3 ADD SWAP2 JUMPDEST POP POP POP SWAP2 DUP4 MSTORE POP POP PUSH1 0x1 DUP3 ADD SLOAD PUSH1 0x20 SWAP1 SWAP2 ADD SWAP1 PUSH1 0xFF AND PUSH1 0x5 DUP2 GT ISZERO PUSH2 0x477 JUMPI PUSH2 0x477 PUSH2 0x1779 JUMP JUMPDEST PUSH1 0x5 DUP2 GT ISZERO PUSH2 0x488 JUMPI PUSH2 0x488 PUSH2 0x1779 JUMP JUMPDEST DUP2 MSTORE PUSH1 0x20 ADD PUSH1 0x1 DUP3 ADD PUSH1 0x1 SWAP1 SLOAD SWAP1 PUSH2 0x100 EXP SWAP1 DIV PUSH1 0xFF AND PUSH1 0x3 DUP2 GT ISZERO PUSH2 0x4B0 JUMPI PUSH2 0x4B0 PUSH2 0x1779 JUMP JUMPDEST PUSH1 0x3 DUP2 GT ISZERO PUSH2 0x4C1 JUMPI PUSH2 0x4C1 PUSH2 0x1779 JUMP JUMPDEST DUP2 MSTORE PUSH1 0x20 ADD PUSH1 0x1 DUP3 ADD PUSH1 0x2 SWAP1 SLOAD SWAP1 PUSH2 0x100 EXP SWAP1 DIV PUSH1 0xFF AND PUSH1 0x2 DUP2 GT ISZERO PUSH2 0x4E9 JUMPI PUSH2 0x4E9 PUSH2 0x1779 JUMP JUMPDEST PUSH1 0x2 DUP2 GT ISZERO PUSH2 0x4FA JUMPI PUSH2 0x4FA PUSH2 0x1779 JUMP JUMPDEST DUP2 MSTORE PUSH1 0x2 DUP3 ADD SLOAD PUSH1 0x20 DUP3 ADD MSTORE PUSH1 0x3 DUP3 ADD SLOAD PUSH1 0x40 DUP3 ADD MSTORE PUSH1 0x4 DUP3 ADD SLOAD PUSH1 0x1 PUSH1 0x1 PUSH1 0xA0 SHL SUB DUP2 AND PUSH1 0x60 DUP4 ADD MSTORE PUSH1 0x1 PUSH1 0x1 PUSH1 0x40 SHL SUB PUSH1 0x1 PUSH1 0xA0 SHL SWAP1 SWAP2 DIV DUP2 AND PUSH1 0x80 DUP4 ADD MSTORE PUSH1 0x5 DUP4 ADD SLOAD AND PUSH1 0xA0 DUP3 ADD MSTORE PUSH1 0x6 DUP3 ADD DUP1 SLOAD PUSH1 0xC0 SWAP1 SWAP3 ADD SWAP2 PUSH2 0x55B SWAP1 PUSH2 0x1B85 JUMP JUMPDEST DUP1 PUSH1 0x1F ADD PUSH1 0x20 DUP1 SWAP2 DIV MUL PUSH1 0x20 ADD PUSH1 0x40 MLOAD SWAP1 DUP2 ADD PUSH1 0x40 MSTORE DUP1 SWAP3 SWAP2 SWAP1 DUP2 DUP2 MSTORE PUSH1 0x20 ADD DUP3 DUP1 SLOAD PUSH2 0x587 SWAP1 PUSH2 0x1B85 JUMP JUMPDEST DUP1 ISZERO PUSH2 0x5D2 JUMPI DUP1 PUSH1 0x1F LT PUSH2 0x5A9 JUMPI PUSH2 0x100 DUP1 DUP4 SLOAD DIV MUL DUP4 MSTORE SWAP2 PUSH1 0x20 ADD SWAP2 PUSH2 0x5D2 JUMP JUMPDEST DUP3 ADD SWAP2 SWAP1 PUSH0 MSTORE PUSH1 0x20 PUSH0 KECCAK256 SWAP1 JUMPDEST DUP2 SLOAD DUP2 MSTORE SWAP1 PUSH1 0x1 ADD SWAP1 PUSH1 0x20 ADD DUP1 DUP4 GT PUSH2 0x5B5 JUMPI DUP3 SWAP1 SUB PUSH1 0x1F AND DUP3 ADD SWAP2 JUMPDEST POP POP POP POP POP DUP2 MSTORE POP POP SWAP1 POP SWAP3 SWAP2 POP POP JUMP JUMPDEST PUSH0 DUP3 DUP2 MSTORE PUSH1 0x20 DUP2 SWAP1 MSTORE PUSH1 0x40 SWAP1 KECCAK256 PUSH1 0x1 ADD SLOAD PUSH2 0x5FD DUP2 PUSH2 0x1471 JUMP JUMPDEST PUSH2 0x607 DUP4 DUP4 PUSH2 0x147B JUMP JUMPDEST POP POP POP POP JUMP JUMPDEST PUSH1 0x60 PUSH1 0x4 DUP1 SLOAD DUP1 PUSH1 0x20 MUL PUSH1 0x20 ADD PUSH1 0x40 MLOAD SWAP1 DUP2 ADD PUSH1 0x40 MSTORE DUP1 SWAP3 SWAP2 SWAP1 DUP2 DUP2 MSTORE PUSH1 0x20 ADD PUSH0 SWAP1 JUMPDEST DUP3 DUP3 LT ISZERO PUSH2 0x6D8 JUMPI DUP4 DUP3 SWAP1 PUSH0 MSTORE PUSH1 0x20 PUSH0 KECCAK256 ADD DUP1 SLOAD PUSH2 0x64D SWAP1 PUSH2 0x1B85 JUMP JUMPDEST DUP1 PUSH1 0x1F ADD PUSH1 0x20 DUP1 SWAP2 DIV MUL PUSH1 0x20 ADD PUSH1 0x40 MLOAD SWAP1 DUP2 ADD PUSH1 0x40 MSTORE DUP1 SWAP3 SWAP2 SWAP1 DUP2 DUP2 MSTORE PUSH1 0x20 ADD DUP3 DUP1 SLOAD PUSH2 0x679 SWAP1 PUSH2 0x1B85 JUMP JUMPDEST DUP1 ISZERO PUSH2 0x6C4 JUMPI DUP1 PUSH1 0x1F LT PUSH2 0x69B JUMPI PUSH2 0x100 DUP1 DUP4 SLOAD DIV MUL DUP4 MSTORE SWAP2 PUSH1 0x20 ADD SWAP2 PUSH2 0x6C4 JUMP JUMPDEST DUP3 ADD SWAP2 SWAP1 PUSH0 MSTORE PUSH1 0x20 PUSH0 KECCAK256 SWAP1 JUMPDEST DUP2 SLOAD DUP2 MSTORE SWAP1 PUSH1 0x1 ADD SWAP1 PUSH1 0x20 ADD DUP1 DUP4 GT PUSH2 0x6A7 JUMPI DUP3 SWAP1 SUB PUSH1 0x1F AND DUP3 ADD SWAP2 JUMPDEST POP POP POP POP POP DUP2 MSTORE PUSH1 0x20 ADD SWAP1 PUSH1 0x1 ADD SWAP1 PUSH2 0x630 JUMP JUMPDEST POP POP POP POP SWAP1 POP SWAP1 JUMP JUMPDEST PUSH1 0x1 PUSH1 0x1 PUSH1 0xA0 SHL SUB DUP2 AND CALLER EQ PUSH2 0x70A JUMPI PUSH1 0x40 MLOAD PUSH4 0x334BD919 PUSH1 0xE1 SHL DUP2 MSTORE PUSH1 0x4 ADD PUSH1 0x40 MLOAD DUP1 SWAP2 SUB SWAP1 REVERT JUMPDEST PUSH2 0x714 DUP3 DUP3 PUSH2 0x150A JUMP JUMPDEST POP POP POP JUMP JUMPDEST PUSH0 PUSH2 0x723 DUP2 PUSH2 0x1471 JUMP JUMPDEST PUSH2 0x72B PUSH2 0x1573 JUMP JUMPDEST POP JUMP JUMPDEST PUSH0 PUSH2 0x738 DUP2 PUSH2 0x1471 JUMP JUMPDEST PUSH0 PUSH1 0x2 DUP7 DUP7 PUSH1 0x40 MLOAD PUSH2 0x74B SWAP3 SWAP2 SWAP1 PUSH2 0x1B76 JUMP JUMPDEST SWAP1 DUP2 MSTORE PUSH1 0x40 MLOAD SWAP1 DUP2 SWAP1 SUB PUSH1 0x20 ADD SWAP1 KECCAK256 PUSH1 0x4 DUP2 ADD SLOAD SWAP1 SWAP2 POP PUSH1 0x1 PUSH1 0x1 PUSH1 0x40 SHL SUB PUSH1 0x1 PUSH1 0xA0 SHL SWAP1 SWAP2 DIV AND PUSH2 0x798 JUMPI PUSH1 0x40 MLOAD PUSH3 0x461BCD PUSH1 0xE5 SHL DUP2 MSTORE PUSH1 0x4 ADD PUSH2 0x78F SWAP1 PUSH2 0x1BBD JUMP JUMPDEST PUSH1 0x40 MLOAD DUP1 SWAP2 SUB SWAP1 REVERT JUMPDEST PUSH1 0x3 PUSH1 0x1 DUP3 ADD SLOAD PUSH2 0x100 SWAP1 DIV PUSH1 0xFF AND PUSH1 0x3 DUP2 GT ISZERO PUSH2 0x7B8 JUMPI PUSH2 0x7B8 PUSH2 0x1779 JUMP JUMPDEST SUB PUSH2 0x7FB JUMPI PUSH1 0x40 MLOAD PUSH3 0x461BCD PUSH1 0xE5 SHL DUP2 MSTORE PUSH1 0x20 PUSH1 0x4 DUP3 ADD MSTORE PUSH1 0x13 PUSH1 0x24 DUP3 ADD MSTORE PUSH19 0x15D30E88185B1C9958591E481C995D9BDAD959 PUSH1 0x6A SHL PUSH1 0x44 DUP3 ADD MSTORE PUSH1 0x64 ADD PUSH2 0x78F JUMP JUMPDEST DUP3 PUSH2 0x83E JUMPI PUSH1 0x40 MLOAD PUSH3 0x461BCD PUSH1 0xE5 SHL DUP2 MSTORE PUSH1 0x20 PUSH1 0x4 DUP3 ADD MSTORE PUSH1 0x13 PUSH1 0x24 DUP3 ADD MSTORE PUSH19 0x15D30E881C99585CDBDB881C995C5D5A5C9959 PUSH1 0x6A SHL PUSH1 0x44 DUP3 ADD MSTORE PUSH1 0x64 ADD PUSH2 0x78F JUMP JUMPDEST PUSH1 0x1 DUP2 ADD DUP1 SLOAD PUSH2 0xFF00 NOT AND PUSH2 0x300 OR SWAP1 SSTORE PUSH1 0x5 DUP2 ADD DUP1 SLOAD PUSH8 0xFFFFFFFFFFFFFFFF NOT AND TIMESTAMP PUSH1 0x1 PUSH1 0x1 PUSH1 0x40 SHL SUB AND OR SWAP1 SSTORE PUSH1 0x40 MLOAD CALLER SWAP1 PUSH2 0x87F SWAP1 DUP9 SWAP1 DUP9 SWAP1 PUSH2 0x1B76 JUMP JUMPDEST PUSH1 0x40 MLOAD DUP1 SWAP2 SUB SWAP1 KECCAK256 PUSH32 0xA53FFFE62CF6AC760A61A5952D6B9F76737945B95F31BA35B2E47F9EB6ED62B5 DUP7 DUP7 PUSH1 0x40 MLOAD PUSH2 0x8B8 SWAP3 SWAP2 SWAP1 PUSH2 0x1C0C JUMP JUMPDEST PUSH1 0x40 MLOAD DUP1 SWAP2 SUB SWAP1 LOG3 POP POP POP POP POP POP JUMP JUMPDEST PUSH32 0x442A94F1A1FAC79AF32856AF2A64F63648CFA2EF3B98610A5BB7CBEC4CEE6985 PUSH2 0x8F2 DUP2 PUSH2 0x1471 JUMP JUMPDEST PUSH0 PUSH1 0x2 DUP7 DUP7 PUSH1 0x40 MLOAD PUSH2 0x905 SWAP3 SWAP2 SWAP1 PUSH2 0x1B76 JUMP JUMPDEST SWAP1 DUP2 MSTORE PUSH1 0x40 MLOAD SWAP1 DUP2 SWAP1 SUB PUSH1 0x20 ADD SWAP1 KECCAK256 PUSH1 0x4 DUP2 ADD SLOAD SWAP1 SWAP2 POP PUSH1 0x1 PUSH1 0x1 PUSH1 0x40 SHL SUB PUSH1 0x1 PUSH1 0xA0 SHL SWAP1 SWAP2 DIV AND PUSH2 0x949 JUMPI PUSH1 0x40 MLOAD PUSH3 0x461BCD PUSH1 0xE5 SHL DUP2 MSTORE PUSH1 0x4 ADD PUSH2 0x78F SWAP1 PUSH2 0x1BBD JUMP JUMPDEST PUSH1 0x1 DUP1 DUP3 ADD SLOAD PUSH2 0x100 SWAP1 DIV PUSH1 0xFF AND PUSH1 0x3 DUP2 GT ISZERO PUSH2 0x968 JUMPI PUSH2 0x968 PUSH2 0x1779 JUMP JUMPDEST EQ PUSH2 0x9A6 JUMPI PUSH1 0x40 MLOAD PUSH3 0x461BCD PUSH1 0xE5 SHL DUP2 MSTORE PUSH1 0x20 PUSH1 0x4 DUP3 ADD MSTORE PUSH1 0xE PUSH1 0x24 DUP3 ADD MSTORE PUSH14 0x574C3A206E6F7420616374697665 PUSH1 0x90 SHL PUSH1 0x44 DUP3 ADD MSTORE PUSH1 0x64 ADD PUSH2 0x78F JUMP JUMPDEST DUP3 PUSH2 0x9E9 JUMPI PUSH1 0x40 MLOAD PUSH3 0x461BCD PUSH1 0xE5 SHL DUP2 MSTORE PUSH1 0x20 PUSH1 0x4 DUP3 ADD MSTORE PUSH1 0x13 PUSH1 0x24 DUP3 ADD MSTORE PUSH19 0x15D30E881C99585CDBDB881C995C5D5A5C9959 PUSH1 0x6A SHL PUSH1 0x44 DUP3 ADD MSTORE PUSH1 0x64 ADD PUSH2 0x78F JUMP JUMPDEST PUSH1 0x1 DUP2 ADD DUP1 SLOAD PUSH2 0xFF00 NOT AND PUSH2 0x200 OR SWAP1 SSTORE PUSH1 0x5 DUP2 ADD DUP1 SLOAD PUSH8 0xFFFFFFFFFFFFFFFF NOT AND TIMESTAMP PUSH1 0x1 PUSH1 0x1 PUSH1 0x40 SHL SUB AND OR SWAP1 SSTORE PUSH1 0x40 MLOAD CALLER SWAP1 PUSH2 0xA2A SWAP1 DUP9 SWAP1 DUP9 SWAP1 PUSH2 0x1B76 JUMP JUMPDEST PUSH1 0x40 MLOAD DUP1 SWAP2 SUB SWAP1 KECCAK256 PUSH32 0x8B921FA317662D18E9D074B178677B629F12315301E0AC3DA0FB36844BE1A818 DUP7 DUP7 PUSH1 0x40 MLOAD PUSH2 0x8B8 SWAP3 SWAP2 SWAP1 PUSH2 0x1C0C JUMP JUMPDEST PUSH32 0x442A94F1A1FAC79AF32856AF2A64F63648CFA2EF3B98610A5BB7CBEC4CEE6985 PUSH2 0xA8D DUP2 PUSH2 0x1471 JUMP JUMPDEST PUSH0 PUSH1 0x2 DUP6 DUP6 PUSH1 0x40 MLOAD PUSH2 0xAA0 SWAP3 SWAP2 SWAP1 PUSH2 0x1B76 JUMP JUMPDEST SWAP1 DUP2 MSTORE PUSH1 0x40 MLOAD SWAP1 DUP2 SWAP1 SUB PUSH1 0x20 ADD SWAP1 KECCAK256 PUSH1 0x4 DUP2 ADD SLOAD SWAP1 SWAP2 POP PUSH1 0x1 PUSH1 0x1 PUSH1 0x40 SHL SUB PUSH1 0x1 PUSH1 0xA0 SHL SWAP1 SWAP2 DIV AND PUSH2 0xAE4 JUMPI PUSH1 0x40 MLOAD PUSH3 0x461BCD PUSH1 0xE5 SHL DUP2 MSTORE PUSH1 0x4 ADD PUSH2 0x78F SWAP1 PUSH2 0x1BBD JUMP JUMPDEST PUSH0 PUSH1 0x1 DUP3 ADD SLOAD PUSH2 0x100 SWAP1 DIV PUSH1 0xFF AND PUSH1 0x3 DUP2 GT ISZERO PUSH2 0xB03 JUMPI PUSH2 0xB03 PUSH2 0x1779 JUMP JUMPDEST EQ PUSH2 0xB42 JUMPI PUSH1 0x40 MLOAD PUSH3 0x461BCD PUSH1 0xE5 SHL DUP2 MSTORE PUSH1 0x20 PUSH1 0x4 DUP3 ADD MSTORE PUSH1 0xF PUSH1 0x24 DUP3 ADD MSTORE PUSH15 0x574C3A206E6F742070656E64696E67 PUSH1 0x88 SHL PUSH1 0x44 DUP3 ADD MSTORE PUSH1 0x64 ADD PUSH2 0x78F JUMP JUMPDEST DUP3 PUSH2 0xB86 JUMPI PUSH1 0x40 MLOAD PUSH3 0x461BCD PUSH1 0xE5 SHL DUP2 MSTORE PUSH1 0x20 PUSH1 0x4 DUP3 ADD MSTORE PUSH1 0x14 PUSH1 0x24 DUP3 ADD MSTORE PUSH20 0xAE987440D2DCECC2D8D2C840D6F2C640D0C2E6D PUSH1 0x63 SHL PUSH1 0x44 DUP3 ADD MSTORE PUSH1 0x64 ADD PUSH2 0x78F JUMP JUMPDEST PUSH1 0x1 DUP2 DUP2 ADD DUP1 SLOAD PUSH2 0xFF00 NOT AND PUSH2 0x100 DUP4 MUL OR SWAP1 SSTORE POP PUSH1 0x3 DUP2 ADD DUP4 SWAP1 SSTORE PUSH1 0x5 DUP2 ADD DUP1 SLOAD PUSH8 0xFFFFFFFFFFFFFFFF NOT AND TIMESTAMP PUSH1 0x1 PUSH1 0x1 PUSH1 0x40 SHL SUB AND OR SWAP1 SSTORE PUSH1 0x40 MLOAD CALLER SWAP1 PUSH2 0xBD2 SWAP1 DUP8 SWAP1 DUP8 SWAP1 PUSH2 0x1B76 JUMP JUMPDEST PUSH1 0x40 MLOAD SWAP1 DUP2 SWAP1 SUB DUP2 KECCAK256 DUP6 DUP3 MSTORE SWAP1 PUSH32 0x67547459C3CD740EAA206111BDA64D21C4B22CD7C00DAA09290FBAF98CFE2C4C SWAP1 PUSH1 0x20 ADD PUSH1 0x40 MLOAD DUP1 SWAP2 SUB SWAP1 LOG3 POP POP POP POP POP JUMP JUMPDEST PUSH0 PUSH2 0xC1D DUP2 PUSH2 0x1471 JUMP JUMPDEST PUSH2 0x72B PUSH2 0x15C5 JUMP JUMPDEST PUSH0 SWAP2 DUP3 MSTORE PUSH1 0x20 DUP3 DUP2 MSTORE PUSH1 0x40 DUP1 DUP5 KECCAK256 PUSH1 0x1 PUSH1 0x1 PUSH1 0xA0 SHL SUB SWAP4 SWAP1 SWAP4 AND DUP5 MSTORE SWAP2 SWAP1 MSTORE SWAP1 KECCAK256 SLOAD PUSH1 0xFF AND SWAP1 JUMP JUMPDEST PUSH32 0xEDCC084D3DCD65A1F7F23C65C46722FACA6953D28E43150A467CF43E5C309238 PUSH2 0xC77 DUP2 PUSH2 0x1471 JUMP JUMPDEST PUSH0 PUSH1 0x2 DUP7 DUP7 PUSH1 0x40 MLOAD PUSH2 0xC8A SWAP3 SWAP2 SWAP1 PUSH2 0x1B76 JUMP JUMPDEST SWAP1 DUP2 MSTORE PUSH1 0x40 MLOAD SWAP1 DUP2 SWAP1 SUB PUSH1 0x20 ADD SWAP1 KECCAK256 SWAP1 POP PUSH1 0x1 DUP1 DUP3 ADD SLOAD PUSH2 0x100 SWAP1 DIV PUSH1 0xFF AND PUSH1 0x3 DUP2 GT ISZERO PUSH2 0xCBA JUMPI PUSH2 0xCBA PUSH2 0x1779 JUMP JUMPDEST EQ PUSH2 0xCF8 JUMPI PUSH1 0x40 MLOAD PUSH3 0x461BCD PUSH1 0xE5 SHL DUP2 MSTORE PUSH1 0x20 PUSH1 0x4 DUP3 ADD MSTORE PUSH1 0xE PUSH1 0x24 DUP3 ADD MSTORE PUSH14 0x574C3A206E6F7420616374697665 PUSH1 0x90 SHL PUSH1 0x44 DUP3 ADD MSTORE PUSH1 0x64 ADD PUSH2 0x78F JUMP JUMPDEST DUP3 PUSH2 0xD38 JUMPI PUSH1 0x40 MLOAD PUSH3 0x461BCD PUSH1 0xE5 SHL DUP2 MSTORE PUSH1 0x20 PUSH1 0x4 DUP3 ADD MSTORE PUSH1 0x10 PUSH1 0x24 DUP3 ADD MSTORE PUSH16 0xAE987440D2DCECC2D8D2C840D0C2E6D PUSH1 0x83 SHL PUSH1 0x44 DUP3 ADD MSTORE PUSH1 0x64 ADD PUSH2 0x78F JUMP JUMPDEST PUSH1 0x1 DUP2 ADD DUP1 SLOAD PUSH3 0x10000 DUP1 DUP3 DIV PUSH1 0xFF AND SWAP3 DUP8 SWAP3 SWAP1 SWAP2 PUSH3 0xFF0000 NOT SWAP1 SWAP2 AND SWAP1 DUP4 PUSH1 0x2 DUP2 GT ISZERO PUSH2 0xD68 JUMPI PUSH2 0xD68 PUSH2 0x1779 JUMP JUMPDEST MUL OR SWAP1 SSTORE POP PUSH1 0x2 DUP3 ADD DUP5 SWAP1 SSTORE PUSH1 0x5 DUP3 ADD DUP1 SLOAD PUSH8 0xFFFFFFFFFFFFFFFF NOT AND TIMESTAMP PUSH1 0x1 PUSH1 0x1 PUSH1 0x40 SHL SUB AND OR SWAP1 SSTORE PUSH1 0x40 MLOAD PUSH2 0xDA2 SWAP1 DUP9 SWAP1 DUP9 SWAP1 PUSH2 0x1B76 JUMP JUMPDEST PUSH1 0x40 MLOAD DUP1 SWAP2 SUB SWAP1 KECCAK256 PUSH32 0x995A3E71273A521BF51D5F6645E330EDE52A674FDB3D04DE801D98666F6EAB9F DUP3 DUP8 DUP8 PUSH1 0x40 MLOAD PUSH2 0xDDD SWAP4 SWAP3 SWAP2 SWAP1 PUSH2 0x1C27 JUMP JUMPDEST PUSH1 0x40 MLOAD DUP1 SWAP2 SUB SWAP1 LOG2 POP POP POP POP POP POP POP JUMP JUMPDEST PUSH1 0x1 PUSH1 0x1 PUSH1 0xA0 SHL SUB DUP2 AND PUSH0 SWAP1 DUP2 MSTORE PUSH1 0x3 PUSH1 0x20 MSTORE PUSH1 0x40 SWAP1 KECCAK256 DUP1 SLOAD PUSH1 0x60 SWAP2 SWAP1 PUSH2 0xE14 SWAP1 PUSH2 0x1B85 JUMP JUMPDEST DUP1 PUSH1 0x1F ADD PUSH1 0x20 DUP1 SWAP2 DIV MUL PUSH1 0x20 ADD PUSH1 0x40 MLOAD SWAP1 DUP2 ADD PUSH1 0x40 MSTORE DUP1 SWAP3 SWAP2 SWAP1 DUP2 DUP2 MSTORE PUSH1 0x20 ADD DUP3 DUP1 SLOAD PUSH2 0xE40 SWAP1 PUSH2 0x1B85 JUMP JUMPDEST DUP1 ISZERO PUSH2 0xE8B JUMPI DUP1 PUSH1 0x1F LT PUSH2 0xE62 JUMPI PUSH2 0x100 DUP1 DUP4 SLOAD DIV MUL DUP4 MSTORE SWAP2 PUSH1 0x20 ADD SWAP2 PUSH2 0xE8B JUMP JUMPDEST DUP3 ADD SWAP2 SWAP1 PUSH0 MSTORE PUSH1 0x20 PUSH0 KECCAK256 SWAP1 JUMPDEST DUP2 SLOAD DUP2 MSTORE SWAP1 PUSH1 0x1 ADD SWAP1 PUSH1 0x20 ADD DUP1 DUP4 GT PUSH2 0xE6E JUMPI DUP3 SWAP1 SUB PUSH1 0x1F AND DUP3 ADD SWAP2 JUMPDEST POP POP POP POP POP SWAP1 POP SWAP2 SWAP1 POP JUMP JUMPDEST PUSH0 PUSH1 0x1 PUSH1 0x2 DUP5 DUP5 PUSH1 0x40 MLOAD PUSH2 0xEAC SWAP3 SWAP2 SWAP1 PUSH2 0x1B76 JUMP JUMPDEST SWAP1 DUP2 MSTORE PUSH1 0x40 MLOAD SWAP1 DUP2 SWAP1 SUB PUSH1 0x20 ADD SWAP1 KECCAK256 PUSH1 0x1 ADD SLOAD PUSH1 0xFF PUSH2 0x100 SWAP1 SWAP2 DIV AND PUSH1 0x3 DUP2 GT ISZERO PUSH2 0xED9 JUMPI PUSH2 0xED9 PUSH2 0x1779 JUMP JUMPDEST EQ SWAP4 SWAP3 POP POP POP JUMP JUMPDEST PUSH2 0xEE9 PUSH2 0x1600 JUMP JUMPDEST PUSH32 0xEDCC084D3DCD65A1F7F23C65C46722FACA6953D28E43150A467CF43E5C309238 PUSH2 0xF13 DUP2 PUSH2 0x1471 JUMP JUMPDEST DUP10 PUSH2 0xF51 JUMPI PUSH1 0x40 MLOAD PUSH3 0x461BCD PUSH1 0xE5 SHL DUP2 MSTORE PUSH1 0x20 PUSH1 0x4 DUP3 ADD MSTORE PUSH1 0xE PUSH1 0x24 DUP3 ADD MSTORE PUSH14 0x574C3A20656D70747920636F6465 PUSH1 0x90 SHL PUSH1 0x44 DUP3 ADD MSTORE PUSH1 0x64 ADD PUSH2 0x78F JUMP JUMPDEST DUP8 PUSH2 0xF8F JUMPI PUSH1 0x40 MLOAD PUSH3 0x461BCD PUSH1 0xE5 SHL DUP2 MSTORE PUSH1 0x20 PUSH1 0x4 DUP3 ADD MSTORE PUSH1 0xE PUSH1 0x24 DUP3 ADD MSTORE PUSH14 0x574C3A20656D707479206E616D65 PUSH1 0x90 SHL PUSH1 0x44 DUP3 ADD MSTORE PUSH1 0x64 ADD PUSH2 0x78F JUMP JUMPDEST DUP5 PUSH2 0xFDC JUMPI PUSH1 0x40 MLOAD PUSH3 0x461BCD PUSH1 0xE5 SHL DUP2 MSTORE PUSH1 0x20 PUSH1 0x4 DUP3 ADD MSTORE PUSH1 0x19 PUSH1 0x24 DUP3 ADD MSTORE PUSH32 0x574C3A20696E76616C696420636F6E7472616374206861736800000000000000 PUSH1 0x44 DUP3 ADD MSTORE PUSH1 0x64 ADD PUSH2 0x78F JUMP JUMPDEST PUSH1 0x1 PUSH1 0x1 PUSH1 0xA0 SHL SUB DUP5 AND PUSH2 0x1027 JUMPI PUSH1 0x40 MLOAD PUSH3 0x461BCD PUSH1 0xE5 SHL DUP2 MSTORE PUSH1 0x20 PUSH1 0x4 DUP3 ADD MSTORE PUSH1 0x12 PUSH1 0x24 DUP3 ADD MSTORE PUSH18 0x15D30E881A5B9D985B1A59081DD85B1B195D PUSH1 0x72 SHL PUSH1 0x44 DUP3 ADD MSTORE PUSH1 0x64 ADD PUSH2 0x78F JUMP JUMPDEST DUP2 PUSH2 0x106D JUMPI PUSH1 0x40 MLOAD PUSH3 0x461BCD PUSH1 0xE5 SHL DUP2 MSTORE PUSH1 0x20 PUSH1 0x4 DUP3 ADD MSTORE PUSH1 0x16 PUSH1 0x24 DUP3 ADD MSTORE PUSH22 0x2BA61D1032B6B83A3C90353AB934B9B234B1BA34B7B7 PUSH1 0x51 SHL PUSH1 0x44 DUP3 ADD MSTORE PUSH1 0x64 ADD PUSH2 0x78F JUMP JUMPDEST PUSH1 0x2 DUP12 DUP12 PUSH1 0x40 MLOAD PUSH2 0x107F SWAP3 SWAP2 SWAP1 PUSH2 0x1B76 JUMP JUMPDEST SWAP1 DUP2 MSTORE PUSH1 0x40 MLOAD SWAP1 DUP2 SWAP1 SUB PUSH1 0x20 ADD SWAP1 KECCAK256 PUSH1 0x4 ADD SLOAD PUSH1 0x1 PUSH1 0x1 PUSH1 0x40 SHL SUB PUSH1 0x1 PUSH1 0xA0 SHL SWAP1 SWAP2 DIV AND ISZERO PUSH2 0x10F0 JUMPI PUSH1 0x40 MLOAD PUSH3 0x461BCD PUSH1 0xE5 SHL DUP2 MSTORE PUSH1 0x20 PUSH1 0x4 DUP3 ADD MSTORE PUSH1 0x1E PUSH1 0x24 DUP3 ADD MSTORE PUSH32 0x574C3A20706172746E657220616C726561647920726567697374657265640000 PUSH1 0x44 DUP3 ADD MSTORE PUSH1 0x64 ADD PUSH2 0x78F JUMP JUMPDEST PUSH1 0x1 PUSH1 0x1 PUSH1 0xA0 SHL SUB DUP5 AND PUSH0 SWAP1 DUP2 MSTORE PUSH1 0x3 PUSH1 0x20 MSTORE PUSH1 0x40 SWAP1 KECCAK256 DUP1 SLOAD PUSH2 0x1112 SWAP1 PUSH2 0x1B85 JUMP JUMPDEST ISZERO SWAP1 POP PUSH2 0x1161 JUMPI PUSH1 0x40 MLOAD PUSH3 0x461BCD PUSH1 0xE5 SHL DUP2 MSTORE PUSH1 0x20 PUSH1 0x4 DUP3 ADD MSTORE PUSH1 0x19 PUSH1 0x24 DUP3 ADD MSTORE PUSH32 0x574C3A2077616C6C657420616C7265616479206C696E6B656400000000000000 PUSH1 0x44 DUP3 ADD MSTORE PUSH1 0x64 ADD PUSH2 0x78F JUMP JUMPDEST PUSH1 0x40 MLOAD DUP1 PUSH2 0x140 ADD PUSH1 0x40 MSTORE DUP1 DUP11 DUP11 DUP1 DUP1 PUSH1 0x1F ADD PUSH1 0x20 DUP1 SWAP2 DIV MUL PUSH1 0x20 ADD PUSH1 0x40 MLOAD SWAP1 DUP2 ADD PUSH1 0x40 MSTORE DUP1 SWAP4 SWAP3 SWAP2 SWAP1 DUP2 DUP2 MSTORE PUSH1 0x20 ADD DUP4 DUP4 DUP1 DUP3 DUP5 CALLDATACOPY PUSH0 SWAP3 ADD SWAP2 SWAP1 SWAP2 MSTORE POP POP POP SWAP1 DUP3 MSTORE POP PUSH1 0x20 ADD DUP9 PUSH1 0x5 DUP2 GT ISZERO PUSH2 0x11BA JUMPI PUSH2 0x11BA PUSH2 0x1779 JUMP JUMPDEST DUP2 MSTORE PUSH1 0x20 ADD PUSH0 DUP2 MSTORE PUSH1 0x20 ADD DUP8 PUSH1 0x2 DUP2 GT ISZERO PUSH2 0x11D7 JUMPI PUSH2 0x11D7 PUSH2 0x1779 JUMP JUMPDEST DUP2 MSTORE PUSH1 0x20 ADD DUP7 DUP2 MSTORE PUSH1 0x20 ADD PUSH0 DUP1 SHL DUP2 MSTORE PUSH1 0x20 ADD DUP6 PUSH1 0x1 PUSH1 0x1 PUSH1 0xA0 SHL SUB AND DUP2 MSTORE PUSH1 0x20 ADD TIMESTAMP PUSH1 0x1 PUSH1 0x1 PUSH1 0x40 SHL SUB AND DUP2 MSTORE PUSH1 0x20 ADD TIMESTAMP PUSH1 0x1 PUSH1 0x1 PUSH1 0x40 SHL SUB AND DUP2 MSTORE PUSH1 0x20 ADD DUP5 DUP5 DUP1 DUP1 PUSH1 0x1F ADD PUSH1 0x20 DUP1 SWAP2 DIV MUL PUSH1 0x20 ADD PUSH1 0x40 MLOAD SWAP1 DUP2 ADD PUSH1 0x40 MSTORE DUP1 SWAP4 SWAP3 SWAP2 SWAP1 DUP2 DUP2 MSTORE PUSH1 0x20 ADD DUP4 DUP4 DUP1 DUP3 DUP5 CALLDATACOPY PUSH0 SWAP3 ADD SWAP2 SWAP1 SWAP2 MSTORE POP POP POP SWAP2 MSTORE POP PUSH1 0x40 MLOAD PUSH1 0x2 SWAP1 PUSH2 0x1261 SWAP1 DUP15 SWAP1 DUP15 SWAP1 PUSH2 0x1B76 JUMP JUMPDEST SWAP1 DUP2 MSTORE PUSH1 0x40 MLOAD SWAP1 DUP2 SWAP1 SUB PUSH1 0x20 ADD SWAP1 KECCAK256 DUP2 MLOAD DUP2 SWAP1 PUSH2 0x127E SWAP1 DUP3 PUSH2 0x1CAF JUMP JUMPDEST POP PUSH1 0x20 DUP3 ADD MLOAD PUSH1 0x1 DUP1 DUP4 ADD DUP1 SLOAD SWAP1 SWAP2 PUSH1 0xFF NOT SWAP1 SWAP2 AND SWAP1 DUP4 PUSH1 0x5 DUP2 GT ISZERO PUSH2 0x12A6 JUMPI PUSH2 0x12A6 PUSH2 0x1779 JUMP JUMPDEST MUL OR SWAP1 SSTORE POP PUSH1 0x40 DUP3 ADD MLOAD PUSH1 0x1 DUP3 ADD DUP1 SLOAD PUSH2 0xFF00 NOT AND PUSH2 0x100 DUP4 PUSH1 0x3 DUP2 GT ISZERO PUSH2 0x12D0 JUMPI PUSH2 0x12D0 PUSH2 0x1779 JUMP JUMPDEST MUL OR SWAP1 SSTORE POP PUSH1 0x60 DUP3 ADD MLOAD PUSH1 0x1 DUP3 ADD DUP1 SLOAD PUSH3 0xFF0000 NOT AND PUSH3 0x10000 DUP4 PUSH1 0x2 DUP2 GT ISZERO PUSH2 0x12FC JUMPI PUSH2 0x12FC PUSH2 0x1779 JUMP JUMPDEST MUL OR SWAP1 SSTORE POP PUSH1 0x80 DUP3 ADD MLOAD PUSH1 0x2 DUP3 ADD SSTORE PUSH1 0xA0 DUP3 ADD MLOAD PUSH1 0x3 DUP3 ADD SSTORE PUSH1 0xC0 DUP3 ADD MLOAD PUSH1 0x4 DUP3 ADD DUP1 SLOAD PUSH1 0xE0 DUP6 ADD MLOAD PUSH1 0x1 PUSH1 0x1 PUSH1 0xA0 SHL SUB SWAP1 SWAP4 AND PUSH1 0x1 PUSH1 0x1 PUSH1 0xE0 SHL SUB NOT SWAP1 SWAP2 AND OR PUSH1 0x1 PUSH1 0xA0 SHL PUSH1 0x1 PUSH1 0x1 PUSH1 0x40 SHL SUB SWAP4 DUP5 AND MUL OR SWAP1 SSTORE PUSH2 0x100 DUP4 ADD MLOAD PUSH1 0x5 DUP4 ADD DUP1 SLOAD PUSH8 0xFFFFFFFFFFFFFFFF NOT AND SWAP2 SWAP1 SWAP3 AND OR SWAP1 SSTORE PUSH2 0x120 DUP3 ADD MLOAD PUSH1 0x6 DUP3 ADD SWAP1 PUSH2 0x1384 SWAP1 DUP3 PUSH2 0x1CAF JUMP JUMPDEST POP POP POP PUSH1 0x1 PUSH1 0x1 PUSH1 0xA0 SHL SUB DUP5 AND PUSH0 SWAP1 DUP2 MSTORE PUSH1 0x3 PUSH1 0x20 MSTORE PUSH1 0x40 SWAP1 KECCAK256 PUSH2 0x13A9 DUP12 DUP14 DUP4 PUSH2 0x1D6E JUMP JUMPDEST POP PUSH1 0x4 DUP1 SLOAD PUSH1 0x1 DUP2 ADD DUP3 SSTORE PUSH0 SWAP2 SWAP1 SWAP2 MSTORE PUSH32 0x8A35ACFBC15FF81A39AE7D344FD709F28E8600B4AA8C65C6B64BFE7FE36BD19B ADD PUSH2 0x13E6 DUP12 DUP14 DUP4 PUSH2 0x1D6E JUMP JUMPDEST POP DUP11 DUP11 PUSH1 0x40 MLOAD PUSH2 0x13F7 SWAP3 SWAP2 SWAP1 PUSH2 0x1B76 JUMP JUMPDEST PUSH1 0x40 MLOAD DUP1 SWAP2 SUB SWAP1 KECCAK256 PUSH32 0x91811FC601BDEA79FA216C7DA18B8085F49BF0078CE43FF4F8AAE55A95C68269 DUP11 DUP11 DUP11 DUP9 DUP9 DUP9 PUSH1 0x40 MLOAD PUSH2 0x1438 SWAP7 SWAP6 SWAP5 SWAP4 SWAP3 SWAP2 SWAP1 PUSH2 0x1E27 JUMP JUMPDEST PUSH1 0x40 MLOAD DUP1 SWAP2 SUB SWAP1 LOG2 POP POP POP POP POP POP POP POP POP POP POP JUMP JUMPDEST PUSH0 DUP3 DUP2 MSTORE PUSH1 0x20 DUP2 SWAP1 MSTORE PUSH1 0x40 SWAP1 KECCAK256 PUSH1 0x1 ADD SLOAD PUSH2 0x1467 DUP2 PUSH2 0x1471 JUMP JUMPDEST PUSH2 0x607 DUP4 DUP4 PUSH2 0x150A JUMP JUMPDEST PUSH2 0x72B DUP2 CALLER PUSH2 0x1626 JUMP JUMPDEST PUSH0 PUSH2 0x1486 DUP4 DUP4 PUSH2 0xC25 JUMP JUMPDEST PUSH2 0x1503 JUMPI PUSH0 DUP4 DUP2 MSTORE PUSH1 0x20 DUP2 DUP2 MSTORE PUSH1 0x40 DUP1 DUP4 KECCAK256 PUSH1 0x1 PUSH1 0x1 PUSH1 0xA0 SHL SUB DUP7 AND DUP5 MSTORE SWAP1 SWAP2 MSTORE SWAP1 KECCAK256 DUP1 SLOAD PUSH1 0xFF NOT AND PUSH1 0x1 OR SWAP1 SSTORE PUSH2 0x14BB CALLER SWAP1 JUMP JUMPDEST PUSH1 0x1 PUSH1 0x1 PUSH1 0xA0 SHL SUB AND DUP3 PUSH1 0x1 PUSH1 0x1 PUSH1 0xA0 SHL SUB AND DUP5 PUSH32 0x2F8788117E7EFF1D82E926EC794901D17C78024A50270940304540A733656F0D PUSH1 0x40 MLOAD PUSH1 0x40 MLOAD DUP1 SWAP2 SUB SWAP1 LOG4 POP PUSH1 0x1 PUSH2 0x343 JUMP JUMPDEST POP PUSH0 PUSH2 0x343 JUMP JUMPDEST PUSH0 PUSH2 0x1515 DUP4 DUP4 PUSH2 0xC25 JUMP JUMPDEST ISZERO PUSH2 0x1503 JUMPI PUSH0 DUP4 DUP2 MSTORE PUSH1 0x20 DUP2 DUP2 MSTORE PUSH1 0x40 DUP1 DUP4 KECCAK256 PUSH1 0x1 PUSH1 0x1 PUSH1 0xA0 SHL SUB DUP7 AND DUP1 DUP6 MSTORE SWAP3 MSTORE DUP1 DUP4 KECCAK256 DUP1 SLOAD PUSH1 0xFF NOT AND SWAP1 SSTORE MLOAD CALLER SWAP3 DUP7 SWAP2 PUSH32 0xF6391F5C32D9C69D2A47EA670B442974B53935D1EDC7FD64EB21E047A839171B SWAP2 SWAP1 LOG4 POP PUSH1 0x1 PUSH2 0x343 JUMP JUMPDEST PUSH2 0x157B PUSH2 0x1663 JUMP JUMPDEST PUSH1 0x1 DUP1 SLOAD PUSH1 0xFF NOT AND SWAP1 SSTORE PUSH32 0x5DB9EE0A495BF2E6FF9C91A7834C1BA4FDD244A5E8AA4E537BD38AEAE4B073AA CALLER JUMPDEST PUSH1 0x40 MLOAD PUSH1 0x1 PUSH1 0x1 PUSH1 0xA0 SHL SUB SWAP1 SWAP2 AND DUP2 MSTORE PUSH1 0x20 ADD PUSH1 0x40 MLOAD DUP1 SWAP2 SUB SWAP1 LOG1 JUMP JUMPDEST PUSH2 0x15CD PUSH2 0x1600 JUMP JUMPDEST PUSH1 0x1 DUP1 SLOAD PUSH1 0xFF NOT AND DUP2 OR SWAP1 SSTORE PUSH32 0x62E78CEA01BEE320CD4E420270B5EA74000D11B0C9F74754EBDBFC544B05A258 CALLER PUSH2 0x15A8 JUMP JUMPDEST PUSH1 0x1 SLOAD PUSH1 0xFF AND ISZERO PUSH2 0x1624 JUMPI PUSH1 0x40 MLOAD PUSH4 0xD93C0665 PUSH1 0xE0 SHL DUP2 MSTORE PUSH1 0x4 ADD PUSH1 0x40 MLOAD DUP1 SWAP2 SUB SWAP1 REVERT JUMPDEST JUMP JUMPDEST PUSH2 0x1630 DUP3 DUP3 PUSH2 0xC25 JUMP JUMPDEST PUSH2 0x165F JUMPI PUSH1 0x40 MLOAD PUSH4 0xE2517D3F PUSH1 0xE0 SHL DUP2 MSTORE PUSH1 0x1 PUSH1 0x1 PUSH1 0xA0 SHL SUB DUP3 AND PUSH1 0x4 DUP3 ADD MSTORE PUSH1 0x24 DUP2 ADD DUP4 SWAP1 MSTORE PUSH1 0x44 ADD PUSH2 0x78F JUMP JUMPDEST POP POP JUMP JUMPDEST PUSH1 0x1 SLOAD PUSH1 0xFF AND PUSH2 0x1624 JUMPI PUSH1 0x40 MLOAD PUSH4 0x8DFC202B PUSH1 0xE0 SHL DUP2 MSTORE PUSH1 0x4 ADD PUSH1 0x40 MLOAD DUP1 SWAP2 SUB SWAP1 REVERT JUMPDEST PUSH0 PUSH1 0x20 DUP3 DUP5 SUB SLT ISZERO PUSH2 0x1696 JUMPI PUSH0 DUP1 REVERT JUMPDEST DUP2 CALLDATALOAD PUSH1 0x1 PUSH1 0x1 PUSH1 0xE0 SHL SUB NOT DUP2 AND DUP2 EQ PUSH2 0x16AD JUMPI PUSH0 DUP1 REVERT JUMPDEST SWAP4 SWAP3 POP POP POP JUMP JUMPDEST PUSH0 DUP1 DUP4 PUSH1 0x1F DUP5 ADD SLT PUSH2 0x16C4 JUMPI PUSH0 DUP1 REVERT JUMPDEST POP DUP2 CALLDATALOAD PUSH1 0x1 PUSH1 0x1 PUSH1 0x40 SHL SUB DUP2 GT ISZERO PUSH2 0x16DA JUMPI PUSH0 DUP1 REVERT JUMPDEST PUSH1 0x20 DUP4 ADD SWAP2 POP DUP4 PUSH1 0x20 DUP3 DUP6 ADD ADD GT ISZERO PUSH2 0x16F1 JUMPI PUSH0 DUP1 REVERT JUMPDEST SWAP3 POP SWAP3 SWAP1 POP JUMP JUMPDEST PUSH0 DUP1 PUSH1 0x20 DUP4 DUP6 SUB SLT ISZERO PUSH2 0x1709 JUMPI PUSH0 DUP1 REVERT JUMPDEST DUP3 CALLDATALOAD PUSH1 0x1 PUSH1 0x1 PUSH1 0x40 SHL SUB DUP2 GT ISZERO PUSH2 0x171E JUMPI PUSH0 DUP1 REVERT JUMPDEST PUSH2 0x172A DUP6 DUP3 DUP7 ADD PUSH2 0x16B4 JUMP JUMPDEST SWAP1 SWAP7 SWAP1 SWAP6 POP SWAP4 POP POP POP POP JUMP JUMPDEST PUSH0 DUP2 MLOAD DUP1 DUP5 MSTORE PUSH0 JUMPDEST DUP2 DUP2 LT ISZERO PUSH2 0x175A JUMPI PUSH1 0x20 DUP2 DUP6 ADD DUP2 ADD MLOAD DUP7 DUP4 ADD DUP3 ADD MSTORE ADD PUSH2 0x173E JUMP JUMPDEST POP PUSH0 PUSH1 0x20 DUP3 DUP7 ADD ADD MSTORE PUSH1 0x20 PUSH1 0x1F NOT PUSH1 0x1F DUP4 ADD AND DUP6 ADD ADD SWAP2 POP POP SWAP3 SWAP2 POP POP JUMP JUMPDEST PUSH4 0x4E487B71 PUSH1 0xE0 SHL PUSH0 MSTORE PUSH1 0x21 PUSH1 0x4 MSTORE PUSH1 0x24 PUSH0 REVERT JUMPDEST PUSH1 0x6 DUP2 LT PUSH2 0x179D JUMPI PUSH2 0x179D PUSH2 0x1779 JUMP JUMPDEST SWAP1 MSTORE JUMP JUMPDEST PUSH1 0x4 DUP2 LT PUSH2 0x179D JUMPI PUSH2 0x179D PUSH2 0x1779 JUMP JUMPDEST PUSH1 0x3 DUP2 LT PUSH2 0x179D JUMPI PUSH2 0x179D PUSH2 0x1779 JUMP JUMPDEST PUSH1 0x20 DUP2 MSTORE PUSH0 DUP3 MLOAD PUSH2 0x140 DUP1 PUSH1 0x20 DUP6 ADD MSTORE PUSH2 0x17DF PUSH2 0x160 DUP6 ADD DUP4 PUSH2 0x1736 JUMP JUMPDEST SWAP2 POP PUSH1 0x20 DUP6 ADD MLOAD PUSH2 0x17F3 PUSH1 0x40 DUP7 ADD DUP3 PUSH2 0x178D JUMP JUMPDEST POP PUSH1 0x40 DUP6 ADD MLOAD PUSH2 0x1806 PUSH1 0x60 DUP7 ADD DUP3 PUSH2 0x17A1 JUMP JUMPDEST POP PUSH1 0x60 DUP6 ADD MLOAD PUSH2 0x1819 PUSH1 0x80 DUP7 ADD DUP3 PUSH2 0x17B1 JUMP JUMPDEST POP PUSH1 0x80 DUP6 ADD MLOAD PUSH1 0xA0 DUP6 ADD MSTORE PUSH1 0xA0 DUP6 ADD MLOAD PUSH1 0xC0 DUP6 ADD MSTORE PUSH1 0xC0 DUP6 ADD MLOAD PUSH2 0x1848 PUSH1 0xE0 DUP7 ADD DUP3 PUSH1 0x1 PUSH1 0x1 PUSH1 0xA0 SHL SUB AND SWAP1 MSTORE JUMP JUMPDEST POP PUSH1 0xE0 DUP6 ADD MLOAD PUSH2 0x100 PUSH2 0x1865 DUP2 DUP8 ADD DUP4 PUSH1 0x1 PUSH1 0x1 PUSH1 0x40 SHL SUB AND SWAP1 MSTORE JUMP JUMPDEST DUP7 ADD MLOAD SWAP1 POP PUSH2 0x120 PUSH2 0x1881 DUP7 DUP3 ADD DUP4 PUSH1 0x1 PUSH1 0x1 PUSH1 0x40 SHL SUB AND SWAP1 MSTORE JUMP JUMPDEST DUP7 ADD MLOAD DUP6 DUP5 SUB PUSH1 0x1F NOT ADD DUP4 DUP8 ADD MSTORE SWAP1 POP PUSH2 0x189B DUP4 DUP3 PUSH2 0x1736 JUMP JUMPDEST SWAP7 SWAP6 POP POP POP POP POP POP JUMP JUMPDEST PUSH0 PUSH1 0x20 DUP3 DUP5 SUB SLT ISZERO PUSH2 0x18B5 JUMPI PUSH0 DUP1 REVERT JUMPDEST POP CALLDATALOAD SWAP2 SWAP1 POP JUMP JUMPDEST DUP1 CALLDATALOAD PUSH1 0x1 PUSH1 0x1 PUSH1 0xA0 SHL SUB DUP2 AND DUP2 EQ PUSH2 0x18D2 JUMPI PUSH0 DUP1 REVERT JUMPDEST SWAP2 SWAP1 POP JUMP JUMPDEST PUSH0 DUP1 PUSH1 0x40 DUP4 DUP6 SUB SLT ISZERO PUSH2 0x18E8 JUMPI PUSH0 DUP1 REVERT JUMPDEST DUP3 CALLDATALOAD SWAP2 POP PUSH2 0x18F8 PUSH1 0x20 DUP5 ADD PUSH2 0x18BC JUMP JUMPDEST SWAP1 POP SWAP3 POP SWAP3 SWAP1 POP JUMP JUMPDEST PUSH0 PUSH1 0x20 DUP1 DUP4 ADD PUSH1 0x20 DUP5 MSTORE DUP1 DUP6 MLOAD DUP1 DUP4 MSTORE PUSH1 0x40 DUP7 ADD SWAP2 POP PUSH1 0x40 DUP2 PUSH1 0x5 SHL DUP8 ADD ADD SWAP3 POP PUSH1 0x20 DUP8 ADD PUSH0 JUMPDEST DUP3 DUP2 LT ISZERO PUSH2 0x1956 JUMPI PUSH1 0x3F NOT DUP9 DUP7 SUB ADD DUP5 MSTORE PUSH2 0x1944 DUP6 DUP4 MLOAD PUSH2 0x1736 JUMP JUMPDEST SWAP5 POP SWAP3 DUP6 ADD SWAP3 SWAP1 DUP6 ADD SWAP1 PUSH1 0x1 ADD PUSH2 0x1928 JUMP JUMPDEST POP SWAP3 SWAP8 SWAP7 POP POP POP POP POP POP POP JUMP JUMPDEST PUSH0 DUP1 PUSH0 DUP1 PUSH1 0x40 DUP6 DUP8 SUB SLT ISZERO PUSH2 0x1976 JUMPI PUSH0 DUP1 REVERT JUMPDEST DUP5 CALLDATALOAD PUSH1 0x1 PUSH1 0x1 PUSH1 0x40 SHL SUB DUP1 DUP3 GT ISZERO PUSH2 0x198C JUMPI PUSH0 DUP1 REVERT JUMPDEST PUSH2 0x1998 DUP9 DUP4 DUP10 ADD PUSH2 0x16B4 JUMP JUMPDEST SWAP1 SWAP7 POP SWAP5 POP PUSH1 0x20 DUP8 ADD CALLDATALOAD SWAP2 POP DUP1 DUP3 GT ISZERO PUSH2 0x19B0 JUMPI PUSH0 DUP1 REVERT JUMPDEST POP PUSH2 0x19BD DUP8 DUP3 DUP9 ADD PUSH2 0x16B4 JUMP JUMPDEST SWAP6 SWAP9 SWAP5 SWAP8 POP SWAP6 POP POP POP POP JUMP JUMPDEST PUSH0 DUP1 PUSH0 PUSH1 0x40 DUP5 DUP7 SUB SLT ISZERO PUSH2 0x19DB JUMPI PUSH0 DUP1 REVERT JUMPDEST DUP4 CALLDATALOAD PUSH1 0x1 PUSH1 0x1 PUSH1 0x40 SHL SUB DUP2 GT ISZERO PUSH2 0x19F0 JUMPI PUSH0 DUP1 REVERT JUMPDEST PUSH2 0x19FC DUP7 DUP3 DUP8 ADD PUSH2 0x16B4 JUMP JUMPDEST SWAP1 SWAP8 SWAP1 SWAP7 POP PUSH1 0x20 SWAP6 SWAP1 SWAP6 ADD CALLDATALOAD SWAP5 SWAP4 POP POP POP POP JUMP JUMPDEST DUP1 CALLDATALOAD PUSH1 0x3 DUP2 LT PUSH2 0x18D2 JUMPI PUSH0 DUP1 REVERT JUMPDEST PUSH0 DUP1 PUSH0 DUP1 PUSH1 0x60 DUP6 DUP8 SUB SLT ISZERO PUSH2 0x1A31 JUMPI PUSH0 DUP1 REVERT JUMPDEST DUP5 CALLDATALOAD PUSH1 0x1 PUSH1 0x1 PUSH1 0x40 SHL SUB DUP2 GT ISZERO PUSH2 0x1A46 JUMPI PUSH0 DUP1 REVERT JUMPDEST PUSH2 0x1A52 DUP8 DUP3 DUP9 ADD PUSH2 0x16B4 JUMP JUMPDEST SWAP1 SWAP6 POP SWAP4 POP PUSH2 0x1A65 SWAP1 POP PUSH1 0x20 DUP7 ADD PUSH2 0x1A10 JUMP JUMPDEST SWAP4 SWAP7 SWAP3 SWAP6 POP SWAP3 SWAP4 PUSH1 0x40 ADD CALLDATALOAD SWAP3 POP POP JUMP JUMPDEST PUSH0 PUSH1 0x20 DUP3 DUP5 SUB SLT ISZERO PUSH2 0x1A85 JUMPI PUSH0 DUP1 REVERT JUMPDEST PUSH2 0x16AD DUP3 PUSH2 0x18BC JUMP JUMPDEST PUSH1 0x20 DUP2 MSTORE PUSH0 PUSH2 0x16AD PUSH1 0x20 DUP4 ADD DUP5 PUSH2 0x1736 JUMP JUMPDEST PUSH0 DUP1 PUSH0 DUP1 PUSH0 DUP1 PUSH0 DUP1 PUSH0 DUP1 PUSH1 0xE0 DUP12 DUP14 SUB SLT ISZERO PUSH2 0x1AB9 JUMPI PUSH0 DUP1 REVERT JUMPDEST DUP11 CALLDATALOAD PUSH1 0x1 PUSH1 0x1 PUSH1 0x40 SHL SUB DUP1 DUP3 GT ISZERO PUSH2 0x1ACF JUMPI PUSH0 DUP1 REVERT JUMPDEST PUSH2 0x1ADB DUP15 DUP4 DUP16 ADD PUSH2 0x16B4 JUMP JUMPDEST SWAP1 SWAP13 POP SWAP11 POP PUSH1 0x20 DUP14 ADD CALLDATALOAD SWAP2 POP DUP1 DUP3 GT ISZERO PUSH2 0x1AF3 JUMPI PUSH0 DUP1 REVERT JUMPDEST PUSH2 0x1AFF DUP15 DUP4 DUP16 ADD PUSH2 0x16B4 JUMP JUMPDEST SWAP1 SWAP11 POP SWAP9 POP PUSH1 0x40 DUP14 ADD CALLDATALOAD SWAP2 POP PUSH1 0x6 DUP3 LT PUSH2 0x1B17 JUMPI PUSH0 DUP1 REVERT JUMPDEST DUP2 SWAP8 POP PUSH2 0x1B26 PUSH1 0x60 DUP15 ADD PUSH2 0x1A10 JUMP JUMPDEST SWAP7 POP PUSH1 0x80 DUP14 ADD CALLDATALOAD SWAP6 POP PUSH2 0x1B3B PUSH1 0xA0 DUP15 ADD PUSH2 0x18BC JUMP JUMPDEST SWAP5 POP PUSH1 0xC0 DUP14 ADD CALLDATALOAD SWAP2 POP DUP1 DUP3 GT ISZERO PUSH2 0x1B50 JUMPI PUSH0 DUP1 REVERT JUMPDEST POP PUSH2 0x1B5D DUP14 DUP3 DUP15 ADD PUSH2 0x16B4 JUMP JUMPDEST SWAP2 POP DUP1 SWAP4 POP POP DUP1 SWAP2 POP POP SWAP3 SWAP6 SWAP9 SWAP12 SWAP2 SWAP5 SWAP8 SWAP11 POP SWAP3 SWAP6 SWAP9 POP JUMP JUMPDEST DUP2 DUP4 DUP3 CALLDATACOPY PUSH0 SWAP2 ADD SWAP1 DUP2 MSTORE SWAP2 SWAP1 POP JUMP JUMPDEST PUSH1 0x1 DUP2 DUP2 SHR SWAP1 DUP3 AND DUP1 PUSH2 0x1B99 JUMPI PUSH1 0x7F DUP3 AND SWAP2 POP JUMPDEST PUSH1 0x20 DUP3 LT DUP2 SUB PUSH2 0x1BB7 JUMPI PUSH4 0x4E487B71 PUSH1 0xE0 SHL PUSH0 MSTORE PUSH1 0x22 PUSH1 0x4 MSTORE PUSH1 0x24 PUSH0 REVERT JUMPDEST POP SWAP2 SWAP1 POP JUMP JUMPDEST PUSH1 0x20 DUP1 DUP3 MSTORE PUSH1 0xD SWAP1 DUP3 ADD MSTORE PUSH13 0x15D30E881B9BDD08199BDD5B99 PUSH1 0x9A SHL PUSH1 0x40 DUP3 ADD MSTORE PUSH1 0x60 ADD SWAP1 JUMP JUMPDEST DUP2 DUP4 MSTORE DUP2 DUP2 PUSH1 0x20 DUP6 ADD CALLDATACOPY POP PUSH0 DUP3 DUP3 ADD PUSH1 0x20 SWAP1 DUP2 ADD SWAP2 SWAP1 SWAP2 MSTORE PUSH1 0x1F SWAP1 SWAP2 ADD PUSH1 0x1F NOT AND SWAP1 SWAP2 ADD ADD SWAP1 JUMP JUMPDEST PUSH1 0x20 DUP2 MSTORE PUSH0 PUSH2 0x1C1F PUSH1 0x20 DUP4 ADD DUP5 DUP7 PUSH2 0x1BE4 JUMP JUMPDEST SWAP5 SWAP4 POP POP POP POP JUMP JUMPDEST PUSH1 0x60 DUP2 ADD PUSH2 0x1C35 DUP3 DUP7 PUSH2 0x17B1 JUMP JUMPDEST PUSH2 0x1C42 PUSH1 0x20 DUP4 ADD DUP6 PUSH2 0x17B1 JUMP JUMPDEST DUP3 PUSH1 0x40 DUP4 ADD MSTORE SWAP5 SWAP4 POP POP POP POP JUMP JUMPDEST PUSH4 0x4E487B71 PUSH1 0xE0 SHL PUSH0 MSTORE PUSH1 0x41 PUSH1 0x4 MSTORE PUSH1 0x24 PUSH0 REVERT JUMPDEST PUSH1 0x1F DUP3 GT ISZERO PUSH2 0x714 JUMPI DUP1 PUSH0 MSTORE PUSH1 0x20 PUSH0 KECCAK256 PUSH1 0x1F DUP5 ADD PUSH1 0x5 SHR DUP2 ADD PUSH1 0x20 DUP6 LT ISZERO PUSH2 0x1C89 JUMPI POP DUP1 JUMPDEST PUSH1 0x1F DUP5 ADD PUSH1 0x5 SHR DUP3 ADD SWAP2 POP JUMPDEST DUP2 DUP2 LT ISZERO PUSH2 0x1CA8 JUMPI PUSH0 DUP2 SSTORE PUSH1 0x1 ADD PUSH2 0x1C95 JUMP JUMPDEST POP POP POP POP POP JUMP JUMPDEST DUP2 MLOAD PUSH1 0x1 PUSH1 0x1 PUSH1 0x40 SHL SUB DUP2 GT ISZERO PUSH2 0x1CC8 JUMPI PUSH2 0x1CC8 PUSH2 0x1C50 JUMP JUMPDEST PUSH2 0x1CDC DUP2 PUSH2 0x1CD6 DUP5 SLOAD PUSH2 0x1B85 JUMP JUMPDEST DUP5 PUSH2 0x1C64 JUMP JUMPDEST PUSH1 0x20 DUP1 PUSH1 0x1F DUP4 GT PUSH1 0x1 DUP2 EQ PUSH2 0x1D0F JUMPI PUSH0 DUP5 ISZERO PUSH2 0x1CF8 JUMPI POP DUP6 DUP4 ADD MLOAD JUMPDEST PUSH0 NOT PUSH1 0x3 DUP7 SWAP1 SHL SHR NOT AND PUSH1 0x1 DUP6 SWAP1 SHL OR DUP6 SSTORE PUSH2 0x1D66 JUMP JUMPDEST PUSH0 DUP6 DUP2 MSTORE PUSH1 0x20 DUP2 KECCAK256 PUSH1 0x1F NOT DUP7 AND SWAP2 JUMPDEST DUP3 DUP2 LT ISZERO PUSH2 0x1D3D JUMPI DUP9 DUP7 ADD MLOAD DUP3 SSTORE SWAP5 DUP5 ADD SWAP5 PUSH1 0x1 SWAP1 SWAP2 ADD SWAP1 DUP5 ADD PUSH2 0x1D1E JUMP JUMPDEST POP DUP6 DUP3 LT ISZERO PUSH2 0x1D5A JUMPI DUP8 DUP6 ADD MLOAD PUSH0 NOT PUSH1 0x3 DUP9 SWAP1 SHL PUSH1 0xF8 AND SHR NOT AND DUP2 SSTORE JUMPDEST POP POP PUSH1 0x1 DUP5 PUSH1 0x1 SHL ADD DUP6 SSTORE JUMPDEST POP POP POP POP POP POP JUMP JUMPDEST PUSH1 0x1 PUSH1 0x1 PUSH1 0x40 SHL SUB DUP4 GT ISZERO PUSH2 0x1D85 JUMPI PUSH2 0x1D85 PUSH2 0x1C50 JUMP JUMPDEST PUSH2 0x1D99 DUP4 PUSH2 0x1D93 DUP4 SLOAD PUSH2 0x1B85 JUMP JUMPDEST DUP4 PUSH2 0x1C64 JUMP JUMPDEST PUSH0 PUSH1 0x1F DUP5 GT PUSH1 0x1 DUP2 EQ PUSH2 0x1DCA JUMPI PUSH0 DUP6 ISZERO PUSH2 0x1DB3 JUMPI POP DUP4 DUP3 ADD CALLDATALOAD JUMPDEST PUSH0 NOT PUSH1 0x3 DUP8 SWAP1 SHL SHR NOT AND PUSH1 0x1 DUP7 SWAP1 SHL OR DUP4 SSTORE PUSH2 0x1CA8 JUMP JUMPDEST PUSH0 DUP4 DUP2 MSTORE PUSH1 0x20 DUP2 KECCAK256 PUSH1 0x1F NOT DUP8 AND SWAP2 JUMPDEST DUP3 DUP2 LT ISZERO PUSH2 0x1DF9 JUMPI DUP7 DUP6 ADD CALLDATALOAD DUP3 SSTORE PUSH1 0x20 SWAP5 DUP6 ADD SWAP5 PUSH1 0x1 SWAP1 SWAP3 ADD SWAP2 ADD PUSH2 0x1DD9 JUMP JUMPDEST POP DUP7 DUP3 LT ISZERO PUSH2 0x1E15 JUMPI PUSH0 NOT PUSH1 0xF8 DUP9 PUSH1 0x3 SHL AND SHR NOT DUP5 DUP8 ADD CALLDATALOAD AND DUP2 SSTORE JUMPDEST POP POP PUSH1 0x1 DUP6 PUSH1 0x1 SHL ADD DUP4 SSTORE POP POP POP POP POP JUMP JUMPDEST PUSH1 0x80 DUP2 MSTORE PUSH0 PUSH2 0x1E3A PUSH1 0x80 DUP4 ADD DUP9 DUP11 PUSH2 0x1BE4 JUMP JUMPDEST PUSH2 0x1E47 PUSH1 0x20 DUP5 ADD DUP9 PUSH2 0x178D JUMP JUMPDEST PUSH1 0x1 PUSH1 0x1 PUSH1 0xA0 SHL SUB DUP7 AND PUSH1 0x40 DUP5 ADD MSTORE DUP3 DUP2 SUB PUSH1 0x60 DUP5 ADD MSTORE PUSH2 0x1E69 DUP2 DUP6 DUP8 PUSH2 0x1BE4 JUMP JUMPDEST SWAP10 SWAP9 POP POP POP POP POP POP POP POP POP JUMP INVALID LOG2 PUSH5 0x6970667358 0x22 SLT KECCAK256 STOP 0xE5 0xA7 0xF8 0x2B DUP12 0x1E INVALID SMOD PUSH19 0xB8BCAC6DB7FC0CD5311F7B3EFFD686627DCB79 0xBD PUSH6 0xAE64736F6C63 NUMBER STOP ADDMOD XOR STOP CALLER "},"methodIdentifiers":{"COMPLIANCE_ROLE()":"062d3bd7","DEFAULT_ADMIN_ROLE()":"a217fddf","REGISTRAR_ROLE()":"f68e9553","activatePartner(string,bytes32)":"74ac4b58","getAllPartnerCodes()":"34b2e85f","getPartner(string)":"22461845","getPartnerCodeByWallet(address)":"b6c919ec","getRoleAdmin(bytes32)":"248a9ca3","grantRole(bytes32,address)":"2f2ff15d","hasRole(bytes32,address)":"91d14854","isActive(string)":"c8902a21","pause()":"8456cb59","paused()":"5c975abb","registerPartner(string,string,uint8,uint8,bytes32,address,string)":"c8f044a2","renounceRole(bytes32,address)":"36568abe","revokePartner(string,string)":"6750075e","revokeRole(bytes32,address)":"d547741f","supportsInterface(bytes4)":"01ffc9a7","suspendPartner(string,string)":"67eb28d3","unpause()":"3f4ba83a","updateSLA(string,uint8,bytes32)":"b58c5fca"}}}}}