{"contracts/InstitutionalEscrow.sol":{"InstitutionalEscrow":{"abi":[{"inputs":[{"internalType":"address","name":"tokenAddress","type":"address"},{"internalType":"address","name":"treasuryAddress","type":"address"},{"internalType":"address","name":"admin","type":"address"}],"stateMutability":"nonpayable","type":"constructor"},{"inputs":[],"name":"AccessControlBadConfirmation","type":"error"},{"inputs":[{"internalType":"address","name":"account","type":"address"},{"internalType":"bytes32","name":"neededRole","type":"bytes32"}],"name":"AccessControlUnauthorizedAccount","type":"error"},{"inputs":[],"name":"EnforcedPause","type":"error"},{"inputs":[],"name":"ExpectedPause","type":"error"},{"inputs":[],"name":"ReentrancyGuardReentrantCall","type":"error"},{"inputs":[{"internalType":"address","name":"token","type":"address"}],"name":"SafeERC20FailedOperation","type":"error"},{"anonymous":false,"inputs":[{"indexed":false,"internalType":"address","name":"account","type":"address"}],"name":"Paused","type":"event"},{"anonymous":false,"inputs":[{"indexed":true,"internalType":"uint256","name":"positionId","type":"uint256"},{"indexed":true,"internalType":"address","name":"operator","type":"address"},{"indexed":false,"internalType":"string","name":"reason","type":"string"}],"name":"PositionCancelled","type":"event"},{"anonymous":false,"inputs":[{"indexed":true,"internalType":"uint256","name":"positionId","type":"uint256"},{"indexed":true,"internalType":"address","name":"depositor","type":"address"},{"indexed":true,"internalType":"address","name":"beneficiary","type":"address"},{"indexed":false,"internalType":"uint256","name":"amount","type":"uint256"},{"indexed":false,"internalType":"bytes32","name":"subjectId","type":"bytes32"},{"indexed":false,"internalType":"enum InstitutionalEscrow.TriggerEventType","name":"triggerEvent","type":"uint8"},{"indexed":false,"internalType":"string","name":"partnerCode","type":"string"}],"name":"PositionCreated","type":"event"},{"anonymous":false,"inputs":[{"indexed":true,"internalType":"uint256","name":"positionId","type":"uint256"},{"indexed":true,"internalType":"address","name":"operator","type":"address"},{"indexed":false,"internalType":"string","name":"reason","type":"string"}],"name":"PositionFrozen","type":"event"},{"anonymous":false,"inputs":[{"indexed":true,"internalType":"uint256","name":"positionId","type":"uint256"},{"indexed":true,"internalType":"uint256","name":"triggerEventId","type":"uint256"},{"indexed":true,"internalType":"address","name":"executor","type":"address"}],"name":"PositionReleased","type":"event"},{"anonymous":false,"inputs":[{"indexed":true,"internalType":"uint256","name":"positionId","type":"uint256"},{"indexed":true,"internalType":"address","name":"operator","type":"address"}],"name":"PositionUnfrozen","type":"event"},{"anonymous":false,"inputs":[{"indexed":true,"internalType":"bytes32","name":"role","type":"bytes32"},{"indexed":true,"internalType":"bytes32","name":"previousAdminRole","type":"bytes32"},{"indexed":true,"internalType":"bytes32","name":"newAdminRole","type":"bytes32"}],"name":"RoleAdminChanged","type":"event"},{"anonymous":false,"inputs":[{"indexed":true,"internalType":"bytes32","name":"role","type":"bytes32"},{"indexed":true,"internalType":"address","name":"account","type":"address"},{"indexed":true,"internalType":"address","name":"sender","type":"address"}],"name":"RoleGranted","type":"event"},{"anonymous":false,"inputs":[{"indexed":true,"internalType":"bytes32","name":"role","type":"bytes32"},{"indexed":true,"internalType":"address","name":"account","type":"address"},{"indexed":true,"internalType":"address","name":"sender","type":"address"}],"name":"RoleRevoked","type":"event"},{"anonymous":false,"inputs":[{"indexed":false,"internalType":"address","name":"account","type":"address"}],"name":"Unpaused","type":"event"},{"inputs":[],"name":"COMPLIANCE_ROLE","outputs":[{"internalType":"bytes32","name":"","type":"bytes32"}],"stateMutability":"view","type":"function"},{"inputs":[],"name":"DEFAULT_ADMIN_ROLE","outputs":[{"internalType":"bytes32","name":"","type":"bytes32"}],"stateMutability":"view","type":"function"},{"inputs":[],"name":"EXECUTOR_ROLE","outputs":[{"internalType":"bytes32","name":"","type":"bytes32"}],"stateMutability":"view","type":"function"},{"inputs":[{"internalType":"uint256","name":"positionId","type":"uint256"},{"internalType":"string","name":"reason","type":"string"}],"name":"cancelPosition","outputs":[],"stateMutability":"nonpayable","type":"function"},{"inputs":[{"internalType":"address","name":"beneficiary","type":"address"},{"internalType":"uint256","name":"amount","type":"uint256"},{"internalType":"bytes32","name":"subjectId","type":"bytes32"},{"internalType":"enum InstitutionalEscrow.TriggerEventType","name":"triggerEvent","type":"uint8"},{"internalType":"bytes32","name":"metadataHash","type":"bytes32"},{"internalType":"string","name":"partnerCode","type":"string"}],"name":"createPosition","outputs":[{"internalType":"uint256","name":"positionId","type":"uint256"}],"stateMutability":"nonpayable","type":"function"},{"inputs":[{"internalType":"uint256","name":"positionId","type":"uint256"},{"internalType":"string","name":"reason","type":"string"}],"name":"freezePosition","outputs":[],"stateMutability":"nonpayable","type":"function"},{"inputs":[{"internalType":"bytes32","name":"role","type":"bytes32"}],"name":"getRoleAdmin","outputs":[{"internalType":"bytes32","name":"","type":"bytes32"}],"stateMutability":"view","type":"function"},{"inputs":[{"internalType":"bytes32","name":"role","type":"bytes32"},{"internalType":"address","name":"account","type":"address"}],"name":"grantRole","outputs":[],"stateMutability":"nonpayable","type":"function"},{"inputs":[{"internalType":"bytes32","name":"role","type":"bytes32"},{"internalType":"address","name":"account","type":"address"}],"name":"hasRole","outputs":[{"internalType":"bool","name":"","type":"bool"}],"stateMutability":"view","type":"function"},{"inputs":[],"name":"nextPositionId","outputs":[{"internalType":"uint256","name":"","type":"uint256"}],"stateMutability":"view","type":"function"},{"inputs":[],"name":"pause","outputs":[],"stateMutability":"nonpayable","type":"function"},{"inputs":[],"name":"paused","outputs":[{"internalType":"bool","name":"","type":"bool"}],"stateMutability":"view","type":"function"},{"inputs":[{"internalType":"uint256","name":"","type":"uint256"}],"name":"positions","outputs":[{"internalType":"address","name":"depositor","type":"address"},{"internalType":"address","name":"beneficiary","type":"address"},{"internalType":"uint256","name":"amount","type":"uint256"},{"internalType":"bytes32","name":"subjectId","type":"bytes32"},{"internalType":"enum InstitutionalEscrow.TriggerEventType","name":"triggerEvent","type":"uint8"},{"internalType":"uint256","name":"triggerEventId","type":"uint256"},{"internalType":"bytes32","name":"metadataHash","type":"bytes32"},{"internalType":"string","name":"partnerCode","type":"string"},{"internalType":"uint64","name":"createdAt","type":"uint64"},{"internalType":"uint64","name":"executedAt","type":"uint64"},{"internalType":"enum InstitutionalEscrow.EscrowStatus","name":"status","type":"uint8"}],"stateMutability":"view","type":"function"},{"inputs":[{"internalType":"uint256","name":"positionId","type":"uint256"},{"internalType":"uint256","name":"triggerEventId","type":"uint256"}],"name":"releasePosition","outputs":[],"stateMutability":"nonpayable","type":"function"},{"inputs":[{"internalType":"bytes32","name":"role","type":"bytes32"},{"internalType":"address","name":"callerConfirmation","type":"address"}],"name":"renounceRole","outputs":[],"stateMutability":"nonpayable","type":"function"},{"inputs":[{"internalType":"bytes32","name":"role","type":"bytes32"},{"internalType":"address","name":"account","type":"address"}],"name":"revokeRole","outputs":[],"stateMutability":"nonpayable","type":"function"},{"inputs":[{"internalType":"address","name":"newTreasury","type":"address"}],"name":"setTreasury","outputs":[],"stateMutability":"nonpayable","type":"function"},{"inputs":[],"name":"sglToken","outputs":[{"internalType":"contract IERC20","name":"","type":"address"}],"stateMutability":"view","type":"function"},{"inputs":[{"internalType":"bytes4","name":"interfaceId","type":"bytes4"}],"name":"supportsInterface","outputs":[{"internalType":"bool","name":"","type":"bool"}],"stateMutability":"view","type":"function"},{"inputs":[],"name":"treasury","outputs":[{"internalType":"address","name":"","type":"address"}],"stateMutability":"view","type":"function"},{"inputs":[{"internalType":"uint256","name":"positionId","type":"uint256"}],"name":"unfreezePosition","outputs":[],"stateMutability":"nonpayable","type":"function"},{"inputs":[],"name":"unpause","outputs":[],"stateMutability":"nonpayable","type":"function"}],"evm":{"bytecode":{"linkReferences":{},"object":"60a060405234801562000010575f80fd5b5060405162001b7b38038062001b7b8339810160408190526200003391620002c0565b60017f9b779b17422d0df92223018b32b4d1fa46e071723d6817e2486d003becc55f00556001600160a01b038316620000b35760405162461bcd60e51b815260206004820152601760248201527f494e53545f4553433a20696e76616c696420746f6b656e00000000000000000060448201526064015b60405180910390fd5b6001600160a01b0382166200010b5760405162461bcd60e51b815260206004820152601a60248201527f494e53545f4553433a20696e76616c69642074726561737572790000000000006044820152606401620000aa565b6001600160a01b038116620001635760405162461bcd60e51b815260206004820152601760248201527f494e53545f4553433a20696e76616c69642061646d696e0000000000000000006044820152606401620000aa565b6001600160a01b03838116608052600380546001600160a01b031916918416919091179055620001945f82620001f8565b50620001c17fd8aa0f3194971a2a116679f7c2090f6939c8d4e01a2a8d7e41d55e5351469e6382620001f8565b50620001ee7f442a94f1a1fac79af32856af2a64f63648cfa2ef3b98610a5bb7cbec4cee698582620001f8565b5050505062000307565b5f828152602081815260408083206001600160a01b038516845290915281205460ff166200029b575f838152602081815260408083206001600160a01b03861684529091529020805460ff19166001179055620002523390565b6001600160a01b0316826001600160a01b0316847f2f8788117e7eff1d82e926ec794901d17c78024a50270940304540a733656f0d60405160405180910390a45060016200029e565b505f5b92915050565b80516001600160a01b0381168114620002bb575f80fd5b919050565b5f805f60608486031215620002d3575f80fd5b620002de84620002a4565b9250620002ee60208501620002a4565b9150620002fe60408501620002a4565b90509250925092565b608051611846620003355f395f818161023f0152818161051e015281816109270152610c5201526118465ff3fe608060405234801561000f575f80fd5b506004361061013d575f3560e01c80637ef415a7116100b4578063a217fddf11610079578063a217fddf146102d5578063c9149478146102dc578063d07ee434146102ef578063d547741f14610302578063f0f4426014610315578063f1ec7e5114610328575f80fd5b80637ef415a7146102745780638456cb5914610287578063899346c71461028f57806391d148541461029857806399fbab88146102ab575f80fd5b806336568abe1161010557806336568abe146101e95780633f4ba83a146101fc5780635c975abb1461020457806361d027b31461020f57806362b24ea21461023a57806378a4aadd14610261575f80fd5b806301ffc9a714610141578063062d3bd71461016957806307bd02651461018b578063248a9ca3146101b25780632f2ff15d146101d4575b5f80fd5b61015461014f366004611309565b61033b565b60405190151581526020015b60405180910390f35b61017d5f805160206117d183398151915281565b604051908152602001610160565b61017d7fd8aa0f3194971a2a116679f7c2090f6939c8d4e01a2a8d7e41d55e5351469e6381565b61017d6101c0366004611337565b5f9081526020819052604090206001015490565b6101e76101e2366004611369565b610371565b005b6101e76101f7366004611369565b61039b565b6101e76103d3565b60015460ff16610154565b600354610222906001600160a01b031681565b6040516001600160a01b039091168152602001610160565b6102227f000000000000000000000000000000000000000000000000000000000000000081565b6101e761026f3660046113d8565b6103e8565b61017d610282366004611420565b6105a4565b6101e76109c4565b61017d60025481565b6101546102a6366004611369565b6109d6565b6102be6102b9366004611337565b6109fe565b6040516101609b9a999897969594939291906114d9565b61017d5f81565b6101e76102ea3660046115ad565b610b04565b6101e76102fd366004611337565b610cc6565b6101e7610310366004611369565b610d98565b6101e76103233660046115cd565b610dbc565b6101e76103363660046113d8565b610e3f565b5f6001600160e01b03198216637965db0b60e01b148061036b57506301ffc9a760e01b6001600160e01b03198316145b92915050565b5f8281526020819052604090206001015461038b81610f74565b6103958383610f7e565b50505050565b6001600160a01b03811633146103c45760405163334bd91960e11b815260040160405180910390fd5b6103ce828261100d565b505050565b5f6103dd81610f74565b6103e5611076565b50565b6103f06110c8565b6103f86110ee565b5f805160206117d183398151915261040f81610f74565b5f848152600460205260408120906008820154600160801b900460ff16600381111561043d5761043d6114a1565b1461048f5760405162461bcd60e51b815260206004820152601960248201527f494e53545f4553433a206e6f742063616e63656c6c61626c650000000000000060448201526064015b60405180910390fd5b826104d85760405162461bcd60e51b8152602060048201526019602482015278125394d517d154d0ce881c99585cdbdb881c995c5d5a5c9959603a1b6044820152606401610486565b600881018054600160811b68ffffffffffffffffff60401b19909116600160401b4267ffffffffffffffff16021717905580546002820154610548916001600160a01b037f0000000000000000000000000000000000000000000000000000000000000000811692911690611109565b336001600160a01b0316857f7d48960b4147861f64687653163e8bdac213509e036fb1d0c3982d94b2f109ea868660405161058492919061160e565b60405180910390a350506103ce60015f805160206117f183398151915255565b5f6105ad6110c8565b6105b56110ee565b6001600160a01b03881661060b5760405162461bcd60e51b815260206004820152601d60248201527f494e53545f4553433a20696e76616c69642062656e65666963696172790000006044820152606401610486565b5f87116106525760405162461bcd60e51b8152602060048201526015602482015274125394d517d154d0ce881e995c9bc8185b5bdd5b9d605a1b6044820152606401610486565b8561069f5760405162461bcd60e51b815260206004820152601960248201527f494e53545f4553433a20696e76616c6964207375626a656374000000000000006044820152606401610486565b836106ec5760405162461bcd60e51b815260206004820152601f60248201527f494e53545f4553433a20696e76616c6964206d657461646174612068617368006044820152606401610486565b816107395760405162461bcd60e51b815260206004820152601c60248201527f494e53545f4553433a20656d70747920706172746e657220636f6465000000006044820152606401610486565b60028054905f61074883611629565b919050559050604051806101600160405280336001600160a01b03168152602001896001600160a01b03168152602001888152602001878152602001866007811115610796576107966114a1565b81526020015f815260200185815260200184848080601f0160208091040260200160405190810160405280939291908181526020018383808284375f92018290525093855250505067ffffffffffffffff42166020830152604082018190526060909101525f82815260046020818152604092839020845181546001600160a01b039182166001600160a01b0319918216178355928601516001808401805492909316919094161790559284015160028401556060840151600384015560808401519183018054909160ff1990911690836007811115610878576108786114a1565b021790555060a0820151600582015560c0820151600682015560e082015160078201906108a590826116e4565b5061010082015160088201805461012085015167ffffffffffffffff908116600160401b026fffffffffffffffffffffffffffffffff1990921693169290921791909117808255610140840151919060ff60801b1916600160801b836003811115610912576109126114a1565b021790555061094f9150506001600160a01b037f00000000000000000000000000000000000000000000000000000000000000001633308a61113e565b876001600160a01b0316336001600160a01b0316827fea1810a2faacc32e949d7b5b6e220c7c65c1362b00c99a335c954907885980688a8a8a898960405161099b9594939291906117a4565b60405180910390a46109b960015f805160206117f183398151915255565b979650505050505050565b5f6109ce81610f74565b6103e5611174565b5f918252602082815260408084206001600160a01b0393909316845291905290205460ff1690565b600460208190525f9182526040909120805460018201546002830154600384015494840154600585015460068601546007870180546001600160a01b03978816999690971697949660ff909416949293919291610a5a90611661565b80601f0160208091040260200160405190810160405280929190818152602001828054610a8690611661565b8015610ad15780601f10610aa857610100808354040283529160200191610ad1565b820191905f5260205f20905b815481529060010190602001808311610ab457829003601f168201915b5050506008909301549192505067ffffffffffffffff80821691600160401b81049091169060ff600160801b909104168b565b610b0c6110c8565b610b146110ee565b7fd8aa0f3194971a2a116679f7c2090f6939c8d4e01a2a8d7e41d55e5351469e63610b3e81610f74565b5f838152600460205260408120906008820154600160801b900460ff166003811115610b6c57610b6c6114a1565b14610bb15760405162461bcd60e51b8152602060048201526015602482015274494e53545f4553433a206e6f742070656e64696e6760581b6044820152606401610486565b600881015467ffffffffffffffff16610c025760405162461bcd60e51b8152602060048201526013602482015272125394d517d154d0ce881b9bdd08199bdd5b99606a1b6044820152606401610486565b60088101805460058301859055600160801b68ffffffffffffffffff60401b19909116600160401b4267ffffffffffffffff16021717905560018101546002820154610c7c916001600160a01b037f0000000000000000000000000000000000000000000000000000000000000000811692911690611109565b6040513390849086907f6c2b69108c6691683495bb3a230fb2ce5b892b27607e017d4ad023e083cd712c905f90a45050610cc260015f805160206117f183398151915255565b5050565b5f805160206117d1833981519152610cdd81610f74565b60035f83815260046020526040902060080154600160801b900460ff166003811115610d0b57610d0b6114a1565b14610d4f5760405162461bcd60e51b815260206004820152601460248201527324a729aa2fa2a9a19d103737ba10333937bd32b760611b6044820152606401610486565b5f82815260046020526040808220600801805460ff60801b1916905551339184917f5dd6406e214a7ef26e178c64337ff1617723c2710f38107102845152d3f75b4d9190a35050565b5f82815260208190526040902060010154610db281610f74565b610395838361100d565b5f610dc681610f74565b6001600160a01b038216610e1c5760405162461bcd60e51b815260206004820152601a60248201527f494e53545f4553433a20696e76616c69642074726561737572790000000000006044820152606401610486565b50600380546001600160a01b0319166001600160a01b0392909216919091179055565b5f805160206117d1833981519152610e5681610f74565b5f848152600460205260408120906008820154600160801b900460ff166003811115610e8457610e846114a1565b14610ed15760405162461bcd60e51b815260206004820152601760248201527f494e53545f4553433a206e6f7420667265657a61626c650000000000000000006044820152606401610486565b82610f1a5760405162461bcd60e51b8152602060048201526019602482015278125394d517d154d0ce881c99585cdbdb881c995c5d5a5c9959603a1b6044820152606401610486565b60088101805460ff60801b1916600360801b179055604051339086907feb4655a0fe23702258458e16773f1d4f0f6b04d15cf7f7cafd326cf1b218b77b90610f65908890889061160e565b60405180910390a35050505050565b6103e581336111af565b5f610f8983836109d6565b611006575f838152602081815260408083206001600160a01b03861684529091529020805460ff19166001179055610fbe3390565b6001600160a01b0316826001600160a01b0316847f2f8788117e7eff1d82e926ec794901d17c78024a50270940304540a733656f0d60405160405180910390a450600161036b565b505f61036b565b5f61101883836109d6565b15611006575f838152602081815260408083206001600160a01b0386168085529252808320805460ff1916905551339286917ff6391f5c32d9c69d2a47ea670b442974b53935d1edc7fd64eb21e047a839171b9190a450600161036b565b61107e6111e8565b6001805460ff191690557f5db9ee0a495bf2e6ff9c91a7834c1ba4fdd244a5e8aa4e537bd38aeae4b073aa335b6040516001600160a01b03909116815260200160405180910390a1565b60015460ff16156110ec5760405163d93c066560e01b815260040160405180910390fd5b565b6110f661120b565b60025f805160206117f183398151915255565b611116838383600161123a565b6103ce57604051635274afe760e01b81526001600160a01b0384166004820152602401610486565b61114c84848484600161129c565b61039557604051635274afe760e01b81526001600160a01b0385166004820152602401610486565b61117c6110c8565b6001805460ff1916811790557f62e78cea01bee320cd4e420270b5ea74000d11b0c9f74754ebdbfc544b05a258336110ab565b6111b982826109d6565b610cc25760405163e2517d3f60e01b81526001600160a01b038216600482015260248101839052604401610486565b60015460ff166110ec57604051638dfc202b60e01b815260040160405180910390fd5b5f805160206117f1833981519152546002036110ec57604051633ee5aeb560e01b815260040160405180910390fd5b60405163a9059cbb60e01b5f8181526001600160a01b038616600452602485905291602083604481808b5af1925060015f51148316611290578383151615611284573d5f823e3d81fd5b5f873b113d1516831692505b60405250949350505050565b6040516323b872dd60e01b5f8181526001600160a01b038781166004528616602452604485905291602083606481808c5af1925060015f511483166112f85783831516156112ec573d5f823e3d81fd5b5f883b113d1516831692505b604052505f60605295945050505050565b5f60208284031215611319575f80fd5b81356001600160e01b031981168114611330575f80fd5b9392505050565b5f60208284031215611347575f80fd5b5035919050565b80356001600160a01b0381168114611364575f80fd5b919050565b5f806040838503121561137a575f80fd5b8235915061138a6020840161134e565b90509250929050565b5f8083601f8401126113a3575f80fd5b50813567ffffffffffffffff8111156113ba575f80fd5b6020830191508360208285010111156113d1575f80fd5b9250929050565b5f805f604084860312156113ea575f80fd5b83359250602084013567ffffffffffffffff811115611407575f80fd5b61141386828701611393565b9497909650939450505050565b5f805f805f805f60c0888a031215611436575f80fd5b61143f8861134e565b96506020880135955060408801359450606088013560088110611460575f80fd5b93506080880135925060a088013567ffffffffffffffff811115611482575f80fd5b61148e8a828b01611393565b989b979a50959850939692959293505050565b634e487b7160e01b5f52602160045260245ffd5b600881106114c5576114c56114a1565b9052565b600481106114c5576114c56114a1565b5f61016060018060a01b03808f1684526020818f1660208601528d60408601528c606086015261150c608086018d6114b5565b8a60a08601528960c08601528260e08601528851915081838601525f92505b8183101561154a5788830181015185840161018001529182019161152b565b5061018091505f82828601015281601f19601f8301168501019250505061157e61010083018667ffffffffffffffff169052565b67ffffffffffffffff841661012083015261159d6101408301846114c9565b9c9b505050505050505050505050565b5f80604083850312156115be575f80fd5b50508035926020909101359150565b5f602082840312156115dd575f80fd5b6113308261134e565b81835281816020850137505f828201602090810191909152601f909101601f19169091010190565b602081525f6116216020830184866115e6565b949350505050565b5f6001820161164657634e487b7160e01b5f52601160045260245ffd5b5060010190565b634e487b7160e01b5f52604160045260245ffd5b600181811c9082168061167557607f821691505b60208210810361169357634e487b7160e01b5f52602260045260245ffd5b50919050565b601f8211156103ce57805f5260205f20601f840160051c810160208510156116be5750805b601f840160051c820191505b818110156116dd575f81556001016116ca565b5050505050565b815167ffffffffffffffff8111156116fe576116fe61164d565b6117128161170c8454611661565b84611699565b602080601f831160018114611745575f841561172e5750858301515b5f19600386901b1c1916600185901b17855561179c565b5f85815260208120601f198616915b8281101561177357888601518255948401946001909101908401611754565b508582101561179057878501515f19600388901b60f8161c191681555b505060018460011b0185555b505050505050565b8581528460208201526117ba60408201856114b5565b608060608201525f6109b96080830184866115e656fe442a94f1a1fac79af32856af2a64f63648cfa2ef3b98610a5bb7cbec4cee69859b779b17422d0df92223018b32b4d1fa46e071723d6817e2486d003becc55f00a2646970667358221220c315724af7f8a03becec46b3feb3e992eec7a74c46c22dd3a6cca115c904691764736f6c63430008180033","opcodes":"PUSH1 0xA0 PUSH1 0x40 MSTORE CALLVALUE DUP1 ISZERO PUSH3 0x10 JUMPI PUSH0 DUP1 REVERT JUMPDEST POP PUSH1 0x40 MLOAD PUSH3 0x1B7B CODESIZE SUB DUP1 PUSH3 0x1B7B DUP4 CODECOPY DUP2 ADD PUSH1 0x40 DUP2 SWAP1 MSTORE PUSH3 0x33 SWAP2 PUSH3 0x2C0 JUMP JUMPDEST PUSH1 0x1 PUSH32 0x9B779B17422D0DF92223018B32B4D1FA46E071723D6817E2486D003BECC55F00 SSTORE PUSH1 0x1 PUSH1 0x1 PUSH1 0xA0 SHL SUB DUP4 AND PUSH3 0xB3 JUMPI PUSH1 0x40 MLOAD PUSH3 0x461BCD PUSH1 0xE5 SHL DUP2 MSTORE PUSH1 0x20 PUSH1 0x4 DUP3 ADD MSTORE PUSH1 0x17 PUSH1 0x24 DUP3 ADD MSTORE PUSH32 0x494E53545F4553433A20696E76616C696420746F6B656E000000000000000000 PUSH1 0x44 DUP3 ADD MSTORE PUSH1 0x64 ADD JUMPDEST PUSH1 0x40 MLOAD DUP1 SWAP2 SUB SWAP1 REVERT JUMPDEST PUSH1 0x1 PUSH1 0x1 PUSH1 0xA0 SHL SUB DUP3 AND PUSH3 0x10B JUMPI PUSH1 0x40 MLOAD PUSH3 0x461BCD PUSH1 0xE5 SHL DUP2 MSTORE PUSH1 0x20 PUSH1 0x4 DUP3 ADD MSTORE PUSH1 0x1A PUSH1 0x24 DUP3 ADD MSTORE PUSH32 0x494E53545F4553433A20696E76616C6964207472656173757279000000000000 PUSH1 0x44 DUP3 ADD MSTORE PUSH1 0x64 ADD PUSH3 0xAA JUMP JUMPDEST PUSH1 0x1 PUSH1 0x1 PUSH1 0xA0 SHL SUB DUP2 AND PUSH3 0x163 JUMPI PUSH1 0x40 MLOAD PUSH3 0x461BCD PUSH1 0xE5 SHL DUP2 MSTORE PUSH1 0x20 PUSH1 0x4 DUP3 ADD MSTORE PUSH1 0x17 PUSH1 0x24 DUP3 ADD MSTORE PUSH32 0x494E53545F4553433A20696E76616C69642061646D696E000000000000000000 PUSH1 0x44 DUP3 ADD MSTORE PUSH1 0x64 ADD PUSH3 0xAA JUMP JUMPDEST PUSH1 0x1 PUSH1 0x1 PUSH1 0xA0 SHL SUB DUP4 DUP2 AND PUSH1 0x80 MSTORE PUSH1 0x3 DUP1 SLOAD PUSH1 0x1 PUSH1 0x1 PUSH1 0xA0 SHL SUB NOT AND SWAP2 DUP5 AND SWAP2 SWAP1 SWAP2 OR SWAP1 SSTORE PUSH3 0x194 PUSH0 DUP3 PUSH3 0x1F8 JUMP JUMPDEST POP PUSH3 0x1C1 PUSH32 0xD8AA0F3194971A2A116679F7C2090F6939C8D4E01A2A8D7E41D55E5351469E63 DUP3 PUSH3 0x1F8 JUMP JUMPDEST POP PUSH3 0x1EE PUSH32 0x442A94F1A1FAC79AF32856AF2A64F63648CFA2EF3B98610A5BB7CBEC4CEE6985 DUP3 PUSH3 0x1F8 JUMP JUMPDEST POP POP POP POP PUSH3 0x307 JUMP JUMPDEST PUSH0 DUP3 DUP2 MSTORE PUSH1 0x20 DUP2 DUP2 MSTORE PUSH1 0x40 DUP1 DUP4 KECCAK256 PUSH1 0x1 PUSH1 0x1 PUSH1 0xA0 SHL SUB DUP6 AND DUP5 MSTORE SWAP1 SWAP2 MSTORE DUP2 KECCAK256 SLOAD PUSH1 0xFF AND PUSH3 0x29B JUMPI PUSH0 DUP4 DUP2 MSTORE PUSH1 0x20 DUP2 DUP2 MSTORE PUSH1 0x40 DUP1 DUP4 KECCAK256 PUSH1 0x1 PUSH1 0x1 PUSH1 0xA0 SHL SUB DUP7 AND DUP5 MSTORE SWAP1 SWAP2 MSTORE SWAP1 KECCAK256 DUP1 SLOAD PUSH1 0xFF NOT AND PUSH1 0x1 OR SWAP1 SSTORE PUSH3 0x252 CALLER SWAP1 JUMP JUMPDEST PUSH1 0x1 PUSH1 0x1 PUSH1 0xA0 SHL SUB AND DUP3 PUSH1 0x1 PUSH1 0x1 PUSH1 0xA0 SHL SUB AND DUP5 PUSH32 0x2F8788117E7EFF1D82E926EC794901D17C78024A50270940304540A733656F0D PUSH1 0x40 MLOAD PUSH1 0x40 MLOAD DUP1 SWAP2 SUB SWAP1 LOG4 POP PUSH1 0x1 PUSH3 0x29E JUMP JUMPDEST POP PUSH0 JUMPDEST SWAP3 SWAP2 POP POP JUMP JUMPDEST DUP1 MLOAD PUSH1 0x1 PUSH1 0x1 PUSH1 0xA0 SHL SUB DUP2 AND DUP2 EQ PUSH3 0x2BB JUMPI PUSH0 DUP1 REVERT JUMPDEST SWAP2 SWAP1 POP JUMP JUMPDEST PUSH0 DUP1 PUSH0 PUSH1 0x60 DUP5 DUP7 SUB SLT ISZERO PUSH3 0x2D3 JUMPI PUSH0 DUP1 REVERT JUMPDEST PUSH3 0x2DE DUP5 PUSH3 0x2A4 JUMP JUMPDEST SWAP3 POP PUSH3 0x2EE PUSH1 0x20 DUP6 ADD PUSH3 0x2A4 JUMP JUMPDEST SWAP2 POP PUSH3 0x2FE PUSH1 0x40 DUP6 ADD PUSH3 0x2A4 JUMP JUMPDEST SWAP1 POP SWAP3 POP SWAP3 POP SWAP3 JUMP JUMPDEST PUSH1 0x80 MLOAD PUSH2 0x1846 PUSH3 0x335 PUSH0 CODECOPY PUSH0 DUP2 DUP2 PUSH2 0x23F ADD MSTORE DUP2 DUP2 PUSH2 0x51E ADD MSTORE DUP2 DUP2 PUSH2 0x927 ADD MSTORE PUSH2 0xC52 ADD MSTORE PUSH2 0x1846 PUSH0 RETURN INVALID PUSH1 0x80 PUSH1 0x40 MSTORE CALLVALUE DUP1 ISZERO PUSH2 0xF JUMPI PUSH0 DUP1 REVERT JUMPDEST POP PUSH1 0x4 CALLDATASIZE LT PUSH2 0x13D JUMPI PUSH0 CALLDATALOAD PUSH1 0xE0 SHR DUP1 PUSH4 0x7EF415A7 GT PUSH2 0xB4 JUMPI DUP1 PUSH4 0xA217FDDF GT PUSH2 0x79 JUMPI DUP1 PUSH4 0xA217FDDF EQ PUSH2 0x2D5 JUMPI DUP1 PUSH4 0xC9149478 EQ PUSH2 0x2DC JUMPI DUP1 PUSH4 0xD07EE434 EQ PUSH2 0x2EF JUMPI DUP1 PUSH4 0xD547741F EQ PUSH2 0x302 JUMPI DUP1 PUSH4 0xF0F44260 EQ PUSH2 0x315 JUMPI DUP1 PUSH4 0xF1EC7E51 EQ PUSH2 0x328 JUMPI PUSH0 DUP1 REVERT JUMPDEST DUP1 PUSH4 0x7EF415A7 EQ PUSH2 0x274 JUMPI DUP1 PUSH4 0x8456CB59 EQ PUSH2 0x287 JUMPI DUP1 PUSH4 0x899346C7 EQ PUSH2 0x28F JUMPI DUP1 PUSH4 0x91D14854 EQ PUSH2 0x298 JUMPI DUP1 PUSH4 0x99FBAB88 EQ PUSH2 0x2AB JUMPI PUSH0 DUP1 REVERT JUMPDEST DUP1 PUSH4 0x36568ABE GT PUSH2 0x105 JUMPI DUP1 PUSH4 0x36568ABE EQ PUSH2 0x1E9 JUMPI DUP1 PUSH4 0x3F4BA83A EQ PUSH2 0x1FC JUMPI DUP1 PUSH4 0x5C975ABB EQ PUSH2 0x204 JUMPI DUP1 PUSH4 0x61D027B3 EQ PUSH2 0x20F JUMPI DUP1 PUSH4 0x62B24EA2 EQ PUSH2 0x23A JUMPI DUP1 PUSH4 0x78A4AADD EQ PUSH2 0x261 JUMPI PUSH0 DUP1 REVERT JUMPDEST DUP1 PUSH4 0x1FFC9A7 EQ PUSH2 0x141 JUMPI DUP1 PUSH4 0x62D3BD7 EQ PUSH2 0x169 JUMPI DUP1 PUSH4 0x7BD0265 EQ PUSH2 0x18B JUMPI DUP1 PUSH4 0x248A9CA3 EQ PUSH2 0x1B2 JUMPI DUP1 PUSH4 0x2F2FF15D EQ PUSH2 0x1D4 JUMPI JUMPDEST PUSH0 DUP1 REVERT JUMPDEST PUSH2 0x154 PUSH2 0x14F CALLDATASIZE PUSH1 0x4 PUSH2 0x1309 JUMP JUMPDEST PUSH2 0x33B JUMP JUMPDEST PUSH1 0x40 MLOAD SWAP1 ISZERO ISZERO DUP2 MSTORE PUSH1 0x20 ADD JUMPDEST PUSH1 0x40 MLOAD DUP1 SWAP2 SUB SWAP1 RETURN JUMPDEST PUSH2 0x17D PUSH0 DUP1 MLOAD PUSH1 0x20 PUSH2 0x17D1 DUP4 CODECOPY DUP2 MLOAD SWAP2 MSTORE DUP2 JUMP JUMPDEST PUSH1 0x40 MLOAD SWAP1 DUP2 MSTORE PUSH1 0x20 ADD PUSH2 0x160 JUMP JUMPDEST PUSH2 0x17D PUSH32 0xD8AA0F3194971A2A116679F7C2090F6939C8D4E01A2A8D7E41D55E5351469E63 DUP2 JUMP JUMPDEST PUSH2 0x17D PUSH2 0x1C0 CALLDATASIZE PUSH1 0x4 PUSH2 0x1337 JUMP JUMPDEST PUSH0 SWAP1 DUP2 MSTORE PUSH1 0x20 DUP2 SWAP1 MSTORE PUSH1 0x40 SWAP1 KECCAK256 PUSH1 0x1 ADD SLOAD SWAP1 JUMP JUMPDEST PUSH2 0x1E7 PUSH2 0x1E2 CALLDATASIZE PUSH1 0x4 PUSH2 0x1369 JUMP JUMPDEST PUSH2 0x371 JUMP JUMPDEST STOP JUMPDEST PUSH2 0x1E7 PUSH2 0x1F7 CALLDATASIZE PUSH1 0x4 PUSH2 0x1369 JUMP JUMPDEST PUSH2 0x39B JUMP JUMPDEST PUSH2 0x1E7 PUSH2 0x3D3 JUMP JUMPDEST PUSH1 0x1 SLOAD PUSH1 0xFF AND PUSH2 0x154 JUMP JUMPDEST PUSH1 0x3 SLOAD PUSH2 0x222 SWAP1 PUSH1 0x1 PUSH1 0x1 PUSH1 0xA0 SHL SUB AND DUP2 JUMP JUMPDEST PUSH1 0x40 MLOAD PUSH1 0x1 PUSH1 0x1 PUSH1 0xA0 SHL SUB SWAP1 SWAP2 AND DUP2 MSTORE PUSH1 0x20 ADD PUSH2 0x160 JUMP JUMPDEST PUSH2 0x222 PUSH32 0x0 DUP2 JUMP JUMPDEST PUSH2 0x1E7 PUSH2 0x26F CALLDATASIZE PUSH1 0x4 PUSH2 0x13D8 JUMP JUMPDEST PUSH2 0x3E8 JUMP JUMPDEST PUSH2 0x17D PUSH2 0x282 CALLDATASIZE PUSH1 0x4 PUSH2 0x1420 JUMP JUMPDEST PUSH2 0x5A4 JUMP JUMPDEST PUSH2 0x1E7 PUSH2 0x9C4 JUMP JUMPDEST PUSH2 0x17D PUSH1 0x2 SLOAD DUP2 JUMP JUMPDEST PUSH2 0x154 PUSH2 0x2A6 CALLDATASIZE PUSH1 0x4 PUSH2 0x1369 JUMP JUMPDEST PUSH2 0x9D6 JUMP JUMPDEST PUSH2 0x2BE PUSH2 0x2B9 CALLDATASIZE PUSH1 0x4 PUSH2 0x1337 JUMP JUMPDEST PUSH2 0x9FE JUMP JUMPDEST PUSH1 0x40 MLOAD PUSH2 0x160 SWAP12 SWAP11 SWAP10 SWAP9 SWAP8 SWAP7 SWAP6 SWAP5 SWAP4 SWAP3 SWAP2 SWAP1 PUSH2 0x14D9 JUMP JUMPDEST PUSH2 0x17D PUSH0 DUP2 JUMP JUMPDEST PUSH2 0x1E7 PUSH2 0x2EA CALLDATASIZE PUSH1 0x4 PUSH2 0x15AD JUMP JUMPDEST PUSH2 0xB04 JUMP JUMPDEST PUSH2 0x1E7 PUSH2 0x2FD CALLDATASIZE PUSH1 0x4 PUSH2 0x1337 JUMP JUMPDEST PUSH2 0xCC6 JUMP JUMPDEST PUSH2 0x1E7 PUSH2 0x310 CALLDATASIZE PUSH1 0x4 PUSH2 0x1369 JUMP JUMPDEST PUSH2 0xD98 JUMP JUMPDEST PUSH2 0x1E7 PUSH2 0x323 CALLDATASIZE PUSH1 0x4 PUSH2 0x15CD JUMP JUMPDEST PUSH2 0xDBC JUMP JUMPDEST PUSH2 0x1E7 PUSH2 0x336 CALLDATASIZE PUSH1 0x4 PUSH2 0x13D8 JUMP JUMPDEST PUSH2 0xE3F JUMP JUMPDEST PUSH0 PUSH1 0x1 PUSH1 0x1 PUSH1 0xE0 SHL SUB NOT DUP3 AND PUSH4 0x7965DB0B PUSH1 0xE0 SHL EQ DUP1 PUSH2 0x36B JUMPI POP PUSH4 0x1FFC9A7 PUSH1 0xE0 SHL PUSH1 0x1 PUSH1 0x1 PUSH1 0xE0 SHL SUB NOT DUP4 AND EQ JUMPDEST SWAP3 SWAP2 POP POP JUMP JUMPDEST PUSH0 DUP3 DUP2 MSTORE PUSH1 0x20 DUP2 SWAP1 MSTORE PUSH1 0x40 SWAP1 KECCAK256 PUSH1 0x1 ADD SLOAD PUSH2 0x38B DUP2 PUSH2 0xF74 JUMP JUMPDEST PUSH2 0x395 DUP4 DUP4 PUSH2 0xF7E JUMP JUMPDEST POP POP POP POP JUMP JUMPDEST PUSH1 0x1 PUSH1 0x1 PUSH1 0xA0 SHL SUB DUP2 AND CALLER EQ PUSH2 0x3C4 JUMPI PUSH1 0x40 MLOAD PUSH4 0x334BD919 PUSH1 0xE1 SHL DUP2 MSTORE PUSH1 0x4 ADD PUSH1 0x40 MLOAD DUP1 SWAP2 SUB SWAP1 REVERT JUMPDEST PUSH2 0x3CE DUP3 DUP3 PUSH2 0x100D JUMP JUMPDEST POP POP POP JUMP JUMPDEST PUSH0 PUSH2 0x3DD DUP2 PUSH2 0xF74 JUMP JUMPDEST PUSH2 0x3E5 PUSH2 0x1076 JUMP JUMPDEST POP JUMP JUMPDEST PUSH2 0x3F0 PUSH2 0x10C8 JUMP JUMPDEST PUSH2 0x3F8 PUSH2 0x10EE JUMP JUMPDEST PUSH0 DUP1 MLOAD PUSH1 0x20 PUSH2 0x17D1 DUP4 CODECOPY DUP2 MLOAD SWAP2 MSTORE PUSH2 0x40F DUP2 PUSH2 0xF74 JUMP JUMPDEST PUSH0 DUP5 DUP2 MSTORE PUSH1 0x4 PUSH1 0x20 MSTORE PUSH1 0x40 DUP2 KECCAK256 SWAP1 PUSH1 0x8 DUP3 ADD SLOAD PUSH1 0x1 PUSH1 0x80 SHL SWAP1 DIV PUSH1 0xFF AND PUSH1 0x3 DUP2 GT ISZERO PUSH2 0x43D JUMPI PUSH2 0x43D PUSH2 0x14A1 JUMP JUMPDEST EQ PUSH2 0x48F JUMPI PUSH1 0x40 MLOAD PUSH3 0x461BCD PUSH1 0xE5 SHL DUP2 MSTORE PUSH1 0x20 PUSH1 0x4 DUP3 ADD MSTORE PUSH1 0x19 PUSH1 0x24 DUP3 ADD MSTORE PUSH32 0x494E53545F4553433A206E6F742063616E63656C6C61626C6500000000000000 PUSH1 0x44 DUP3 ADD MSTORE PUSH1 0x64 ADD JUMPDEST PUSH1 0x40 MLOAD DUP1 SWAP2 SUB SWAP1 REVERT JUMPDEST DUP3 PUSH2 0x4D8 JUMPI PUSH1 0x40 MLOAD PUSH3 0x461BCD PUSH1 0xE5 SHL DUP2 MSTORE PUSH1 0x20 PUSH1 0x4 DUP3 ADD MSTORE PUSH1 0x19 PUSH1 0x24 DUP3 ADD MSTORE PUSH25 0x125394D517D154D0CE881C99585CDBDB881C995C5D5A5C9959 PUSH1 0x3A SHL PUSH1 0x44 DUP3 ADD MSTORE PUSH1 0x64 ADD PUSH2 0x486 JUMP JUMPDEST PUSH1 0x8 DUP2 ADD DUP1 SLOAD PUSH1 0x1 PUSH1 0x81 SHL PUSH9 0xFFFFFFFFFFFFFFFFFF PUSH1 0x40 SHL NOT SWAP1 SWAP2 AND PUSH1 0x1 PUSH1 0x40 SHL TIMESTAMP PUSH8 0xFFFFFFFFFFFFFFFF AND MUL OR OR SWAP1 SSTORE DUP1 SLOAD PUSH1 0x2 DUP3 ADD SLOAD PUSH2 0x548 SWAP2 PUSH1 0x1 PUSH1 0x1 PUSH1 0xA0 SHL SUB PUSH32 0x0 DUP2 AND SWAP3 SWAP2 AND SWAP1 PUSH2 0x1109 JUMP JUMPDEST CALLER PUSH1 0x1 PUSH1 0x1 PUSH1 0xA0 SHL SUB AND DUP6 PUSH32 0x7D48960B4147861F64687653163E8BDAC213509E036FB1D0C3982D94B2F109EA DUP7 DUP7 PUSH1 0x40 MLOAD PUSH2 0x584 SWAP3 SWAP2 SWAP1 PUSH2 0x160E JUMP JUMPDEST PUSH1 0x40 MLOAD DUP1 SWAP2 SUB SWAP1 LOG3 POP POP PUSH2 0x3CE PUSH1 0x1 PUSH0 DUP1 MLOAD PUSH1 0x20 PUSH2 0x17F1 DUP4 CODECOPY DUP2 MLOAD SWAP2 MSTORE SSTORE JUMP JUMPDEST PUSH0 PUSH2 0x5AD PUSH2 0x10C8 JUMP JUMPDEST PUSH2 0x5B5 PUSH2 0x10EE JUMP JUMPDEST PUSH1 0x1 PUSH1 0x1 PUSH1 0xA0 SHL SUB DUP9 AND PUSH2 0x60B JUMPI PUSH1 0x40 MLOAD PUSH3 0x461BCD PUSH1 0xE5 SHL DUP2 MSTORE PUSH1 0x20 PUSH1 0x4 DUP3 ADD MSTORE PUSH1 0x1D PUSH1 0x24 DUP3 ADD MSTORE PUSH32 0x494E53545F4553433A20696E76616C69642062656E6566696369617279000000 PUSH1 0x44 DUP3 ADD MSTORE PUSH1 0x64 ADD PUSH2 0x486 JUMP JUMPDEST PUSH0 DUP8 GT PUSH2 0x652 JUMPI PUSH1 0x40 MLOAD PUSH3 0x461BCD PUSH1 0xE5 SHL DUP2 MSTORE PUSH1 0x20 PUSH1 0x4 DUP3 ADD MSTORE PUSH1 0x15 PUSH1 0x24 DUP3 ADD MSTORE PUSH21 0x125394D517D154D0CE881E995C9BC8185B5BDD5B9D PUSH1 0x5A SHL PUSH1 0x44 DUP3 ADD MSTORE PUSH1 0x64 ADD PUSH2 0x486 JUMP JUMPDEST DUP6 PUSH2 0x69F JUMPI PUSH1 0x40 MLOAD PUSH3 0x461BCD PUSH1 0xE5 SHL DUP2 MSTORE PUSH1 0x20 PUSH1 0x4 DUP3 ADD MSTORE PUSH1 0x19 PUSH1 0x24 DUP3 ADD MSTORE PUSH32 0x494E53545F4553433A20696E76616C6964207375626A65637400000000000000 PUSH1 0x44 DUP3 ADD MSTORE PUSH1 0x64 ADD PUSH2 0x486 JUMP JUMPDEST DUP4 PUSH2 0x6EC JUMPI PUSH1 0x40 MLOAD PUSH3 0x461BCD PUSH1 0xE5 SHL DUP2 MSTORE PUSH1 0x20 PUSH1 0x4 DUP3 ADD MSTORE PUSH1 0x1F PUSH1 0x24 DUP3 ADD MSTORE PUSH32 0x494E53545F4553433A20696E76616C6964206D65746164617461206861736800 PUSH1 0x44 DUP3 ADD MSTORE PUSH1 0x64 ADD PUSH2 0x486 JUMP JUMPDEST DUP2 PUSH2 0x739 JUMPI PUSH1 0x40 MLOAD PUSH3 0x461BCD PUSH1 0xE5 SHL DUP2 MSTORE PUSH1 0x20 PUSH1 0x4 DUP3 ADD MSTORE PUSH1 0x1C PUSH1 0x24 DUP3 ADD MSTORE PUSH32 0x494E53545F4553433A20656D70747920706172746E657220636F646500000000 PUSH1 0x44 DUP3 ADD MSTORE PUSH1 0x64 ADD PUSH2 0x486 JUMP JUMPDEST PUSH1 0x2 DUP1 SLOAD SWAP1 PUSH0 PUSH2 0x748 DUP4 PUSH2 0x1629 JUMP JUMPDEST SWAP2 SWAP1 POP SSTORE SWAP1 POP PUSH1 0x40 MLOAD DUP1 PUSH2 0x160 ADD PUSH1 0x40 MSTORE DUP1 CALLER PUSH1 0x1 PUSH1 0x1 PUSH1 0xA0 SHL SUB AND DUP2 MSTORE PUSH1 0x20 ADD DUP10 PUSH1 0x1 PUSH1 0x1 PUSH1 0xA0 SHL SUB AND DUP2 MSTORE PUSH1 0x20 ADD DUP9 DUP2 MSTORE PUSH1 0x20 ADD DUP8 DUP2 MSTORE PUSH1 0x20 ADD DUP7 PUSH1 0x7 DUP2 GT ISZERO PUSH2 0x796 JUMPI PUSH2 0x796 PUSH2 0x14A1 JUMP JUMPDEST DUP2 MSTORE PUSH1 0x20 ADD PUSH0 DUP2 MSTORE PUSH1 0x20 ADD DUP6 DUP2 MSTORE PUSH1 0x20 ADD DUP5 DUP5 DUP1 DUP1 PUSH1 0x1F ADD PUSH1 0x20 DUP1 SWAP2 DIV MUL PUSH1 0x20 ADD PUSH1 0x40 MLOAD SWAP1 DUP2 ADD PUSH1 0x40 MSTORE DUP1 SWAP4 SWAP3 SWAP2 SWAP1 DUP2 DUP2 MSTORE PUSH1 0x20 ADD DUP4 DUP4 DUP1 DUP3 DUP5 CALLDATACOPY PUSH0 SWAP3 ADD DUP3 SWAP1 MSTORE POP SWAP4 DUP6 MSTORE POP POP POP PUSH8 0xFFFFFFFFFFFFFFFF TIMESTAMP AND PUSH1 0x20 DUP4 ADD MSTORE PUSH1 0x40 DUP3 ADD DUP2 SWAP1 MSTORE PUSH1 0x60 SWAP1 SWAP2 ADD MSTORE PUSH0 DUP3 DUP2 MSTORE PUSH1 0x4 PUSH1 0x20 DUP2 DUP2 MSTORE PUSH1 0x40 SWAP3 DUP4 SWAP1 KECCAK256 DUP5 MLOAD DUP2 SLOAD PUSH1 0x1 PUSH1 0x1 PUSH1 0xA0 SHL SUB SWAP2 DUP3 AND PUSH1 0x1 PUSH1 0x1 PUSH1 0xA0 SHL SUB NOT SWAP2 DUP3 AND OR DUP4 SSTORE SWAP3 DUP7 ADD MLOAD PUSH1 0x1 DUP1 DUP5 ADD DUP1 SLOAD SWAP3 SWAP1 SWAP4 AND SWAP2 SWAP1 SWAP5 AND OR SWAP1 SSTORE SWAP3 DUP5 ADD MLOAD PUSH1 0x2 DUP5 ADD SSTORE PUSH1 0x60 DUP5 ADD MLOAD PUSH1 0x3 DUP5 ADD SSTORE PUSH1 0x80 DUP5 ADD MLOAD SWAP2 DUP4 ADD DUP1 SLOAD SWAP1 SWAP2 PUSH1 0xFF NOT SWAP1 SWAP2 AND SWAP1 DUP4 PUSH1 0x7 DUP2 GT ISZERO PUSH2 0x878 JUMPI PUSH2 0x878 PUSH2 0x14A1 JUMP JUMPDEST MUL OR SWAP1 SSTORE POP PUSH1 0xA0 DUP3 ADD MLOAD PUSH1 0x5 DUP3 ADD SSTORE PUSH1 0xC0 DUP3 ADD MLOAD PUSH1 0x6 DUP3 ADD SSTORE PUSH1 0xE0 DUP3 ADD MLOAD PUSH1 0x7 DUP3 ADD SWAP1 PUSH2 0x8A5 SWAP1 DUP3 PUSH2 0x16E4 JUMP JUMPDEST POP PUSH2 0x100 DUP3 ADD MLOAD PUSH1 0x8 DUP3 ADD DUP1 SLOAD PUSH2 0x120 DUP6 ADD MLOAD PUSH8 0xFFFFFFFFFFFFFFFF SWAP1 DUP2 AND PUSH1 0x1 PUSH1 0x40 SHL MUL PUSH16 0xFFFFFFFFFFFFFFFFFFFFFFFFFFFFFFFF NOT SWAP1 SWAP3 AND SWAP4 AND SWAP3 SWAP1 SWAP3 OR SWAP2 SWAP1 SWAP2 OR DUP1 DUP3 SSTORE PUSH2 0x140 DUP5 ADD MLOAD SWAP2 SWAP1 PUSH1 0xFF PUSH1 0x80 SHL NOT AND PUSH1 0x1 PUSH1 0x80 SHL DUP4 PUSH1 0x3 DUP2 GT ISZERO PUSH2 0x912 JUMPI PUSH2 0x912 PUSH2 0x14A1 JUMP JUMPDEST MUL OR SWAP1 SSTORE POP PUSH2 0x94F SWAP2 POP POP PUSH1 0x1 PUSH1 0x1 PUSH1 0xA0 SHL SUB PUSH32 0x0 AND CALLER ADDRESS DUP11 PUSH2 0x113E JUMP JUMPDEST DUP8 PUSH1 0x1 PUSH1 0x1 PUSH1 0xA0 SHL SUB AND CALLER PUSH1 0x1 PUSH1 0x1 PUSH1 0xA0 SHL SUB AND DUP3 PUSH32 0xEA1810A2FAACC32E949D7B5B6E220C7C65C1362B00C99A335C95490788598068 DUP11 DUP11 DUP11 DUP10 DUP10 PUSH1 0x40 MLOAD PUSH2 0x99B SWAP6 SWAP5 SWAP4 SWAP3 SWAP2 SWAP1 PUSH2 0x17A4 JUMP JUMPDEST PUSH1 0x40 MLOAD DUP1 SWAP2 SUB SWAP1 LOG4 PUSH2 0x9B9 PUSH1 0x1 PUSH0 DUP1 MLOAD PUSH1 0x20 PUSH2 0x17F1 DUP4 CODECOPY DUP2 MLOAD SWAP2 MSTORE SSTORE JUMP JUMPDEST SWAP8 SWAP7 POP POP POP POP POP POP POP JUMP JUMPDEST PUSH0 PUSH2 0x9CE DUP2 PUSH2 0xF74 JUMP JUMPDEST PUSH2 0x3E5 PUSH2 0x1174 JUMP JUMPDEST PUSH0 SWAP2 DUP3 MSTORE PUSH1 0x20 DUP3 DUP2 MSTORE PUSH1 0x40 DUP1 DUP5 KECCAK256 PUSH1 0x1 PUSH1 0x1 PUSH1 0xA0 SHL SUB SWAP4 SWAP1 SWAP4 AND DUP5 MSTORE SWAP2 SWAP1 MSTORE SWAP1 KECCAK256 SLOAD PUSH1 0xFF AND SWAP1 JUMP JUMPDEST PUSH1 0x4 PUSH1 0x20 DUP2 SWAP1 MSTORE PUSH0 SWAP2 DUP3 MSTORE PUSH1 0x40 SWAP1 SWAP2 KECCAK256 DUP1 SLOAD PUSH1 0x1 DUP3 ADD SLOAD PUSH1 0x2 DUP4 ADD SLOAD PUSH1 0x3 DUP5 ADD SLOAD SWAP5 DUP5 ADD SLOAD PUSH1 0x5 DUP6 ADD SLOAD PUSH1 0x6 DUP7 ADD SLOAD PUSH1 0x7 DUP8 ADD DUP1 SLOAD PUSH1 0x1 PUSH1 0x1 PUSH1 0xA0 SHL SUB SWAP8 DUP9 AND SWAP10 SWAP7 SWAP1 SWAP8 AND SWAP8 SWAP5 SWAP7 PUSH1 0xFF SWAP1 SWAP5 AND SWAP5 SWAP3 SWAP4 SWAP2 SWAP3 SWAP2 PUSH2 0xA5A SWAP1 PUSH2 0x1661 JUMP JUMPDEST DUP1 PUSH1 0x1F ADD PUSH1 0x20 DUP1 SWAP2 DIV MUL PUSH1 0x20 ADD PUSH1 0x40 MLOAD SWAP1 DUP2 ADD PUSH1 0x40 MSTORE DUP1 SWAP3 SWAP2 SWAP1 DUP2 DUP2 MSTORE PUSH1 0x20 ADD DUP3 DUP1 SLOAD PUSH2 0xA86 SWAP1 PUSH2 0x1661 JUMP JUMPDEST DUP1 ISZERO PUSH2 0xAD1 JUMPI DUP1 PUSH1 0x1F LT PUSH2 0xAA8 JUMPI PUSH2 0x100 DUP1 DUP4 SLOAD DIV MUL DUP4 MSTORE SWAP2 PUSH1 0x20 ADD SWAP2 PUSH2 0xAD1 JUMP JUMPDEST DUP3 ADD SWAP2 SWAP1 PUSH0 MSTORE PUSH1 0x20 PUSH0 KECCAK256 SWAP1 JUMPDEST DUP2 SLOAD DUP2 MSTORE SWAP1 PUSH1 0x1 ADD SWAP1 PUSH1 0x20 ADD DUP1 DUP4 GT PUSH2 0xAB4 JUMPI DUP3 SWAP1 SUB PUSH1 0x1F AND DUP3 ADD SWAP2 JUMPDEST POP POP POP PUSH1 0x8 SWAP1 SWAP4 ADD SLOAD SWAP2 SWAP3 POP POP PUSH8 0xFFFFFFFFFFFFFFFF DUP1 DUP3 AND SWAP2 PUSH1 0x1 PUSH1 0x40 SHL DUP2 DIV SWAP1 SWAP2 AND SWAP1 PUSH1 0xFF PUSH1 0x1 PUSH1 0x80 SHL SWAP1 SWAP2 DIV AND DUP12 JUMP JUMPDEST PUSH2 0xB0C PUSH2 0x10C8 JUMP JUMPDEST PUSH2 0xB14 PUSH2 0x10EE JUMP JUMPDEST PUSH32 0xD8AA0F3194971A2A116679F7C2090F6939C8D4E01A2A8D7E41D55E5351469E63 PUSH2 0xB3E DUP2 PUSH2 0xF74 JUMP JUMPDEST PUSH0 DUP4 DUP2 MSTORE PUSH1 0x4 PUSH1 0x20 MSTORE PUSH1 0x40 DUP2 KECCAK256 SWAP1 PUSH1 0x8 DUP3 ADD SLOAD PUSH1 0x1 PUSH1 0x80 SHL SWAP1 DIV PUSH1 0xFF AND PUSH1 0x3 DUP2 GT ISZERO PUSH2 0xB6C JUMPI PUSH2 0xB6C PUSH2 0x14A1 JUMP JUMPDEST EQ PUSH2 0xBB1 JUMPI PUSH1 0x40 MLOAD PUSH3 0x461BCD PUSH1 0xE5 SHL DUP2 MSTORE PUSH1 0x20 PUSH1 0x4 DUP3 ADD MSTORE PUSH1 0x15 PUSH1 0x24 DUP3 ADD MSTORE PUSH21 0x494E53545F4553433A206E6F742070656E64696E67 PUSH1 0x58 SHL PUSH1 0x44 DUP3 ADD MSTORE PUSH1 0x64 ADD PUSH2 0x486 JUMP JUMPDEST PUSH1 0x8 DUP2 ADD SLOAD PUSH8 0xFFFFFFFFFFFFFFFF AND PUSH2 0xC02 JUMPI PUSH1 0x40 MLOAD PUSH3 0x461BCD PUSH1 0xE5 SHL DUP2 MSTORE PUSH1 0x20 PUSH1 0x4 DUP3 ADD MSTORE PUSH1 0x13 PUSH1 0x24 DUP3 ADD MSTORE PUSH19 0x125394D517D154D0CE881B9BDD08199BDD5B99 PUSH1 0x6A SHL PUSH1 0x44 DUP3 ADD MSTORE PUSH1 0x64 ADD PUSH2 0x486 JUMP JUMPDEST PUSH1 0x8 DUP2 ADD DUP1 SLOAD PUSH1 0x5 DUP4 ADD DUP6 SWAP1 SSTORE PUSH1 0x1 PUSH1 0x80 SHL PUSH9 0xFFFFFFFFFFFFFFFFFF PUSH1 0x40 SHL NOT SWAP1 SWAP2 AND PUSH1 0x1 PUSH1 0x40 SHL TIMESTAMP PUSH8 0xFFFFFFFFFFFFFFFF AND MUL OR OR SWAP1 SSTORE PUSH1 0x1 DUP2 ADD SLOAD PUSH1 0x2 DUP3 ADD SLOAD PUSH2 0xC7C SWAP2 PUSH1 0x1 PUSH1 0x1 PUSH1 0xA0 SHL SUB PUSH32 0x0 DUP2 AND SWAP3 SWAP2 AND SWAP1 PUSH2 0x1109 JUMP JUMPDEST PUSH1 0x40 MLOAD CALLER SWAP1 DUP5 SWAP1 DUP7 SWAP1 PUSH32 0x6C2B69108C6691683495BB3A230FB2CE5B892B27607E017D4AD023E083CD712C SWAP1 PUSH0 SWAP1 LOG4 POP POP PUSH2 0xCC2 PUSH1 0x1 PUSH0 DUP1 MLOAD PUSH1 0x20 PUSH2 0x17F1 DUP4 CODECOPY DUP2 MLOAD SWAP2 MSTORE SSTORE JUMP JUMPDEST POP POP JUMP JUMPDEST PUSH0 DUP1 MLOAD PUSH1 0x20 PUSH2 0x17D1 DUP4 CODECOPY DUP2 MLOAD SWAP2 MSTORE PUSH2 0xCDD DUP2 PUSH2 0xF74 JUMP JUMPDEST PUSH1 0x3 PUSH0 DUP4 DUP2 MSTORE PUSH1 0x4 PUSH1 0x20 MSTORE PUSH1 0x40 SWAP1 KECCAK256 PUSH1 0x8 ADD SLOAD PUSH1 0x1 PUSH1 0x80 SHL SWAP1 DIV PUSH1 0xFF AND PUSH1 0x3 DUP2 GT ISZERO PUSH2 0xD0B JUMPI PUSH2 0xD0B PUSH2 0x14A1 JUMP JUMPDEST EQ PUSH2 0xD4F JUMPI PUSH1 0x40 MLOAD PUSH3 0x461BCD PUSH1 0xE5 SHL DUP2 MSTORE PUSH1 0x20 PUSH1 0x4 DUP3 ADD MSTORE PUSH1 0x14 PUSH1 0x24 DUP3 ADD MSTORE PUSH20 0x24A729AA2FA2A9A19D103737BA10333937BD32B7 PUSH1 0x61 SHL PUSH1 0x44 DUP3 ADD MSTORE PUSH1 0x64 ADD PUSH2 0x486 JUMP JUMPDEST PUSH0 DUP3 DUP2 MSTORE PUSH1 0x4 PUSH1 0x20 MSTORE PUSH1 0x40 DUP1 DUP3 KECCAK256 PUSH1 0x8 ADD DUP1 SLOAD PUSH1 0xFF PUSH1 0x80 SHL NOT AND SWAP1 SSTORE MLOAD CALLER SWAP2 DUP5 SWAP2 PUSH32 0x5DD6406E214A7EF26E178C64337FF1617723C2710F38107102845152D3F75B4D SWAP2 SWAP1 LOG3 POP POP JUMP JUMPDEST PUSH0 DUP3 DUP2 MSTORE PUSH1 0x20 DUP2 SWAP1 MSTORE PUSH1 0x40 SWAP1 KECCAK256 PUSH1 0x1 ADD SLOAD PUSH2 0xDB2 DUP2 PUSH2 0xF74 JUMP JUMPDEST PUSH2 0x395 DUP4 DUP4 PUSH2 0x100D JUMP JUMPDEST PUSH0 PUSH2 0xDC6 DUP2 PUSH2 0xF74 JUMP JUMPDEST PUSH1 0x1 PUSH1 0x1 PUSH1 0xA0 SHL SUB DUP3 AND PUSH2 0xE1C JUMPI PUSH1 0x40 MLOAD PUSH3 0x461BCD PUSH1 0xE5 SHL DUP2 MSTORE PUSH1 0x20 PUSH1 0x4 DUP3 ADD MSTORE PUSH1 0x1A PUSH1 0x24 DUP3 ADD MSTORE PUSH32 0x494E53545F4553433A20696E76616C6964207472656173757279000000000000 PUSH1 0x44 DUP3 ADD MSTORE PUSH1 0x64 ADD PUSH2 0x486 JUMP JUMPDEST POP PUSH1 0x3 DUP1 SLOAD PUSH1 0x1 PUSH1 0x1 PUSH1 0xA0 SHL SUB NOT AND PUSH1 0x1 PUSH1 0x1 PUSH1 0xA0 SHL SUB SWAP3 SWAP1 SWAP3 AND SWAP2 SWAP1 SWAP2 OR SWAP1 SSTORE JUMP JUMPDEST PUSH0 DUP1 MLOAD PUSH1 0x20 PUSH2 0x17D1 DUP4 CODECOPY DUP2 MLOAD SWAP2 MSTORE PUSH2 0xE56 DUP2 PUSH2 0xF74 JUMP JUMPDEST PUSH0 DUP5 DUP2 MSTORE PUSH1 0x4 PUSH1 0x20 MSTORE PUSH1 0x40 DUP2 KECCAK256 SWAP1 PUSH1 0x8 DUP3 ADD SLOAD PUSH1 0x1 PUSH1 0x80 SHL SWAP1 DIV PUSH1 0xFF AND PUSH1 0x3 DUP2 GT ISZERO PUSH2 0xE84 JUMPI PUSH2 0xE84 PUSH2 0x14A1 JUMP JUMPDEST EQ PUSH2 0xED1 JUMPI PUSH1 0x40 MLOAD PUSH3 0x461BCD PUSH1 0xE5 SHL DUP2 MSTORE PUSH1 0x20 PUSH1 0x4 DUP3 ADD MSTORE PUSH1 0x17 PUSH1 0x24 DUP3 ADD MSTORE PUSH32 0x494E53545F4553433A206E6F7420667265657A61626C65000000000000000000 PUSH1 0x44 DUP3 ADD MSTORE PUSH1 0x64 ADD PUSH2 0x486 JUMP JUMPDEST DUP3 PUSH2 0xF1A JUMPI PUSH1 0x40 MLOAD PUSH3 0x461BCD PUSH1 0xE5 SHL DUP2 MSTORE PUSH1 0x20 PUSH1 0x4 DUP3 ADD MSTORE PUSH1 0x19 PUSH1 0x24 DUP3 ADD MSTORE PUSH25 0x125394D517D154D0CE881C99585CDBDB881C995C5D5A5C9959 PUSH1 0x3A SHL PUSH1 0x44 DUP3 ADD MSTORE PUSH1 0x64 ADD PUSH2 0x486 JUMP JUMPDEST PUSH1 0x8 DUP2 ADD DUP1 SLOAD PUSH1 0xFF PUSH1 0x80 SHL NOT AND PUSH1 0x3 PUSH1 0x80 SHL OR SWAP1 SSTORE PUSH1 0x40 MLOAD CALLER SWAP1 DUP7 SWAP1 PUSH32 0xEB4655A0FE23702258458E16773F1D4F0F6B04D15CF7F7CAFD326CF1B218B77B SWAP1 PUSH2 0xF65 SWAP1 DUP9 SWAP1 DUP9 SWAP1 PUSH2 0x160E JUMP JUMPDEST PUSH1 0x40 MLOAD DUP1 SWAP2 SUB SWAP1 LOG3 POP POP POP POP POP JUMP JUMPDEST PUSH2 0x3E5 DUP2 CALLER PUSH2 0x11AF JUMP JUMPDEST PUSH0 PUSH2 0xF89 DUP4 DUP4 PUSH2 0x9D6 JUMP JUMPDEST PUSH2 0x1006 JUMPI PUSH0 DUP4 DUP2 MSTORE PUSH1 0x20 DUP2 DUP2 MSTORE PUSH1 0x40 DUP1 DUP4 KECCAK256 PUSH1 0x1 PUSH1 0x1 PUSH1 0xA0 SHL SUB DUP7 AND DUP5 MSTORE SWAP1 SWAP2 MSTORE SWAP1 KECCAK256 DUP1 SLOAD PUSH1 0xFF NOT AND PUSH1 0x1 OR SWAP1 SSTORE PUSH2 0xFBE CALLER SWAP1 JUMP JUMPDEST PUSH1 0x1 PUSH1 0x1 PUSH1 0xA0 SHL SUB AND DUP3 PUSH1 0x1 PUSH1 0x1 PUSH1 0xA0 SHL SUB AND DUP5 PUSH32 0x2F8788117E7EFF1D82E926EC794901D17C78024A50270940304540A733656F0D PUSH1 0x40 MLOAD PUSH1 0x40 MLOAD DUP1 SWAP2 SUB SWAP1 LOG4 POP PUSH1 0x1 PUSH2 0x36B JUMP JUMPDEST POP PUSH0 PUSH2 0x36B JUMP JUMPDEST PUSH0 PUSH2 0x1018 DUP4 DUP4 PUSH2 0x9D6 JUMP JUMPDEST ISZERO PUSH2 0x1006 JUMPI PUSH0 DUP4 DUP2 MSTORE PUSH1 0x20 DUP2 DUP2 MSTORE PUSH1 0x40 DUP1 DUP4 KECCAK256 PUSH1 0x1 PUSH1 0x1 PUSH1 0xA0 SHL SUB DUP7 AND DUP1 DUP6 MSTORE SWAP3 MSTORE DUP1 DUP4 KECCAK256 DUP1 SLOAD PUSH1 0xFF NOT AND SWAP1 SSTORE MLOAD CALLER SWAP3 DUP7 SWAP2 PUSH32 0xF6391F5C32D9C69D2A47EA670B442974B53935D1EDC7FD64EB21E047A839171B SWAP2 SWAP1 LOG4 POP PUSH1 0x1 PUSH2 0x36B JUMP JUMPDEST PUSH2 0x107E PUSH2 0x11E8 JUMP JUMPDEST PUSH1 0x1 DUP1 SLOAD PUSH1 0xFF NOT AND SWAP1 SSTORE PUSH32 0x5DB9EE0A495BF2E6FF9C91A7834C1BA4FDD244A5E8AA4E537BD38AEAE4B073AA CALLER JUMPDEST PUSH1 0x40 MLOAD PUSH1 0x1 PUSH1 0x1 PUSH1 0xA0 SHL SUB SWAP1 SWAP2 AND DUP2 MSTORE PUSH1 0x20 ADD PUSH1 0x40 MLOAD DUP1 SWAP2 SUB SWAP1 LOG1 JUMP JUMPDEST PUSH1 0x1 SLOAD PUSH1 0xFF AND ISZERO PUSH2 0x10EC JUMPI PUSH1 0x40 MLOAD PUSH4 0xD93C0665 PUSH1 0xE0 SHL DUP2 MSTORE PUSH1 0x4 ADD PUSH1 0x40 MLOAD DUP1 SWAP2 SUB SWAP1 REVERT JUMPDEST JUMP JUMPDEST PUSH2 0x10F6 PUSH2 0x120B JUMP JUMPDEST PUSH1 0x2 PUSH0 DUP1 MLOAD PUSH1 0x20 PUSH2 0x17F1 DUP4 CODECOPY DUP2 MLOAD SWAP2 MSTORE SSTORE JUMP JUMPDEST PUSH2 0x1116 DUP4 DUP4 DUP4 PUSH1 0x1 PUSH2 0x123A JUMP JUMPDEST PUSH2 0x3CE JUMPI PUSH1 0x40 MLOAD PUSH4 0x5274AFE7 PUSH1 0xE0 SHL DUP2 MSTORE PUSH1 0x1 PUSH1 0x1 PUSH1 0xA0 SHL SUB DUP5 AND PUSH1 0x4 DUP3 ADD MSTORE PUSH1 0x24 ADD PUSH2 0x486 JUMP JUMPDEST PUSH2 0x114C DUP5 DUP5 DUP5 DUP5 PUSH1 0x1 PUSH2 0x129C JUMP JUMPDEST PUSH2 0x395 JUMPI PUSH1 0x40 MLOAD PUSH4 0x5274AFE7 PUSH1 0xE0 SHL DUP2 MSTORE PUSH1 0x1 PUSH1 0x1 PUSH1 0xA0 SHL SUB DUP6 AND PUSH1 0x4 DUP3 ADD MSTORE PUSH1 0x24 ADD PUSH2 0x486 JUMP JUMPDEST PUSH2 0x117C PUSH2 0x10C8 JUMP JUMPDEST PUSH1 0x1 DUP1 SLOAD PUSH1 0xFF NOT AND DUP2 OR SWAP1 SSTORE PUSH32 0x62E78CEA01BEE320CD4E420270B5EA74000D11B0C9F74754EBDBFC544B05A258 CALLER PUSH2 0x10AB JUMP JUMPDEST PUSH2 0x11B9 DUP3 DUP3 PUSH2 0x9D6 JUMP JUMPDEST PUSH2 0xCC2 JUMPI PUSH1 0x40 MLOAD PUSH4 0xE2517D3F PUSH1 0xE0 SHL DUP2 MSTORE PUSH1 0x1 PUSH1 0x1 PUSH1 0xA0 SHL SUB DUP3 AND PUSH1 0x4 DUP3 ADD MSTORE PUSH1 0x24 DUP2 ADD DUP4 SWAP1 MSTORE PUSH1 0x44 ADD PUSH2 0x486 JUMP JUMPDEST PUSH1 0x1 SLOAD PUSH1 0xFF AND PUSH2 0x10EC JUMPI PUSH1 0x40 MLOAD PUSH4 0x8DFC202B PUSH1 0xE0 SHL DUP2 MSTORE PUSH1 0x4 ADD PUSH1 0x40 MLOAD DUP1 SWAP2 SUB SWAP1 REVERT JUMPDEST PUSH0 DUP1 MLOAD PUSH1 0x20 PUSH2 0x17F1 DUP4 CODECOPY DUP2 MLOAD SWAP2 MSTORE SLOAD PUSH1 0x2 SUB PUSH2 0x10EC JUMPI PUSH1 0x40 MLOAD PUSH4 0x3EE5AEB5 PUSH1 0xE0 SHL DUP2 MSTORE PUSH1 0x4 ADD PUSH1 0x40 MLOAD DUP1 SWAP2 SUB SWAP1 REVERT JUMPDEST PUSH1 0x40 MLOAD PUSH4 0xA9059CBB PUSH1 0xE0 SHL PUSH0 DUP2 DUP2 MSTORE PUSH1 0x1 PUSH1 0x1 PUSH1 0xA0 SHL SUB DUP7 AND PUSH1 0x4 MSTORE PUSH1 0x24 DUP6 SWAP1 MSTORE SWAP2 PUSH1 0x20 DUP4 PUSH1 0x44 DUP2 DUP1 DUP12 GAS CALL SWAP3 POP PUSH1 0x1 PUSH0 MLOAD EQ DUP4 AND PUSH2 0x1290 JUMPI DUP4 DUP4 ISZERO AND ISZERO PUSH2 0x1284 JUMPI RETURNDATASIZE PUSH0 DUP3 RETURNDATACOPY RETURNDATASIZE DUP2 REVERT JUMPDEST PUSH0 DUP8 EXTCODESIZE GT RETURNDATASIZE ISZERO AND DUP4 AND SWAP3 POP JUMPDEST PUSH1 0x40 MSTORE POP SWAP5 SWAP4 POP POP POP POP JUMP JUMPDEST PUSH1 0x40 MLOAD PUSH4 0x23B872DD PUSH1 0xE0 SHL PUSH0 DUP2 DUP2 MSTORE PUSH1 0x1 PUSH1 0x1 PUSH1 0xA0 SHL SUB DUP8 DUP2 AND PUSH1 0x4 MSTORE DUP7 AND PUSH1 0x24 MSTORE PUSH1 0x44 DUP6 SWAP1 MSTORE SWAP2 PUSH1 0x20 DUP4 PUSH1 0x64 DUP2 DUP1 DUP13 GAS CALL SWAP3 POP PUSH1 0x1 PUSH0 MLOAD EQ DUP4 AND PUSH2 0x12F8 JUMPI DUP4 DUP4 ISZERO AND ISZERO PUSH2 0x12EC JUMPI RETURNDATASIZE PUSH0 DUP3 RETURNDATACOPY RETURNDATASIZE DUP2 REVERT JUMPDEST PUSH0 DUP9 EXTCODESIZE GT RETURNDATASIZE ISZERO AND DUP4 AND SWAP3 POP JUMPDEST PUSH1 0x40 MSTORE POP PUSH0 PUSH1 0x60 MSTORE SWAP6 SWAP5 POP POP POP POP POP JUMP JUMPDEST PUSH0 PUSH1 0x20 DUP3 DUP5 SUB SLT ISZERO PUSH2 0x1319 JUMPI PUSH0 DUP1 REVERT JUMPDEST DUP2 CALLDATALOAD PUSH1 0x1 PUSH1 0x1 PUSH1 0xE0 SHL SUB NOT DUP2 AND DUP2 EQ PUSH2 0x1330 JUMPI PUSH0 DUP1 REVERT JUMPDEST SWAP4 SWAP3 POP POP POP JUMP JUMPDEST PUSH0 PUSH1 0x20 DUP3 DUP5 SUB SLT ISZERO PUSH2 0x1347 JUMPI PUSH0 DUP1 REVERT JUMPDEST POP CALLDATALOAD SWAP2 SWAP1 POP JUMP JUMPDEST DUP1 CALLDATALOAD PUSH1 0x1 PUSH1 0x1 PUSH1 0xA0 SHL SUB DUP2 AND DUP2 EQ PUSH2 0x1364 JUMPI PUSH0 DUP1 REVERT JUMPDEST SWAP2 SWAP1 POP JUMP JUMPDEST PUSH0 DUP1 PUSH1 0x40 DUP4 DUP6 SUB SLT ISZERO PUSH2 0x137A JUMPI PUSH0 DUP1 REVERT JUMPDEST DUP3 CALLDATALOAD SWAP2 POP PUSH2 0x138A PUSH1 0x20 DUP5 ADD PUSH2 0x134E JUMP JUMPDEST SWAP1 POP SWAP3 POP SWAP3 SWAP1 POP JUMP JUMPDEST PUSH0 DUP1 DUP4 PUSH1 0x1F DUP5 ADD SLT PUSH2 0x13A3 JUMPI PUSH0 DUP1 REVERT JUMPDEST POP DUP2 CALLDATALOAD PUSH8 0xFFFFFFFFFFFFFFFF DUP2 GT ISZERO PUSH2 0x13BA JUMPI PUSH0 DUP1 REVERT JUMPDEST PUSH1 0x20 DUP4 ADD SWAP2 POP DUP4 PUSH1 0x20 DUP3 DUP6 ADD ADD GT ISZERO PUSH2 0x13D1 JUMPI PUSH0 DUP1 REVERT JUMPDEST SWAP3 POP SWAP3 SWAP1 POP JUMP JUMPDEST PUSH0 DUP1 PUSH0 PUSH1 0x40 DUP5 DUP7 SUB SLT ISZERO PUSH2 0x13EA JUMPI PUSH0 DUP1 REVERT JUMPDEST DUP4 CALLDATALOAD SWAP3 POP PUSH1 0x20 DUP5 ADD CALLDATALOAD PUSH8 0xFFFFFFFFFFFFFFFF DUP2 GT ISZERO PUSH2 0x1407 JUMPI PUSH0 DUP1 REVERT JUMPDEST PUSH2 0x1413 DUP7 DUP3 DUP8 ADD PUSH2 0x1393 JUMP JUMPDEST SWAP5 SWAP8 SWAP1 SWAP7 POP SWAP4 SWAP5 POP POP POP POP JUMP JUMPDEST PUSH0 DUP1 PUSH0 DUP1 PUSH0 DUP1 PUSH0 PUSH1 0xC0 DUP9 DUP11 SUB SLT ISZERO PUSH2 0x1436 JUMPI PUSH0 DUP1 REVERT JUMPDEST PUSH2 0x143F DUP9 PUSH2 0x134E JUMP JUMPDEST SWAP7 POP PUSH1 0x20 DUP9 ADD CALLDATALOAD SWAP6 POP PUSH1 0x40 DUP9 ADD CALLDATALOAD SWAP5 POP PUSH1 0x60 DUP9 ADD CALLDATALOAD PUSH1 0x8 DUP2 LT PUSH2 0x1460 JUMPI PUSH0 DUP1 REVERT JUMPDEST SWAP4 POP PUSH1 0x80 DUP9 ADD CALLDATALOAD SWAP3 POP PUSH1 0xA0 DUP9 ADD CALLDATALOAD PUSH8 0xFFFFFFFFFFFFFFFF DUP2 GT ISZERO PUSH2 0x1482 JUMPI PUSH0 DUP1 REVERT JUMPDEST PUSH2 0x148E DUP11 DUP3 DUP12 ADD PUSH2 0x1393 JUMP JUMPDEST SWAP9 SWAP12 SWAP8 SWAP11 POP SWAP6 SWAP9 POP SWAP4 SWAP7 SWAP3 SWAP6 SWAP3 SWAP4 POP POP POP JUMP JUMPDEST PUSH4 0x4E487B71 PUSH1 0xE0 SHL PUSH0 MSTORE PUSH1 0x21 PUSH1 0x4 MSTORE PUSH1 0x24 PUSH0 REVERT JUMPDEST PUSH1 0x8 DUP2 LT PUSH2 0x14C5 JUMPI PUSH2 0x14C5 PUSH2 0x14A1 JUMP JUMPDEST SWAP1 MSTORE JUMP JUMPDEST PUSH1 0x4 DUP2 LT PUSH2 0x14C5 JUMPI PUSH2 0x14C5 PUSH2 0x14A1 JUMP JUMPDEST PUSH0 PUSH2 0x160 PUSH1 0x1 DUP1 PUSH1 0xA0 SHL SUB DUP1 DUP16 AND DUP5 MSTORE PUSH1 0x20 DUP2 DUP16 AND PUSH1 0x20 DUP7 ADD MSTORE DUP14 PUSH1 0x40 DUP7 ADD MSTORE DUP13 PUSH1 0x60 DUP7 ADD MSTORE PUSH2 0x150C PUSH1 0x80 DUP7 ADD DUP14 PUSH2 0x14B5 JUMP JUMPDEST DUP11 PUSH1 0xA0 DUP7 ADD MSTORE DUP10 PUSH1 0xC0 DUP7 ADD MSTORE DUP3 PUSH1 0xE0 DUP7 ADD MSTORE DUP9 MLOAD SWAP2 POP DUP2 DUP4 DUP7 ADD MSTORE PUSH0 SWAP3 POP JUMPDEST DUP2 DUP4 LT ISZERO PUSH2 0x154A JUMPI DUP9 DUP4 ADD DUP2 ADD MLOAD DUP6 DUP5 ADD PUSH2 0x180 ADD MSTORE SWAP2 DUP3 ADD SWAP2 PUSH2 0x152B JUMP JUMPDEST POP PUSH2 0x180 SWAP2 POP PUSH0 DUP3 DUP3 DUP7 ADD ADD MSTORE DUP2 PUSH1 0x1F NOT PUSH1 0x1F DUP4 ADD AND DUP6 ADD ADD SWAP3 POP POP POP PUSH2 0x157E PUSH2 0x100 DUP4 ADD DUP7 PUSH8 0xFFFFFFFFFFFFFFFF AND SWAP1 MSTORE JUMP JUMPDEST PUSH8 0xFFFFFFFFFFFFFFFF DUP5 AND PUSH2 0x120 DUP4 ADD MSTORE PUSH2 0x159D PUSH2 0x140 DUP4 ADD DUP5 PUSH2 0x14C9 JUMP JUMPDEST SWAP13 SWAP12 POP POP POP POP POP POP POP POP POP POP POP POP JUMP JUMPDEST PUSH0 DUP1 PUSH1 0x40 DUP4 DUP6 SUB SLT ISZERO PUSH2 0x15BE JUMPI PUSH0 DUP1 REVERT JUMPDEST POP POP DUP1 CALLDATALOAD SWAP3 PUSH1 0x20 SWAP1 SWAP2 ADD CALLDATALOAD SWAP2 POP JUMP JUMPDEST PUSH0 PUSH1 0x20 DUP3 DUP5 SUB SLT ISZERO PUSH2 0x15DD JUMPI PUSH0 DUP1 REVERT JUMPDEST PUSH2 0x1330 DUP3 PUSH2 0x134E JUMP JUMPDEST DUP2 DUP4 MSTORE DUP2 DUP2 PUSH1 0x20 DUP6 ADD CALLDATACOPY POP PUSH0 DUP3 DUP3 ADD PUSH1 0x20 SWAP1 DUP2 ADD SWAP2 SWAP1 SWAP2 MSTORE PUSH1 0x1F SWAP1 SWAP2 ADD PUSH1 0x1F NOT AND SWAP1 SWAP2 ADD ADD SWAP1 JUMP JUMPDEST PUSH1 0x20 DUP2 MSTORE PUSH0 PUSH2 0x1621 PUSH1 0x20 DUP4 ADD DUP5 DUP7 PUSH2 0x15E6 JUMP JUMPDEST SWAP5 SWAP4 POP POP POP POP JUMP JUMPDEST PUSH0 PUSH1 0x1 DUP3 ADD PUSH2 0x1646 JUMPI PUSH4 0x4E487B71 PUSH1 0xE0 SHL PUSH0 MSTORE PUSH1 0x11 PUSH1 0x4 MSTORE PUSH1 0x24 PUSH0 REVERT JUMPDEST POP PUSH1 0x1 ADD SWAP1 JUMP JUMPDEST PUSH4 0x4E487B71 PUSH1 0xE0 SHL PUSH0 MSTORE PUSH1 0x41 PUSH1 0x4 MSTORE PUSH1 0x24 PUSH0 REVERT JUMPDEST PUSH1 0x1 DUP2 DUP2 SHR SWAP1 DUP3 AND DUP1 PUSH2 0x1675 JUMPI PUSH1 0x7F DUP3 AND SWAP2 POP JUMPDEST PUSH1 0x20 DUP3 LT DUP2 SUB PUSH2 0x1693 JUMPI PUSH4 0x4E487B71 PUSH1 0xE0 SHL PUSH0 MSTORE PUSH1 0x22 PUSH1 0x4 MSTORE PUSH1 0x24 PUSH0 REVERT JUMPDEST POP SWAP2 SWAP1 POP JUMP JUMPDEST PUSH1 0x1F DUP3 GT ISZERO PUSH2 0x3CE JUMPI DUP1 PUSH0 MSTORE PUSH1 0x20 PUSH0 KECCAK256 PUSH1 0x1F DUP5 ADD PUSH1 0x5 SHR DUP2 ADD PUSH1 0x20 DUP6 LT ISZERO PUSH2 0x16BE JUMPI POP DUP1 JUMPDEST PUSH1 0x1F DUP5 ADD PUSH1 0x5 SHR DUP3 ADD SWAP2 POP JUMPDEST DUP2 DUP2 LT ISZERO PUSH2 0x16DD JUMPI PUSH0 DUP2 SSTORE PUSH1 0x1 ADD PUSH2 0x16CA JUMP JUMPDEST POP POP POP POP POP JUMP JUMPDEST DUP2 MLOAD PUSH8 0xFFFFFFFFFFFFFFFF DUP2 GT ISZERO PUSH2 0x16FE JUMPI PUSH2 0x16FE PUSH2 0x164D JUMP JUMPDEST PUSH2 0x1712 DUP2 PUSH2 0x170C DUP5 SLOAD PUSH2 0x1661 JUMP JUMPDEST DUP5 PUSH2 0x1699 JUMP JUMPDEST PUSH1 0x20 DUP1 PUSH1 0x1F DUP4 GT PUSH1 0x1 DUP2 EQ PUSH2 0x1745 JUMPI PUSH0 DUP5 ISZERO PUSH2 0x172E JUMPI POP DUP6 DUP4 ADD MLOAD JUMPDEST PUSH0 NOT PUSH1 0x3 DUP7 SWAP1 SHL SHR NOT AND PUSH1 0x1 DUP6 SWAP1 SHL OR DUP6 SSTORE PUSH2 0x179C JUMP JUMPDEST PUSH0 DUP6 DUP2 MSTORE PUSH1 0x20 DUP2 KECCAK256 PUSH1 0x1F NOT DUP7 AND SWAP2 JUMPDEST DUP3 DUP2 LT ISZERO PUSH2 0x1773 JUMPI DUP9 DUP7 ADD MLOAD DUP3 SSTORE SWAP5 DUP5 ADD SWAP5 PUSH1 0x1 SWAP1 SWAP2 ADD SWAP1 DUP5 ADD PUSH2 0x1754 JUMP JUMPDEST POP DUP6 DUP3 LT ISZERO PUSH2 0x1790 JUMPI DUP8 DUP6 ADD MLOAD PUSH0 NOT PUSH1 0x3 DUP9 SWAP1 SHL PUSH1 0xF8 AND SHR NOT AND DUP2 SSTORE JUMPDEST POP POP PUSH1 0x1 DUP5 PUSH1 0x1 SHL ADD DUP6 SSTORE JUMPDEST POP POP POP POP POP POP JUMP JUMPDEST DUP6 DUP2 MSTORE DUP5 PUSH1 0x20 DUP3 ADD MSTORE PUSH2 0x17BA PUSH1 0x40 DUP3 ADD DUP6 PUSH2 0x14B5 JUMP JUMPDEST PUSH1 0x80 PUSH1 0x60 DUP3 ADD MSTORE PUSH0 PUSH2 0x9B9 PUSH1 0x80 DUP4 ADD DUP5 DUP7 PUSH2 0x15E6 JUMP INVALID PREVRANDAO 0x2A SWAP5 CALL LOG1 STATICCALL 0xC7 SWAP11 RETURN 0x28 JUMP 0xAF 0x2A PUSH5 0xF63648CFA2 0xEF EXTCODESIZE SWAP9 PUSH2 0xA5B 0xB7 0xCB 0xEC 0x4C 0xEE PUSH10 0x859B779B17422D0DF922 0x23 ADD DUP12 ORIGIN 0xB4 0xD1 STATICCALL CHAINID 0xE0 PUSH18 0x723D6817E2486D003BECC55F00A264697066 PUSH20 0x58221220C315724AF7F8A03BECEC46B3FEB3E992 0xEE 0xC7 0xA7 0x4C CHAINID 0xC2 0x2D 0xD3 0xA6 0xCC LOG1 ISZERO 0xC9 DIV PUSH10 0x1764736F6C6343000818 STOP CALLER "},"methodIdentifiers":{"COMPLIANCE_ROLE()":"062d3bd7","DEFAULT_ADMIN_ROLE()":"a217fddf","EXECUTOR_ROLE()":"07bd0265","cancelPosition(uint256,string)":"78a4aadd","createPosition(address,uint256,bytes32,uint8,bytes32,string)":"7ef415a7","freezePosition(uint256,string)":"f1ec7e51","getRoleAdmin(bytes32)":"248a9ca3","grantRole(bytes32,address)":"2f2ff15d","hasRole(bytes32,address)":"91d14854","nextPositionId()":"899346c7","pause()":"8456cb59","paused()":"5c975abb","positions(uint256)":"99fbab88","releasePosition(uint256,uint256)":"c9149478","renounceRole(bytes32,address)":"36568abe","revokeRole(bytes32,address)":"d547741f","setTreasury(address)":"f0f44260","sglToken()":"62b24ea2","supportsInterface(bytes4)":"01ffc9a7","treasury()":"61d027b3","unfreezePosition(uint256)":"d07ee434","unpause()":"3f4ba83a"}}}}}