{"contracts/FeeManager.sol":{"FeeManager":{"abi":[{"inputs":[{"internalType":"address","name":"tokenAddress","type":"address"},{"internalType":"address","name":"treasuryAddress","type":"address"},{"internalType":"uint16","name":"platformBps","type":"uint16"},{"internalType":"uint16","name":"burnBps","type":"uint16"}],"stateMutability":"nonpayable","type":"constructor"},{"inputs":[],"name":"AccessControlBadConfirmation","type":"error"},{"inputs":[{"internalType":"address","name":"account","type":"address"},{"internalType":"bytes32","name":"neededRole","type":"bytes32"}],"name":"AccessControlUnauthorizedAccount","type":"error"},{"inputs":[],"name":"EnforcedPause","type":"error"},{"inputs":[],"name":"ExpectedPause","type":"error"},{"inputs":[{"internalType":"address","name":"token","type":"address"}],"name":"SafeERC20FailedOperation","type":"error"},{"anonymous":false,"inputs":[{"indexed":true,"internalType":"address","name":"payer","type":"address"},{"indexed":true,"internalType":"uint256","name":"baseAmount","type":"uint256"},{"indexed":false,"internalType":"uint256","name":"treasuryAmount","type":"uint256"},{"indexed":false,"internalType":"uint256","name":"burnedAmount","type":"uint256"}],"name":"FeeCollected","type":"event"},{"anonymous":false,"inputs":[{"indexed":false,"internalType":"uint16","name":"platformFeeBps","type":"uint16"},{"indexed":false,"internalType":"uint16","name":"burnFeeBps","type":"uint16"},{"indexed":false,"internalType":"address","name":"treasury","type":"address"}],"name":"FeeConfigUpdated","type":"event"},{"anonymous":false,"inputs":[{"indexed":false,"internalType":"address","name":"account","type":"address"}],"name":"Paused","type":"event"},{"anonymous":false,"inputs":[{"indexed":true,"internalType":"bytes32","name":"role","type":"bytes32"},{"indexed":true,"internalType":"bytes32","name":"previousAdminRole","type":"bytes32"},{"indexed":true,"internalType":"bytes32","name":"newAdminRole","type":"bytes32"}],"name":"RoleAdminChanged","type":"event"},{"anonymous":false,"inputs":[{"indexed":true,"internalType":"bytes32","name":"role","type":"bytes32"},{"indexed":true,"internalType":"address","name":"account","type":"address"},{"indexed":true,"internalType":"address","name":"sender","type":"address"}],"name":"RoleGranted","type":"event"},{"anonymous":false,"inputs":[{"indexed":true,"internalType":"bytes32","name":"role","type":"bytes32"},{"indexed":true,"internalType":"address","name":"account","type":"address"},{"indexed":true,"internalType":"address","name":"sender","type":"address"}],"name":"RoleRevoked","type":"event"},{"anonymous":false,"inputs":[{"indexed":false,"internalType":"address","name":"account","type":"address"}],"name":"Unpaused","type":"event"},{"inputs":[],"name":"DEFAULT_ADMIN_ROLE","outputs":[{"internalType":"bytes32","name":"","type":"bytes32"}],"stateMutability":"view","type":"function"},{"inputs":[],"name":"MAX_BPS","outputs":[{"internalType":"uint16","name":"","type":"uint16"}],"stateMutability":"view","type":"function"},{"inputs":[],"name":"TREASURER_ROLE","outputs":[{"internalType":"bytes32","name":"","type":"bytes32"}],"stateMutability":"view","type":"function"},{"inputs":[],"name":"burnFeeBps","outputs":[{"internalType":"uint16","name":"","type":"uint16"}],"stateMutability":"view","type":"function"},{"inputs":[{"internalType":"address","name":"payer","type":"address"},{"internalType":"uint256","name":"baseAmount","type":"uint256"}],"name":"collectFee","outputs":[{"internalType":"uint256","name":"totalFee","type":"uint256"}],"stateMutability":"nonpayable","type":"function"},{"inputs":[{"internalType":"bytes32","name":"role","type":"bytes32"}],"name":"getRoleAdmin","outputs":[{"internalType":"bytes32","name":"","type":"bytes32"}],"stateMutability":"view","type":"function"},{"inputs":[{"internalType":"bytes32","name":"role","type":"bytes32"},{"internalType":"address","name":"account","type":"address"}],"name":"grantRole","outputs":[],"stateMutability":"nonpayable","type":"function"},{"inputs":[{"internalType":"bytes32","name":"role","type":"bytes32"},{"internalType":"address","name":"account","type":"address"}],"name":"hasRole","outputs":[{"internalType":"bool","name":"","type":"bool"}],"stateMutability":"view","type":"function"},{"inputs":[],"name":"pause","outputs":[],"stateMutability":"nonpayable","type":"function"},{"inputs":[],"name":"paused","outputs":[{"internalType":"bool","name":"","type":"bool"}],"stateMutability":"view","type":"function"},{"inputs":[],"name":"platformFeeBps","outputs":[{"internalType":"uint16","name":"","type":"uint16"}],"stateMutability":"view","type":"function"},{"inputs":[{"internalType":"uint256","name":"baseAmount","type":"uint256"}],"name":"quoteFee","outputs":[{"internalType":"uint256","name":"treasuryAmount","type":"uint256"},{"internalType":"uint256","name":"burnedAmount","type":"uint256"},{"internalType":"uint256","name":"totalFee","type":"uint256"}],"stateMutability":"view","type":"function"},{"inputs":[{"internalType":"bytes32","name":"role","type":"bytes32"},{"internalType":"address","name":"callerConfirmation","type":"address"}],"name":"renounceRole","outputs":[],"stateMutability":"nonpayable","type":"function"},{"inputs":[{"internalType":"bytes32","name":"role","type":"bytes32"},{"internalType":"address","name":"account","type":"address"}],"name":"revokeRole","outputs":[],"stateMutability":"nonpayable","type":"function"},{"inputs":[{"internalType":"address","name":"newTreasury","type":"address"},{"internalType":"uint16","name":"newPlatformFeeBps","type":"uint16"},{"internalType":"uint16","name":"newBurnFeeBps","type":"uint16"}],"name":"setFeeConfig","outputs":[],"stateMutability":"nonpayable","type":"function"},{"inputs":[],"name":"sglToken","outputs":[{"internalType":"contract ISGLBurnable","name":"","type":"address"}],"stateMutability":"view","type":"function"},{"inputs":[{"internalType":"bytes4","name":"interfaceId","type":"bytes4"}],"name":"supportsInterface","outputs":[{"internalType":"bool","name":"","type":"bool"}],"stateMutability":"view","type":"function"},{"inputs":[],"name":"treasury","outputs":[{"internalType":"address","name":"","type":"address"}],"stateMutability":"view","type":"function"},{"inputs":[],"name":"unpause","outputs":[],"stateMutability":"nonpayable","type":"function"}],"evm":{"bytecode":{"linkReferences":{},"object":"60a060405234801562000010575f80fd5b506040516200100c3803806200100c8339810160408190526200003391620002ad565b6001600160a01b038416620000845760405162461bcd60e51b81526020600482015260126024820152712322a29d1034b73b30b634b2103a37b5b2b760711b60448201526064015b60405180910390fd5b6001600160a01b038316620000dc5760405162461bcd60e51b815260206004820152601560248201527f4645453a20696e76616c6964207472656173757279000000000000000000000060448201526064016200007b565b612710620000eb828462000307565b61ffff161115620001325760405162461bcd60e51b815260206004820152601060248201526f4645453a20696e76616c69642062707360801b60448201526064016200007b565b6001600160a01b0384811660805260018054610100600160b81b0319166101009286169290920261ffff60a81b191691909117600160a81b61ffff858116919091029190911761ffff60b81b1916600160b81b918416919091021790556200019b5f33620001d3565b50620001c87f3496e2e73c4d42b75d702e60d9e48102720b8691234415963a5a857b86425d0733620001d3565b505050505062000336565b5f828152602081815260408083206001600160a01b038516845290915281205460ff1662000276575f838152602081815260408083206001600160a01b03861684529091529020805460ff191660011790556200022d3390565b6001600160a01b0316826001600160a01b0316847f2f8788117e7eff1d82e926ec794901d17c78024a50270940304540a733656f0d60405160405180910390a450600162000279565b505f5b92915050565b80516001600160a01b038116811462000296575f80fd5b919050565b805161ffff8116811462000296575f80fd5b5f805f8060808587031215620002c1575f80fd5b620002cc856200027f565b9350620002dc602086016200027f565b9250620002ec604086016200029b565b9150620002fc606086016200029b565b905092959194509250565b61ffff8181168382160190808211156200032f57634e487b7160e01b5f52601160045260245ffd5b5092915050565b608051610ca8620003645f395f8181610264015281816104560152818161049501526104df0152610ca85ff3fe608060405234801561000f575f80fd5b506004361061011c575f3560e01c80635c975abb116100a9578063a217fddf1161006e578063a217fddf146102a1578063a5189810146102a8578063d547741f146102bd578063f0a3a97c146102d0578063fd967f47146102f7575f80fd5b80635c975abb1461022457806361d027b31461022f57806362b24ea21461025f5780638456cb591461028657806391d148541461028e575f80fd5b80632ec0ff6c116100ef5780632ec0ff6c146101ce5780632f2ff15d146101e157806336568abe146101f65780633f4ba83a14610209578063445315eb14610211575f80fd5b806301ffc9a7146101205780632205f5681461014857806322dcd13e14610176578063248a9ca31461019e575b5f80fd5b61013361012e366004610af7565b610300565b60405190151581526020015b60405180910390f35b61015b610156366004610b25565b610336565b6040805193845260208401929092529082015260600161013f565b60015461018b90600160a81b900461ffff1681565b60405161ffff909116815260200161013f565b6101c06101ac366004610b25565b5f9081526020819052604090206001015490565b60405190815260200161013f565b6101c06101dc366004610b57565b61039f565b6101f46101ef366004610b7f565b610590565b005b6101f4610204366004610b7f565b6105ba565b6101f46105f2565b6101f461021f366004610bba565b610607565b60015460ff16610133565b6001546102479061010090046001600160a01b031681565b6040516001600160a01b03909116815260200161013f565b6102477f000000000000000000000000000000000000000000000000000000000000000081565b6101f461074a565b61013361029c366004610b7f565b61075c565b6101c05f81565b60015461018b90600160b81b900461ffff1681565b6101f46102cb366004610b7f565b610784565b6101c07f3496e2e73c4d42b75d702e60d9e48102720b8691234415963a5a857b86425d0781565b61018b61271081565b5f6001600160e01b03198216637965db0b60e01b148061033057506301ffc9a760e01b6001600160e01b03198316145b92915050565b6001545f90819081906127109061035890600160a81b900461ffff1686610c0e565b6103629190610c25565b6001549093506127109061038190600160b81b900461ffff1686610c0e565b61038b9190610c25565b91506103978284610c44565b929491935050565b5f6103a86107a8565b7f3496e2e73c4d42b75d702e60d9e48102720b8691234415963a5a857b86425d076103d2816107ce565b6001600160a01b0384166104225760405162461bcd60e51b81526020600482015260126024820152712322a29d1034b73b30b634b2103830bcb2b960711b60448201526064015b60405180910390fd5b5f805f61042e86610336565b925092509250809450845f03610449575f9450505050610589565b61047e6001600160a01b037f0000000000000000000000000000000000000000000000000000000000000000168830886107d8565b82156104c3576001546104c3906001600160a01b037f00000000000000000000000000000000000000000000000000000000000000008116916101009004168561080e565b811561053f57604051630852cd8d60e31b8152600481018390527f00000000000000000000000000000000000000000000000000000000000000006001600160a01b0316906342966c68906024015f604051808303815f87803b158015610528575f80fd5b505af115801561053a573d5f803e3d5ffd5b505050505b604080518481526020810184905287916001600160a01b038a16917f7e4199a81d431b89a16814e8730ae102c7b9b30c1a661bc67be86f4b185b1733910160405180910390a35050505b5092915050565b5f828152602081905260409020600101546105aa816107ce565b6105b48383610843565b50505050565b6001600160a01b03811633146105e35760405163334bd91960e11b815260040160405180910390fd5b6105ed82826108d2565b505050565b5f6105fc816107ce565b61060461093b565b50565b5f610611816107ce565b6001600160a01b03841661065f5760405162461bcd60e51b81526020600482015260156024820152744645453a20696e76616c696420747265617375727960581b6044820152606401610419565b61271061066c8385610c57565b61ffff1611156106b15760405162461bcd60e51b815260206004820152601060248201526f4645453a20696e76616c69642062707360801b6044820152606401610419565b60018054610100600160b81b0319166101006001600160a01b03871690810261ffff60a81b191691909117600160a81b61ffff8781169182029290921761ffff60b81b1916600160b81b928716928302179093556040805193845260208401919091528201527f39496d5c6d0e7cc50e42af40e13422682ada6aee092a8eee36bb0fdd19096fd99060600160405180910390a150505050565b5f610754816107ce565b61060461098d565b5f918252602082815260408084206001600160a01b0393909316845291905290205460ff1690565b5f8281526020819052604090206001015461079e816107ce565b6105b483836108d2565b60015460ff16156107cc5760405163d93c066560e01b815260040160405180910390fd5b565b61060481336109c8565b6107e6848484846001610a05565b6105b457604051635274afe760e01b81526001600160a01b0385166004820152602401610419565b61081b8383836001610a72565b6105ed57604051635274afe760e01b81526001600160a01b0384166004820152602401610419565b5f61084e838361075c565b6108cb575f838152602081815260408083206001600160a01b03861684529091529020805460ff191660011790556108833390565b6001600160a01b0316826001600160a01b0316847f2f8788117e7eff1d82e926ec794901d17c78024a50270940304540a733656f0d60405160405180910390a4506001610330565b505f610330565b5f6108dd838361075c565b156108cb575f838152602081815260408083206001600160a01b0386168085529252808320805460ff1916905551339286917ff6391f5c32d9c69d2a47ea670b442974b53935d1edc7fd64eb21e047a839171b9190a4506001610330565b610943610ad4565b6001805460ff191690557f5db9ee0a495bf2e6ff9c91a7834c1ba4fdd244a5e8aa4e537bd38aeae4b073aa335b6040516001600160a01b03909116815260200160405180910390a1565b6109956107a8565b6001805460ff1916811790557f62e78cea01bee320cd4e420270b5ea74000d11b0c9f74754ebdbfc544b05a25833610970565b6109d2828261075c565b610a015760405163e2517d3f60e01b81526001600160a01b038216600482015260248101839052604401610419565b5050565b6040516323b872dd60e01b5f8181526001600160a01b038781166004528616602452604485905291602083606481808c5af1925060015f51148316610a61578383151615610a55573d5f823e3d81fd5b5f883b113d1516831692505b604052505f60605295945050505050565b60405163a9059cbb60e01b5f8181526001600160a01b038616600452602485905291602083604481808b5af1925060015f51148316610ac8578383151615610abc573d5f823e3d81fd5b5f873b113d1516831692505b60405250949350505050565b60015460ff166107cc57604051638dfc202b60e01b815260040160405180910390fd5b5f60208284031215610b07575f80fd5b81356001600160e01b031981168114610b1e575f80fd5b9392505050565b5f60208284031215610b35575f80fd5b5035919050565b80356001600160a01b0381168114610b52575f80fd5b919050565b5f8060408385031215610b68575f80fd5b610b7183610b3c565b946020939093013593505050565b5f8060408385031215610b90575f80fd5b82359150610ba060208401610b3c565b90509250929050565b803561ffff81168114610b52575f80fd5b5f805f60608486031215610bcc575f80fd5b610bd584610b3c565b9250610be360208501610ba9565b9150610bf160408501610ba9565b90509250925092565b634e487b7160e01b5f52601160045260245ffd5b808202811582820484141761033057610330610bfa565b5f82610c3f57634e487b7160e01b5f52601260045260245ffd5b500490565b8082018082111561033057610330610bfa565b61ffff81811683821601908082111561058957610589610bfa56fea26469706673582212209d638302a951fe709f59ed2c2fd2d7b7d3f121178c46be62829b391648d0412a64736f6c63430008180033","opcodes":"PUSH1 0xA0 PUSH1 0x40 MSTORE CALLVALUE DUP1 ISZERO PUSH3 0x10 JUMPI PUSH0 DUP1 REVERT JUMPDEST POP PUSH1 0x40 MLOAD PUSH3 0x100C CODESIZE SUB DUP1 PUSH3 0x100C DUP4 CODECOPY DUP2 ADD PUSH1 0x40 DUP2 SWAP1 MSTORE PUSH3 0x33 SWAP2 PUSH3 0x2AD JUMP JUMPDEST PUSH1 0x1 PUSH1 0x1 PUSH1 0xA0 SHL SUB DUP5 AND PUSH3 0x84 JUMPI PUSH1 0x40 MLOAD PUSH3 0x461BCD PUSH1 0xE5 SHL DUP2 MSTORE PUSH1 0x20 PUSH1 0x4 DUP3 ADD MSTORE PUSH1 0x12 PUSH1 0x24 DUP3 ADD MSTORE PUSH18 0x2322A29D1034B73B30B634B2103A37B5B2B7 PUSH1 0x71 SHL PUSH1 0x44 DUP3 ADD MSTORE PUSH1 0x64 ADD JUMPDEST PUSH1 0x40 MLOAD DUP1 SWAP2 SUB SWAP1 REVERT JUMPDEST PUSH1 0x1 PUSH1 0x1 PUSH1 0xA0 SHL SUB DUP4 AND PUSH3 0xDC JUMPI PUSH1 0x40 MLOAD PUSH3 0x461BCD PUSH1 0xE5 SHL DUP2 MSTORE PUSH1 0x20 PUSH1 0x4 DUP3 ADD MSTORE PUSH1 0x15 PUSH1 0x24 DUP3 ADD MSTORE PUSH32 0x4645453A20696E76616C69642074726561737572790000000000000000000000 PUSH1 0x44 DUP3 ADD MSTORE PUSH1 0x64 ADD PUSH3 0x7B JUMP JUMPDEST PUSH2 0x2710 PUSH3 0xEB DUP3 DUP5 PUSH3 0x307 JUMP JUMPDEST PUSH2 0xFFFF AND GT ISZERO PUSH3 0x132 JUMPI PUSH1 0x40 MLOAD PUSH3 0x461BCD PUSH1 0xE5 SHL DUP2 MSTORE PUSH1 0x20 PUSH1 0x4 DUP3 ADD MSTORE PUSH1 0x10 PUSH1 0x24 DUP3 ADD MSTORE PUSH16 0x4645453A20696E76616C696420627073 PUSH1 0x80 SHL PUSH1 0x44 DUP3 ADD MSTORE PUSH1 0x64 ADD PUSH3 0x7B JUMP JUMPDEST PUSH1 0x1 PUSH1 0x1 PUSH1 0xA0 SHL SUB DUP5 DUP2 AND PUSH1 0x80 MSTORE PUSH1 0x1 DUP1 SLOAD PUSH2 0x100 PUSH1 0x1 PUSH1 0xB8 SHL SUB NOT AND PUSH2 0x100 SWAP3 DUP7 AND SWAP3 SWAP1 SWAP3 MUL PUSH2 0xFFFF PUSH1 0xA8 SHL NOT AND SWAP2 SWAP1 SWAP2 OR PUSH1 0x1 PUSH1 0xA8 SHL PUSH2 0xFFFF DUP6 DUP2 AND SWAP2 SWAP1 SWAP2 MUL SWAP2 SWAP1 SWAP2 OR PUSH2 0xFFFF PUSH1 0xB8 SHL NOT AND PUSH1 0x1 PUSH1 0xB8 SHL SWAP2 DUP5 AND SWAP2 SWAP1 SWAP2 MUL OR SWAP1 SSTORE PUSH3 0x19B PUSH0 CALLER PUSH3 0x1D3 JUMP JUMPDEST POP PUSH3 0x1C8 PUSH32 0x3496E2E73C4D42B75D702E60D9E48102720B8691234415963A5A857B86425D07 CALLER PUSH3 0x1D3 JUMP JUMPDEST POP POP POP POP POP PUSH3 0x336 JUMP JUMPDEST PUSH0 DUP3 DUP2 MSTORE PUSH1 0x20 DUP2 DUP2 MSTORE PUSH1 0x40 DUP1 DUP4 KECCAK256 PUSH1 0x1 PUSH1 0x1 PUSH1 0xA0 SHL SUB DUP6 AND DUP5 MSTORE SWAP1 SWAP2 MSTORE DUP2 KECCAK256 SLOAD PUSH1 0xFF AND PUSH3 0x276 JUMPI PUSH0 DUP4 DUP2 MSTORE PUSH1 0x20 DUP2 DUP2 MSTORE PUSH1 0x40 DUP1 DUP4 KECCAK256 PUSH1 0x1 PUSH1 0x1 PUSH1 0xA0 SHL SUB DUP7 AND DUP5 MSTORE SWAP1 SWAP2 MSTORE SWAP1 KECCAK256 DUP1 SLOAD PUSH1 0xFF NOT AND PUSH1 0x1 OR SWAP1 SSTORE PUSH3 0x22D CALLER SWAP1 JUMP JUMPDEST PUSH1 0x1 PUSH1 0x1 PUSH1 0xA0 SHL SUB AND DUP3 PUSH1 0x1 PUSH1 0x1 PUSH1 0xA0 SHL SUB AND DUP5 PUSH32 0x2F8788117E7EFF1D82E926EC794901D17C78024A50270940304540A733656F0D PUSH1 0x40 MLOAD PUSH1 0x40 MLOAD DUP1 SWAP2 SUB SWAP1 LOG4 POP PUSH1 0x1 PUSH3 0x279 JUMP JUMPDEST POP PUSH0 JUMPDEST SWAP3 SWAP2 POP POP JUMP JUMPDEST DUP1 MLOAD PUSH1 0x1 PUSH1 0x1 PUSH1 0xA0 SHL SUB DUP2 AND DUP2 EQ PUSH3 0x296 JUMPI PUSH0 DUP1 REVERT JUMPDEST SWAP2 SWAP1 POP JUMP JUMPDEST DUP1 MLOAD PUSH2 0xFFFF DUP2 AND DUP2 EQ PUSH3 0x296 JUMPI PUSH0 DUP1 REVERT JUMPDEST PUSH0 DUP1 PUSH0 DUP1 PUSH1 0x80 DUP6 DUP8 SUB SLT ISZERO PUSH3 0x2C1 JUMPI PUSH0 DUP1 REVERT JUMPDEST PUSH3 0x2CC DUP6 PUSH3 0x27F JUMP JUMPDEST SWAP4 POP PUSH3 0x2DC PUSH1 0x20 DUP7 ADD PUSH3 0x27F JUMP JUMPDEST SWAP3 POP PUSH3 0x2EC PUSH1 0x40 DUP7 ADD PUSH3 0x29B JUMP JUMPDEST SWAP2 POP PUSH3 0x2FC PUSH1 0x60 DUP7 ADD PUSH3 0x29B JUMP JUMPDEST SWAP1 POP SWAP3 SWAP6 SWAP2 SWAP5 POP SWAP3 POP JUMP JUMPDEST PUSH2 0xFFFF DUP2 DUP2 AND DUP4 DUP3 AND ADD SWAP1 DUP1 DUP3 GT ISZERO PUSH3 0x32F JUMPI PUSH4 0x4E487B71 PUSH1 0xE0 SHL PUSH0 MSTORE PUSH1 0x11 PUSH1 0x4 MSTORE PUSH1 0x24 PUSH0 REVERT JUMPDEST POP SWAP3 SWAP2 POP POP JUMP JUMPDEST PUSH1 0x80 MLOAD PUSH2 0xCA8 PUSH3 0x364 PUSH0 CODECOPY PUSH0 DUP2 DUP2 PUSH2 0x264 ADD MSTORE DUP2 DUP2 PUSH2 0x456 ADD MSTORE DUP2 DUP2 PUSH2 0x495 ADD MSTORE PUSH2 0x4DF ADD MSTORE PUSH2 0xCA8 PUSH0 RETURN INVALID PUSH1 0x80 PUSH1 0x40 MSTORE CALLVALUE DUP1 ISZERO PUSH2 0xF JUMPI PUSH0 DUP1 REVERT JUMPDEST POP PUSH1 0x4 CALLDATASIZE LT PUSH2 0x11C JUMPI PUSH0 CALLDATALOAD PUSH1 0xE0 SHR DUP1 PUSH4 0x5C975ABB GT PUSH2 0xA9 JUMPI DUP1 PUSH4 0xA217FDDF GT PUSH2 0x6E JUMPI DUP1 PUSH4 0xA217FDDF EQ PUSH2 0x2A1 JUMPI DUP1 PUSH4 0xA5189810 EQ PUSH2 0x2A8 JUMPI DUP1 PUSH4 0xD547741F EQ PUSH2 0x2BD JUMPI DUP1 PUSH4 0xF0A3A97C EQ PUSH2 0x2D0 JUMPI DUP1 PUSH4 0xFD967F47 EQ PUSH2 0x2F7 JUMPI PUSH0 DUP1 REVERT JUMPDEST DUP1 PUSH4 0x5C975ABB EQ PUSH2 0x224 JUMPI DUP1 PUSH4 0x61D027B3 EQ PUSH2 0x22F JUMPI DUP1 PUSH4 0x62B24EA2 EQ PUSH2 0x25F JUMPI DUP1 PUSH4 0x8456CB59 EQ PUSH2 0x286 JUMPI DUP1 PUSH4 0x91D14854 EQ PUSH2 0x28E JUMPI PUSH0 DUP1 REVERT JUMPDEST DUP1 PUSH4 0x2EC0FF6C GT PUSH2 0xEF JUMPI DUP1 PUSH4 0x2EC0FF6C EQ PUSH2 0x1CE JUMPI DUP1 PUSH4 0x2F2FF15D EQ PUSH2 0x1E1 JUMPI DUP1 PUSH4 0x36568ABE EQ PUSH2 0x1F6 JUMPI DUP1 PUSH4 0x3F4BA83A EQ PUSH2 0x209 JUMPI DUP1 PUSH4 0x445315EB EQ PUSH2 0x211 JUMPI PUSH0 DUP1 REVERT JUMPDEST DUP1 PUSH4 0x1FFC9A7 EQ PUSH2 0x120 JUMPI DUP1 PUSH4 0x2205F568 EQ PUSH2 0x148 JUMPI DUP1 PUSH4 0x22DCD13E EQ PUSH2 0x176 JUMPI DUP1 PUSH4 0x248A9CA3 EQ PUSH2 0x19E JUMPI JUMPDEST PUSH0 DUP1 REVERT JUMPDEST PUSH2 0x133 PUSH2 0x12E CALLDATASIZE PUSH1 0x4 PUSH2 0xAF7 JUMP JUMPDEST PUSH2 0x300 JUMP JUMPDEST PUSH1 0x40 MLOAD SWAP1 ISZERO ISZERO DUP2 MSTORE PUSH1 0x20 ADD JUMPDEST PUSH1 0x40 MLOAD DUP1 SWAP2 SUB SWAP1 RETURN JUMPDEST PUSH2 0x15B PUSH2 0x156 CALLDATASIZE PUSH1 0x4 PUSH2 0xB25 JUMP JUMPDEST PUSH2 0x336 JUMP JUMPDEST PUSH1 0x40 DUP1 MLOAD SWAP4 DUP5 MSTORE PUSH1 0x20 DUP5 ADD SWAP3 SWAP1 SWAP3 MSTORE SWAP1 DUP3 ADD MSTORE PUSH1 0x60 ADD PUSH2 0x13F JUMP JUMPDEST PUSH1 0x1 SLOAD PUSH2 0x18B SWAP1 PUSH1 0x1 PUSH1 0xA8 SHL SWAP1 DIV PUSH2 0xFFFF AND DUP2 JUMP JUMPDEST PUSH1 0x40 MLOAD PUSH2 0xFFFF SWAP1 SWAP2 AND DUP2 MSTORE PUSH1 0x20 ADD PUSH2 0x13F JUMP JUMPDEST PUSH2 0x1C0 PUSH2 0x1AC CALLDATASIZE PUSH1 0x4 PUSH2 0xB25 JUMP JUMPDEST PUSH0 SWAP1 DUP2 MSTORE PUSH1 0x20 DUP2 SWAP1 MSTORE PUSH1 0x40 SWAP1 KECCAK256 PUSH1 0x1 ADD SLOAD SWAP1 JUMP JUMPDEST PUSH1 0x40 MLOAD SWAP1 DUP2 MSTORE PUSH1 0x20 ADD PUSH2 0x13F JUMP JUMPDEST PUSH2 0x1C0 PUSH2 0x1DC CALLDATASIZE PUSH1 0x4 PUSH2 0xB57 JUMP JUMPDEST PUSH2 0x39F JUMP JUMPDEST PUSH2 0x1F4 PUSH2 0x1EF CALLDATASIZE PUSH1 0x4 PUSH2 0xB7F JUMP JUMPDEST PUSH2 0x590 JUMP JUMPDEST STOP JUMPDEST PUSH2 0x1F4 PUSH2 0x204 CALLDATASIZE PUSH1 0x4 PUSH2 0xB7F JUMP JUMPDEST PUSH2 0x5BA JUMP JUMPDEST PUSH2 0x1F4 PUSH2 0x5F2 JUMP JUMPDEST PUSH2 0x1F4 PUSH2 0x21F CALLDATASIZE PUSH1 0x4 PUSH2 0xBBA JUMP JUMPDEST PUSH2 0x607 JUMP JUMPDEST PUSH1 0x1 SLOAD PUSH1 0xFF AND PUSH2 0x133 JUMP JUMPDEST PUSH1 0x1 SLOAD PUSH2 0x247 SWAP1 PUSH2 0x100 SWAP1 DIV PUSH1 0x1 PUSH1 0x1 PUSH1 0xA0 SHL SUB AND DUP2 JUMP JUMPDEST PUSH1 0x40 MLOAD PUSH1 0x1 PUSH1 0x1 PUSH1 0xA0 SHL SUB SWAP1 SWAP2 AND DUP2 MSTORE PUSH1 0x20 ADD PUSH2 0x13F JUMP JUMPDEST PUSH2 0x247 PUSH32 0x0 DUP2 JUMP JUMPDEST PUSH2 0x1F4 PUSH2 0x74A JUMP JUMPDEST PUSH2 0x133 PUSH2 0x29C CALLDATASIZE PUSH1 0x4 PUSH2 0xB7F JUMP JUMPDEST PUSH2 0x75C JUMP JUMPDEST PUSH2 0x1C0 PUSH0 DUP2 JUMP JUMPDEST PUSH1 0x1 SLOAD PUSH2 0x18B SWAP1 PUSH1 0x1 PUSH1 0xB8 SHL SWAP1 DIV PUSH2 0xFFFF AND DUP2 JUMP JUMPDEST PUSH2 0x1F4 PUSH2 0x2CB CALLDATASIZE PUSH1 0x4 PUSH2 0xB7F JUMP JUMPDEST PUSH2 0x784 JUMP JUMPDEST PUSH2 0x1C0 PUSH32 0x3496E2E73C4D42B75D702E60D9E48102720B8691234415963A5A857B86425D07 DUP2 JUMP JUMPDEST PUSH2 0x18B PUSH2 0x2710 DUP2 JUMP JUMPDEST PUSH0 PUSH1 0x1 PUSH1 0x1 PUSH1 0xE0 SHL SUB NOT DUP3 AND PUSH4 0x7965DB0B PUSH1 0xE0 SHL EQ DUP1 PUSH2 0x330 JUMPI POP PUSH4 0x1FFC9A7 PUSH1 0xE0 SHL PUSH1 0x1 PUSH1 0x1 PUSH1 0xE0 SHL SUB NOT DUP4 AND EQ JUMPDEST SWAP3 SWAP2 POP POP JUMP JUMPDEST PUSH1 0x1 SLOAD PUSH0 SWAP1 DUP2 SWAP1 DUP2 SWAP1 PUSH2 0x2710 SWAP1 PUSH2 0x358 SWAP1 PUSH1 0x1 PUSH1 0xA8 SHL SWAP1 DIV PUSH2 0xFFFF AND DUP7 PUSH2 0xC0E JUMP JUMPDEST PUSH2 0x362 SWAP2 SWAP1 PUSH2 0xC25 JUMP JUMPDEST PUSH1 0x1 SLOAD SWAP1 SWAP4 POP PUSH2 0x2710 SWAP1 PUSH2 0x381 SWAP1 PUSH1 0x1 PUSH1 0xB8 SHL SWAP1 DIV PUSH2 0xFFFF AND DUP7 PUSH2 0xC0E JUMP JUMPDEST PUSH2 0x38B SWAP2 SWAP1 PUSH2 0xC25 JUMP JUMPDEST SWAP2 POP PUSH2 0x397 DUP3 DUP5 PUSH2 0xC44 JUMP JUMPDEST SWAP3 SWAP5 SWAP2 SWAP4 POP POP JUMP JUMPDEST PUSH0 PUSH2 0x3A8 PUSH2 0x7A8 JUMP JUMPDEST PUSH32 0x3496E2E73C4D42B75D702E60D9E48102720B8691234415963A5A857B86425D07 PUSH2 0x3D2 DUP2 PUSH2 0x7CE JUMP JUMPDEST PUSH1 0x1 PUSH1 0x1 PUSH1 0xA0 SHL SUB DUP5 AND PUSH2 0x422 JUMPI PUSH1 0x40 MLOAD PUSH3 0x461BCD PUSH1 0xE5 SHL DUP2 MSTORE PUSH1 0x20 PUSH1 0x4 DUP3 ADD MSTORE PUSH1 0x12 PUSH1 0x24 DUP3 ADD MSTORE PUSH18 0x2322A29D1034B73B30B634B2103830BCB2B9 PUSH1 0x71 SHL PUSH1 0x44 DUP3 ADD MSTORE PUSH1 0x64 ADD JUMPDEST PUSH1 0x40 MLOAD DUP1 SWAP2 SUB SWAP1 REVERT JUMPDEST PUSH0 DUP1 PUSH0 PUSH2 0x42E DUP7 PUSH2 0x336 JUMP JUMPDEST SWAP3 POP SWAP3 POP SWAP3 POP DUP1 SWAP5 POP DUP5 PUSH0 SUB PUSH2 0x449 JUMPI PUSH0 SWAP5 POP POP POP POP PUSH2 0x589 JUMP JUMPDEST PUSH2 0x47E PUSH1 0x1 PUSH1 0x1 PUSH1 0xA0 SHL SUB PUSH32 0x0 AND DUP9 ADDRESS DUP9 PUSH2 0x7D8 JUMP JUMPDEST DUP3 ISZERO PUSH2 0x4C3 JUMPI PUSH1 0x1 SLOAD PUSH2 0x4C3 SWAP1 PUSH1 0x1 PUSH1 0x1 PUSH1 0xA0 SHL SUB PUSH32 0x0 DUP2 AND SWAP2 PUSH2 0x100 SWAP1 DIV AND DUP6 PUSH2 0x80E JUMP JUMPDEST DUP2 ISZERO PUSH2 0x53F JUMPI PUSH1 0x40 MLOAD PUSH4 0x852CD8D PUSH1 0xE3 SHL DUP2 MSTORE PUSH1 0x4 DUP2 ADD DUP4 SWAP1 MSTORE PUSH32 0x0 PUSH1 0x1 PUSH1 0x1 PUSH1 0xA0 SHL SUB AND SWAP1 PUSH4 0x42966C68 SWAP1 PUSH1 0x24 ADD PUSH0 PUSH1 0x40 MLOAD DUP1 DUP4 SUB DUP2 PUSH0 DUP8 DUP1 EXTCODESIZE ISZERO DUP1 ISZERO PUSH2 0x528 JUMPI PUSH0 DUP1 REVERT JUMPDEST POP GAS CALL ISZERO DUP1 ISZERO PUSH2 0x53A JUMPI RETURNDATASIZE PUSH0 DUP1 RETURNDATACOPY RETURNDATASIZE PUSH0 REVERT JUMPDEST POP POP POP POP JUMPDEST PUSH1 0x40 DUP1 MLOAD DUP5 DUP2 MSTORE PUSH1 0x20 DUP2 ADD DUP5 SWAP1 MSTORE DUP8 SWAP2 PUSH1 0x1 PUSH1 0x1 PUSH1 0xA0 SHL SUB DUP11 AND SWAP2 PUSH32 0x7E4199A81D431B89A16814E8730AE102C7B9B30C1A661BC67BE86F4B185B1733 SWAP2 ADD PUSH1 0x40 MLOAD DUP1 SWAP2 SUB SWAP1 LOG3 POP POP POP JUMPDEST POP SWAP3 SWAP2 POP POP JUMP JUMPDEST PUSH0 DUP3 DUP2 MSTORE PUSH1 0x20 DUP2 SWAP1 MSTORE PUSH1 0x40 SWAP1 KECCAK256 PUSH1 0x1 ADD SLOAD PUSH2 0x5AA DUP2 PUSH2 0x7CE JUMP JUMPDEST PUSH2 0x5B4 DUP4 DUP4 PUSH2 0x843 JUMP JUMPDEST POP POP POP POP JUMP JUMPDEST PUSH1 0x1 PUSH1 0x1 PUSH1 0xA0 SHL SUB DUP2 AND CALLER EQ PUSH2 0x5E3 JUMPI PUSH1 0x40 MLOAD PUSH4 0x334BD919 PUSH1 0xE1 SHL DUP2 MSTORE PUSH1 0x4 ADD PUSH1 0x40 MLOAD DUP1 SWAP2 SUB SWAP1 REVERT JUMPDEST PUSH2 0x5ED DUP3 DUP3 PUSH2 0x8D2 JUMP JUMPDEST POP POP POP JUMP JUMPDEST PUSH0 PUSH2 0x5FC DUP2 PUSH2 0x7CE JUMP JUMPDEST PUSH2 0x604 PUSH2 0x93B JUMP JUMPDEST POP JUMP JUMPDEST PUSH0 PUSH2 0x611 DUP2 PUSH2 0x7CE JUMP JUMPDEST PUSH1 0x1 PUSH1 0x1 PUSH1 0xA0 SHL SUB DUP5 AND PUSH2 0x65F JUMPI PUSH1 0x40 MLOAD PUSH3 0x461BCD PUSH1 0xE5 SHL DUP2 MSTORE PUSH1 0x20 PUSH1 0x4 DUP3 ADD MSTORE PUSH1 0x15 PUSH1 0x24 DUP3 ADD MSTORE PUSH21 0x4645453A20696E76616C6964207472656173757279 PUSH1 0x58 SHL PUSH1 0x44 DUP3 ADD MSTORE PUSH1 0x64 ADD PUSH2 0x419 JUMP JUMPDEST PUSH2 0x2710 PUSH2 0x66C DUP4 DUP6 PUSH2 0xC57 JUMP JUMPDEST PUSH2 0xFFFF AND GT ISZERO PUSH2 0x6B1 JUMPI PUSH1 0x40 MLOAD PUSH3 0x461BCD PUSH1 0xE5 SHL DUP2 MSTORE PUSH1 0x20 PUSH1 0x4 DUP3 ADD MSTORE PUSH1 0x10 PUSH1 0x24 DUP3 ADD MSTORE PUSH16 0x4645453A20696E76616C696420627073 PUSH1 0x80 SHL PUSH1 0x44 DUP3 ADD MSTORE PUSH1 0x64 ADD PUSH2 0x419 JUMP JUMPDEST PUSH1 0x1 DUP1 SLOAD PUSH2 0x100 PUSH1 0x1 PUSH1 0xB8 SHL SUB NOT AND PUSH2 0x100 PUSH1 0x1 PUSH1 0x1 PUSH1 0xA0 SHL SUB DUP8 AND SWAP1 DUP2 MUL PUSH2 0xFFFF PUSH1 0xA8 SHL NOT AND SWAP2 SWAP1 SWAP2 OR PUSH1 0x1 PUSH1 0xA8 SHL PUSH2 0xFFFF DUP8 DUP2 AND SWAP2 DUP3 MUL SWAP3 SWAP1 SWAP3 OR PUSH2 0xFFFF PUSH1 0xB8 SHL NOT AND PUSH1 0x1 PUSH1 0xB8 SHL SWAP3 DUP8 AND SWAP3 DUP4 MUL OR SWAP1 SWAP4 SSTORE PUSH1 0x40 DUP1 MLOAD SWAP4 DUP5 MSTORE PUSH1 0x20 DUP5 ADD SWAP2 SWAP1 SWAP2 MSTORE DUP3 ADD MSTORE PUSH32 0x39496D5C6D0E7CC50E42AF40E13422682ADA6AEE092A8EEE36BB0FDD19096FD9 SWAP1 PUSH1 0x60 ADD PUSH1 0x40 MLOAD DUP1 SWAP2 SUB SWAP1 LOG1 POP POP POP POP JUMP JUMPDEST PUSH0 PUSH2 0x754 DUP2 PUSH2 0x7CE JUMP JUMPDEST PUSH2 0x604 PUSH2 0x98D JUMP JUMPDEST PUSH0 SWAP2 DUP3 MSTORE PUSH1 0x20 DUP3 DUP2 MSTORE PUSH1 0x40 DUP1 DUP5 KECCAK256 PUSH1 0x1 PUSH1 0x1 PUSH1 0xA0 SHL SUB SWAP4 SWAP1 SWAP4 AND DUP5 MSTORE SWAP2 SWAP1 MSTORE SWAP1 KECCAK256 SLOAD PUSH1 0xFF AND SWAP1 JUMP JUMPDEST PUSH0 DUP3 DUP2 MSTORE PUSH1 0x20 DUP2 SWAP1 MSTORE PUSH1 0x40 SWAP1 KECCAK256 PUSH1 0x1 ADD SLOAD PUSH2 0x79E DUP2 PUSH2 0x7CE JUMP JUMPDEST PUSH2 0x5B4 DUP4 DUP4 PUSH2 0x8D2 JUMP JUMPDEST PUSH1 0x1 SLOAD PUSH1 0xFF AND ISZERO PUSH2 0x7CC JUMPI PUSH1 0x40 MLOAD PUSH4 0xD93C0665 PUSH1 0xE0 SHL DUP2 MSTORE PUSH1 0x4 ADD PUSH1 0x40 MLOAD DUP1 SWAP2 SUB SWAP1 REVERT JUMPDEST JUMP JUMPDEST PUSH2 0x604 DUP2 CALLER PUSH2 0x9C8 JUMP JUMPDEST PUSH2 0x7E6 DUP5 DUP5 DUP5 DUP5 PUSH1 0x1 PUSH2 0xA05 JUMP JUMPDEST PUSH2 0x5B4 JUMPI PUSH1 0x40 MLOAD PUSH4 0x5274AFE7 PUSH1 0xE0 SHL DUP2 MSTORE PUSH1 0x1 PUSH1 0x1 PUSH1 0xA0 SHL SUB DUP6 AND PUSH1 0x4 DUP3 ADD MSTORE PUSH1 0x24 ADD PUSH2 0x419 JUMP JUMPDEST PUSH2 0x81B DUP4 DUP4 DUP4 PUSH1 0x1 PUSH2 0xA72 JUMP JUMPDEST PUSH2 0x5ED JUMPI PUSH1 0x40 MLOAD PUSH4 0x5274AFE7 PUSH1 0xE0 SHL DUP2 MSTORE PUSH1 0x1 PUSH1 0x1 PUSH1 0xA0 SHL SUB DUP5 AND PUSH1 0x4 DUP3 ADD MSTORE PUSH1 0x24 ADD PUSH2 0x419 JUMP JUMPDEST PUSH0 PUSH2 0x84E DUP4 DUP4 PUSH2 0x75C JUMP JUMPDEST PUSH2 0x8CB JUMPI PUSH0 DUP4 DUP2 MSTORE PUSH1 0x20 DUP2 DUP2 MSTORE PUSH1 0x40 DUP1 DUP4 KECCAK256 PUSH1 0x1 PUSH1 0x1 PUSH1 0xA0 SHL SUB DUP7 AND DUP5 MSTORE SWAP1 SWAP2 MSTORE SWAP1 KECCAK256 DUP1 SLOAD PUSH1 0xFF NOT AND PUSH1 0x1 OR SWAP1 SSTORE PUSH2 0x883 CALLER SWAP1 JUMP JUMPDEST PUSH1 0x1 PUSH1 0x1 PUSH1 0xA0 SHL SUB AND DUP3 PUSH1 0x1 PUSH1 0x1 PUSH1 0xA0 SHL SUB AND DUP5 PUSH32 0x2F8788117E7EFF1D82E926EC794901D17C78024A50270940304540A733656F0D PUSH1 0x40 MLOAD PUSH1 0x40 MLOAD DUP1 SWAP2 SUB SWAP1 LOG4 POP PUSH1 0x1 PUSH2 0x330 JUMP JUMPDEST POP PUSH0 PUSH2 0x330 JUMP JUMPDEST PUSH0 PUSH2 0x8DD DUP4 DUP4 PUSH2 0x75C JUMP JUMPDEST ISZERO PUSH2 0x8CB JUMPI PUSH0 DUP4 DUP2 MSTORE PUSH1 0x20 DUP2 DUP2 MSTORE PUSH1 0x40 DUP1 DUP4 KECCAK256 PUSH1 0x1 PUSH1 0x1 PUSH1 0xA0 SHL SUB DUP7 AND DUP1 DUP6 MSTORE SWAP3 MSTORE DUP1 DUP4 KECCAK256 DUP1 SLOAD PUSH1 0xFF NOT AND SWAP1 SSTORE MLOAD CALLER SWAP3 DUP7 SWAP2 PUSH32 0xF6391F5C32D9C69D2A47EA670B442974B53935D1EDC7FD64EB21E047A839171B SWAP2 SWAP1 LOG4 POP PUSH1 0x1 PUSH2 0x330 JUMP JUMPDEST PUSH2 0x943 PUSH2 0xAD4 JUMP JUMPDEST PUSH1 0x1 DUP1 SLOAD PUSH1 0xFF NOT AND SWAP1 SSTORE PUSH32 0x5DB9EE0A495BF2E6FF9C91A7834C1BA4FDD244A5E8AA4E537BD38AEAE4B073AA CALLER JUMPDEST PUSH1 0x40 MLOAD PUSH1 0x1 PUSH1 0x1 PUSH1 0xA0 SHL SUB SWAP1 SWAP2 AND DUP2 MSTORE PUSH1 0x20 ADD PUSH1 0x40 MLOAD DUP1 SWAP2 SUB SWAP1 LOG1 JUMP JUMPDEST PUSH2 0x995 PUSH2 0x7A8 JUMP JUMPDEST PUSH1 0x1 DUP1 SLOAD PUSH1 0xFF NOT AND DUP2 OR SWAP1 SSTORE PUSH32 0x62E78CEA01BEE320CD4E420270B5EA74000D11B0C9F74754EBDBFC544B05A258 CALLER PUSH2 0x970 JUMP JUMPDEST PUSH2 0x9D2 DUP3 DUP3 PUSH2 0x75C JUMP JUMPDEST PUSH2 0xA01 JUMPI PUSH1 0x40 MLOAD PUSH4 0xE2517D3F PUSH1 0xE0 SHL DUP2 MSTORE PUSH1 0x1 PUSH1 0x1 PUSH1 0xA0 SHL SUB DUP3 AND PUSH1 0x4 DUP3 ADD MSTORE PUSH1 0x24 DUP2 ADD DUP4 SWAP1 MSTORE PUSH1 0x44 ADD PUSH2 0x419 JUMP JUMPDEST POP POP JUMP JUMPDEST PUSH1 0x40 MLOAD PUSH4 0x23B872DD PUSH1 0xE0 SHL PUSH0 DUP2 DUP2 MSTORE PUSH1 0x1 PUSH1 0x1 PUSH1 0xA0 SHL SUB DUP8 DUP2 AND PUSH1 0x4 MSTORE DUP7 AND PUSH1 0x24 MSTORE PUSH1 0x44 DUP6 SWAP1 MSTORE SWAP2 PUSH1 0x20 DUP4 PUSH1 0x64 DUP2 DUP1 DUP13 GAS CALL SWAP3 POP PUSH1 0x1 PUSH0 MLOAD EQ DUP4 AND PUSH2 0xA61 JUMPI DUP4 DUP4 ISZERO AND ISZERO PUSH2 0xA55 JUMPI RETURNDATASIZE PUSH0 DUP3 RETURNDATACOPY RETURNDATASIZE DUP2 REVERT JUMPDEST PUSH0 DUP9 EXTCODESIZE GT RETURNDATASIZE ISZERO AND DUP4 AND SWAP3 POP JUMPDEST PUSH1 0x40 MSTORE POP PUSH0 PUSH1 0x60 MSTORE SWAP6 SWAP5 POP POP POP POP POP JUMP JUMPDEST PUSH1 0x40 MLOAD PUSH4 0xA9059CBB PUSH1 0xE0 SHL PUSH0 DUP2 DUP2 MSTORE PUSH1 0x1 PUSH1 0x1 PUSH1 0xA0 SHL SUB DUP7 AND PUSH1 0x4 MSTORE PUSH1 0x24 DUP6 SWAP1 MSTORE SWAP2 PUSH1 0x20 DUP4 PUSH1 0x44 DUP2 DUP1 DUP12 GAS CALL SWAP3 POP PUSH1 0x1 PUSH0 MLOAD EQ DUP4 AND PUSH2 0xAC8 JUMPI DUP4 DUP4 ISZERO AND ISZERO PUSH2 0xABC JUMPI RETURNDATASIZE PUSH0 DUP3 RETURNDATACOPY RETURNDATASIZE DUP2 REVERT JUMPDEST PUSH0 DUP8 EXTCODESIZE GT RETURNDATASIZE ISZERO AND DUP4 AND SWAP3 POP JUMPDEST PUSH1 0x40 MSTORE POP SWAP5 SWAP4 POP POP POP POP JUMP JUMPDEST PUSH1 0x1 SLOAD PUSH1 0xFF AND PUSH2 0x7CC JUMPI PUSH1 0x40 MLOAD PUSH4 0x8DFC202B PUSH1 0xE0 SHL DUP2 MSTORE PUSH1 0x4 ADD PUSH1 0x40 MLOAD DUP1 SWAP2 SUB SWAP1 REVERT JUMPDEST PUSH0 PUSH1 0x20 DUP3 DUP5 SUB SLT ISZERO PUSH2 0xB07 JUMPI PUSH0 DUP1 REVERT JUMPDEST DUP2 CALLDATALOAD PUSH1 0x1 PUSH1 0x1 PUSH1 0xE0 SHL SUB NOT DUP2 AND DUP2 EQ PUSH2 0xB1E JUMPI PUSH0 DUP1 REVERT JUMPDEST SWAP4 SWAP3 POP POP POP JUMP JUMPDEST PUSH0 PUSH1 0x20 DUP3 DUP5 SUB SLT ISZERO PUSH2 0xB35 JUMPI PUSH0 DUP1 REVERT JUMPDEST POP CALLDATALOAD SWAP2 SWAP1 POP JUMP JUMPDEST DUP1 CALLDATALOAD PUSH1 0x1 PUSH1 0x1 PUSH1 0xA0 SHL SUB DUP2 AND DUP2 EQ PUSH2 0xB52 JUMPI PUSH0 DUP1 REVERT JUMPDEST SWAP2 SWAP1 POP JUMP JUMPDEST PUSH0 DUP1 PUSH1 0x40 DUP4 DUP6 SUB SLT ISZERO PUSH2 0xB68 JUMPI PUSH0 DUP1 REVERT JUMPDEST PUSH2 0xB71 DUP4 PUSH2 0xB3C JUMP JUMPDEST SWAP5 PUSH1 0x20 SWAP4 SWAP1 SWAP4 ADD CALLDATALOAD SWAP4 POP POP POP JUMP JUMPDEST PUSH0 DUP1 PUSH1 0x40 DUP4 DUP6 SUB SLT ISZERO PUSH2 0xB90 JUMPI PUSH0 DUP1 REVERT JUMPDEST DUP3 CALLDATALOAD SWAP2 POP PUSH2 0xBA0 PUSH1 0x20 DUP5 ADD PUSH2 0xB3C JUMP JUMPDEST SWAP1 POP SWAP3 POP SWAP3 SWAP1 POP JUMP JUMPDEST DUP1 CALLDATALOAD PUSH2 0xFFFF DUP2 AND DUP2 EQ PUSH2 0xB52 JUMPI PUSH0 DUP1 REVERT JUMPDEST PUSH0 DUP1 PUSH0 PUSH1 0x60 DUP5 DUP7 SUB SLT ISZERO PUSH2 0xBCC JUMPI PUSH0 DUP1 REVERT JUMPDEST PUSH2 0xBD5 DUP5 PUSH2 0xB3C JUMP JUMPDEST SWAP3 POP PUSH2 0xBE3 PUSH1 0x20 DUP6 ADD PUSH2 0xBA9 JUMP JUMPDEST SWAP2 POP PUSH2 0xBF1 PUSH1 0x40 DUP6 ADD PUSH2 0xBA9 JUMP JUMPDEST SWAP1 POP SWAP3 POP SWAP3 POP SWAP3 JUMP JUMPDEST PUSH4 0x4E487B71 PUSH1 0xE0 SHL PUSH0 MSTORE PUSH1 0x11 PUSH1 0x4 MSTORE PUSH1 0x24 PUSH0 REVERT JUMPDEST DUP1 DUP3 MUL DUP2 ISZERO DUP3 DUP3 DIV DUP5 EQ OR PUSH2 0x330 JUMPI PUSH2 0x330 PUSH2 0xBFA JUMP JUMPDEST PUSH0 DUP3 PUSH2 0xC3F JUMPI PUSH4 0x4E487B71 PUSH1 0xE0 SHL PUSH0 MSTORE PUSH1 0x12 PUSH1 0x4 MSTORE PUSH1 0x24 PUSH0 REVERT JUMPDEST POP DIV SWAP1 JUMP JUMPDEST DUP1 DUP3 ADD DUP1 DUP3 GT ISZERO PUSH2 0x330 JUMPI PUSH2 0x330 PUSH2 0xBFA JUMP JUMPDEST PUSH2 0xFFFF DUP2 DUP2 AND DUP4 DUP3 AND ADD SWAP1 DUP1 DUP3 GT ISZERO PUSH2 0x589 JUMPI PUSH2 0x589 PUSH2 0xBFA JUMP INVALID LOG2 PUSH5 0x6970667358 0x22 SLT KECCAK256 SWAP14 PUSH4 0x8302A951 INVALID PUSH17 0x9F59ED2C2FD2D7B7D3F121178C46BE6282 SWAP12 CODECOPY AND BASEFEE 0xD0 COINBASE 0x2A PUSH5 0x736F6C6343 STOP ADDMOD XOR STOP CALLER "},"methodIdentifiers":{"DEFAULT_ADMIN_ROLE()":"a217fddf","MAX_BPS()":"fd967f47","TREASURER_ROLE()":"f0a3a97c","burnFeeBps()":"a5189810","collectFee(address,uint256)":"2ec0ff6c","getRoleAdmin(bytes32)":"248a9ca3","grantRole(bytes32,address)":"2f2ff15d","hasRole(bytes32,address)":"91d14854","pause()":"8456cb59","paused()":"5c975abb","platformFeeBps()":"22dcd13e","quoteFee(uint256)":"2205f568","renounceRole(bytes32,address)":"36568abe","revokeRole(bytes32,address)":"d547741f","setFeeConfig(address,uint16,uint16)":"445315eb","sglToken()":"62b24ea2","supportsInterface(bytes4)":"01ffc9a7","treasury()":"61d027b3","unpause()":"3f4ba83a"}}}}}