{"contracts/StakingPool.sol":{"StakingPool":{"abi":[{"inputs":[{"internalType":"address","name":"stakingTokenAddress","type":"address"},{"internalType":"address","name":"rewardTokenAddress","type":"address"},{"internalType":"address","name":"admin","type":"address"},{"internalType":"address","name":"rewardDistributor","type":"address"}],"stateMutability":"nonpayable","type":"constructor"},{"inputs":[],"name":"AccessControlBadConfirmation","type":"error"},{"inputs":[{"internalType":"address","name":"account","type":"address"},{"internalType":"bytes32","name":"neededRole","type":"bytes32"}],"name":"AccessControlUnauthorizedAccount","type":"error"},{"inputs":[],"name":"EnforcedPause","type":"error"},{"inputs":[],"name":"ExpectedPause","type":"error"},{"inputs":[],"name":"ReentrancyGuardReentrantCall","type":"error"},{"inputs":[{"internalType":"address","name":"token","type":"address"}],"name":"SafeERC20FailedOperation","type":"error"},{"anonymous":false,"inputs":[{"indexed":false,"internalType":"address","name":"account","type":"address"}],"name":"Paused","type":"event"},{"anonymous":false,"inputs":[{"indexed":false,"internalType":"uint256","name":"reward","type":"uint256"},{"indexed":false,"internalType":"uint256","name":"duration","type":"uint256"}],"name":"RewardAdded","type":"event"},{"anonymous":false,"inputs":[{"indexed":true,"internalType":"address","name":"user","type":"address"},{"indexed":false,"internalType":"uint256","name":"reward","type":"uint256"}],"name":"RewardPaid","type":"event"},{"anonymous":false,"inputs":[{"indexed":true,"internalType":"bytes32","name":"role","type":"bytes32"},{"indexed":true,"internalType":"bytes32","name":"previousAdminRole","type":"bytes32"},{"indexed":true,"internalType":"bytes32","name":"newAdminRole","type":"bytes32"}],"name":"RoleAdminChanged","type":"event"},{"anonymous":false,"inputs":[{"indexed":true,"internalType":"bytes32","name":"role","type":"bytes32"},{"indexed":true,"internalType":"address","name":"account","type":"address"},{"indexed":true,"internalType":"address","name":"sender","type":"address"}],"name":"RoleGranted","type":"event"},{"anonymous":false,"inputs":[{"indexed":true,"internalType":"bytes32","name":"role","type":"bytes32"},{"indexed":true,"internalType":"address","name":"account","type":"address"},{"indexed":true,"internalType":"address","name":"sender","type":"address"}],"name":"RoleRevoked","type":"event"},{"anonymous":false,"inputs":[{"indexed":true,"internalType":"address","name":"user","type":"address"},{"indexed":false,"internalType":"uint256","name":"amount","type":"uint256"}],"name":"Staked","type":"event"},{"anonymous":false,"inputs":[{"indexed":false,"internalType":"address","name":"account","type":"address"}],"name":"Unpaused","type":"event"},{"anonymous":false,"inputs":[{"indexed":true,"internalType":"address","name":"user","type":"address"},{"indexed":false,"internalType":"uint256","name":"amount","type":"uint256"}],"name":"Withdrawn","type":"event"},{"inputs":[],"name":"DEFAULT_ADMIN_ROLE","outputs":[{"internalType":"bytes32","name":"","type":"bytes32"}],"stateMutability":"view","type":"function"},{"inputs":[],"name":"REWARD_DISTRIBUTOR_ROLE","outputs":[{"internalType":"bytes32","name":"","type":"bytes32"}],"stateMutability":"view","type":"function"},{"inputs":[{"internalType":"address","name":"","type":"address"}],"name":"balances","outputs":[{"internalType":"uint256","name":"","type":"uint256"}],"stateMutability":"view","type":"function"},{"inputs":[],"name":"claimReward","outputs":[],"stateMutability":"nonpayable","type":"function"},{"inputs":[{"internalType":"address","name":"account","type":"address"}],"name":"earned","outputs":[{"internalType":"uint256","name":"","type":"uint256"}],"stateMutability":"view","type":"function"},{"inputs":[],"name":"exit","outputs":[],"stateMutability":"nonpayable","type":"function"},{"inputs":[{"internalType":"bytes32","name":"role","type":"bytes32"}],"name":"getRoleAdmin","outputs":[{"internalType":"bytes32","name":"","type":"bytes32"}],"stateMutability":"view","type":"function"},{"inputs":[{"internalType":"bytes32","name":"role","type":"bytes32"},{"internalType":"address","name":"account","type":"address"}],"name":"grantRole","outputs":[],"stateMutability":"nonpayable","type":"function"},{"inputs":[{"internalType":"bytes32","name":"role","type":"bytes32"},{"internalType":"address","name":"account","type":"address"}],"name":"hasRole","outputs":[{"internalType":"bool","name":"","type":"bool"}],"stateMutability":"view","type":"function"},{"inputs":[],"name":"lastTimeRewardApplicable","outputs":[{"internalType":"uint256","name":"","type":"uint256"}],"stateMutability":"view","type":"function"},{"inputs":[],"name":"lastUpdateTime","outputs":[{"internalType":"uint256","name":"","type":"uint256"}],"stateMutability":"view","type":"function"},{"inputs":[{"internalType":"uint256","name":"reward","type":"uint256"},{"internalType":"uint256","name":"duration","type":"uint256"}],"name":"notifyRewardAmount","outputs":[],"stateMutability":"nonpayable","type":"function"},{"inputs":[],"name":"pause","outputs":[],"stateMutability":"nonpayable","type":"function"},{"inputs":[],"name":"paused","outputs":[{"internalType":"bool","name":"","type":"bool"}],"stateMutability":"view","type":"function"},{"inputs":[],"name":"periodFinish","outputs":[{"internalType":"uint256","name":"","type":"uint256"}],"stateMutability":"view","type":"function"},{"inputs":[{"internalType":"bytes32","name":"role","type":"bytes32"},{"internalType":"address","name":"callerConfirmation","type":"address"}],"name":"renounceRole","outputs":[],"stateMutability":"nonpayable","type":"function"},{"inputs":[{"internalType":"bytes32","name":"role","type":"bytes32"},{"internalType":"address","name":"account","type":"address"}],"name":"revokeRole","outputs":[],"stateMutability":"nonpayable","type":"function"},{"inputs":[],"name":"rewardPerToken","outputs":[{"internalType":"uint256","name":"","type":"uint256"}],"stateMutability":"view","type":"function"},{"inputs":[],"name":"rewardPerTokenStored","outputs":[{"internalType":"uint256","name":"","type":"uint256"}],"stateMutability":"view","type":"function"},{"inputs":[],"name":"rewardRate","outputs":[{"internalType":"uint256","name":"","type":"uint256"}],"stateMutability":"view","type":"function"},{"inputs":[],"name":"rewardToken","outputs":[{"internalType":"contract IERC20","name":"","type":"address"}],"stateMutability":"view","type":"function"},{"inputs":[{"internalType":"address","name":"","type":"address"}],"name":"rewards","outputs":[{"internalType":"uint256","name":"","type":"uint256"}],"stateMutability":"view","type":"function"},{"inputs":[{"internalType":"uint256","name":"amount","type":"uint256"}],"name":"stake","outputs":[],"stateMutability":"nonpayable","type":"function"},{"inputs":[],"name":"stakingToken","outputs":[{"internalType":"contract IERC20","name":"","type":"address"}],"stateMutability":"view","type":"function"},{"inputs":[{"internalType":"bytes4","name":"interfaceId","type":"bytes4"}],"name":"supportsInterface","outputs":[{"internalType":"bool","name":"","type":"bool"}],"stateMutability":"view","type":"function"},{"inputs":[],"name":"totalStaked","outputs":[{"internalType":"uint256","name":"","type":"uint256"}],"stateMutability":"view","type":"function"},{"inputs":[],"name":"unpause","outputs":[],"stateMutability":"nonpayable","type":"function"},{"inputs":[{"internalType":"address","name":"","type":"address"}],"name":"userRewardPerTokenPaid","outputs":[{"internalType":"uint256","name":"","type":"uint256"}],"stateMutability":"view","type":"function"},{"inputs":[{"internalType":"uint256","name":"amount","type":"uint256"}],"name":"withdraw","outputs":[],"stateMutability":"nonpayable","type":"function"}],"evm":{"bytecode":{"linkReferences":{},"object":"60c060405234801562000010575f80fd5b50604051620014e1380380620014e18339810160408190526200003391620002da565b60017f9b779b17422d0df92223018b32b4d1fa46e071723d6817e2486d003becc55f00556001600160a01b038416620000b35760405162461bcd60e51b815260206004820152601e60248201527f5354414b494e473a20696e76616c6964207374616b696e6720746f6b656e000060448201526064015b60405180910390fd5b6001600160a01b0383166200010b5760405162461bcd60e51b815260206004820152601d60248201527f5354414b494e473a20696e76616c69642072657761726420746f6b656e0000006044820152606401620000aa565b6001600160a01b038216620001635760405162461bcd60e51b815260206004820152601660248201527f5354414b494e473a20696e76616c69642061646d696e000000000000000000006044820152606401620000aa565b6001600160a01b038116620001bb5760405162461bcd60e51b815260206004820152601c60248201527f5354414b494e473a20696e76616c6964206469737472696275746f72000000006044820152606401620000aa565b6001600160a01b03808516608052831660a052620001da5f8362000212565b50620002077fb814ff4a26ea3ec5cd1fa579daad86324826254265f3acfec78303a19845b4498262000212565b505050505062000334565b5f828152602081815260408083206001600160a01b038516845290915281205460ff16620002b5575f838152602081815260408083206001600160a01b03861684529091529020805460ff191660011790556200026c3390565b6001600160a01b0316826001600160a01b0316847f2f8788117e7eff1d82e926ec794901d17c78024a50270940304540a733656f0d60405160405180910390a4506001620002b8565b505f5b92915050565b80516001600160a01b0381168114620002d5575f80fd5b919050565b5f805f8060808587031215620002ee575f80fd5b620002f985620002be565b93506200030960208601620002be565b92506200031960408601620002be565b91506200032960608601620002be565b905092959194509250565b60805160a05161116f620003725f395f81816103f2015281816105a80152610b2e01525f81816102ff015281816107d00152610a04015261116f5ff3fe608060405234801561000f575f80fd5b50600436106101c5575f3560e01c806380faa57d116100fe578063b88a802f1161009e578063df136d651161006e578063df136d65146103d3578063e9fad8ee146103dc578063ebe2b12b146103e4578063f7c618c1146103ed575f80fd5b8063b88a802f146103a7578063c8f33c91146103af578063cd3daf9d146103b8578063d547741f146103c0575f80fd5b80638b876347116100d95780638b8763471461035b57806391d148541461037a578063a217fddf1461038d578063a694fc3a14610394575f80fd5b806380faa57d14610342578063817b1cd21461034a5780638456cb5914610353575f80fd5b80632f2ff15d116101695780633f4ba83a116101445780633f4ba83a146102e75780635c975abb146102ef57806372f702f3146102fa5780637b0a47ee14610339575f80fd5b80632f2ff15d1461029a57806332e4bb0a146102ad57806336568abe146102d4575f80fd5b8063246132f9116101a4578063246132f914610231578063248a9ca31461024657806327e235e3146102685780632e1a7d4d14610287575f80fd5b80628cc262146101c957806301ffc9a7146101ef5780630700037d14610212575b5f80fd5b6101dc6101d7366004611001565b610414565b6040519081526020015b60405180910390f35b6102026101fd366004611021565b61048f565b60405190151581526020016101e6565b6101dc610220366004611001565b60096020525f908152604090205481565b61024461023f366004611048565b6104c3565b005b6101dc610254366004611068565b5f9081526020819052604090206001015490565b6101dc610276366004611001565b60076020525f908152604090205481565b610244610295366004611068565b61067b565b6102446102a836600461107f565b610847565b6101dc7fb814ff4a26ea3ec5cd1fa579daad86324826254265f3acfec78303a19845b44981565b6102446102e236600461107f565b610871565b6102446108a9565b60015460ff16610202565b6103217f000000000000000000000000000000000000000000000000000000000000000081565b6040516001600160a01b0390911681526020016101e6565b6101dc60025481565b6101dc6108bb565b6101dc60065481565b6102446108d3565b6101dc610369366004611001565b60086020525f908152604090205481565b61020261038836600461107f565b6108e5565b6101dc5f81565b6102446103a2366004611068565b61090d565b610244610a5e565b6101dc60035481565b6101dc610bac565b6102446103ce36600461107f565b610c0b565b6101dc60045481565b610244610c2f565b6101dc60055481565b6103217f000000000000000000000000000000000000000000000000000000000000000081565b6001600160a01b0381165f908152600960209081526040808320546008909252822054670de0b6b3a764000090610449610bac565b61045391906110bd565b6001600160a01b0385165f9081526007602052604090205461047591906110d0565b61047f91906110e7565b6104899190611106565b92915050565b5f6001600160e01b03198216637965db0b60e01b148061048957506301ffc9a760e01b6001600160e01b0319831614610489565b7fb814ff4a26ea3ec5cd1fa579daad86324826254265f3acfec78303a19845b4496104ed81610c4f565b5f6104f6610bac565b6004556105016108bb565b6003556001600160a01b038116156105475761051c81610414565b6001600160a01b0382165f908152600960209081526040808320939093556004546008909152919020555b5f831161059b5760405162461bcd60e51b815260206004820152601960248201527f5354414b494e473a20696e76616c6964206475726174696f6e0000000000000060448201526064015b60405180910390fd5b6105d06001600160a01b037f000000000000000000000000000000000000000000000000000000000000000016333087610c59565b60055442106105eb576105e383856110e7565b600255610628565b5f426005546105fa91906110bd565b90505f6002548261060b91906110d0565b9050846106188288611106565b61062291906110e7565b60025550505b426003819055610639908490611106565b60055560408051858152602081018590527f6c07ee05dcf262f13abf9d87b846ee789d2f90fe991d495acd7d7fc109ee1f55910160405180910390a150505050565b610683610c8f565b61068b610caa565b33610694610bac565b60045561069f6108bb565b6003556001600160a01b038116156106e5576106ba81610414565b6001600160a01b0382165f908152600960209081526040808320939093556004546008909152919020555b5f821161072b5760405162461bcd60e51b815260206004820152601460248201527314d51052d25391ce881e995c9bc8185b5bdd5b9d60621b6044820152606401610592565b335f908152600760205260409020548211156107895760405162461bcd60e51b815260206004820152601d60248201527f5354414b494e473a20696e73756666696369656e742062616c616e63650000006044820152606401610592565b8160065f82825461079a91906110bd565b9091555050335f90815260076020526040812080548492906107bd9084906110bd565b909155506107f790506001600160a01b037f0000000000000000000000000000000000000000000000000000000000000000163384610cce565b60405182815233907f7084f5476618d8e60b11ef0d7d3f06914655adb8793e28ff7f018d4c76d505d5906020015b60405180910390a25061084460015f8051602061111a83398151915255565b50565b5f8281526020819052604090206001015461086181610c4f565b61086b8383610d03565b50505050565b6001600160a01b038116331461089a5760405163334bd91960e11b815260040160405180910390fd5b6108a48282610d92565b505050565b5f6108b381610c4f565b610844610dfb565b5f60055442106108cc575060055490565b425b905090565b5f6108dd81610c4f565b610844610e4d565b5f918252602082815260408084206001600160a01b0393909316845291905290205460ff1690565b610915610c8f565b61091d610caa565b33610926610bac565b6004556109316108bb565b6003556001600160a01b038116156109775761094c81610414565b6001600160a01b0382165f908152600960209081526040808320939093556004546008909152919020555b5f82116109bd5760405162461bcd60e51b815260206004820152601460248201527314d51052d25391ce881e995c9bc8185b5bdd5b9d60621b6044820152606401610592565b8160065f8282546109ce9190611106565b9091555050335f90815260076020526040812080548492906109f1908490611106565b90915550610a2c90506001600160a01b037f000000000000000000000000000000000000000000000000000000000000000016333085610c59565b60405182815233907f9e71bc8eea02a63969f509818f2dafb9254532904319f9dbda79b67bd34a5f3d90602001610825565b610a66610c8f565b610a6e610caa565b33610a77610bac565b600455610a826108bb565b6003556001600160a01b03811615610ac857610a9d81610414565b6001600160a01b0382165f908152600960209081526040808320939093556004546008909152919020555b335f9081526009602052604090205480610b195760405162461bcd60e51b815260206004820152601260248201527114d51052d25391ce881b9bc81c995dd85c9960721b6044820152606401610592565b335f81815260096020526040812055610b5d907f00000000000000000000000000000000000000000000000000000000000000006001600160a01b03169083610cce565b60405181815233907fe2403640ba68fed3a2f88b7557551d1993f84b99bb10ff833f0cf8db0c5e04869060200160405180910390a25050610baa60015f8051602061111a83398151915255565b565b5f6006545f03610bbd575060045490565b600654600254600354610bce6108bb565b610bd891906110bd565b610be291906110d0565b610bf490670de0b6b3a76400006110d0565b610bfe91906110e7565b6004546108ce9190611106565b5f82815260208190526040902060010154610c2581610c4f565b61086b8383610d92565b335f90815260076020526040902054610c479061067b565b610baa610a5e565b6108448133610e88565b610c67848484846001610ec5565b61086b57604051635274afe760e01b81526001600160a01b0385166004820152602401610592565b610c97610f32565b60025f8051602061111a83398151915255565b60015460ff1615610baa5760405163d93c066560e01b815260040160405180910390fd5b610cdb8383836001610f61565b6108a457604051635274afe760e01b81526001600160a01b0384166004820152602401610592565b5f610d0e83836108e5565b610d8b575f838152602081815260408083206001600160a01b03861684529091529020805460ff19166001179055610d433390565b6001600160a01b0316826001600160a01b0316847f2f8788117e7eff1d82e926ec794901d17c78024a50270940304540a733656f0d60405160405180910390a4506001610489565b505f610489565b5f610d9d83836108e5565b15610d8b575f838152602081815260408083206001600160a01b0386168085529252808320805460ff1916905551339286917ff6391f5c32d9c69d2a47ea670b442974b53935d1edc7fd64eb21e047a839171b9190a4506001610489565b610e03610fc3565b6001805460ff191690557f5db9ee0a495bf2e6ff9c91a7834c1ba4fdd244a5e8aa4e537bd38aeae4b073aa335b6040516001600160a01b03909116815260200160405180910390a1565b610e55610caa565b6001805460ff1916811790557f62e78cea01bee320cd4e420270b5ea74000d11b0c9f74754ebdbfc544b05a25833610e30565b610e9282826108e5565b610ec15760405163e2517d3f60e01b81526001600160a01b038216600482015260248101839052604401610592565b5050565b6040516323b872dd60e01b5f8181526001600160a01b038781166004528616602452604485905291602083606481808c5af1925060015f51148316610f21578383151615610f15573d5f823e3d81fd5b5f883b113d1516831692505b604052505f60605295945050505050565b5f8051602061111a83398151915254600203610baa57604051633ee5aeb560e01b815260040160405180910390fd5b60405163a9059cbb60e01b5f8181526001600160a01b038616600452602485905291602083604481808b5af1925060015f51148316610fb7578383151615610fab573d5f823e3d81fd5b5f873b113d1516831692505b60405250949350505050565b60015460ff16610baa57604051638dfc202b60e01b815260040160405180910390fd5b80356001600160a01b0381168114610ffc575f80fd5b919050565b5f60208284031215611011575f80fd5b61101a82610fe6565b9392505050565b5f60208284031215611031575f80fd5b81356001600160e01b03198116811461101a575f80fd5b5f8060408385031215611059575f80fd5b50508035926020909101359150565b5f60208284031215611078575f80fd5b5035919050565b5f8060408385031215611090575f80fd5b823591506110a060208401610fe6565b90509250929050565b634e487b7160e01b5f52601160045260245ffd5b81810381811115610489576104896110a9565b8082028115828204841417610489576104896110a9565b5f8261110157634e487b7160e01b5f52601260045260245ffd5b500490565b80820180821115610489576104896110a956fe9b779b17422d0df92223018b32b4d1fa46e071723d6817e2486d003becc55f00a264697066735822122076ef69a3e935004d81ecce2e8b77576883466b7bf8ea6635fd8598e77b04227964736f6c63430008180033","opcodes":"PUSH1 0xC0 PUSH1 0x40 MSTORE CALLVALUE DUP1 ISZERO PUSH3 0x10 JUMPI PUSH0 DUP1 REVERT JUMPDEST POP PUSH1 0x40 MLOAD PUSH3 0x14E1 CODESIZE SUB DUP1 PUSH3 0x14E1 DUP4 CODECOPY DUP2 ADD PUSH1 0x40 DUP2 SWAP1 MSTORE PUSH3 0x33 SWAP2 PUSH3 0x2DA JUMP JUMPDEST PUSH1 0x1 PUSH32 0x9B779B17422D0DF92223018B32B4D1FA46E071723D6817E2486D003BECC55F00 SSTORE PUSH1 0x1 PUSH1 0x1 PUSH1 0xA0 SHL SUB DUP5 AND PUSH3 0xB3 JUMPI PUSH1 0x40 MLOAD PUSH3 0x461BCD PUSH1 0xE5 SHL DUP2 MSTORE PUSH1 0x20 PUSH1 0x4 DUP3 ADD MSTORE PUSH1 0x1E PUSH1 0x24 DUP3 ADD MSTORE PUSH32 0x5354414B494E473A20696E76616C6964207374616B696E6720746F6B656E0000 PUSH1 0x44 DUP3 ADD MSTORE PUSH1 0x64 ADD JUMPDEST PUSH1 0x40 MLOAD DUP1 SWAP2 SUB SWAP1 REVERT JUMPDEST PUSH1 0x1 PUSH1 0x1 PUSH1 0xA0 SHL SUB DUP4 AND PUSH3 0x10B JUMPI PUSH1 0x40 MLOAD PUSH3 0x461BCD PUSH1 0xE5 SHL DUP2 MSTORE PUSH1 0x20 PUSH1 0x4 DUP3 ADD MSTORE PUSH1 0x1D PUSH1 0x24 DUP3 ADD MSTORE PUSH32 0x5354414B494E473A20696E76616C69642072657761726420746F6B656E000000 PUSH1 0x44 DUP3 ADD MSTORE PUSH1 0x64 ADD PUSH3 0xAA JUMP JUMPDEST PUSH1 0x1 PUSH1 0x1 PUSH1 0xA0 SHL SUB DUP3 AND PUSH3 0x163 JUMPI PUSH1 0x40 MLOAD PUSH3 0x461BCD PUSH1 0xE5 SHL DUP2 MSTORE PUSH1 0x20 PUSH1 0x4 DUP3 ADD MSTORE PUSH1 0x16 PUSH1 0x24 DUP3 ADD MSTORE PUSH32 0x5354414B494E473A20696E76616C69642061646D696E00000000000000000000 PUSH1 0x44 DUP3 ADD MSTORE PUSH1 0x64 ADD PUSH3 0xAA JUMP JUMPDEST PUSH1 0x1 PUSH1 0x1 PUSH1 0xA0 SHL SUB DUP2 AND PUSH3 0x1BB JUMPI PUSH1 0x40 MLOAD PUSH3 0x461BCD PUSH1 0xE5 SHL DUP2 MSTORE PUSH1 0x20 PUSH1 0x4 DUP3 ADD MSTORE PUSH1 0x1C PUSH1 0x24 DUP3 ADD MSTORE PUSH32 0x5354414B494E473A20696E76616C6964206469737472696275746F7200000000 PUSH1 0x44 DUP3 ADD MSTORE PUSH1 0x64 ADD PUSH3 0xAA JUMP JUMPDEST PUSH1 0x1 PUSH1 0x1 PUSH1 0xA0 SHL SUB DUP1 DUP6 AND PUSH1 0x80 MSTORE DUP4 AND PUSH1 0xA0 MSTORE PUSH3 0x1DA PUSH0 DUP4 PUSH3 0x212 JUMP JUMPDEST POP PUSH3 0x207 PUSH32 0xB814FF4A26EA3EC5CD1FA579DAAD86324826254265F3ACFEC78303A19845B449 DUP3 PUSH3 0x212 JUMP JUMPDEST POP POP POP POP POP PUSH3 0x334 JUMP JUMPDEST PUSH0 DUP3 DUP2 MSTORE PUSH1 0x20 DUP2 DUP2 MSTORE PUSH1 0x40 DUP1 DUP4 KECCAK256 PUSH1 0x1 PUSH1 0x1 PUSH1 0xA0 SHL SUB DUP6 AND DUP5 MSTORE SWAP1 SWAP2 MSTORE DUP2 KECCAK256 SLOAD PUSH1 0xFF AND PUSH3 0x2B5 JUMPI PUSH0 DUP4 DUP2 MSTORE PUSH1 0x20 DUP2 DUP2 MSTORE PUSH1 0x40 DUP1 DUP4 KECCAK256 PUSH1 0x1 PUSH1 0x1 PUSH1 0xA0 SHL SUB DUP7 AND DUP5 MSTORE SWAP1 SWAP2 MSTORE SWAP1 KECCAK256 DUP1 SLOAD PUSH1 0xFF NOT AND PUSH1 0x1 OR SWAP1 SSTORE PUSH3 0x26C CALLER SWAP1 JUMP JUMPDEST PUSH1 0x1 PUSH1 0x1 PUSH1 0xA0 SHL SUB AND DUP3 PUSH1 0x1 PUSH1 0x1 PUSH1 0xA0 SHL SUB AND DUP5 PUSH32 0x2F8788117E7EFF1D82E926EC794901D17C78024A50270940304540A733656F0D PUSH1 0x40 MLOAD PUSH1 0x40 MLOAD DUP1 SWAP2 SUB SWAP1 LOG4 POP PUSH1 0x1 PUSH3 0x2B8 JUMP JUMPDEST POP PUSH0 JUMPDEST SWAP3 SWAP2 POP POP JUMP JUMPDEST DUP1 MLOAD PUSH1 0x1 PUSH1 0x1 PUSH1 0xA0 SHL SUB DUP2 AND DUP2 EQ PUSH3 0x2D5 JUMPI PUSH0 DUP1 REVERT JUMPDEST SWAP2 SWAP1 POP JUMP JUMPDEST PUSH0 DUP1 PUSH0 DUP1 PUSH1 0x80 DUP6 DUP8 SUB SLT ISZERO PUSH3 0x2EE JUMPI PUSH0 DUP1 REVERT JUMPDEST PUSH3 0x2F9 DUP6 PUSH3 0x2BE JUMP JUMPDEST SWAP4 POP PUSH3 0x309 PUSH1 0x20 DUP7 ADD PUSH3 0x2BE JUMP JUMPDEST SWAP3 POP PUSH3 0x319 PUSH1 0x40 DUP7 ADD PUSH3 0x2BE JUMP JUMPDEST SWAP2 POP PUSH3 0x329 PUSH1 0x60 DUP7 ADD PUSH3 0x2BE JUMP JUMPDEST SWAP1 POP SWAP3 SWAP6 SWAP2 SWAP5 POP SWAP3 POP JUMP JUMPDEST PUSH1 0x80 MLOAD PUSH1 0xA0 MLOAD PUSH2 0x116F PUSH3 0x372 PUSH0 CODECOPY PUSH0 DUP2 DUP2 PUSH2 0x3F2 ADD MSTORE DUP2 DUP2 PUSH2 0x5A8 ADD MSTORE PUSH2 0xB2E ADD MSTORE PUSH0 DUP2 DUP2 PUSH2 0x2FF ADD MSTORE DUP2 DUP2 PUSH2 0x7D0 ADD MSTORE PUSH2 0xA04 ADD MSTORE PUSH2 0x116F PUSH0 RETURN INVALID PUSH1 0x80 PUSH1 0x40 MSTORE CALLVALUE DUP1 ISZERO PUSH2 0xF JUMPI PUSH0 DUP1 REVERT JUMPDEST POP PUSH1 0x4 CALLDATASIZE LT PUSH2 0x1C5 JUMPI PUSH0 CALLDATALOAD PUSH1 0xE0 SHR DUP1 PUSH4 0x80FAA57D GT PUSH2 0xFE JUMPI DUP1 PUSH4 0xB88A802F GT PUSH2 0x9E JUMPI DUP1 PUSH4 0xDF136D65 GT PUSH2 0x6E JUMPI DUP1 PUSH4 0xDF136D65 EQ PUSH2 0x3D3 JUMPI DUP1 PUSH4 0xE9FAD8EE EQ PUSH2 0x3DC JUMPI DUP1 PUSH4 0xEBE2B12B EQ PUSH2 0x3E4 JUMPI DUP1 PUSH4 0xF7C618C1 EQ PUSH2 0x3ED JUMPI PUSH0 DUP1 REVERT JUMPDEST DUP1 PUSH4 0xB88A802F EQ PUSH2 0x3A7 JUMPI DUP1 PUSH4 0xC8F33C91 EQ PUSH2 0x3AF JUMPI DUP1 PUSH4 0xCD3DAF9D EQ PUSH2 0x3B8 JUMPI DUP1 PUSH4 0xD547741F EQ PUSH2 0x3C0 JUMPI PUSH0 DUP1 REVERT JUMPDEST DUP1 PUSH4 0x8B876347 GT PUSH2 0xD9 JUMPI DUP1 PUSH4 0x8B876347 EQ PUSH2 0x35B JUMPI DUP1 PUSH4 0x91D14854 EQ PUSH2 0x37A JUMPI DUP1 PUSH4 0xA217FDDF EQ PUSH2 0x38D JUMPI DUP1 PUSH4 0xA694FC3A EQ PUSH2 0x394 JUMPI PUSH0 DUP1 REVERT JUMPDEST DUP1 PUSH4 0x80FAA57D EQ PUSH2 0x342 JUMPI DUP1 PUSH4 0x817B1CD2 EQ PUSH2 0x34A JUMPI DUP1 PUSH4 0x8456CB59 EQ PUSH2 0x353 JUMPI PUSH0 DUP1 REVERT JUMPDEST DUP1 PUSH4 0x2F2FF15D GT PUSH2 0x169 JUMPI DUP1 PUSH4 0x3F4BA83A GT PUSH2 0x144 JUMPI DUP1 PUSH4 0x3F4BA83A EQ PUSH2 0x2E7 JUMPI DUP1 PUSH4 0x5C975ABB EQ PUSH2 0x2EF JUMPI DUP1 PUSH4 0x72F702F3 EQ PUSH2 0x2FA JUMPI DUP1 PUSH4 0x7B0A47EE EQ PUSH2 0x339 JUMPI PUSH0 DUP1 REVERT JUMPDEST DUP1 PUSH4 0x2F2FF15D EQ PUSH2 0x29A JUMPI DUP1 PUSH4 0x32E4BB0A EQ PUSH2 0x2AD JUMPI DUP1 PUSH4 0x36568ABE EQ PUSH2 0x2D4 JUMPI PUSH0 DUP1 REVERT JUMPDEST DUP1 PUSH4 0x246132F9 GT PUSH2 0x1A4 JUMPI DUP1 PUSH4 0x246132F9 EQ PUSH2 0x231 JUMPI DUP1 PUSH4 0x248A9CA3 EQ PUSH2 0x246 JUMPI DUP1 PUSH4 0x27E235E3 EQ PUSH2 0x268 JUMPI DUP1 PUSH4 0x2E1A7D4D EQ PUSH2 0x287 JUMPI PUSH0 DUP1 REVERT JUMPDEST DUP1 PUSH3 0x8CC262 EQ PUSH2 0x1C9 JUMPI DUP1 PUSH4 0x1FFC9A7 EQ PUSH2 0x1EF JUMPI DUP1 PUSH4 0x700037D EQ PUSH2 0x212 JUMPI JUMPDEST PUSH0 DUP1 REVERT JUMPDEST PUSH2 0x1DC PUSH2 0x1D7 CALLDATASIZE PUSH1 0x4 PUSH2 0x1001 JUMP JUMPDEST PUSH2 0x414 JUMP JUMPDEST PUSH1 0x40 MLOAD SWAP1 DUP2 MSTORE PUSH1 0x20 ADD JUMPDEST PUSH1 0x40 MLOAD DUP1 SWAP2 SUB SWAP1 RETURN JUMPDEST PUSH2 0x202 PUSH2 0x1FD CALLDATASIZE PUSH1 0x4 PUSH2 0x1021 JUMP JUMPDEST PUSH2 0x48F JUMP JUMPDEST PUSH1 0x40 MLOAD SWAP1 ISZERO ISZERO DUP2 MSTORE PUSH1 0x20 ADD PUSH2 0x1E6 JUMP JUMPDEST PUSH2 0x1DC PUSH2 0x220 CALLDATASIZE PUSH1 0x4 PUSH2 0x1001 JUMP JUMPDEST PUSH1 0x9 PUSH1 0x20 MSTORE PUSH0 SWAP1 DUP2 MSTORE PUSH1 0x40 SWAP1 KECCAK256 SLOAD DUP2 JUMP JUMPDEST PUSH2 0x244 PUSH2 0x23F CALLDATASIZE PUSH1 0x4 PUSH2 0x1048 JUMP JUMPDEST PUSH2 0x4C3 JUMP JUMPDEST STOP JUMPDEST PUSH2 0x1DC PUSH2 0x254 CALLDATASIZE PUSH1 0x4 PUSH2 0x1068 JUMP JUMPDEST PUSH0 SWAP1 DUP2 MSTORE PUSH1 0x20 DUP2 SWAP1 MSTORE PUSH1 0x40 SWAP1 KECCAK256 PUSH1 0x1 ADD SLOAD SWAP1 JUMP JUMPDEST PUSH2 0x1DC PUSH2 0x276 CALLDATASIZE PUSH1 0x4 PUSH2 0x1001 JUMP JUMPDEST PUSH1 0x7 PUSH1 0x20 MSTORE PUSH0 SWAP1 DUP2 MSTORE PUSH1 0x40 SWAP1 KECCAK256 SLOAD DUP2 JUMP JUMPDEST PUSH2 0x244 PUSH2 0x295 CALLDATASIZE PUSH1 0x4 PUSH2 0x1068 JUMP JUMPDEST PUSH2 0x67B JUMP JUMPDEST PUSH2 0x244 PUSH2 0x2A8 CALLDATASIZE PUSH1 0x4 PUSH2 0x107F JUMP JUMPDEST PUSH2 0x847 JUMP JUMPDEST PUSH2 0x1DC PUSH32 0xB814FF4A26EA3EC5CD1FA579DAAD86324826254265F3ACFEC78303A19845B449 DUP2 JUMP JUMPDEST PUSH2 0x244 PUSH2 0x2E2 CALLDATASIZE PUSH1 0x4 PUSH2 0x107F JUMP JUMPDEST PUSH2 0x871 JUMP JUMPDEST PUSH2 0x244 PUSH2 0x8A9 JUMP JUMPDEST PUSH1 0x1 SLOAD PUSH1 0xFF AND PUSH2 0x202 JUMP JUMPDEST PUSH2 0x321 PUSH32 0x0 DUP2 JUMP JUMPDEST PUSH1 0x40 MLOAD PUSH1 0x1 PUSH1 0x1 PUSH1 0xA0 SHL SUB SWAP1 SWAP2 AND DUP2 MSTORE PUSH1 0x20 ADD PUSH2 0x1E6 JUMP JUMPDEST PUSH2 0x1DC PUSH1 0x2 SLOAD DUP2 JUMP JUMPDEST PUSH2 0x1DC PUSH2 0x8BB JUMP JUMPDEST PUSH2 0x1DC PUSH1 0x6 SLOAD DUP2 JUMP JUMPDEST PUSH2 0x244 PUSH2 0x8D3 JUMP JUMPDEST PUSH2 0x1DC PUSH2 0x369 CALLDATASIZE PUSH1 0x4 PUSH2 0x1001 JUMP JUMPDEST PUSH1 0x8 PUSH1 0x20 MSTORE PUSH0 SWAP1 DUP2 MSTORE PUSH1 0x40 SWAP1 KECCAK256 SLOAD DUP2 JUMP JUMPDEST PUSH2 0x202 PUSH2 0x388 CALLDATASIZE PUSH1 0x4 PUSH2 0x107F JUMP JUMPDEST PUSH2 0x8E5 JUMP JUMPDEST PUSH2 0x1DC PUSH0 DUP2 JUMP JUMPDEST PUSH2 0x244 PUSH2 0x3A2 CALLDATASIZE PUSH1 0x4 PUSH2 0x1068 JUMP JUMPDEST PUSH2 0x90D JUMP JUMPDEST PUSH2 0x244 PUSH2 0xA5E JUMP JUMPDEST PUSH2 0x1DC PUSH1 0x3 SLOAD DUP2 JUMP JUMPDEST PUSH2 0x1DC PUSH2 0xBAC JUMP JUMPDEST PUSH2 0x244 PUSH2 0x3CE CALLDATASIZE PUSH1 0x4 PUSH2 0x107F JUMP JUMPDEST PUSH2 0xC0B JUMP JUMPDEST PUSH2 0x1DC PUSH1 0x4 SLOAD DUP2 JUMP JUMPDEST PUSH2 0x244 PUSH2 0xC2F JUMP JUMPDEST PUSH2 0x1DC PUSH1 0x5 SLOAD DUP2 JUMP JUMPDEST PUSH2 0x321 PUSH32 0x0 DUP2 JUMP JUMPDEST PUSH1 0x1 PUSH1 0x1 PUSH1 0xA0 SHL SUB DUP2 AND PUSH0 SWAP1 DUP2 MSTORE PUSH1 0x9 PUSH1 0x20 SWAP1 DUP2 MSTORE PUSH1 0x40 DUP1 DUP4 KECCAK256 SLOAD PUSH1 0x8 SWAP1 SWAP3 MSTORE DUP3 KECCAK256 SLOAD PUSH8 0xDE0B6B3A7640000 SWAP1 PUSH2 0x449 PUSH2 0xBAC JUMP JUMPDEST PUSH2 0x453 SWAP2 SWAP1 PUSH2 0x10BD JUMP JUMPDEST PUSH1 0x1 PUSH1 0x1 PUSH1 0xA0 SHL SUB DUP6 AND PUSH0 SWAP1 DUP2 MSTORE PUSH1 0x7 PUSH1 0x20 MSTORE PUSH1 0x40 SWAP1 KECCAK256 SLOAD PUSH2 0x475 SWAP2 SWAP1 PUSH2 0x10D0 JUMP JUMPDEST PUSH2 0x47F SWAP2 SWAP1 PUSH2 0x10E7 JUMP JUMPDEST PUSH2 0x489 SWAP2 SWAP1 PUSH2 0x1106 JUMP JUMPDEST SWAP3 SWAP2 POP POP JUMP JUMPDEST PUSH0 PUSH1 0x1 PUSH1 0x1 PUSH1 0xE0 SHL SUB NOT DUP3 AND PUSH4 0x7965DB0B PUSH1 0xE0 SHL EQ DUP1 PUSH2 0x489 JUMPI POP PUSH4 0x1FFC9A7 PUSH1 0xE0 SHL PUSH1 0x1 PUSH1 0x1 PUSH1 0xE0 SHL SUB NOT DUP4 AND EQ PUSH2 0x489 JUMP JUMPDEST PUSH32 0xB814FF4A26EA3EC5CD1FA579DAAD86324826254265F3ACFEC78303A19845B449 PUSH2 0x4ED DUP2 PUSH2 0xC4F JUMP JUMPDEST PUSH0 PUSH2 0x4F6 PUSH2 0xBAC JUMP JUMPDEST PUSH1 0x4 SSTORE PUSH2 0x501 PUSH2 0x8BB JUMP JUMPDEST PUSH1 0x3 SSTORE PUSH1 0x1 PUSH1 0x1 PUSH1 0xA0 SHL SUB DUP2 AND ISZERO PUSH2 0x547 JUMPI PUSH2 0x51C DUP2 PUSH2 0x414 JUMP JUMPDEST PUSH1 0x1 PUSH1 0x1 PUSH1 0xA0 SHL SUB DUP3 AND PUSH0 SWAP1 DUP2 MSTORE PUSH1 0x9 PUSH1 0x20 SWAP1 DUP2 MSTORE PUSH1 0x40 DUP1 DUP4 KECCAK256 SWAP4 SWAP1 SWAP4 SSTORE PUSH1 0x4 SLOAD PUSH1 0x8 SWAP1 SWAP2 MSTORE SWAP2 SWAP1 KECCAK256 SSTORE JUMPDEST PUSH0 DUP4 GT PUSH2 0x59B JUMPI PUSH1 0x40 MLOAD PUSH3 0x461BCD PUSH1 0xE5 SHL DUP2 MSTORE PUSH1 0x20 PUSH1 0x4 DUP3 ADD MSTORE PUSH1 0x19 PUSH1 0x24 DUP3 ADD MSTORE PUSH32 0x5354414B494E473A20696E76616C6964206475726174696F6E00000000000000 PUSH1 0x44 DUP3 ADD MSTORE PUSH1 0x64 ADD JUMPDEST PUSH1 0x40 MLOAD DUP1 SWAP2 SUB SWAP1 REVERT JUMPDEST PUSH2 0x5D0 PUSH1 0x1 PUSH1 0x1 PUSH1 0xA0 SHL SUB PUSH32 0x0 AND CALLER ADDRESS DUP8 PUSH2 0xC59 JUMP JUMPDEST PUSH1 0x5 SLOAD TIMESTAMP LT PUSH2 0x5EB JUMPI PUSH2 0x5E3 DUP4 DUP6 PUSH2 0x10E7 JUMP JUMPDEST PUSH1 0x2 SSTORE PUSH2 0x628 JUMP JUMPDEST PUSH0 TIMESTAMP PUSH1 0x5 SLOAD PUSH2 0x5FA SWAP2 SWAP1 PUSH2 0x10BD JUMP JUMPDEST SWAP1 POP PUSH0 PUSH1 0x2 SLOAD DUP3 PUSH2 0x60B SWAP2 SWAP1 PUSH2 0x10D0 JUMP JUMPDEST SWAP1 POP DUP5 PUSH2 0x618 DUP3 DUP9 PUSH2 0x1106 JUMP JUMPDEST PUSH2 0x622 SWAP2 SWAP1 PUSH2 0x10E7 JUMP JUMPDEST PUSH1 0x2 SSTORE POP POP JUMPDEST TIMESTAMP PUSH1 0x3 DUP2 SWAP1 SSTORE PUSH2 0x639 SWAP1 DUP5 SWAP1 PUSH2 0x1106 JUMP JUMPDEST PUSH1 0x5 SSTORE PUSH1 0x40 DUP1 MLOAD DUP6 DUP2 MSTORE PUSH1 0x20 DUP2 ADD DUP6 SWAP1 MSTORE PUSH32 0x6C07EE05DCF262F13ABF9D87B846EE789D2F90FE991D495ACD7D7FC109EE1F55 SWAP2 ADD PUSH1 0x40 MLOAD DUP1 SWAP2 SUB SWAP1 LOG1 POP POP POP POP JUMP JUMPDEST PUSH2 0x683 PUSH2 0xC8F JUMP JUMPDEST PUSH2 0x68B PUSH2 0xCAA JUMP JUMPDEST CALLER PUSH2 0x694 PUSH2 0xBAC JUMP JUMPDEST PUSH1 0x4 SSTORE PUSH2 0x69F PUSH2 0x8BB JUMP JUMPDEST PUSH1 0x3 SSTORE PUSH1 0x1 PUSH1 0x1 PUSH1 0xA0 SHL SUB DUP2 AND ISZERO PUSH2 0x6E5 JUMPI PUSH2 0x6BA DUP2 PUSH2 0x414 JUMP JUMPDEST PUSH1 0x1 PUSH1 0x1 PUSH1 0xA0 SHL SUB DUP3 AND PUSH0 SWAP1 DUP2 MSTORE PUSH1 0x9 PUSH1 0x20 SWAP1 DUP2 MSTORE PUSH1 0x40 DUP1 DUP4 KECCAK256 SWAP4 SWAP1 SWAP4 SSTORE PUSH1 0x4 SLOAD PUSH1 0x8 SWAP1 SWAP2 MSTORE SWAP2 SWAP1 KECCAK256 SSTORE JUMPDEST PUSH0 DUP3 GT PUSH2 0x72B JUMPI PUSH1 0x40 MLOAD PUSH3 0x461BCD PUSH1 0xE5 SHL DUP2 MSTORE PUSH1 0x20 PUSH1 0x4 DUP3 ADD MSTORE PUSH1 0x14 PUSH1 0x24 DUP3 ADD MSTORE PUSH20 0x14D51052D25391CE881E995C9BC8185B5BDD5B9D PUSH1 0x62 SHL PUSH1 0x44 DUP3 ADD MSTORE PUSH1 0x64 ADD PUSH2 0x592 JUMP JUMPDEST CALLER PUSH0 SWAP1 DUP2 MSTORE PUSH1 0x7 PUSH1 0x20 MSTORE PUSH1 0x40 SWAP1 KECCAK256 SLOAD DUP3 GT ISZERO PUSH2 0x789 JUMPI PUSH1 0x40 MLOAD PUSH3 0x461BCD PUSH1 0xE5 SHL DUP2 MSTORE PUSH1 0x20 PUSH1 0x4 DUP3 ADD MSTORE PUSH1 0x1D PUSH1 0x24 DUP3 ADD MSTORE PUSH32 0x5354414B494E473A20696E73756666696369656E742062616C616E6365000000 PUSH1 0x44 DUP3 ADD MSTORE PUSH1 0x64 ADD PUSH2 0x592 JUMP JUMPDEST DUP2 PUSH1 0x6 PUSH0 DUP3 DUP3 SLOAD PUSH2 0x79A SWAP2 SWAP1 PUSH2 0x10BD JUMP JUMPDEST SWAP1 SWAP2 SSTORE POP POP CALLER PUSH0 SWAP1 DUP2 MSTORE PUSH1 0x7 PUSH1 0x20 MSTORE PUSH1 0x40 DUP2 KECCAK256 DUP1 SLOAD DUP5 SWAP3 SWAP1 PUSH2 0x7BD SWAP1 DUP5 SWAP1 PUSH2 0x10BD JUMP JUMPDEST SWAP1 SWAP2 SSTORE POP PUSH2 0x7F7 SWAP1 POP PUSH1 0x1 PUSH1 0x1 PUSH1 0xA0 SHL SUB PUSH32 0x0 AND CALLER DUP5 PUSH2 0xCCE JUMP JUMPDEST PUSH1 0x40 MLOAD DUP3 DUP2 MSTORE CALLER SWAP1 PUSH32 0x7084F5476618D8E60B11EF0D7D3F06914655ADB8793E28FF7F018D4C76D505D5 SWAP1 PUSH1 0x20 ADD JUMPDEST PUSH1 0x40 MLOAD DUP1 SWAP2 SUB SWAP1 LOG2 POP PUSH2 0x844 PUSH1 0x1 PUSH0 DUP1 MLOAD PUSH1 0x20 PUSH2 0x111A DUP4 CODECOPY DUP2 MLOAD SWAP2 MSTORE SSTORE JUMP JUMPDEST POP JUMP JUMPDEST PUSH0 DUP3 DUP2 MSTORE PUSH1 0x20 DUP2 SWAP1 MSTORE PUSH1 0x40 SWAP1 KECCAK256 PUSH1 0x1 ADD SLOAD PUSH2 0x861 DUP2 PUSH2 0xC4F JUMP JUMPDEST PUSH2 0x86B DUP4 DUP4 PUSH2 0xD03 JUMP JUMPDEST POP POP POP POP JUMP JUMPDEST PUSH1 0x1 PUSH1 0x1 PUSH1 0xA0 SHL SUB DUP2 AND CALLER EQ PUSH2 0x89A JUMPI PUSH1 0x40 MLOAD PUSH4 0x334BD919 PUSH1 0xE1 SHL DUP2 MSTORE PUSH1 0x4 ADD PUSH1 0x40 MLOAD DUP1 SWAP2 SUB SWAP1 REVERT JUMPDEST PUSH2 0x8A4 DUP3 DUP3 PUSH2 0xD92 JUMP JUMPDEST POP POP POP JUMP JUMPDEST PUSH0 PUSH2 0x8B3 DUP2 PUSH2 0xC4F JUMP JUMPDEST PUSH2 0x844 PUSH2 0xDFB JUMP JUMPDEST PUSH0 PUSH1 0x5 SLOAD TIMESTAMP LT PUSH2 0x8CC JUMPI POP PUSH1 0x5 SLOAD SWAP1 JUMP JUMPDEST TIMESTAMP JUMPDEST SWAP1 POP SWAP1 JUMP JUMPDEST PUSH0 PUSH2 0x8DD DUP2 PUSH2 0xC4F JUMP JUMPDEST PUSH2 0x844 PUSH2 0xE4D JUMP JUMPDEST PUSH0 SWAP2 DUP3 MSTORE PUSH1 0x20 DUP3 DUP2 MSTORE PUSH1 0x40 DUP1 DUP5 KECCAK256 PUSH1 0x1 PUSH1 0x1 PUSH1 0xA0 SHL SUB SWAP4 SWAP1 SWAP4 AND DUP5 MSTORE SWAP2 SWAP1 MSTORE SWAP1 KECCAK256 SLOAD PUSH1 0xFF AND SWAP1 JUMP JUMPDEST PUSH2 0x915 PUSH2 0xC8F JUMP JUMPDEST PUSH2 0x91D PUSH2 0xCAA JUMP JUMPDEST CALLER PUSH2 0x926 PUSH2 0xBAC JUMP JUMPDEST PUSH1 0x4 SSTORE PUSH2 0x931 PUSH2 0x8BB JUMP JUMPDEST PUSH1 0x3 SSTORE PUSH1 0x1 PUSH1 0x1 PUSH1 0xA0 SHL SUB DUP2 AND ISZERO PUSH2 0x977 JUMPI PUSH2 0x94C DUP2 PUSH2 0x414 JUMP JUMPDEST PUSH1 0x1 PUSH1 0x1 PUSH1 0xA0 SHL SUB DUP3 AND PUSH0 SWAP1 DUP2 MSTORE PUSH1 0x9 PUSH1 0x20 SWAP1 DUP2 MSTORE PUSH1 0x40 DUP1 DUP4 KECCAK256 SWAP4 SWAP1 SWAP4 SSTORE PUSH1 0x4 SLOAD PUSH1 0x8 SWAP1 SWAP2 MSTORE SWAP2 SWAP1 KECCAK256 SSTORE JUMPDEST PUSH0 DUP3 GT PUSH2 0x9BD JUMPI PUSH1 0x40 MLOAD PUSH3 0x461BCD PUSH1 0xE5 SHL DUP2 MSTORE PUSH1 0x20 PUSH1 0x4 DUP3 ADD MSTORE PUSH1 0x14 PUSH1 0x24 DUP3 ADD MSTORE PUSH20 0x14D51052D25391CE881E995C9BC8185B5BDD5B9D PUSH1 0x62 SHL PUSH1 0x44 DUP3 ADD MSTORE PUSH1 0x64 ADD PUSH2 0x592 JUMP JUMPDEST DUP2 PUSH1 0x6 PUSH0 DUP3 DUP3 SLOAD PUSH2 0x9CE SWAP2 SWAP1 PUSH2 0x1106 JUMP JUMPDEST SWAP1 SWAP2 SSTORE POP POP CALLER PUSH0 SWAP1 DUP2 MSTORE PUSH1 0x7 PUSH1 0x20 MSTORE PUSH1 0x40 DUP2 KECCAK256 DUP1 SLOAD DUP5 SWAP3 SWAP1 PUSH2 0x9F1 SWAP1 DUP5 SWAP1 PUSH2 0x1106 JUMP JUMPDEST SWAP1 SWAP2 SSTORE POP PUSH2 0xA2C SWAP1 POP PUSH1 0x1 PUSH1 0x1 PUSH1 0xA0 SHL SUB PUSH32 0x0 AND CALLER ADDRESS DUP6 PUSH2 0xC59 JUMP JUMPDEST PUSH1 0x40 MLOAD DUP3 DUP2 MSTORE CALLER SWAP1 PUSH32 0x9E71BC8EEA02A63969F509818F2DAFB9254532904319F9DBDA79B67BD34A5F3D SWAP1 PUSH1 0x20 ADD PUSH2 0x825 JUMP JUMPDEST PUSH2 0xA66 PUSH2 0xC8F JUMP JUMPDEST PUSH2 0xA6E PUSH2 0xCAA JUMP JUMPDEST CALLER PUSH2 0xA77 PUSH2 0xBAC JUMP JUMPDEST PUSH1 0x4 SSTORE PUSH2 0xA82 PUSH2 0x8BB JUMP JUMPDEST PUSH1 0x3 SSTORE PUSH1 0x1 PUSH1 0x1 PUSH1 0xA0 SHL SUB DUP2 AND ISZERO PUSH2 0xAC8 JUMPI PUSH2 0xA9D DUP2 PUSH2 0x414 JUMP JUMPDEST PUSH1 0x1 PUSH1 0x1 PUSH1 0xA0 SHL SUB DUP3 AND PUSH0 SWAP1 DUP2 MSTORE PUSH1 0x9 PUSH1 0x20 SWAP1 DUP2 MSTORE PUSH1 0x40 DUP1 DUP4 KECCAK256 SWAP4 SWAP1 SWAP4 SSTORE PUSH1 0x4 SLOAD PUSH1 0x8 SWAP1 SWAP2 MSTORE SWAP2 SWAP1 KECCAK256 SSTORE JUMPDEST CALLER PUSH0 SWAP1 DUP2 MSTORE PUSH1 0x9 PUSH1 0x20 MSTORE PUSH1 0x40 SWAP1 KECCAK256 SLOAD DUP1 PUSH2 0xB19 JUMPI PUSH1 0x40 MLOAD PUSH3 0x461BCD PUSH1 0xE5 SHL DUP2 MSTORE PUSH1 0x20 PUSH1 0x4 DUP3 ADD MSTORE PUSH1 0x12 PUSH1 0x24 DUP3 ADD MSTORE PUSH18 0x14D51052D25391CE881B9BC81C995DD85C99 PUSH1 0x72 SHL PUSH1 0x44 DUP3 ADD MSTORE PUSH1 0x64 ADD PUSH2 0x592 JUMP JUMPDEST CALLER PUSH0 DUP2 DUP2 MSTORE PUSH1 0x9 PUSH1 0x20 MSTORE PUSH1 0x40 DUP2 KECCAK256 SSTORE PUSH2 0xB5D SWAP1 PUSH32 0x0 PUSH1 0x1 PUSH1 0x1 PUSH1 0xA0 SHL SUB AND SWAP1 DUP4 PUSH2 0xCCE JUMP JUMPDEST PUSH1 0x40 MLOAD DUP2 DUP2 MSTORE CALLER SWAP1 PUSH32 0xE2403640BA68FED3A2F88B7557551D1993F84B99BB10FF833F0CF8DB0C5E0486 SWAP1 PUSH1 0x20 ADD PUSH1 0x40 MLOAD DUP1 SWAP2 SUB SWAP1 LOG2 POP POP PUSH2 0xBAA PUSH1 0x1 PUSH0 DUP1 MLOAD PUSH1 0x20 PUSH2 0x111A DUP4 CODECOPY DUP2 MLOAD SWAP2 MSTORE SSTORE JUMP JUMPDEST JUMP JUMPDEST PUSH0 PUSH1 0x6 SLOAD PUSH0 SUB PUSH2 0xBBD JUMPI POP PUSH1 0x4 SLOAD SWAP1 JUMP JUMPDEST PUSH1 0x6 SLOAD PUSH1 0x2 SLOAD PUSH1 0x3 SLOAD PUSH2 0xBCE PUSH2 0x8BB JUMP JUMPDEST PUSH2 0xBD8 SWAP2 SWAP1 PUSH2 0x10BD JUMP JUMPDEST PUSH2 0xBE2 SWAP2 SWAP1 PUSH2 0x10D0 JUMP JUMPDEST PUSH2 0xBF4 SWAP1 PUSH8 0xDE0B6B3A7640000 PUSH2 0x10D0 JUMP JUMPDEST PUSH2 0xBFE SWAP2 SWAP1 PUSH2 0x10E7 JUMP JUMPDEST PUSH1 0x4 SLOAD PUSH2 0x8CE SWAP2 SWAP1 PUSH2 0x1106 JUMP JUMPDEST PUSH0 DUP3 DUP2 MSTORE PUSH1 0x20 DUP2 SWAP1 MSTORE PUSH1 0x40 SWAP1 KECCAK256 PUSH1 0x1 ADD SLOAD PUSH2 0xC25 DUP2 PUSH2 0xC4F JUMP JUMPDEST PUSH2 0x86B DUP4 DUP4 PUSH2 0xD92 JUMP JUMPDEST CALLER PUSH0 SWAP1 DUP2 MSTORE PUSH1 0x7 PUSH1 0x20 MSTORE PUSH1 0x40 SWAP1 KECCAK256 SLOAD PUSH2 0xC47 SWAP1 PUSH2 0x67B JUMP JUMPDEST PUSH2 0xBAA PUSH2 0xA5E JUMP JUMPDEST PUSH2 0x844 DUP2 CALLER PUSH2 0xE88 JUMP JUMPDEST PUSH2 0xC67 DUP5 DUP5 DUP5 DUP5 PUSH1 0x1 PUSH2 0xEC5 JUMP JUMPDEST PUSH2 0x86B JUMPI PUSH1 0x40 MLOAD PUSH4 0x5274AFE7 PUSH1 0xE0 SHL DUP2 MSTORE PUSH1 0x1 PUSH1 0x1 PUSH1 0xA0 SHL SUB DUP6 AND PUSH1 0x4 DUP3 ADD MSTORE PUSH1 0x24 ADD PUSH2 0x592 JUMP JUMPDEST PUSH2 0xC97 PUSH2 0xF32 JUMP JUMPDEST PUSH1 0x2 PUSH0 DUP1 MLOAD PUSH1 0x20 PUSH2 0x111A DUP4 CODECOPY DUP2 MLOAD SWAP2 MSTORE SSTORE JUMP JUMPDEST PUSH1 0x1 SLOAD PUSH1 0xFF AND ISZERO PUSH2 0xBAA JUMPI PUSH1 0x40 MLOAD PUSH4 0xD93C0665 PUSH1 0xE0 SHL DUP2 MSTORE PUSH1 0x4 ADD PUSH1 0x40 MLOAD DUP1 SWAP2 SUB SWAP1 REVERT JUMPDEST PUSH2 0xCDB DUP4 DUP4 DUP4 PUSH1 0x1 PUSH2 0xF61 JUMP JUMPDEST PUSH2 0x8A4 JUMPI PUSH1 0x40 MLOAD PUSH4 0x5274AFE7 PUSH1 0xE0 SHL DUP2 MSTORE PUSH1 0x1 PUSH1 0x1 PUSH1 0xA0 SHL SUB DUP5 AND PUSH1 0x4 DUP3 ADD MSTORE PUSH1 0x24 ADD PUSH2 0x592 JUMP JUMPDEST PUSH0 PUSH2 0xD0E DUP4 DUP4 PUSH2 0x8E5 JUMP JUMPDEST PUSH2 0xD8B JUMPI PUSH0 DUP4 DUP2 MSTORE PUSH1 0x20 DUP2 DUP2 MSTORE PUSH1 0x40 DUP1 DUP4 KECCAK256 PUSH1 0x1 PUSH1 0x1 PUSH1 0xA0 SHL SUB DUP7 AND DUP5 MSTORE SWAP1 SWAP2 MSTORE SWAP1 KECCAK256 DUP1 SLOAD PUSH1 0xFF NOT AND PUSH1 0x1 OR SWAP1 SSTORE PUSH2 0xD43 CALLER SWAP1 JUMP JUMPDEST PUSH1 0x1 PUSH1 0x1 PUSH1 0xA0 SHL SUB AND DUP3 PUSH1 0x1 PUSH1 0x1 PUSH1 0xA0 SHL SUB AND DUP5 PUSH32 0x2F8788117E7EFF1D82E926EC794901D17C78024A50270940304540A733656F0D PUSH1 0x40 MLOAD PUSH1 0x40 MLOAD DUP1 SWAP2 SUB SWAP1 LOG4 POP PUSH1 0x1 PUSH2 0x489 JUMP JUMPDEST POP PUSH0 PUSH2 0x489 JUMP JUMPDEST PUSH0 PUSH2 0xD9D DUP4 DUP4 PUSH2 0x8E5 JUMP JUMPDEST ISZERO PUSH2 0xD8B JUMPI PUSH0 DUP4 DUP2 MSTORE PUSH1 0x20 DUP2 DUP2 MSTORE PUSH1 0x40 DUP1 DUP4 KECCAK256 PUSH1 0x1 PUSH1 0x1 PUSH1 0xA0 SHL SUB DUP7 AND DUP1 DUP6 MSTORE SWAP3 MSTORE DUP1 DUP4 KECCAK256 DUP1 SLOAD PUSH1 0xFF NOT AND SWAP1 SSTORE MLOAD CALLER SWAP3 DUP7 SWAP2 PUSH32 0xF6391F5C32D9C69D2A47EA670B442974B53935D1EDC7FD64EB21E047A839171B SWAP2 SWAP1 LOG4 POP PUSH1 0x1 PUSH2 0x489 JUMP JUMPDEST PUSH2 0xE03 PUSH2 0xFC3 JUMP JUMPDEST PUSH1 0x1 DUP1 SLOAD PUSH1 0xFF NOT AND SWAP1 SSTORE PUSH32 0x5DB9EE0A495BF2E6FF9C91A7834C1BA4FDD244A5E8AA4E537BD38AEAE4B073AA CALLER JUMPDEST PUSH1 0x40 MLOAD PUSH1 0x1 PUSH1 0x1 PUSH1 0xA0 SHL SUB SWAP1 SWAP2 AND DUP2 MSTORE PUSH1 0x20 ADD PUSH1 0x40 MLOAD DUP1 SWAP2 SUB SWAP1 LOG1 JUMP JUMPDEST PUSH2 0xE55 PUSH2 0xCAA JUMP JUMPDEST PUSH1 0x1 DUP1 SLOAD PUSH1 0xFF NOT AND DUP2 OR SWAP1 SSTORE PUSH32 0x62E78CEA01BEE320CD4E420270B5EA74000D11B0C9F74754EBDBFC544B05A258 CALLER PUSH2 0xE30 JUMP JUMPDEST PUSH2 0xE92 DUP3 DUP3 PUSH2 0x8E5 JUMP JUMPDEST PUSH2 0xEC1 JUMPI PUSH1 0x40 MLOAD PUSH4 0xE2517D3F PUSH1 0xE0 SHL DUP2 MSTORE PUSH1 0x1 PUSH1 0x1 PUSH1 0xA0 SHL SUB DUP3 AND PUSH1 0x4 DUP3 ADD MSTORE PUSH1 0x24 DUP2 ADD DUP4 SWAP1 MSTORE PUSH1 0x44 ADD PUSH2 0x592 JUMP JUMPDEST POP POP JUMP JUMPDEST PUSH1 0x40 MLOAD PUSH4 0x23B872DD PUSH1 0xE0 SHL PUSH0 DUP2 DUP2 MSTORE PUSH1 0x1 PUSH1 0x1 PUSH1 0xA0 SHL SUB DUP8 DUP2 AND PUSH1 0x4 MSTORE DUP7 AND PUSH1 0x24 MSTORE PUSH1 0x44 DUP6 SWAP1 MSTORE SWAP2 PUSH1 0x20 DUP4 PUSH1 0x64 DUP2 DUP1 DUP13 GAS CALL SWAP3 POP PUSH1 0x1 PUSH0 MLOAD EQ DUP4 AND PUSH2 0xF21 JUMPI DUP4 DUP4 ISZERO AND ISZERO PUSH2 0xF15 JUMPI RETURNDATASIZE PUSH0 DUP3 RETURNDATACOPY RETURNDATASIZE DUP2 REVERT JUMPDEST PUSH0 DUP9 EXTCODESIZE GT RETURNDATASIZE ISZERO AND DUP4 AND SWAP3 POP JUMPDEST PUSH1 0x40 MSTORE POP PUSH0 PUSH1 0x60 MSTORE SWAP6 SWAP5 POP POP POP POP POP JUMP JUMPDEST PUSH0 DUP1 MLOAD PUSH1 0x20 PUSH2 0x111A DUP4 CODECOPY DUP2 MLOAD SWAP2 MSTORE SLOAD PUSH1 0x2 SUB PUSH2 0xBAA JUMPI PUSH1 0x40 MLOAD PUSH4 0x3EE5AEB5 PUSH1 0xE0 SHL DUP2 MSTORE PUSH1 0x4 ADD PUSH1 0x40 MLOAD DUP1 SWAP2 SUB SWAP1 REVERT JUMPDEST PUSH1 0x40 MLOAD PUSH4 0xA9059CBB PUSH1 0xE0 SHL PUSH0 DUP2 DUP2 MSTORE PUSH1 0x1 PUSH1 0x1 PUSH1 0xA0 SHL SUB DUP7 AND PUSH1 0x4 MSTORE PUSH1 0x24 DUP6 SWAP1 MSTORE SWAP2 PUSH1 0x20 DUP4 PUSH1 0x44 DUP2 DUP1 DUP12 GAS CALL SWAP3 POP PUSH1 0x1 PUSH0 MLOAD EQ DUP4 AND PUSH2 0xFB7 JUMPI DUP4 DUP4 ISZERO AND ISZERO PUSH2 0xFAB JUMPI RETURNDATASIZE PUSH0 DUP3 RETURNDATACOPY RETURNDATASIZE DUP2 REVERT JUMPDEST PUSH0 DUP8 EXTCODESIZE GT RETURNDATASIZE ISZERO AND DUP4 AND SWAP3 POP JUMPDEST PUSH1 0x40 MSTORE POP SWAP5 SWAP4 POP POP POP POP JUMP JUMPDEST PUSH1 0x1 SLOAD PUSH1 0xFF AND PUSH2 0xBAA JUMPI PUSH1 0x40 MLOAD PUSH4 0x8DFC202B PUSH1 0xE0 SHL DUP2 MSTORE PUSH1 0x4 ADD PUSH1 0x40 MLOAD DUP1 SWAP2 SUB SWAP1 REVERT JUMPDEST DUP1 CALLDATALOAD PUSH1 0x1 PUSH1 0x1 PUSH1 0xA0 SHL SUB DUP2 AND DUP2 EQ PUSH2 0xFFC JUMPI PUSH0 DUP1 REVERT JUMPDEST SWAP2 SWAP1 POP JUMP JUMPDEST PUSH0 PUSH1 0x20 DUP3 DUP5 SUB SLT ISZERO PUSH2 0x1011 JUMPI PUSH0 DUP1 REVERT JUMPDEST PUSH2 0x101A DUP3 PUSH2 0xFE6 JUMP JUMPDEST SWAP4 SWAP3 POP POP POP JUMP JUMPDEST PUSH0 PUSH1 0x20 DUP3 DUP5 SUB SLT ISZERO PUSH2 0x1031 JUMPI PUSH0 DUP1 REVERT JUMPDEST DUP2 CALLDATALOAD PUSH1 0x1 PUSH1 0x1 PUSH1 0xE0 SHL SUB NOT DUP2 AND DUP2 EQ PUSH2 0x101A JUMPI PUSH0 DUP1 REVERT JUMPDEST PUSH0 DUP1 PUSH1 0x40 DUP4 DUP6 SUB SLT ISZERO PUSH2 0x1059 JUMPI PUSH0 DUP1 REVERT JUMPDEST POP POP DUP1 CALLDATALOAD SWAP3 PUSH1 0x20 SWAP1 SWAP2 ADD CALLDATALOAD SWAP2 POP JUMP JUMPDEST PUSH0 PUSH1 0x20 DUP3 DUP5 SUB SLT ISZERO PUSH2 0x1078 JUMPI PUSH0 DUP1 REVERT JUMPDEST POP CALLDATALOAD SWAP2 SWAP1 POP JUMP JUMPDEST PUSH0 DUP1 PUSH1 0x40 DUP4 DUP6 SUB SLT ISZERO PUSH2 0x1090 JUMPI PUSH0 DUP1 REVERT JUMPDEST DUP3 CALLDATALOAD SWAP2 POP PUSH2 0x10A0 PUSH1 0x20 DUP5 ADD PUSH2 0xFE6 JUMP JUMPDEST SWAP1 POP SWAP3 POP SWAP3 SWAP1 POP JUMP JUMPDEST PUSH4 0x4E487B71 PUSH1 0xE0 SHL PUSH0 MSTORE PUSH1 0x11 PUSH1 0x4 MSTORE PUSH1 0x24 PUSH0 REVERT JUMPDEST DUP2 DUP2 SUB DUP2 DUP2 GT ISZERO PUSH2 0x489 JUMPI PUSH2 0x489 PUSH2 0x10A9 JUMP JUMPDEST DUP1 DUP3 MUL DUP2 ISZERO DUP3 DUP3 DIV DUP5 EQ OR PUSH2 0x489 JUMPI PUSH2 0x489 PUSH2 0x10A9 JUMP JUMPDEST PUSH0 DUP3 PUSH2 0x1101 JUMPI PUSH4 0x4E487B71 PUSH1 0xE0 SHL PUSH0 MSTORE PUSH1 0x12 PUSH1 0x4 MSTORE PUSH1 0x24 PUSH0 REVERT JUMPDEST POP DIV SWAP1 JUMP JUMPDEST DUP1 DUP3 ADD DUP1 DUP3 GT ISZERO PUSH2 0x489 JUMPI PUSH2 0x489 PUSH2 0x10A9 JUMP INVALID SWAP12 PUSH24 0x9B17422D0DF92223018B32B4D1FA46E071723D6817E2486D STOP EXTCODESIZE 0xEC 0xC5 PUSH0 STOP LOG2 PUSH5 0x6970667358 0x22 SLT KECCAK256 PUSH23 0xEF69A3E935004D81ECCE2E8B77576883466B7BF8EA6635 REVERT DUP6 SWAP9 0xE7 PUSH28 0x4227964736F6C634300081800330000000000000000000000000000 "},"methodIdentifiers":{"DEFAULT_ADMIN_ROLE()":"a217fddf","REWARD_DISTRIBUTOR_ROLE()":"32e4bb0a","balances(address)":"27e235e3","claimReward()":"b88a802f","earned(address)":"008cc262","exit()":"e9fad8ee","getRoleAdmin(bytes32)":"248a9ca3","grantRole(bytes32,address)":"2f2ff15d","hasRole(bytes32,address)":"91d14854","lastTimeRewardApplicable()":"80faa57d","lastUpdateTime()":"c8f33c91","notifyRewardAmount(uint256,uint256)":"246132f9","pause()":"8456cb59","paused()":"5c975abb","periodFinish()":"ebe2b12b","renounceRole(bytes32,address)":"36568abe","revokeRole(bytes32,address)":"d547741f","rewardPerToken()":"cd3daf9d","rewardPerTokenStored()":"df136d65","rewardRate()":"7b0a47ee","rewardToken()":"f7c618c1","rewards(address)":"0700037d","stake(uint256)":"a694fc3a","stakingToken()":"72f702f3","supportsInterface(bytes4)":"01ffc9a7","totalStaked()":"817b1cd2","unpause()":"3f4ba83a","userRewardPerTokenPaid(address)":"8b876347","withdraw(uint256)":"2e1a7d4d"}}}}}