{"contracts/EscrowContract.sol":{"EscrowContract":{"abi":[{"inputs":[{"internalType":"address","name":"tokenAddress","type":"address"},{"internalType":"address","name":"admin","type":"address"}],"stateMutability":"nonpayable","type":"constructor"},{"inputs":[],"name":"AccessControlBadConfirmation","type":"error"},{"inputs":[{"internalType":"address","name":"account","type":"address"},{"internalType":"bytes32","name":"neededRole","type":"bytes32"}],"name":"AccessControlUnauthorizedAccount","type":"error"},{"inputs":[],"name":"EnforcedPause","type":"error"},{"inputs":[],"name":"ExpectedPause","type":"error"},{"inputs":[],"name":"ReentrancyGuardReentrantCall","type":"error"},{"inputs":[{"internalType":"address","name":"token","type":"address"}],"name":"SafeERC20FailedOperation","type":"error"},{"anonymous":false,"inputs":[{"indexed":true,"internalType":"uint256","name":"escrowId","type":"uint256"},{"indexed":true,"internalType":"address","name":"operator","type":"address"}],"name":"EscrowCancelled","type":"event"},{"anonymous":false,"inputs":[{"indexed":true,"internalType":"uint256","name":"escrowId","type":"uint256"},{"indexed":true,"internalType":"address","name":"depositor","type":"address"},{"indexed":true,"internalType":"address","name":"beneficiary","type":"address"},{"indexed":false,"internalType":"uint256","name":"amount","type":"uint256"},{"indexed":false,"internalType":"uint64","name":"releaseTime","type":"uint64"},{"indexed":false,"internalType":"bytes32","name":"metadataHash","type":"bytes32"}],"name":"EscrowCreated","type":"event"},{"anonymous":false,"inputs":[{"indexed":true,"internalType":"uint256","name":"escrowId","type":"uint256"},{"indexed":true,"internalType":"address","name":"operator","type":"address"}],"name":"EscrowReleased","type":"event"},{"anonymous":false,"inputs":[{"indexed":false,"internalType":"address","name":"account","type":"address"}],"name":"Paused","type":"event"},{"anonymous":false,"inputs":[{"indexed":true,"internalType":"bytes32","name":"role","type":"bytes32"},{"indexed":true,"internalType":"bytes32","name":"previousAdminRole","type":"bytes32"},{"indexed":true,"internalType":"bytes32","name":"newAdminRole","type":"bytes32"}],"name":"RoleAdminChanged","type":"event"},{"anonymous":false,"inputs":[{"indexed":true,"internalType":"bytes32","name":"role","type":"bytes32"},{"indexed":true,"internalType":"address","name":"account","type":"address"},{"indexed":true,"internalType":"address","name":"sender","type":"address"}],"name":"RoleGranted","type":"event"},{"anonymous":false,"inputs":[{"indexed":true,"internalType":"bytes32","name":"role","type":"bytes32"},{"indexed":true,"internalType":"address","name":"account","type":"address"},{"indexed":true,"internalType":"address","name":"sender","type":"address"}],"name":"RoleRevoked","type":"event"},{"anonymous":false,"inputs":[{"indexed":false,"internalType":"address","name":"account","type":"address"}],"name":"Unpaused","type":"event"},{"inputs":[],"name":"DEFAULT_ADMIN_ROLE","outputs":[{"internalType":"bytes32","name":"","type":"bytes32"}],"stateMutability":"view","type":"function"},{"inputs":[],"name":"EXECUTOR_ROLE","outputs":[{"internalType":"bytes32","name":"","type":"bytes32"}],"stateMutability":"view","type":"function"},{"inputs":[{"internalType":"uint256","name":"escrowId","type":"uint256"}],"name":"cancelEscrow","outputs":[],"stateMutability":"nonpayable","type":"function"},{"inputs":[{"internalType":"address","name":"beneficiary","type":"address"},{"internalType":"uint256","name":"amount","type":"uint256"},{"internalType":"uint64","name":"releaseTime","type":"uint64"},{"internalType":"bytes32","name":"metadataHash","type":"bytes32"}],"name":"createEscrow","outputs":[{"internalType":"uint256","name":"escrowId","type":"uint256"}],"stateMutability":"nonpayable","type":"function"},{"inputs":[{"internalType":"uint256","name":"","type":"uint256"}],"name":"escrows","outputs":[{"internalType":"address","name":"depositor","type":"address"},{"internalType":"address","name":"beneficiary","type":"address"},{"internalType":"uint256","name":"amount","type":"uint256"},{"internalType":"uint64","name":"releaseTime","type":"uint64"},{"internalType":"bytes32","name":"metadataHash","type":"bytes32"},{"internalType":"enum EscrowContract.EscrowStatus","name":"status","type":"uint8"}],"stateMutability":"view","type":"function"},{"inputs":[{"internalType":"bytes32","name":"role","type":"bytes32"}],"name":"getRoleAdmin","outputs":[{"internalType":"bytes32","name":"","type":"bytes32"}],"stateMutability":"view","type":"function"},{"inputs":[{"internalType":"bytes32","name":"role","type":"bytes32"},{"internalType":"address","name":"account","type":"address"}],"name":"grantRole","outputs":[],"stateMutability":"nonpayable","type":"function"},{"inputs":[{"internalType":"bytes32","name":"role","type":"bytes32"},{"internalType":"address","name":"account","type":"address"}],"name":"hasRole","outputs":[{"internalType":"bool","name":"","type":"bool"}],"stateMutability":"view","type":"function"},{"inputs":[],"name":"nextEscrowId","outputs":[{"internalType":"uint256","name":"","type":"uint256"}],"stateMutability":"view","type":"function"},{"inputs":[],"name":"pause","outputs":[],"stateMutability":"nonpayable","type":"function"},{"inputs":[],"name":"paused","outputs":[{"internalType":"bool","name":"","type":"bool"}],"stateMutability":"view","type":"function"},{"inputs":[{"internalType":"uint256","name":"escrowId","type":"uint256"}],"name":"releaseEscrow","outputs":[],"stateMutability":"nonpayable","type":"function"},{"inputs":[{"internalType":"bytes32","name":"role","type":"bytes32"},{"internalType":"address","name":"callerConfirmation","type":"address"}],"name":"renounceRole","outputs":[],"stateMutability":"nonpayable","type":"function"},{"inputs":[{"internalType":"bytes32","name":"role","type":"bytes32"},{"internalType":"address","name":"account","type":"address"}],"name":"revokeRole","outputs":[],"stateMutability":"nonpayable","type":"function"},{"inputs":[],"name":"sglToken","outputs":[{"internalType":"contract IERC20","name":"","type":"address"}],"stateMutability":"view","type":"function"},{"inputs":[{"internalType":"bytes4","name":"interfaceId","type":"bytes4"}],"name":"supportsInterface","outputs":[{"internalType":"bool","name":"","type":"bool"}],"stateMutability":"view","type":"function"},{"inputs":[],"name":"unpause","outputs":[],"stateMutability":"nonpayable","type":"function"}],"evm":{"bytecode":{"linkReferences":{},"object":"60a060405234801562000010575f80fd5b50604051620011e2380380620011e2833981016040819052620000339162000222565b60017f9b779b17422d0df92223018b32b4d1fa46e071723d6817e2486d003becc55f00556001600160a01b038216620000b35760405162461bcd60e51b815260206004820152601560248201527f455343524f573a20696e76616c696420746f6b656e000000000000000000000060448201526064015b60405180910390fd5b6001600160a01b0381166200010b5760405162461bcd60e51b815260206004820152601560248201527f455343524f573a20696e76616c69642061646d696e00000000000000000000006044820152606401620000aa565b6001600160a01b038216608052620001245f826200015a565b50620001517fd8aa0f3194971a2a116679f7c2090f6939c8d4e01a2a8d7e41d55e5351469e63826200015a565b50505062000258565b5f828152602081815260408083206001600160a01b038516845290915281205460ff16620001fd575f838152602081815260408083206001600160a01b03861684529091529020805460ff19166001179055620001b43390565b6001600160a01b0316826001600160a01b0316847f2f8788117e7eff1d82e926ec794901d17c78024a50270940304540a733656f0d60405160405180910390a450600162000200565b505f5b92915050565b80516001600160a01b03811681146200021d575f80fd5b919050565b5f806040838503121562000234575f80fd5b6200023f8362000206565b91506200024f6020840162000206565b90509250929050565b608051610f5c620002865f395f818161023c015281816105e00152818161079a01526109830152610f5c5ff3fe608060405234801561000f575f80fd5b5060043610610106575f3560e01c806362b24ea21161009e578063a217fddf1161006e578063a217fddf1461029a578063a3796e50146102a1578063d547741f146102b4578063e0182436146102c7578063ed653164146102da575f80fd5b806362b24ea2146102375780638456cb591461027657806389cb29dd1461027e57806391d1485414610287575f80fd5b80632f2ff15d116100d95780632f2ff15d146101fc57806336568abe146102115780633f4ba83a146102245780635c975abb1461022c575f80fd5b8063012f52ee1461010a57806301ffc9a71461018257806307bd0265146101a5578063248a9ca3146101da575b5f80fd5b610167610118366004610d92565b600360208190525f91825260409091208054600182015460028301549383015460048401546005909401546001600160a01b0393841695939092169367ffffffffffffffff9091169160ff1686565b60405161017996959493929190610dbd565b60405180910390f35b610195610190366004610e20565b6102ed565b6040519015158152602001610179565b6101cc7fd8aa0f3194971a2a116679f7c2090f6939c8d4e01a2a8d7e41d55e5351469e6381565b604051908152602001610179565b6101cc6101e8366004610d92565b5f9081526020819052604090206001015490565b61020f61020a366004610e69565b610323565b005b61020f61021f366004610e69565b61034d565b61020f610385565b60015460ff16610195565b61025e7f000000000000000000000000000000000000000000000000000000000000000081565b6040516001600160a01b039091168152602001610179565b61020f61039a565b6101cc60025481565b610195610295366004610e69565b6103ac565b6101cc5f81565b6101cc6102af366004610e93565b6103d4565b61020f6102c2366004610e69565b61067f565b61020f6102d5366004610d92565b6106a3565b61020f6102e8366004610d92565b610810565b5f6001600160e01b03198216637965db0b60e01b148061031d57506301ffc9a760e01b6001600160e01b03198316145b92915050565b5f8281526020819052604090206001015461033d816109f9565b6103478383610a03565b50505050565b6001600160a01b03811633146103765760405163334bd91960e11b815260040160405180910390fd5b6103808282610a92565b505050565b5f61038f816109f9565b610397610afb565b50565b5f6103a4816109f9565b610397610b4d565b5f918252602082815260408084206001600160a01b0393909316845291905290205460ff1690565b5f6103dd610b88565b6103e5610bae565b6001600160a01b0385166104405760405162461bcd60e51b815260206004820152601b60248201527f455343524f573a20696e76616c69642062656e6566696369617279000000000060448201526064015b60405180910390fd5b5f84116104885760405162461bcd60e51b81526020600482015260166024820152751154d0d493d5ce881a5b9d985b1a5908185b5bdd5b9d60521b6044820152606401610437565b428367ffffffffffffffff16116104e15760405162461bcd60e51b815260206004820152601760248201527f455343524f573a2072656c6561736520696e20706173740000000000000000006044820152606401610437565b60028054905f6104f083610ee2565b909155506040805160c0810182523381526001600160a01b0388811660208084019182528385018a815267ffffffffffffffff8a811660608701908152608087018b81525f60a089018181528b8252600396879052999020885181549089166001600160a01b031991821617825596516001808301805492909a1691909816179097559251600280880191909155905193860180549490921667ffffffffffffffff1990941693909317905551600484015593516005830180549697509395929490939260ff1916919084908111156105cb576105cb610da9565b02179055506106089150506001600160a01b037f000000000000000000000000000000000000000000000000000000000000000016333087610bc9565b6040805185815267ffffffffffffffff851660208201529081018390526001600160a01b03861690339083907f6ecea1a160acfaebb54bfd470b9d74bffc3261088c6b724e31f7480561af832e9060600160405180910390a461067760015f80516020610f0783398151915255565b949350505050565b5f82815260208190526040902060010154610699816109f9565b6103478383610a92565b6106ab610b88565b6106b3610bae565b5f81815260036020526040812090600582015460ff1660028111156106da576106da610da9565b1461071a5760405162461bcd60e51b815260206004820152601060248201526f455343524f573a20696e61637469766560801b6044820152606401610437565b80546001600160a01b031633148061073757506107375f336103ac565b61077c5760405162461bcd60e51b81526020600482015260166024820152751154d0d493d5ce881b9bdd08185d5d1a1bdc9a5e995960521b6044820152606401610437565b60058101805460ff191660029081179091558154908201546107cd917f00000000000000000000000000000000000000000000000000000000000000006001600160a01b0390811692911690610bff565b604051339083907f6f44c80719cb2f74bdbd68b7af10147acb9b52e2675ad02f9c87f09859959938905f90a35061039760015f80516020610f0783398151915255565b610818610b88565b610820610bae565b5f81815260036020526040812090600582015460ff16600281111561084757610847610da9565b146108875760405162461bcd60e51b815260206004820152601060248201526f455343524f573a20696e61637469766560801b6044820152606401610437565b600381015467ffffffffffffffff164210156108de5760405162461bcd60e51b8152602060048201526016602482015275455343524f573a206e6f742072656c65617361626c6560501b6044820152606401610437565b60018101546001600160a01b031633148061091e575061091e7fd8aa0f3194971a2a116679f7c2090f6939c8d4e01a2a8d7e41d55e5351469e63336103ac565b6109635760405162461bcd60e51b81526020600482015260166024820152751154d0d493d5ce881b9bdd08185d5d1a1bdc9a5e995960521b6044820152606401610437565b60058101805460ff1916600190811790915581015460028201546109b6917f00000000000000000000000000000000000000000000000000000000000000006001600160a01b0390811692911690610bff565b604051339083907fefc7f1f15becfaec7a3c17eec78be3fa7adb45698f26fcfd25efe1754c242331905f90a35061039760015f80516020610f0783398151915255565b6103978133610c34565b5f610a0e83836103ac565b610a8b575f838152602081815260408083206001600160a01b03861684529091529020805460ff19166001179055610a433390565b6001600160a01b0316826001600160a01b0316847f2f8788117e7eff1d82e926ec794901d17c78024a50270940304540a733656f0d60405160405180910390a450600161031d565b505f61031d565b5f610a9d83836103ac565b15610a8b575f838152602081815260408083206001600160a01b0386168085529252808320805460ff1916905551339286917ff6391f5c32d9c69d2a47ea670b442974b53935d1edc7fd64eb21e047a839171b9190a450600161031d565b610b03610c71565b6001805460ff191690557f5db9ee0a495bf2e6ff9c91a7834c1ba4fdd244a5e8aa4e537bd38aeae4b073aa335b6040516001600160a01b03909116815260200160405180910390a1565b610b55610b88565b6001805460ff1916811790557f62e78cea01bee320cd4e420270b5ea74000d11b0c9f74754ebdbfc544b05a25833610b30565b60015460ff1615610bac5760405163d93c066560e01b815260040160405180910390fd5b565b610bb6610c94565b60025f80516020610f0783398151915255565b610bd7848484846001610cc3565b61034757604051635274afe760e01b81526001600160a01b0385166004820152602401610437565b610c0c8383836001610d30565b61038057604051635274afe760e01b81526001600160a01b0384166004820152602401610437565b610c3e82826103ac565b610c6d5760405163e2517d3f60e01b81526001600160a01b038216600482015260248101839052604401610437565b5050565b60015460ff16610bac57604051638dfc202b60e01b815260040160405180910390fd5b5f80516020610f0783398151915254600203610bac57604051633ee5aeb560e01b815260040160405180910390fd5b6040516323b872dd60e01b5f8181526001600160a01b038781166004528616602452604485905291602083606481808c5af1925060015f51148316610d1f578383151615610d13573d5f823e3d81fd5b5f883b113d1516831692505b604052505f60605295945050505050565b60405163a9059cbb60e01b5f8181526001600160a01b038616600452602485905291602083604481808b5af1925060015f51148316610d86578383151615610d7a573d5f823e3d81fd5b5f873b113d1516831692505b60405250949350505050565b5f60208284031215610da2575f80fd5b5035919050565b634e487b7160e01b5f52602160045260245ffd5b6001600160a01b038781168252861660208201526040810185905267ffffffffffffffff841660608201526080810183905260c0810160038310610e0f57634e487b7160e01b5f52602160045260245ffd5b8260a0830152979650505050505050565b5f60208284031215610e30575f80fd5b81356001600160e01b031981168114610e47575f80fd5b9392505050565b80356001600160a01b0381168114610e64575f80fd5b919050565b5f8060408385031215610e7a575f80fd5b82359150610e8a60208401610e4e565b90509250929050565b5f805f8060808587031215610ea6575f80fd5b610eaf85610e4e565b935060208501359250604085013567ffffffffffffffff81168114610ed2575f80fd5b9396929550929360600135925050565b5f60018201610eff57634e487b7160e01b5f52601160045260245ffd5b506001019056fe9b779b17422d0df92223018b32b4d1fa46e071723d6817e2486d003becc55f00a2646970667358221220ef749393215ac43107cec440a54b11a2a7bb5a7b84821987dc47dcfaa88cc3d264736f6c63430008180033","opcodes":"PUSH1 0xA0 PUSH1 0x40 MSTORE CALLVALUE DUP1 ISZERO PUSH3 0x10 JUMPI PUSH0 DUP1 REVERT JUMPDEST POP PUSH1 0x40 MLOAD PUSH3 0x11E2 CODESIZE SUB DUP1 PUSH3 0x11E2 DUP4 CODECOPY DUP2 ADD PUSH1 0x40 DUP2 SWAP1 MSTORE PUSH3 0x33 SWAP2 PUSH3 0x222 JUMP JUMPDEST PUSH1 0x1 PUSH32 0x9B779B17422D0DF92223018B32B4D1FA46E071723D6817E2486D003BECC55F00 SSTORE PUSH1 0x1 PUSH1 0x1 PUSH1 0xA0 SHL SUB DUP3 AND PUSH3 0xB3 JUMPI PUSH1 0x40 MLOAD PUSH3 0x461BCD PUSH1 0xE5 SHL DUP2 MSTORE PUSH1 0x20 PUSH1 0x4 DUP3 ADD MSTORE PUSH1 0x15 PUSH1 0x24 DUP3 ADD MSTORE PUSH32 0x455343524F573A20696E76616C696420746F6B656E0000000000000000000000 PUSH1 0x44 DUP3 ADD MSTORE PUSH1 0x64 ADD JUMPDEST PUSH1 0x40 MLOAD DUP1 SWAP2 SUB SWAP1 REVERT JUMPDEST PUSH1 0x1 PUSH1 0x1 PUSH1 0xA0 SHL SUB DUP2 AND PUSH3 0x10B JUMPI PUSH1 0x40 MLOAD PUSH3 0x461BCD PUSH1 0xE5 SHL DUP2 MSTORE PUSH1 0x20 PUSH1 0x4 DUP3 ADD MSTORE PUSH1 0x15 PUSH1 0x24 DUP3 ADD MSTORE PUSH32 0x455343524F573A20696E76616C69642061646D696E0000000000000000000000 PUSH1 0x44 DUP3 ADD MSTORE PUSH1 0x64 ADD PUSH3 0xAA JUMP JUMPDEST PUSH1 0x1 PUSH1 0x1 PUSH1 0xA0 SHL SUB DUP3 AND PUSH1 0x80 MSTORE PUSH3 0x124 PUSH0 DUP3 PUSH3 0x15A JUMP JUMPDEST POP PUSH3 0x151 PUSH32 0xD8AA0F3194971A2A116679F7C2090F6939C8D4E01A2A8D7E41D55E5351469E63 DUP3 PUSH3 0x15A JUMP JUMPDEST POP POP POP PUSH3 0x258 JUMP JUMPDEST PUSH0 DUP3 DUP2 MSTORE PUSH1 0x20 DUP2 DUP2 MSTORE PUSH1 0x40 DUP1 DUP4 KECCAK256 PUSH1 0x1 PUSH1 0x1 PUSH1 0xA0 SHL SUB DUP6 AND DUP5 MSTORE SWAP1 SWAP2 MSTORE DUP2 KECCAK256 SLOAD PUSH1 0xFF AND PUSH3 0x1FD JUMPI PUSH0 DUP4 DUP2 MSTORE PUSH1 0x20 DUP2 DUP2 MSTORE PUSH1 0x40 DUP1 DUP4 KECCAK256 PUSH1 0x1 PUSH1 0x1 PUSH1 0xA0 SHL SUB DUP7 AND DUP5 MSTORE SWAP1 SWAP2 MSTORE SWAP1 KECCAK256 DUP1 SLOAD PUSH1 0xFF NOT AND PUSH1 0x1 OR SWAP1 SSTORE PUSH3 0x1B4 CALLER SWAP1 JUMP JUMPDEST PUSH1 0x1 PUSH1 0x1 PUSH1 0xA0 SHL SUB AND DUP3 PUSH1 0x1 PUSH1 0x1 PUSH1 0xA0 SHL SUB AND DUP5 PUSH32 0x2F8788117E7EFF1D82E926EC794901D17C78024A50270940304540A733656F0D PUSH1 0x40 MLOAD PUSH1 0x40 MLOAD DUP1 SWAP2 SUB SWAP1 LOG4 POP PUSH1 0x1 PUSH3 0x200 JUMP JUMPDEST POP PUSH0 JUMPDEST SWAP3 SWAP2 POP POP JUMP JUMPDEST DUP1 MLOAD PUSH1 0x1 PUSH1 0x1 PUSH1 0xA0 SHL SUB DUP2 AND DUP2 EQ PUSH3 0x21D JUMPI PUSH0 DUP1 REVERT JUMPDEST SWAP2 SWAP1 POP JUMP JUMPDEST PUSH0 DUP1 PUSH1 0x40 DUP4 DUP6 SUB SLT ISZERO PUSH3 0x234 JUMPI PUSH0 DUP1 REVERT JUMPDEST PUSH3 0x23F DUP4 PUSH3 0x206 JUMP JUMPDEST SWAP2 POP PUSH3 0x24F PUSH1 0x20 DUP5 ADD PUSH3 0x206 JUMP JUMPDEST SWAP1 POP SWAP3 POP SWAP3 SWAP1 POP JUMP JUMPDEST PUSH1 0x80 MLOAD PUSH2 0xF5C PUSH3 0x286 PUSH0 CODECOPY PUSH0 DUP2 DUP2 PUSH2 0x23C ADD MSTORE DUP2 DUP2 PUSH2 0x5E0 ADD MSTORE DUP2 DUP2 PUSH2 0x79A ADD MSTORE PUSH2 0x983 ADD MSTORE PUSH2 0xF5C PUSH0 RETURN INVALID PUSH1 0x80 PUSH1 0x40 MSTORE CALLVALUE DUP1 ISZERO PUSH2 0xF JUMPI PUSH0 DUP1 REVERT JUMPDEST POP PUSH1 0x4 CALLDATASIZE LT PUSH2 0x106 JUMPI PUSH0 CALLDATALOAD PUSH1 0xE0 SHR DUP1 PUSH4 0x62B24EA2 GT PUSH2 0x9E JUMPI DUP1 PUSH4 0xA217FDDF GT PUSH2 0x6E JUMPI DUP1 PUSH4 0xA217FDDF EQ PUSH2 0x29A JUMPI DUP1 PUSH4 0xA3796E50 EQ PUSH2 0x2A1 JUMPI DUP1 PUSH4 0xD547741F EQ PUSH2 0x2B4 JUMPI DUP1 PUSH4 0xE0182436 EQ PUSH2 0x2C7 JUMPI DUP1 PUSH4 0xED653164 EQ PUSH2 0x2DA JUMPI PUSH0 DUP1 REVERT JUMPDEST DUP1 PUSH4 0x62B24EA2 EQ PUSH2 0x237 JUMPI DUP1 PUSH4 0x8456CB59 EQ PUSH2 0x276 JUMPI DUP1 PUSH4 0x89CB29DD EQ PUSH2 0x27E JUMPI DUP1 PUSH4 0x91D14854 EQ PUSH2 0x287 JUMPI PUSH0 DUP1 REVERT JUMPDEST DUP1 PUSH4 0x2F2FF15D GT PUSH2 0xD9 JUMPI DUP1 PUSH4 0x2F2FF15D EQ PUSH2 0x1FC JUMPI DUP1 PUSH4 0x36568ABE EQ PUSH2 0x211 JUMPI DUP1 PUSH4 0x3F4BA83A EQ PUSH2 0x224 JUMPI DUP1 PUSH4 0x5C975ABB EQ PUSH2 0x22C JUMPI PUSH0 DUP1 REVERT JUMPDEST DUP1 PUSH4 0x12F52EE EQ PUSH2 0x10A JUMPI DUP1 PUSH4 0x1FFC9A7 EQ PUSH2 0x182 JUMPI DUP1 PUSH4 0x7BD0265 EQ PUSH2 0x1A5 JUMPI DUP1 PUSH4 0x248A9CA3 EQ PUSH2 0x1DA JUMPI JUMPDEST PUSH0 DUP1 REVERT JUMPDEST PUSH2 0x167 PUSH2 0x118 CALLDATASIZE PUSH1 0x4 PUSH2 0xD92 JUMP JUMPDEST PUSH1 0x3 PUSH1 0x20 DUP2 SWAP1 MSTORE PUSH0 SWAP2 DUP3 MSTORE PUSH1 0x40 SWAP1 SWAP2 KECCAK256 DUP1 SLOAD PUSH1 0x1 DUP3 ADD SLOAD PUSH1 0x2 DUP4 ADD SLOAD SWAP4 DUP4 ADD SLOAD PUSH1 0x4 DUP5 ADD SLOAD PUSH1 0x5 SWAP1 SWAP5 ADD SLOAD PUSH1 0x1 PUSH1 0x1 PUSH1 0xA0 SHL SUB SWAP4 DUP5 AND SWAP6 SWAP4 SWAP1 SWAP3 AND SWAP4 PUSH8 0xFFFFFFFFFFFFFFFF SWAP1 SWAP2 AND SWAP2 PUSH1 0xFF AND DUP7 JUMP JUMPDEST PUSH1 0x40 MLOAD PUSH2 0x179 SWAP7 SWAP6 SWAP5 SWAP4 SWAP3 SWAP2 SWAP1 PUSH2 0xDBD JUMP JUMPDEST PUSH1 0x40 MLOAD DUP1 SWAP2 SUB SWAP1 RETURN JUMPDEST PUSH2 0x195 PUSH2 0x190 CALLDATASIZE PUSH1 0x4 PUSH2 0xE20 JUMP JUMPDEST PUSH2 0x2ED JUMP JUMPDEST PUSH1 0x40 MLOAD SWAP1 ISZERO ISZERO DUP2 MSTORE PUSH1 0x20 ADD PUSH2 0x179 JUMP JUMPDEST PUSH2 0x1CC PUSH32 0xD8AA0F3194971A2A116679F7C2090F6939C8D4E01A2A8D7E41D55E5351469E63 DUP2 JUMP JUMPDEST PUSH1 0x40 MLOAD SWAP1 DUP2 MSTORE PUSH1 0x20 ADD PUSH2 0x179 JUMP JUMPDEST PUSH2 0x1CC PUSH2 0x1E8 CALLDATASIZE PUSH1 0x4 PUSH2 0xD92 JUMP JUMPDEST PUSH0 SWAP1 DUP2 MSTORE PUSH1 0x20 DUP2 SWAP1 MSTORE PUSH1 0x40 SWAP1 KECCAK256 PUSH1 0x1 ADD SLOAD SWAP1 JUMP JUMPDEST PUSH2 0x20F PUSH2 0x20A CALLDATASIZE PUSH1 0x4 PUSH2 0xE69 JUMP JUMPDEST PUSH2 0x323 JUMP JUMPDEST STOP JUMPDEST PUSH2 0x20F PUSH2 0x21F CALLDATASIZE PUSH1 0x4 PUSH2 0xE69 JUMP JUMPDEST PUSH2 0x34D JUMP JUMPDEST PUSH2 0x20F PUSH2 0x385 JUMP JUMPDEST PUSH1 0x1 SLOAD PUSH1 0xFF AND PUSH2 0x195 JUMP JUMPDEST PUSH2 0x25E PUSH32 0x0 DUP2 JUMP JUMPDEST PUSH1 0x40 MLOAD PUSH1 0x1 PUSH1 0x1 PUSH1 0xA0 SHL SUB SWAP1 SWAP2 AND DUP2 MSTORE PUSH1 0x20 ADD PUSH2 0x179 JUMP JUMPDEST PUSH2 0x20F PUSH2 0x39A JUMP JUMPDEST PUSH2 0x1CC PUSH1 0x2 SLOAD DUP2 JUMP JUMPDEST PUSH2 0x195 PUSH2 0x295 CALLDATASIZE PUSH1 0x4 PUSH2 0xE69 JUMP JUMPDEST PUSH2 0x3AC JUMP JUMPDEST PUSH2 0x1CC PUSH0 DUP2 JUMP JUMPDEST PUSH2 0x1CC PUSH2 0x2AF CALLDATASIZE PUSH1 0x4 PUSH2 0xE93 JUMP JUMPDEST PUSH2 0x3D4 JUMP JUMPDEST PUSH2 0x20F PUSH2 0x2C2 CALLDATASIZE PUSH1 0x4 PUSH2 0xE69 JUMP JUMPDEST PUSH2 0x67F JUMP JUMPDEST PUSH2 0x20F PUSH2 0x2D5 CALLDATASIZE PUSH1 0x4 PUSH2 0xD92 JUMP JUMPDEST PUSH2 0x6A3 JUMP JUMPDEST PUSH2 0x20F PUSH2 0x2E8 CALLDATASIZE PUSH1 0x4 PUSH2 0xD92 JUMP JUMPDEST PUSH2 0x810 JUMP JUMPDEST PUSH0 PUSH1 0x1 PUSH1 0x1 PUSH1 0xE0 SHL SUB NOT DUP3 AND PUSH4 0x7965DB0B PUSH1 0xE0 SHL EQ DUP1 PUSH2 0x31D JUMPI POP PUSH4 0x1FFC9A7 PUSH1 0xE0 SHL PUSH1 0x1 PUSH1 0x1 PUSH1 0xE0 SHL SUB NOT DUP4 AND EQ JUMPDEST SWAP3 SWAP2 POP POP JUMP JUMPDEST PUSH0 DUP3 DUP2 MSTORE PUSH1 0x20 DUP2 SWAP1 MSTORE PUSH1 0x40 SWAP1 KECCAK256 PUSH1 0x1 ADD SLOAD PUSH2 0x33D DUP2 PUSH2 0x9F9 JUMP JUMPDEST PUSH2 0x347 DUP4 DUP4 PUSH2 0xA03 JUMP JUMPDEST POP POP POP POP JUMP JUMPDEST PUSH1 0x1 PUSH1 0x1 PUSH1 0xA0 SHL SUB DUP2 AND CALLER EQ PUSH2 0x376 JUMPI PUSH1 0x40 MLOAD PUSH4 0x334BD919 PUSH1 0xE1 SHL DUP2 MSTORE PUSH1 0x4 ADD PUSH1 0x40 MLOAD DUP1 SWAP2 SUB SWAP1 REVERT JUMPDEST PUSH2 0x380 DUP3 DUP3 PUSH2 0xA92 JUMP JUMPDEST POP POP POP JUMP JUMPDEST PUSH0 PUSH2 0x38F DUP2 PUSH2 0x9F9 JUMP JUMPDEST PUSH2 0x397 PUSH2 0xAFB JUMP JUMPDEST POP JUMP JUMPDEST PUSH0 PUSH2 0x3A4 DUP2 PUSH2 0x9F9 JUMP JUMPDEST PUSH2 0x397 PUSH2 0xB4D JUMP JUMPDEST PUSH0 SWAP2 DUP3 MSTORE PUSH1 0x20 DUP3 DUP2 MSTORE PUSH1 0x40 DUP1 DUP5 KECCAK256 PUSH1 0x1 PUSH1 0x1 PUSH1 0xA0 SHL SUB SWAP4 SWAP1 SWAP4 AND DUP5 MSTORE SWAP2 SWAP1 MSTORE SWAP1 KECCAK256 SLOAD PUSH1 0xFF AND SWAP1 JUMP JUMPDEST PUSH0 PUSH2 0x3DD PUSH2 0xB88 JUMP JUMPDEST PUSH2 0x3E5 PUSH2 0xBAE JUMP JUMPDEST PUSH1 0x1 PUSH1 0x1 PUSH1 0xA0 SHL SUB DUP6 AND PUSH2 0x440 JUMPI PUSH1 0x40 MLOAD PUSH3 0x461BCD PUSH1 0xE5 SHL DUP2 MSTORE PUSH1 0x20 PUSH1 0x4 DUP3 ADD MSTORE PUSH1 0x1B PUSH1 0x24 DUP3 ADD MSTORE PUSH32 0x455343524F573A20696E76616C69642062656E65666963696172790000000000 PUSH1 0x44 DUP3 ADD MSTORE PUSH1 0x64 ADD JUMPDEST PUSH1 0x40 MLOAD DUP1 SWAP2 SUB SWAP1 REVERT JUMPDEST PUSH0 DUP5 GT PUSH2 0x488 JUMPI PUSH1 0x40 MLOAD PUSH3 0x461BCD PUSH1 0xE5 SHL DUP2 MSTORE PUSH1 0x20 PUSH1 0x4 DUP3 ADD MSTORE PUSH1 0x16 PUSH1 0x24 DUP3 ADD MSTORE PUSH22 0x1154D0D493D5CE881A5B9D985B1A5908185B5BDD5B9D PUSH1 0x52 SHL PUSH1 0x44 DUP3 ADD MSTORE PUSH1 0x64 ADD PUSH2 0x437 JUMP JUMPDEST TIMESTAMP DUP4 PUSH8 0xFFFFFFFFFFFFFFFF AND GT PUSH2 0x4E1 JUMPI PUSH1 0x40 MLOAD PUSH3 0x461BCD PUSH1 0xE5 SHL DUP2 MSTORE PUSH1 0x20 PUSH1 0x4 DUP3 ADD MSTORE PUSH1 0x17 PUSH1 0x24 DUP3 ADD MSTORE PUSH32 0x455343524F573A2072656C6561736520696E2070617374000000000000000000 PUSH1 0x44 DUP3 ADD MSTORE PUSH1 0x64 ADD PUSH2 0x437 JUMP JUMPDEST PUSH1 0x2 DUP1 SLOAD SWAP1 PUSH0 PUSH2 0x4F0 DUP4 PUSH2 0xEE2 JUMP JUMPDEST SWAP1 SWAP2 SSTORE POP PUSH1 0x40 DUP1 MLOAD PUSH1 0xC0 DUP2 ADD DUP3 MSTORE CALLER DUP2 MSTORE PUSH1 0x1 PUSH1 0x1 PUSH1 0xA0 SHL SUB DUP9 DUP2 AND PUSH1 0x20 DUP1 DUP5 ADD SWAP2 DUP3 MSTORE DUP4 DUP6 ADD DUP11 DUP2 MSTORE PUSH8 0xFFFFFFFFFFFFFFFF DUP11 DUP2 AND PUSH1 0x60 DUP8 ADD SWAP1 DUP2 MSTORE PUSH1 0x80 DUP8 ADD DUP12 DUP2 MSTORE PUSH0 PUSH1 0xA0 DUP10 ADD DUP2 DUP2 MSTORE DUP12 DUP3 MSTORE PUSH1 0x3 SWAP7 DUP8 SWAP1 MSTORE SWAP10 SWAP1 KECCAK256 DUP9 MLOAD DUP2 SLOAD SWAP1 DUP10 AND PUSH1 0x1 PUSH1 0x1 PUSH1 0xA0 SHL SUB NOT SWAP2 DUP3 AND OR DUP3 SSTORE SWAP7 MLOAD PUSH1 0x1 DUP1 DUP4 ADD DUP1 SLOAD SWAP3 SWAP1 SWAP11 AND SWAP2 SWAP1 SWAP9 AND OR SWAP1 SWAP8 SSTORE SWAP3 MLOAD PUSH1 0x2 DUP1 DUP9 ADD SWAP2 SWAP1 SWAP2 SSTORE SWAP1 MLOAD SWAP4 DUP7 ADD DUP1 SLOAD SWAP5 SWAP1 SWAP3 AND PUSH8 0xFFFFFFFFFFFFFFFF NOT SWAP1 SWAP5 AND SWAP4 SWAP1 SWAP4 OR SWAP1 SSTORE MLOAD PUSH1 0x4 DUP5 ADD SSTORE SWAP4 MLOAD PUSH1 0x5 DUP4 ADD DUP1 SLOAD SWAP7 SWAP8 POP SWAP4 SWAP6 SWAP3 SWAP5 SWAP1 SWAP4 SWAP3 PUSH1 0xFF NOT AND SWAP2 SWAP1 DUP5 SWAP1 DUP2 GT ISZERO PUSH2 0x5CB JUMPI PUSH2 0x5CB PUSH2 0xDA9 JUMP JUMPDEST MUL OR SWAP1 SSTORE POP PUSH2 0x608 SWAP2 POP POP PUSH1 0x1 PUSH1 0x1 PUSH1 0xA0 SHL SUB PUSH32 0x0 AND CALLER ADDRESS DUP8 PUSH2 0xBC9 JUMP JUMPDEST PUSH1 0x40 DUP1 MLOAD DUP6 DUP2 MSTORE PUSH8 0xFFFFFFFFFFFFFFFF DUP6 AND PUSH1 0x20 DUP3 ADD MSTORE SWAP1 DUP2 ADD DUP4 SWAP1 MSTORE PUSH1 0x1 PUSH1 0x1 PUSH1 0xA0 SHL SUB DUP7 AND SWAP1 CALLER SWAP1 DUP4 SWAP1 PUSH32 0x6ECEA1A160ACFAEBB54BFD470B9D74BFFC3261088C6B724E31F7480561AF832E SWAP1 PUSH1 0x60 ADD PUSH1 0x40 MLOAD DUP1 SWAP2 SUB SWAP1 LOG4 PUSH2 0x677 PUSH1 0x1 PUSH0 DUP1 MLOAD PUSH1 0x20 PUSH2 0xF07 DUP4 CODECOPY DUP2 MLOAD SWAP2 MSTORE SSTORE JUMP JUMPDEST SWAP5 SWAP4 POP POP POP POP JUMP JUMPDEST PUSH0 DUP3 DUP2 MSTORE PUSH1 0x20 DUP2 SWAP1 MSTORE PUSH1 0x40 SWAP1 KECCAK256 PUSH1 0x1 ADD SLOAD PUSH2 0x699 DUP2 PUSH2 0x9F9 JUMP JUMPDEST PUSH2 0x347 DUP4 DUP4 PUSH2 0xA92 JUMP JUMPDEST PUSH2 0x6AB PUSH2 0xB88 JUMP JUMPDEST PUSH2 0x6B3 PUSH2 0xBAE JUMP JUMPDEST PUSH0 DUP2 DUP2 MSTORE PUSH1 0x3 PUSH1 0x20 MSTORE PUSH1 0x40 DUP2 KECCAK256 SWAP1 PUSH1 0x5 DUP3 ADD SLOAD PUSH1 0xFF AND PUSH1 0x2 DUP2 GT ISZERO PUSH2 0x6DA JUMPI PUSH2 0x6DA PUSH2 0xDA9 JUMP JUMPDEST EQ PUSH2 0x71A JUMPI PUSH1 0x40 MLOAD PUSH3 0x461BCD PUSH1 0xE5 SHL DUP2 MSTORE PUSH1 0x20 PUSH1 0x4 DUP3 ADD MSTORE PUSH1 0x10 PUSH1 0x24 DUP3 ADD MSTORE PUSH16 0x455343524F573A20696E616374697665 PUSH1 0x80 SHL PUSH1 0x44 DUP3 ADD MSTORE PUSH1 0x64 ADD PUSH2 0x437 JUMP JUMPDEST DUP1 SLOAD PUSH1 0x1 PUSH1 0x1 PUSH1 0xA0 SHL SUB AND CALLER EQ DUP1 PUSH2 0x737 JUMPI POP PUSH2 0x737 PUSH0 CALLER PUSH2 0x3AC JUMP JUMPDEST PUSH2 0x77C JUMPI PUSH1 0x40 MLOAD PUSH3 0x461BCD PUSH1 0xE5 SHL DUP2 MSTORE PUSH1 0x20 PUSH1 0x4 DUP3 ADD MSTORE PUSH1 0x16 PUSH1 0x24 DUP3 ADD MSTORE PUSH22 0x1154D0D493D5CE881B9BDD08185D5D1A1BDC9A5E9959 PUSH1 0x52 SHL PUSH1 0x44 DUP3 ADD MSTORE PUSH1 0x64 ADD PUSH2 0x437 JUMP JUMPDEST PUSH1 0x5 DUP2 ADD DUP1 SLOAD PUSH1 0xFF NOT AND PUSH1 0x2 SWAP1 DUP2 OR SWAP1 SWAP2 SSTORE DUP2 SLOAD SWAP1 DUP3 ADD SLOAD PUSH2 0x7CD SWAP2 PUSH32 0x0 PUSH1 0x1 PUSH1 0x1 PUSH1 0xA0 SHL SUB SWAP1 DUP2 AND SWAP3 SWAP2 AND SWAP1 PUSH2 0xBFF JUMP JUMPDEST PUSH1 0x40 MLOAD CALLER SWAP1 DUP4 SWAP1 PUSH32 0x6F44C80719CB2F74BDBD68B7AF10147ACB9B52E2675AD02F9C87F09859959938 SWAP1 PUSH0 SWAP1 LOG3 POP PUSH2 0x397 PUSH1 0x1 PUSH0 DUP1 MLOAD PUSH1 0x20 PUSH2 0xF07 DUP4 CODECOPY DUP2 MLOAD SWAP2 MSTORE SSTORE JUMP JUMPDEST PUSH2 0x818 PUSH2 0xB88 JUMP JUMPDEST PUSH2 0x820 PUSH2 0xBAE JUMP JUMPDEST PUSH0 DUP2 DUP2 MSTORE PUSH1 0x3 PUSH1 0x20 MSTORE PUSH1 0x40 DUP2 KECCAK256 SWAP1 PUSH1 0x5 DUP3 ADD SLOAD PUSH1 0xFF AND PUSH1 0x2 DUP2 GT ISZERO PUSH2 0x847 JUMPI PUSH2 0x847 PUSH2 0xDA9 JUMP JUMPDEST EQ PUSH2 0x887 JUMPI PUSH1 0x40 MLOAD PUSH3 0x461BCD PUSH1 0xE5 SHL DUP2 MSTORE PUSH1 0x20 PUSH1 0x4 DUP3 ADD MSTORE PUSH1 0x10 PUSH1 0x24 DUP3 ADD MSTORE PUSH16 0x455343524F573A20696E616374697665 PUSH1 0x80 SHL PUSH1 0x44 DUP3 ADD MSTORE PUSH1 0x64 ADD PUSH2 0x437 JUMP JUMPDEST PUSH1 0x3 DUP2 ADD SLOAD PUSH8 0xFFFFFFFFFFFFFFFF AND TIMESTAMP LT ISZERO PUSH2 0x8DE JUMPI PUSH1 0x40 MLOAD PUSH3 0x461BCD PUSH1 0xE5 SHL DUP2 MSTORE PUSH1 0x20 PUSH1 0x4 DUP3 ADD MSTORE PUSH1 0x16 PUSH1 0x24 DUP3 ADD MSTORE PUSH22 0x455343524F573A206E6F742072656C65617361626C65 PUSH1 0x50 SHL PUSH1 0x44 DUP3 ADD MSTORE PUSH1 0x64 ADD PUSH2 0x437 JUMP JUMPDEST PUSH1 0x1 DUP2 ADD SLOAD PUSH1 0x1 PUSH1 0x1 PUSH1 0xA0 SHL SUB AND CALLER EQ DUP1 PUSH2 0x91E JUMPI POP PUSH2 0x91E PUSH32 0xD8AA0F3194971A2A116679F7C2090F6939C8D4E01A2A8D7E41D55E5351469E63 CALLER PUSH2 0x3AC JUMP JUMPDEST PUSH2 0x963 JUMPI PUSH1 0x40 MLOAD PUSH3 0x461BCD PUSH1 0xE5 SHL DUP2 MSTORE PUSH1 0x20 PUSH1 0x4 DUP3 ADD MSTORE PUSH1 0x16 PUSH1 0x24 DUP3 ADD MSTORE PUSH22 0x1154D0D493D5CE881B9BDD08185D5D1A1BDC9A5E9959 PUSH1 0x52 SHL PUSH1 0x44 DUP3 ADD MSTORE PUSH1 0x64 ADD PUSH2 0x437 JUMP JUMPDEST PUSH1 0x5 DUP2 ADD DUP1 SLOAD PUSH1 0xFF NOT AND PUSH1 0x1 SWAP1 DUP2 OR SWAP1 SWAP2 SSTORE DUP2 ADD SLOAD PUSH1 0x2 DUP3 ADD SLOAD PUSH2 0x9B6 SWAP2 PUSH32 0x0 PUSH1 0x1 PUSH1 0x1 PUSH1 0xA0 SHL SUB SWAP1 DUP2 AND SWAP3 SWAP2 AND SWAP1 PUSH2 0xBFF JUMP JUMPDEST PUSH1 0x40 MLOAD CALLER SWAP1 DUP4 SWAP1 PUSH32 0xEFC7F1F15BECFAEC7A3C17EEC78BE3FA7ADB45698F26FCFD25EFE1754C242331 SWAP1 PUSH0 SWAP1 LOG3 POP PUSH2 0x397 PUSH1 0x1 PUSH0 DUP1 MLOAD PUSH1 0x20 PUSH2 0xF07 DUP4 CODECOPY DUP2 MLOAD SWAP2 MSTORE SSTORE JUMP JUMPDEST PUSH2 0x397 DUP2 CALLER PUSH2 0xC34 JUMP JUMPDEST PUSH0 PUSH2 0xA0E DUP4 DUP4 PUSH2 0x3AC JUMP JUMPDEST PUSH2 0xA8B JUMPI PUSH0 DUP4 DUP2 MSTORE PUSH1 0x20 DUP2 DUP2 MSTORE PUSH1 0x40 DUP1 DUP4 KECCAK256 PUSH1 0x1 PUSH1 0x1 PUSH1 0xA0 SHL SUB DUP7 AND DUP5 MSTORE SWAP1 SWAP2 MSTORE SWAP1 KECCAK256 DUP1 SLOAD PUSH1 0xFF NOT AND PUSH1 0x1 OR SWAP1 SSTORE PUSH2 0xA43 CALLER SWAP1 JUMP JUMPDEST PUSH1 0x1 PUSH1 0x1 PUSH1 0xA0 SHL SUB AND DUP3 PUSH1 0x1 PUSH1 0x1 PUSH1 0xA0 SHL SUB AND DUP5 PUSH32 0x2F8788117E7EFF1D82E926EC794901D17C78024A50270940304540A733656F0D PUSH1 0x40 MLOAD PUSH1 0x40 MLOAD DUP1 SWAP2 SUB SWAP1 LOG4 POP PUSH1 0x1 PUSH2 0x31D JUMP JUMPDEST POP PUSH0 PUSH2 0x31D JUMP JUMPDEST PUSH0 PUSH2 0xA9D DUP4 DUP4 PUSH2 0x3AC JUMP JUMPDEST ISZERO PUSH2 0xA8B JUMPI PUSH0 DUP4 DUP2 MSTORE PUSH1 0x20 DUP2 DUP2 MSTORE PUSH1 0x40 DUP1 DUP4 KECCAK256 PUSH1 0x1 PUSH1 0x1 PUSH1 0xA0 SHL SUB DUP7 AND DUP1 DUP6 MSTORE SWAP3 MSTORE DUP1 DUP4 KECCAK256 DUP1 SLOAD PUSH1 0xFF NOT AND SWAP1 SSTORE MLOAD CALLER SWAP3 DUP7 SWAP2 PUSH32 0xF6391F5C32D9C69D2A47EA670B442974B53935D1EDC7FD64EB21E047A839171B SWAP2 SWAP1 LOG4 POP PUSH1 0x1 PUSH2 0x31D JUMP JUMPDEST PUSH2 0xB03 PUSH2 0xC71 JUMP JUMPDEST PUSH1 0x1 DUP1 SLOAD PUSH1 0xFF NOT AND SWAP1 SSTORE PUSH32 0x5DB9EE0A495BF2E6FF9C91A7834C1BA4FDD244A5E8AA4E537BD38AEAE4B073AA CALLER JUMPDEST PUSH1 0x40 MLOAD PUSH1 0x1 PUSH1 0x1 PUSH1 0xA0 SHL SUB SWAP1 SWAP2 AND DUP2 MSTORE PUSH1 0x20 ADD PUSH1 0x40 MLOAD DUP1 SWAP2 SUB SWAP1 LOG1 JUMP JUMPDEST PUSH2 0xB55 PUSH2 0xB88 JUMP JUMPDEST PUSH1 0x1 DUP1 SLOAD PUSH1 0xFF NOT AND DUP2 OR SWAP1 SSTORE PUSH32 0x62E78CEA01BEE320CD4E420270B5EA74000D11B0C9F74754EBDBFC544B05A258 CALLER PUSH2 0xB30 JUMP JUMPDEST PUSH1 0x1 SLOAD PUSH1 0xFF AND ISZERO PUSH2 0xBAC JUMPI PUSH1 0x40 MLOAD PUSH4 0xD93C0665 PUSH1 0xE0 SHL DUP2 MSTORE PUSH1 0x4 ADD PUSH1 0x40 MLOAD DUP1 SWAP2 SUB SWAP1 REVERT JUMPDEST JUMP JUMPDEST PUSH2 0xBB6 PUSH2 0xC94 JUMP JUMPDEST PUSH1 0x2 PUSH0 DUP1 MLOAD PUSH1 0x20 PUSH2 0xF07 DUP4 CODECOPY DUP2 MLOAD SWAP2 MSTORE SSTORE JUMP JUMPDEST PUSH2 0xBD7 DUP5 DUP5 DUP5 DUP5 PUSH1 0x1 PUSH2 0xCC3 JUMP JUMPDEST PUSH2 0x347 JUMPI PUSH1 0x40 MLOAD PUSH4 0x5274AFE7 PUSH1 0xE0 SHL DUP2 MSTORE PUSH1 0x1 PUSH1 0x1 PUSH1 0xA0 SHL SUB DUP6 AND PUSH1 0x4 DUP3 ADD MSTORE PUSH1 0x24 ADD PUSH2 0x437 JUMP JUMPDEST PUSH2 0xC0C DUP4 DUP4 DUP4 PUSH1 0x1 PUSH2 0xD30 JUMP JUMPDEST PUSH2 0x380 JUMPI PUSH1 0x40 MLOAD PUSH4 0x5274AFE7 PUSH1 0xE0 SHL DUP2 MSTORE PUSH1 0x1 PUSH1 0x1 PUSH1 0xA0 SHL SUB DUP5 AND PUSH1 0x4 DUP3 ADD MSTORE PUSH1 0x24 ADD PUSH2 0x437 JUMP JUMPDEST PUSH2 0xC3E DUP3 DUP3 PUSH2 0x3AC JUMP JUMPDEST PUSH2 0xC6D JUMPI PUSH1 0x40 MLOAD PUSH4 0xE2517D3F PUSH1 0xE0 SHL DUP2 MSTORE PUSH1 0x1 PUSH1 0x1 PUSH1 0xA0 SHL SUB DUP3 AND PUSH1 0x4 DUP3 ADD MSTORE PUSH1 0x24 DUP2 ADD DUP4 SWAP1 MSTORE PUSH1 0x44 ADD PUSH2 0x437 JUMP JUMPDEST POP POP JUMP JUMPDEST PUSH1 0x1 SLOAD PUSH1 0xFF AND PUSH2 0xBAC JUMPI PUSH1 0x40 MLOAD PUSH4 0x8DFC202B PUSH1 0xE0 SHL DUP2 MSTORE PUSH1 0x4 ADD PUSH1 0x40 MLOAD DUP1 SWAP2 SUB SWAP1 REVERT JUMPDEST PUSH0 DUP1 MLOAD PUSH1 0x20 PUSH2 0xF07 DUP4 CODECOPY DUP2 MLOAD SWAP2 MSTORE SLOAD PUSH1 0x2 SUB PUSH2 0xBAC JUMPI PUSH1 0x40 MLOAD PUSH4 0x3EE5AEB5 PUSH1 0xE0 SHL DUP2 MSTORE PUSH1 0x4 ADD PUSH1 0x40 MLOAD DUP1 SWAP2 SUB SWAP1 REVERT JUMPDEST PUSH1 0x40 MLOAD PUSH4 0x23B872DD PUSH1 0xE0 SHL PUSH0 DUP2 DUP2 MSTORE PUSH1 0x1 PUSH1 0x1 PUSH1 0xA0 SHL SUB DUP8 DUP2 AND PUSH1 0x4 MSTORE DUP7 AND PUSH1 0x24 MSTORE PUSH1 0x44 DUP6 SWAP1 MSTORE SWAP2 PUSH1 0x20 DUP4 PUSH1 0x64 DUP2 DUP1 DUP13 GAS CALL SWAP3 POP PUSH1 0x1 PUSH0 MLOAD EQ DUP4 AND PUSH2 0xD1F JUMPI DUP4 DUP4 ISZERO AND ISZERO PUSH2 0xD13 JUMPI RETURNDATASIZE PUSH0 DUP3 RETURNDATACOPY RETURNDATASIZE DUP2 REVERT JUMPDEST PUSH0 DUP9 EXTCODESIZE GT RETURNDATASIZE ISZERO AND DUP4 AND SWAP3 POP JUMPDEST PUSH1 0x40 MSTORE POP PUSH0 PUSH1 0x60 MSTORE SWAP6 SWAP5 POP POP POP POP POP JUMP JUMPDEST PUSH1 0x40 MLOAD PUSH4 0xA9059CBB PUSH1 0xE0 SHL PUSH0 DUP2 DUP2 MSTORE PUSH1 0x1 PUSH1 0x1 PUSH1 0xA0 SHL SUB DUP7 AND PUSH1 0x4 MSTORE PUSH1 0x24 DUP6 SWAP1 MSTORE SWAP2 PUSH1 0x20 DUP4 PUSH1 0x44 DUP2 DUP1 DUP12 GAS CALL SWAP3 POP PUSH1 0x1 PUSH0 MLOAD EQ DUP4 AND PUSH2 0xD86 JUMPI DUP4 DUP4 ISZERO AND ISZERO PUSH2 0xD7A JUMPI RETURNDATASIZE PUSH0 DUP3 RETURNDATACOPY RETURNDATASIZE DUP2 REVERT JUMPDEST PUSH0 DUP8 EXTCODESIZE GT RETURNDATASIZE ISZERO AND DUP4 AND SWAP3 POP JUMPDEST PUSH1 0x40 MSTORE POP SWAP5 SWAP4 POP POP POP POP JUMP JUMPDEST PUSH0 PUSH1 0x20 DUP3 DUP5 SUB SLT ISZERO PUSH2 0xDA2 JUMPI PUSH0 DUP1 REVERT JUMPDEST POP CALLDATALOAD SWAP2 SWAP1 POP JUMP JUMPDEST PUSH4 0x4E487B71 PUSH1 0xE0 SHL PUSH0 MSTORE PUSH1 0x21 PUSH1 0x4 MSTORE PUSH1 0x24 PUSH0 REVERT JUMPDEST PUSH1 0x1 PUSH1 0x1 PUSH1 0xA0 SHL SUB DUP8 DUP2 AND DUP3 MSTORE DUP7 AND PUSH1 0x20 DUP3 ADD MSTORE PUSH1 0x40 DUP2 ADD DUP6 SWAP1 MSTORE PUSH8 0xFFFFFFFFFFFFFFFF DUP5 AND PUSH1 0x60 DUP3 ADD MSTORE PUSH1 0x80 DUP2 ADD DUP4 SWAP1 MSTORE PUSH1 0xC0 DUP2 ADD PUSH1 0x3 DUP4 LT PUSH2 0xE0F JUMPI PUSH4 0x4E487B71 PUSH1 0xE0 SHL PUSH0 MSTORE PUSH1 0x21 PUSH1 0x4 MSTORE PUSH1 0x24 PUSH0 REVERT JUMPDEST DUP3 PUSH1 0xA0 DUP4 ADD MSTORE SWAP8 SWAP7 POP POP POP POP POP POP POP JUMP JUMPDEST PUSH0 PUSH1 0x20 DUP3 DUP5 SUB SLT ISZERO PUSH2 0xE30 JUMPI PUSH0 DUP1 REVERT JUMPDEST DUP2 CALLDATALOAD PUSH1 0x1 PUSH1 0x1 PUSH1 0xE0 SHL SUB NOT DUP2 AND DUP2 EQ PUSH2 0xE47 JUMPI PUSH0 DUP1 REVERT JUMPDEST SWAP4 SWAP3 POP POP POP JUMP JUMPDEST DUP1 CALLDATALOAD PUSH1 0x1 PUSH1 0x1 PUSH1 0xA0 SHL SUB DUP2 AND DUP2 EQ PUSH2 0xE64 JUMPI PUSH0 DUP1 REVERT JUMPDEST SWAP2 SWAP1 POP JUMP JUMPDEST PUSH0 DUP1 PUSH1 0x40 DUP4 DUP6 SUB SLT ISZERO PUSH2 0xE7A JUMPI PUSH0 DUP1 REVERT JUMPDEST DUP3 CALLDATALOAD SWAP2 POP PUSH2 0xE8A PUSH1 0x20 DUP5 ADD PUSH2 0xE4E JUMP JUMPDEST SWAP1 POP SWAP3 POP SWAP3 SWAP1 POP JUMP JUMPDEST PUSH0 DUP1 PUSH0 DUP1 PUSH1 0x80 DUP6 DUP8 SUB SLT ISZERO PUSH2 0xEA6 JUMPI PUSH0 DUP1 REVERT JUMPDEST PUSH2 0xEAF DUP6 PUSH2 0xE4E JUMP JUMPDEST SWAP4 POP PUSH1 0x20 DUP6 ADD CALLDATALOAD SWAP3 POP PUSH1 0x40 DUP6 ADD CALLDATALOAD PUSH8 0xFFFFFFFFFFFFFFFF DUP2 AND DUP2 EQ PUSH2 0xED2 JUMPI PUSH0 DUP1 REVERT JUMPDEST SWAP4 SWAP7 SWAP3 SWAP6 POP SWAP3 SWAP4 PUSH1 0x60 ADD CALLDATALOAD SWAP3 POP POP JUMP JUMPDEST PUSH0 PUSH1 0x1 DUP3 ADD PUSH2 0xEFF JUMPI PUSH4 0x4E487B71 PUSH1 0xE0 SHL PUSH0 MSTORE PUSH1 0x11 PUSH1 0x4 MSTORE PUSH1 0x24 PUSH0 REVERT JUMPDEST POP PUSH1 0x1 ADD SWAP1 JUMP INVALID SWAP12 PUSH24 0x9B17422D0DF92223018B32B4D1FA46E071723D6817E2486D STOP EXTCODESIZE 0xEC 0xC5 PUSH0 STOP LOG2 PUSH5 0x6970667358 0x22 SLT KECCAK256 0xEF PUSH21 0x9393215AC43107CEC440A54B11A2A7BB5A7B848219 DUP8 0xDC SELFBALANCE 0xDC STATICCALL 0xA8 DUP13 0xC3 0xD2 PUSH5 0x736F6C6343 STOP ADDMOD XOR STOP CALLER "},"methodIdentifiers":{"DEFAULT_ADMIN_ROLE()":"a217fddf","EXECUTOR_ROLE()":"07bd0265","cancelEscrow(uint256)":"e0182436","createEscrow(address,uint256,uint64,bytes32)":"a3796e50","escrows(uint256)":"012f52ee","getRoleAdmin(bytes32)":"248a9ca3","grantRole(bytes32,address)":"2f2ff15d","hasRole(bytes32,address)":"91d14854","nextEscrowId()":"89cb29dd","pause()":"8456cb59","paused()":"5c975abb","releaseEscrow(uint256)":"ed653164","renounceRole(bytes32,address)":"36568abe","revokeRole(bytes32,address)":"d547741f","sglToken()":"62b24ea2","supportsInterface(bytes4)":"01ffc9a7","unpause()":"3f4ba83a"}}}}}