{
  "_format": "hh-sol-artifact-1",
  "contractName": "WhiteLabelRegistry",
  "sourceName": "contracts/WhiteLabelRegistry.sol",
  "abi": [
    {
      "inputs": [
        {
          "internalType": "address",
          "name": "admin",
          "type": "address"
        }
      ],
      "stateMutability": "nonpayable",
      "type": "constructor"
    },
    {
      "inputs": [],
      "name": "AccessControlBadConfirmation",
      "type": "error"
    },
    {
      "inputs": [
        {
          "internalType": "address",
          "name": "account",
          "type": "address"
        },
        {
          "internalType": "bytes32",
          "name": "neededRole",
          "type": "bytes32"
        }
      ],
      "name": "AccessControlUnauthorizedAccount",
      "type": "error"
    },
    {
      "inputs": [],
      "name": "EnforcedPause",
      "type": "error"
    },
    {
      "inputs": [],
      "name": "ExpectedPause",
      "type": "error"
    },
    {
      "anonymous": false,
      "inputs": [
        {
          "indexed": true,
          "internalType": "string",
          "name": "partnerCode",
          "type": "string"
        },
        {
          "indexed": true,
          "internalType": "address",
          "name": "operator",
          "type": "address"
        },
        {
          "indexed": false,
          "internalType": "bytes32",
          "name": "kycHash",
          "type": "bytes32"
        }
      ],
      "name": "PartnerActivated",
      "type": "event"
    },
    {
      "anonymous": false,
      "inputs": [
        {
          "indexed": true,
          "internalType": "string",
          "name": "partnerCode",
          "type": "string"
        },
        {
          "indexed": false,
          "internalType": "string",
          "name": "name",
          "type": "string"
        },
        {
          "indexed": false,
          "internalType": "enum WhiteLabelRegistry.PartnerType",
          "name": "partnerType",
          "type": "uint8"
        },
        {
          "indexed": false,
          "internalType": "address",
          "name": "partnerWallet",
          "type": "address"
        },
        {
          "indexed": false,
          "internalType": "string",
          "name": "jurisdictionCode",
          "type": "string"
        }
      ],
      "name": "PartnerRegistered",
      "type": "event"
    },
    {
      "anonymous": false,
      "inputs": [
        {
          "indexed": true,
          "internalType": "string",
          "name": "partnerCode",
          "type": "string"
        },
        {
          "indexed": true,
          "internalType": "address",
          "name": "operator",
          "type": "address"
        },
        {
          "indexed": false,
          "internalType": "string",
          "name": "reason",
          "type": "string"
        }
      ],
      "name": "PartnerRevoked",
      "type": "event"
    },
    {
      "anonymous": false,
      "inputs": [
        {
          "indexed": true,
          "internalType": "string",
          "name": "partnerCode",
          "type": "string"
        },
        {
          "indexed": false,
          "internalType": "enum WhiteLabelRegistry.SLALevel",
          "name": "oldLevel",
          "type": "uint8"
        },
        {
          "indexed": false,
          "internalType": "enum WhiteLabelRegistry.SLALevel",
          "name": "newLevel",
          "type": "uint8"
        },
        {
          "indexed": false,
          "internalType": "bytes32",
          "name": "newContractHash",
          "type": "bytes32"
        }
      ],
      "name": "PartnerSLAUpdated",
      "type": "event"
    },
    {
      "anonymous": false,
      "inputs": [
        {
          "indexed": true,
          "internalType": "string",
          "name": "partnerCode",
          "type": "string"
        },
        {
          "indexed": true,
          "internalType": "address",
          "name": "operator",
          "type": "address"
        },
        {
          "indexed": false,
          "internalType": "string",
          "name": "reason",
          "type": "string"
        }
      ],
      "name": "PartnerSuspended",
      "type": "event"
    },
    {
      "anonymous": false,
      "inputs": [
        {
          "indexed": false,
          "internalType": "address",
          "name": "account",
          "type": "address"
        }
      ],
      "name": "Paused",
      "type": "event"
    },
    {
      "anonymous": false,
      "inputs": [
        {
          "indexed": true,
          "internalType": "bytes32",
          "name": "role",
          "type": "bytes32"
        },
        {
          "indexed": true,
          "internalType": "bytes32",
          "name": "previousAdminRole",
          "type": "bytes32"
        },
        {
          "indexed": true,
          "internalType": "bytes32",
          "name": "newAdminRole",
          "type": "bytes32"
        }
      ],
      "name": "RoleAdminChanged",
      "type": "event"
    },
    {
      "anonymous": false,
      "inputs": [
        {
          "indexed": true,
          "internalType": "bytes32",
          "name": "role",
          "type": "bytes32"
        },
        {
          "indexed": true,
          "internalType": "address",
          "name": "account",
          "type": "address"
        },
        {
          "indexed": true,
          "internalType": "address",
          "name": "sender",
          "type": "address"
        }
      ],
      "name": "RoleGranted",
      "type": "event"
    },
    {
      "anonymous": false,
      "inputs": [
        {
          "indexed": true,
          "internalType": "bytes32",
          "name": "role",
          "type": "bytes32"
        },
        {
          "indexed": true,
          "internalType": "address",
          "name": "account",
          "type": "address"
        },
        {
          "indexed": true,
          "internalType": "address",
          "name": "sender",
          "type": "address"
        }
      ],
      "name": "RoleRevoked",
      "type": "event"
    },
    {
      "anonymous": false,
      "inputs": [
        {
          "indexed": false,
          "internalType": "address",
          "name": "account",
          "type": "address"
        }
      ],
      "name": "Unpaused",
      "type": "event"
    },
    {
      "inputs": [],
      "name": "COMPLIANCE_ROLE",
      "outputs": [
        {
          "internalType": "bytes32",
          "name": "",
          "type": "bytes32"
        }
      ],
      "stateMutability": "view",
      "type": "function"
    },
    {
      "inputs": [],
      "name": "DEFAULT_ADMIN_ROLE",
      "outputs": [
        {
          "internalType": "bytes32",
          "name": "",
          "type": "bytes32"
        }
      ],
      "stateMutability": "view",
      "type": "function"
    },
    {
      "inputs": [],
      "name": "REGISTRAR_ROLE",
      "outputs": [
        {
          "internalType": "bytes32",
          "name": "",
          "type": "bytes32"
        }
      ],
      "stateMutability": "view",
      "type": "function"
    },
    {
      "inputs": [
        {
          "internalType": "string",
          "name": "partnerCode",
          "type": "string"
        },
        {
          "internalType": "bytes32",
          "name": "kycHash",
          "type": "bytes32"
        }
      ],
      "name": "activatePartner",
      "outputs": [],
      "stateMutability": "nonpayable",
      "type": "function"
    },
    {
      "inputs": [],
      "name": "getAllPartnerCodes",
      "outputs": [
        {
          "internalType": "string[]",
          "name": "",
          "type": "string[]"
        }
      ],
      "stateMutability": "view",
      "type": "function"
    },
    {
      "inputs": [
        {
          "internalType": "string",
          "name": "partnerCode",
          "type": "string"
        }
      ],
      "name": "getPartner",
      "outputs": [
        {
          "components": [
            {
              "internalType": "string",
              "name": "name",
              "type": "string"
            },
            {
              "internalType": "enum WhiteLabelRegistry.PartnerType",
              "name": "partnerType",
              "type": "uint8"
            },
            {
              "internalType": "enum WhiteLabelRegistry.PartnerStatus",
              "name": "status",
              "type": "uint8"
            },
            {
              "internalType": "enum WhiteLabelRegistry.SLALevel",
              "name": "slaLevel",
              "type": "uint8"
            },
            {
              "internalType": "bytes32",
              "name": "contractHash",
              "type": "bytes32"
            },
            {
              "internalType": "bytes32",
              "name": "kycHash",
              "type": "bytes32"
            },
            {
              "internalType": "address",
              "name": "partnerWallet",
              "type": "address"
            },
            {
              "internalType": "uint64",
              "name": "onboardedAt",
              "type": "uint64"
            },
            {
              "internalType": "uint64",
              "name": "lastUpdatedAt",
              "type": "uint64"
            },
            {
              "internalType": "string",
              "name": "jurisdictionCode",
              "type": "string"
            }
          ],
          "internalType": "struct WhiteLabelRegistry.Partner",
          "name": "",
          "type": "tuple"
        }
      ],
      "stateMutability": "view",
      "type": "function"
    },
    {
      "inputs": [
        {
          "internalType": "address",
          "name": "wallet",
          "type": "address"
        }
      ],
      "name": "getPartnerCodeByWallet",
      "outputs": [
        {
          "internalType": "string",
          "name": "",
          "type": "string"
        }
      ],
      "stateMutability": "view",
      "type": "function"
    },
    {
      "inputs": [
        {
          "internalType": "bytes32",
          "name": "role",
          "type": "bytes32"
        }
      ],
      "name": "getRoleAdmin",
      "outputs": [
        {
          "internalType": "bytes32",
          "name": "",
          "type": "bytes32"
        }
      ],
      "stateMutability": "view",
      "type": "function"
    },
    {
      "inputs": [
        {
          "internalType": "bytes32",
          "name": "role",
          "type": "bytes32"
        },
        {
          "internalType": "address",
          "name": "account",
          "type": "address"
        }
      ],
      "name": "grantRole",
      "outputs": [],
      "stateMutability": "nonpayable",
      "type": "function"
    },
    {
      "inputs": [
        {
          "internalType": "bytes32",
          "name": "role",
          "type": "bytes32"
        },
        {
          "internalType": "address",
          "name": "account",
          "type": "address"
        }
      ],
      "name": "hasRole",
      "outputs": [
        {
          "internalType": "bool",
          "name": "",
          "type": "bool"
        }
      ],
      "stateMutability": "view",
      "type": "function"
    },
    {
      "inputs": [
        {
          "internalType": "string",
          "name": "partnerCode",
          "type": "string"
        }
      ],
      "name": "isActive",
      "outputs": [
        {
          "internalType": "bool",
          "name": "",
          "type": "bool"
        }
      ],
      "stateMutability": "view",
      "type": "function"
    },
    {
      "inputs": [],
      "name": "pause",
      "outputs": [],
      "stateMutability": "nonpayable",
      "type": "function"
    },
    {
      "inputs": [],
      "name": "paused",
      "outputs": [
        {
          "internalType": "bool",
          "name": "",
          "type": "bool"
        }
      ],
      "stateMutability": "view",
      "type": "function"
    },
    {
      "inputs": [
        {
          "internalType": "string",
          "name": "partnerCode",
          "type": "string"
        },
        {
          "internalType": "string",
          "name": "name",
          "type": "string"
        },
        {
          "internalType": "enum WhiteLabelRegistry.PartnerType",
          "name": "partnerType",
          "type": "uint8"
        },
        {
          "internalType": "enum WhiteLabelRegistry.SLALevel",
          "name": "slaLevel",
          "type": "uint8"
        },
        {
          "internalType": "bytes32",
          "name": "contractHash",
          "type": "bytes32"
        },
        {
          "internalType": "address",
          "name": "partnerWallet",
          "type": "address"
        },
        {
          "internalType": "string",
          "name": "jurisdictionCode",
          "type": "string"
        }
      ],
      "name": "registerPartner",
      "outputs": [],
      "stateMutability": "nonpayable",
      "type": "function"
    },
    {
      "inputs": [
        {
          "internalType": "bytes32",
          "name": "role",
          "type": "bytes32"
        },
        {
          "internalType": "address",
          "name": "callerConfirmation",
          "type": "address"
        }
      ],
      "name": "renounceRole",
      "outputs": [],
      "stateMutability": "nonpayable",
      "type": "function"
    },
    {
      "inputs": [
        {
          "internalType": "string",
          "name": "partnerCode",
          "type": "string"
        },
        {
          "internalType": "string",
          "name": "reason",
          "type": "string"
        }
      ],
      "name": "revokePartner",
      "outputs": [],
      "stateMutability": "nonpayable",
      "type": "function"
    },
    {
      "inputs": [
        {
          "internalType": "bytes32",
          "name": "role",
          "type": "bytes32"
        },
        {
          "internalType": "address",
          "name": "account",
          "type": "address"
        }
      ],
      "name": "revokeRole",
      "outputs": [],
      "stateMutability": "nonpayable",
      "type": "function"
    },
    {
      "inputs": [
        {
          "internalType": "bytes4",
          "name": "interfaceId",
          "type": "bytes4"
        }
      ],
      "name": "supportsInterface",
      "outputs": [
        {
          "internalType": "bool",
          "name": "",
          "type": "bool"
        }
      ],
      "stateMutability": "view",
      "type": "function"
    },
    {
      "inputs": [
        {
          "internalType": "string",
          "name": "partnerCode",
          "type": "string"
        },
        {
          "internalType": "string",
          "name": "reason",
          "type": "string"
        }
      ],
      "name": "suspendPartner",
      "outputs": [],
      "stateMutability": "nonpayable",
      "type": "function"
    },
    {
      "inputs": [],
      "name": "unpause",
      "outputs": [],
      "stateMutability": "nonpayable",
      "type": "function"
    },
    {
      "inputs": [
        {
          "internalType": "string",
          "name": "partnerCode",
          "type": "string"
        },
        {
          "internalType": "enum WhiteLabelRegistry.SLALevel",
          "name": "newLevel",
          "type": "uint8"
        },
        {
          "internalType": "bytes32",
          "name": "newContractHash",
          "type": "bytes32"
        }
      ],
      "name": "updateSLA",
      "outputs": [],
      "stateMutability": "nonpayable",
      "type": "function"
    }
  ],
  "bytecode": "0x608060405234801562000010575f80fd5b50604051620020853803806200208583398101604081905262000033916200019c565b6001600160a01b038116620000825760405162461bcd60e51b81526020600482015260116024820152702ba61d1034b73b30b634b21030b236b4b760791b604482015260640160405180910390fd5b6200008e5f82620000f0565b50620000bb7fedcc084d3dcd65a1f7f23c65c46722faca6953d28e43150a467cf43e5c30923882620000f0565b50620000e87f442a94f1a1fac79af32856af2a64f63648cfa2ef3b98610a5bb7cbec4cee698582620000f0565b5050620001cb565b5f828152602081815260408083206001600160a01b038516845290915281205460ff1662000193575f838152602081815260408083206001600160a01b03861684529091529020805460ff191660011790556200014a3390565b6001600160a01b0316826001600160a01b0316847f2f8788117e7eff1d82e926ec794901d17c78024a50270940304540a733656f0d60405160405180910390a450600162000196565b505f5b92915050565b5f60208284031215620001ad575f80fd5b81516001600160a01b0381168114620001c4575f80fd5b9392505050565b611eac80620001d95f395ff3fe608060405234801561000f575f80fd5b5060043610610132575f3560e01c806367eb28d3116100b4578063b58c5fca11610079578063b58c5fca14610280578063b6c919ec14610293578063c8902a21146102b3578063c8f044a2146102c6578063d547741f146102d9578063f68e9553146102ec575f80fd5b806367eb28d31461023857806374ac4b581461024b5780638456cb591461025e57806391d1485414610266578063a217fddf14610279575f80fd5b806334b2e85f116100fa57806334b2e85f146101ea57806336568abe146101ff5780633f4ba83a146102125780635c975abb1461021a5780636750075e14610225575f80fd5b806301ffc9a714610136578063062d3bd71461015e5780632246184514610193578063248a9ca3146101b35780632f2ff15d146101d5575b5f80fd5b610149610144366004611686565b610313565b60405190151581526020015b60405180910390f35b6101857f442a94f1a1fac79af32856af2a64f63648cfa2ef3b98610a5bb7cbec4cee698581565b604051908152602001610155565b6101a66101a13660046116f8565b610349565b60405161015591906117c1565b6101856101c13660046118a5565b5f9081526020819052604090206001015490565b6101e86101e33660046118d7565b6105e3565b005b6101f261060d565b6040516101559190611901565b6101e861020d3660046118d7565b6106e1565b6101e8610719565b60015460ff16610149565b6101e8610233366004611963565b61072e565b6101e8610246366004611963565b6108c8565b6101e86102593660046119c9565b610a63565b6101e8610c13565b6101496102743660046118d7565b610c25565b6101855f81565b6101e861028e366004611a1e565b610c4d565b6102a66102a1366004611a75565b610dee565b6040516101559190611a8e565b6101496102c13660046116f8565b610e97565b6101e86102d4366004611aa0565b610ee1565b6101e86102e73660046118d7565b61144d565b6101857fedcc084d3dcd65a1f7f23c65c46722faca6953d28e43150a467cf43e5c30923881565b5f6001600160e01b03198216637965db0b60e01b148061034357506301ffc9a760e01b6001600160e01b03198316145b92915050565b61039e60408051610140810190915260608152602081015f81526020015f81526020015f81525f602082018190526040820181905260608083018290526080830182905260a083019190915260c09091015290565b600283836040516103b0929190611b76565b9081526020016040518091039020604051806101400160405290815f820180546103d990611b85565b80601f016020809104026020016040519081016040528092919081815260200182805461040590611b85565b80156104505780601f1061042757610100808354040283529160200191610450565b820191905f5260205f20905b81548152906001019060200180831161043357829003601f168201915b5050509183525050600182015460209091019060ff16600581111561047757610477611779565b600581111561048857610488611779565b81526020016001820160019054906101000a900460ff1660038111156104b0576104b0611779565b60038111156104c1576104c1611779565b81526020016001820160029054906101000a900460ff1660028111156104e9576104e9611779565b60028111156104fa576104fa611779565b8152600282015460208201526003820154604082015260048201546001600160a01b03811660608301526001600160401b03600160a01b9091048116608083015260058301541660a082015260068201805460c09092019161055b90611b85565b80601f016020809104026020016040519081016040528092919081815260200182805461058790611b85565b80156105d25780601f106105a9576101008083540402835291602001916105d2565b820191905f5260205f20905b8154815290600101906020018083116105b557829003601f168201915b505050505081525050905092915050565b5f828152602081905260409020600101546105fd81611471565b610607838361147b565b50505050565b60606004805480602002602001604051908101604052809291908181526020015f905b828210156106d8578382905f5260205f2001805461064d90611b85565b80601f016020809104026020016040519081016040528092919081815260200182805461067990611b85565b80156106c45780601f1061069b576101008083540402835291602001916106c4565b820191905f5260205f20905b8154815290600101906020018083116106a757829003601f168201915b505050505081526020019060010190610630565b50505050905090565b6001600160a01b038116331461070a5760405163334bd91960e11b815260040160405180910390fd5b610714828261150a565b505050565b5f61072381611471565b61072b611573565b50565b5f61073881611471565b5f6002868660405161074b929190611b76565b90815260405190819003602001902060048101549091506001600160401b03600160a01b909104166107985760405162461bcd60e51b815260040161078f90611bbd565b60405180910390fd5b60036001820154610100900460ff1660038111156107b8576107b8611779565b036107fb5760405162461bcd60e51b815260206004820152601360248201527215d30e88185b1c9958591e481c995d9bdad959606a1b604482015260640161078f565b8261083e5760405162461bcd60e51b815260206004820152601360248201527215d30e881c99585cdbdb881c995c5d5a5c9959606a1b604482015260640161078f565b60018101805461ff00191661030017905560058101805467ffffffffffffffff1916426001600160401b0316179055604051339061087f9088908890611b76565b60405180910390207fa53fffe62cf6ac760a61a5952d6b9f76737945b95f31ba35b2e47f9eb6ed62b586866040516108b8929190611c0c565b60405180910390a3505050505050565b7f442a94f1a1fac79af32856af2a64f63648cfa2ef3b98610a5bb7cbec4cee69856108f281611471565b5f60028686604051610905929190611b76565b90815260405190819003602001902060048101549091506001600160401b03600160a01b909104166109495760405162461bcd60e51b815260040161078f90611bbd565b600180820154610100900460ff16600381111561096857610968611779565b146109a65760405162461bcd60e51b815260206004820152600e60248201526d574c3a206e6f742061637469766560901b604482015260640161078f565b826109e95760405162461bcd60e51b815260206004820152601360248201527215d30e881c99585cdbdb881c995c5d5a5c9959606a1b604482015260640161078f565b60018101805461ff00191661020017905560058101805467ffffffffffffffff1916426001600160401b03161790556040513390610a2a9088908890611b76565b60405180910390207f8b921fa317662d18e9d074b178677b629f12315301e0ac3da0fb36844be1a81886866040516108b8929190611c0c565b7f442a94f1a1fac79af32856af2a64f63648cfa2ef3b98610a5bb7cbec4cee6985610a8d81611471565b5f60028585604051610aa0929190611b76565b90815260405190819003602001902060048101549091506001600160401b03600160a01b90910416610ae45760405162461bcd60e51b815260040161078f90611bbd565b5f6001820154610100900460ff166003811115610b0357610b03611779565b14610b425760405162461bcd60e51b815260206004820152600f60248201526e574c3a206e6f742070656e64696e6760881b604482015260640161078f565b82610b865760405162461bcd60e51b81526020600482015260146024820152730ae987440d2dcecc2d8d2c840d6f2c640d0c2e6d60631b604482015260640161078f565b6001818101805461ff0019166101008302179055506003810183905560058101805467ffffffffffffffff1916426001600160401b03161790556040513390610bd29087908790611b76565b604051908190038120858252907f67547459c3cd740eaa206111bda64d21c4b22cd7c00daa09290fbaf98cfe2c4c9060200160405180910390a35050505050565b5f610c1d81611471565b61072b6115c5565b5f918252602082815260408084206001600160a01b0393909316845291905290205460ff1690565b7fedcc084d3dcd65a1f7f23c65c46722faca6953d28e43150a467cf43e5c309238610c7781611471565b5f60028686604051610c8a929190611b76565b9081526040519081900360200190209050600180820154610100900460ff166003811115610cba57610cba611779565b14610cf85760405162461bcd60e51b815260206004820152600e60248201526d574c3a206e6f742061637469766560901b604482015260640161078f565b82610d385760405162461bcd60e51b815260206004820152601060248201526f0ae987440d2dcecc2d8d2c840d0c2e6d60831b604482015260640161078f565b6001810180546201000080820460ff16928792909162ff00001990911690836002811115610d6857610d68611779565b02179055506002820184905560058201805467ffffffffffffffff1916426001600160401b0316179055604051610da29088908890611b76565b60405180910390207f995a3e71273a521bf51d5f6645e330ede52a674fdb3d04de801d98666f6eab9f828787604051610ddd93929190611c27565b60405180910390a250505050505050565b6001600160a01b0381165f908152600360205260409020805460609190610e1490611b85565b80601f0160208091040260200160405190810160405280929190818152602001828054610e4090611b85565b8015610e8b5780601f10610e6257610100808354040283529160200191610e8b565b820191905f5260205f20905b815481529060010190602001808311610e6e57829003601f168201915b50505050509050919050565b5f600160028484604051610eac929190611b76565b9081526040519081900360200190206001015460ff610100909104166003811115610ed957610ed9611779565b149392505050565b610ee9611600565b7fedcc084d3dcd65a1f7f23c65c46722faca6953d28e43150a467cf43e5c309238610f1381611471565b89610f515760405162461bcd60e51b815260206004820152600e60248201526d574c3a20656d70747920636f646560901b604482015260640161078f565b87610f8f5760405162461bcd60e51b815260206004820152600e60248201526d574c3a20656d707479206e616d6560901b604482015260640161078f565b84610fdc5760405162461bcd60e51b815260206004820152601960248201527f574c3a20696e76616c696420636f6e7472616374206861736800000000000000604482015260640161078f565b6001600160a01b0384166110275760405162461bcd60e51b815260206004820152601260248201527115d30e881a5b9d985b1a59081dd85b1b195d60721b604482015260640161078f565b8161106d5760405162461bcd60e51b81526020600482015260166024820152752ba61d1032b6b83a3c90353ab934b9b234b1ba34b7b760511b604482015260640161078f565b60028b8b60405161107f929190611b76565b908152604051908190036020019020600401546001600160401b03600160a01b90910416156110f05760405162461bcd60e51b815260206004820152601e60248201527f574c3a20706172746e657220616c726561647920726567697374657265640000604482015260640161078f565b6001600160a01b0384165f908152600360205260409020805461111290611b85565b1590506111615760405162461bcd60e51b815260206004820152601960248201527f574c3a2077616c6c657420616c7265616479206c696e6b656400000000000000604482015260640161078f565b6040518061014001604052808a8a8080601f0160208091040260200160405190810160405280939291908181526020018383808284375f920191909152505050908252506020018860058111156111ba576111ba611779565b81526020015f81526020018760028111156111d7576111d7611779565b81526020018681526020015f801b8152602001856001600160a01b03168152602001426001600160401b03168152602001426001600160401b0316815260200184848080601f0160208091040260200160405190810160405280939291908181526020018383808284375f920191909152505050915250604051600290611261908e908e90611b76565b9081526040519081900360200190208151819061127e9082611caf565b50602082015160018083018054909160ff19909116908360058111156112a6576112a6611779565b0217905550604082015160018201805461ff0019166101008360038111156112d0576112d0611779565b0217905550606082015160018201805462ff00001916620100008360028111156112fc576112fc611779565b02179055506080820151600282015560a0820151600382015560c082015160048201805460e08501516001600160a01b039093166001600160e01b031990911617600160a01b6001600160401b039384160217905561010083015160058301805467ffffffffffffffff19169190921617905561012082015160068201906113849082611caf565b5050506001600160a01b0384165f9081526003602052604090206113a98b8d83611d6e565b50600480546001810182555f919091527f8a35acfbc15ff81a39ae7d344fd709f28e8600b4aa8c65c6b64bfe7fe36bd19b016113e68b8d83611d6e565b508a8a6040516113f7929190611b76565b60405180910390207f91811fc601bdea79fa216c7da18b8085f49bf0078ce43ff4f8aae55a95c682698a8a8a88888860405161143896959493929190611e27565b60405180910390a25050505050505050505050565b5f8281526020819052604090206001015461146781611471565b610607838361150a565b61072b8133611626565b5f6114868383610c25565b611503575f838152602081815260408083206001600160a01b03861684529091529020805460ff191660011790556114bb3390565b6001600160a01b0316826001600160a01b0316847f2f8788117e7eff1d82e926ec794901d17c78024a50270940304540a733656f0d60405160405180910390a4506001610343565b505f610343565b5f6115158383610c25565b15611503575f838152602081815260408083206001600160a01b0386168085529252808320805460ff1916905551339286917ff6391f5c32d9c69d2a47ea670b442974b53935d1edc7fd64eb21e047a839171b9190a4506001610343565b61157b611663565b6001805460ff191690557f5db9ee0a495bf2e6ff9c91a7834c1ba4fdd244a5e8aa4e537bd38aeae4b073aa335b6040516001600160a01b03909116815260200160405180910390a1565b6115cd611600565b6001805460ff1916811790557f62e78cea01bee320cd4e420270b5ea74000d11b0c9f74754ebdbfc544b05a258336115a8565b60015460ff16156116245760405163d93c066560e01b815260040160405180910390fd5b565b6116308282610c25565b61165f5760405163e2517d3f60e01b81526001600160a01b03821660048201526024810183905260440161078f565b5050565b60015460ff1661162457604051638dfc202b60e01b815260040160405180910390fd5b5f60208284031215611696575f80fd5b81356001600160e01b0319811681146116ad575f80fd5b9392505050565b5f8083601f8401126116c4575f80fd5b5081356001600160401b038111156116da575f80fd5b6020830191508360208285010111156116f1575f80fd5b9250929050565b5f8060208385031215611709575f80fd5b82356001600160401b0381111561171e575f80fd5b61172a858286016116b4565b90969095509350505050565b5f81518084525f5b8181101561175a5760208185018101518683018201520161173e565b505f602082860101526020601f19601f83011685010191505092915050565b634e487b7160e01b5f52602160045260245ffd5b6006811061179d5761179d611779565b9052565b6004811061179d5761179d611779565b6003811061179d5761179d611779565b602081525f82516101408060208501526117df610160850183611736565b915060208501516117f3604086018261178d565b50604085015161180660608601826117a1565b50606085015161181960808601826117b1565b50608085015160a085015260a085015160c085015260c085015161184860e08601826001600160a01b03169052565b5060e0850151610100611865818701836001600160401b03169052565b8601519050610120611881868201836001600160401b03169052565b860151858403601f190183870152905061189b8382611736565b9695505050505050565b5f602082840312156118b5575f80fd5b5035919050565b80356001600160a01b03811681146118d2575f80fd5b919050565b5f80604083850312156118e8575f80fd5b823591506118f8602084016118bc565b90509250929050565b5f60208083016020845280855180835260408601915060408160051b8701019250602087015f5b8281101561195657603f19888603018452611944858351611736565b94509285019290850190600101611928565b5092979650505050505050565b5f805f8060408587031215611976575f80fd5b84356001600160401b038082111561198c575f80fd5b611998888389016116b4565b909650945060208701359150808211156119b0575f80fd5b506119bd878288016116b4565b95989497509550505050565b5f805f604084860312156119db575f80fd5b83356001600160401b038111156119f0575f80fd5b6119fc868287016116b4565b909790965060209590950135949350505050565b8035600381106118d2575f80fd5b5f805f8060608587031215611a31575f80fd5b84356001600160401b03811115611a46575f80fd5b611a52878288016116b4565b9095509350611a65905060208601611a10565b9396929550929360400135925050565b5f60208284031215611a85575f80fd5b6116ad826118bc565b602081525f6116ad6020830184611736565b5f805f805f805f805f8060e08b8d031215611ab9575f80fd5b8a356001600160401b0380821115611acf575f80fd5b611adb8e838f016116b4565b909c509a5060208d0135915080821115611af3575f80fd5b611aff8e838f016116b4565b909a50985060408d0135915060068210611b17575f80fd5b819750611b2660608e01611a10565b965060808d01359550611b3b60a08e016118bc565b945060c08d0135915080821115611b50575f80fd5b50611b5d8d828e016116b4565b915080935050809150509295989b9194979a5092959850565b818382375f9101908152919050565b600181811c90821680611b9957607f821691505b602082108103611bb757634e487b7160e01b5f52602260045260245ffd5b50919050565b6020808252600d908201526c15d30e881b9bdd08199bdd5b99609a1b604082015260600190565b81835281816020850137505f828201602090810191909152601f909101601f19169091010190565b602081525f611c1f602083018486611be4565b949350505050565b60608101611c3582866117b1565b611c4260208301856117b1565b826040830152949350505050565b634e487b7160e01b5f52604160045260245ffd5b601f82111561071457805f5260205f20601f840160051c81016020851015611c895750805b601f840160051c820191505b81811015611ca8575f8155600101611c95565b5050505050565b81516001600160401b03811115611cc857611cc8611c50565b611cdc81611cd68454611b85565b84611c64565b602080601f831160018114611d0f575f8415611cf85750858301515b5f19600386901b1c1916600185901b178555611d66565b5f85815260208120601f198616915b82811015611d3d57888601518255948401946001909101908401611d1e565b5085821015611d5a57878501515f19600388901b60f8161c191681555b505060018460011b0185555b505050505050565b6001600160401b03831115611d8557611d85611c50565b611d9983611d938354611b85565b83611c64565b5f601f841160018114611dca575f8515611db35750838201355b5f19600387901b1c1916600186901b178355611ca8565b5f83815260208120601f198716915b82811015611df95786850135825560209485019460019092019101611dd9565b5086821015611e15575f1960f88860031b161c19848701351681555b505060018560011b0183555050505050565b608081525f611e3a60808301888a611be4565b611e47602084018861178d565b6001600160a01b03861660408401528281036060840152611e69818587611be4565b999850505050505050505056fea264697066735822122000e5a7f82b8b1efe0772b8bcac6db7fc0cd5311f7b3effd686627dcb79bd65ae64736f6c63430008180033",
  "linkReferences": {},
  "deployedLinkReferences": {}
}