{"contracts/TimeCapsule.sol":{"TimeCapsule":{"abi":[{"inputs":[{"internalType":"address","name":"tokenAddress","type":"address"},{"internalType":"address","name":"oracleGatewayAddress","type":"address"},{"internalType":"address","name":"admin","type":"address"}],"stateMutability":"nonpayable","type":"constructor"},{"inputs":[],"name":"AccessControlBadConfirmation","type":"error"},{"inputs":[{"internalType":"address","name":"account","type":"address"},{"internalType":"bytes32","name":"neededRole","type":"bytes32"}],"name":"AccessControlUnauthorizedAccount","type":"error"},{"inputs":[],"name":"EnforcedPause","type":"error"},{"inputs":[],"name":"ExpectedPause","type":"error"},{"inputs":[],"name":"ReentrancyGuardReentrantCall","type":"error"},{"inputs":[{"internalType":"address","name":"token","type":"address"}],"name":"SafeERC20FailedOperation","type":"error"},{"anonymous":false,"inputs":[{"indexed":true,"internalType":"uint256","name":"capsuleId","type":"uint256"},{"indexed":true,"internalType":"address","name":"cancelledBy","type":"address"}],"name":"CapsuleCancelled","type":"event"},{"anonymous":false,"inputs":[{"indexed":true,"internalType":"uint256","name":"capsuleId","type":"uint256"},{"indexed":true,"internalType":"address","name":"creator","type":"address"},{"indexed":true,"internalType":"address","name":"beneficiary","type":"address"},{"indexed":false,"internalType":"enum TimeCapsule.TriggerType","name":"triggerType","type":"uint8"},{"indexed":false,"internalType":"uint256","name":"sglLocked","type":"uint256"},{"indexed":false,"internalType":"string","name":"contentCID","type":"string"}],"name":"CapsuleCreated","type":"event"},{"anonymous":false,"inputs":[{"indexed":true,"internalType":"uint256","name":"capsuleId","type":"uint256"},{"indexed":true,"internalType":"address","name":"beneficiary","type":"address"},{"indexed":true,"internalType":"address","name":"unlockedBy","type":"address"},{"indexed":false,"internalType":"uint256","name":"sglReleased","type":"uint256"}],"name":"CapsuleUnlocked","type":"event"},{"anonymous":false,"inputs":[{"indexed":true,"internalType":"uint256","name":"capsuleId","type":"uint256"},{"indexed":true,"internalType":"address","name":"curator","type":"address"}],"name":"CuratorApprovalGranted","type":"event"},{"anonymous":false,"inputs":[{"indexed":true,"internalType":"address","name":"oldGateway","type":"address"},{"indexed":true,"internalType":"address","name":"newGateway","type":"address"}],"name":"OracleGatewayUpdated","type":"event"},{"anonymous":false,"inputs":[{"indexed":false,"internalType":"address","name":"account","type":"address"}],"name":"Paused","type":"event"},{"anonymous":false,"inputs":[{"indexed":true,"internalType":"bytes32","name":"role","type":"bytes32"},{"indexed":true,"internalType":"bytes32","name":"previousAdminRole","type":"bytes32"},{"indexed":true,"internalType":"bytes32","name":"newAdminRole","type":"bytes32"}],"name":"RoleAdminChanged","type":"event"},{"anonymous":false,"inputs":[{"indexed":true,"internalType":"bytes32","name":"role","type":"bytes32"},{"indexed":true,"internalType":"address","name":"account","type":"address"},{"indexed":true,"internalType":"address","name":"sender","type":"address"}],"name":"RoleGranted","type":"event"},{"anonymous":false,"inputs":[{"indexed":true,"internalType":"bytes32","name":"role","type":"bytes32"},{"indexed":true,"internalType":"address","name":"account","type":"address"},{"indexed":true,"internalType":"address","name":"sender","type":"address"}],"name":"RoleRevoked","type":"event"},{"anonymous":false,"inputs":[{"indexed":false,"internalType":"address","name":"account","type":"address"}],"name":"Unpaused","type":"event"},{"inputs":[],"name":"CURATOR_ROLE","outputs":[{"internalType":"bytes32","name":"","type":"bytes32"}],"stateMutability":"view","type":"function"},{"inputs":[],"name":"DEFAULT_ADMIN_ROLE","outputs":[{"internalType":"bytes32","name":"","type":"bytes32"}],"stateMutability":"view","type":"function"},{"inputs":[],"name":"EXECUTOR_ROLE","outputs":[{"internalType":"bytes32","name":"","type":"bytes32"}],"stateMutability":"view","type":"function"},{"inputs":[{"internalType":"uint256","name":"capsuleId","type":"uint256"}],"name":"approveByCurator","outputs":[],"stateMutability":"nonpayable","type":"function"},{"inputs":[{"internalType":"uint256","name":"capsuleId","type":"uint256"}],"name":"cancelCapsule","outputs":[],"stateMutability":"nonpayable","type":"function"},{"inputs":[],"name":"capsuleCount","outputs":[{"internalType":"uint256","name":"","type":"uint256"}],"stateMutability":"view","type":"function"},{"inputs":[{"internalType":"uint256","name":"","type":"uint256"}],"name":"capsules","outputs":[{"internalType":"address","name":"creator","type":"address"},{"internalType":"address","name":"beneficiary","type":"address"},{"internalType":"string","name":"contentCID","type":"string"},{"internalType":"enum TimeCapsule.TriggerType","name":"triggerType","type":"uint8"},{"internalType":"uint64","name":"unlockTime","type":"uint64"},{"internalType":"bytes32","name":"oracleSubjectId","type":"bytes32"},{"internalType":"uint8","name":"oracleEventType","type":"uint8"},{"internalType":"address","name":"curator","type":"address"},{"internalType":"uint256","name":"sglLocked","type":"uint256"},{"internalType":"bytes32","name":"metadataHash","type":"bytes32"},{"internalType":"uint64","name":"createdAt","type":"uint64"},{"internalType":"uint64","name":"unlockedAt","type":"uint64"},{"internalType":"enum TimeCapsule.CapsuleStatus","name":"status","type":"uint8"}],"stateMutability":"view","type":"function"},{"inputs":[{"internalType":"address","name":"beneficiary","type":"address"},{"internalType":"string","name":"contentCID","type":"string"},{"internalType":"enum TimeCapsule.TriggerType","name":"triggerType","type":"uint8"},{"internalType":"uint64","name":"unlockTime","type":"uint64"},{"internalType":"bytes32","name":"oracleSubjectId","type":"bytes32"},{"internalType":"uint8","name":"oracleEventType","type":"uint8"},{"internalType":"address","name":"curator","type":"address"},{"internalType":"uint256","name":"sglAmount","type":"uint256"},{"internalType":"bytes32","name":"metadataHash","type":"bytes32"}],"name":"createCapsule","outputs":[{"internalType":"uint256","name":"capsuleId","type":"uint256"}],"stateMutability":"nonpayable","type":"function"},{"inputs":[{"internalType":"uint256","name":"","type":"uint256"}],"name":"curatorApproved","outputs":[{"internalType":"bool","name":"","type":"bool"}],"stateMutability":"view","type":"function"},{"inputs":[{"internalType":"uint256","name":"capsuleId","type":"uint256"}],"name":"executeApprovedCapsule","outputs":[],"stateMutability":"nonpayable","type":"function"},{"inputs":[{"internalType":"uint256","name":"capsuleId","type":"uint256"}],"name":"getCapsuleStatus","outputs":[{"internalType":"enum TimeCapsule.CapsuleStatus","name":"","type":"uint8"}],"stateMutability":"view","type":"function"},{"inputs":[{"internalType":"bytes32","name":"role","type":"bytes32"}],"name":"getRoleAdmin","outputs":[{"internalType":"bytes32","name":"","type":"bytes32"}],"stateMutability":"view","type":"function"},{"inputs":[{"internalType":"bytes32","name":"role","type":"bytes32"},{"internalType":"address","name":"account","type":"address"}],"name":"grantRole","outputs":[],"stateMutability":"nonpayable","type":"function"},{"inputs":[{"internalType":"bytes32","name":"role","type":"bytes32"},{"internalType":"address","name":"account","type":"address"}],"name":"hasRole","outputs":[{"internalType":"bool","name":"","type":"bool"}],"stateMutability":"view","type":"function"},{"inputs":[],"name":"oracleGateway","outputs":[{"internalType":"address","name":"","type":"address"}],"stateMutability":"view","type":"function"},{"inputs":[],"name":"pause","outputs":[],"stateMutability":"nonpayable","type":"function"},{"inputs":[],"name":"paused","outputs":[{"internalType":"bool","name":"","type":"bool"}],"stateMutability":"view","type":"function"},{"inputs":[{"internalType":"bytes32","name":"role","type":"bytes32"},{"internalType":"address","name":"callerConfirmation","type":"address"}],"name":"renounceRole","outputs":[],"stateMutability":"nonpayable","type":"function"},{"inputs":[{"internalType":"bytes32","name":"role","type":"bytes32"},{"internalType":"address","name":"account","type":"address"}],"name":"revokeRole","outputs":[],"stateMutability":"nonpayable","type":"function"},{"inputs":[{"internalType":"address","name":"newGateway","type":"address"}],"name":"setOracleGateway","outputs":[],"stateMutability":"nonpayable","type":"function"},{"inputs":[],"name":"sglToken","outputs":[{"internalType":"contract IERC20","name":"","type":"address"}],"stateMutability":"view","type":"function"},{"inputs":[{"internalType":"bytes4","name":"interfaceId","type":"bytes4"}],"name":"supportsInterface","outputs":[{"internalType":"bool","name":"","type":"bool"}],"stateMutability":"view","type":"function"},{"inputs":[{"internalType":"uint256","name":"capsuleId","type":"uint256"}],"name":"unlockByOracle","outputs":[],"stateMutability":"nonpayable","type":"function"},{"inputs":[{"internalType":"uint256","name":"capsuleId","type":"uint256"}],"name":"unlockByTime","outputs":[],"stateMutability":"nonpayable","type":"function"},{"inputs":[],"name":"unpause","outputs":[],"stateMutability":"nonpayable","type":"function"}],"evm":{"bytecode":{"linkReferences":{},"object":"60a0346200019c57601f62001d0b38819003918201601f19168301916001600160401b03831184841017620001a0578084926060946040528339810103126200019c576200004d81620001b4565b6200006960406200006160208501620001b4565b9301620001b4565b60017f9b779b17422d0df92223018b32b4d1fa46e071723d6817e2486d003becc55f00556001600160a01b039182169290919083156200015757818316156200011257620000e3936080521660018060a01b03196003541617600355620000d081620001c9565b50620000dc8162000239565b50620002d9565b50604051611957908162000374823960805181818161077901528181610bce01528181611028015261185a0152f35b60405162461bcd60e51b815260206004820152601660248201527f43415053554c453a20696e76616c69642061646d696e000000000000000000006044820152606490fd5b60405162461bcd60e51b815260206004820152601660248201527f43415053554c453a20696e76616c696420746f6b656e000000000000000000006044820152606490fd5b5f80fd5b634e487b7160e01b5f52604160045260245ffd5b51906001600160a01b03821682036200019c57565b6001600160a01b03165f8181525f8051602062001ceb833981519152602052604090205460ff1662000234575f8181525f8051602062001ceb83398151915260205260408120805460ff191660011790553391905f8051602062001ccb8339815191528180a4600190565b505f90565b6001600160a01b03165f8181527ff484c8d36633aa70eae8ee4883885db3af58778e0f4e89a6e23f032f4a70897160205260409020547f850d585eb7f024ccee5e68e55f2c26cc72e1e6ee456acf62135757a5eb9d4a10919060ff16620002d357815f525f60205260405f20815f5260205260405f20600160ff1982541617905533915f8051602062001ccb8339815191525f80a4600190565b50505f90565b6001600160a01b03165f8181527fdae2aa361dfd1ca020a396615627d436107c35eff9fe7738a3512819782d706960205260409020547fd8aa0f3194971a2a116679f7c2090f6939c8d4e01a2a8d7e41d55e5351469e63919060ff16620002d357815f525f60205260405f20815f5260205260405f20600160ff1982541617905533915f8051602062001ccb8339815191525f80a460019056fe6080806040526004361015610012575f80fd5b5f3560e01c90816301ffc9a7146114975750806305dc03941461147a57806307bd0265146114405780631e2ed410146113d7578063248a9ca3146113ab5780632c612bd8146113715780632f2ff15d1461133557806336568abe146112ee5780633f4ba83a146112855780634a2cfb541461124b578063517bbf46146110795780635c975abb1461105757806362b24ea2146110135780636db98b2c14610ee85780638456cb5914610e9057806391d1485414610e48578063a0f1e0e714610e19578063a217fddf14610dff578063b1dcb92514610c5d578063c1810f6614610c35578063c446bac114610b0d578063d547741f14610acf578063dc58529d14610331578063df3e0cca1461023c5763fee71b5e1461012f575f80fd5b3461023857602036600319011261023857600435805f52600460205260405f2060ff600882015460801c1660038110156102245761016d9015611589565b60ff600382015416600481101561022457600261018a91146115cb565b6005015460081c6001600160a01b031633036101df57805f52600560205260405f20600160ff1982541617905533907f54482672d58ae1b8ba1f10678bbb1ea74798117a6222a5dcfddb3bcdea6f59d15f80a3005b60405162461bcd60e51b815260206004820152601860248201527f43415053554c453a206e6f74207468652063757261746f7200000000000000006044820152606490fd5b634e487b7160e01b5f52602160045260245ffd5b5f80fd5b346102385760203660031901126102385760043561025861177c565b61026061179a565b805f52600460205260405f2060ff600882015460801c1660038110156102245761028a9015611589565b600381015460ff8116600481101561022457806102b09115908115610326575b506115cb565b6001600160401b03809160081c16904216106102e2576102cf916117c9565b60015f8051602061190283398151915255005b606460405162461bcd60e51b815260206004820152602060248201527f43415053554c453a20756e6c6f636b2074696d65206e6f7420726561636865646044820152fd5b6003915014856102aa565b34610238576101203660031901126102385761034b6114ea565b602435906001600160401b0382116102385736602383011215610238576001600160401b0382600401351161023857366024836004013584010111610238576004604435101561023857606435906001600160401b03821682036102385760a43560ff811681036102385760c4356001600160a01b0381168103610238576103d161177c565b6103d961179a565b6001600160a01b03831615610a8a57846004013515610a50576101043515610a0b57604435156109ad575b600160443514610961575b60026044351461090e575b600254935f1985146108fa576001850160025560405192836101a08101106001600160401b036101a0860111176108e6576001600160401b0360ff926101a0860160405233865260018060a01b038716602087015260405161048a6020601f19601f8d600401350116018261155b565b60048a013580825260248b0160208301375f60208b60040135830101526040870152604435606087015216608085015260843560a08501521660c083015260018060a01b031660e082015260e435610100820152610104356101208201526001600160401b0342166101408201525f6101608201525f610180820152825f52600460205260405f209060018060a01b038151166bffffffffffffffffffffffff60a01b9081845416178355600183019060018060a01b036020840151169082541617905560408101518051906001600160401b0382116108e65781906105736002860154611523565b601f8111610896575b50602090601f8311600114610828575f9261081d575b50508160011b915f199060031b1c19161760028301555b60608101519060048210156102245761018091600384015460ff68ffffffffffffffff00608085015160081b1692169068ffffffffffffffffff19161717600384015560a081015160048401556005830160ff60c083015116815490610100600160a81b0360e085015160081b16916affffffffffffffffffffff60a81b1617179055610100810151600684015561012081015160078401556001600160401b03610140820151166001600160401b03196008850154161760088401556106a46001600160401b0361016083015116600885019067ffffffffffffffff60401b82549160401b169067ffffffffffffffff60401b1916179055565b0151600381101561022457600891909101805460ff60801b191660809290921b60ff60801b1691909117905560e435610777575b602092827f5ecda452a46d099b7501bf13bff76f7ae8dfe26d288fe25e37ff1604ebd580416040519361070d8560443561157c565b60e43587860152606060408601528360040135606086015283600401356024850160808701375f608085600401358701015260018060a01b0316936080813395601f8019916004013501168101030190a460015f8051602061190283398151915255604051908152f35b7f0000000000000000000000000000000000000000000000000000000000000000926040516323b872dd60e01b5f52336004523060245260e43560445260205f60648180895af160015f51148116156107fe575b816040525f606052156107e0575092506106d8565b635274afe760e01b81526001600160a01b0385166004820152602490fd5b600181151661081457853b15153d1516166107cb565b503d5f823e3d90fd5b015190508780610592565b9250600285015f5260205f20905f935b601f198416851061087b576001945083601f19811610610863575b505050811b0160028301556105a9565b01515f1960f88460031b161c19169055878080610853565b81810151835560209485019460019093019290910190610838565b909150600285015f5260205f20601f840160051c8101602085106108df575b90849392915b601f830160051c820181106108d157505061057c565b5f81558594506001016108bb565b50806108b5565b634e487b7160e01b5f52604160045260245ffd5b634e487b7160e01b5f52601160045260245ffd5b6001600160a01b03811661041a5760405162461bcd60e51b815260206004820152601860248201527f43415053554c453a20696e76616c69642063757261746f7200000000000000006044820152606490fd5b60843561040f5760405162461bcd60e51b815260206004820152601f60248201527f43415053554c453a20696e76616c6964206f7261636c65207375626a656374006044820152606490fd5b6001600160401b0342166001600160401b038516116104045760405162461bcd60e51b815260206004820152601c60248201527f43415053554c453a20756e6c6f636b2074696d6520696e2070617374000000006044820152606490fd5b60405162461bcd60e51b815260206004820152601e60248201527f43415053554c453a20696e76616c6964206d65746164617461206861736800006044820152606490fd5b60405162461bcd60e51b815260206004820152601260248201527110d05414d553114e88195b5c1d1e4810d25160721b6044820152606490fd5b60405162461bcd60e51b815260206004820152601c60248201527f43415053554c453a20696e76616c69642062656e6566696369617279000000006044820152606490fd5b3461023857604036600319011261023857610b0b600435610aee611500565b90805f525f602052610b06600160405f20015461166d565b61170a565b005b3461023857602036600319011261023857600435610b2961177c565b610b3161179a565b805f52600460205260405f20600881019081549060ff8260801c16600381101561022457610b5f9015611589565b80546001600160a01b03169233849003610bf95760ff60801b19909216600160811b179091556006015480610bc8575b33837fa1d1e86fc4683d85919ca0e086901a54ba5df5917501641bf9921412a9c3c25c5f80a360015f8051602061190283398151915255005b610bf2917f0000000000000000000000000000000000000000000000000000000000000000611883565b8180610b8f565b60405162461bcd60e51b815260206004820152601460248201527321a0a829aaa6229d103737ba1031b932b0ba37b960611b6044820152606490fd5b34610238575f366003190112610238576003546040516001600160a01b039091168152602090f35b346102385760208060031936011261023857600435610c7a61177c565b610c8261179a565b805f526004825260405f209060ff600883015460801c16600381101561022457610cac9015611589565b60ff6003830154166004811015610224576001610cc991146115cb565b6003546001600160a01b03168015610dba57836004840154604460ff600587015416916040519485938492635da377e360e01b8452600484015260248301525afa908115610daf575f91610d79575b5015610d28576102cf92506117c9565b60405162461bcd60e51b815260048101849052602360248201527f43415053554c453a206f7261636c65206576656e74206e6f7420636f6e6669726044820152621b595960ea1b6064820152608490fd5b90508381813d8311610da8575b610d90818361155b565b81010312610238575180151581036102385784610d18565b503d610d86565b6040513d5f823e3d90fd5b60405162461bcd60e51b815260048101859052601e60248201527f43415053554c453a206f7261636c65206e6f7420636f6e6669677572656400006044820152606490fd5b34610238575f3660031901126102385760206040515f8152f35b34610238576020366003190112610238576004355f526005602052602060ff60405f2054166040519015158152f35b3461023857604036600319011261023857610e61611500565b6004355f525f60205260405f209060018060a01b03165f52602052602060ff60405f2054166040519015158152f35b34610238575f36600319011261023857610ea8611617565b610eb061177c565b600160ff19815416176001557f62e78cea01bee320cd4e420270b5ea74000d11b0c9f74754ebdbfc544b05a2586020604051338152a1005b346102385760208060031936011261023857600435610f0561177c565b610f0d61179a565b7fd8aa0f3194971a2a116679f7c2090f6939c8d4e01a2a8d7e41d55e5351469e63805f525f835260405f20335f52835260ff60405f20541615610ff55750805f526004825260405f209060ff600883015460801c16600381101561022457610f759015611589565b60ff6003830154166004811015610224576002610f9291146115cb565b805f526005835260ff60405f20541615610fb0576102cf92506117c9565b60405162461bcd60e51b815260048101849052601d60248201527f43415053554c453a2063757261746f72206e6f7420617070726f7665640000006044820152606490fd5b6044906040519063e2517d3f60e01b82523360048301526024820152fd5b34610238575f366003190112610238576040517f00000000000000000000000000000000000000000000000000000000000000006001600160a01b03168152602090f35b34610238575f36600319011261023857602060ff600154166040519015158152f35b3461023857602080600319360112610238576004355f526004815260405f2060018060a01b0390818154169160019181600182015416946002820160405180955f908354936110c785611523565b94858552866001821691825f146112295750506001146111ed575b50506110f892509794929796939596038661155b565b6003840154936001600160401b039060048101549260058201549060068301549160086007850154940154956040519b8c996101a0998b52818b01528860408b01528b519b8c809a8c01525f5b8a81106111d05750505085899a5f6111c29a9b6101c09e8f9101015261117160608d0160ff831661157c565b60081c1660808b015260a08a015260ff811660c08a015260081c1660e08801526101008701526101208601528082166101408601528160401c1661016085015260ff61018085019160801c16611516565b601f01601f19168101030190f35b8181018301519b81016101c0019b909b528d9a8d9a508201611145565b8592505f52815f20905f915b8583106112115750506110f8935082010189806110e2565b8054838b0185015289945086939092019181016111f9565b92509350506110f894915060ff191682840152151560051b82010189806110e2565b34610238575f3660031901126102385760206040517f850d585eb7f024ccee5e68e55f2c26cc72e1e6ee456acf62135757a5eb9d4a108152f35b34610238575f3660031901126102385761129d611617565b60015460ff8116156112dc5760ff19166001557f5db9ee0a495bf2e6ff9c91a7834c1ba4fdd244a5e8aa4e537bd38aeae4b073aa6020604051338152a1005b604051638dfc202b60e01b8152600490fd5b3461023857604036600319011261023857611307611500565b336001600160a01b0382160361132357610b0b9060043561170a565b60405163334bd91960e11b8152600490fd5b3461023857604036600319011261023857610b0b600435611354611500565b90805f525f60205261136c600160405f20015461166d565b61168e565b34610238576020366003190112610238576004355f526004602052602060ff600860405f20015460801c166113a96040518092611516565bf35b34610238576020366003190112610238576004355f525f6020526020600160405f200154604051908152f35b34610238576020366003190112610238576113f06114ea565b6113f8611617565b600380546001600160a01b039283166001600160a01b0319821681179092559091167fa2c25ca373c727be01ce62a4879a7cda215dfc392279e1e456cd6afb873317a75f80a3005b34610238575f3660031901126102385760206040517fd8aa0f3194971a2a116679f7c2090f6939c8d4e01a2a8d7e41d55e5351469e638152f35b34610238575f366003190112610238576020600254604051908152f35b34610238576020366003190112610238576004359063ffffffff60e01b821680920361023857602091637965db0b60e01b81149081156114d9575b5015158152f35b6301ffc9a760e01b149050836114d2565b600435906001600160a01b038216820361023857565b602435906001600160a01b038216820361023857565b9060038210156102245752565b90600182811c92168015611551575b602083101461153d57565b634e487b7160e01b5f52602260045260245ffd5b91607f1691611532565b90601f801991011681019081106001600160401b038211176108e657604052565b9060048210156102245752565b1561159057565b60405162461bcd60e51b815260206004820152601360248201527243415053554c453a206e6f742061637469766560681b6044820152606490fd5b156115d257565b60405162461bcd60e51b815260206004820152601b60248201527f43415053554c453a2077726f6e672074726967676572207479706500000000006044820152606490fd5b335f9081527fad3228b676f7d3cd4284a5443f17f1962b36e491b30a40b2405849e597ba5fb5602052604090205460ff161561164f57565b60405163e2517d3f60e01b81523360048201525f6024820152604490fd5b805f525f60205260405f20335f5260205260ff60405f20541615610ff55750565b90815f525f60205260405f209060018060a01b031690815f5260205260ff60405f205416155f1461170457815f525f60205260405f20815f5260205260405f20600160ff1982541617905533917f2f8788117e7eff1d82e926ec794901d17c78024a50270940304540a733656f0d5f80a4600190565b50505f90565b90815f525f60205260405f209060018060a01b031690815f5260205260ff60405f2054165f1461170457815f525f60205260405f20815f5260205260405f2060ff19815416905533917ff6391f5c32d9c69d2a47ea670b442974b53935d1edc7fd64eb21e047a839171b5f80a4600190565b60ff6001541661178857565b60405163d93c066560e01b8152600490fd5b5f8051602061190283398151915260028154146117b75760029055565b604051633ee5aeb560e01b8152600490fd5b60088201805470ffffffffffffffffff000000000000000019164260401b67ffffffffffffffff60401b1617600160801b17905560068201549182611844575b6001808060a01b0391015416906040519283527f85c8e2dbab3d3504c22d17f22231aa1b72eb575ea063d2d70416ac23c728987d60203394a4565b600181015461187e9084906001600160a01b03167f0000000000000000000000000000000000000000000000000000000000000000611883565b611809565b60405163a9059cbb60e01b5f9081526001600160a01b039384166004526024949094529260209060448180855af160015f51148116156118e2575b83604052156118cc57505050565b635274afe760e01b835216600482015260249150fd5b60018115166118f857813b15153d1516166118be565b833d5f823e3d90fdfe9b779b17422d0df92223018b32b4d1fa46e071723d6817e2486d003becc55f00a264697066735822122000cd281844dd0477b926396a1aa40d60fa936435ba458cc66e2fa35ef3c4a40664736f6c634300081800332f8788117e7eff1d82e926ec794901d17c78024a50270940304540a733656f0dad3228b676f7d3cd4284a5443f17f1962b36e491b30a40b2405849e597ba5fb5","opcodes":"PUSH1 0xA0 CALLVALUE PUSH3 0x19C JUMPI PUSH1 0x1F PUSH3 0x1D0B CODESIZE DUP2 SWAP1 SUB SWAP2 DUP3 ADD PUSH1 0x1F NOT AND DUP4 ADD SWAP2 PUSH1 0x1 PUSH1 0x1 PUSH1 0x40 SHL SUB DUP4 GT DUP5 DUP5 LT OR PUSH3 0x1A0 JUMPI DUP1 DUP5 SWAP3 PUSH1 0x60 SWAP5 PUSH1 0x40 MSTORE DUP4 CODECOPY DUP2 ADD SUB SLT PUSH3 0x19C JUMPI PUSH3 0x4D DUP2 PUSH3 0x1B4 JUMP JUMPDEST PUSH3 0x69 PUSH1 0x40 PUSH3 0x61 PUSH1 0x20 DUP6 ADD PUSH3 0x1B4 JUMP JUMPDEST SWAP4 ADD PUSH3 0x1B4 JUMP JUMPDEST PUSH1 0x1 PUSH32 0x9B779B17422D0DF92223018B32B4D1FA46E071723D6817E2486D003BECC55F00 SSTORE PUSH1 0x1 PUSH1 0x1 PUSH1 0xA0 SHL SUB SWAP2 DUP3 AND SWAP3 SWAP1 SWAP2 SWAP1 DUP4 ISZERO PUSH3 0x157 JUMPI DUP2 DUP4 AND ISZERO PUSH3 0x112 JUMPI PUSH3 0xE3 SWAP4 PUSH1 0x80 MSTORE AND PUSH1 0x1 DUP1 PUSH1 0xA0 SHL SUB NOT PUSH1 0x3 SLOAD AND OR PUSH1 0x3 SSTORE PUSH3 0xD0 DUP2 PUSH3 0x1C9 JUMP JUMPDEST POP PUSH3 0xDC DUP2 PUSH3 0x239 JUMP JUMPDEST POP PUSH3 0x2D9 JUMP JUMPDEST POP PUSH1 0x40 MLOAD PUSH2 0x1957 SWAP1 DUP2 PUSH3 0x374 DUP3 CODECOPY PUSH1 0x80 MLOAD DUP2 DUP2 DUP2 PUSH2 0x779 ADD MSTORE DUP2 DUP2 PUSH2 0xBCE ADD MSTORE DUP2 DUP2 PUSH2 0x1028 ADD MSTORE PUSH2 0x185A ADD MSTORE RETURN JUMPDEST PUSH1 0x40 MLOAD PUSH3 0x461BCD PUSH1 0xE5 SHL DUP2 MSTORE PUSH1 0x20 PUSH1 0x4 DUP3 ADD MSTORE PUSH1 0x16 PUSH1 0x24 DUP3 ADD MSTORE PUSH32 0x43415053554C453A20696E76616C69642061646D696E00000000000000000000 PUSH1 0x44 DUP3 ADD MSTORE PUSH1 0x64 SWAP1 REVERT JUMPDEST PUSH1 0x40 MLOAD PUSH3 0x461BCD PUSH1 0xE5 SHL DUP2 MSTORE PUSH1 0x20 PUSH1 0x4 DUP3 ADD MSTORE PUSH1 0x16 PUSH1 0x24 DUP3 ADD MSTORE PUSH32 0x43415053554C453A20696E76616C696420746F6B656E00000000000000000000 PUSH1 0x44 DUP3 ADD MSTORE PUSH1 0x64 SWAP1 REVERT JUMPDEST PUSH0 DUP1 REVERT JUMPDEST PUSH4 0x4E487B71 PUSH1 0xE0 SHL PUSH0 MSTORE PUSH1 0x41 PUSH1 0x4 MSTORE PUSH1 0x24 PUSH0 REVERT JUMPDEST MLOAD SWAP1 PUSH1 0x1 PUSH1 0x1 PUSH1 0xA0 SHL SUB DUP3 AND DUP3 SUB PUSH3 0x19C JUMPI JUMP JUMPDEST PUSH1 0x1 PUSH1 0x1 PUSH1 0xA0 SHL SUB AND PUSH0 DUP2 DUP2 MSTORE PUSH0 DUP1 MLOAD PUSH1 0x20 PUSH3 0x1CEB DUP4 CODECOPY DUP2 MLOAD SWAP2 MSTORE PUSH1 0x20 MSTORE PUSH1 0x40 SWAP1 KECCAK256 SLOAD PUSH1 0xFF AND PUSH3 0x234 JUMPI PUSH0 DUP2 DUP2 MSTORE PUSH0 DUP1 MLOAD PUSH1 0x20 PUSH3 0x1CEB DUP4 CODECOPY DUP2 MLOAD SWAP2 MSTORE PUSH1 0x20 MSTORE PUSH1 0x40 DUP2 KECCAK256 DUP1 SLOAD PUSH1 0xFF NOT AND PUSH1 0x1 OR SWAP1 SSTORE CALLER SWAP2 SWAP1 PUSH0 DUP1 MLOAD PUSH1 0x20 PUSH3 0x1CCB DUP4 CODECOPY DUP2 MLOAD SWAP2 MSTORE DUP2 DUP1 LOG4 PUSH1 0x1 SWAP1 JUMP JUMPDEST POP PUSH0 SWAP1 JUMP JUMPDEST PUSH1 0x1 PUSH1 0x1 PUSH1 0xA0 SHL SUB AND PUSH0 DUP2 DUP2 MSTORE PUSH32 0xF484C8D36633AA70EAE8EE4883885DB3AF58778E0F4E89A6E23F032F4A708971 PUSH1 0x20 MSTORE PUSH1 0x40 SWAP1 KECCAK256 SLOAD PUSH32 0x850D585EB7F024CCEE5E68E55F2C26CC72E1E6EE456ACF62135757A5EB9D4A10 SWAP2 SWAP1 PUSH1 0xFF AND PUSH3 0x2D3 JUMPI DUP2 PUSH0 MSTORE PUSH0 PUSH1 0x20 MSTORE PUSH1 0x40 PUSH0 KECCAK256 DUP2 PUSH0 MSTORE PUSH1 0x20 MSTORE PUSH1 0x40 PUSH0 KECCAK256 PUSH1 0x1 PUSH1 0xFF NOT DUP3 SLOAD AND OR SWAP1 SSTORE CALLER SWAP2 PUSH0 DUP1 MLOAD PUSH1 0x20 PUSH3 0x1CCB DUP4 CODECOPY DUP2 MLOAD SWAP2 MSTORE PUSH0 DUP1 LOG4 PUSH1 0x1 SWAP1 JUMP JUMPDEST POP POP PUSH0 SWAP1 JUMP JUMPDEST PUSH1 0x1 PUSH1 0x1 PUSH1 0xA0 SHL SUB AND PUSH0 DUP2 DUP2 MSTORE PUSH32 0xDAE2AA361DFD1CA020A396615627D436107C35EFF9FE7738A3512819782D7069 PUSH1 0x20 MSTORE PUSH1 0x40 SWAP1 KECCAK256 SLOAD PUSH32 0xD8AA0F3194971A2A116679F7C2090F6939C8D4E01A2A8D7E41D55E5351469E63 SWAP2 SWAP1 PUSH1 0xFF AND PUSH3 0x2D3 JUMPI DUP2 PUSH0 MSTORE PUSH0 PUSH1 0x20 MSTORE PUSH1 0x40 PUSH0 KECCAK256 DUP2 PUSH0 MSTORE PUSH1 0x20 MSTORE PUSH1 0x40 PUSH0 KECCAK256 PUSH1 0x1 PUSH1 0xFF NOT DUP3 SLOAD AND OR SWAP1 SSTORE CALLER SWAP2 PUSH0 DUP1 MLOAD PUSH1 0x20 PUSH3 0x1CCB DUP4 CODECOPY DUP2 MLOAD SWAP2 MSTORE PUSH0 DUP1 LOG4 PUSH1 0x1 SWAP1 JUMP INVALID PUSH1 0x80 DUP1 PUSH1 0x40 MSTORE PUSH1 0x4 CALLDATASIZE LT ISZERO PUSH2 0x12 JUMPI PUSH0 DUP1 REVERT JUMPDEST PUSH0 CALLDATALOAD PUSH1 0xE0 SHR SWAP1 DUP2 PUSH4 0x1FFC9A7 EQ PUSH2 0x1497 JUMPI POP DUP1 PUSH4 0x5DC0394 EQ PUSH2 0x147A JUMPI DUP1 PUSH4 0x7BD0265 EQ PUSH2 0x1440 JUMPI DUP1 PUSH4 0x1E2ED410 EQ PUSH2 0x13D7 JUMPI DUP1 PUSH4 0x248A9CA3 EQ PUSH2 0x13AB JUMPI DUP1 PUSH4 0x2C612BD8 EQ PUSH2 0x1371 JUMPI DUP1 PUSH4 0x2F2FF15D EQ PUSH2 0x1335 JUMPI DUP1 PUSH4 0x36568ABE EQ PUSH2 0x12EE JUMPI DUP1 PUSH4 0x3F4BA83A EQ PUSH2 0x1285 JUMPI DUP1 PUSH4 0x4A2CFB54 EQ PUSH2 0x124B JUMPI DUP1 PUSH4 0x517BBF46 EQ PUSH2 0x1079 JUMPI DUP1 PUSH4 0x5C975ABB EQ PUSH2 0x1057 JUMPI DUP1 PUSH4 0x62B24EA2 EQ PUSH2 0x1013 JUMPI DUP1 PUSH4 0x6DB98B2C EQ PUSH2 0xEE8 JUMPI DUP1 PUSH4 0x8456CB59 EQ PUSH2 0xE90 JUMPI DUP1 PUSH4 0x91D14854 EQ PUSH2 0xE48 JUMPI DUP1 PUSH4 0xA0F1E0E7 EQ PUSH2 0xE19 JUMPI DUP1 PUSH4 0xA217FDDF EQ PUSH2 0xDFF JUMPI DUP1 PUSH4 0xB1DCB925 EQ PUSH2 0xC5D JUMPI DUP1 PUSH4 0xC1810F66 EQ PUSH2 0xC35 JUMPI DUP1 PUSH4 0xC446BAC1 EQ PUSH2 0xB0D JUMPI DUP1 PUSH4 0xD547741F EQ PUSH2 0xACF JUMPI DUP1 PUSH4 0xDC58529D EQ PUSH2 0x331 JUMPI DUP1 PUSH4 0xDF3E0CCA EQ PUSH2 0x23C JUMPI PUSH4 0xFEE71B5E EQ PUSH2 0x12F JUMPI PUSH0 DUP1 REVERT JUMPDEST CALLVALUE PUSH2 0x238 JUMPI PUSH1 0x20 CALLDATASIZE PUSH1 0x3 NOT ADD SLT PUSH2 0x238 JUMPI PUSH1 0x4 CALLDATALOAD DUP1 PUSH0 MSTORE PUSH1 0x4 PUSH1 0x20 MSTORE PUSH1 0x40 PUSH0 KECCAK256 PUSH1 0xFF PUSH1 0x8 DUP3 ADD SLOAD PUSH1 0x80 SHR AND PUSH1 0x3 DUP2 LT ISZERO PUSH2 0x224 JUMPI PUSH2 0x16D SWAP1 ISZERO PUSH2 0x1589 JUMP JUMPDEST PUSH1 0xFF PUSH1 0x3 DUP3 ADD SLOAD AND PUSH1 0x4 DUP2 LT ISZERO PUSH2 0x224 JUMPI PUSH1 0x2 PUSH2 0x18A SWAP2 EQ PUSH2 0x15CB JUMP JUMPDEST PUSH1 0x5 ADD SLOAD PUSH1 0x8 SHR PUSH1 0x1 PUSH1 0x1 PUSH1 0xA0 SHL SUB AND CALLER SUB PUSH2 0x1DF JUMPI DUP1 PUSH0 MSTORE PUSH1 0x5 PUSH1 0x20 MSTORE PUSH1 0x40 PUSH0 KECCAK256 PUSH1 0x1 PUSH1 0xFF NOT DUP3 SLOAD AND OR SWAP1 SSTORE CALLER SWAP1 PUSH32 0x54482672D58AE1B8BA1F10678BBB1EA74798117A6222A5DCFDDB3BCDEA6F59D1 PUSH0 DUP1 LOG3 STOP JUMPDEST PUSH1 0x40 MLOAD PUSH3 0x461BCD PUSH1 0xE5 SHL DUP2 MSTORE PUSH1 0x20 PUSH1 0x4 DUP3 ADD MSTORE PUSH1 0x18 PUSH1 0x24 DUP3 ADD MSTORE PUSH32 0x43415053554C453A206E6F74207468652063757261746F720000000000000000 PUSH1 0x44 DUP3 ADD MSTORE PUSH1 0x64 SWAP1 REVERT JUMPDEST PUSH4 0x4E487B71 PUSH1 0xE0 SHL PUSH0 MSTORE PUSH1 0x21 PUSH1 0x4 MSTORE PUSH1 0x24 PUSH0 REVERT JUMPDEST PUSH0 DUP1 REVERT JUMPDEST CALLVALUE PUSH2 0x238 JUMPI PUSH1 0x20 CALLDATASIZE PUSH1 0x3 NOT ADD SLT PUSH2 0x238 JUMPI PUSH1 0x4 CALLDATALOAD PUSH2 0x258 PUSH2 0x177C JUMP JUMPDEST PUSH2 0x260 PUSH2 0x179A JUMP JUMPDEST DUP1 PUSH0 MSTORE PUSH1 0x4 PUSH1 0x20 MSTORE PUSH1 0x40 PUSH0 KECCAK256 PUSH1 0xFF PUSH1 0x8 DUP3 ADD SLOAD PUSH1 0x80 SHR AND PUSH1 0x3 DUP2 LT ISZERO PUSH2 0x224 JUMPI PUSH2 0x28A SWAP1 ISZERO PUSH2 0x1589 JUMP JUMPDEST PUSH1 0x3 DUP2 ADD SLOAD PUSH1 0xFF DUP2 AND PUSH1 0x4 DUP2 LT ISZERO PUSH2 0x224 JUMPI DUP1 PUSH2 0x2B0 SWAP2 ISZERO SWAP1 DUP2 ISZERO PUSH2 0x326 JUMPI JUMPDEST POP PUSH2 0x15CB JUMP JUMPDEST PUSH1 0x1 PUSH1 0x1 PUSH1 0x40 SHL SUB DUP1 SWAP2 PUSH1 0x8 SHR AND SWAP1 TIMESTAMP AND LT PUSH2 0x2E2 JUMPI PUSH2 0x2CF SWAP2 PUSH2 0x17C9 JUMP JUMPDEST PUSH1 0x1 PUSH0 DUP1 MLOAD PUSH1 0x20 PUSH2 0x1902 DUP4 CODECOPY DUP2 MLOAD SWAP2 MSTORE SSTORE STOP JUMPDEST PUSH1 0x64 PUSH1 0x40 MLOAD PUSH3 0x461BCD PUSH1 0xE5 SHL DUP2 MSTORE PUSH1 0x20 PUSH1 0x4 DUP3 ADD MSTORE PUSH1 0x20 PUSH1 0x24 DUP3 ADD MSTORE PUSH32 0x43415053554C453A20756E6C6F636B2074696D65206E6F742072656163686564 PUSH1 0x44 DUP3 ADD MSTORE REVERT JUMPDEST PUSH1 0x3 SWAP2 POP EQ DUP6 PUSH2 0x2AA JUMP JUMPDEST CALLVALUE PUSH2 0x238 JUMPI PUSH2 0x120 CALLDATASIZE PUSH1 0x3 NOT ADD SLT PUSH2 0x238 JUMPI PUSH2 0x34B PUSH2 0x14EA JUMP JUMPDEST PUSH1 0x24 CALLDATALOAD SWAP1 PUSH1 0x1 PUSH1 0x1 PUSH1 0x40 SHL SUB DUP3 GT PUSH2 0x238 JUMPI CALLDATASIZE PUSH1 0x23 DUP4 ADD SLT ISZERO PUSH2 0x238 JUMPI PUSH1 0x1 PUSH1 0x1 PUSH1 0x40 SHL SUB DUP3 PUSH1 0x4 ADD CALLDATALOAD GT PUSH2 0x238 JUMPI CALLDATASIZE PUSH1 0x24 DUP4 PUSH1 0x4 ADD CALLDATALOAD DUP5 ADD ADD GT PUSH2 0x238 JUMPI PUSH1 0x4 PUSH1 0x44 CALLDATALOAD LT ISZERO PUSH2 0x238 JUMPI PUSH1 0x64 CALLDATALOAD SWAP1 PUSH1 0x1 PUSH1 0x1 PUSH1 0x40 SHL SUB DUP3 AND DUP3 SUB PUSH2 0x238 JUMPI PUSH1 0xA4 CALLDATALOAD PUSH1 0xFF DUP2 AND DUP2 SUB PUSH2 0x238 JUMPI PUSH1 0xC4 CALLDATALOAD PUSH1 0x1 PUSH1 0x1 PUSH1 0xA0 SHL SUB DUP2 AND DUP2 SUB PUSH2 0x238 JUMPI PUSH2 0x3D1 PUSH2 0x177C JUMP JUMPDEST PUSH2 0x3D9 PUSH2 0x179A JUMP JUMPDEST PUSH1 0x1 PUSH1 0x1 PUSH1 0xA0 SHL SUB DUP4 AND ISZERO PUSH2 0xA8A JUMPI DUP5 PUSH1 0x4 ADD CALLDATALOAD ISZERO PUSH2 0xA50 JUMPI PUSH2 0x104 CALLDATALOAD ISZERO PUSH2 0xA0B JUMPI PUSH1 0x44 CALLDATALOAD ISZERO PUSH2 0x9AD JUMPI JUMPDEST PUSH1 0x1 PUSH1 0x44 CALLDATALOAD EQ PUSH2 0x961 JUMPI JUMPDEST PUSH1 0x2 PUSH1 0x44 CALLDATALOAD EQ PUSH2 0x90E JUMPI JUMPDEST PUSH1 0x2 SLOAD SWAP4 PUSH0 NOT DUP6 EQ PUSH2 0x8FA JUMPI PUSH1 0x1 DUP6 ADD PUSH1 0x2 SSTORE PUSH1 0x40 MLOAD SWAP3 DUP4 PUSH2 0x1A0 DUP2 ADD LT PUSH1 0x1 PUSH1 0x1 PUSH1 0x40 SHL SUB PUSH2 0x1A0 DUP7 ADD GT OR PUSH2 0x8E6 JUMPI PUSH1 0x1 PUSH1 0x1 PUSH1 0x40 SHL SUB PUSH1 0xFF SWAP3 PUSH2 0x1A0 DUP7 ADD PUSH1 0x40 MSTORE CALLER DUP7 MSTORE PUSH1 0x1 DUP1 PUSH1 0xA0 SHL SUB DUP8 AND PUSH1 0x20 DUP8 ADD MSTORE PUSH1 0x40 MLOAD PUSH2 0x48A PUSH1 0x20 PUSH1 0x1F NOT PUSH1 0x1F DUP14 PUSH1 0x4 ADD CALLDATALOAD ADD AND ADD DUP3 PUSH2 0x155B JUMP JUMPDEST PUSH1 0x4 DUP11 ADD CALLDATALOAD DUP1 DUP3 MSTORE PUSH1 0x24 DUP12 ADD PUSH1 0x20 DUP4 ADD CALLDATACOPY PUSH0 PUSH1 0x20 DUP12 PUSH1 0x4 ADD CALLDATALOAD DUP4 ADD ADD MSTORE PUSH1 0x40 DUP8 ADD MSTORE PUSH1 0x44 CALLDATALOAD PUSH1 0x60 DUP8 ADD MSTORE AND PUSH1 0x80 DUP6 ADD MSTORE PUSH1 0x84 CALLDATALOAD PUSH1 0xA0 DUP6 ADD MSTORE AND PUSH1 0xC0 DUP4 ADD MSTORE PUSH1 0x1 DUP1 PUSH1 0xA0 SHL SUB AND PUSH1 0xE0 DUP3 ADD MSTORE PUSH1 0xE4 CALLDATALOAD PUSH2 0x100 DUP3 ADD MSTORE PUSH2 0x104 CALLDATALOAD PUSH2 0x120 DUP3 ADD MSTORE PUSH1 0x1 PUSH1 0x1 PUSH1 0x40 SHL SUB TIMESTAMP AND PUSH2 0x140 DUP3 ADD MSTORE PUSH0 PUSH2 0x160 DUP3 ADD MSTORE PUSH0 PUSH2 0x180 DUP3 ADD MSTORE DUP3 PUSH0 MSTORE PUSH1 0x4 PUSH1 0x20 MSTORE PUSH1 0x40 PUSH0 KECCAK256 SWAP1 PUSH1 0x1 DUP1 PUSH1 0xA0 SHL SUB DUP2 MLOAD AND PUSH12 0xFFFFFFFFFFFFFFFFFFFFFFFF PUSH1 0xA0 SHL SWAP1 DUP2 DUP5 SLOAD AND OR DUP4 SSTORE PUSH1 0x1 DUP4 ADD SWAP1 PUSH1 0x1 DUP1 PUSH1 0xA0 SHL SUB PUSH1 0x20 DUP5 ADD MLOAD AND SWAP1 DUP3 SLOAD AND OR SWAP1 SSTORE PUSH1 0x40 DUP2 ADD MLOAD DUP1 MLOAD SWAP1 PUSH1 0x1 PUSH1 0x1 PUSH1 0x40 SHL SUB DUP3 GT PUSH2 0x8E6 JUMPI DUP2 SWAP1 PUSH2 0x573 PUSH1 0x2 DUP7 ADD SLOAD PUSH2 0x1523 JUMP JUMPDEST PUSH1 0x1F DUP2 GT PUSH2 0x896 JUMPI JUMPDEST POP PUSH1 0x20 SWAP1 PUSH1 0x1F DUP4 GT PUSH1 0x1 EQ PUSH2 0x828 JUMPI PUSH0 SWAP3 PUSH2 0x81D JUMPI JUMPDEST POP POP DUP2 PUSH1 0x1 SHL SWAP2 PUSH0 NOT SWAP1 PUSH1 0x3 SHL SHR NOT AND OR PUSH1 0x2 DUP4 ADD SSTORE JUMPDEST PUSH1 0x60 DUP2 ADD MLOAD SWAP1 PUSH1 0x4 DUP3 LT ISZERO PUSH2 0x224 JUMPI PUSH2 0x180 SWAP2 PUSH1 0x3 DUP5 ADD SLOAD PUSH1 0xFF PUSH9 0xFFFFFFFFFFFFFFFF00 PUSH1 0x80 DUP6 ADD MLOAD PUSH1 0x8 SHL AND SWAP3 AND SWAP1 PUSH9 0xFFFFFFFFFFFFFFFFFF NOT AND OR OR PUSH1 0x3 DUP5 ADD SSTORE PUSH1 0xA0 DUP2 ADD MLOAD PUSH1 0x4 DUP5 ADD SSTORE PUSH1 0x5 DUP4 ADD PUSH1 0xFF PUSH1 0xC0 DUP4 ADD MLOAD AND DUP2 SLOAD SWAP1 PUSH2 0x100 PUSH1 0x1 PUSH1 0xA8 SHL SUB PUSH1 0xE0 DUP6 ADD MLOAD PUSH1 0x8 SHL AND SWAP2 PUSH11 0xFFFFFFFFFFFFFFFFFFFFFF PUSH1 0xA8 SHL AND OR OR SWAP1 SSTORE PUSH2 0x100 DUP2 ADD MLOAD PUSH1 0x6 DUP5 ADD SSTORE PUSH2 0x120 DUP2 ADD MLOAD PUSH1 0x7 DUP5 ADD SSTORE PUSH1 0x1 PUSH1 0x1 PUSH1 0x40 SHL SUB PUSH2 0x140 DUP3 ADD MLOAD AND PUSH1 0x1 PUSH1 0x1 PUSH1 0x40 SHL SUB NOT PUSH1 0x8 DUP6 ADD SLOAD AND OR PUSH1 0x8 DUP5 ADD SSTORE PUSH2 0x6A4 PUSH1 0x1 PUSH1 0x1 PUSH1 0x40 SHL SUB PUSH2 0x160 DUP4 ADD MLOAD AND PUSH1 0x8 DUP6 ADD SWAP1 PUSH8 0xFFFFFFFFFFFFFFFF PUSH1 0x40 SHL DUP3 SLOAD SWAP2 PUSH1 0x40 SHL AND SWAP1 PUSH8 0xFFFFFFFFFFFFFFFF PUSH1 0x40 SHL NOT AND OR SWAP1 SSTORE JUMP JUMPDEST ADD MLOAD PUSH1 0x3 DUP2 LT ISZERO PUSH2 0x224 JUMPI PUSH1 0x8 SWAP2 SWAP1 SWAP2 ADD DUP1 SLOAD PUSH1 0xFF PUSH1 0x80 SHL NOT AND PUSH1 0x80 SWAP3 SWAP1 SWAP3 SHL PUSH1 0xFF PUSH1 0x80 SHL AND SWAP2 SWAP1 SWAP2 OR SWAP1 SSTORE PUSH1 0xE4 CALLDATALOAD PUSH2 0x777 JUMPI JUMPDEST PUSH1 0x20 SWAP3 DUP3 PUSH32 0x5ECDA452A46D099B7501BF13BFF76F7AE8DFE26D288FE25E37FF1604EBD58041 PUSH1 0x40 MLOAD SWAP4 PUSH2 0x70D DUP6 PUSH1 0x44 CALLDATALOAD PUSH2 0x157C JUMP JUMPDEST PUSH1 0xE4 CALLDATALOAD DUP8 DUP7 ADD MSTORE PUSH1 0x60 PUSH1 0x40 DUP7 ADD MSTORE DUP4 PUSH1 0x4 ADD CALLDATALOAD PUSH1 0x60 DUP7 ADD MSTORE DUP4 PUSH1 0x4 ADD CALLDATALOAD PUSH1 0x24 DUP6 ADD PUSH1 0x80 DUP8 ADD CALLDATACOPY PUSH0 PUSH1 0x80 DUP6 PUSH1 0x4 ADD CALLDATALOAD DUP8 ADD ADD MSTORE PUSH1 0x1 DUP1 PUSH1 0xA0 SHL SUB AND SWAP4 PUSH1 0x80 DUP2 CALLER SWAP6 PUSH1 0x1F DUP1 NOT SWAP2 PUSH1 0x4 ADD CALLDATALOAD ADD AND DUP2 ADD SUB ADD SWAP1 LOG4 PUSH1 0x1 PUSH0 DUP1 MLOAD PUSH1 0x20 PUSH2 0x1902 DUP4 CODECOPY DUP2 MLOAD SWAP2 MSTORE SSTORE PUSH1 0x40 MLOAD SWAP1 DUP2 MSTORE RETURN JUMPDEST PUSH32 0x0 SWAP3 PUSH1 0x40 MLOAD PUSH4 0x23B872DD PUSH1 0xE0 SHL PUSH0 MSTORE CALLER PUSH1 0x4 MSTORE ADDRESS PUSH1 0x24 MSTORE PUSH1 0xE4 CALLDATALOAD PUSH1 0x44 MSTORE PUSH1 0x20 PUSH0 PUSH1 0x64 DUP2 DUP1 DUP10 GAS CALL PUSH1 0x1 PUSH0 MLOAD EQ DUP2 AND ISZERO PUSH2 0x7FE JUMPI JUMPDEST DUP2 PUSH1 0x40 MSTORE PUSH0 PUSH1 0x60 MSTORE ISZERO PUSH2 0x7E0 JUMPI POP SWAP3 POP PUSH2 0x6D8 JUMP JUMPDEST PUSH4 0x5274AFE7 PUSH1 0xE0 SHL DUP2 MSTORE PUSH1 0x1 PUSH1 0x1 PUSH1 0xA0 SHL SUB DUP6 AND PUSH1 0x4 DUP3 ADD MSTORE PUSH1 0x24 SWAP1 REVERT JUMPDEST PUSH1 0x1 DUP2 ISZERO AND PUSH2 0x814 JUMPI DUP6 EXTCODESIZE ISZERO ISZERO RETURNDATASIZE ISZERO AND AND PUSH2 0x7CB JUMP JUMPDEST POP RETURNDATASIZE PUSH0 DUP3 RETURNDATACOPY RETURNDATASIZE SWAP1 REVERT JUMPDEST ADD MLOAD SWAP1 POP DUP8 DUP1 PUSH2 0x592 JUMP JUMPDEST SWAP3 POP PUSH1 0x2 DUP6 ADD PUSH0 MSTORE PUSH1 0x20 PUSH0 KECCAK256 SWAP1 PUSH0 SWAP4 JUMPDEST PUSH1 0x1F NOT DUP5 AND DUP6 LT PUSH2 0x87B JUMPI PUSH1 0x1 SWAP5 POP DUP4 PUSH1 0x1F NOT DUP2 AND LT PUSH2 0x863 JUMPI JUMPDEST POP POP POP DUP2 SHL ADD PUSH1 0x2 DUP4 ADD SSTORE PUSH2 0x5A9 JUMP JUMPDEST ADD MLOAD PUSH0 NOT PUSH1 0xF8 DUP5 PUSH1 0x3 SHL AND SHR NOT AND SWAP1 SSTORE DUP8 DUP1 DUP1 PUSH2 0x853 JUMP JUMPDEST DUP2 DUP2 ADD MLOAD DUP4 SSTORE PUSH1 0x20 SWAP5 DUP6 ADD SWAP5 PUSH1 0x1 SWAP1 SWAP4 ADD SWAP3 SWAP1 SWAP2 ADD SWAP1 PUSH2 0x838 JUMP JUMPDEST SWAP1 SWAP2 POP PUSH1 0x2 DUP6 ADD PUSH0 MSTORE PUSH1 0x20 PUSH0 KECCAK256 PUSH1 0x1F DUP5 ADD PUSH1 0x5 SHR DUP2 ADD PUSH1 0x20 DUP6 LT PUSH2 0x8DF JUMPI JUMPDEST SWAP1 DUP5 SWAP4 SWAP3 SWAP2 JUMPDEST PUSH1 0x1F DUP4 ADD PUSH1 0x5 SHR DUP3 ADD DUP2 LT PUSH2 0x8D1 JUMPI POP POP PUSH2 0x57C JUMP JUMPDEST PUSH0 DUP2 SSTORE DUP6 SWAP5 POP PUSH1 0x1 ADD PUSH2 0x8BB JUMP JUMPDEST POP DUP1 PUSH2 0x8B5 JUMP JUMPDEST PUSH4 0x4E487B71 PUSH1 0xE0 SHL PUSH0 MSTORE PUSH1 0x41 PUSH1 0x4 MSTORE PUSH1 0x24 PUSH0 REVERT JUMPDEST PUSH4 0x4E487B71 PUSH1 0xE0 SHL PUSH0 MSTORE PUSH1 0x11 PUSH1 0x4 MSTORE PUSH1 0x24 PUSH0 REVERT JUMPDEST PUSH1 0x1 PUSH1 0x1 PUSH1 0xA0 SHL SUB DUP2 AND PUSH2 0x41A JUMPI PUSH1 0x40 MLOAD PUSH3 0x461BCD PUSH1 0xE5 SHL DUP2 MSTORE PUSH1 0x20 PUSH1 0x4 DUP3 ADD MSTORE PUSH1 0x18 PUSH1 0x24 DUP3 ADD MSTORE PUSH32 0x43415053554C453A20696E76616C69642063757261746F720000000000000000 PUSH1 0x44 DUP3 ADD MSTORE PUSH1 0x64 SWAP1 REVERT JUMPDEST PUSH1 0x84 CALLDATALOAD PUSH2 0x40F JUMPI PUSH1 0x40 MLOAD PUSH3 0x461BCD PUSH1 0xE5 SHL DUP2 MSTORE PUSH1 0x20 PUSH1 0x4 DUP3 ADD MSTORE PUSH1 0x1F PUSH1 0x24 DUP3 ADD MSTORE PUSH32 0x43415053554C453A20696E76616C6964206F7261636C65207375626A65637400 PUSH1 0x44 DUP3 ADD MSTORE PUSH1 0x64 SWAP1 REVERT JUMPDEST PUSH1 0x1 PUSH1 0x1 PUSH1 0x40 SHL SUB TIMESTAMP AND PUSH1 0x1 PUSH1 0x1 PUSH1 0x40 SHL SUB DUP6 AND GT PUSH2 0x404 JUMPI PUSH1 0x40 MLOAD PUSH3 0x461BCD PUSH1 0xE5 SHL DUP2 MSTORE PUSH1 0x20 PUSH1 0x4 DUP3 ADD MSTORE PUSH1 0x1C PUSH1 0x24 DUP3 ADD MSTORE PUSH32 0x43415053554C453A20756E6C6F636B2074696D6520696E207061737400000000 PUSH1 0x44 DUP3 ADD MSTORE PUSH1 0x64 SWAP1 REVERT JUMPDEST PUSH1 0x40 MLOAD PUSH3 0x461BCD PUSH1 0xE5 SHL DUP2 MSTORE PUSH1 0x20 PUSH1 0x4 DUP3 ADD MSTORE PUSH1 0x1E PUSH1 0x24 DUP3 ADD MSTORE PUSH32 0x43415053554C453A20696E76616C6964206D6574616461746120686173680000 PUSH1 0x44 DUP3 ADD MSTORE PUSH1 0x64 SWAP1 REVERT JUMPDEST PUSH1 0x40 MLOAD PUSH3 0x461BCD PUSH1 0xE5 SHL DUP2 MSTORE PUSH1 0x20 PUSH1 0x4 DUP3 ADD MSTORE PUSH1 0x12 PUSH1 0x24 DUP3 ADD MSTORE PUSH18 0x10D05414D553114E88195B5C1D1E4810D251 PUSH1 0x72 SHL PUSH1 0x44 DUP3 ADD MSTORE PUSH1 0x64 SWAP1 REVERT JUMPDEST PUSH1 0x40 MLOAD PUSH3 0x461BCD PUSH1 0xE5 SHL DUP2 MSTORE PUSH1 0x20 PUSH1 0x4 DUP3 ADD MSTORE PUSH1 0x1C PUSH1 0x24 DUP3 ADD MSTORE PUSH32 0x43415053554C453A20696E76616C69642062656E656669636961727900000000 PUSH1 0x44 DUP3 ADD MSTORE PUSH1 0x64 SWAP1 REVERT JUMPDEST CALLVALUE PUSH2 0x238 JUMPI PUSH1 0x40 CALLDATASIZE PUSH1 0x3 NOT ADD SLT PUSH2 0x238 JUMPI PUSH2 0xB0B PUSH1 0x4 CALLDATALOAD PUSH2 0xAEE PUSH2 0x1500 JUMP JUMPDEST SWAP1 DUP1 PUSH0 MSTORE PUSH0 PUSH1 0x20 MSTORE PUSH2 0xB06 PUSH1 0x1 PUSH1 0x40 PUSH0 KECCAK256 ADD SLOAD PUSH2 0x166D JUMP JUMPDEST PUSH2 0x170A JUMP JUMPDEST STOP JUMPDEST CALLVALUE PUSH2 0x238 JUMPI PUSH1 0x20 CALLDATASIZE PUSH1 0x3 NOT ADD SLT PUSH2 0x238 JUMPI PUSH1 0x4 CALLDATALOAD PUSH2 0xB29 PUSH2 0x177C JUMP JUMPDEST PUSH2 0xB31 PUSH2 0x179A JUMP JUMPDEST DUP1 PUSH0 MSTORE PUSH1 0x4 PUSH1 0x20 MSTORE PUSH1 0x40 PUSH0 KECCAK256 PUSH1 0x8 DUP2 ADD SWAP1 DUP2 SLOAD SWAP1 PUSH1 0xFF DUP3 PUSH1 0x80 SHR AND PUSH1 0x3 DUP2 LT ISZERO PUSH2 0x224 JUMPI PUSH2 0xB5F SWAP1 ISZERO PUSH2 0x1589 JUMP JUMPDEST DUP1 SLOAD PUSH1 0x1 PUSH1 0x1 PUSH1 0xA0 SHL SUB AND SWAP3 CALLER DUP5 SWAP1 SUB PUSH2 0xBF9 JUMPI PUSH1 0xFF PUSH1 0x80 SHL NOT SWAP1 SWAP3 AND PUSH1 0x1 PUSH1 0x81 SHL OR SWAP1 SWAP2 SSTORE PUSH1 0x6 ADD SLOAD DUP1 PUSH2 0xBC8 JUMPI JUMPDEST CALLER DUP4 PUSH32 0xA1D1E86FC4683D85919CA0E086901A54BA5DF5917501641BF9921412A9C3C25C PUSH0 DUP1 LOG3 PUSH1 0x1 PUSH0 DUP1 MLOAD PUSH1 0x20 PUSH2 0x1902 DUP4 CODECOPY DUP2 MLOAD SWAP2 MSTORE SSTORE STOP JUMPDEST PUSH2 0xBF2 SWAP2 PUSH32 0x0 PUSH2 0x1883 JUMP JUMPDEST DUP2 DUP1 PUSH2 0xB8F JUMP JUMPDEST PUSH1 0x40 MLOAD PUSH3 0x461BCD PUSH1 0xE5 SHL DUP2 MSTORE PUSH1 0x20 PUSH1 0x4 DUP3 ADD MSTORE PUSH1 0x14 PUSH1 0x24 DUP3 ADD MSTORE PUSH20 0x21A0A829AAA6229D103737BA1031B932B0BA37B9 PUSH1 0x61 SHL PUSH1 0x44 DUP3 ADD MSTORE PUSH1 0x64 SWAP1 REVERT JUMPDEST CALLVALUE PUSH2 0x238 JUMPI PUSH0 CALLDATASIZE PUSH1 0x3 NOT ADD SLT PUSH2 0x238 JUMPI PUSH1 0x3 SLOAD PUSH1 0x40 MLOAD PUSH1 0x1 PUSH1 0x1 PUSH1 0xA0 SHL SUB SWAP1 SWAP2 AND DUP2 MSTORE PUSH1 0x20 SWAP1 RETURN JUMPDEST CALLVALUE PUSH2 0x238 JUMPI PUSH1 0x20 DUP1 PUSH1 0x3 NOT CALLDATASIZE ADD SLT PUSH2 0x238 JUMPI PUSH1 0x4 CALLDATALOAD PUSH2 0xC7A PUSH2 0x177C JUMP JUMPDEST PUSH2 0xC82 PUSH2 0x179A JUMP JUMPDEST DUP1 PUSH0 MSTORE PUSH1 0x4 DUP3 MSTORE PUSH1 0x40 PUSH0 KECCAK256 SWAP1 PUSH1 0xFF PUSH1 0x8 DUP4 ADD SLOAD PUSH1 0x80 SHR AND PUSH1 0x3 DUP2 LT ISZERO PUSH2 0x224 JUMPI PUSH2 0xCAC SWAP1 ISZERO PUSH2 0x1589 JUMP JUMPDEST PUSH1 0xFF PUSH1 0x3 DUP4 ADD SLOAD AND PUSH1 0x4 DUP2 LT ISZERO PUSH2 0x224 JUMPI PUSH1 0x1 PUSH2 0xCC9 SWAP2 EQ PUSH2 0x15CB JUMP JUMPDEST PUSH1 0x3 SLOAD PUSH1 0x1 PUSH1 0x1 PUSH1 0xA0 SHL SUB AND DUP1 ISZERO PUSH2 0xDBA JUMPI DUP4 PUSH1 0x4 DUP5 ADD SLOAD PUSH1 0x44 PUSH1 0xFF PUSH1 0x5 DUP8 ADD SLOAD AND SWAP2 PUSH1 0x40 MLOAD SWAP5 DUP6 SWAP4 DUP5 SWAP3 PUSH4 0x5DA377E3 PUSH1 0xE0 SHL DUP5 MSTORE PUSH1 0x4 DUP5 ADD MSTORE PUSH1 0x24 DUP4 ADD MSTORE GAS STATICCALL SWAP1 DUP2 ISZERO PUSH2 0xDAF JUMPI PUSH0 SWAP2 PUSH2 0xD79 JUMPI JUMPDEST POP ISZERO PUSH2 0xD28 JUMPI PUSH2 0x2CF SWAP3 POP PUSH2 0x17C9 JUMP JUMPDEST PUSH1 0x40 MLOAD PUSH3 0x461BCD PUSH1 0xE5 SHL DUP2 MSTORE PUSH1 0x4 DUP2 ADD DUP5 SWAP1 MSTORE PUSH1 0x23 PUSH1 0x24 DUP3 ADD MSTORE PUSH32 0x43415053554C453A206F7261636C65206576656E74206E6F7420636F6E666972 PUSH1 0x44 DUP3 ADD MSTORE PUSH3 0x1B5959 PUSH1 0xEA SHL PUSH1 0x64 DUP3 ADD MSTORE PUSH1 0x84 SWAP1 REVERT JUMPDEST SWAP1 POP DUP4 DUP2 DUP2 RETURNDATASIZE DUP4 GT PUSH2 0xDA8 JUMPI JUMPDEST PUSH2 0xD90 DUP2 DUP4 PUSH2 0x155B JUMP JUMPDEST DUP2 ADD SUB SLT PUSH2 0x238 JUMPI MLOAD DUP1 ISZERO ISZERO DUP2 SUB PUSH2 0x238 JUMPI DUP5 PUSH2 0xD18 JUMP JUMPDEST POP RETURNDATASIZE PUSH2 0xD86 JUMP JUMPDEST PUSH1 0x40 MLOAD RETURNDATASIZE PUSH0 DUP3 RETURNDATACOPY RETURNDATASIZE SWAP1 REVERT JUMPDEST PUSH1 0x40 MLOAD PUSH3 0x461BCD PUSH1 0xE5 SHL DUP2 MSTORE PUSH1 0x4 DUP2 ADD DUP6 SWAP1 MSTORE PUSH1 0x1E PUSH1 0x24 DUP3 ADD MSTORE PUSH32 0x43415053554C453A206F7261636C65206E6F7420636F6E666967757265640000 PUSH1 0x44 DUP3 ADD MSTORE PUSH1 0x64 SWAP1 REVERT JUMPDEST CALLVALUE PUSH2 0x238 JUMPI PUSH0 CALLDATASIZE PUSH1 0x3 NOT ADD SLT PUSH2 0x238 JUMPI PUSH1 0x20 PUSH1 0x40 MLOAD PUSH0 DUP2 MSTORE RETURN JUMPDEST CALLVALUE PUSH2 0x238 JUMPI PUSH1 0x20 CALLDATASIZE PUSH1 0x3 NOT ADD SLT PUSH2 0x238 JUMPI PUSH1 0x4 CALLDATALOAD PUSH0 MSTORE PUSH1 0x5 PUSH1 0x20 MSTORE PUSH1 0x20 PUSH1 0xFF PUSH1 0x40 PUSH0 KECCAK256 SLOAD AND PUSH1 0x40 MLOAD SWAP1 ISZERO ISZERO DUP2 MSTORE RETURN JUMPDEST CALLVALUE PUSH2 0x238 JUMPI PUSH1 0x40 CALLDATASIZE PUSH1 0x3 NOT ADD SLT PUSH2 0x238 JUMPI PUSH2 0xE61 PUSH2 0x1500 JUMP JUMPDEST PUSH1 0x4 CALLDATALOAD PUSH0 MSTORE PUSH0 PUSH1 0x20 MSTORE PUSH1 0x40 PUSH0 KECCAK256 SWAP1 PUSH1 0x1 DUP1 PUSH1 0xA0 SHL SUB AND PUSH0 MSTORE PUSH1 0x20 MSTORE PUSH1 0x20 PUSH1 0xFF PUSH1 0x40 PUSH0 KECCAK256 SLOAD AND PUSH1 0x40 MLOAD SWAP1 ISZERO ISZERO DUP2 MSTORE RETURN JUMPDEST CALLVALUE PUSH2 0x238 JUMPI PUSH0 CALLDATASIZE PUSH1 0x3 NOT ADD SLT PUSH2 0x238 JUMPI PUSH2 0xEA8 PUSH2 0x1617 JUMP JUMPDEST PUSH2 0xEB0 PUSH2 0x177C JUMP JUMPDEST PUSH1 0x1 PUSH1 0xFF NOT DUP2 SLOAD AND OR PUSH1 0x1 SSTORE PUSH32 0x62E78CEA01BEE320CD4E420270B5EA74000D11B0C9F74754EBDBFC544B05A258 PUSH1 0x20 PUSH1 0x40 MLOAD CALLER DUP2 MSTORE LOG1 STOP JUMPDEST CALLVALUE PUSH2 0x238 JUMPI PUSH1 0x20 DUP1 PUSH1 0x3 NOT CALLDATASIZE ADD SLT PUSH2 0x238 JUMPI PUSH1 0x4 CALLDATALOAD PUSH2 0xF05 PUSH2 0x177C JUMP JUMPDEST PUSH2 0xF0D PUSH2 0x179A JUMP JUMPDEST PUSH32 0xD8AA0F3194971A2A116679F7C2090F6939C8D4E01A2A8D7E41D55E5351469E63 DUP1 PUSH0 MSTORE PUSH0 DUP4 MSTORE PUSH1 0x40 PUSH0 KECCAK256 CALLER PUSH0 MSTORE DUP4 MSTORE PUSH1 0xFF PUSH1 0x40 PUSH0 KECCAK256 SLOAD AND ISZERO PUSH2 0xFF5 JUMPI POP DUP1 PUSH0 MSTORE PUSH1 0x4 DUP3 MSTORE PUSH1 0x40 PUSH0 KECCAK256 SWAP1 PUSH1 0xFF PUSH1 0x8 DUP4 ADD SLOAD PUSH1 0x80 SHR AND PUSH1 0x3 DUP2 LT ISZERO PUSH2 0x224 JUMPI PUSH2 0xF75 SWAP1 ISZERO PUSH2 0x1589 JUMP JUMPDEST PUSH1 0xFF PUSH1 0x3 DUP4 ADD SLOAD AND PUSH1 0x4 DUP2 LT ISZERO PUSH2 0x224 JUMPI PUSH1 0x2 PUSH2 0xF92 SWAP2 EQ PUSH2 0x15CB JUMP JUMPDEST DUP1 PUSH0 MSTORE PUSH1 0x5 DUP4 MSTORE PUSH1 0xFF PUSH1 0x40 PUSH0 KECCAK256 SLOAD AND ISZERO PUSH2 0xFB0 JUMPI PUSH2 0x2CF SWAP3 POP PUSH2 0x17C9 JUMP JUMPDEST PUSH1 0x40 MLOAD PUSH3 0x461BCD PUSH1 0xE5 SHL DUP2 MSTORE PUSH1 0x4 DUP2 ADD DUP5 SWAP1 MSTORE PUSH1 0x1D PUSH1 0x24 DUP3 ADD MSTORE PUSH32 0x43415053554C453A2063757261746F72206E6F7420617070726F766564000000 PUSH1 0x44 DUP3 ADD MSTORE PUSH1 0x64 SWAP1 REVERT JUMPDEST PUSH1 0x44 SWAP1 PUSH1 0x40 MLOAD SWAP1 PUSH4 0xE2517D3F PUSH1 0xE0 SHL DUP3 MSTORE CALLER PUSH1 0x4 DUP4 ADD MSTORE PUSH1 0x24 DUP3 ADD MSTORE REVERT JUMPDEST CALLVALUE PUSH2 0x238 JUMPI PUSH0 CALLDATASIZE PUSH1 0x3 NOT ADD SLT PUSH2 0x238 JUMPI PUSH1 0x40 MLOAD PUSH32 0x0 PUSH1 0x1 PUSH1 0x1 PUSH1 0xA0 SHL SUB AND DUP2 MSTORE PUSH1 0x20 SWAP1 RETURN JUMPDEST CALLVALUE PUSH2 0x238 JUMPI PUSH0 CALLDATASIZE PUSH1 0x3 NOT ADD SLT PUSH2 0x238 JUMPI PUSH1 0x20 PUSH1 0xFF PUSH1 0x1 SLOAD AND PUSH1 0x40 MLOAD SWAP1 ISZERO ISZERO DUP2 MSTORE RETURN JUMPDEST CALLVALUE PUSH2 0x238 JUMPI PUSH1 0x20 DUP1 PUSH1 0x3 NOT CALLDATASIZE ADD SLT PUSH2 0x238 JUMPI PUSH1 0x4 CALLDATALOAD PUSH0 MSTORE PUSH1 0x4 DUP2 MSTORE PUSH1 0x40 PUSH0 KECCAK256 PUSH1 0x1 DUP1 PUSH1 0xA0 SHL SUB SWAP1 DUP2 DUP2 SLOAD AND SWAP2 PUSH1 0x1 SWAP2 DUP2 PUSH1 0x1 DUP3 ADD SLOAD AND SWAP5 PUSH1 0x2 DUP3 ADD PUSH1 0x40 MLOAD DUP1 SWAP6 PUSH0 SWAP1 DUP4 SLOAD SWAP4 PUSH2 0x10C7 DUP6 PUSH2 0x1523 JUMP JUMPDEST SWAP5 DUP6 DUP6 MSTORE DUP7 PUSH1 0x1 DUP3 AND SWAP2 DUP3 PUSH0 EQ PUSH2 0x1229 JUMPI POP POP PUSH1 0x1 EQ PUSH2 0x11ED JUMPI JUMPDEST POP POP PUSH2 0x10F8 SWAP3 POP SWAP8 SWAP5 SWAP3 SWAP8 SWAP7 SWAP4 SWAP6 SWAP7 SUB DUP7 PUSH2 0x155B JUMP JUMPDEST PUSH1 0x3 DUP5 ADD SLOAD SWAP4 PUSH1 0x1 PUSH1 0x1 PUSH1 0x40 SHL SUB SWAP1 PUSH1 0x4 DUP2 ADD SLOAD SWAP3 PUSH1 0x5 DUP3 ADD SLOAD SWAP1 PUSH1 0x6 DUP4 ADD SLOAD SWAP2 PUSH1 0x8 PUSH1 0x7 DUP6 ADD SLOAD SWAP5 ADD SLOAD SWAP6 PUSH1 0x40 MLOAD SWAP12 DUP13 SWAP10 PUSH2 0x1A0 SWAP10 DUP12 MSTORE DUP2 DUP12 ADD MSTORE DUP9 PUSH1 0x40 DUP12 ADD MSTORE DUP12 MLOAD SWAP12 DUP13 DUP1 SWAP11 DUP13 ADD MSTORE PUSH0 JUMPDEST DUP11 DUP2 LT PUSH2 0x11D0 JUMPI POP POP POP DUP6 DUP10 SWAP11 PUSH0 PUSH2 0x11C2 SWAP11 SWAP12 PUSH2 0x1C0 SWAP15 DUP16 SWAP2 ADD ADD MSTORE PUSH2 0x1171 PUSH1 0x60 DUP14 ADD PUSH1 0xFF DUP4 AND PUSH2 0x157C JUMP JUMPDEST PUSH1 0x8 SHR AND PUSH1 0x80 DUP12 ADD MSTORE PUSH1 0xA0 DUP11 ADD MSTORE PUSH1 0xFF DUP2 AND PUSH1 0xC0 DUP11 ADD MSTORE PUSH1 0x8 SHR AND PUSH1 0xE0 DUP9 ADD MSTORE PUSH2 0x100 DUP8 ADD MSTORE PUSH2 0x120 DUP7 ADD MSTORE DUP1 DUP3 AND PUSH2 0x140 DUP7 ADD MSTORE DUP2 PUSH1 0x40 SHR AND PUSH2 0x160 DUP6 ADD MSTORE PUSH1 0xFF PUSH2 0x180 DUP6 ADD SWAP2 PUSH1 0x80 SHR AND PUSH2 0x1516 JUMP JUMPDEST PUSH1 0x1F ADD PUSH1 0x1F NOT AND DUP2 ADD SUB ADD SWAP1 RETURN JUMPDEST DUP2 DUP2 ADD DUP4 ADD MLOAD SWAP12 DUP2 ADD PUSH2 0x1C0 ADD SWAP12 SWAP1 SWAP12 MSTORE DUP14 SWAP11 DUP14 SWAP11 POP DUP3 ADD PUSH2 0x1145 JUMP JUMPDEST DUP6 SWAP3 POP PUSH0 MSTORE DUP2 PUSH0 KECCAK256 SWAP1 PUSH0 SWAP2 JUMPDEST DUP6 DUP4 LT PUSH2 0x1211 JUMPI POP POP PUSH2 0x10F8 SWAP4 POP DUP3 ADD ADD DUP10 DUP1 PUSH2 0x10E2 JUMP JUMPDEST DUP1 SLOAD DUP4 DUP12 ADD DUP6 ADD MSTORE DUP10 SWAP5 POP DUP7 SWAP4 SWAP1 SWAP3 ADD SWAP2 DUP2 ADD PUSH2 0x11F9 JUMP JUMPDEST SWAP3 POP SWAP4 POP POP PUSH2 0x10F8 SWAP5 SWAP2 POP PUSH1 0xFF NOT AND DUP3 DUP5 ADD MSTORE ISZERO ISZERO PUSH1 0x5 SHL DUP3 ADD ADD DUP10 DUP1 PUSH2 0x10E2 JUMP JUMPDEST CALLVALUE PUSH2 0x238 JUMPI PUSH0 CALLDATASIZE PUSH1 0x3 NOT ADD SLT PUSH2 0x238 JUMPI PUSH1 0x20 PUSH1 0x40 MLOAD PUSH32 0x850D585EB7F024CCEE5E68E55F2C26CC72E1E6EE456ACF62135757A5EB9D4A10 DUP2 MSTORE RETURN JUMPDEST CALLVALUE PUSH2 0x238 JUMPI PUSH0 CALLDATASIZE PUSH1 0x3 NOT ADD SLT PUSH2 0x238 JUMPI PUSH2 0x129D PUSH2 0x1617 JUMP JUMPDEST PUSH1 0x1 SLOAD PUSH1 0xFF DUP2 AND ISZERO PUSH2 0x12DC JUMPI PUSH1 0xFF NOT AND PUSH1 0x1 SSTORE PUSH32 0x5DB9EE0A495BF2E6FF9C91A7834C1BA4FDD244A5E8AA4E537BD38AEAE4B073AA PUSH1 0x20 PUSH1 0x40 MLOAD CALLER DUP2 MSTORE LOG1 STOP JUMPDEST PUSH1 0x40 MLOAD PUSH4 0x8DFC202B PUSH1 0xE0 SHL DUP2 MSTORE PUSH1 0x4 SWAP1 REVERT JUMPDEST CALLVALUE PUSH2 0x238 JUMPI PUSH1 0x40 CALLDATASIZE PUSH1 0x3 NOT ADD SLT PUSH2 0x238 JUMPI PUSH2 0x1307 PUSH2 0x1500 JUMP JUMPDEST CALLER PUSH1 0x1 PUSH1 0x1 PUSH1 0xA0 SHL SUB DUP3 AND SUB PUSH2 0x1323 JUMPI PUSH2 0xB0B SWAP1 PUSH1 0x4 CALLDATALOAD PUSH2 0x170A JUMP JUMPDEST PUSH1 0x40 MLOAD PUSH4 0x334BD919 PUSH1 0xE1 SHL DUP2 MSTORE PUSH1 0x4 SWAP1 REVERT JUMPDEST CALLVALUE PUSH2 0x238 JUMPI PUSH1 0x40 CALLDATASIZE PUSH1 0x3 NOT ADD SLT PUSH2 0x238 JUMPI PUSH2 0xB0B PUSH1 0x4 CALLDATALOAD PUSH2 0x1354 PUSH2 0x1500 JUMP JUMPDEST SWAP1 DUP1 PUSH0 MSTORE PUSH0 PUSH1 0x20 MSTORE PUSH2 0x136C PUSH1 0x1 PUSH1 0x40 PUSH0 KECCAK256 ADD SLOAD PUSH2 0x166D JUMP JUMPDEST PUSH2 0x168E JUMP JUMPDEST CALLVALUE PUSH2 0x238 JUMPI PUSH1 0x20 CALLDATASIZE PUSH1 0x3 NOT ADD SLT PUSH2 0x238 JUMPI PUSH1 0x4 CALLDATALOAD PUSH0 MSTORE PUSH1 0x4 PUSH1 0x20 MSTORE PUSH1 0x20 PUSH1 0xFF PUSH1 0x8 PUSH1 0x40 PUSH0 KECCAK256 ADD SLOAD PUSH1 0x80 SHR AND PUSH2 0x13A9 PUSH1 0x40 MLOAD DUP1 SWAP3 PUSH2 0x1516 JUMP JUMPDEST RETURN JUMPDEST CALLVALUE PUSH2 0x238 JUMPI PUSH1 0x20 CALLDATASIZE PUSH1 0x3 NOT ADD SLT PUSH2 0x238 JUMPI PUSH1 0x4 CALLDATALOAD PUSH0 MSTORE PUSH0 PUSH1 0x20 MSTORE PUSH1 0x20 PUSH1 0x1 PUSH1 0x40 PUSH0 KECCAK256 ADD SLOAD PUSH1 0x40 MLOAD SWAP1 DUP2 MSTORE RETURN JUMPDEST CALLVALUE PUSH2 0x238 JUMPI PUSH1 0x20 CALLDATASIZE PUSH1 0x3 NOT ADD SLT PUSH2 0x238 JUMPI PUSH2 0x13F0 PUSH2 0x14EA JUMP JUMPDEST PUSH2 0x13F8 PUSH2 0x1617 JUMP JUMPDEST PUSH1 0x3 DUP1 SLOAD PUSH1 0x1 PUSH1 0x1 PUSH1 0xA0 SHL SUB SWAP3 DUP4 AND PUSH1 0x1 PUSH1 0x1 PUSH1 0xA0 SHL SUB NOT DUP3 AND DUP2 OR SWAP1 SWAP3 SSTORE SWAP1 SWAP2 AND PUSH32 0xA2C25CA373C727BE01CE62A4879A7CDA215DFC392279E1E456CD6AFB873317A7 PUSH0 DUP1 LOG3 STOP JUMPDEST CALLVALUE PUSH2 0x238 JUMPI PUSH0 CALLDATASIZE PUSH1 0x3 NOT ADD SLT PUSH2 0x238 JUMPI PUSH1 0x20 PUSH1 0x40 MLOAD PUSH32 0xD8AA0F3194971A2A116679F7C2090F6939C8D4E01A2A8D7E41D55E5351469E63 DUP2 MSTORE RETURN JUMPDEST CALLVALUE PUSH2 0x238 JUMPI PUSH0 CALLDATASIZE PUSH1 0x3 NOT ADD SLT PUSH2 0x238 JUMPI PUSH1 0x20 PUSH1 0x2 SLOAD PUSH1 0x40 MLOAD SWAP1 DUP2 MSTORE RETURN JUMPDEST CALLVALUE PUSH2 0x238 JUMPI PUSH1 0x20 CALLDATASIZE PUSH1 0x3 NOT ADD SLT PUSH2 0x238 JUMPI PUSH1 0x4 CALLDATALOAD SWAP1 PUSH4 0xFFFFFFFF PUSH1 0xE0 SHL DUP3 AND DUP1 SWAP3 SUB PUSH2 0x238 JUMPI PUSH1 0x20 SWAP2 PUSH4 0x7965DB0B PUSH1 0xE0 SHL DUP2 EQ SWAP1 DUP2 ISZERO PUSH2 0x14D9 JUMPI JUMPDEST POP ISZERO ISZERO DUP2 MSTORE RETURN JUMPDEST PUSH4 0x1FFC9A7 PUSH1 0xE0 SHL EQ SWAP1 POP DUP4 PUSH2 0x14D2 JUMP JUMPDEST PUSH1 0x4 CALLDATALOAD SWAP1 PUSH1 0x1 PUSH1 0x1 PUSH1 0xA0 SHL SUB DUP3 AND DUP3 SUB PUSH2 0x238 JUMPI JUMP JUMPDEST PUSH1 0x24 CALLDATALOAD SWAP1 PUSH1 0x1 PUSH1 0x1 PUSH1 0xA0 SHL SUB DUP3 AND DUP3 SUB PUSH2 0x238 JUMPI JUMP JUMPDEST SWAP1 PUSH1 0x3 DUP3 LT ISZERO PUSH2 0x224 JUMPI MSTORE JUMP JUMPDEST SWAP1 PUSH1 0x1 DUP3 DUP2 SHR SWAP3 AND DUP1 ISZERO PUSH2 0x1551 JUMPI JUMPDEST PUSH1 0x20 DUP4 LT EQ PUSH2 0x153D JUMPI JUMP JUMPDEST PUSH4 0x4E487B71 PUSH1 0xE0 SHL PUSH0 MSTORE PUSH1 0x22 PUSH1 0x4 MSTORE PUSH1 0x24 PUSH0 REVERT JUMPDEST SWAP2 PUSH1 0x7F AND SWAP2 PUSH2 0x1532 JUMP JUMPDEST SWAP1 PUSH1 0x1F DUP1 NOT SWAP2 ADD AND DUP2 ADD SWAP1 DUP2 LT PUSH1 0x1 PUSH1 0x1 PUSH1 0x40 SHL SUB DUP3 GT OR PUSH2 0x8E6 JUMPI PUSH1 0x40 MSTORE JUMP JUMPDEST SWAP1 PUSH1 0x4 DUP3 LT ISZERO PUSH2 0x224 JUMPI MSTORE JUMP JUMPDEST ISZERO PUSH2 0x1590 JUMPI JUMP JUMPDEST PUSH1 0x40 MLOAD PUSH3 0x461BCD PUSH1 0xE5 SHL DUP2 MSTORE PUSH1 0x20 PUSH1 0x4 DUP3 ADD MSTORE PUSH1 0x13 PUSH1 0x24 DUP3 ADD MSTORE PUSH19 0x43415053554C453A206E6F7420616374697665 PUSH1 0x68 SHL PUSH1 0x44 DUP3 ADD MSTORE PUSH1 0x64 SWAP1 REVERT JUMPDEST ISZERO PUSH2 0x15D2 JUMPI JUMP JUMPDEST PUSH1 0x40 MLOAD PUSH3 0x461BCD PUSH1 0xE5 SHL DUP2 MSTORE PUSH1 0x20 PUSH1 0x4 DUP3 ADD MSTORE PUSH1 0x1B PUSH1 0x24 DUP3 ADD MSTORE PUSH32 0x43415053554C453A2077726F6E67207472696767657220747970650000000000 PUSH1 0x44 DUP3 ADD MSTORE PUSH1 0x64 SWAP1 REVERT JUMPDEST CALLER PUSH0 SWAP1 DUP2 MSTORE PUSH32 0xAD3228B676F7D3CD4284A5443F17F1962B36E491B30A40B2405849E597BA5FB5 PUSH1 0x20 MSTORE PUSH1 0x40 SWAP1 KECCAK256 SLOAD PUSH1 0xFF AND ISZERO PUSH2 0x164F JUMPI JUMP JUMPDEST PUSH1 0x40 MLOAD PUSH4 0xE2517D3F PUSH1 0xE0 SHL DUP2 MSTORE CALLER PUSH1 0x4 DUP3 ADD MSTORE PUSH0 PUSH1 0x24 DUP3 ADD MSTORE PUSH1 0x44 SWAP1 REVERT JUMPDEST DUP1 PUSH0 MSTORE PUSH0 PUSH1 0x20 MSTORE PUSH1 0x40 PUSH0 KECCAK256 CALLER PUSH0 MSTORE PUSH1 0x20 MSTORE PUSH1 0xFF PUSH1 0x40 PUSH0 KECCAK256 SLOAD AND ISZERO PUSH2 0xFF5 JUMPI POP JUMP JUMPDEST SWAP1 DUP2 PUSH0 MSTORE PUSH0 PUSH1 0x20 MSTORE PUSH1 0x40 PUSH0 KECCAK256 SWAP1 PUSH1 0x1 DUP1 PUSH1 0xA0 SHL SUB AND SWAP1 DUP2 PUSH0 MSTORE PUSH1 0x20 MSTORE PUSH1 0xFF PUSH1 0x40 PUSH0 KECCAK256 SLOAD AND ISZERO PUSH0 EQ PUSH2 0x1704 JUMPI DUP2 PUSH0 MSTORE PUSH0 PUSH1 0x20 MSTORE PUSH1 0x40 PUSH0 KECCAK256 DUP2 PUSH0 MSTORE PUSH1 0x20 MSTORE PUSH1 0x40 PUSH0 KECCAK256 PUSH1 0x1 PUSH1 0xFF NOT DUP3 SLOAD AND OR SWAP1 SSTORE CALLER SWAP2 PUSH32 0x2F8788117E7EFF1D82E926EC794901D17C78024A50270940304540A733656F0D PUSH0 DUP1 LOG4 PUSH1 0x1 SWAP1 JUMP JUMPDEST POP POP PUSH0 SWAP1 JUMP JUMPDEST SWAP1 DUP2 PUSH0 MSTORE PUSH0 PUSH1 0x20 MSTORE PUSH1 0x40 PUSH0 KECCAK256 SWAP1 PUSH1 0x1 DUP1 PUSH1 0xA0 SHL SUB AND SWAP1 DUP2 PUSH0 MSTORE PUSH1 0x20 MSTORE PUSH1 0xFF PUSH1 0x40 PUSH0 KECCAK256 SLOAD AND PUSH0 EQ PUSH2 0x1704 JUMPI DUP2 PUSH0 MSTORE PUSH0 PUSH1 0x20 MSTORE PUSH1 0x40 PUSH0 KECCAK256 DUP2 PUSH0 MSTORE PUSH1 0x20 MSTORE PUSH1 0x40 PUSH0 KECCAK256 PUSH1 0xFF NOT DUP2 SLOAD AND SWAP1 SSTORE CALLER SWAP2 PUSH32 0xF6391F5C32D9C69D2A47EA670B442974B53935D1EDC7FD64EB21E047A839171B PUSH0 DUP1 LOG4 PUSH1 0x1 SWAP1 JUMP JUMPDEST PUSH1 0xFF PUSH1 0x1 SLOAD AND PUSH2 0x1788 JUMPI JUMP JUMPDEST PUSH1 0x40 MLOAD PUSH4 0xD93C0665 PUSH1 0xE0 SHL DUP2 MSTORE PUSH1 0x4 SWAP1 REVERT JUMPDEST PUSH0 DUP1 MLOAD PUSH1 0x20 PUSH2 0x1902 DUP4 CODECOPY DUP2 MLOAD SWAP2 MSTORE PUSH1 0x2 DUP2 SLOAD EQ PUSH2 0x17B7 JUMPI PUSH1 0x2 SWAP1 SSTORE JUMP JUMPDEST PUSH1 0x40 MLOAD PUSH4 0x3EE5AEB5 PUSH1 0xE0 SHL DUP2 MSTORE PUSH1 0x4 SWAP1 REVERT JUMPDEST PUSH1 0x8 DUP3 ADD DUP1 SLOAD PUSH17 0xFFFFFFFFFFFFFFFFFF0000000000000000 NOT AND TIMESTAMP PUSH1 0x40 SHL PUSH8 0xFFFFFFFFFFFFFFFF PUSH1 0x40 SHL AND OR PUSH1 0x1 PUSH1 0x80 SHL OR SWAP1 SSTORE PUSH1 0x6 DUP3 ADD SLOAD SWAP2 DUP3 PUSH2 0x1844 JUMPI JUMPDEST PUSH1 0x1 DUP1 DUP1 PUSH1 0xA0 SHL SUB SWAP2 ADD SLOAD AND SWAP1 PUSH1 0x40 MLOAD SWAP3 DUP4 MSTORE PUSH32 0x85C8E2DBAB3D3504C22D17F22231AA1B72EB575EA063D2D70416AC23C728987D PUSH1 0x20 CALLER SWAP5 LOG4 JUMP JUMPDEST PUSH1 0x1 DUP2 ADD SLOAD PUSH2 0x187E SWAP1 DUP5 SWAP1 PUSH1 0x1 PUSH1 0x1 PUSH1 0xA0 SHL SUB AND PUSH32 0x0 PUSH2 0x1883 JUMP JUMPDEST PUSH2 0x1809 JUMP JUMPDEST PUSH1 0x40 MLOAD PUSH4 0xA9059CBB PUSH1 0xE0 SHL PUSH0 SWAP1 DUP2 MSTORE PUSH1 0x1 PUSH1 0x1 PUSH1 0xA0 SHL SUB SWAP4 DUP5 AND PUSH1 0x4 MSTORE PUSH1 0x24 SWAP5 SWAP1 SWAP5 MSTORE SWAP3 PUSH1 0x20 SWAP1 PUSH1 0x44 DUP2 DUP1 DUP6 GAS CALL PUSH1 0x1 PUSH0 MLOAD EQ DUP2 AND ISZERO PUSH2 0x18E2 JUMPI JUMPDEST DUP4 PUSH1 0x40 MSTORE ISZERO PUSH2 0x18CC JUMPI POP POP POP JUMP JUMPDEST PUSH4 0x5274AFE7 PUSH1 0xE0 SHL DUP4 MSTORE AND PUSH1 0x4 DUP3 ADD MSTORE PUSH1 0x24 SWAP2 POP REVERT JUMPDEST PUSH1 0x1 DUP2 ISZERO AND PUSH2 0x18F8 JUMPI DUP2 EXTCODESIZE ISZERO ISZERO RETURNDATASIZE ISZERO AND AND PUSH2 0x18BE JUMP JUMPDEST DUP4 RETURNDATASIZE PUSH0 DUP3 RETURNDATACOPY RETURNDATASIZE SWAP1 REVERT INVALID SWAP12 PUSH24 0x9B17422D0DF92223018B32B4D1FA46E071723D6817E2486D STOP EXTCODESIZE 0xEC 0xC5 PUSH0 STOP LOG2 PUSH5 0x6970667358 0x22 SLT KECCAK256 STOP 0xCD 0x28 XOR PREVRANDAO 0xDD DIV PUSH24 0xB926396A1AA40D60FA936435BA458CC66E2FA35EF3C4A406 PUSH5 0x736F6C6343 STOP ADDMOD XOR STOP CALLER 0x2F DUP8 DUP9 GT PUSH31 0x7EFF1D82E926EC794901D17C78024A50270940304540A733656F0DAD3228B6 PUSH23 0xF7D3CD4284A5443F17F1962B36E491B30A40B2405849E5 SWAP8 0xBA PUSH0 0xB5 "},"methodIdentifiers":{"CURATOR_ROLE()":"4a2cfb54","DEFAULT_ADMIN_ROLE()":"a217fddf","EXECUTOR_ROLE()":"07bd0265","approveByCurator(uint256)":"fee71b5e","cancelCapsule(uint256)":"c446bac1","capsuleCount()":"05dc0394","capsules(uint256)":"517bbf46","createCapsule(address,string,uint8,uint64,bytes32,uint8,address,uint256,bytes32)":"dc58529d","curatorApproved(uint256)":"a0f1e0e7","executeApprovedCapsule(uint256)":"6db98b2c","getCapsuleStatus(uint256)":"2c612bd8","getRoleAdmin(bytes32)":"248a9ca3","grantRole(bytes32,address)":"2f2ff15d","hasRole(bytes32,address)":"91d14854","oracleGateway()":"c1810f66","pause()":"8456cb59","paused()":"5c975abb","renounceRole(bytes32,address)":"36568abe","revokeRole(bytes32,address)":"d547741f","setOracleGateway(address)":"1e2ed410","sglToken()":"62b24ea2","supportsInterface(bytes4)":"01ffc9a7","unlockByOracle(uint256)":"b1dcb925","unlockByTime(uint256)":"df3e0cca","unpause()":"3f4ba83a"}}}}}