{"contracts/LegacyPolicy.sol":{"LegacyPolicy":{"abi":[{"inputs":[{"internalType":"address","name":"admin","type":"address"}],"stateMutability":"nonpayable","type":"constructor"},{"inputs":[],"name":"AccessControlBadConfirmation","type":"error"},{"inputs":[{"internalType":"address","name":"account","type":"address"},{"internalType":"bytes32","name":"neededRole","type":"bytes32"}],"name":"AccessControlUnauthorizedAccount","type":"error"},{"anonymous":false,"inputs":[{"indexed":true,"internalType":"uint256","name":"policyId","type":"uint256"},{"indexed":true,"internalType":"uint256","name":"capsuleId","type":"uint256"}],"name":"CapsuleLinked","type":"event"},{"anonymous":false,"inputs":[{"indexed":true,"internalType":"uint256","name":"policyId","type":"uint256"},{"indexed":true,"internalType":"address","name":"operator","type":"address"}],"name":"PolicyActivated","type":"event"},{"anonymous":false,"inputs":[{"indexed":true,"internalType":"uint256","name":"policyId","type":"uint256"},{"indexed":true,"internalType":"address","name":"creator","type":"address"},{"indexed":false,"internalType":"string","name":"policyHash","type":"string"}],"name":"PolicyCreated","type":"event"},{"anonymous":false,"inputs":[{"indexed":true,"internalType":"uint256","name":"policyId","type":"uint256"},{"indexed":true,"internalType":"address","name":"operator","type":"address"}],"name":"PolicyExecuted","type":"event"},{"anonymous":false,"inputs":[{"indexed":true,"internalType":"uint256","name":"policyId","type":"uint256"},{"indexed":true,"internalType":"address","name":"operator","type":"address"}],"name":"PolicyRevoked","type":"event"},{"anonymous":false,"inputs":[{"indexed":true,"internalType":"bytes32","name":"role","type":"bytes32"},{"indexed":true,"internalType":"bytes32","name":"previousAdminRole","type":"bytes32"},{"indexed":true,"internalType":"bytes32","name":"newAdminRole","type":"bytes32"}],"name":"RoleAdminChanged","type":"event"},{"anonymous":false,"inputs":[{"indexed":true,"internalType":"bytes32","name":"role","type":"bytes32"},{"indexed":true,"internalType":"address","name":"account","type":"address"},{"indexed":true,"internalType":"address","name":"sender","type":"address"}],"name":"RoleGranted","type":"event"},{"anonymous":false,"inputs":[{"indexed":true,"internalType":"bytes32","name":"role","type":"bytes32"},{"indexed":true,"internalType":"address","name":"account","type":"address"},{"indexed":true,"internalType":"address","name":"sender","type":"address"}],"name":"RoleRevoked","type":"event"},{"inputs":[],"name":"DEFAULT_ADMIN_ROLE","outputs":[{"internalType":"bytes32","name":"","type":"bytes32"}],"stateMutability":"view","type":"function"},{"inputs":[],"name":"POLICY_MANAGER_ROLE","outputs":[{"internalType":"bytes32","name":"","type":"bytes32"}],"stateMutability":"view","type":"function"},{"inputs":[{"internalType":"uint256","name":"policyId","type":"uint256"}],"name":"activatePolicy","outputs":[],"stateMutability":"nonpayable","type":"function"},{"inputs":[{"internalType":"string","name":"policyHash","type":"string"},{"internalType":"address[]","name":"wallets","type":"address[]"},{"internalType":"uint16[]","name":"shares","type":"uint16[]"},{"internalType":"string[]","name":"roles","type":"string[]"}],"name":"createPolicy","outputs":[{"internalType":"uint256","name":"policyId","type":"uint256"}],"stateMutability":"nonpayable","type":"function"},{"inputs":[{"internalType":"address","name":"","type":"address"},{"internalType":"uint256","name":"","type":"uint256"}],"name":"creatorPolicies","outputs":[{"internalType":"uint256","name":"","type":"uint256"}],"stateMutability":"view","type":"function"},{"inputs":[{"internalType":"uint256","name":"policyId","type":"uint256"}],"name":"executePolicy","outputs":[],"stateMutability":"nonpayable","type":"function"},{"inputs":[{"internalType":"uint256","name":"policyId","type":"uint256"}],"name":"getBeneficiaries","outputs":[{"components":[{"internalType":"address","name":"wallet","type":"address"},{"internalType":"uint16","name":"sharePercent","type":"uint16"},{"internalType":"string","name":"role","type":"string"}],"internalType":"struct LegacyPolicy.Beneficiary[]","name":"","type":"tuple[]"}],"stateMutability":"view","type":"function"},{"inputs":[{"internalType":"uint256","name":"policyId","type":"uint256"}],"name":"getCapsuleIds","outputs":[{"internalType":"uint256[]","name":"","type":"uint256[]"}],"stateMutability":"view","type":"function"},{"inputs":[{"internalType":"address","name":"creator","type":"address"}],"name":"getCreatorPolicies","outputs":[{"internalType":"uint256[]","name":"","type":"uint256[]"}],"stateMutability":"view","type":"function"},{"inputs":[{"internalType":"uint256","name":"policyId","type":"uint256"}],"name":"getPolicy","outputs":[{"internalType":"address","name":"creator","type":"address"},{"internalType":"string","name":"policyHash","type":"string"},{"internalType":"enum LegacyPolicy.PolicyStatus","name":"status","type":"uint8"},{"internalType":"uint64","name":"createdAt","type":"uint64"},{"internalType":"uint64","name":"executedAt","type":"uint64"}],"stateMutability":"view","type":"function"},{"inputs":[{"internalType":"bytes32","name":"role","type":"bytes32"}],"name":"getRoleAdmin","outputs":[{"internalType":"bytes32","name":"","type":"bytes32"}],"stateMutability":"view","type":"function"},{"inputs":[{"internalType":"bytes32","name":"role","type":"bytes32"},{"internalType":"address","name":"account","type":"address"}],"name":"grantRole","outputs":[],"stateMutability":"nonpayable","type":"function"},{"inputs":[{"internalType":"bytes32","name":"role","type":"bytes32"},{"internalType":"address","name":"account","type":"address"}],"name":"hasRole","outputs":[{"internalType":"bool","name":"","type":"bool"}],"stateMutability":"view","type":"function"},{"inputs":[{"internalType":"uint256","name":"policyId","type":"uint256"},{"internalType":"uint256","name":"capsuleId","type":"uint256"}],"name":"linkCapsule","outputs":[],"stateMutability":"nonpayable","type":"function"},{"inputs":[],"name":"policyCount","outputs":[{"internalType":"uint256","name":"","type":"uint256"}],"stateMutability":"view","type":"function"},{"inputs":[{"internalType":"bytes32","name":"role","type":"bytes32"},{"internalType":"address","name":"callerConfirmation","type":"address"}],"name":"renounceRole","outputs":[],"stateMutability":"nonpayable","type":"function"},{"inputs":[{"internalType":"uint256","name":"policyId","type":"uint256"}],"name":"revokePolicy","outputs":[],"stateMutability":"nonpayable","type":"function"},{"inputs":[{"internalType":"bytes32","name":"role","type":"bytes32"},{"internalType":"address","name":"account","type":"address"}],"name":"revokeRole","outputs":[],"stateMutability":"nonpayable","type":"function"},{"inputs":[{"internalType":"bytes4","name":"interfaceId","type":"bytes4"}],"name":"supportsInterface","outputs":[{"internalType":"bool","name":"","type":"bool"}],"stateMutability":"view","type":"function"}],"evm":{"bytecode":{"linkReferences":{},"object":"608034620000c857601f620016eb38819003918201601f19168301916001600160401b03831184841017620000cc57808492602094604052833981010312620000c857516001600160a01b038116808203620000c857156200008357806200006b6200007292620000e0565b5062000150565b506040516114ba9081620001f18239f35b60405162461bcd60e51b815260206004820152601560248201527f504f4c4943593a20696e76616c69642061646d696e00000000000000000000006044820152606490fd5b5f80fd5b634e487b7160e01b5f52604160045260245ffd5b6001600160a01b03165f8181525f80516020620016cb833981519152602052604090205460ff166200014b575f8181525f80516020620016cb83398151915260205260408120805460ff191660011790553391905f80516020620016ab8339815191528180a4600190565b505f90565b6001600160a01b03165f8181527fee7c610cddb26dc0cdf15890e8767e79a2136b968b4bba3bb3441495f3ec9aec60205260409020547f2724e1c963eb1465b51230910d2ca7be74b71883f8cab72076d8c12e086c2b48919060ff16620001ea57815f525f60205260405f20815f5260205260405f20600160ff1982541617905533915f80516020620016ab8339815191525f80a4600190565b50505f9056fe6080806040526004361015610012575f80fd5b5f3560e01c90816301ffc9a714610faf57508063024106de146108cc5780631e1cc25f14610892578063248a9ca3146108665780632b07fce3146107da5780632f2ff15d1461079e57806336568abe14610757578063540f766c146106db57806356fb8556146106705780636a10279714610618578063783804d9146104d6578063871ae93a1461042b57806391d14854146103e3578063992d5e1814610343578063a217fddf14610329578063cdb045dd146102a3578063d547741f14610265578063de54d429146102485763e0476b55146100ed575f80fd5b34610244576020806003193601126102445760043590815f526002815260405f2060018060a01b0381541633148015610207575b156101cb576004019081549060ff821660048110156101b757600214610173575060ff1916600317905533907f082737bffe5d38ca614674c82101b0d8c726089ed00acbdaa2787abe3932ebfc5f80a3005b6064906040519062461bcd60e51b82526004820152601860248201527f504f4c4943593a20616c726561647920657865637574656400000000000000006044820152fd5b634e487b7160e01b5f52602160045260245ffd5b60405162461bcd60e51b81526004810183905260146024820152731413d31250d64e881d5b985d5d1a1bdc9a5e995960621b6044820152606490fd5b507f2724e1c963eb1465b51230910d2ca7be74b71883f8cab72076d8c12e086c2b485f525f825260405f20335f52825260ff60405f205416610121565b5f80fd5b34610244575f366003190112610244576020600154604051908152f35b34610244576040366003190112610244576102a1600435610284611071565b90805f525f60205261029c600160405f200154611375565b611412565b005b3461024457602080600319360112610244576001600160a01b036102c5611087565b165f52600360205260405f20906040519081602084549182815201935f5260205f20915f905b8282106103125761030e85610302818903826111c3565b6040519182918261109d565b0390f35b8354865294850194600193840193909101906102eb565b34610244575f3660031901126102445760206040515f8152f35b346102445760203660031901126102445760043561035f6112fc565b805f526002602052600460405f2001805460ff81169060048210156101b75761038c6001600293146112bb565b70ffffffffffffffff0000000000000000ff19164260481b70ffffffffffffffff000000000000000000161717905533907f6302adc2f70c35737b7d4c90ca84753edeca119a2498cb2dc1605e1a3f84b2905f80a3005b34610244576040366003190112610244576103fc611071565b6004355f525f60205260405f209060018060a01b03165f52602052602060ff60405f2054166040519015158152f35b34610244576020366003190112610244576004356104476112fc565b805f526002602052600460405f2001805460ff811660048110156101b75761049a5760ff1916600117905533907f382bbfaf6eeb6f14d82f0e57e31f6214123557666b4c9b5d61ca779921b829dc5f80a3005b60405162461bcd60e51b81526020600482015260146024820152731413d31250d64e881b9bdd081a5b88191c98599d60621b6044820152606490fd5b3461024457602080600319360112610244576004355f526002808252600260405f2001805467ffffffffffffffff811161060457604051939261051f600583901b8501866111c3565b81855283850180935f52845f205f915b8483106105b857604080518881528951818a018190525f92600582901b83018101918a918c9085015b8287106105655785850386f35b9091929382806105a8600193603f198a820301865288516040606091878060a01b03815116845261ffff8682015116868501520151918160408201520190611033565b9601920196019592919092610558565b838760019260409a999a516105cc816111a7565b61ffff8654868060a01b038116835260a01c16838201526105ee858701611219565b604082015281520192019201919096959661052f565b634e487b7160e01b5f52604160045260245ffd5b3461024457604036600319011261024457610631611087565b6001600160a01b03165f9081526003602052604090208054602435919082101561024457602091610661916110d8565b90549060031b1c604051908152f35b3461024457602080600319360112610244576004355f526002602052600360405f2001906040519081602084549182815201935f5260205f20915f905b8282106106c45761030e85610302818903826111c3565b8354865294850194600193840193909101906106ad565b34610244576040366003190112610244576024356004356106fa6112fc565b805f52600260205260405f2060ff6004820154169060048210156101b7576003849161072b600161073195146112bb565b016111e5565b7f3ebbae1451844d2796464e24a2f704180f728fa1df96afbb69fb5ebd8c7db8095f80a3005b3461024457604036600319011261024457610770611071565b336001600160a01b0382160361078c576102a190600435611412565b60405163334bd91960e11b8152600490fd5b34610244576040366003190112610244576102a16004356107bd611071565b90805f525f6020526107d5600160405f200154611375565b611396565b34610244576020366003190112610244576004355f52600260205260405f2060018060a01b0381541690600481015460ff81169161083d610826600167ffffffffffffffff9301611219565b60405195865260a0602087015260a0860190611033565b9160048410156101b75784936040850152818160081c16606085015260481c1660808301520390f35b34610244576020366003190112610244576004355f525f6020526020600160405f200154604051908152f35b34610244575f3660031901126102445760206040517f2724e1c963eb1465b51230910d2ca7be74b71883f8cab72076d8c12e086c2b488152f35b346102445760803660031901126102445767ffffffffffffffff60043511610244573660236004350112156102445767ffffffffffffffff600435600401351161024457366024600435600401356004350101116102445760243567ffffffffffffffff811161024457610944903690600401611002565b60443567ffffffffffffffff811161024457610964903690600401611002565b91909260643567ffffffffffffffff811161024457610987903690600401611002565b906004356004013515610f755784841480610f6c575b15610f27578315610ee2575f805b868210610ebc57612710915003610e6c57600154945f198614610e585760018601600155855f52600260205260405f2093336bffffffffffffffffffffffff60a01b865416178555610a1360043560040135610a0a600188015461110c565b60018801611144565b5f601f6004356004013511600114610dd057610a52905f9060043560040135610dc0575b5060043560040135908160011b915f199060031b1c19161790565b60018601555b60048501805468ffffffffffffffffff19164260081b68ffffffffffffffff00161790555f5b868110610b1057602088335f5260038252610a9c8160405f206111e5565b60405182815260043560040135838201526004356004013560246004350160408301375f60406004356004013583010152817f21d0178f0cde2aed24022db30651dabafb4bbe431fb787fbc92113304d8e35493392604081601f19601f6004356004013501168101030190a3604051908152f35b6001600160a01b03610b2b610b26838a866110ed565b611193565b1615610d8257610b3f610b268289856110ed565b610b52610b4d83868d6110ed565b6110fd565b86831015610d6e57601e19863603018360051b87013512156102445767ffffffffffffffff8360051b8701358701351161024457600583901b860135860160208101919035360382136102445761ffff9060405193610bb0856111a7565b60018060a01b0316845216602083015260405190610be16020601f19601f8760051b8b01358b0135011601836111c3565b600584901b8701358701803580845236910160200111610244578360051b8701358701359060208301375f60208460051b8801358801358301015260408201526002870154600160401b81101561060457600181018060028a0155811015610d6e57604090600289015f5260205f209060011b019160018060a01b0381511683549061ffff60a01b602084015160a01b169169ffffffffffffffffffff60b01b1617178355015180519067ffffffffffffffff821161060457610cb482610cab600186015461110c565b60018601611144565b602090601f8311600114610cfe578260019594938693610ce9935f92610cf3575b50508160011b915f199060031b1c19161790565b9101555b01610a7e565b015190508f80610cd5565b90600184015f5260205f20915f5b601f1985168110610d56575092600195949392869392849383601f19811610610d3e575b505050811b01910155610ced565b01515f1960f88460031b161c191690558e8080610d30565b91926020600181928685015181550194019201610d0c565b634e487b7160e01b5f52603260045260245ffd5b60405162461bcd60e51b81526020600482015260166024820152751413d31250d64e881a5b9d985b1a59081dd85b1b195d60521b6044820152606490fd5b602491506004350101358a610a37565b600186015f5260205f20905f5b600480350135601f19168110610e3b5750600480350135601f19811610610e17575b5050600160043560040135811b016001860155610a58565b60245f1960f86004356004013560031b161c19916004350101351690558880610dff565b909160206001819260248660043501013581550193019101610ddd565b634e487b7160e01b5f52601160045260245ffd5b60405162461bcd60e51b815260206004820152602260248201527f504f4c4943593a20736861726573206d75737420746f74616c20313030303020604482015261062760f41b6064820152608490fd5b61ffff610ecd610b4d848a8c6110ed565b168101809111610e58576001909101906109ab565b60405162461bcd60e51b815260206004820152601860248201527f504f4c4943593a206e6f2062656e6566696369617269657300000000000000006044820152606490fd5b60405162461bcd60e51b815260206004820152601760248201527f504f4c4943593a206c656e677468206d69736d617463680000000000000000006044820152606490fd5b5081841461099d565b60405162461bcd60e51b81526020600482015260126024820152710a09e989286b27440cadae0e8f240d0c2e6d60731b6044820152606490fd5b34610244576020366003190112610244576004359063ffffffff60e01b821680920361024457602091637965db0b60e01b8114908115610ff1575b5015158152f35b6301ffc9a760e01b14905083610fea565b9181601f840112156102445782359167ffffffffffffffff8311610244576020808501948460051b01011161024457565b91908251928382525f5b84811061105d575050825f602080949584010152601f8019910116010190565b60208183018101518483018201520161103d565b602435906001600160a01b038216820361024457565b600435906001600160a01b038216820361024457565b60209060206040818301928281528551809452019301915f5b8281106110c4575050505090565b8351855293810193928101926001016110b6565b8054821015610d6e575f5260205f2001905f90565b9190811015610d6e5760051b0190565b3561ffff811681036102445790565b90600182811c9216801561113a575b602083101461112657565b634e487b7160e01b5f52602260045260245ffd5b91607f169161111b565b601f821161115157505050565b5f5260205f20906020601f840160051c83019310611189575b601f0160051c01905b81811061117e575050565b5f8155600101611173565b909150819061116a565b356001600160a01b03811681036102445790565b6060810190811067ffffffffffffffff82111761060457604052565b90601f8019910116810190811067ffffffffffffffff82111761060457604052565b8054600160401b81101561060457611202916001820181556110d8565b819291549060031b91821b915f19901b1916179055565b9060405191825f825461122b8161110c565b908184526020946001916001811690815f14611299575060011461125b575b505050611259925003836111c3565b565b5f90815285812095935091905b81831061128157505061125993508201015f808061124a565b85548884018501529485019487945091830191611268565b9250505061125994925060ff191682840152151560051b8201015f808061124a565b156112c257565b60405162461bcd60e51b8152602060048201526012602482015271504f4c4943593a206e6f742061637469766560701b6044820152606490fd5b335f9081527fee7c610cddb26dc0cdf15890e8767e79a2136b968b4bba3bb3441495f3ec9aec60205260409020547f2724e1c963eb1465b51230910d2ca7be74b71883f8cab72076d8c12e086c2b489060ff16156113575750565b6044906040519063e2517d3f60e01b82523360048301526024820152fd5b805f525f60205260405f20335f5260205260ff60405f205416156113575750565b90815f525f60205260405f209060018060a01b031690815f5260205260ff60405f205416155f1461140c57815f525f60205260405f20815f5260205260405f20600160ff1982541617905533917f2f8788117e7eff1d82e926ec794901d17c78024a50270940304540a733656f0d5f80a4600190565b50505f90565b90815f525f60205260405f209060018060a01b031690815f5260205260ff60405f2054165f1461140c57815f525f60205260405f20815f5260205260405f2060ff19815416905533917ff6391f5c32d9c69d2a47ea670b442974b53935d1edc7fd64eb21e047a839171b5f80a460019056fea26469706673582212207a9da977ca59f5f9894f02a83cc5f07878b3232409674d2e91a795c49ebd817a64736f6c634300081800332f8788117e7eff1d82e926ec794901d17c78024a50270940304540a733656f0dad3228b676f7d3cd4284a5443f17f1962b36e491b30a40b2405849e597ba5fb5","opcodes":"PUSH1 0x80 CALLVALUE PUSH3 0xC8 JUMPI PUSH1 0x1F PUSH3 0x16EB CODESIZE DUP2 SWAP1 SUB SWAP2 DUP3 ADD PUSH1 0x1F NOT AND DUP4 ADD SWAP2 PUSH1 0x1 PUSH1 0x1 PUSH1 0x40 SHL SUB DUP4 GT DUP5 DUP5 LT OR PUSH3 0xCC JUMPI DUP1 DUP5 SWAP3 PUSH1 0x20 SWAP5 PUSH1 0x40 MSTORE DUP4 CODECOPY DUP2 ADD SUB SLT PUSH3 0xC8 JUMPI MLOAD PUSH1 0x1 PUSH1 0x1 PUSH1 0xA0 SHL SUB DUP2 AND DUP1 DUP3 SUB PUSH3 0xC8 JUMPI ISZERO PUSH3 0x83 JUMPI DUP1 PUSH3 0x6B PUSH3 0x72 SWAP3 PUSH3 0xE0 JUMP JUMPDEST POP PUSH3 0x150 JUMP JUMPDEST POP PUSH1 0x40 MLOAD PUSH2 0x14BA SWAP1 DUP2 PUSH3 0x1F1 DUP3 CODECOPY RETURN JUMPDEST PUSH1 0x40 MLOAD PUSH3 0x461BCD PUSH1 0xE5 SHL DUP2 MSTORE PUSH1 0x20 PUSH1 0x4 DUP3 ADD MSTORE PUSH1 0x15 PUSH1 0x24 DUP3 ADD MSTORE PUSH32 0x504F4C4943593A20696E76616C69642061646D696E0000000000000000000000 PUSH1 0x44 DUP3 ADD MSTORE PUSH1 0x64 SWAP1 REVERT JUMPDEST PUSH0 DUP1 REVERT JUMPDEST PUSH4 0x4E487B71 PUSH1 0xE0 SHL PUSH0 MSTORE PUSH1 0x41 PUSH1 0x4 MSTORE PUSH1 0x24 PUSH0 REVERT JUMPDEST PUSH1 0x1 PUSH1 0x1 PUSH1 0xA0 SHL SUB AND PUSH0 DUP2 DUP2 MSTORE PUSH0 DUP1 MLOAD PUSH1 0x20 PUSH3 0x16CB DUP4 CODECOPY DUP2 MLOAD SWAP2 MSTORE PUSH1 0x20 MSTORE PUSH1 0x40 SWAP1 KECCAK256 SLOAD PUSH1 0xFF AND PUSH3 0x14B JUMPI PUSH0 DUP2 DUP2 MSTORE PUSH0 DUP1 MLOAD PUSH1 0x20 PUSH3 0x16CB DUP4 CODECOPY DUP2 MLOAD SWAP2 MSTORE PUSH1 0x20 MSTORE PUSH1 0x40 DUP2 KECCAK256 DUP1 SLOAD PUSH1 0xFF NOT AND PUSH1 0x1 OR SWAP1 SSTORE CALLER SWAP2 SWAP1 PUSH0 DUP1 MLOAD PUSH1 0x20 PUSH3 0x16AB DUP4 CODECOPY DUP2 MLOAD SWAP2 MSTORE DUP2 DUP1 LOG4 PUSH1 0x1 SWAP1 JUMP JUMPDEST POP PUSH0 SWAP1 JUMP JUMPDEST PUSH1 0x1 PUSH1 0x1 PUSH1 0xA0 SHL SUB AND PUSH0 DUP2 DUP2 MSTORE PUSH32 0xEE7C610CDDB26DC0CDF15890E8767E79A2136B968B4BBA3BB3441495F3EC9AEC PUSH1 0x20 MSTORE PUSH1 0x40 SWAP1 KECCAK256 SLOAD PUSH32 0x2724E1C963EB1465B51230910D2CA7BE74B71883F8CAB72076D8C12E086C2B48 SWAP2 SWAP1 PUSH1 0xFF AND PUSH3 0x1EA JUMPI DUP2 PUSH0 MSTORE PUSH0 PUSH1 0x20 MSTORE PUSH1 0x40 PUSH0 KECCAK256 DUP2 PUSH0 MSTORE PUSH1 0x20 MSTORE PUSH1 0x40 PUSH0 KECCAK256 PUSH1 0x1 PUSH1 0xFF NOT DUP3 SLOAD AND OR SWAP1 SSTORE CALLER SWAP2 PUSH0 DUP1 MLOAD PUSH1 0x20 PUSH3 0x16AB DUP4 CODECOPY DUP2 MLOAD SWAP2 MSTORE PUSH0 DUP1 LOG4 PUSH1 0x1 SWAP1 JUMP JUMPDEST POP POP PUSH0 SWAP1 JUMP INVALID PUSH1 0x80 DUP1 PUSH1 0x40 MSTORE PUSH1 0x4 CALLDATASIZE LT ISZERO PUSH2 0x12 JUMPI PUSH0 DUP1 REVERT JUMPDEST PUSH0 CALLDATALOAD PUSH1 0xE0 SHR SWAP1 DUP2 PUSH4 0x1FFC9A7 EQ PUSH2 0xFAF JUMPI POP DUP1 PUSH4 0x24106DE EQ PUSH2 0x8CC JUMPI DUP1 PUSH4 0x1E1CC25F EQ PUSH2 0x892 JUMPI DUP1 PUSH4 0x248A9CA3 EQ PUSH2 0x866 JUMPI DUP1 PUSH4 0x2B07FCE3 EQ PUSH2 0x7DA JUMPI DUP1 PUSH4 0x2F2FF15D EQ PUSH2 0x79E JUMPI DUP1 PUSH4 0x36568ABE EQ PUSH2 0x757 JUMPI DUP1 PUSH4 0x540F766C EQ PUSH2 0x6DB JUMPI DUP1 PUSH4 0x56FB8556 EQ PUSH2 0x670 JUMPI DUP1 PUSH4 0x6A102797 EQ PUSH2 0x618 JUMPI DUP1 PUSH4 0x783804D9 EQ PUSH2 0x4D6 JUMPI DUP1 PUSH4 0x871AE93A EQ PUSH2 0x42B JUMPI DUP1 PUSH4 0x91D14854 EQ PUSH2 0x3E3 JUMPI DUP1 PUSH4 0x992D5E18 EQ PUSH2 0x343 JUMPI DUP1 PUSH4 0xA217FDDF EQ PUSH2 0x329 JUMPI DUP1 PUSH4 0xCDB045DD EQ PUSH2 0x2A3 JUMPI DUP1 PUSH4 0xD547741F EQ PUSH2 0x265 JUMPI DUP1 PUSH4 0xDE54D429 EQ PUSH2 0x248 JUMPI PUSH4 0xE0476B55 EQ PUSH2 0xED JUMPI PUSH0 DUP1 REVERT JUMPDEST CALLVALUE PUSH2 0x244 JUMPI PUSH1 0x20 DUP1 PUSH1 0x3 NOT CALLDATASIZE ADD SLT PUSH2 0x244 JUMPI PUSH1 0x4 CALLDATALOAD SWAP1 DUP2 PUSH0 MSTORE PUSH1 0x2 DUP2 MSTORE PUSH1 0x40 PUSH0 KECCAK256 PUSH1 0x1 DUP1 PUSH1 0xA0 SHL SUB DUP2 SLOAD AND CALLER EQ DUP1 ISZERO PUSH2 0x207 JUMPI JUMPDEST ISZERO PUSH2 0x1CB JUMPI PUSH1 0x4 ADD SWAP1 DUP2 SLOAD SWAP1 PUSH1 0xFF DUP3 AND PUSH1 0x4 DUP2 LT ISZERO PUSH2 0x1B7 JUMPI PUSH1 0x2 EQ PUSH2 0x173 JUMPI POP PUSH1 0xFF NOT AND PUSH1 0x3 OR SWAP1 SSTORE CALLER SWAP1 PUSH32 0x82737BFFE5D38CA614674C82101B0D8C726089ED00ACBDAA2787ABE3932EBFC PUSH0 DUP1 LOG3 STOP JUMPDEST PUSH1 0x64 SWAP1 PUSH1 0x40 MLOAD SWAP1 PUSH3 0x461BCD PUSH1 0xE5 SHL DUP3 MSTORE PUSH1 0x4 DUP3 ADD MSTORE PUSH1 0x18 PUSH1 0x24 DUP3 ADD MSTORE PUSH32 0x504F4C4943593A20616C72656164792065786563757465640000000000000000 PUSH1 0x44 DUP3 ADD MSTORE REVERT JUMPDEST PUSH4 0x4E487B71 PUSH1 0xE0 SHL PUSH0 MSTORE PUSH1 0x21 PUSH1 0x4 MSTORE PUSH1 0x24 PUSH0 REVERT JUMPDEST PUSH1 0x40 MLOAD PUSH3 0x461BCD PUSH1 0xE5 SHL DUP2 MSTORE PUSH1 0x4 DUP2 ADD DUP4 SWAP1 MSTORE PUSH1 0x14 PUSH1 0x24 DUP3 ADD MSTORE PUSH20 0x1413D31250D64E881D5B985D5D1A1BDC9A5E9959 PUSH1 0x62 SHL PUSH1 0x44 DUP3 ADD MSTORE PUSH1 0x64 SWAP1 REVERT JUMPDEST POP PUSH32 0x2724E1C963EB1465B51230910D2CA7BE74B71883F8CAB72076D8C12E086C2B48 PUSH0 MSTORE PUSH0 DUP3 MSTORE PUSH1 0x40 PUSH0 KECCAK256 CALLER PUSH0 MSTORE DUP3 MSTORE PUSH1 0xFF PUSH1 0x40 PUSH0 KECCAK256 SLOAD AND PUSH2 0x121 JUMP JUMPDEST PUSH0 DUP1 REVERT JUMPDEST CALLVALUE PUSH2 0x244 JUMPI PUSH0 CALLDATASIZE PUSH1 0x3 NOT ADD SLT PUSH2 0x244 JUMPI PUSH1 0x20 PUSH1 0x1 SLOAD PUSH1 0x40 MLOAD SWAP1 DUP2 MSTORE RETURN JUMPDEST CALLVALUE PUSH2 0x244 JUMPI PUSH1 0x40 CALLDATASIZE PUSH1 0x3 NOT ADD SLT PUSH2 0x244 JUMPI PUSH2 0x2A1 PUSH1 0x4 CALLDATALOAD PUSH2 0x284 PUSH2 0x1071 JUMP JUMPDEST SWAP1 DUP1 PUSH0 MSTORE PUSH0 PUSH1 0x20 MSTORE PUSH2 0x29C PUSH1 0x1 PUSH1 0x40 PUSH0 KECCAK256 ADD SLOAD PUSH2 0x1375 JUMP JUMPDEST PUSH2 0x1412 JUMP JUMPDEST STOP JUMPDEST CALLVALUE PUSH2 0x244 JUMPI PUSH1 0x20 DUP1 PUSH1 0x3 NOT CALLDATASIZE ADD SLT PUSH2 0x244 JUMPI PUSH1 0x1 PUSH1 0x1 PUSH1 0xA0 SHL SUB PUSH2 0x2C5 PUSH2 0x1087 JUMP JUMPDEST AND PUSH0 MSTORE PUSH1 0x3 PUSH1 0x20 MSTORE PUSH1 0x40 PUSH0 KECCAK256 SWAP1 PUSH1 0x40 MLOAD SWAP1 DUP2 PUSH1 0x20 DUP5 SLOAD SWAP2 DUP3 DUP2 MSTORE ADD SWAP4 PUSH0 MSTORE PUSH1 0x20 PUSH0 KECCAK256 SWAP2 PUSH0 SWAP1 JUMPDEST DUP3 DUP3 LT PUSH2 0x312 JUMPI PUSH2 0x30E DUP6 PUSH2 0x302 DUP2 DUP10 SUB DUP3 PUSH2 0x11C3 JUMP JUMPDEST PUSH1 0x40 MLOAD SWAP2 DUP3 SWAP2 DUP3 PUSH2 0x109D JUMP JUMPDEST SUB SWAP1 RETURN JUMPDEST DUP4 SLOAD DUP7 MSTORE SWAP5 DUP6 ADD SWAP5 PUSH1 0x1 SWAP4 DUP5 ADD SWAP4 SWAP1 SWAP2 ADD SWAP1 PUSH2 0x2EB JUMP JUMPDEST CALLVALUE PUSH2 0x244 JUMPI PUSH0 CALLDATASIZE PUSH1 0x3 NOT ADD SLT PUSH2 0x244 JUMPI PUSH1 0x20 PUSH1 0x40 MLOAD PUSH0 DUP2 MSTORE RETURN JUMPDEST CALLVALUE PUSH2 0x244 JUMPI PUSH1 0x20 CALLDATASIZE PUSH1 0x3 NOT ADD SLT PUSH2 0x244 JUMPI PUSH1 0x4 CALLDATALOAD PUSH2 0x35F PUSH2 0x12FC JUMP JUMPDEST DUP1 PUSH0 MSTORE PUSH1 0x2 PUSH1 0x20 MSTORE PUSH1 0x4 PUSH1 0x40 PUSH0 KECCAK256 ADD DUP1 SLOAD PUSH1 0xFF DUP2 AND SWAP1 PUSH1 0x4 DUP3 LT ISZERO PUSH2 0x1B7 JUMPI PUSH2 0x38C PUSH1 0x1 PUSH1 0x2 SWAP4 EQ PUSH2 0x12BB JUMP JUMPDEST PUSH17 0xFFFFFFFFFFFFFFFF0000000000000000FF NOT AND TIMESTAMP PUSH1 0x48 SHL PUSH17 0xFFFFFFFFFFFFFFFF000000000000000000 AND OR OR SWAP1 SSTORE CALLER SWAP1 PUSH32 0x6302ADC2F70C35737B7D4C90CA84753EDECA119A2498CB2DC1605E1A3F84B290 PUSH0 DUP1 LOG3 STOP JUMPDEST CALLVALUE PUSH2 0x244 JUMPI PUSH1 0x40 CALLDATASIZE PUSH1 0x3 NOT ADD SLT PUSH2 0x244 JUMPI PUSH2 0x3FC PUSH2 0x1071 JUMP JUMPDEST PUSH1 0x4 CALLDATALOAD PUSH0 MSTORE PUSH0 PUSH1 0x20 MSTORE PUSH1 0x40 PUSH0 KECCAK256 SWAP1 PUSH1 0x1 DUP1 PUSH1 0xA0 SHL SUB AND PUSH0 MSTORE PUSH1 0x20 MSTORE PUSH1 0x20 PUSH1 0xFF PUSH1 0x40 PUSH0 KECCAK256 SLOAD AND PUSH1 0x40 MLOAD SWAP1 ISZERO ISZERO DUP2 MSTORE RETURN JUMPDEST CALLVALUE PUSH2 0x244 JUMPI PUSH1 0x20 CALLDATASIZE PUSH1 0x3 NOT ADD SLT PUSH2 0x244 JUMPI PUSH1 0x4 CALLDATALOAD PUSH2 0x447 PUSH2 0x12FC JUMP JUMPDEST DUP1 PUSH0 MSTORE PUSH1 0x2 PUSH1 0x20 MSTORE PUSH1 0x4 PUSH1 0x40 PUSH0 KECCAK256 ADD DUP1 SLOAD PUSH1 0xFF DUP2 AND PUSH1 0x4 DUP2 LT ISZERO PUSH2 0x1B7 JUMPI PUSH2 0x49A JUMPI PUSH1 0xFF NOT AND PUSH1 0x1 OR SWAP1 SSTORE CALLER SWAP1 PUSH32 0x382BBFAF6EEB6F14D82F0E57E31F6214123557666B4C9B5D61CA779921B829DC PUSH0 DUP1 LOG3 STOP JUMPDEST PUSH1 0x40 MLOAD PUSH3 0x461BCD PUSH1 0xE5 SHL DUP2 MSTORE PUSH1 0x20 PUSH1 0x4 DUP3 ADD MSTORE PUSH1 0x14 PUSH1 0x24 DUP3 ADD MSTORE PUSH20 0x1413D31250D64E881B9BDD081A5B88191C98599D PUSH1 0x62 SHL PUSH1 0x44 DUP3 ADD MSTORE PUSH1 0x64 SWAP1 REVERT JUMPDEST CALLVALUE PUSH2 0x244 JUMPI PUSH1 0x20 DUP1 PUSH1 0x3 NOT CALLDATASIZE ADD SLT PUSH2 0x244 JUMPI PUSH1 0x4 CALLDATALOAD PUSH0 MSTORE PUSH1 0x2 DUP1 DUP3 MSTORE PUSH1 0x2 PUSH1 0x40 PUSH0 KECCAK256 ADD DUP1 SLOAD PUSH8 0xFFFFFFFFFFFFFFFF DUP2 GT PUSH2 0x604 JUMPI PUSH1 0x40 MLOAD SWAP4 SWAP3 PUSH2 0x51F PUSH1 0x5 DUP4 SWAP1 SHL DUP6 ADD DUP7 PUSH2 0x11C3 JUMP JUMPDEST DUP2 DUP6 MSTORE DUP4 DUP6 ADD DUP1 SWAP4 PUSH0 MSTORE DUP5 PUSH0 KECCAK256 PUSH0 SWAP2 JUMPDEST DUP5 DUP4 LT PUSH2 0x5B8 JUMPI PUSH1 0x40 DUP1 MLOAD DUP9 DUP2 MSTORE DUP10 MLOAD DUP2 DUP11 ADD DUP2 SWAP1 MSTORE PUSH0 SWAP3 PUSH1 0x5 DUP3 SWAP1 SHL DUP4 ADD DUP2 ADD SWAP2 DUP11 SWAP2 DUP13 SWAP1 DUP6 ADD JUMPDEST DUP3 DUP8 LT PUSH2 0x565 JUMPI DUP6 DUP6 SUB DUP7 RETURN JUMPDEST SWAP1 SWAP2 SWAP3 SWAP4 DUP3 DUP1 PUSH2 0x5A8 PUSH1 0x1 SWAP4 PUSH1 0x3F NOT DUP11 DUP3 SUB ADD DUP7 MSTORE DUP9 MLOAD PUSH1 0x40 PUSH1 0x60 SWAP2 DUP8 DUP1 PUSH1 0xA0 SHL SUB DUP2 MLOAD AND DUP5 MSTORE PUSH2 0xFFFF DUP7 DUP3 ADD MLOAD AND DUP7 DUP6 ADD MSTORE ADD MLOAD SWAP2 DUP2 PUSH1 0x40 DUP3 ADD MSTORE ADD SWAP1 PUSH2 0x1033 JUMP JUMPDEST SWAP7 ADD SWAP3 ADD SWAP7 ADD SWAP6 SWAP3 SWAP2 SWAP1 SWAP3 PUSH2 0x558 JUMP JUMPDEST DUP4 DUP8 PUSH1 0x1 SWAP3 PUSH1 0x40 SWAP11 SWAP10 SWAP11 MLOAD PUSH2 0x5CC DUP2 PUSH2 0x11A7 JUMP JUMPDEST PUSH2 0xFFFF DUP7 SLOAD DUP7 DUP1 PUSH1 0xA0 SHL SUB DUP2 AND DUP4 MSTORE PUSH1 0xA0 SHR AND DUP4 DUP3 ADD MSTORE PUSH2 0x5EE DUP6 DUP8 ADD PUSH2 0x1219 JUMP JUMPDEST PUSH1 0x40 DUP3 ADD MSTORE DUP2 MSTORE ADD SWAP3 ADD SWAP3 ADD SWAP2 SWAP1 SWAP7 SWAP6 SWAP7 PUSH2 0x52F JUMP JUMPDEST PUSH4 0x4E487B71 PUSH1 0xE0 SHL PUSH0 MSTORE PUSH1 0x41 PUSH1 0x4 MSTORE PUSH1 0x24 PUSH0 REVERT JUMPDEST CALLVALUE PUSH2 0x244 JUMPI PUSH1 0x40 CALLDATASIZE PUSH1 0x3 NOT ADD SLT PUSH2 0x244 JUMPI PUSH2 0x631 PUSH2 0x1087 JUMP JUMPDEST PUSH1 0x1 PUSH1 0x1 PUSH1 0xA0 SHL SUB AND PUSH0 SWAP1 DUP2 MSTORE PUSH1 0x3 PUSH1 0x20 MSTORE PUSH1 0x40 SWAP1 KECCAK256 DUP1 SLOAD PUSH1 0x24 CALLDATALOAD SWAP2 SWAP1 DUP3 LT ISZERO PUSH2 0x244 JUMPI PUSH1 0x20 SWAP2 PUSH2 0x661 SWAP2 PUSH2 0x10D8 JUMP JUMPDEST SWAP1 SLOAD SWAP1 PUSH1 0x3 SHL SHR PUSH1 0x40 MLOAD SWAP1 DUP2 MSTORE RETURN JUMPDEST CALLVALUE PUSH2 0x244 JUMPI PUSH1 0x20 DUP1 PUSH1 0x3 NOT CALLDATASIZE ADD SLT PUSH2 0x244 JUMPI PUSH1 0x4 CALLDATALOAD PUSH0 MSTORE PUSH1 0x2 PUSH1 0x20 MSTORE PUSH1 0x3 PUSH1 0x40 PUSH0 KECCAK256 ADD SWAP1 PUSH1 0x40 MLOAD SWAP1 DUP2 PUSH1 0x20 DUP5 SLOAD SWAP2 DUP3 DUP2 MSTORE ADD SWAP4 PUSH0 MSTORE PUSH1 0x20 PUSH0 KECCAK256 SWAP2 PUSH0 SWAP1 JUMPDEST DUP3 DUP3 LT PUSH2 0x6C4 JUMPI PUSH2 0x30E DUP6 PUSH2 0x302 DUP2 DUP10 SUB DUP3 PUSH2 0x11C3 JUMP JUMPDEST DUP4 SLOAD DUP7 MSTORE SWAP5 DUP6 ADD SWAP5 PUSH1 0x1 SWAP4 DUP5 ADD SWAP4 SWAP1 SWAP2 ADD SWAP1 PUSH2 0x6AD JUMP JUMPDEST CALLVALUE PUSH2 0x244 JUMPI PUSH1 0x40 CALLDATASIZE PUSH1 0x3 NOT ADD SLT PUSH2 0x244 JUMPI PUSH1 0x24 CALLDATALOAD PUSH1 0x4 CALLDATALOAD PUSH2 0x6FA PUSH2 0x12FC JUMP JUMPDEST DUP1 PUSH0 MSTORE PUSH1 0x2 PUSH1 0x20 MSTORE PUSH1 0x40 PUSH0 KECCAK256 PUSH1 0xFF PUSH1 0x4 DUP3 ADD SLOAD AND SWAP1 PUSH1 0x4 DUP3 LT ISZERO PUSH2 0x1B7 JUMPI PUSH1 0x3 DUP5 SWAP2 PUSH2 0x72B PUSH1 0x1 PUSH2 0x731 SWAP6 EQ PUSH2 0x12BB JUMP JUMPDEST ADD PUSH2 0x11E5 JUMP JUMPDEST PUSH32 0x3EBBAE1451844D2796464E24A2F704180F728FA1DF96AFBB69FB5EBD8C7DB809 PUSH0 DUP1 LOG3 STOP JUMPDEST CALLVALUE PUSH2 0x244 JUMPI PUSH1 0x40 CALLDATASIZE PUSH1 0x3 NOT ADD SLT PUSH2 0x244 JUMPI PUSH2 0x770 PUSH2 0x1071 JUMP JUMPDEST CALLER PUSH1 0x1 PUSH1 0x1 PUSH1 0xA0 SHL SUB DUP3 AND SUB PUSH2 0x78C JUMPI PUSH2 0x2A1 SWAP1 PUSH1 0x4 CALLDATALOAD PUSH2 0x1412 JUMP JUMPDEST PUSH1 0x40 MLOAD PUSH4 0x334BD919 PUSH1 0xE1 SHL DUP2 MSTORE PUSH1 0x4 SWAP1 REVERT JUMPDEST CALLVALUE PUSH2 0x244 JUMPI PUSH1 0x40 CALLDATASIZE PUSH1 0x3 NOT ADD SLT PUSH2 0x244 JUMPI PUSH2 0x2A1 PUSH1 0x4 CALLDATALOAD PUSH2 0x7BD PUSH2 0x1071 JUMP JUMPDEST SWAP1 DUP1 PUSH0 MSTORE PUSH0 PUSH1 0x20 MSTORE PUSH2 0x7D5 PUSH1 0x1 PUSH1 0x40 PUSH0 KECCAK256 ADD SLOAD PUSH2 0x1375 JUMP JUMPDEST PUSH2 0x1396 JUMP JUMPDEST CALLVALUE PUSH2 0x244 JUMPI PUSH1 0x20 CALLDATASIZE PUSH1 0x3 NOT ADD SLT PUSH2 0x244 JUMPI PUSH1 0x4 CALLDATALOAD PUSH0 MSTORE PUSH1 0x2 PUSH1 0x20 MSTORE PUSH1 0x40 PUSH0 KECCAK256 PUSH1 0x1 DUP1 PUSH1 0xA0 SHL SUB DUP2 SLOAD AND SWAP1 PUSH1 0x4 DUP2 ADD SLOAD PUSH1 0xFF DUP2 AND SWAP2 PUSH2 0x83D PUSH2 0x826 PUSH1 0x1 PUSH8 0xFFFFFFFFFFFFFFFF SWAP4 ADD PUSH2 0x1219 JUMP JUMPDEST PUSH1 0x40 MLOAD SWAP6 DUP7 MSTORE PUSH1 0xA0 PUSH1 0x20 DUP8 ADD MSTORE PUSH1 0xA0 DUP7 ADD SWAP1 PUSH2 0x1033 JUMP JUMPDEST SWAP2 PUSH1 0x4 DUP5 LT ISZERO PUSH2 0x1B7 JUMPI DUP5 SWAP4 PUSH1 0x40 DUP6 ADD MSTORE DUP2 DUP2 PUSH1 0x8 SHR AND PUSH1 0x60 DUP6 ADD MSTORE PUSH1 0x48 SHR AND PUSH1 0x80 DUP4 ADD MSTORE SUB SWAP1 RETURN JUMPDEST CALLVALUE PUSH2 0x244 JUMPI PUSH1 0x20 CALLDATASIZE PUSH1 0x3 NOT ADD SLT PUSH2 0x244 JUMPI PUSH1 0x4 CALLDATALOAD PUSH0 MSTORE PUSH0 PUSH1 0x20 MSTORE PUSH1 0x20 PUSH1 0x1 PUSH1 0x40 PUSH0 KECCAK256 ADD SLOAD PUSH1 0x40 MLOAD SWAP1 DUP2 MSTORE RETURN JUMPDEST CALLVALUE PUSH2 0x244 JUMPI PUSH0 CALLDATASIZE PUSH1 0x3 NOT ADD SLT PUSH2 0x244 JUMPI PUSH1 0x20 PUSH1 0x40 MLOAD PUSH32 0x2724E1C963EB1465B51230910D2CA7BE74B71883F8CAB72076D8C12E086C2B48 DUP2 MSTORE RETURN JUMPDEST CALLVALUE PUSH2 0x244 JUMPI PUSH1 0x80 CALLDATASIZE PUSH1 0x3 NOT ADD SLT PUSH2 0x244 JUMPI PUSH8 0xFFFFFFFFFFFFFFFF PUSH1 0x4 CALLDATALOAD GT PUSH2 0x244 JUMPI CALLDATASIZE PUSH1 0x23 PUSH1 0x4 CALLDATALOAD ADD SLT ISZERO PUSH2 0x244 JUMPI PUSH8 0xFFFFFFFFFFFFFFFF PUSH1 0x4 CALLDATALOAD PUSH1 0x4 ADD CALLDATALOAD GT PUSH2 0x244 JUMPI CALLDATASIZE PUSH1 0x24 PUSH1 0x4 CALLDATALOAD PUSH1 0x4 ADD CALLDATALOAD PUSH1 0x4 CALLDATALOAD ADD ADD GT PUSH2 0x244 JUMPI PUSH1 0x24 CALLDATALOAD PUSH8 0xFFFFFFFFFFFFFFFF DUP2 GT PUSH2 0x244 JUMPI PUSH2 0x944 SWAP1 CALLDATASIZE SWAP1 PUSH1 0x4 ADD PUSH2 0x1002 JUMP JUMPDEST PUSH1 0x44 CALLDATALOAD PUSH8 0xFFFFFFFFFFFFFFFF DUP2 GT PUSH2 0x244 JUMPI PUSH2 0x964 SWAP1 CALLDATASIZE SWAP1 PUSH1 0x4 ADD PUSH2 0x1002 JUMP JUMPDEST SWAP2 SWAP1 SWAP3 PUSH1 0x64 CALLDATALOAD PUSH8 0xFFFFFFFFFFFFFFFF DUP2 GT PUSH2 0x244 JUMPI PUSH2 0x987 SWAP1 CALLDATASIZE SWAP1 PUSH1 0x4 ADD PUSH2 0x1002 JUMP JUMPDEST SWAP1 PUSH1 0x4 CALLDATALOAD PUSH1 0x4 ADD CALLDATALOAD ISZERO PUSH2 0xF75 JUMPI DUP5 DUP5 EQ DUP1 PUSH2 0xF6C JUMPI JUMPDEST ISZERO PUSH2 0xF27 JUMPI DUP4 ISZERO PUSH2 0xEE2 JUMPI PUSH0 DUP1 JUMPDEST DUP7 DUP3 LT PUSH2 0xEBC JUMPI PUSH2 0x2710 SWAP2 POP SUB PUSH2 0xE6C JUMPI PUSH1 0x1 SLOAD SWAP5 PUSH0 NOT DUP7 EQ PUSH2 0xE58 JUMPI PUSH1 0x1 DUP7 ADD PUSH1 0x1 SSTORE DUP6 PUSH0 MSTORE PUSH1 0x2 PUSH1 0x20 MSTORE PUSH1 0x40 PUSH0 KECCAK256 SWAP4 CALLER PUSH12 0xFFFFFFFFFFFFFFFFFFFFFFFF PUSH1 0xA0 SHL DUP7 SLOAD AND OR DUP6 SSTORE PUSH2 0xA13 PUSH1 0x4 CALLDATALOAD PUSH1 0x4 ADD CALLDATALOAD PUSH2 0xA0A PUSH1 0x1 DUP9 ADD SLOAD PUSH2 0x110C JUMP JUMPDEST PUSH1 0x1 DUP9 ADD PUSH2 0x1144 JUMP JUMPDEST PUSH0 PUSH1 0x1F PUSH1 0x4 CALLDATALOAD PUSH1 0x4 ADD CALLDATALOAD GT PUSH1 0x1 EQ PUSH2 0xDD0 JUMPI PUSH2 0xA52 SWAP1 PUSH0 SWAP1 PUSH1 0x4 CALLDATALOAD PUSH1 0x4 ADD CALLDATALOAD PUSH2 0xDC0 JUMPI JUMPDEST POP PUSH1 0x4 CALLDATALOAD PUSH1 0x4 ADD CALLDATALOAD SWAP1 DUP2 PUSH1 0x1 SHL SWAP2 PUSH0 NOT SWAP1 PUSH1 0x3 SHL SHR NOT AND OR SWAP1 JUMP JUMPDEST PUSH1 0x1 DUP7 ADD SSTORE JUMPDEST PUSH1 0x4 DUP6 ADD DUP1 SLOAD PUSH9 0xFFFFFFFFFFFFFFFFFF NOT AND TIMESTAMP PUSH1 0x8 SHL PUSH9 0xFFFFFFFFFFFFFFFF00 AND OR SWAP1 SSTORE PUSH0 JUMPDEST DUP7 DUP2 LT PUSH2 0xB10 JUMPI PUSH1 0x20 DUP9 CALLER PUSH0 MSTORE PUSH1 0x3 DUP3 MSTORE PUSH2 0xA9C DUP2 PUSH1 0x40 PUSH0 KECCAK256 PUSH2 0x11E5 JUMP JUMPDEST PUSH1 0x40 MLOAD DUP3 DUP2 MSTORE PUSH1 0x4 CALLDATALOAD PUSH1 0x4 ADD CALLDATALOAD DUP4 DUP3 ADD MSTORE PUSH1 0x4 CALLDATALOAD PUSH1 0x4 ADD CALLDATALOAD PUSH1 0x24 PUSH1 0x4 CALLDATALOAD ADD PUSH1 0x40 DUP4 ADD CALLDATACOPY PUSH0 PUSH1 0x40 PUSH1 0x4 CALLDATALOAD PUSH1 0x4 ADD CALLDATALOAD DUP4 ADD ADD MSTORE DUP2 PUSH32 0x21D0178F0CDE2AED24022DB30651DABAFB4BBE431FB787FBC92113304D8E3549 CALLER SWAP3 PUSH1 0x40 DUP2 PUSH1 0x1F NOT PUSH1 0x1F PUSH1 0x4 CALLDATALOAD PUSH1 0x4 ADD CALLDATALOAD ADD AND DUP2 ADD SUB ADD SWAP1 LOG3 PUSH1 0x40 MLOAD SWAP1 DUP2 MSTORE RETURN JUMPDEST PUSH1 0x1 PUSH1 0x1 PUSH1 0xA0 SHL SUB PUSH2 0xB2B PUSH2 0xB26 DUP4 DUP11 DUP7 PUSH2 0x10ED JUMP JUMPDEST PUSH2 0x1193 JUMP JUMPDEST AND ISZERO PUSH2 0xD82 JUMPI PUSH2 0xB3F PUSH2 0xB26 DUP3 DUP10 DUP6 PUSH2 0x10ED JUMP JUMPDEST PUSH2 0xB52 PUSH2 0xB4D DUP4 DUP7 DUP14 PUSH2 0x10ED JUMP JUMPDEST PUSH2 0x10FD JUMP JUMPDEST DUP7 DUP4 LT ISZERO PUSH2 0xD6E JUMPI PUSH1 0x1E NOT DUP7 CALLDATASIZE SUB ADD DUP4 PUSH1 0x5 SHL DUP8 ADD CALLDATALOAD SLT ISZERO PUSH2 0x244 JUMPI PUSH8 0xFFFFFFFFFFFFFFFF DUP4 PUSH1 0x5 SHL DUP8 ADD CALLDATALOAD DUP8 ADD CALLDATALOAD GT PUSH2 0x244 JUMPI PUSH1 0x5 DUP4 SWAP1 SHL DUP7 ADD CALLDATALOAD DUP7 ADD PUSH1 0x20 DUP2 ADD SWAP2 SWAP1 CALLDATALOAD CALLDATASIZE SUB DUP3 SGT PUSH2 0x244 JUMPI PUSH2 0xFFFF SWAP1 PUSH1 0x40 MLOAD SWAP4 PUSH2 0xBB0 DUP6 PUSH2 0x11A7 JUMP JUMPDEST PUSH1 0x1 DUP1 PUSH1 0xA0 SHL SUB AND DUP5 MSTORE AND PUSH1 0x20 DUP4 ADD MSTORE PUSH1 0x40 MLOAD SWAP1 PUSH2 0xBE1 PUSH1 0x20 PUSH1 0x1F NOT PUSH1 0x1F DUP8 PUSH1 0x5 SHL DUP12 ADD CALLDATALOAD DUP12 ADD CALLDATALOAD ADD AND ADD DUP4 PUSH2 0x11C3 JUMP JUMPDEST PUSH1 0x5 DUP5 SWAP1 SHL DUP8 ADD CALLDATALOAD DUP8 ADD DUP1 CALLDATALOAD DUP1 DUP5 MSTORE CALLDATASIZE SWAP2 ADD PUSH1 0x20 ADD GT PUSH2 0x244 JUMPI DUP4 PUSH1 0x5 SHL DUP8 ADD CALLDATALOAD DUP8 ADD CALLDATALOAD SWAP1 PUSH1 0x20 DUP4 ADD CALLDATACOPY PUSH0 PUSH1 0x20 DUP5 PUSH1 0x5 SHL DUP9 ADD CALLDATALOAD DUP9 ADD CALLDATALOAD DUP4 ADD ADD MSTORE PUSH1 0x40 DUP3 ADD MSTORE PUSH1 0x2 DUP8 ADD SLOAD PUSH1 0x1 PUSH1 0x40 SHL DUP2 LT ISZERO PUSH2 0x604 JUMPI PUSH1 0x1 DUP2 ADD DUP1 PUSH1 0x2 DUP11 ADD SSTORE DUP2 LT ISZERO PUSH2 0xD6E JUMPI PUSH1 0x40 SWAP1 PUSH1 0x2 DUP10 ADD PUSH0 MSTORE PUSH1 0x20 PUSH0 KECCAK256 SWAP1 PUSH1 0x1 SHL ADD SWAP2 PUSH1 0x1 DUP1 PUSH1 0xA0 SHL SUB DUP2 MLOAD AND DUP4 SLOAD SWAP1 PUSH2 0xFFFF PUSH1 0xA0 SHL PUSH1 0x20 DUP5 ADD MLOAD PUSH1 0xA0 SHL AND SWAP2 PUSH10 0xFFFFFFFFFFFFFFFFFFFF PUSH1 0xB0 SHL AND OR OR DUP4 SSTORE ADD MLOAD DUP1 MLOAD SWAP1 PUSH8 0xFFFFFFFFFFFFFFFF DUP3 GT PUSH2 0x604 JUMPI PUSH2 0xCB4 DUP3 PUSH2 0xCAB PUSH1 0x1 DUP7 ADD SLOAD PUSH2 0x110C JUMP JUMPDEST PUSH1 0x1 DUP7 ADD PUSH2 0x1144 JUMP JUMPDEST PUSH1 0x20 SWAP1 PUSH1 0x1F DUP4 GT PUSH1 0x1 EQ PUSH2 0xCFE JUMPI DUP3 PUSH1 0x1 SWAP6 SWAP5 SWAP4 DUP7 SWAP4 PUSH2 0xCE9 SWAP4 PUSH0 SWAP3 PUSH2 0xCF3 JUMPI JUMPDEST POP POP DUP2 PUSH1 0x1 SHL SWAP2 PUSH0 NOT SWAP1 PUSH1 0x3 SHL SHR NOT AND OR SWAP1 JUMP JUMPDEST SWAP2 ADD SSTORE JUMPDEST ADD PUSH2 0xA7E JUMP JUMPDEST ADD MLOAD SWAP1 POP DUP16 DUP1 PUSH2 0xCD5 JUMP JUMPDEST SWAP1 PUSH1 0x1 DUP5 ADD PUSH0 MSTORE PUSH1 0x20 PUSH0 KECCAK256 SWAP2 PUSH0 JUMPDEST PUSH1 0x1F NOT DUP6 AND DUP2 LT PUSH2 0xD56 JUMPI POP SWAP3 PUSH1 0x1 SWAP6 SWAP5 SWAP4 SWAP3 DUP7 SWAP4 SWAP3 DUP5 SWAP4 DUP4 PUSH1 0x1F NOT DUP2 AND LT PUSH2 0xD3E JUMPI JUMPDEST POP POP POP DUP2 SHL ADD SWAP2 ADD SSTORE PUSH2 0xCED JUMP JUMPDEST ADD MLOAD PUSH0 NOT PUSH1 0xF8 DUP5 PUSH1 0x3 SHL AND SHR NOT AND SWAP1 SSTORE DUP15 DUP1 DUP1 PUSH2 0xD30 JUMP JUMPDEST SWAP2 SWAP3 PUSH1 0x20 PUSH1 0x1 DUP2 SWAP3 DUP7 DUP6 ADD MLOAD DUP2 SSTORE ADD SWAP5 ADD SWAP3 ADD PUSH2 0xD0C JUMP JUMPDEST PUSH4 0x4E487B71 PUSH1 0xE0 SHL PUSH0 MSTORE PUSH1 0x32 PUSH1 0x4 MSTORE PUSH1 0x24 PUSH0 REVERT JUMPDEST PUSH1 0x40 MLOAD PUSH3 0x461BCD PUSH1 0xE5 SHL DUP2 MSTORE PUSH1 0x20 PUSH1 0x4 DUP3 ADD MSTORE PUSH1 0x16 PUSH1 0x24 DUP3 ADD MSTORE PUSH22 0x1413D31250D64E881A5B9D985B1A59081DD85B1B195D PUSH1 0x52 SHL PUSH1 0x44 DUP3 ADD MSTORE PUSH1 0x64 SWAP1 REVERT JUMPDEST PUSH1 0x24 SWAP2 POP PUSH1 0x4 CALLDATALOAD ADD ADD CALLDATALOAD DUP11 PUSH2 0xA37 JUMP JUMPDEST PUSH1 0x1 DUP7 ADD PUSH0 MSTORE PUSH1 0x20 PUSH0 KECCAK256 SWAP1 PUSH0 JUMPDEST PUSH1 0x4 DUP1 CALLDATALOAD ADD CALLDATALOAD PUSH1 0x1F NOT AND DUP2 LT PUSH2 0xE3B JUMPI POP PUSH1 0x4 DUP1 CALLDATALOAD ADD CALLDATALOAD PUSH1 0x1F NOT DUP2 AND LT PUSH2 0xE17 JUMPI JUMPDEST POP POP PUSH1 0x1 PUSH1 0x4 CALLDATALOAD PUSH1 0x4 ADD CALLDATALOAD DUP2 SHL ADD PUSH1 0x1 DUP7 ADD SSTORE PUSH2 0xA58 JUMP JUMPDEST PUSH1 0x24 PUSH0 NOT PUSH1 0xF8 PUSH1 0x4 CALLDATALOAD PUSH1 0x4 ADD CALLDATALOAD PUSH1 0x3 SHL AND SHR NOT SWAP2 PUSH1 0x4 CALLDATALOAD ADD ADD CALLDATALOAD AND SWAP1 SSTORE DUP9 DUP1 PUSH2 0xDFF JUMP JUMPDEST SWAP1 SWAP2 PUSH1 0x20 PUSH1 0x1 DUP2 SWAP3 PUSH1 0x24 DUP7 PUSH1 0x4 CALLDATALOAD ADD ADD CALLDATALOAD DUP2 SSTORE ADD SWAP4 ADD SWAP2 ADD PUSH2 0xDDD JUMP JUMPDEST PUSH4 0x4E487B71 PUSH1 0xE0 SHL PUSH0 MSTORE PUSH1 0x11 PUSH1 0x4 MSTORE PUSH1 0x24 PUSH0 REVERT JUMPDEST PUSH1 0x40 MLOAD PUSH3 0x461BCD PUSH1 0xE5 SHL DUP2 MSTORE PUSH1 0x20 PUSH1 0x4 DUP3 ADD MSTORE PUSH1 0x22 PUSH1 0x24 DUP3 ADD MSTORE PUSH32 0x504F4C4943593A20736861726573206D75737420746F74616C20313030303020 PUSH1 0x44 DUP3 ADD MSTORE PUSH2 0x627 PUSH1 0xF4 SHL PUSH1 0x64 DUP3 ADD MSTORE PUSH1 0x84 SWAP1 REVERT JUMPDEST PUSH2 0xFFFF PUSH2 0xECD PUSH2 0xB4D DUP5 DUP11 DUP13 PUSH2 0x10ED JUMP JUMPDEST AND DUP2 ADD DUP1 SWAP2 GT PUSH2 0xE58 JUMPI PUSH1 0x1 SWAP1 SWAP2 ADD SWAP1 PUSH2 0x9AB JUMP JUMPDEST PUSH1 0x40 MLOAD PUSH3 0x461BCD PUSH1 0xE5 SHL DUP2 MSTORE PUSH1 0x20 PUSH1 0x4 DUP3 ADD MSTORE PUSH1 0x18 PUSH1 0x24 DUP3 ADD MSTORE PUSH32 0x504F4C4943593A206E6F2062656E656669636961726965730000000000000000 PUSH1 0x44 DUP3 ADD MSTORE PUSH1 0x64 SWAP1 REVERT JUMPDEST PUSH1 0x40 MLOAD PUSH3 0x461BCD PUSH1 0xE5 SHL DUP2 MSTORE PUSH1 0x20 PUSH1 0x4 DUP3 ADD MSTORE PUSH1 0x17 PUSH1 0x24 DUP3 ADD MSTORE PUSH32 0x504F4C4943593A206C656E677468206D69736D61746368000000000000000000 PUSH1 0x44 DUP3 ADD MSTORE PUSH1 0x64 SWAP1 REVERT JUMPDEST POP DUP2 DUP5 EQ PUSH2 0x99D JUMP JUMPDEST PUSH1 0x40 MLOAD PUSH3 0x461BCD PUSH1 0xE5 SHL DUP2 MSTORE PUSH1 0x20 PUSH1 0x4 DUP3 ADD MSTORE PUSH1 0x12 PUSH1 0x24 DUP3 ADD MSTORE PUSH18 0xA09E989286B27440CADAE0E8F240D0C2E6D PUSH1 0x73 SHL PUSH1 0x44 DUP3 ADD MSTORE PUSH1 0x64 SWAP1 REVERT JUMPDEST CALLVALUE PUSH2 0x244 JUMPI PUSH1 0x20 CALLDATASIZE PUSH1 0x3 NOT ADD SLT PUSH2 0x244 JUMPI PUSH1 0x4 CALLDATALOAD SWAP1 PUSH4 0xFFFFFFFF PUSH1 0xE0 SHL DUP3 AND DUP1 SWAP3 SUB PUSH2 0x244 JUMPI PUSH1 0x20 SWAP2 PUSH4 0x7965DB0B PUSH1 0xE0 SHL DUP2 EQ SWAP1 DUP2 ISZERO PUSH2 0xFF1 JUMPI JUMPDEST POP ISZERO ISZERO DUP2 MSTORE RETURN JUMPDEST PUSH4 0x1FFC9A7 PUSH1 0xE0 SHL EQ SWAP1 POP DUP4 PUSH2 0xFEA JUMP JUMPDEST SWAP2 DUP2 PUSH1 0x1F DUP5 ADD SLT ISZERO PUSH2 0x244 JUMPI DUP3 CALLDATALOAD SWAP2 PUSH8 0xFFFFFFFFFFFFFFFF DUP4 GT PUSH2 0x244 JUMPI PUSH1 0x20 DUP1 DUP6 ADD SWAP5 DUP5 PUSH1 0x5 SHL ADD ADD GT PUSH2 0x244 JUMPI JUMP JUMPDEST SWAP2 SWAP1 DUP3 MLOAD SWAP3 DUP4 DUP3 MSTORE PUSH0 JUMPDEST DUP5 DUP2 LT PUSH2 0x105D JUMPI POP POP DUP3 PUSH0 PUSH1 0x20 DUP1 SWAP5 SWAP6 DUP5 ADD ADD MSTORE PUSH1 0x1F DUP1 NOT SWAP2 ADD AND ADD ADD SWAP1 JUMP JUMPDEST PUSH1 0x20 DUP2 DUP4 ADD DUP2 ADD MLOAD DUP5 DUP4 ADD DUP3 ADD MSTORE ADD PUSH2 0x103D JUMP JUMPDEST PUSH1 0x24 CALLDATALOAD SWAP1 PUSH1 0x1 PUSH1 0x1 PUSH1 0xA0 SHL SUB DUP3 AND DUP3 SUB PUSH2 0x244 JUMPI JUMP JUMPDEST PUSH1 0x4 CALLDATALOAD SWAP1 PUSH1 0x1 PUSH1 0x1 PUSH1 0xA0 SHL SUB DUP3 AND DUP3 SUB PUSH2 0x244 JUMPI JUMP JUMPDEST PUSH1 0x20 SWAP1 PUSH1 0x20 PUSH1 0x40 DUP2 DUP4 ADD SWAP3 DUP3 DUP2 MSTORE DUP6 MLOAD DUP1 SWAP5 MSTORE ADD SWAP4 ADD SWAP2 PUSH0 JUMPDEST DUP3 DUP2 LT PUSH2 0x10C4 JUMPI POP POP POP POP SWAP1 JUMP JUMPDEST DUP4 MLOAD DUP6 MSTORE SWAP4 DUP2 ADD SWAP4 SWAP3 DUP2 ADD SWAP3 PUSH1 0x1 ADD PUSH2 0x10B6 JUMP JUMPDEST DUP1 SLOAD DUP3 LT ISZERO PUSH2 0xD6E JUMPI PUSH0 MSTORE PUSH1 0x20 PUSH0 KECCAK256 ADD SWAP1 PUSH0 SWAP1 JUMP JUMPDEST SWAP2 SWAP1 DUP2 LT ISZERO PUSH2 0xD6E JUMPI PUSH1 0x5 SHL ADD SWAP1 JUMP JUMPDEST CALLDATALOAD PUSH2 0xFFFF DUP2 AND DUP2 SUB PUSH2 0x244 JUMPI SWAP1 JUMP JUMPDEST SWAP1 PUSH1 0x1 DUP3 DUP2 SHR SWAP3 AND DUP1 ISZERO PUSH2 0x113A JUMPI JUMPDEST PUSH1 0x20 DUP4 LT EQ PUSH2 0x1126 JUMPI JUMP JUMPDEST PUSH4 0x4E487B71 PUSH1 0xE0 SHL PUSH0 MSTORE PUSH1 0x22 PUSH1 0x4 MSTORE PUSH1 0x24 PUSH0 REVERT JUMPDEST SWAP2 PUSH1 0x7F AND SWAP2 PUSH2 0x111B JUMP JUMPDEST PUSH1 0x1F DUP3 GT PUSH2 0x1151 JUMPI POP POP POP JUMP JUMPDEST PUSH0 MSTORE PUSH1 0x20 PUSH0 KECCAK256 SWAP1 PUSH1 0x20 PUSH1 0x1F DUP5 ADD PUSH1 0x5 SHR DUP4 ADD SWAP4 LT PUSH2 0x1189 JUMPI JUMPDEST PUSH1 0x1F ADD PUSH1 0x5 SHR ADD SWAP1 JUMPDEST DUP2 DUP2 LT PUSH2 0x117E JUMPI POP POP JUMP JUMPDEST PUSH0 DUP2 SSTORE PUSH1 0x1 ADD PUSH2 0x1173 JUMP JUMPDEST SWAP1 SWAP2 POP DUP2 SWAP1 PUSH2 0x116A JUMP JUMPDEST CALLDATALOAD PUSH1 0x1 PUSH1 0x1 PUSH1 0xA0 SHL SUB DUP2 AND DUP2 SUB PUSH2 0x244 JUMPI SWAP1 JUMP JUMPDEST PUSH1 0x60 DUP2 ADD SWAP1 DUP2 LT PUSH8 0xFFFFFFFFFFFFFFFF DUP3 GT OR PUSH2 0x604 JUMPI PUSH1 0x40 MSTORE JUMP JUMPDEST SWAP1 PUSH1 0x1F DUP1 NOT SWAP2 ADD AND DUP2 ADD SWAP1 DUP2 LT PUSH8 0xFFFFFFFFFFFFFFFF DUP3 GT OR PUSH2 0x604 JUMPI PUSH1 0x40 MSTORE JUMP JUMPDEST DUP1 SLOAD PUSH1 0x1 PUSH1 0x40 SHL DUP2 LT ISZERO PUSH2 0x604 JUMPI PUSH2 0x1202 SWAP2 PUSH1 0x1 DUP3 ADD DUP2 SSTORE PUSH2 0x10D8 JUMP JUMPDEST DUP2 SWAP3 SWAP2 SLOAD SWAP1 PUSH1 0x3 SHL SWAP2 DUP3 SHL SWAP2 PUSH0 NOT SWAP1 SHL NOT AND OR SWAP1 SSTORE JUMP JUMPDEST SWAP1 PUSH1 0x40 MLOAD SWAP2 DUP3 PUSH0 DUP3 SLOAD PUSH2 0x122B DUP2 PUSH2 0x110C JUMP JUMPDEST SWAP1 DUP2 DUP5 MSTORE PUSH1 0x20 SWAP5 PUSH1 0x1 SWAP2 PUSH1 0x1 DUP2 AND SWAP1 DUP2 PUSH0 EQ PUSH2 0x1299 JUMPI POP PUSH1 0x1 EQ PUSH2 0x125B JUMPI JUMPDEST POP POP POP PUSH2 0x1259 SWAP3 POP SUB DUP4 PUSH2 0x11C3 JUMP JUMPDEST JUMP JUMPDEST PUSH0 SWAP1 DUP2 MSTORE DUP6 DUP2 KECCAK256 SWAP6 SWAP4 POP SWAP2 SWAP1 JUMPDEST DUP2 DUP4 LT PUSH2 0x1281 JUMPI POP POP PUSH2 0x1259 SWAP4 POP DUP3 ADD ADD PUSH0 DUP1 DUP1 PUSH2 0x124A JUMP JUMPDEST DUP6 SLOAD DUP9 DUP5 ADD DUP6 ADD MSTORE SWAP5 DUP6 ADD SWAP5 DUP8 SWAP5 POP SWAP2 DUP4 ADD SWAP2 PUSH2 0x1268 JUMP JUMPDEST SWAP3 POP POP POP PUSH2 0x1259 SWAP5 SWAP3 POP PUSH1 0xFF NOT AND DUP3 DUP5 ADD MSTORE ISZERO ISZERO PUSH1 0x5 SHL DUP3 ADD ADD PUSH0 DUP1 DUP1 PUSH2 0x124A JUMP JUMPDEST ISZERO PUSH2 0x12C2 JUMPI JUMP JUMPDEST PUSH1 0x40 MLOAD PUSH3 0x461BCD PUSH1 0xE5 SHL DUP2 MSTORE PUSH1 0x20 PUSH1 0x4 DUP3 ADD MSTORE PUSH1 0x12 PUSH1 0x24 DUP3 ADD MSTORE PUSH18 0x504F4C4943593A206E6F7420616374697665 PUSH1 0x70 SHL PUSH1 0x44 DUP3 ADD MSTORE PUSH1 0x64 SWAP1 REVERT JUMPDEST CALLER PUSH0 SWAP1 DUP2 MSTORE PUSH32 0xEE7C610CDDB26DC0CDF15890E8767E79A2136B968B4BBA3BB3441495F3EC9AEC PUSH1 0x20 MSTORE PUSH1 0x40 SWAP1 KECCAK256 SLOAD PUSH32 0x2724E1C963EB1465B51230910D2CA7BE74B71883F8CAB72076D8C12E086C2B48 SWAP1 PUSH1 0xFF AND ISZERO PUSH2 0x1357 JUMPI POP JUMP JUMPDEST PUSH1 0x44 SWAP1 PUSH1 0x40 MLOAD SWAP1 PUSH4 0xE2517D3F PUSH1 0xE0 SHL DUP3 MSTORE CALLER PUSH1 0x4 DUP4 ADD MSTORE PUSH1 0x24 DUP3 ADD MSTORE REVERT JUMPDEST DUP1 PUSH0 MSTORE PUSH0 PUSH1 0x20 MSTORE PUSH1 0x40 PUSH0 KECCAK256 CALLER PUSH0 MSTORE PUSH1 0x20 MSTORE PUSH1 0xFF PUSH1 0x40 PUSH0 KECCAK256 SLOAD AND ISZERO PUSH2 0x1357 JUMPI POP JUMP JUMPDEST SWAP1 DUP2 PUSH0 MSTORE PUSH0 PUSH1 0x20 MSTORE PUSH1 0x40 PUSH0 KECCAK256 SWAP1 PUSH1 0x1 DUP1 PUSH1 0xA0 SHL SUB AND SWAP1 DUP2 PUSH0 MSTORE PUSH1 0x20 MSTORE PUSH1 0xFF PUSH1 0x40 PUSH0 KECCAK256 SLOAD AND ISZERO PUSH0 EQ PUSH2 0x140C JUMPI DUP2 PUSH0 MSTORE PUSH0 PUSH1 0x20 MSTORE PUSH1 0x40 PUSH0 KECCAK256 DUP2 PUSH0 MSTORE PUSH1 0x20 MSTORE PUSH1 0x40 PUSH0 KECCAK256 PUSH1 0x1 PUSH1 0xFF NOT DUP3 SLOAD AND OR SWAP1 SSTORE CALLER SWAP2 PUSH32 0x2F8788117E7EFF1D82E926EC794901D17C78024A50270940304540A733656F0D PUSH0 DUP1 LOG4 PUSH1 0x1 SWAP1 JUMP JUMPDEST POP POP PUSH0 SWAP1 JUMP JUMPDEST SWAP1 DUP2 PUSH0 MSTORE PUSH0 PUSH1 0x20 MSTORE PUSH1 0x40 PUSH0 KECCAK256 SWAP1 PUSH1 0x1 DUP1 PUSH1 0xA0 SHL SUB AND SWAP1 DUP2 PUSH0 MSTORE PUSH1 0x20 MSTORE PUSH1 0xFF PUSH1 0x40 PUSH0 KECCAK256 SLOAD AND PUSH0 EQ PUSH2 0x140C JUMPI DUP2 PUSH0 MSTORE PUSH0 PUSH1 0x20 MSTORE PUSH1 0x40 PUSH0 KECCAK256 DUP2 PUSH0 MSTORE PUSH1 0x20 MSTORE PUSH1 0x40 PUSH0 KECCAK256 PUSH1 0xFF NOT DUP2 SLOAD AND SWAP1 SSTORE CALLER SWAP2 PUSH32 0xF6391F5C32D9C69D2A47EA670B442974B53935D1EDC7FD64EB21E047A839171B PUSH0 DUP1 LOG4 PUSH1 0x1 SWAP1 JUMP INVALID LOG2 PUSH5 0x6970667358 0x22 SLT KECCAK256 PUSH27 0x9DA977CA59F5F9894F02A83CC5F07878B3232409674D2E91A795C4 SWAP15 0xBD DUP2 PUSH27 0x64736F6C634300081800332F8788117E7EFF1D82E926EC794901D1 PUSH29 0x78024A50270940304540A733656F0DAD3228B676F7D3CD4284A5443F17 CALL SWAP7 0x2B CALLDATASIZE 0xE4 SWAP2 0xB3 EXP BLOCKHASH 0xB2 BLOCKHASH PC BLOBHASH 0xE5 SWAP8 0xBA PUSH0 0xB5 "},"methodIdentifiers":{"DEFAULT_ADMIN_ROLE()":"a217fddf","POLICY_MANAGER_ROLE()":"1e1cc25f","activatePolicy(uint256)":"871ae93a","createPolicy(string,address[],uint16[],string[])":"024106de","creatorPolicies(address,uint256)":"6a102797","executePolicy(uint256)":"992d5e18","getBeneficiaries(uint256)":"783804d9","getCapsuleIds(uint256)":"56fb8556","getCreatorPolicies(address)":"cdb045dd","getPolicy(uint256)":"2b07fce3","getRoleAdmin(bytes32)":"248a9ca3","grantRole(bytes32,address)":"2f2ff15d","hasRole(bytes32,address)":"91d14854","linkCapsule(uint256,uint256)":"540f766c","policyCount()":"de54d429","renounceRole(bytes32,address)":"36568abe","revokePolicy(uint256)":"e0476b55","revokeRole(bytes32,address)":"d547741f","supportsInterface(bytes4)":"01ffc9a7"}}}}}