{
  "_format": "hh-sol-artifact-1",
  "contractName": "StakingPool",
  "sourceName": "contracts/StakingPool.sol",
  "abi": [
    {
      "inputs": [
        {
          "internalType": "address",
          "name": "stakingTokenAddress",
          "type": "address"
        },
        {
          "internalType": "address",
          "name": "rewardTokenAddress",
          "type": "address"
        },
        {
          "internalType": "address",
          "name": "admin",
          "type": "address"
        },
        {
          "internalType": "address",
          "name": "rewardDistributor",
          "type": "address"
        }
      ],
      "stateMutability": "nonpayable",
      "type": "constructor"
    },
    {
      "inputs": [],
      "name": "AccessControlBadConfirmation",
      "type": "error"
    },
    {
      "inputs": [
        {
          "internalType": "address",
          "name": "account",
          "type": "address"
        },
        {
          "internalType": "bytes32",
          "name": "neededRole",
          "type": "bytes32"
        }
      ],
      "name": "AccessControlUnauthorizedAccount",
      "type": "error"
    },
    {
      "inputs": [],
      "name": "EnforcedPause",
      "type": "error"
    },
    {
      "inputs": [],
      "name": "ExpectedPause",
      "type": "error"
    },
    {
      "inputs": [],
      "name": "ReentrancyGuardReentrantCall",
      "type": "error"
    },
    {
      "inputs": [
        {
          "internalType": "address",
          "name": "token",
          "type": "address"
        }
      ],
      "name": "SafeERC20FailedOperation",
      "type": "error"
    },
    {
      "anonymous": false,
      "inputs": [
        {
          "indexed": false,
          "internalType": "address",
          "name": "account",
          "type": "address"
        }
      ],
      "name": "Paused",
      "type": "event"
    },
    {
      "anonymous": false,
      "inputs": [
        {
          "indexed": false,
          "internalType": "uint256",
          "name": "reward",
          "type": "uint256"
        },
        {
          "indexed": false,
          "internalType": "uint256",
          "name": "duration",
          "type": "uint256"
        }
      ],
      "name": "RewardAdded",
      "type": "event"
    },
    {
      "anonymous": false,
      "inputs": [
        {
          "indexed": true,
          "internalType": "address",
          "name": "user",
          "type": "address"
        },
        {
          "indexed": false,
          "internalType": "uint256",
          "name": "reward",
          "type": "uint256"
        }
      ],
      "name": "RewardPaid",
      "type": "event"
    },
    {
      "anonymous": false,
      "inputs": [
        {
          "indexed": true,
          "internalType": "bytes32",
          "name": "role",
          "type": "bytes32"
        },
        {
          "indexed": true,
          "internalType": "bytes32",
          "name": "previousAdminRole",
          "type": "bytes32"
        },
        {
          "indexed": true,
          "internalType": "bytes32",
          "name": "newAdminRole",
          "type": "bytes32"
        }
      ],
      "name": "RoleAdminChanged",
      "type": "event"
    },
    {
      "anonymous": false,
      "inputs": [
        {
          "indexed": true,
          "internalType": "bytes32",
          "name": "role",
          "type": "bytes32"
        },
        {
          "indexed": true,
          "internalType": "address",
          "name": "account",
          "type": "address"
        },
        {
          "indexed": true,
          "internalType": "address",
          "name": "sender",
          "type": "address"
        }
      ],
      "name": "RoleGranted",
      "type": "event"
    },
    {
      "anonymous": false,
      "inputs": [
        {
          "indexed": true,
          "internalType": "bytes32",
          "name": "role",
          "type": "bytes32"
        },
        {
          "indexed": true,
          "internalType": "address",
          "name": "account",
          "type": "address"
        },
        {
          "indexed": true,
          "internalType": "address",
          "name": "sender",
          "type": "address"
        }
      ],
      "name": "RoleRevoked",
      "type": "event"
    },
    {
      "anonymous": false,
      "inputs": [
        {
          "indexed": true,
          "internalType": "address",
          "name": "user",
          "type": "address"
        },
        {
          "indexed": false,
          "internalType": "uint256",
          "name": "amount",
          "type": "uint256"
        }
      ],
      "name": "Staked",
      "type": "event"
    },
    {
      "anonymous": false,
      "inputs": [
        {
          "indexed": false,
          "internalType": "address",
          "name": "account",
          "type": "address"
        }
      ],
      "name": "Unpaused",
      "type": "event"
    },
    {
      "anonymous": false,
      "inputs": [
        {
          "indexed": true,
          "internalType": "address",
          "name": "user",
          "type": "address"
        },
        {
          "indexed": false,
          "internalType": "uint256",
          "name": "amount",
          "type": "uint256"
        }
      ],
      "name": "Withdrawn",
      "type": "event"
    },
    {
      "inputs": [],
      "name": "DEFAULT_ADMIN_ROLE",
      "outputs": [
        {
          "internalType": "bytes32",
          "name": "",
          "type": "bytes32"
        }
      ],
      "stateMutability": "view",
      "type": "function"
    },
    {
      "inputs": [],
      "name": "REWARD_DISTRIBUTOR_ROLE",
      "outputs": [
        {
          "internalType": "bytes32",
          "name": "",
          "type": "bytes32"
        }
      ],
      "stateMutability": "view",
      "type": "function"
    },
    {
      "inputs": [
        {
          "internalType": "address",
          "name": "",
          "type": "address"
        }
      ],
      "name": "balances",
      "outputs": [
        {
          "internalType": "uint256",
          "name": "",
          "type": "uint256"
        }
      ],
      "stateMutability": "view",
      "type": "function"
    },
    {
      "inputs": [],
      "name": "claimReward",
      "outputs": [],
      "stateMutability": "nonpayable",
      "type": "function"
    },
    {
      "inputs": [
        {
          "internalType": "address",
          "name": "account",
          "type": "address"
        }
      ],
      "name": "earned",
      "outputs": [
        {
          "internalType": "uint256",
          "name": "",
          "type": "uint256"
        }
      ],
      "stateMutability": "view",
      "type": "function"
    },
    {
      "inputs": [],
      "name": "exit",
      "outputs": [],
      "stateMutability": "nonpayable",
      "type": "function"
    },
    {
      "inputs": [
        {
          "internalType": "bytes32",
          "name": "role",
          "type": "bytes32"
        }
      ],
      "name": "getRoleAdmin",
      "outputs": [
        {
          "internalType": "bytes32",
          "name": "",
          "type": "bytes32"
        }
      ],
      "stateMutability": "view",
      "type": "function"
    },
    {
      "inputs": [
        {
          "internalType": "bytes32",
          "name": "role",
          "type": "bytes32"
        },
        {
          "internalType": "address",
          "name": "account",
          "type": "address"
        }
      ],
      "name": "grantRole",
      "outputs": [],
      "stateMutability": "nonpayable",
      "type": "function"
    },
    {
      "inputs": [
        {
          "internalType": "bytes32",
          "name": "role",
          "type": "bytes32"
        },
        {
          "internalType": "address",
          "name": "account",
          "type": "address"
        }
      ],
      "name": "hasRole",
      "outputs": [
        {
          "internalType": "bool",
          "name": "",
          "type": "bool"
        }
      ],
      "stateMutability": "view",
      "type": "function"
    },
    {
      "inputs": [],
      "name": "lastTimeRewardApplicable",
      "outputs": [
        {
          "internalType": "uint256",
          "name": "",
          "type": "uint256"
        }
      ],
      "stateMutability": "view",
      "type": "function"
    },
    {
      "inputs": [],
      "name": "lastUpdateTime",
      "outputs": [
        {
          "internalType": "uint256",
          "name": "",
          "type": "uint256"
        }
      ],
      "stateMutability": "view",
      "type": "function"
    },
    {
      "inputs": [
        {
          "internalType": "uint256",
          "name": "reward",
          "type": "uint256"
        },
        {
          "internalType": "uint256",
          "name": "duration",
          "type": "uint256"
        }
      ],
      "name": "notifyRewardAmount",
      "outputs": [],
      "stateMutability": "nonpayable",
      "type": "function"
    },
    {
      "inputs": [],
      "name": "pause",
      "outputs": [],
      "stateMutability": "nonpayable",
      "type": "function"
    },
    {
      "inputs": [],
      "name": "paused",
      "outputs": [
        {
          "internalType": "bool",
          "name": "",
          "type": "bool"
        }
      ],
      "stateMutability": "view",
      "type": "function"
    },
    {
      "inputs": [],
      "name": "periodFinish",
      "outputs": [
        {
          "internalType": "uint256",
          "name": "",
          "type": "uint256"
        }
      ],
      "stateMutability": "view",
      "type": "function"
    },
    {
      "inputs": [
        {
          "internalType": "bytes32",
          "name": "role",
          "type": "bytes32"
        },
        {
          "internalType": "address",
          "name": "callerConfirmation",
          "type": "address"
        }
      ],
      "name": "renounceRole",
      "outputs": [],
      "stateMutability": "nonpayable",
      "type": "function"
    },
    {
      "inputs": [
        {
          "internalType": "bytes32",
          "name": "role",
          "type": "bytes32"
        },
        {
          "internalType": "address",
          "name": "account",
          "type": "address"
        }
      ],
      "name": "revokeRole",
      "outputs": [],
      "stateMutability": "nonpayable",
      "type": "function"
    },
    {
      "inputs": [],
      "name": "rewardPerToken",
      "outputs": [
        {
          "internalType": "uint256",
          "name": "",
          "type": "uint256"
        }
      ],
      "stateMutability": "view",
      "type": "function"
    },
    {
      "inputs": [],
      "name": "rewardPerTokenStored",
      "outputs": [
        {
          "internalType": "uint256",
          "name": "",
          "type": "uint256"
        }
      ],
      "stateMutability": "view",
      "type": "function"
    },
    {
      "inputs": [],
      "name": "rewardRate",
      "outputs": [
        {
          "internalType": "uint256",
          "name": "",
          "type": "uint256"
        }
      ],
      "stateMutability": "view",
      "type": "function"
    },
    {
      "inputs": [],
      "name": "rewardToken",
      "outputs": [
        {
          "internalType": "contract IERC20",
          "name": "",
          "type": "address"
        }
      ],
      "stateMutability": "view",
      "type": "function"
    },
    {
      "inputs": [
        {
          "internalType": "address",
          "name": "",
          "type": "address"
        }
      ],
      "name": "rewards",
      "outputs": [
        {
          "internalType": "uint256",
          "name": "",
          "type": "uint256"
        }
      ],
      "stateMutability": "view",
      "type": "function"
    },
    {
      "inputs": [
        {
          "internalType": "uint256",
          "name": "amount",
          "type": "uint256"
        }
      ],
      "name": "stake",
      "outputs": [],
      "stateMutability": "nonpayable",
      "type": "function"
    },
    {
      "inputs": [],
      "name": "stakingToken",
      "outputs": [
        {
          "internalType": "contract IERC20",
          "name": "",
          "type": "address"
        }
      ],
      "stateMutability": "view",
      "type": "function"
    },
    {
      "inputs": [
        {
          "internalType": "bytes4",
          "name": "interfaceId",
          "type": "bytes4"
        }
      ],
      "name": "supportsInterface",
      "outputs": [
        {
          "internalType": "bool",
          "name": "",
          "type": "bool"
        }
      ],
      "stateMutability": "view",
      "type": "function"
    },
    {
      "inputs": [],
      "name": "totalStaked",
      "outputs": [
        {
          "internalType": "uint256",
          "name": "",
          "type": "uint256"
        }
      ],
      "stateMutability": "view",
      "type": "function"
    },
    {
      "inputs": [],
      "name": "unpause",
      "outputs": [],
      "stateMutability": "nonpayable",
      "type": "function"
    },
    {
      "inputs": [
        {
          "internalType": "address",
          "name": "",
          "type": "address"
        }
      ],
      "name": "userRewardPerTokenPaid",
      "outputs": [
        {
          "internalType": "uint256",
          "name": "",
          "type": "uint256"
        }
      ],
      "stateMutability": "view",
      "type": "function"
    },
    {
      "inputs": [
        {
          "internalType": "uint256",
          "name": "amount",
          "type": "uint256"
        }
      ],
      "name": "withdraw",
      "outputs": [],
      "stateMutability": "nonpayable",
      "type": "function"
    }
  ],
  "bytecode": "0x60c060405234801562000010575f80fd5b50604051620014e1380380620014e18339810160408190526200003391620002da565b60017f9b779b17422d0df92223018b32b4d1fa46e071723d6817e2486d003becc55f00556001600160a01b038416620000b35760405162461bcd60e51b815260206004820152601e60248201527f5354414b494e473a20696e76616c6964207374616b696e6720746f6b656e000060448201526064015b60405180910390fd5b6001600160a01b0383166200010b5760405162461bcd60e51b815260206004820152601d60248201527f5354414b494e473a20696e76616c69642072657761726420746f6b656e0000006044820152606401620000aa565b6001600160a01b038216620001635760405162461bcd60e51b815260206004820152601660248201527f5354414b494e473a20696e76616c69642061646d696e000000000000000000006044820152606401620000aa565b6001600160a01b038116620001bb5760405162461bcd60e51b815260206004820152601c60248201527f5354414b494e473a20696e76616c6964206469737472696275746f72000000006044820152606401620000aa565b6001600160a01b03808516608052831660a052620001da5f8362000212565b50620002077fb814ff4a26ea3ec5cd1fa579daad86324826254265f3acfec78303a19845b4498262000212565b505050505062000334565b5f828152602081815260408083206001600160a01b038516845290915281205460ff16620002b5575f838152602081815260408083206001600160a01b03861684529091529020805460ff191660011790556200026c3390565b6001600160a01b0316826001600160a01b0316847f2f8788117e7eff1d82e926ec794901d17c78024a50270940304540a733656f0d60405160405180910390a4506001620002b8565b505f5b92915050565b80516001600160a01b0381168114620002d5575f80fd5b919050565b5f805f8060808587031215620002ee575f80fd5b620002f985620002be565b93506200030960208601620002be565b92506200031960408601620002be565b91506200032960608601620002be565b905092959194509250565b60805160a05161116f620003725f395f81816103f2015281816105a80152610b2e01525f81816102ff015281816107d00152610a04015261116f5ff3fe608060405234801561000f575f80fd5b50600436106101c5575f3560e01c806380faa57d116100fe578063b88a802f1161009e578063df136d651161006e578063df136d65146103d3578063e9fad8ee146103dc578063ebe2b12b146103e4578063f7c618c1146103ed575f80fd5b8063b88a802f146103a7578063c8f33c91146103af578063cd3daf9d146103b8578063d547741f146103c0575f80fd5b80638b876347116100d95780638b8763471461035b57806391d148541461037a578063a217fddf1461038d578063a694fc3a14610394575f80fd5b806380faa57d14610342578063817b1cd21461034a5780638456cb5914610353575f80fd5b80632f2ff15d116101695780633f4ba83a116101445780633f4ba83a146102e75780635c975abb146102ef57806372f702f3146102fa5780637b0a47ee14610339575f80fd5b80632f2ff15d1461029a57806332e4bb0a146102ad57806336568abe146102d4575f80fd5b8063246132f9116101a4578063246132f914610231578063248a9ca31461024657806327e235e3146102685780632e1a7d4d14610287575f80fd5b80628cc262146101c957806301ffc9a7146101ef5780630700037d14610212575b5f80fd5b6101dc6101d7366004611001565b610414565b6040519081526020015b60405180910390f35b6102026101fd366004611021565b61048f565b60405190151581526020016101e6565b6101dc610220366004611001565b60096020525f908152604090205481565b61024461023f366004611048565b6104c3565b005b6101dc610254366004611068565b5f9081526020819052604090206001015490565b6101dc610276366004611001565b60076020525f908152604090205481565b610244610295366004611068565b61067b565b6102446102a836600461107f565b610847565b6101dc7fb814ff4a26ea3ec5cd1fa579daad86324826254265f3acfec78303a19845b44981565b6102446102e236600461107f565b610871565b6102446108a9565b60015460ff16610202565b6103217f000000000000000000000000000000000000000000000000000000000000000081565b6040516001600160a01b0390911681526020016101e6565b6101dc60025481565b6101dc6108bb565b6101dc60065481565b6102446108d3565b6101dc610369366004611001565b60086020525f908152604090205481565b61020261038836600461107f565b6108e5565b6101dc5f81565b6102446103a2366004611068565b61090d565b610244610a5e565b6101dc60035481565b6101dc610bac565b6102446103ce36600461107f565b610c0b565b6101dc60045481565b610244610c2f565b6101dc60055481565b6103217f000000000000000000000000000000000000000000000000000000000000000081565b6001600160a01b0381165f908152600960209081526040808320546008909252822054670de0b6b3a764000090610449610bac565b61045391906110bd565b6001600160a01b0385165f9081526007602052604090205461047591906110d0565b61047f91906110e7565b6104899190611106565b92915050565b5f6001600160e01b03198216637965db0b60e01b148061048957506301ffc9a760e01b6001600160e01b0319831614610489565b7fb814ff4a26ea3ec5cd1fa579daad86324826254265f3acfec78303a19845b4496104ed81610c4f565b5f6104f6610bac565b6004556105016108bb565b6003556001600160a01b038116156105475761051c81610414565b6001600160a01b0382165f908152600960209081526040808320939093556004546008909152919020555b5f831161059b5760405162461bcd60e51b815260206004820152601960248201527f5354414b494e473a20696e76616c6964206475726174696f6e0000000000000060448201526064015b60405180910390fd5b6105d06001600160a01b037f000000000000000000000000000000000000000000000000000000000000000016333087610c59565b60055442106105eb576105e383856110e7565b600255610628565b5f426005546105fa91906110bd565b90505f6002548261060b91906110d0565b9050846106188288611106565b61062291906110e7565b60025550505b426003819055610639908490611106565b60055560408051858152602081018590527f6c07ee05dcf262f13abf9d87b846ee789d2f90fe991d495acd7d7fc109ee1f55910160405180910390a150505050565b610683610c8f565b61068b610caa565b33610694610bac565b60045561069f6108bb565b6003556001600160a01b038116156106e5576106ba81610414565b6001600160a01b0382165f908152600960209081526040808320939093556004546008909152919020555b5f821161072b5760405162461bcd60e51b815260206004820152601460248201527314d51052d25391ce881e995c9bc8185b5bdd5b9d60621b6044820152606401610592565b335f908152600760205260409020548211156107895760405162461bcd60e51b815260206004820152601d60248201527f5354414b494e473a20696e73756666696369656e742062616c616e63650000006044820152606401610592565b8160065f82825461079a91906110bd565b9091555050335f90815260076020526040812080548492906107bd9084906110bd565b909155506107f790506001600160a01b037f0000000000000000000000000000000000000000000000000000000000000000163384610cce565b60405182815233907f7084f5476618d8e60b11ef0d7d3f06914655adb8793e28ff7f018d4c76d505d5906020015b60405180910390a25061084460015f8051602061111a83398151915255565b50565b5f8281526020819052604090206001015461086181610c4f565b61086b8383610d03565b50505050565b6001600160a01b038116331461089a5760405163334bd91960e11b815260040160405180910390fd5b6108a48282610d92565b505050565b5f6108b381610c4f565b610844610dfb565b5f60055442106108cc575060055490565b425b905090565b5f6108dd81610c4f565b610844610e4d565b5f918252602082815260408084206001600160a01b0393909316845291905290205460ff1690565b610915610c8f565b61091d610caa565b33610926610bac565b6004556109316108bb565b6003556001600160a01b038116156109775761094c81610414565b6001600160a01b0382165f908152600960209081526040808320939093556004546008909152919020555b5f82116109bd5760405162461bcd60e51b815260206004820152601460248201527314d51052d25391ce881e995c9bc8185b5bdd5b9d60621b6044820152606401610592565b8160065f8282546109ce9190611106565b9091555050335f90815260076020526040812080548492906109f1908490611106565b90915550610a2c90506001600160a01b037f000000000000000000000000000000000000000000000000000000000000000016333085610c59565b60405182815233907f9e71bc8eea02a63969f509818f2dafb9254532904319f9dbda79b67bd34a5f3d90602001610825565b610a66610c8f565b610a6e610caa565b33610a77610bac565b600455610a826108bb565b6003556001600160a01b03811615610ac857610a9d81610414565b6001600160a01b0382165f908152600960209081526040808320939093556004546008909152919020555b335f9081526009602052604090205480610b195760405162461bcd60e51b815260206004820152601260248201527114d51052d25391ce881b9bc81c995dd85c9960721b6044820152606401610592565b335f81815260096020526040812055610b5d907f00000000000000000000000000000000000000000000000000000000000000006001600160a01b03169083610cce565b60405181815233907fe2403640ba68fed3a2f88b7557551d1993f84b99bb10ff833f0cf8db0c5e04869060200160405180910390a25050610baa60015f8051602061111a83398151915255565b565b5f6006545f03610bbd575060045490565b600654600254600354610bce6108bb565b610bd891906110bd565b610be291906110d0565b610bf490670de0b6b3a76400006110d0565b610bfe91906110e7565b6004546108ce9190611106565b5f82815260208190526040902060010154610c2581610c4f565b61086b8383610d92565b335f90815260076020526040902054610c479061067b565b610baa610a5e565b6108448133610e88565b610c67848484846001610ec5565b61086b57604051635274afe760e01b81526001600160a01b0385166004820152602401610592565b610c97610f32565b60025f8051602061111a83398151915255565b60015460ff1615610baa5760405163d93c066560e01b815260040160405180910390fd5b610cdb8383836001610f61565b6108a457604051635274afe760e01b81526001600160a01b0384166004820152602401610592565b5f610d0e83836108e5565b610d8b575f838152602081815260408083206001600160a01b03861684529091529020805460ff19166001179055610d433390565b6001600160a01b0316826001600160a01b0316847f2f8788117e7eff1d82e926ec794901d17c78024a50270940304540a733656f0d60405160405180910390a4506001610489565b505f610489565b5f610d9d83836108e5565b15610d8b575f838152602081815260408083206001600160a01b0386168085529252808320805460ff1916905551339286917ff6391f5c32d9c69d2a47ea670b442974b53935d1edc7fd64eb21e047a839171b9190a4506001610489565b610e03610fc3565b6001805460ff191690557f5db9ee0a495bf2e6ff9c91a7834c1ba4fdd244a5e8aa4e537bd38aeae4b073aa335b6040516001600160a01b03909116815260200160405180910390a1565b610e55610caa565b6001805460ff1916811790557f62e78cea01bee320cd4e420270b5ea74000d11b0c9f74754ebdbfc544b05a25833610e30565b610e9282826108e5565b610ec15760405163e2517d3f60e01b81526001600160a01b038216600482015260248101839052604401610592565b5050565b6040516323b872dd60e01b5f8181526001600160a01b038781166004528616602452604485905291602083606481808c5af1925060015f51148316610f21578383151615610f15573d5f823e3d81fd5b5f883b113d1516831692505b604052505f60605295945050505050565b5f8051602061111a83398151915254600203610baa57604051633ee5aeb560e01b815260040160405180910390fd5b60405163a9059cbb60e01b5f8181526001600160a01b038616600452602485905291602083604481808b5af1925060015f51148316610fb7578383151615610fab573d5f823e3d81fd5b5f873b113d1516831692505b60405250949350505050565b60015460ff16610baa57604051638dfc202b60e01b815260040160405180910390fd5b80356001600160a01b0381168114610ffc575f80fd5b919050565b5f60208284031215611011575f80fd5b61101a82610fe6565b9392505050565b5f60208284031215611031575f80fd5b81356001600160e01b03198116811461101a575f80fd5b5f8060408385031215611059575f80fd5b50508035926020909101359150565b5f60208284031215611078575f80fd5b5035919050565b5f8060408385031215611090575f80fd5b823591506110a060208401610fe6565b90509250929050565b634e487b7160e01b5f52601160045260245ffd5b81810381811115610489576104896110a9565b8082028115828204841417610489576104896110a9565b5f8261110157634e487b7160e01b5f52601260045260245ffd5b500490565b80820180821115610489576104896110a956fe9b779b17422d0df92223018b32b4d1fa46e071723d6817e2486d003becc55f00a264697066735822122076ef69a3e935004d81ecce2e8b77576883466b7bf8ea6635fd8598e77b04227964736f6c63430008180033",
  "linkReferences": {},
  "deployedLinkReferences": {}
}