{
  "_format": "hh-sol-artifact-1",
  "contractName": "TimeCapsule",
  "sourceName": "contracts/TimeCapsule.sol",
  "abi": [
    {
      "inputs": [
        {
          "internalType": "address",
          "name": "tokenAddress",
          "type": "address"
        },
        {
          "internalType": "address",
          "name": "oracleGatewayAddress",
          "type": "address"
        },
        {
          "internalType": "address",
          "name": "admin",
          "type": "address"
        }
      ],
      "stateMutability": "nonpayable",
      "type": "constructor"
    },
    {
      "inputs": [],
      "name": "AccessControlBadConfirmation",
      "type": "error"
    },
    {
      "inputs": [
        {
          "internalType": "address",
          "name": "account",
          "type": "address"
        },
        {
          "internalType": "bytes32",
          "name": "neededRole",
          "type": "bytes32"
        }
      ],
      "name": "AccessControlUnauthorizedAccount",
      "type": "error"
    },
    {
      "inputs": [],
      "name": "EnforcedPause",
      "type": "error"
    },
    {
      "inputs": [],
      "name": "ExpectedPause",
      "type": "error"
    },
    {
      "inputs": [],
      "name": "ReentrancyGuardReentrantCall",
      "type": "error"
    },
    {
      "inputs": [
        {
          "internalType": "address",
          "name": "token",
          "type": "address"
        }
      ],
      "name": "SafeERC20FailedOperation",
      "type": "error"
    },
    {
      "anonymous": false,
      "inputs": [
        {
          "indexed": true,
          "internalType": "uint256",
          "name": "capsuleId",
          "type": "uint256"
        },
        {
          "indexed": true,
          "internalType": "address",
          "name": "cancelledBy",
          "type": "address"
        }
      ],
      "name": "CapsuleCancelled",
      "type": "event"
    },
    {
      "anonymous": false,
      "inputs": [
        {
          "indexed": true,
          "internalType": "uint256",
          "name": "capsuleId",
          "type": "uint256"
        },
        {
          "indexed": true,
          "internalType": "address",
          "name": "creator",
          "type": "address"
        },
        {
          "indexed": true,
          "internalType": "address",
          "name": "beneficiary",
          "type": "address"
        },
        {
          "indexed": false,
          "internalType": "enum TimeCapsule.TriggerType",
          "name": "triggerType",
          "type": "uint8"
        },
        {
          "indexed": false,
          "internalType": "uint256",
          "name": "sglLocked",
          "type": "uint256"
        },
        {
          "indexed": false,
          "internalType": "string",
          "name": "contentCID",
          "type": "string"
        }
      ],
      "name": "CapsuleCreated",
      "type": "event"
    },
    {
      "anonymous": false,
      "inputs": [
        {
          "indexed": true,
          "internalType": "uint256",
          "name": "capsuleId",
          "type": "uint256"
        },
        {
          "indexed": true,
          "internalType": "address",
          "name": "beneficiary",
          "type": "address"
        },
        {
          "indexed": true,
          "internalType": "address",
          "name": "unlockedBy",
          "type": "address"
        },
        {
          "indexed": false,
          "internalType": "uint256",
          "name": "sglReleased",
          "type": "uint256"
        }
      ],
      "name": "CapsuleUnlocked",
      "type": "event"
    },
    {
      "anonymous": false,
      "inputs": [
        {
          "indexed": true,
          "internalType": "uint256",
          "name": "capsuleId",
          "type": "uint256"
        },
        {
          "indexed": true,
          "internalType": "address",
          "name": "curator",
          "type": "address"
        }
      ],
      "name": "CuratorApprovalGranted",
      "type": "event"
    },
    {
      "anonymous": false,
      "inputs": [
        {
          "indexed": true,
          "internalType": "address",
          "name": "oldGateway",
          "type": "address"
        },
        {
          "indexed": true,
          "internalType": "address",
          "name": "newGateway",
          "type": "address"
        }
      ],
      "name": "OracleGatewayUpdated",
      "type": "event"
    },
    {
      "anonymous": false,
      "inputs": [
        {
          "indexed": false,
          "internalType": "address",
          "name": "account",
          "type": "address"
        }
      ],
      "name": "Paused",
      "type": "event"
    },
    {
      "anonymous": false,
      "inputs": [
        {
          "indexed": true,
          "internalType": "bytes32",
          "name": "role",
          "type": "bytes32"
        },
        {
          "indexed": true,
          "internalType": "bytes32",
          "name": "previousAdminRole",
          "type": "bytes32"
        },
        {
          "indexed": true,
          "internalType": "bytes32",
          "name": "newAdminRole",
          "type": "bytes32"
        }
      ],
      "name": "RoleAdminChanged",
      "type": "event"
    },
    {
      "anonymous": false,
      "inputs": [
        {
          "indexed": true,
          "internalType": "bytes32",
          "name": "role",
          "type": "bytes32"
        },
        {
          "indexed": true,
          "internalType": "address",
          "name": "account",
          "type": "address"
        },
        {
          "indexed": true,
          "internalType": "address",
          "name": "sender",
          "type": "address"
        }
      ],
      "name": "RoleGranted",
      "type": "event"
    },
    {
      "anonymous": false,
      "inputs": [
        {
          "indexed": true,
          "internalType": "bytes32",
          "name": "role",
          "type": "bytes32"
        },
        {
          "indexed": true,
          "internalType": "address",
          "name": "account",
          "type": "address"
        },
        {
          "indexed": true,
          "internalType": "address",
          "name": "sender",
          "type": "address"
        }
      ],
      "name": "RoleRevoked",
      "type": "event"
    },
    {
      "anonymous": false,
      "inputs": [
        {
          "indexed": false,
          "internalType": "address",
          "name": "account",
          "type": "address"
        }
      ],
      "name": "Unpaused",
      "type": "event"
    },
    {
      "inputs": [],
      "name": "CURATOR_ROLE",
      "outputs": [
        {
          "internalType": "bytes32",
          "name": "",
          "type": "bytes32"
        }
      ],
      "stateMutability": "view",
      "type": "function"
    },
    {
      "inputs": [],
      "name": "DEFAULT_ADMIN_ROLE",
      "outputs": [
        {
          "internalType": "bytes32",
          "name": "",
          "type": "bytes32"
        }
      ],
      "stateMutability": "view",
      "type": "function"
    },
    {
      "inputs": [],
      "name": "EXECUTOR_ROLE",
      "outputs": [
        {
          "internalType": "bytes32",
          "name": "",
          "type": "bytes32"
        }
      ],
      "stateMutability": "view",
      "type": "function"
    },
    {
      "inputs": [
        {
          "internalType": "uint256",
          "name": "capsuleId",
          "type": "uint256"
        }
      ],
      "name": "approveByCurator",
      "outputs": [],
      "stateMutability": "nonpayable",
      "type": "function"
    },
    {
      "inputs": [
        {
          "internalType": "uint256",
          "name": "capsuleId",
          "type": "uint256"
        }
      ],
      "name": "cancelCapsule",
      "outputs": [],
      "stateMutability": "nonpayable",
      "type": "function"
    },
    {
      "inputs": [],
      "name": "capsuleCount",
      "outputs": [
        {
          "internalType": "uint256",
          "name": "",
          "type": "uint256"
        }
      ],
      "stateMutability": "view",
      "type": "function"
    },
    {
      "inputs": [
        {
          "internalType": "uint256",
          "name": "",
          "type": "uint256"
        }
      ],
      "name": "capsules",
      "outputs": [
        {
          "internalType": "address",
          "name": "creator",
          "type": "address"
        },
        {
          "internalType": "address",
          "name": "beneficiary",
          "type": "address"
        },
        {
          "internalType": "string",
          "name": "contentCID",
          "type": "string"
        },
        {
          "internalType": "enum TimeCapsule.TriggerType",
          "name": "triggerType",
          "type": "uint8"
        },
        {
          "internalType": "uint64",
          "name": "unlockTime",
          "type": "uint64"
        },
        {
          "internalType": "bytes32",
          "name": "oracleSubjectId",
          "type": "bytes32"
        },
        {
          "internalType": "uint8",
          "name": "oracleEventType",
          "type": "uint8"
        },
        {
          "internalType": "address",
          "name": "curator",
          "type": "address"
        },
        {
          "internalType": "uint256",
          "name": "sglLocked",
          "type": "uint256"
        },
        {
          "internalType": "bytes32",
          "name": "metadataHash",
          "type": "bytes32"
        },
        {
          "internalType": "uint64",
          "name": "createdAt",
          "type": "uint64"
        },
        {
          "internalType": "uint64",
          "name": "unlockedAt",
          "type": "uint64"
        },
        {
          "internalType": "enum TimeCapsule.CapsuleStatus",
          "name": "status",
          "type": "uint8"
        }
      ],
      "stateMutability": "view",
      "type": "function"
    },
    {
      "inputs": [
        {
          "internalType": "address",
          "name": "beneficiary",
          "type": "address"
        },
        {
          "internalType": "string",
          "name": "contentCID",
          "type": "string"
        },
        {
          "internalType": "enum TimeCapsule.TriggerType",
          "name": "triggerType",
          "type": "uint8"
        },
        {
          "internalType": "uint64",
          "name": "unlockTime",
          "type": "uint64"
        },
        {
          "internalType": "bytes32",
          "name": "oracleSubjectId",
          "type": "bytes32"
        },
        {
          "internalType": "uint8",
          "name": "oracleEventType",
          "type": "uint8"
        },
        {
          "internalType": "address",
          "name": "curator",
          "type": "address"
        },
        {
          "internalType": "uint256",
          "name": "sglAmount",
          "type": "uint256"
        },
        {
          "internalType": "bytes32",
          "name": "metadataHash",
          "type": "bytes32"
        }
      ],
      "name": "createCapsule",
      "outputs": [
        {
          "internalType": "uint256",
          "name": "capsuleId",
          "type": "uint256"
        }
      ],
      "stateMutability": "nonpayable",
      "type": "function"
    },
    {
      "inputs": [
        {
          "internalType": "uint256",
          "name": "",
          "type": "uint256"
        }
      ],
      "name": "curatorApproved",
      "outputs": [
        {
          "internalType": "bool",
          "name": "",
          "type": "bool"
        }
      ],
      "stateMutability": "view",
      "type": "function"
    },
    {
      "inputs": [
        {
          "internalType": "uint256",
          "name": "capsuleId",
          "type": "uint256"
        }
      ],
      "name": "executeApprovedCapsule",
      "outputs": [],
      "stateMutability": "nonpayable",
      "type": "function"
    },
    {
      "inputs": [
        {
          "internalType": "uint256",
          "name": "capsuleId",
          "type": "uint256"
        }
      ],
      "name": "getCapsuleStatus",
      "outputs": [
        {
          "internalType": "enum TimeCapsule.CapsuleStatus",
          "name": "",
          "type": "uint8"
        }
      ],
      "stateMutability": "view",
      "type": "function"
    },
    {
      "inputs": [
        {
          "internalType": "bytes32",
          "name": "role",
          "type": "bytes32"
        }
      ],
      "name": "getRoleAdmin",
      "outputs": [
        {
          "internalType": "bytes32",
          "name": "",
          "type": "bytes32"
        }
      ],
      "stateMutability": "view",
      "type": "function"
    },
    {
      "inputs": [
        {
          "internalType": "bytes32",
          "name": "role",
          "type": "bytes32"
        },
        {
          "internalType": "address",
          "name": "account",
          "type": "address"
        }
      ],
      "name": "grantRole",
      "outputs": [],
      "stateMutability": "nonpayable",
      "type": "function"
    },
    {
      "inputs": [
        {
          "internalType": "bytes32",
          "name": "role",
          "type": "bytes32"
        },
        {
          "internalType": "address",
          "name": "account",
          "type": "address"
        }
      ],
      "name": "hasRole",
      "outputs": [
        {
          "internalType": "bool",
          "name": "",
          "type": "bool"
        }
      ],
      "stateMutability": "view",
      "type": "function"
    },
    {
      "inputs": [],
      "name": "oracleGateway",
      "outputs": [
        {
          "internalType": "address",
          "name": "",
          "type": "address"
        }
      ],
      "stateMutability": "view",
      "type": "function"
    },
    {
      "inputs": [],
      "name": "pause",
      "outputs": [],
      "stateMutability": "nonpayable",
      "type": "function"
    },
    {
      "inputs": [],
      "name": "paused",
      "outputs": [
        {
          "internalType": "bool",
          "name": "",
          "type": "bool"
        }
      ],
      "stateMutability": "view",
      "type": "function"
    },
    {
      "inputs": [
        {
          "internalType": "bytes32",
          "name": "role",
          "type": "bytes32"
        },
        {
          "internalType": "address",
          "name": "callerConfirmation",
          "type": "address"
        }
      ],
      "name": "renounceRole",
      "outputs": [],
      "stateMutability": "nonpayable",
      "type": "function"
    },
    {
      "inputs": [
        {
          "internalType": "bytes32",
          "name": "role",
          "type": "bytes32"
        },
        {
          "internalType": "address",
          "name": "account",
          "type": "address"
        }
      ],
      "name": "revokeRole",
      "outputs": [],
      "stateMutability": "nonpayable",
      "type": "function"
    },
    {
      "inputs": [
        {
          "internalType": "address",
          "name": "newGateway",
          "type": "address"
        }
      ],
      "name": "setOracleGateway",
      "outputs": [],
      "stateMutability": "nonpayable",
      "type": "function"
    },
    {
      "inputs": [],
      "name": "sglToken",
      "outputs": [
        {
          "internalType": "contract IERC20",
          "name": "",
          "type": "address"
        }
      ],
      "stateMutability": "view",
      "type": "function"
    },
    {
      "inputs": [
        {
          "internalType": "bytes4",
          "name": "interfaceId",
          "type": "bytes4"
        }
      ],
      "name": "supportsInterface",
      "outputs": [
        {
          "internalType": "bool",
          "name": "",
          "type": "bool"
        }
      ],
      "stateMutability": "view",
      "type": "function"
    },
    {
      "inputs": [
        {
          "internalType": "uint256",
          "name": "capsuleId",
          "type": "uint256"
        }
      ],
      "name": "unlockByOracle",
      "outputs": [],
      "stateMutability": "nonpayable",
      "type": "function"
    },
    {
      "inputs": [
        {
          "internalType": "uint256",
          "name": "capsuleId",
          "type": "uint256"
        }
      ],
      "name": "unlockByTime",
      "outputs": [],
      "stateMutability": "nonpayable",
      "type": "function"
    },
    {
      "inputs": [],
      "name": "unpause",
      "outputs": [],
      "stateMutability": "nonpayable",
      "type": "function"
    }
  ],
  "bytecode": "0x60a0346200019c57601f62001d0b38819003918201601f19168301916001600160401b03831184841017620001a0578084926060946040528339810103126200019c576200004d81620001b4565b6200006960406200006160208501620001b4565b9301620001b4565b60017f9b779b17422d0df92223018b32b4d1fa46e071723d6817e2486d003becc55f00556001600160a01b039182169290919083156200015757818316156200011257620000e3936080521660018060a01b03196003541617600355620000d081620001c9565b50620000dc8162000239565b50620002d9565b50604051611957908162000374823960805181818161077901528181610bce01528181611028015261185a0152f35b60405162461bcd60e51b815260206004820152601660248201527f43415053554c453a20696e76616c69642061646d696e000000000000000000006044820152606490fd5b60405162461bcd60e51b815260206004820152601660248201527f43415053554c453a20696e76616c696420746f6b656e000000000000000000006044820152606490fd5b5f80fd5b634e487b7160e01b5f52604160045260245ffd5b51906001600160a01b03821682036200019c57565b6001600160a01b03165f8181525f8051602062001ceb833981519152602052604090205460ff1662000234575f8181525f8051602062001ceb83398151915260205260408120805460ff191660011790553391905f8051602062001ccb8339815191528180a4600190565b505f90565b6001600160a01b03165f8181527ff484c8d36633aa70eae8ee4883885db3af58778e0f4e89a6e23f032f4a70897160205260409020547f850d585eb7f024ccee5e68e55f2c26cc72e1e6ee456acf62135757a5eb9d4a10919060ff16620002d357815f525f60205260405f20815f5260205260405f20600160ff1982541617905533915f8051602062001ccb8339815191525f80a4600190565b50505f90565b6001600160a01b03165f8181527fdae2aa361dfd1ca020a396615627d436107c35eff9fe7738a3512819782d706960205260409020547fd8aa0f3194971a2a116679f7c2090f6939c8d4e01a2a8d7e41d55e5351469e63919060ff16620002d357815f525f60205260405f20815f5260205260405f20600160ff1982541617905533915f8051602062001ccb8339815191525f80a460019056fe6080806040526004361015610012575f80fd5b5f3560e01c90816301ffc9a7146114975750806305dc03941461147a57806307bd0265146114405780631e2ed410146113d7578063248a9ca3146113ab5780632c612bd8146113715780632f2ff15d1461133557806336568abe146112ee5780633f4ba83a146112855780634a2cfb541461124b578063517bbf46146110795780635c975abb1461105757806362b24ea2146110135780636db98b2c14610ee85780638456cb5914610e9057806391d1485414610e48578063a0f1e0e714610e19578063a217fddf14610dff578063b1dcb92514610c5d578063c1810f6614610c35578063c446bac114610b0d578063d547741f14610acf578063dc58529d14610331578063df3e0cca1461023c5763fee71b5e1461012f575f80fd5b3461023857602036600319011261023857600435805f52600460205260405f2060ff600882015460801c1660038110156102245761016d9015611589565b60ff600382015416600481101561022457600261018a91146115cb565b6005015460081c6001600160a01b031633036101df57805f52600560205260405f20600160ff1982541617905533907f54482672d58ae1b8ba1f10678bbb1ea74798117a6222a5dcfddb3bcdea6f59d15f80a3005b60405162461bcd60e51b815260206004820152601860248201527f43415053554c453a206e6f74207468652063757261746f7200000000000000006044820152606490fd5b634e487b7160e01b5f52602160045260245ffd5b5f80fd5b346102385760203660031901126102385760043561025861177c565b61026061179a565b805f52600460205260405f2060ff600882015460801c1660038110156102245761028a9015611589565b600381015460ff8116600481101561022457806102b09115908115610326575b506115cb565b6001600160401b03809160081c16904216106102e2576102cf916117c9565b60015f8051602061190283398151915255005b606460405162461bcd60e51b815260206004820152602060248201527f43415053554c453a20756e6c6f636b2074696d65206e6f7420726561636865646044820152fd5b6003915014856102aa565b34610238576101203660031901126102385761034b6114ea565b602435906001600160401b0382116102385736602383011215610238576001600160401b0382600401351161023857366024836004013584010111610238576004604435101561023857606435906001600160401b03821682036102385760a43560ff811681036102385760c4356001600160a01b0381168103610238576103d161177c565b6103d961179a565b6001600160a01b03831615610a8a57846004013515610a50576101043515610a0b57604435156109ad575b600160443514610961575b60026044351461090e575b600254935f1985146108fa576001850160025560405192836101a08101106001600160401b036101a0860111176108e6576001600160401b0360ff926101a0860160405233865260018060a01b038716602087015260405161048a6020601f19601f8d600401350116018261155b565b60048a013580825260248b0160208301375f60208b60040135830101526040870152604435606087015216608085015260843560a08501521660c083015260018060a01b031660e082015260e435610100820152610104356101208201526001600160401b0342166101408201525f6101608201525f610180820152825f52600460205260405f209060018060a01b038151166bffffffffffffffffffffffff60a01b9081845416178355600183019060018060a01b036020840151169082541617905560408101518051906001600160401b0382116108e65781906105736002860154611523565b601f8111610896575b50602090601f8311600114610828575f9261081d575b50508160011b915f199060031b1c19161760028301555b60608101519060048210156102245761018091600384015460ff68ffffffffffffffff00608085015160081b1692169068ffffffffffffffffff19161717600384015560a081015160048401556005830160ff60c083015116815490610100600160a81b0360e085015160081b16916affffffffffffffffffffff60a81b1617179055610100810151600684015561012081015160078401556001600160401b03610140820151166001600160401b03196008850154161760088401556106a46001600160401b0361016083015116600885019067ffffffffffffffff60401b82549160401b169067ffffffffffffffff60401b1916179055565b0151600381101561022457600891909101805460ff60801b191660809290921b60ff60801b1691909117905560e435610777575b602092827f5ecda452a46d099b7501bf13bff76f7ae8dfe26d288fe25e37ff1604ebd580416040519361070d8560443561157c565b60e43587860152606060408601528360040135606086015283600401356024850160808701375f608085600401358701015260018060a01b0316936080813395601f8019916004013501168101030190a460015f8051602061190283398151915255604051908152f35b7f0000000000000000000000000000000000000000000000000000000000000000926040516323b872dd60e01b5f52336004523060245260e43560445260205f60648180895af160015f51148116156107fe575b816040525f606052156107e0575092506106d8565b635274afe760e01b81526001600160a01b0385166004820152602490fd5b600181151661081457853b15153d1516166107cb565b503d5f823e3d90fd5b015190508780610592565b9250600285015f5260205f20905f935b601f198416851061087b576001945083601f19811610610863575b505050811b0160028301556105a9565b01515f1960f88460031b161c19169055878080610853565b81810151835560209485019460019093019290910190610838565b909150600285015f5260205f20601f840160051c8101602085106108df575b90849392915b601f830160051c820181106108d157505061057c565b5f81558594506001016108bb565b50806108b5565b634e487b7160e01b5f52604160045260245ffd5b634e487b7160e01b5f52601160045260245ffd5b6001600160a01b03811661041a5760405162461bcd60e51b815260206004820152601860248201527f43415053554c453a20696e76616c69642063757261746f7200000000000000006044820152606490fd5b60843561040f5760405162461bcd60e51b815260206004820152601f60248201527f43415053554c453a20696e76616c6964206f7261636c65207375626a656374006044820152606490fd5b6001600160401b0342166001600160401b038516116104045760405162461bcd60e51b815260206004820152601c60248201527f43415053554c453a20756e6c6f636b2074696d6520696e2070617374000000006044820152606490fd5b60405162461bcd60e51b815260206004820152601e60248201527f43415053554c453a20696e76616c6964206d65746164617461206861736800006044820152606490fd5b60405162461bcd60e51b815260206004820152601260248201527110d05414d553114e88195b5c1d1e4810d25160721b6044820152606490fd5b60405162461bcd60e51b815260206004820152601c60248201527f43415053554c453a20696e76616c69642062656e6566696369617279000000006044820152606490fd5b3461023857604036600319011261023857610b0b600435610aee611500565b90805f525f602052610b06600160405f20015461166d565b61170a565b005b3461023857602036600319011261023857600435610b2961177c565b610b3161179a565b805f52600460205260405f20600881019081549060ff8260801c16600381101561022457610b5f9015611589565b80546001600160a01b03169233849003610bf95760ff60801b19909216600160811b179091556006015480610bc8575b33837fa1d1e86fc4683d85919ca0e086901a54ba5df5917501641bf9921412a9c3c25c5f80a360015f8051602061190283398151915255005b610bf2917f0000000000000000000000000000000000000000000000000000000000000000611883565b8180610b8f565b60405162461bcd60e51b815260206004820152601460248201527321a0a829aaa6229d103737ba1031b932b0ba37b960611b6044820152606490fd5b34610238575f366003190112610238576003546040516001600160a01b039091168152602090f35b346102385760208060031936011261023857600435610c7a61177c565b610c8261179a565b805f526004825260405f209060ff600883015460801c16600381101561022457610cac9015611589565b60ff6003830154166004811015610224576001610cc991146115cb565b6003546001600160a01b03168015610dba57836004840154604460ff600587015416916040519485938492635da377e360e01b8452600484015260248301525afa908115610daf575f91610d79575b5015610d28576102cf92506117c9565b60405162461bcd60e51b815260048101849052602360248201527f43415053554c453a206f7261636c65206576656e74206e6f7420636f6e6669726044820152621b595960ea1b6064820152608490fd5b90508381813d8311610da8575b610d90818361155b565b81010312610238575180151581036102385784610d18565b503d610d86565b6040513d5f823e3d90fd5b60405162461bcd60e51b815260048101859052601e60248201527f43415053554c453a206f7261636c65206e6f7420636f6e6669677572656400006044820152606490fd5b34610238575f3660031901126102385760206040515f8152f35b34610238576020366003190112610238576004355f526005602052602060ff60405f2054166040519015158152f35b3461023857604036600319011261023857610e61611500565b6004355f525f60205260405f209060018060a01b03165f52602052602060ff60405f2054166040519015158152f35b34610238575f36600319011261023857610ea8611617565b610eb061177c565b600160ff19815416176001557f62e78cea01bee320cd4e420270b5ea74000d11b0c9f74754ebdbfc544b05a2586020604051338152a1005b346102385760208060031936011261023857600435610f0561177c565b610f0d61179a565b7fd8aa0f3194971a2a116679f7c2090f6939c8d4e01a2a8d7e41d55e5351469e63805f525f835260405f20335f52835260ff60405f20541615610ff55750805f526004825260405f209060ff600883015460801c16600381101561022457610f759015611589565b60ff6003830154166004811015610224576002610f9291146115cb565b805f526005835260ff60405f20541615610fb0576102cf92506117c9565b60405162461bcd60e51b815260048101849052601d60248201527f43415053554c453a2063757261746f72206e6f7420617070726f7665640000006044820152606490fd5b6044906040519063e2517d3f60e01b82523360048301526024820152fd5b34610238575f366003190112610238576040517f00000000000000000000000000000000000000000000000000000000000000006001600160a01b03168152602090f35b34610238575f36600319011261023857602060ff600154166040519015158152f35b3461023857602080600319360112610238576004355f526004815260405f2060018060a01b0390818154169160019181600182015416946002820160405180955f908354936110c785611523565b94858552866001821691825f146112295750506001146111ed575b50506110f892509794929796939596038661155b565b6003840154936001600160401b039060048101549260058201549060068301549160086007850154940154956040519b8c996101a0998b52818b01528860408b01528b519b8c809a8c01525f5b8a81106111d05750505085899a5f6111c29a9b6101c09e8f9101015261117160608d0160ff831661157c565b60081c1660808b015260a08a015260ff811660c08a015260081c1660e08801526101008701526101208601528082166101408601528160401c1661016085015260ff61018085019160801c16611516565b601f01601f19168101030190f35b8181018301519b81016101c0019b909b528d9a8d9a508201611145565b8592505f52815f20905f915b8583106112115750506110f8935082010189806110e2565b8054838b0185015289945086939092019181016111f9565b92509350506110f894915060ff191682840152151560051b82010189806110e2565b34610238575f3660031901126102385760206040517f850d585eb7f024ccee5e68e55f2c26cc72e1e6ee456acf62135757a5eb9d4a108152f35b34610238575f3660031901126102385761129d611617565b60015460ff8116156112dc5760ff19166001557f5db9ee0a495bf2e6ff9c91a7834c1ba4fdd244a5e8aa4e537bd38aeae4b073aa6020604051338152a1005b604051638dfc202b60e01b8152600490fd5b3461023857604036600319011261023857611307611500565b336001600160a01b0382160361132357610b0b9060043561170a565b60405163334bd91960e11b8152600490fd5b3461023857604036600319011261023857610b0b600435611354611500565b90805f525f60205261136c600160405f20015461166d565b61168e565b34610238576020366003190112610238576004355f526004602052602060ff600860405f20015460801c166113a96040518092611516565bf35b34610238576020366003190112610238576004355f525f6020526020600160405f200154604051908152f35b34610238576020366003190112610238576113f06114ea565b6113f8611617565b600380546001600160a01b039283166001600160a01b0319821681179092559091167fa2c25ca373c727be01ce62a4879a7cda215dfc392279e1e456cd6afb873317a75f80a3005b34610238575f3660031901126102385760206040517fd8aa0f3194971a2a116679f7c2090f6939c8d4e01a2a8d7e41d55e5351469e638152f35b34610238575f366003190112610238576020600254604051908152f35b34610238576020366003190112610238576004359063ffffffff60e01b821680920361023857602091637965db0b60e01b81149081156114d9575b5015158152f35b6301ffc9a760e01b149050836114d2565b600435906001600160a01b038216820361023857565b602435906001600160a01b038216820361023857565b9060038210156102245752565b90600182811c92168015611551575b602083101461153d57565b634e487b7160e01b5f52602260045260245ffd5b91607f1691611532565b90601f801991011681019081106001600160401b038211176108e657604052565b9060048210156102245752565b1561159057565b60405162461bcd60e51b815260206004820152601360248201527243415053554c453a206e6f742061637469766560681b6044820152606490fd5b156115d257565b60405162461bcd60e51b815260206004820152601b60248201527f43415053554c453a2077726f6e672074726967676572207479706500000000006044820152606490fd5b335f9081527fad3228b676f7d3cd4284a5443f17f1962b36e491b30a40b2405849e597ba5fb5602052604090205460ff161561164f57565b60405163e2517d3f60e01b81523360048201525f6024820152604490fd5b805f525f60205260405f20335f5260205260ff60405f20541615610ff55750565b90815f525f60205260405f209060018060a01b031690815f5260205260ff60405f205416155f1461170457815f525f60205260405f20815f5260205260405f20600160ff1982541617905533917f2f8788117e7eff1d82e926ec794901d17c78024a50270940304540a733656f0d5f80a4600190565b50505f90565b90815f525f60205260405f209060018060a01b031690815f5260205260ff60405f2054165f1461170457815f525f60205260405f20815f5260205260405f2060ff19815416905533917ff6391f5c32d9c69d2a47ea670b442974b53935d1edc7fd64eb21e047a839171b5f80a4600190565b60ff6001541661178857565b60405163d93c066560e01b8152600490fd5b5f8051602061190283398151915260028154146117b75760029055565b604051633ee5aeb560e01b8152600490fd5b60088201805470ffffffffffffffffff000000000000000019164260401b67ffffffffffffffff60401b1617600160801b17905560068201549182611844575b6001808060a01b0391015416906040519283527f85c8e2dbab3d3504c22d17f22231aa1b72eb575ea063d2d70416ac23c728987d60203394a4565b600181015461187e9084906001600160a01b03167f0000000000000000000000000000000000000000000000000000000000000000611883565b611809565b60405163a9059cbb60e01b5f9081526001600160a01b039384166004526024949094529260209060448180855af160015f51148116156118e2575b83604052156118cc57505050565b635274afe760e01b835216600482015260249150fd5b60018115166118f857813b15153d1516166118be565b833d5f823e3d90fdfe9b779b17422d0df92223018b32b4d1fa46e071723d6817e2486d003becc55f00a264697066735822122000cd281844dd0477b926396a1aa40d60fa936435ba458cc66e2fa35ef3c4a40664736f6c634300081800332f8788117e7eff1d82e926ec794901d17c78024a50270940304540a733656f0dad3228b676f7d3cd4284a5443f17f1962b36e491b30a40b2405849e597ba5fb5",
  "linkReferences": {},
  "deployedLinkReferences": {}
}