{
  "_format": "hh-sol-artifact-1",
  "contractName": "OracleGateway",
  "sourceName": "contracts/OracleGateway.sol",
  "abi": [
    {
      "inputs": [
        {
          "internalType": "address",
          "name": "admin",
          "type": "address"
        }
      ],
      "stateMutability": "nonpayable",
      "type": "constructor"
    },
    {
      "inputs": [],
      "name": "AccessControlBadConfirmation",
      "type": "error"
    },
    {
      "inputs": [
        {
          "internalType": "address",
          "name": "account",
          "type": "address"
        },
        {
          "internalType": "bytes32",
          "name": "neededRole",
          "type": "bytes32"
        }
      ],
      "name": "AccessControlUnauthorizedAccount",
      "type": "error"
    },
    {
      "inputs": [],
      "name": "EnforcedPause",
      "type": "error"
    },
    {
      "inputs": [],
      "name": "ExpectedPause",
      "type": "error"
    },
    {
      "anonymous": false,
      "inputs": [
        {
          "indexed": true,
          "internalType": "uint256",
          "name": "eventId",
          "type": "uint256"
        },
        {
          "indexed": true,
          "internalType": "address",
          "name": "operator",
          "type": "address"
        },
        {
          "indexed": false,
          "internalType": "string",
          "name": "reason",
          "type": "string"
        }
      ],
      "name": "EventInvalidated",
      "type": "event"
    },
    {
      "anonymous": false,
      "inputs": [
        {
          "indexed": true,
          "internalType": "uint256",
          "name": "eventId",
          "type": "uint256"
        },
        {
          "indexed": true,
          "internalType": "enum OracleGateway.EventType",
          "name": "eventType",
          "type": "uint8"
        },
        {
          "indexed": true,
          "internalType": "bytes32",
          "name": "subjectId",
          "type": "bytes32"
        },
        {
          "indexed": false,
          "internalType": "bytes32",
          "name": "dataHash",
          "type": "bytes32"
        },
        {
          "indexed": false,
          "internalType": "address",
          "name": "operator",
          "type": "address"
        },
        {
          "indexed": false,
          "internalType": "string",
          "name": "institutionCode",
          "type": "string"
        }
      ],
      "name": "OfficialEventRecorded",
      "type": "event"
    },
    {
      "anonymous": false,
      "inputs": [
        {
          "indexed": false,
          "internalType": "address",
          "name": "account",
          "type": "address"
        }
      ],
      "name": "Paused",
      "type": "event"
    },
    {
      "anonymous": false,
      "inputs": [
        {
          "indexed": true,
          "internalType": "bytes32",
          "name": "role",
          "type": "bytes32"
        },
        {
          "indexed": true,
          "internalType": "bytes32",
          "name": "previousAdminRole",
          "type": "bytes32"
        },
        {
          "indexed": true,
          "internalType": "bytes32",
          "name": "newAdminRole",
          "type": "bytes32"
        }
      ],
      "name": "RoleAdminChanged",
      "type": "event"
    },
    {
      "anonymous": false,
      "inputs": [
        {
          "indexed": true,
          "internalType": "bytes32",
          "name": "role",
          "type": "bytes32"
        },
        {
          "indexed": true,
          "internalType": "address",
          "name": "account",
          "type": "address"
        },
        {
          "indexed": true,
          "internalType": "address",
          "name": "sender",
          "type": "address"
        }
      ],
      "name": "RoleGranted",
      "type": "event"
    },
    {
      "anonymous": false,
      "inputs": [
        {
          "indexed": true,
          "internalType": "bytes32",
          "name": "role",
          "type": "bytes32"
        },
        {
          "indexed": true,
          "internalType": "address",
          "name": "account",
          "type": "address"
        },
        {
          "indexed": true,
          "internalType": "address",
          "name": "sender",
          "type": "address"
        }
      ],
      "name": "RoleRevoked",
      "type": "event"
    },
    {
      "anonymous": false,
      "inputs": [
        {
          "indexed": false,
          "internalType": "address",
          "name": "account",
          "type": "address"
        }
      ],
      "name": "Unpaused",
      "type": "event"
    },
    {
      "anonymous": false,
      "inputs": [
        {
          "indexed": true,
          "internalType": "address",
          "name": "oldRegistry",
          "type": "address"
        },
        {
          "indexed": true,
          "internalType": "address",
          "name": "newRegistry",
          "type": "address"
        }
      ],
      "name": "WhiteLabelRegistryUpdated",
      "type": "event"
    },
    {
      "inputs": [],
      "name": "DEFAULT_ADMIN_ROLE",
      "outputs": [
        {
          "internalType": "bytes32",
          "name": "",
          "type": "bytes32"
        }
      ],
      "stateMutability": "view",
      "type": "function"
    },
    {
      "inputs": [],
      "name": "ORACLE_OPERATOR_ROLE",
      "outputs": [
        {
          "internalType": "bytes32",
          "name": "",
          "type": "bytes32"
        }
      ],
      "stateMutability": "view",
      "type": "function"
    },
    {
      "inputs": [],
      "name": "RELAYER_ROLE",
      "outputs": [
        {
          "internalType": "bytes32",
          "name": "",
          "type": "bytes32"
        }
      ],
      "stateMutability": "view",
      "type": "function"
    },
    {
      "inputs": [],
      "name": "eventCount",
      "outputs": [
        {
          "internalType": "uint256",
          "name": "",
          "type": "uint256"
        }
      ],
      "stateMutability": "view",
      "type": "function"
    },
    {
      "inputs": [
        {
          "internalType": "uint256",
          "name": "",
          "type": "uint256"
        }
      ],
      "name": "events",
      "outputs": [
        {
          "internalType": "enum OracleGateway.EventType",
          "name": "eventType",
          "type": "uint8"
        },
        {
          "internalType": "bytes32",
          "name": "subjectId",
          "type": "bytes32"
        },
        {
          "internalType": "bytes32",
          "name": "dataHash",
          "type": "bytes32"
        },
        {
          "internalType": "bytes32",
          "name": "signatureHash",
          "type": "bytes32"
        },
        {
          "internalType": "uint64",
          "name": "recordedAt",
          "type": "uint64"
        },
        {
          "internalType": "address",
          "name": "operator",
          "type": "address"
        },
        {
          "internalType": "bool",
          "name": "isValid",
          "type": "bool"
        },
        {
          "internalType": "string",
          "name": "institutionCode",
          "type": "string"
        }
      ],
      "stateMutability": "view",
      "type": "function"
    },
    {
      "inputs": [
        {
          "internalType": "bytes32",
          "name": "role",
          "type": "bytes32"
        }
      ],
      "name": "getRoleAdmin",
      "outputs": [
        {
          "internalType": "bytes32",
          "name": "",
          "type": "bytes32"
        }
      ],
      "stateMutability": "view",
      "type": "function"
    },
    {
      "inputs": [
        {
          "internalType": "bytes32",
          "name": "subjectId",
          "type": "bytes32"
        }
      ],
      "name": "getSubjectEvents",
      "outputs": [
        {
          "internalType": "uint256[]",
          "name": "",
          "type": "uint256[]"
        }
      ],
      "stateMutability": "view",
      "type": "function"
    },
    {
      "inputs": [
        {
          "internalType": "bytes32",
          "name": "role",
          "type": "bytes32"
        },
        {
          "internalType": "address",
          "name": "account",
          "type": "address"
        }
      ],
      "name": "grantRole",
      "outputs": [],
      "stateMutability": "nonpayable",
      "type": "function"
    },
    {
      "inputs": [
        {
          "internalType": "bytes32",
          "name": "role",
          "type": "bytes32"
        },
        {
          "internalType": "address",
          "name": "account",
          "type": "address"
        }
      ],
      "name": "hasRole",
      "outputs": [
        {
          "internalType": "bool",
          "name": "",
          "type": "bool"
        }
      ],
      "stateMutability": "view",
      "type": "function"
    },
    {
      "inputs": [
        {
          "internalType": "bytes32",
          "name": "subjectId",
          "type": "bytes32"
        },
        {
          "internalType": "enum OracleGateway.EventType",
          "name": "eventType",
          "type": "uint8"
        }
      ],
      "name": "hasValidEvent",
      "outputs": [
        {
          "internalType": "bool",
          "name": "",
          "type": "bool"
        }
      ],
      "stateMutability": "view",
      "type": "function"
    },
    {
      "inputs": [
        {
          "internalType": "uint256",
          "name": "eventId",
          "type": "uint256"
        },
        {
          "internalType": "string",
          "name": "reason",
          "type": "string"
        }
      ],
      "name": "invalidateEvent",
      "outputs": [],
      "stateMutability": "nonpayable",
      "type": "function"
    },
    {
      "inputs": [],
      "name": "pause",
      "outputs": [],
      "stateMutability": "nonpayable",
      "type": "function"
    },
    {
      "inputs": [],
      "name": "paused",
      "outputs": [
        {
          "internalType": "bool",
          "name": "",
          "type": "bool"
        }
      ],
      "stateMutability": "view",
      "type": "function"
    },
    {
      "inputs": [
        {
          "internalType": "enum OracleGateway.EventType",
          "name": "eventType",
          "type": "uint8"
        },
        {
          "internalType": "bytes32",
          "name": "subjectId",
          "type": "bytes32"
        },
        {
          "internalType": "bytes32",
          "name": "dataHash",
          "type": "bytes32"
        },
        {
          "internalType": "bytes32",
          "name": "signatureHash",
          "type": "bytes32"
        },
        {
          "internalType": "string",
          "name": "institutionCode",
          "type": "string"
        }
      ],
      "name": "recordEvent",
      "outputs": [
        {
          "internalType": "uint256",
          "name": "eventId",
          "type": "uint256"
        }
      ],
      "stateMutability": "nonpayable",
      "type": "function"
    },
    {
      "inputs": [
        {
          "internalType": "bytes32",
          "name": "role",
          "type": "bytes32"
        },
        {
          "internalType": "address",
          "name": "callerConfirmation",
          "type": "address"
        }
      ],
      "name": "renounceRole",
      "outputs": [],
      "stateMutability": "nonpayable",
      "type": "function"
    },
    {
      "inputs": [
        {
          "internalType": "bytes32",
          "name": "role",
          "type": "bytes32"
        },
        {
          "internalType": "address",
          "name": "account",
          "type": "address"
        }
      ],
      "name": "revokeRole",
      "outputs": [],
      "stateMutability": "nonpayable",
      "type": "function"
    },
    {
      "inputs": [
        {
          "internalType": "address",
          "name": "newRegistry",
          "type": "address"
        }
      ],
      "name": "setWhiteLabelRegistry",
      "outputs": [],
      "stateMutability": "nonpayable",
      "type": "function"
    },
    {
      "inputs": [
        {
          "internalType": "bytes4",
          "name": "interfaceId",
          "type": "bytes4"
        }
      ],
      "name": "supportsInterface",
      "outputs": [
        {
          "internalType": "bool",
          "name": "",
          "type": "bool"
        }
      ],
      "stateMutability": "view",
      "type": "function"
    },
    {
      "inputs": [],
      "name": "unpause",
      "outputs": [],
      "stateMutability": "nonpayable",
      "type": "function"
    },
    {
      "inputs": [],
      "name": "whiteLabelRegistry",
      "outputs": [
        {
          "internalType": "address",
          "name": "",
          "type": "address"
        }
      ],
      "stateMutability": "view",
      "type": "function"
    }
  ],
  "bytecode": "0x608060405234801562000010575f80fd5b506040516200156a3803806200156a8339810160408190526200003391620001a8565b6001600160a01b0381166200008e5760405162461bcd60e51b815260206004820152601560248201527f4f5241434c453a20696e76616c69642061646d696e0000000000000000000000604482015260640160405180910390fd5b6200009a5f82620000fc565b50620000c77ff9b712ed3cd0e90cdc9d1abac8fb677bf018af115fb294c768a96b48bd6922c582620000fc565b50620000f47fe2b7fb3b832174769106daebcfd6d1970523240dda11281102db9363b83b0dc482620000fc565b5050620001d7565b5f828152602081815260408083206001600160a01b038516845290915281205460ff166200019f575f838152602081815260408083206001600160a01b03861684529091529020805460ff19166001179055620001563390565b6001600160a01b0316826001600160a01b0316847f2f8788117e7eff1d82e926ec794901d17c78024a50270940304540a733656f0d60405160405180910390a4506001620001a2565b505f5b92915050565b5f60208284031215620001b9575f80fd5b81516001600160a01b0381168114620001d0575f80fd5b9392505050565b61138580620001e55f395ff3fe608060405234801561000f575f80fd5b5060043610610127575f3560e01c806371be2e4a116100a9578063aca057f21161006e578063aca057f214610284578063c7d88c64146102a4578063d547741f146102cf578063e18b09b2146102e2578063e444f2e0146102f5575f80fd5b806371be2e4a146102325780638456cb591461023b57806391d1485414610243578063926d7d7f14610256578063a217fddf1461027d575f80fd5b806336568abe116100ef57806336568abe146101e65780633f4ba83a146101f95780635c975abb146102015780635da377e31461020c5780636d9213a61461021f575f80fd5b806301ffc9a71461012b5780630b7914301461015357806311d11a5b1461017a578063248a9ca3146101af5780632f2ff15d146101d1575b5f80fd5b61013e610139366004610e51565b610308565b60405190151581526020015b60405180910390f35b610166610161366004610e7f565b61033e565b60405161014a989796959493929190610eaa565b6101a17ff9b712ed3cd0e90cdc9d1abac8fb677bf018af115fb294c768a96b48bd6922c581565b60405190815260200161014a565b6101a16101bd366004610e7f565b5f9081526020819052604090206001015490565b6101e46101df366004610f7c565b610427565b005b6101e46101f4366004610f7c565b610451565b6101e4610489565b60015460ff1661013e565b61013e61021a366004610fb4565b61049e565b6101a161022d36600461101a565b610548565b6101a160025481565b6101e461097d565b61013e610251366004610f7c565b61098f565b6101a17fe2b7fb3b832174769106daebcfd6d1970523240dda11281102db9363b83b0dc481565b6101a15f81565b610297610292366004610e7f565b6109b7565b60405161014a9190611086565b6003546102b7906001600160a01b031681565b6040516001600160a01b03909116815260200161014a565b6101e46102dd366004610f7c565b610a16565b6101e46102f03660046110c9565b610a3a565b6101e46103033660046110e2565b610a96565b5f6001600160e01b03198216637965db0b60e01b148061033857506301ffc9a760e01b6001600160e01b03198316145b92915050565b600460208190525f918252604090912080546001820154600283015460038401549484015460058501805460ff958616979496939567ffffffffffffffff8416946001600160a01b03600160401b86041694600160e01b90049091169290916103a69061112a565b80601f01602080910402602001604051908101604052809291908181526020018280546103d29061112a565b801561041d5780601f106103f45761010080835404028352916020019161041d565b820191905f5260205f20905b81548152906001019060200180831161040057829003601f168201915b5050505050905088565b5f8281526020819052604090206001015461044181610c3c565b61044b8383610c46565b50505050565b6001600160a01b038116331461047a5760405163334bd91960e11b815260040160405180910390fd5b6104848282610cd5565b505050565b5f61049381610c3c565b61049b610d3e565b50565b5f828152600560205260408120815b815481101561053e575f60045f8484815481106104cc576104cc611162565b905f5260205f20015481526020019081526020015f2090508460078111156104f6576104f6610e96565b815460ff16600781111561050c5761050c610e96565b14801561052457506004810154600160e01b900460ff165b156105355760019350505050610338565b506001016104ad565b505f949350505050565b5f610551610d90565b7ff9b712ed3cd0e90cdc9d1abac8fb677bf018af115fb294c768a96b48bd6922c561057b81610c3c565b866105cd5760405162461bcd60e51b815260206004820152601760248201527f4f5241434c453a20696e76616c6964207375626a65637400000000000000000060448201526064015b60405180910390fd5b8561061a5760405162461bcd60e51b815260206004820152601960248201527f4f5241434c453a20696e76616c6964206461746120686173680000000000000060448201526064016105c4565b846106675760405162461bcd60e51b815260206004820152601e60248201527f4f5241434c453a20696e76616c6964207369676e61747572652068617368000060448201526064016105c4565b826106b45760405162461bcd60e51b815260206004820152601960248201527f4f5241434c453a20656d70747920696e737469747574696f6e0000000000000060448201526064016105c4565b6003546001600160a01b0316156107955760035460405163c8902a2160e01b81526001600160a01b039091169063c8902a21906106f7908790879060040161119e565b602060405180830381865afa158015610712573d5f803e3d5ffd5b505050506040513d601f19601f8201168201806040525081019061073691906111b9565b6107955760405162461bcd60e51b815260206004820152602a60248201527f4f5241434c453a20696e737469747574696f6e206e6f742061637469766520696044820152696e20726567697374727960b01b60648201526084016105c4565b60028054905f6107a4836111d8565b9190505591506040518061010001604052808960078111156107c8576107c8610e96565b81526020018881526020018781526020018681526020014267ffffffffffffffff168152602001336001600160a01b0316815260200160011515815260200185858080601f0160208091040260200160405190810160405280939291908181526020018383808284375f9201829052509390945250508481526004602052604090208251815491925090829060ff1916600183600781111561086c5761086c610e96565b0217905550602082015160018201556040820151600282015560608201516003820155608082015160048201805460a085015160c08601511515600160e01b0260ff60e01b196001600160a01b03909216600160401b026001600160e01b031990931667ffffffffffffffff90951694909417919091171691909117905560e082015160058201906108fe908261125b565b5050505f878152600560209081526040822080546001810182559083529120018290558688600781111561093457610934610e96565b837f83149242cf16b9f68b6a0abfa0f530d3e5deea8ac7e9ba0aa1dc1e5becfe28528933898960405161096a949392919061131b565b60405180910390a4509695505050505050565b5f61098781610c3c565b61049b610db6565b5f918252602082815260408084206001600160a01b0393909316845291905290205460ff1690565b5f81815260056020908152604091829020805483518184028101840190945280845260609392830182828015610a0a57602002820191905f5260205f20905b8154815260200190600101908083116109f6575b50505050509050919050565b5f82815260208190526040902060010154610a3081610c3c565b61044b8383610cd5565b5f610a4481610c3c565b600380546001600160a01b038481166001600160a01b0319831681179093556040519116919082907f124e3896652f6e8e2067ec03f7b7a32e1bd4d2dacc895c941c133225523b39c8905f90a3505050565b7ff9b712ed3cd0e90cdc9d1abac8fb677bf018af115fb294c768a96b48bd6922c5610ac081610c3c565b5f848152600460208190526040909120015467ffffffffffffffff16610b285760405162461bcd60e51b815260206004820152601760248201527f4f5241434c453a206576656e74206e6f7420666f756e6400000000000000000060448201526064016105c4565b5f8481526004602081905260409091200154600160e01b900460ff16610b905760405162461bcd60e51b815260206004820152601760248201527f4f5241434c453a20616c726561647920696e76616c696400000000000000000060448201526064016105c4565b81610bdd5760405162461bcd60e51b815260206004820152601760248201527f4f5241434c453a20726561736f6e20726571756972656400000000000000000060448201526064016105c4565b5f8481526004602081905260409182902001805460ff60e01b1916905551339085907f75af023d7ae0ef601fe146fc322dabe296abd50431cb6fb29a2192696ece0f0a90610c2e908790879061119e565b60405180910390a350505050565b61049b8133610df1565b5f610c51838361098f565b610cce575f838152602081815260408083206001600160a01b03861684529091529020805460ff19166001179055610c863390565b6001600160a01b0316826001600160a01b0316847f2f8788117e7eff1d82e926ec794901d17c78024a50270940304540a733656f0d60405160405180910390a4506001610338565b505f610338565b5f610ce0838361098f565b15610cce575f838152602081815260408083206001600160a01b0386168085529252808320805460ff1916905551339286917ff6391f5c32d9c69d2a47ea670b442974b53935d1edc7fd64eb21e047a839171b9190a4506001610338565b610d46610e2e565b6001805460ff191690557f5db9ee0a495bf2e6ff9c91a7834c1ba4fdd244a5e8aa4e537bd38aeae4b073aa335b6040516001600160a01b03909116815260200160405180910390a1565b60015460ff1615610db45760405163d93c066560e01b815260040160405180910390fd5b565b610dbe610d90565b6001805460ff1916811790557f62e78cea01bee320cd4e420270b5ea74000d11b0c9f74754ebdbfc544b05a25833610d73565b610dfb828261098f565b610e2a5760405163e2517d3f60e01b81526001600160a01b0382166004820152602481018390526044016105c4565b5050565b60015460ff16610db457604051638dfc202b60e01b815260040160405180910390fd5b5f60208284031215610e61575f80fd5b81356001600160e01b031981168114610e78575f80fd5b9392505050565b5f60208284031215610e8f575f80fd5b5035919050565b634e487b7160e01b5f52602160045260245ffd5b5f61010060088b10610eca57634e487b7160e01b5f52602160045260245ffd5b8a835260208a602085015289604085015288606085015267ffffffffffffffff8816608085015260018060a01b03871660a085015285151560c08501528160e0850152845180838601525f92505b80831015610f3757858301820151858401610120015291810191610f18565b61012092505f83828701015282601f19601f83011686010193505050509998505050505050505050565b80356001600160a01b0381168114610f77575f80fd5b919050565b5f8060408385031215610f8d575f80fd5b82359150610f9d60208401610f61565b90509250929050565b803560088110610f77575f80fd5b5f8060408385031215610fc5575f80fd5b82359150610f9d60208401610fa6565b5f8083601f840112610fe5575f80fd5b50813567ffffffffffffffff811115610ffc575f80fd5b602083019150836020828501011115611013575f80fd5b9250929050565b5f805f805f8060a0878903121561102f575f80fd5b61103887610fa6565b9550602087013594506040870135935060608701359250608087013567ffffffffffffffff811115611068575f80fd5b61107489828a01610fd5565b979a9699509497509295939492505050565b602080825282518282018190525f9190848201906040850190845b818110156110bd578351835292840192918401916001016110a1565b50909695505050505050565b5f602082840312156110d9575f80fd5b610e7882610f61565b5f805f604084860312156110f4575f80fd5b83359250602084013567ffffffffffffffff811115611111575f80fd5b61111d86828701610fd5565b9497909650939450505050565b600181811c9082168061113e57607f821691505b60208210810361115c57634e487b7160e01b5f52602260045260245ffd5b50919050565b634e487b7160e01b5f52603260045260245ffd5b81835281816020850137505f828201602090810191909152601f909101601f19169091010190565b602081525f6111b1602083018486611176565b949350505050565b5f602082840312156111c9575f80fd5b81518015158114610e78575f80fd5b5f600182016111f557634e487b7160e01b5f52601160045260245ffd5b5060010190565b634e487b7160e01b5f52604160045260245ffd5b601f82111561048457805f5260205f20601f840160051c810160208510156112355750805b601f840160051c820191505b81811015611254575f8155600101611241565b5050505050565b815167ffffffffffffffff811115611275576112756111fc565b61128981611283845461112a565b84611210565b602080601f8311600181146112bc575f84156112a55750858301515b5f19600386901b1c1916600185901b178555611313565b5f85815260208120601f198616915b828110156112ea578886015182559484019460019091019084016112cb565b508582101561130757878501515f19600388901b60f8161c191681555b505060018460011b0185555b505050505050565b8481526001600160a01b03841660208201526060604082018190525f906113459083018486611176565b969550505050505056fea2646970667358221220239a1c67c1cea3c69798eafaaadbb0cfd92d6ced33719aea53adc5b074b2cbe564736f6c63430008180033",
  "linkReferences": {},
  "deployedLinkReferences": {}
}