{
  "_format": "hh-sol-artifact-1",
  "contractName": "LegacyPolicy",
  "sourceName": "contracts/LegacyPolicy.sol",
  "abi": [
    {
      "inputs": [
        {
          "internalType": "address",
          "name": "admin",
          "type": "address"
        }
      ],
      "stateMutability": "nonpayable",
      "type": "constructor"
    },
    {
      "inputs": [],
      "name": "AccessControlBadConfirmation",
      "type": "error"
    },
    {
      "inputs": [
        {
          "internalType": "address",
          "name": "account",
          "type": "address"
        },
        {
          "internalType": "bytes32",
          "name": "neededRole",
          "type": "bytes32"
        }
      ],
      "name": "AccessControlUnauthorizedAccount",
      "type": "error"
    },
    {
      "anonymous": false,
      "inputs": [
        {
          "indexed": true,
          "internalType": "uint256",
          "name": "policyId",
          "type": "uint256"
        },
        {
          "indexed": true,
          "internalType": "uint256",
          "name": "capsuleId",
          "type": "uint256"
        }
      ],
      "name": "CapsuleLinked",
      "type": "event"
    },
    {
      "anonymous": false,
      "inputs": [
        {
          "indexed": true,
          "internalType": "uint256",
          "name": "policyId",
          "type": "uint256"
        },
        {
          "indexed": true,
          "internalType": "address",
          "name": "operator",
          "type": "address"
        }
      ],
      "name": "PolicyActivated",
      "type": "event"
    },
    {
      "anonymous": false,
      "inputs": [
        {
          "indexed": true,
          "internalType": "uint256",
          "name": "policyId",
          "type": "uint256"
        },
        {
          "indexed": true,
          "internalType": "address",
          "name": "creator",
          "type": "address"
        },
        {
          "indexed": false,
          "internalType": "string",
          "name": "policyHash",
          "type": "string"
        }
      ],
      "name": "PolicyCreated",
      "type": "event"
    },
    {
      "anonymous": false,
      "inputs": [
        {
          "indexed": true,
          "internalType": "uint256",
          "name": "policyId",
          "type": "uint256"
        },
        {
          "indexed": true,
          "internalType": "address",
          "name": "operator",
          "type": "address"
        }
      ],
      "name": "PolicyExecuted",
      "type": "event"
    },
    {
      "anonymous": false,
      "inputs": [
        {
          "indexed": true,
          "internalType": "uint256",
          "name": "policyId",
          "type": "uint256"
        },
        {
          "indexed": true,
          "internalType": "address",
          "name": "operator",
          "type": "address"
        }
      ],
      "name": "PolicyRevoked",
      "type": "event"
    },
    {
      "anonymous": false,
      "inputs": [
        {
          "indexed": true,
          "internalType": "bytes32",
          "name": "role",
          "type": "bytes32"
        },
        {
          "indexed": true,
          "internalType": "bytes32",
          "name": "previousAdminRole",
          "type": "bytes32"
        },
        {
          "indexed": true,
          "internalType": "bytes32",
          "name": "newAdminRole",
          "type": "bytes32"
        }
      ],
      "name": "RoleAdminChanged",
      "type": "event"
    },
    {
      "anonymous": false,
      "inputs": [
        {
          "indexed": true,
          "internalType": "bytes32",
          "name": "role",
          "type": "bytes32"
        },
        {
          "indexed": true,
          "internalType": "address",
          "name": "account",
          "type": "address"
        },
        {
          "indexed": true,
          "internalType": "address",
          "name": "sender",
          "type": "address"
        }
      ],
      "name": "RoleGranted",
      "type": "event"
    },
    {
      "anonymous": false,
      "inputs": [
        {
          "indexed": true,
          "internalType": "bytes32",
          "name": "role",
          "type": "bytes32"
        },
        {
          "indexed": true,
          "internalType": "address",
          "name": "account",
          "type": "address"
        },
        {
          "indexed": true,
          "internalType": "address",
          "name": "sender",
          "type": "address"
        }
      ],
      "name": "RoleRevoked",
      "type": "event"
    },
    {
      "inputs": [],
      "name": "DEFAULT_ADMIN_ROLE",
      "outputs": [
        {
          "internalType": "bytes32",
          "name": "",
          "type": "bytes32"
        }
      ],
      "stateMutability": "view",
      "type": "function"
    },
    {
      "inputs": [],
      "name": "POLICY_MANAGER_ROLE",
      "outputs": [
        {
          "internalType": "bytes32",
          "name": "",
          "type": "bytes32"
        }
      ],
      "stateMutability": "view",
      "type": "function"
    },
    {
      "inputs": [
        {
          "internalType": "uint256",
          "name": "policyId",
          "type": "uint256"
        }
      ],
      "name": "activatePolicy",
      "outputs": [],
      "stateMutability": "nonpayable",
      "type": "function"
    },
    {
      "inputs": [
        {
          "internalType": "string",
          "name": "policyHash",
          "type": "string"
        },
        {
          "internalType": "address[]",
          "name": "wallets",
          "type": "address[]"
        },
        {
          "internalType": "uint16[]",
          "name": "shares",
          "type": "uint16[]"
        },
        {
          "internalType": "string[]",
          "name": "roles",
          "type": "string[]"
        }
      ],
      "name": "createPolicy",
      "outputs": [
        {
          "internalType": "uint256",
          "name": "policyId",
          "type": "uint256"
        }
      ],
      "stateMutability": "nonpayable",
      "type": "function"
    },
    {
      "inputs": [
        {
          "internalType": "address",
          "name": "",
          "type": "address"
        },
        {
          "internalType": "uint256",
          "name": "",
          "type": "uint256"
        }
      ],
      "name": "creatorPolicies",
      "outputs": [
        {
          "internalType": "uint256",
          "name": "",
          "type": "uint256"
        }
      ],
      "stateMutability": "view",
      "type": "function"
    },
    {
      "inputs": [
        {
          "internalType": "uint256",
          "name": "policyId",
          "type": "uint256"
        }
      ],
      "name": "executePolicy",
      "outputs": [],
      "stateMutability": "nonpayable",
      "type": "function"
    },
    {
      "inputs": [
        {
          "internalType": "uint256",
          "name": "policyId",
          "type": "uint256"
        }
      ],
      "name": "getBeneficiaries",
      "outputs": [
        {
          "components": [
            {
              "internalType": "address",
              "name": "wallet",
              "type": "address"
            },
            {
              "internalType": "uint16",
              "name": "sharePercent",
              "type": "uint16"
            },
            {
              "internalType": "string",
              "name": "role",
              "type": "string"
            }
          ],
          "internalType": "struct LegacyPolicy.Beneficiary[]",
          "name": "",
          "type": "tuple[]"
        }
      ],
      "stateMutability": "view",
      "type": "function"
    },
    {
      "inputs": [
        {
          "internalType": "uint256",
          "name": "policyId",
          "type": "uint256"
        }
      ],
      "name": "getCapsuleIds",
      "outputs": [
        {
          "internalType": "uint256[]",
          "name": "",
          "type": "uint256[]"
        }
      ],
      "stateMutability": "view",
      "type": "function"
    },
    {
      "inputs": [
        {
          "internalType": "address",
          "name": "creator",
          "type": "address"
        }
      ],
      "name": "getCreatorPolicies",
      "outputs": [
        {
          "internalType": "uint256[]",
          "name": "",
          "type": "uint256[]"
        }
      ],
      "stateMutability": "view",
      "type": "function"
    },
    {
      "inputs": [
        {
          "internalType": "uint256",
          "name": "policyId",
          "type": "uint256"
        }
      ],
      "name": "getPolicy",
      "outputs": [
        {
          "internalType": "address",
          "name": "creator",
          "type": "address"
        },
        {
          "internalType": "string",
          "name": "policyHash",
          "type": "string"
        },
        {
          "internalType": "enum LegacyPolicy.PolicyStatus",
          "name": "status",
          "type": "uint8"
        },
        {
          "internalType": "uint64",
          "name": "createdAt",
          "type": "uint64"
        },
        {
          "internalType": "uint64",
          "name": "executedAt",
          "type": "uint64"
        }
      ],
      "stateMutability": "view",
      "type": "function"
    },
    {
      "inputs": [
        {
          "internalType": "bytes32",
          "name": "role",
          "type": "bytes32"
        }
      ],
      "name": "getRoleAdmin",
      "outputs": [
        {
          "internalType": "bytes32",
          "name": "",
          "type": "bytes32"
        }
      ],
      "stateMutability": "view",
      "type": "function"
    },
    {
      "inputs": [
        {
          "internalType": "bytes32",
          "name": "role",
          "type": "bytes32"
        },
        {
          "internalType": "address",
          "name": "account",
          "type": "address"
        }
      ],
      "name": "grantRole",
      "outputs": [],
      "stateMutability": "nonpayable",
      "type": "function"
    },
    {
      "inputs": [
        {
          "internalType": "bytes32",
          "name": "role",
          "type": "bytes32"
        },
        {
          "internalType": "address",
          "name": "account",
          "type": "address"
        }
      ],
      "name": "hasRole",
      "outputs": [
        {
          "internalType": "bool",
          "name": "",
          "type": "bool"
        }
      ],
      "stateMutability": "view",
      "type": "function"
    },
    {
      "inputs": [
        {
          "internalType": "uint256",
          "name": "policyId",
          "type": "uint256"
        },
        {
          "internalType": "uint256",
          "name": "capsuleId",
          "type": "uint256"
        }
      ],
      "name": "linkCapsule",
      "outputs": [],
      "stateMutability": "nonpayable",
      "type": "function"
    },
    {
      "inputs": [],
      "name": "policyCount",
      "outputs": [
        {
          "internalType": "uint256",
          "name": "",
          "type": "uint256"
        }
      ],
      "stateMutability": "view",
      "type": "function"
    },
    {
      "inputs": [
        {
          "internalType": "bytes32",
          "name": "role",
          "type": "bytes32"
        },
        {
          "internalType": "address",
          "name": "callerConfirmation",
          "type": "address"
        }
      ],
      "name": "renounceRole",
      "outputs": [],
      "stateMutability": "nonpayable",
      "type": "function"
    },
    {
      "inputs": [
        {
          "internalType": "uint256",
          "name": "policyId",
          "type": "uint256"
        }
      ],
      "name": "revokePolicy",
      "outputs": [],
      "stateMutability": "nonpayable",
      "type": "function"
    },
    {
      "inputs": [
        {
          "internalType": "bytes32",
          "name": "role",
          "type": "bytes32"
        },
        {
          "internalType": "address",
          "name": "account",
          "type": "address"
        }
      ],
      "name": "revokeRole",
      "outputs": [],
      "stateMutability": "nonpayable",
      "type": "function"
    },
    {
      "inputs": [
        {
          "internalType": "bytes4",
          "name": "interfaceId",
          "type": "bytes4"
        }
      ],
      "name": "supportsInterface",
      "outputs": [
        {
          "internalType": "bool",
          "name": "",
          "type": "bool"
        }
      ],
      "stateMutability": "view",
      "type": "function"
    }
  ],
  "bytecode": "0x608034620000c857601f620016eb38819003918201601f19168301916001600160401b03831184841017620000cc57808492602094604052833981010312620000c857516001600160a01b038116808203620000c857156200008357806200006b6200007292620000e0565b5062000150565b506040516114ba9081620001f18239f35b60405162461bcd60e51b815260206004820152601560248201527f504f4c4943593a20696e76616c69642061646d696e00000000000000000000006044820152606490fd5b5f80fd5b634e487b7160e01b5f52604160045260245ffd5b6001600160a01b03165f8181525f80516020620016cb833981519152602052604090205460ff166200014b575f8181525f80516020620016cb83398151915260205260408120805460ff191660011790553391905f80516020620016ab8339815191528180a4600190565b505f90565b6001600160a01b03165f8181527fee7c610cddb26dc0cdf15890e8767e79a2136b968b4bba3bb3441495f3ec9aec60205260409020547f2724e1c963eb1465b51230910d2ca7be74b71883f8cab72076d8c12e086c2b48919060ff16620001ea57815f525f60205260405f20815f5260205260405f20600160ff1982541617905533915f80516020620016ab8339815191525f80a4600190565b50505f9056fe6080806040526004361015610012575f80fd5b5f3560e01c90816301ffc9a714610faf57508063024106de146108cc5780631e1cc25f14610892578063248a9ca3146108665780632b07fce3146107da5780632f2ff15d1461079e57806336568abe14610757578063540f766c146106db57806356fb8556146106705780636a10279714610618578063783804d9146104d6578063871ae93a1461042b57806391d14854146103e3578063992d5e1814610343578063a217fddf14610329578063cdb045dd146102a3578063d547741f14610265578063de54d429146102485763e0476b55146100ed575f80fd5b34610244576020806003193601126102445760043590815f526002815260405f2060018060a01b0381541633148015610207575b156101cb576004019081549060ff821660048110156101b757600214610173575060ff1916600317905533907f082737bffe5d38ca614674c82101b0d8c726089ed00acbdaa2787abe3932ebfc5f80a3005b6064906040519062461bcd60e51b82526004820152601860248201527f504f4c4943593a20616c726561647920657865637574656400000000000000006044820152fd5b634e487b7160e01b5f52602160045260245ffd5b60405162461bcd60e51b81526004810183905260146024820152731413d31250d64e881d5b985d5d1a1bdc9a5e995960621b6044820152606490fd5b507f2724e1c963eb1465b51230910d2ca7be74b71883f8cab72076d8c12e086c2b485f525f825260405f20335f52825260ff60405f205416610121565b5f80fd5b34610244575f366003190112610244576020600154604051908152f35b34610244576040366003190112610244576102a1600435610284611071565b90805f525f60205261029c600160405f200154611375565b611412565b005b3461024457602080600319360112610244576001600160a01b036102c5611087565b165f52600360205260405f20906040519081602084549182815201935f5260205f20915f905b8282106103125761030e85610302818903826111c3565b6040519182918261109d565b0390f35b8354865294850194600193840193909101906102eb565b34610244575f3660031901126102445760206040515f8152f35b346102445760203660031901126102445760043561035f6112fc565b805f526002602052600460405f2001805460ff81169060048210156101b75761038c6001600293146112bb565b70ffffffffffffffff0000000000000000ff19164260481b70ffffffffffffffff000000000000000000161717905533907f6302adc2f70c35737b7d4c90ca84753edeca119a2498cb2dc1605e1a3f84b2905f80a3005b34610244576040366003190112610244576103fc611071565b6004355f525f60205260405f209060018060a01b03165f52602052602060ff60405f2054166040519015158152f35b34610244576020366003190112610244576004356104476112fc565b805f526002602052600460405f2001805460ff811660048110156101b75761049a5760ff1916600117905533907f382bbfaf6eeb6f14d82f0e57e31f6214123557666b4c9b5d61ca779921b829dc5f80a3005b60405162461bcd60e51b81526020600482015260146024820152731413d31250d64e881b9bdd081a5b88191c98599d60621b6044820152606490fd5b3461024457602080600319360112610244576004355f526002808252600260405f2001805467ffffffffffffffff811161060457604051939261051f600583901b8501866111c3565b81855283850180935f52845f205f915b8483106105b857604080518881528951818a018190525f92600582901b83018101918a918c9085015b8287106105655785850386f35b9091929382806105a8600193603f198a820301865288516040606091878060a01b03815116845261ffff8682015116868501520151918160408201520190611033565b9601920196019592919092610558565b838760019260409a999a516105cc816111a7565b61ffff8654868060a01b038116835260a01c16838201526105ee858701611219565b604082015281520192019201919096959661052f565b634e487b7160e01b5f52604160045260245ffd5b3461024457604036600319011261024457610631611087565b6001600160a01b03165f9081526003602052604090208054602435919082101561024457602091610661916110d8565b90549060031b1c604051908152f35b3461024457602080600319360112610244576004355f526002602052600360405f2001906040519081602084549182815201935f5260205f20915f905b8282106106c45761030e85610302818903826111c3565b8354865294850194600193840193909101906106ad565b34610244576040366003190112610244576024356004356106fa6112fc565b805f52600260205260405f2060ff6004820154169060048210156101b7576003849161072b600161073195146112bb565b016111e5565b7f3ebbae1451844d2796464e24a2f704180f728fa1df96afbb69fb5ebd8c7db8095f80a3005b3461024457604036600319011261024457610770611071565b336001600160a01b0382160361078c576102a190600435611412565b60405163334bd91960e11b8152600490fd5b34610244576040366003190112610244576102a16004356107bd611071565b90805f525f6020526107d5600160405f200154611375565b611396565b34610244576020366003190112610244576004355f52600260205260405f2060018060a01b0381541690600481015460ff81169161083d610826600167ffffffffffffffff9301611219565b60405195865260a0602087015260a0860190611033565b9160048410156101b75784936040850152818160081c16606085015260481c1660808301520390f35b34610244576020366003190112610244576004355f525f6020526020600160405f200154604051908152f35b34610244575f3660031901126102445760206040517f2724e1c963eb1465b51230910d2ca7be74b71883f8cab72076d8c12e086c2b488152f35b346102445760803660031901126102445767ffffffffffffffff60043511610244573660236004350112156102445767ffffffffffffffff600435600401351161024457366024600435600401356004350101116102445760243567ffffffffffffffff811161024457610944903690600401611002565b60443567ffffffffffffffff811161024457610964903690600401611002565b91909260643567ffffffffffffffff811161024457610987903690600401611002565b906004356004013515610f755784841480610f6c575b15610f27578315610ee2575f805b868210610ebc57612710915003610e6c57600154945f198614610e585760018601600155855f52600260205260405f2093336bffffffffffffffffffffffff60a01b865416178555610a1360043560040135610a0a600188015461110c565b60018801611144565b5f601f6004356004013511600114610dd057610a52905f9060043560040135610dc0575b5060043560040135908160011b915f199060031b1c19161790565b60018601555b60048501805468ffffffffffffffffff19164260081b68ffffffffffffffff00161790555f5b868110610b1057602088335f5260038252610a9c8160405f206111e5565b60405182815260043560040135838201526004356004013560246004350160408301375f60406004356004013583010152817f21d0178f0cde2aed24022db30651dabafb4bbe431fb787fbc92113304d8e35493392604081601f19601f6004356004013501168101030190a3604051908152f35b6001600160a01b03610b2b610b26838a866110ed565b611193565b1615610d8257610b3f610b268289856110ed565b610b52610b4d83868d6110ed565b6110fd565b86831015610d6e57601e19863603018360051b87013512156102445767ffffffffffffffff8360051b8701358701351161024457600583901b860135860160208101919035360382136102445761ffff9060405193610bb0856111a7565b60018060a01b0316845216602083015260405190610be16020601f19601f8760051b8b01358b0135011601836111c3565b600584901b8701358701803580845236910160200111610244578360051b8701358701359060208301375f60208460051b8801358801358301015260408201526002870154600160401b81101561060457600181018060028a0155811015610d6e57604090600289015f5260205f209060011b019160018060a01b0381511683549061ffff60a01b602084015160a01b169169ffffffffffffffffffff60b01b1617178355015180519067ffffffffffffffff821161060457610cb482610cab600186015461110c565b60018601611144565b602090601f8311600114610cfe578260019594938693610ce9935f92610cf3575b50508160011b915f199060031b1c19161790565b9101555b01610a7e565b015190508f80610cd5565b90600184015f5260205f20915f5b601f1985168110610d56575092600195949392869392849383601f19811610610d3e575b505050811b01910155610ced565b01515f1960f88460031b161c191690558e8080610d30565b91926020600181928685015181550194019201610d0c565b634e487b7160e01b5f52603260045260245ffd5b60405162461bcd60e51b81526020600482015260166024820152751413d31250d64e881a5b9d985b1a59081dd85b1b195d60521b6044820152606490fd5b602491506004350101358a610a37565b600186015f5260205f20905f5b600480350135601f19168110610e3b5750600480350135601f19811610610e17575b5050600160043560040135811b016001860155610a58565b60245f1960f86004356004013560031b161c19916004350101351690558880610dff565b909160206001819260248660043501013581550193019101610ddd565b634e487b7160e01b5f52601160045260245ffd5b60405162461bcd60e51b815260206004820152602260248201527f504f4c4943593a20736861726573206d75737420746f74616c20313030303020604482015261062760f41b6064820152608490fd5b61ffff610ecd610b4d848a8c6110ed565b168101809111610e58576001909101906109ab565b60405162461bcd60e51b815260206004820152601860248201527f504f4c4943593a206e6f2062656e6566696369617269657300000000000000006044820152606490fd5b60405162461bcd60e51b815260206004820152601760248201527f504f4c4943593a206c656e677468206d69736d617463680000000000000000006044820152606490fd5b5081841461099d565b60405162461bcd60e51b81526020600482015260126024820152710a09e989286b27440cadae0e8f240d0c2e6d60731b6044820152606490fd5b34610244576020366003190112610244576004359063ffffffff60e01b821680920361024457602091637965db0b60e01b8114908115610ff1575b5015158152f35b6301ffc9a760e01b14905083610fea565b9181601f840112156102445782359167ffffffffffffffff8311610244576020808501948460051b01011161024457565b91908251928382525f5b84811061105d575050825f602080949584010152601f8019910116010190565b60208183018101518483018201520161103d565b602435906001600160a01b038216820361024457565b600435906001600160a01b038216820361024457565b60209060206040818301928281528551809452019301915f5b8281106110c4575050505090565b8351855293810193928101926001016110b6565b8054821015610d6e575f5260205f2001905f90565b9190811015610d6e5760051b0190565b3561ffff811681036102445790565b90600182811c9216801561113a575b602083101461112657565b634e487b7160e01b5f52602260045260245ffd5b91607f169161111b565b601f821161115157505050565b5f5260205f20906020601f840160051c83019310611189575b601f0160051c01905b81811061117e575050565b5f8155600101611173565b909150819061116a565b356001600160a01b03811681036102445790565b6060810190811067ffffffffffffffff82111761060457604052565b90601f8019910116810190811067ffffffffffffffff82111761060457604052565b8054600160401b81101561060457611202916001820181556110d8565b819291549060031b91821b915f19901b1916179055565b9060405191825f825461122b8161110c565b908184526020946001916001811690815f14611299575060011461125b575b505050611259925003836111c3565b565b5f90815285812095935091905b81831061128157505061125993508201015f808061124a565b85548884018501529485019487945091830191611268565b9250505061125994925060ff191682840152151560051b8201015f808061124a565b156112c257565b60405162461bcd60e51b8152602060048201526012602482015271504f4c4943593a206e6f742061637469766560701b6044820152606490fd5b335f9081527fee7c610cddb26dc0cdf15890e8767e79a2136b968b4bba3bb3441495f3ec9aec60205260409020547f2724e1c963eb1465b51230910d2ca7be74b71883f8cab72076d8c12e086c2b489060ff16156113575750565b6044906040519063e2517d3f60e01b82523360048301526024820152fd5b805f525f60205260405f20335f5260205260ff60405f205416156113575750565b90815f525f60205260405f209060018060a01b031690815f5260205260ff60405f205416155f1461140c57815f525f60205260405f20815f5260205260405f20600160ff1982541617905533917f2f8788117e7eff1d82e926ec794901d17c78024a50270940304540a733656f0d5f80a4600190565b50505f90565b90815f525f60205260405f209060018060a01b031690815f5260205260ff60405f2054165f1461140c57815f525f60205260405f20815f5260205260405f2060ff19815416905533917ff6391f5c32d9c69d2a47ea670b442974b53935d1edc7fd64eb21e047a839171b5f80a460019056fea26469706673582212207a9da977ca59f5f9894f02a83cc5f07878b3232409674d2e91a795c49ebd817a64736f6c634300081800332f8788117e7eff1d82e926ec794901d17c78024a50270940304540a733656f0dad3228b676f7d3cd4284a5443f17f1962b36e491b30a40b2405849e597ba5fb5",
  "linkReferences": {},
  "deployedLinkReferences": {}
}