{
  "_format": "hh-sol-artifact-1",
  "contractName": "FeeManager",
  "sourceName": "contracts/FeeManager.sol",
  "abi": [
    {
      "inputs": [
        {
          "internalType": "address",
          "name": "tokenAddress",
          "type": "address"
        },
        {
          "internalType": "address",
          "name": "treasuryAddress",
          "type": "address"
        },
        {
          "internalType": "uint16",
          "name": "platformBps",
          "type": "uint16"
        },
        {
          "internalType": "uint16",
          "name": "burnBps",
          "type": "uint16"
        }
      ],
      "stateMutability": "nonpayable",
      "type": "constructor"
    },
    {
      "inputs": [],
      "name": "AccessControlBadConfirmation",
      "type": "error"
    },
    {
      "inputs": [
        {
          "internalType": "address",
          "name": "account",
          "type": "address"
        },
        {
          "internalType": "bytes32",
          "name": "neededRole",
          "type": "bytes32"
        }
      ],
      "name": "AccessControlUnauthorizedAccount",
      "type": "error"
    },
    {
      "inputs": [],
      "name": "EnforcedPause",
      "type": "error"
    },
    {
      "inputs": [],
      "name": "ExpectedPause",
      "type": "error"
    },
    {
      "inputs": [
        {
          "internalType": "address",
          "name": "token",
          "type": "address"
        }
      ],
      "name": "SafeERC20FailedOperation",
      "type": "error"
    },
    {
      "anonymous": false,
      "inputs": [
        {
          "indexed": true,
          "internalType": "address",
          "name": "payer",
          "type": "address"
        },
        {
          "indexed": true,
          "internalType": "uint256",
          "name": "baseAmount",
          "type": "uint256"
        },
        {
          "indexed": false,
          "internalType": "uint256",
          "name": "treasuryAmount",
          "type": "uint256"
        },
        {
          "indexed": false,
          "internalType": "uint256",
          "name": "burnedAmount",
          "type": "uint256"
        }
      ],
      "name": "FeeCollected",
      "type": "event"
    },
    {
      "anonymous": false,
      "inputs": [
        {
          "indexed": false,
          "internalType": "uint16",
          "name": "platformFeeBps",
          "type": "uint16"
        },
        {
          "indexed": false,
          "internalType": "uint16",
          "name": "burnFeeBps",
          "type": "uint16"
        },
        {
          "indexed": false,
          "internalType": "address",
          "name": "treasury",
          "type": "address"
        }
      ],
      "name": "FeeConfigUpdated",
      "type": "event"
    },
    {
      "anonymous": false,
      "inputs": [
        {
          "indexed": false,
          "internalType": "address",
          "name": "account",
          "type": "address"
        }
      ],
      "name": "Paused",
      "type": "event"
    },
    {
      "anonymous": false,
      "inputs": [
        {
          "indexed": true,
          "internalType": "bytes32",
          "name": "role",
          "type": "bytes32"
        },
        {
          "indexed": true,
          "internalType": "bytes32",
          "name": "previousAdminRole",
          "type": "bytes32"
        },
        {
          "indexed": true,
          "internalType": "bytes32",
          "name": "newAdminRole",
          "type": "bytes32"
        }
      ],
      "name": "RoleAdminChanged",
      "type": "event"
    },
    {
      "anonymous": false,
      "inputs": [
        {
          "indexed": true,
          "internalType": "bytes32",
          "name": "role",
          "type": "bytes32"
        },
        {
          "indexed": true,
          "internalType": "address",
          "name": "account",
          "type": "address"
        },
        {
          "indexed": true,
          "internalType": "address",
          "name": "sender",
          "type": "address"
        }
      ],
      "name": "RoleGranted",
      "type": "event"
    },
    {
      "anonymous": false,
      "inputs": [
        {
          "indexed": true,
          "internalType": "bytes32",
          "name": "role",
          "type": "bytes32"
        },
        {
          "indexed": true,
          "internalType": "address",
          "name": "account",
          "type": "address"
        },
        {
          "indexed": true,
          "internalType": "address",
          "name": "sender",
          "type": "address"
        }
      ],
      "name": "RoleRevoked",
      "type": "event"
    },
    {
      "anonymous": false,
      "inputs": [
        {
          "indexed": false,
          "internalType": "address",
          "name": "account",
          "type": "address"
        }
      ],
      "name": "Unpaused",
      "type": "event"
    },
    {
      "inputs": [],
      "name": "DEFAULT_ADMIN_ROLE",
      "outputs": [
        {
          "internalType": "bytes32",
          "name": "",
          "type": "bytes32"
        }
      ],
      "stateMutability": "view",
      "type": "function"
    },
    {
      "inputs": [],
      "name": "MAX_BPS",
      "outputs": [
        {
          "internalType": "uint16",
          "name": "",
          "type": "uint16"
        }
      ],
      "stateMutability": "view",
      "type": "function"
    },
    {
      "inputs": [],
      "name": "TREASURER_ROLE",
      "outputs": [
        {
          "internalType": "bytes32",
          "name": "",
          "type": "bytes32"
        }
      ],
      "stateMutability": "view",
      "type": "function"
    },
    {
      "inputs": [],
      "name": "burnFeeBps",
      "outputs": [
        {
          "internalType": "uint16",
          "name": "",
          "type": "uint16"
        }
      ],
      "stateMutability": "view",
      "type": "function"
    },
    {
      "inputs": [
        {
          "internalType": "address",
          "name": "payer",
          "type": "address"
        },
        {
          "internalType": "uint256",
          "name": "baseAmount",
          "type": "uint256"
        }
      ],
      "name": "collectFee",
      "outputs": [
        {
          "internalType": "uint256",
          "name": "totalFee",
          "type": "uint256"
        }
      ],
      "stateMutability": "nonpayable",
      "type": "function"
    },
    {
      "inputs": [
        {
          "internalType": "bytes32",
          "name": "role",
          "type": "bytes32"
        }
      ],
      "name": "getRoleAdmin",
      "outputs": [
        {
          "internalType": "bytes32",
          "name": "",
          "type": "bytes32"
        }
      ],
      "stateMutability": "view",
      "type": "function"
    },
    {
      "inputs": [
        {
          "internalType": "bytes32",
          "name": "role",
          "type": "bytes32"
        },
        {
          "internalType": "address",
          "name": "account",
          "type": "address"
        }
      ],
      "name": "grantRole",
      "outputs": [],
      "stateMutability": "nonpayable",
      "type": "function"
    },
    {
      "inputs": [
        {
          "internalType": "bytes32",
          "name": "role",
          "type": "bytes32"
        },
        {
          "internalType": "address",
          "name": "account",
          "type": "address"
        }
      ],
      "name": "hasRole",
      "outputs": [
        {
          "internalType": "bool",
          "name": "",
          "type": "bool"
        }
      ],
      "stateMutability": "view",
      "type": "function"
    },
    {
      "inputs": [],
      "name": "pause",
      "outputs": [],
      "stateMutability": "nonpayable",
      "type": "function"
    },
    {
      "inputs": [],
      "name": "paused",
      "outputs": [
        {
          "internalType": "bool",
          "name": "",
          "type": "bool"
        }
      ],
      "stateMutability": "view",
      "type": "function"
    },
    {
      "inputs": [],
      "name": "platformFeeBps",
      "outputs": [
        {
          "internalType": "uint16",
          "name": "",
          "type": "uint16"
        }
      ],
      "stateMutability": "view",
      "type": "function"
    },
    {
      "inputs": [
        {
          "internalType": "uint256",
          "name": "baseAmount",
          "type": "uint256"
        }
      ],
      "name": "quoteFee",
      "outputs": [
        {
          "internalType": "uint256",
          "name": "treasuryAmount",
          "type": "uint256"
        },
        {
          "internalType": "uint256",
          "name": "burnedAmount",
          "type": "uint256"
        },
        {
          "internalType": "uint256",
          "name": "totalFee",
          "type": "uint256"
        }
      ],
      "stateMutability": "view",
      "type": "function"
    },
    {
      "inputs": [
        {
          "internalType": "bytes32",
          "name": "role",
          "type": "bytes32"
        },
        {
          "internalType": "address",
          "name": "callerConfirmation",
          "type": "address"
        }
      ],
      "name": "renounceRole",
      "outputs": [],
      "stateMutability": "nonpayable",
      "type": "function"
    },
    {
      "inputs": [
        {
          "internalType": "bytes32",
          "name": "role",
          "type": "bytes32"
        },
        {
          "internalType": "address",
          "name": "account",
          "type": "address"
        }
      ],
      "name": "revokeRole",
      "outputs": [],
      "stateMutability": "nonpayable",
      "type": "function"
    },
    {
      "inputs": [
        {
          "internalType": "address",
          "name": "newTreasury",
          "type": "address"
        },
        {
          "internalType": "uint16",
          "name": "newPlatformFeeBps",
          "type": "uint16"
        },
        {
          "internalType": "uint16",
          "name": "newBurnFeeBps",
          "type": "uint16"
        }
      ],
      "name": "setFeeConfig",
      "outputs": [],
      "stateMutability": "nonpayable",
      "type": "function"
    },
    {
      "inputs": [],
      "name": "sglToken",
      "outputs": [
        {
          "internalType": "contract ISGLBurnable",
          "name": "",
          "type": "address"
        }
      ],
      "stateMutability": "view",
      "type": "function"
    },
    {
      "inputs": [
        {
          "internalType": "bytes4",
          "name": "interfaceId",
          "type": "bytes4"
        }
      ],
      "name": "supportsInterface",
      "outputs": [
        {
          "internalType": "bool",
          "name": "",
          "type": "bool"
        }
      ],
      "stateMutability": "view",
      "type": "function"
    },
    {
      "inputs": [],
      "name": "treasury",
      "outputs": [
        {
          "internalType": "address",
          "name": "",
          "type": "address"
        }
      ],
      "stateMutability": "view",
      "type": "function"
    },
    {
      "inputs": [],
      "name": "unpause",
      "outputs": [],
      "stateMutability": "nonpayable",
      "type": "function"
    }
  ],
  "bytecode": "0x60a060405234801562000010575f80fd5b506040516200100c3803806200100c8339810160408190526200003391620002ad565b6001600160a01b038416620000845760405162461bcd60e51b81526020600482015260126024820152712322a29d1034b73b30b634b2103a37b5b2b760711b60448201526064015b60405180910390fd5b6001600160a01b038316620000dc5760405162461bcd60e51b815260206004820152601560248201527f4645453a20696e76616c6964207472656173757279000000000000000000000060448201526064016200007b565b612710620000eb828462000307565b61ffff161115620001325760405162461bcd60e51b815260206004820152601060248201526f4645453a20696e76616c69642062707360801b60448201526064016200007b565b6001600160a01b0384811660805260018054610100600160b81b0319166101009286169290920261ffff60a81b191691909117600160a81b61ffff858116919091029190911761ffff60b81b1916600160b81b918416919091021790556200019b5f33620001d3565b50620001c87f3496e2e73c4d42b75d702e60d9e48102720b8691234415963a5a857b86425d0733620001d3565b505050505062000336565b5f828152602081815260408083206001600160a01b038516845290915281205460ff1662000276575f838152602081815260408083206001600160a01b03861684529091529020805460ff191660011790556200022d3390565b6001600160a01b0316826001600160a01b0316847f2f8788117e7eff1d82e926ec794901d17c78024a50270940304540a733656f0d60405160405180910390a450600162000279565b505f5b92915050565b80516001600160a01b038116811462000296575f80fd5b919050565b805161ffff8116811462000296575f80fd5b5f805f8060808587031215620002c1575f80fd5b620002cc856200027f565b9350620002dc602086016200027f565b9250620002ec604086016200029b565b9150620002fc606086016200029b565b905092959194509250565b61ffff8181168382160190808211156200032f57634e487b7160e01b5f52601160045260245ffd5b5092915050565b608051610ca8620003645f395f8181610264015281816104560152818161049501526104df0152610ca85ff3fe608060405234801561000f575f80fd5b506004361061011c575f3560e01c80635c975abb116100a9578063a217fddf1161006e578063a217fddf146102a1578063a5189810146102a8578063d547741f146102bd578063f0a3a97c146102d0578063fd967f47146102f7575f80fd5b80635c975abb1461022457806361d027b31461022f57806362b24ea21461025f5780638456cb591461028657806391d148541461028e575f80fd5b80632ec0ff6c116100ef5780632ec0ff6c146101ce5780632f2ff15d146101e157806336568abe146101f65780633f4ba83a14610209578063445315eb14610211575f80fd5b806301ffc9a7146101205780632205f5681461014857806322dcd13e14610176578063248a9ca31461019e575b5f80fd5b61013361012e366004610af7565b610300565b60405190151581526020015b60405180910390f35b61015b610156366004610b25565b610336565b6040805193845260208401929092529082015260600161013f565b60015461018b90600160a81b900461ffff1681565b60405161ffff909116815260200161013f565b6101c06101ac366004610b25565b5f9081526020819052604090206001015490565b60405190815260200161013f565b6101c06101dc366004610b57565b61039f565b6101f46101ef366004610b7f565b610590565b005b6101f4610204366004610b7f565b6105ba565b6101f46105f2565b6101f461021f366004610bba565b610607565b60015460ff16610133565b6001546102479061010090046001600160a01b031681565b6040516001600160a01b03909116815260200161013f565b6102477f000000000000000000000000000000000000000000000000000000000000000081565b6101f461074a565b61013361029c366004610b7f565b61075c565b6101c05f81565b60015461018b90600160b81b900461ffff1681565b6101f46102cb366004610b7f565b610784565b6101c07f3496e2e73c4d42b75d702e60d9e48102720b8691234415963a5a857b86425d0781565b61018b61271081565b5f6001600160e01b03198216637965db0b60e01b148061033057506301ffc9a760e01b6001600160e01b03198316145b92915050565b6001545f90819081906127109061035890600160a81b900461ffff1686610c0e565b6103629190610c25565b6001549093506127109061038190600160b81b900461ffff1686610c0e565b61038b9190610c25565b91506103978284610c44565b929491935050565b5f6103a86107a8565b7f3496e2e73c4d42b75d702e60d9e48102720b8691234415963a5a857b86425d076103d2816107ce565b6001600160a01b0384166104225760405162461bcd60e51b81526020600482015260126024820152712322a29d1034b73b30b634b2103830bcb2b960711b60448201526064015b60405180910390fd5b5f805f61042e86610336565b925092509250809450845f03610449575f9450505050610589565b61047e6001600160a01b037f0000000000000000000000000000000000000000000000000000000000000000168830886107d8565b82156104c3576001546104c3906001600160a01b037f00000000000000000000000000000000000000000000000000000000000000008116916101009004168561080e565b811561053f57604051630852cd8d60e31b8152600481018390527f00000000000000000000000000000000000000000000000000000000000000006001600160a01b0316906342966c68906024015f604051808303815f87803b158015610528575f80fd5b505af115801561053a573d5f803e3d5ffd5b505050505b604080518481526020810184905287916001600160a01b038a16917f7e4199a81d431b89a16814e8730ae102c7b9b30c1a661bc67be86f4b185b1733910160405180910390a35050505b5092915050565b5f828152602081905260409020600101546105aa816107ce565b6105b48383610843565b50505050565b6001600160a01b03811633146105e35760405163334bd91960e11b815260040160405180910390fd5b6105ed82826108d2565b505050565b5f6105fc816107ce565b61060461093b565b50565b5f610611816107ce565b6001600160a01b03841661065f5760405162461bcd60e51b81526020600482015260156024820152744645453a20696e76616c696420747265617375727960581b6044820152606401610419565b61271061066c8385610c57565b61ffff1611156106b15760405162461bcd60e51b815260206004820152601060248201526f4645453a20696e76616c69642062707360801b6044820152606401610419565b60018054610100600160b81b0319166101006001600160a01b03871690810261ffff60a81b191691909117600160a81b61ffff8781169182029290921761ffff60b81b1916600160b81b928716928302179093556040805193845260208401919091528201527f39496d5c6d0e7cc50e42af40e13422682ada6aee092a8eee36bb0fdd19096fd99060600160405180910390a150505050565b5f610754816107ce565b61060461098d565b5f918252602082815260408084206001600160a01b0393909316845291905290205460ff1690565b5f8281526020819052604090206001015461079e816107ce565b6105b483836108d2565b60015460ff16156107cc5760405163d93c066560e01b815260040160405180910390fd5b565b61060481336109c8565b6107e6848484846001610a05565b6105b457604051635274afe760e01b81526001600160a01b0385166004820152602401610419565b61081b8383836001610a72565b6105ed57604051635274afe760e01b81526001600160a01b0384166004820152602401610419565b5f61084e838361075c565b6108cb575f838152602081815260408083206001600160a01b03861684529091529020805460ff191660011790556108833390565b6001600160a01b0316826001600160a01b0316847f2f8788117e7eff1d82e926ec794901d17c78024a50270940304540a733656f0d60405160405180910390a4506001610330565b505f610330565b5f6108dd838361075c565b156108cb575f838152602081815260408083206001600160a01b0386168085529252808320805460ff1916905551339286917ff6391f5c32d9c69d2a47ea670b442974b53935d1edc7fd64eb21e047a839171b9190a4506001610330565b610943610ad4565b6001805460ff191690557f5db9ee0a495bf2e6ff9c91a7834c1ba4fdd244a5e8aa4e537bd38aeae4b073aa335b6040516001600160a01b03909116815260200160405180910390a1565b6109956107a8565b6001805460ff1916811790557f62e78cea01bee320cd4e420270b5ea74000d11b0c9f74754ebdbfc544b05a25833610970565b6109d2828261075c565b610a015760405163e2517d3f60e01b81526001600160a01b038216600482015260248101839052604401610419565b5050565b6040516323b872dd60e01b5f8181526001600160a01b038781166004528616602452604485905291602083606481808c5af1925060015f51148316610a61578383151615610a55573d5f823e3d81fd5b5f883b113d1516831692505b604052505f60605295945050505050565b60405163a9059cbb60e01b5f8181526001600160a01b038616600452602485905291602083604481808b5af1925060015f51148316610ac8578383151615610abc573d5f823e3d81fd5b5f873b113d1516831692505b60405250949350505050565b60015460ff166107cc57604051638dfc202b60e01b815260040160405180910390fd5b5f60208284031215610b07575f80fd5b81356001600160e01b031981168114610b1e575f80fd5b9392505050565b5f60208284031215610b35575f80fd5b5035919050565b80356001600160a01b0381168114610b52575f80fd5b919050565b5f8060408385031215610b68575f80fd5b610b7183610b3c565b946020939093013593505050565b5f8060408385031215610b90575f80fd5b82359150610ba060208401610b3c565b90509250929050565b803561ffff81168114610b52575f80fd5b5f805f60608486031215610bcc575f80fd5b610bd584610b3c565b9250610be360208501610ba9565b9150610bf160408501610ba9565b90509250925092565b634e487b7160e01b5f52601160045260245ffd5b808202811582820484141761033057610330610bfa565b5f82610c3f57634e487b7160e01b5f52601260045260245ffd5b500490565b8082018082111561033057610330610bfa565b61ffff81811683821601908082111561058957610589610bfa56fea26469706673582212209d638302a951fe709f59ed2c2fd2d7b7d3f121178c46be62829b391648d0412a64736f6c63430008180033",
  "linkReferences": {},
  "deployedLinkReferences": {}
}